:100000000C94B6000C945F250C948C250C94DE00A7
:100010000C94DE000C94DE000C94DE000C94DE00E8
:100020000C94DE000C94DE000C94DE000C94DE00D8
:100030000C94DE000C94DE000C94DE000C94DE00C8
:100040000C94B9250C94DE000C9423280C946A2897
:100050000C94DE000C94DE000C94DE000C94DE00A8
:100060000C9453170C94DE0007634236B79BD8A755
:100070001A39685618AEBAAB558C1D3CB7CC5763CD
:10008000BD6DEDFD753EF6177231BF000000803F7B
:1000900008000000BE922449123EABAAAA2ABECD97
:1000A000CCCC4C3E00000080BEABAAAAAA3E000009
:1000B0000000BF000000803F000000000008417801
:1000C000D3BB4387D1133D190E3CC3BD4282AD2B38
:1000D0003E68EC8276BED98FE1A93E4C80EFFFBE30
:1000E00001C4FF7F3F000000000074727565006668
:1000F000616C7365006E756C6C0025750025752E3E
:10010000002D0025640000000000240027002A00C4
:1001100000000000250028002B0000000000230044
:100120002600290004040404040404040202020258
:1001300002020303030303030102040810204080AA
:10014000010204081020010204081020000000072A
:10015000000201000003040600000000000000008F
:10016000A8093A156E16371A3C1AE12911241FBE48
:10017000CFEFD8E0DEBFCDBF11E0A0E0B1E0E4E713
:10018000FFE502C005900D92A239B107D9F715E03D
:10019000A2E9B1E001C01D92AD3CB107E1F711E069
:1001A000CCE6D1E004C02297FE010E94722FC03637
:1001B000D107C9F70E94312A0C94B82F0C94000083
:1001C000CF93DF93BC018230910510F462E070E0C0
:1001D000A091C305B091C405ED01E0E0F0E040E07E
:1001E00050E021C0888199818617970769F48A8138
:1001F0009B81309719F09383828304C09093C40548
:100200008093C305FE0134C06817790738F441159F
:10021000510519F08417950708F4AC01FE018A8195
:100220009B819C01E9012097E9F641155105A9F14F
:10023000CA01861B970B049708F4BA01E0E0F0E0CE
:100240002AC08D919C91119784179507F9F4641732
:10025000750781F412968D919C911397309719F040
:100260009383828304C09093C4058093C305FD01EA
:1002700032964CC0CA01861B970BFD01E80FF91F8F
:100280006193719302978D939C9340C0FD0182818D
:1002900093819C01D9011097A1F68091C10590919D
:1002A000C205892B41F480916B0190916C01909370
:1002B000C2058093C10540916D0150916E014115B9
:1002C000510541F44DB75EB78091690190916A0183
:1002D000481B590B2091C1053091C205CA01821BF0
:1002E000930B8617970780F0AB014E5F5F4F841723
:1002F000950750F0420F531F5093C2054093C1051C
:10030000F9016193719302C0E0E0F0E0CF01DF9169
:10031000CF910895CF93DF93009709F450C0EC017B
:1003200022971B821A82A091C305B091C405109731
:1003300009F140E050E0AC17BD0708F1BB83AA8388
:10034000FE0121913191E20FF31FAE17BF0779F43F
:100350008D919C911197280F391F2E5F3F4F398344
:10036000288312968D919C9113979B838A834115C4
:10037000510571F4D093C405C093C30520C01296F3
:100380008D919C911397AD01009711F0DC01D3CFB3
:10039000FA01D383C28321913191E20FF31FCE176B
:1003A000DF0769F488819981280F391F2E5F3F4F3D
:1003B000FA01318320838A819B8193838283DF9139
:1003C000CF9108952F923F925F926F927F928F927A
:1003D0009F92AF92BF92CF92DF92EF92FF920F93D4
:1003E0001F93CF93DF938C011B01EA016115710507
:1003F00019F0FB0191838083209749F0CE01029789
:10040000839728F020E030E040E050E0F6C0F801AB
:10041000A1908F018A2D90E00E94762F892BB9F749
:10042000FDE2AF1631F4F801A1908F0155245394E9
:1004300007C0FBE2AF1619F4F801A1908F01552413
:10044000209719F0C031D105C1F4F0E3AF1679F46B
:10045000F8018081883711F0883549F4F801A180CE
:100460000E5F1F4FF2E05F2AC0E1D0E006C0209788
:1004700021F480E3A816E9F427C0C830D10531F192
:10048000C930D10524F4C230D10531F50CC0CA30D1
:10049000D10589F0C031D105F9F4C12CD12CE12C62
:1004A000B8E0FB2E28C0C12CD12CE12CA0E4FA2E00
:1004B00022C0CAE0D0E0FCECCF2EFCECDF2EFCEC3E
:1004C000EF2EFCE0FF2E17C0C8E0D0E0C12CD12CED
:1004D000E12CE0E1FE2E0FC09E01442737FD409540
:1004E000542F60E070E080E090E80E944E2FC90138
:1004F000DA016C017D0120E030E040E050E060E096
:100500003E01882477FC8094982C70EDB72EBA0CAD
:10051000E9E0EB1570F48A2D81548A3118F499ECD6
:10052000B92E06C08A2D81568A3150F589EAB82E37
:10053000BA0C8B2D90E08C179D0714F56F3FE1F0FE
:10054000C216D306E406F506B0F0CA01B901A4014B
:1005500093010E94082F9B01AC012B0D311D411D01
:10056000511D2130F0E03F07F0E04F07F0E85F0752
:1005700010F461E001C06FEFF801A1908F01C5CFC9
:100580002114310481F0662331F001501040F10153
:100590001183008308C051FE1AC002501040F101BF
:1005A0001183008314C067FF12C050FC05C02FEFF9
:1005B0003FEF4FEF5FE704C020E030E040E050E85D
:1005C00082E290E09093CC058093CB0516C050FE5C
:1005D00008C050954095309521953F4F4F4F5F4F44
:1005E0000CC057FF0AC082E290E09093CC05809344
:1005F000CB052FEF3FEF4FEF5FE7B901CA01DF9166
:10060000CF911F910F91FF90EF90DF90CF90BF900F
:10061000AF909F908F907F906F905F903F902F90C2
:100620000895FC0188279927E89421912032E9F365
:10063000293010F02E30C8F32B3241F02D3239F42E
:10064000689404C00E948403820F911D219120535D
:100650002A30C0F31EF4909581959F4F08950F9313
:100660001F93CF93DF93182F092FE82FF92FDF0166
:100670000D900020E9F7CD018E1B9F0B0E94E0003A
:10068000EC01009721F0612F702F0E946003CE01D2
:10069000DF91CF911F910F910895FB01DC018D91A6
:1006A00081341CF08B350CF4805E619161341CF058
:1006B0006B350CF4605E861B611189F3990B08950C
:1006C000FB01DC0101900D920020E1F70895FB0190
:1006D000DC014150504030F08D910190801919F4A7
:1006E0000020B9F7881B990B0895FB01DC014150EC
:1006F000504048F001900D920020C9F701C01D92B2
:1007000041505040E0F708957AE0979F902D879FE1
:10071000802D910D11240895FC01838187FF24C051
:100720008091C5059091C6058E179F0721F4109200
:10073000C6051092C5058091C7059091C8058E1712
:100740009F0721F41092C8051092C7058091C90532
:100750009091CA058E179F0721F41092CA05109236
:10076000C905CF010E948A0180E090E008950F93AF
:100770001F93CF93DF938C01EB01009731F4611548
:10078000710519F420E030E038C081E090E06EE0BF
:1007900070E00E94DA06FC019C01009771F180E88C
:1007A0008383209771F0D387C28781E88383809108
:1007B000C5059091C605892B21F4F093C605E093F9
:1007C000C50501151105C9F0118700878381826075
:1007D00083838091C7059091C805892B71F4F093AC
:1007E000C805E093C7058091C9059091CA05892B7A
:1007F00021F4F093CA05E093C905C901DF91CF91B7
:100800001F910F910895CF93DF93EC014B8140FF2F
:100810001AC046FF0AC04F7B4B838E819F81019691
:100820009F838E838A81282F2BC042FF13C0E881CB
:10083000F9818081282F332727FD30952115310537
:1008400029F440624B832FEF3FEF1BC03196F983B1
:10085000E88311C0EA85FB85CE0109959C0197FFCD
:100860000AC09B812F5F3F4F11F080E201C080E101
:10087000892B8B83E8CF8E819F8101969F838E8306
:1008800030E0C901DF91CF910895A0E0B0E0EBE442
:10089000F4E00C948F2F0F8118859E01255F3F4F48
:1008A000F801838188608383C80169857A85A901FD
:1008B0000E94FD04F8012381277F23832096E4E032
:1008C0000C94AB2F0F931F93CF93DF938C01EB010D
:1008D0008B8181FF1BC082FF0DC02E813F818C81E7
:1008E0009D812817390764F4E881F9810193F98320
:1008F000E88306C0E885F985802F0995892B31F4B6
:100900008E819F8101969F838E8302C00FEF1FEF20
:10091000C801DF91CF911F910F910895A0E0B0E041
:10092000E4E9F4E00C94872FFC014B015A016901C2
:10093000D90113968C9180FF1AC07F01C0E0D0E0EE
:1009400010C0C6010E940304BFEF8F3F9B0789F0D0
:10095000F70181937F010F5F1F4F0815190588F379
:100960002196CA15DB0528F400E010E0F6CFC0E0C0
:10097000D0E0CE01CDB7DEB7ECE00C94A32FAEE013
:10098000B0E0E5ECF4E00C948F2F0D891E8986E031
:100990008C831A8309838FEF9FE79E838D839E014B
:1009A000275E3F4FCE0101966F89788DA9010E9485
:1009B000FD042F813885020F131FF80110822E9637
:1009C000E4E00C94AB2F9C01FB01838180FF11C0FC
:1009D00086FD0FC09FEF2F3F390759F022838064B7
:1009E0008F7D83838681978101979783868330E00B
:1009F00002C02FEF3FEFC9010895ABE0B0E0E3E0A4
:100A0000F5E00C94812F3C012B015A01FC01178267
:100A10001682838181FD03C06FEF7FEFC6C19AE02C
:100A2000892E1E010894211C311CF3012381F2013F
:100A300023FD859123FF81912F01882309F4B2C101
:100A4000853239F423FD859123FF81912F01853271
:100A500029F490E0B3010E946204E7CF982FFF24AD
:100A6000EE249924FFE1FF15D0F09B3269F09C320F
:100A700028F4903259F0933291F40EC09D3249F02F
:100A8000903369F441E024C052E0F52A84E0F82A6A
:100A900028C098E0F92A25C0E0E1FE2A22C0F7FC30
:100AA00029C0892F80538A3070F4F6FE05C0989CC7
:100AB000902C1124980E15C0E89CE02C1124E80E0F
:100AC000F0E2FF2A0EC09E3229F4F6FC6BC140E42E
:100AD000F42A07C09C3619F450E8F52A02C098366B
:100AE00049F4F20123FD959123FF91912F01992360
:100AF00009F0B8CF892F8554833018F080528330A5
:100B000038F444E050E0A40EB51E5FE359830FC0F3
:100B1000933631F0933779F0933509F056C020C001
:100B2000F5018081898342E050E0A40EB51E610189
:100B300001E010E012C0F501C080D180F6FC03C0D6
:100B40006FEF7FEF02C0692D70E042E050E0A40E2D
:100B5000B51EC6010E9408078C015FE7F52214C08C
:100B6000F501C080D180F6FC03C06FEF7FEF02C0BB
:100B7000692D70E042E050E0A40EB51EC6010E944F
:100B8000F6068C0150E8F52AF3FE07C01AC080E291
:100B900090E0B3010E946204EA948E2D90E0081761
:100BA0001907A8F30EC0F601F7FC8591F7FE8191B5
:100BB0006F0190E0B3010E946204E110EA940150D9
:100BC00010400115110579F7EAC0943611F09936F5
:100BD00069F5F7FE08C0F50120813181428153811A
:100BE00084E090E00AC0F501808191819C01442756
:100BF00037FD4095542F82E090E0A80EB91E9FE685
:100C0000F92257FF09C050954095309521953F4FE7
:100C10004F4F5F4FE0E8FE2ACA01B901A1012AE067
:100C200030E00E941307D82ED21840C0953729F41F
:100C30001F2D1F7E2AE030E01DC01F2D197F9F361B
:100C400061F0903720F4983509F0ACC00FC09037B0
:100C500039F0983709F0A6C004C028E030E00AC097
:100C6000106114FD146020E130E004C014FD166032
:100C700020E132E017FF08C0F501608171818281B7
:100C8000938144E050E008C0F50180819181BC016E
:100C900080E090E042E050E0A40EB51EA1010E9469
:100CA0001307D82ED2188FE7F82EF122F6FE0BC0CC
:100CB0005EEFF522D91438F4F4FE07C0F2FC05C04B
:100CC0008FEEF82202C01D2D01C0192DF4FE0DC0BB
:100CD000FE01ED0DF11D8081803319F499EEF922AA
:100CE00008C01F5FF2FE05C003C08F2D867809F093
:100CF0001F5F0F2DF3FC14C0F0FE0FC01E1510F087
:100D00009D2C0BC09D2C9E0C911A1E2D06C080E2BE
:100D100090E0B3010E9462041F5F1E15C0F304C07F
:100D20001E1510F4E11A01C0EE2404FF0FC080E389
:100D300090E0B3010E94620402FF1DC001FD03C0E8
:100D400088E790E00EC088E590E00BC0802F8678A1
:100D500091F001FF02C08BE201C080E2F7FC8DE25E
:100D600090E0B3010E94620406C080E390E0B3010A
:100D70000E9462049A94D914C0F3DA94F101ED0D43
:100D8000F11D808190E0B3010E946204DD20A9F78B
:100D900006C080E290E0B3010E946204EA94EE2073
:100DA000C1F743CEF30166817781CB012B96E2E157
:100DB0000C949D2F0F931F93CF93DF93689F800117
:100DC000699F100D789F100D1124C8010E94E0004A
:100DD000EC01009729F060E070E0A8010E94010793
:100DE000CE01DF91CF911F910F910895FC010590E5
:100DF000615070400110D8F7809590958E0F9F1F1D
:100E00000895DC0101C06D9341505040E0F7089512
:100E1000FC016150704001900110D8F780959095C9
:100E20008E0F9F1F0895FA01AA27283051F1203113
:100E300081F1E8946F936E7F6E5F7F4F8F4F9F4F6E
:100E4000AF4FB1E03ED0B4E03CD0670F781F891FB0
:100E50009A1FA11D680F791F8A1F911DA11D6A0F7E
:100E6000711D811D911DA11D20D009F468943F9131
:100E70002AE0269F11243019305D3193DEF6CF0130
:100E80000895462F4770405D4193B3E00FD0C9F7F6
:100E9000F6CF462F4F70405D4A3318F0495D31FD63
:100EA0004052419302D0A9F7EACFB4E0A6959795B6
:100EB000879577956795BA95C9F70097610571058C
:100EC00008959B01AC010A2E0694579547953795D6
:100ED0002795BA95C9F7620F731F841F951FA01D30
:100EE00008950F931F930CE812E0C8010E94E320BD
:100EF000C8010E94201B1F910F91089582EA94E07F
:100F000040E855E260E070E00E94B32887E061E0CD
:100F10000E94552788E061E00E94552789E061E042
:100F20000E94552787E061E00E947B2788E061E00E
:100F30000E947B2789E061E00E947B270895DC0105
:100F4000862F90E0FC01E85CFE4FE491EC938C5D11
:100F50009E4FFC016491E62FF0E0EE0FFF1FE65E6E
:100F6000FE4F8591949112969C938E9311970895BC
:100F7000FC012781308541855285B901CA01089558
:100F8000FC012385348545855685B901CA0108953C
:100F90000F931F938C01862F90E0FC01E85CFE4FBD
:100FA000E491D801EC938C5D9E4FFC016491E62F97
:100FB000F0E0EE0FFF1FE65EFE4F859194911296D2
:100FC0009C938E9311970E940126D80113966D93DE
:100FD0007D938D939C93169780E090E0A7ECB2EC04
:100FE000F80187839087A187B28783879487A58735
:100FF000B6871F910F9108954F925F927F928F92C3
:101000009F92AF92BF92CF92DF92EF92FF920F9397
:101010001F93DF93CF93CDB7DEB7A9970FB6F894A0
:10102000DEBF0FBECDBF5C01FC017080018112816B
:101030000E9401269B01AC014E010894811C911C69
:101040002401CE018A96F20111922F01E817F907C7
:10105000D1F7F50183819481A581B68169017A0177
:10106000C81AD90AEA0AFB0AD701C601805D97406F
:10107000A040B04018F427E030E02EC1F5012383F2
:10108000348345835683F894F8018181E72CE094FA
:101090008E2181837894FF24C72CDD2407C0F3942C
:1010A000FEE7FF1619F421E030E016C182E090E07F
:1010B0000E948E26F801808190E08C219D21892B51
:1010C00071F3F894F80182818E21828381818729CE
:1010D000818378948CE494E00E948E26F894F80141
:1010E00081818E2181837894FF2407C0F394FAE1F3
:1010F000FF1619F422E030E0EFC082E090E00E9499
:101100008E26F801808190E08C219D21892B71F33E
:10111000FF2407C0F394F3E3FF1619F423E030E053
:10112000DBC082E090E00E948E26F801808190E092
:101130008C219D21892B71F7FF2407C0F394F4E2E1
:10114000FF1619F424E030E0C7C082E090E00E946E
:101150008E26F801808190E08C219D21892B71F3EE
:10116000FF2406C0F3E3FF1619F425E030E0B4C015
:10117000F39482E090E00E948E26F801808190E056
:101180008C219D21892B71F7F401F1924F01E41517
:10119000F50591F6EE24FF2420E030E0DE01119603
:1011A00060E170E041E050E02F5F3F4FFD01E20F52
:1011B000F31F80818C3058F0CB01821B930B6A01A6
:1011C00002C0CC0CDD1C8A95E2F7EC28FD2820310A
:1011D000310551F7FE01729600E010E02FE030E09B
:1011E00041E050E080818C3048F0CA01022E02C0FC
:1011F000880F991F0A94E2F7082B192B21503040D1
:1012000031966FEF2F3F360769F7FE01B296DD2466
:1012100027E030E041E050E080818C3040F0CA01AE
:10122000022E02C0880F991F0A94E2F7D82A215093
:1012300030403196E415F50579F7B7017F778827B7
:1012400077FD8095982F0E948E2C20E030E040E2C0
:1012500051E40E94F32BF5016783708781879287A1
:1012600017FF0DC01F77B801882777FD8095982F4D
:101270000E948E2C20E030E040E251EC0BC0B8011F
:10128000882777FD8095982F0E948E2C20E030E0F3
:1012900040E251E40E94F32BF50163877487858750
:1012A00096874D2D50E02F2D332727FD3A958E2D13
:1012B00090E0820F911D800F911D212F332727FD74
:1012C0003A95820F911D90704817590719F026E042
:1012D00030E002C020E030E0C901A9960FB6F894D2
:1012E000DEBF0FBECDBFCF91DF911F910F91FF9059
:1012F000EF90DF90CF90BF90AF909F908F907F90B6
:101300005F904F900895449A459AE9EBF0E0808110
:101310008E7F808380818D7F808388E48093B80076
:1013200084E48093BC000895FC0180919201909127
:101330009401981B90939301882319F410929301C0
:101340000895815080939201E90FF11D82810895E3
:101350000895EF92FF920F931F930E9401267B0145
:101360008C0184E98093BC001BC021153105E1F09C
:101370000E9401266E197F09800B910B2091950127
:101380003091960140E050E062177307840795079B
:1013900038F01092BC0084E48093BC0081E009C066
:1013A00020919501309196018091BC0084FDDDCFA4
:1013B00080E01F910F91FF90EF900895CF92DF9200
:1013C000EF92FF921F93162F0E9401266B017C0162
:1013D000112311F084EC01C084E88093BC001BC091
:1013E00021153105E1F00E9401266C197D098E0955
:1013F0009F09209195013091960140E050E06217DD
:1014000073078407950738F01092BC0084E480933A
:10141000BC0091E019C02091950130919601809116
:10142000BC0087FFDDCF8091B900887F883349F405
:101430009091B900987F1092BC0084E48093BC0026
:1014400003C09091B900987F892F1F91FF90EF9072
:10145000DF90CF900895EF92FF920F931F93CF9359
:10146000DF93EC016093BB000E9401267B018C019D
:1014700084E88093BC001BC021153105E1F00E9477
:1014800001266E197F09800B910B209195013091F7
:10149000960140E050E0621773078407950738F023
:1014A0001092BC0084E48093BC0011E020C0209125
:1014B0009501309196018091BC0087FFDDCF80912E
:1014C000B900887F883211F410E011C01091B90082
:1014D000187F8091B900887F803321F4CE010E946B
:1014E000A90905C01092BC0084E48093BC00812F40
:1014F000DF91CF911F910F91FF90EF900895EF92A0
:10150000FF920F931F93CF93DF93EC016093BB0087
:101510000E9401267B018C0184E88093BC001BC0E3
:1015200021153105E1F00E9401266E197F09800B1B
:10153000910B209195013091960140E050E06217A7
:1015400073078407950738F01092BC0084E48093F9
:10155000BC0011E01DC02091950130919601809151
:10156000BC0087FFDDCF8091B900887F883179F09A
:101570008091B900887F803499F409C08091B900C6
:10158000887F8834B1F4CE010E94A90901C010E01F
:10159000812FDF91CF911F910F91FF90EF900895D0
:1015A0001091B900187F8091B900887F803231F79F
:1015B000EACF1092BC0084E48093BC00E9CFEF92A4
:1015C000FF920F931F930E9401267B018C0184EAF6
:1015D0008093BC001BC021153105E1F00E9401265B
:1015E0006E197F09800B910B209195013091960126
:1015F00040E050E0621773078407950738F01092B7
:10160000BC0084E48093BC0091E021C0209195014E
:10161000309196018091BC0087FFDDCF8091B900A9
:10162000887F883099F08091B900887F8031A9F453
:101630000DC09091B900987F1092BC0084E4809313
:10164000BC0005C09091B900987F01C090E0892F3F
:101650001F910F91FF90EF9008958091B900887FBE
:10166000883381F7E6CFEF92FF920F931F93CF93CA
:10167000DF93EC01162F042FE22E109292011092AC
:101680009301222311F4EE24E394EA94E982E39493
:101690001882CE010E94DF0A8883882309F061C086
:1016A000110FCE01612F0E947F0A8883882329F0C1
:1016B000813009F056C082E054C0CE01602F0E94F4
:1016C0002B0A8883882329F0813009F04AC083E0FF
:1016D00048C0CE010E94DF0A8883882329F0813028
:1016E00009F03FC084E03DC01F5FCE01612F0E9422
:1016F0007F0A8883882319F48E01FF2425C0813056
:1017000081F585E02EC08981F81651F4CE0160E0A4
:101710000E94DE098883813019F1883551F021C09B
:10172000CE0161E00E94DE0988838130C9F08035F6
:10173000C1F48091BB00F8018283F394F09292018E
:10174000F09294010F5F1F4FFE14E8F2CE010E9449
:10175000A9098883882329F0813019F487E001C022
:1017600086E0DF91CF911F910F91FF90EF90089548
:10177000FF920F931F93CF93DF93EC01162F042F4B
:10178000F22E18820E94DF0A8883882341F5110F08
:10179000CE01612F0E947F0A8883882321F0813047
:1017A000F1F482E01CC0CE01602F0E942B0A8883D6
:1017B000882339F4CE016F2D0E942B0A8883882359
:1017C00019F0813061F40AC0CE010E94A909888312
:1017D000882329F0813019F487E001C083E0DF918C
:1017E000CF911F910F91FF9008950F931F93CF9367
:1017F000DF93EC01162F042F18820E94DF0A8883E2
:10180000882301F5110FCE01612F0E947F0A888382
:10181000882321F08130B1F482E014C0CE01602F22
:101820000E942B0A8883882321F0813059F483E0B9
:1018300009C0CE010E94A9098883882319F081304C
:1018400009F487E0DF91CF911F910F910895FB017B
:101850000680F781E02D80E004C08F5F0280F38175
:10186000E02D3097D1F70895FB010680F781E02D38
:1018700004C041500280F381E02D309711F04423E1
:10188000C1F7CF010895CF93DF93EB01DA01EE8129
:10189000FF814115510591F0309719F45F834E8314
:1018A0000DC0CF010280F381E02D3097D1F7FC010C
:1018B000B383A28315969C938E931497DF91CF9157
:1018C00008950F931F93CF93DF93FB018A01C68185
:1018D000D78103C00A80DB81C02D209739F0888131
:1018E0009981B8010E944D03892BA1F7CE01DF91A8
:1018F000CF911F910F910895EF92FF920F931F9335
:10190000CF93DF937B018A01E9012115310511F1A4
:1019100088819981009711F00E948A01C8010E9474
:101920002F0388839983D7011696ED91FC91179721
:10193000309729F41796DC93CE9316970BC0CF01FE
:101940000280F381E02D3097D1F7FC01D383C2836D
:101950009D838C83DF91CF911F910F91FF90EF902A
:101960000895EF92FF920F931F93CF93DF938C0113
:10197000EB0123C0FA80EB80888587FD08C06E816B
:101980007F816115710519F0C8010E94B10C88852D
:10199000853031F489859A85009711F00E948A017B
:1019A00088819981009711F00E948A01CE010E94DE
:1019B0008A018F2D9E2D9C01E9012097D9F6DF9198
:1019C000CF911F910F91FF90EF9008950F931F9368
:1019D000CF93DF938B01EA0182E290E0BA010E948B
:1019E00062048F5F9F4F09F464C00115110509F06F
:1019F00050C054C0803240F0823231F08C3521F03A
:101A0000992787FD909534C08CE590E0BE010E9437
:101A100062048F5F9F4F09F44CC0F80180818C30C5
:101A2000C9F08D303CF4893051F18A30B1F0883002
:101A300071F50DC0823241F08C3519F08D3039F5D9
:101A400015C08CE590E01DC082E290E008C082E6FF
:101A500090E00EC086E690E014C08EE690E0BE01F5
:101A60000E9462048F5F9F4F91F423C082E790E051
:101A7000BE010E9462048F5F9F4F49F41AC084E741
:101A800090E0BE010E9462048F5F9F4F91F00F5F54
:101A90001F4FF8018081882309F0ACCF82E290E0EB
:101AA000BE010E9462048F5F9F4F19F020E030E07A
:101AB00002C02FEF3FEFC901DF91CF911F910F912E
:101AC0000895CF93DF93EB016115710559F0CE01B5
:101AD0000E9403042FEF8F3F920721F0813291057E
:101AE000B4F306C02FEF3FEFC901DF91CF91089506
:101AF000BE010E94E3048F5F9F4FA1F320E030E01E
:101B0000F3CF6F927F928F929F92AF92BF92CF92BC
:101B1000DF92EF92FF920F931F93CF93DF93FB011E
:101B20004A016115710509F4A5C0A184B284C3847A
:101B3000D484C601B50120E030E040E050E00E94CE
:101B4000EF2B8823C4F400D000D0ADB7BEB71296F7
:101B50009C928E92119781E091E014969C938E93C3
:101B600013970E944504D7FAD094D7F8D0940F90D9
:101B70000F900F900F90C601B5010E94602C7B0161
:101B80008C01EDB7FEB738970FB6F894FEBF0FBEC5
:101B9000EDBF3196ADB7BEB712969C928E9211975B
:101BA0008DEF90E093838283E482F582068317832E
:101BB0000E944504C801B7010E948C2C9B01AC0116
:101BC000C601B5010E948A2B2CEA35EC47EA56E3A0
:101BD0000E948B2B7B018C01C5E0D0E0EDB7FEB7F6
:101BE00038960FB6F894FEBF0FBEEDBF8AEF682E91
:101BF00080E0782EC801B70120E030E040E251E4F7
:101C00000E943E2D5B016C010E94602C7B0100D084
:101C100000D000D0EDB7FEB73196ADB7BEB7129683
:101C20009C928E92119773826282758364830E9464
:101C3000450400E010E0C801B7010E948C2C9B0114
:101C4000AC01C601B5010E948A2B7B018C01EDB766
:101C5000FEB736960FB6F894FEBF0FBEEDBF20E07C
:101C600030E040E050E00E94EF2B882319F02197EC
:101C700009F0C0CF80E090E0DF91CF911F910F91EC
:101C8000FF90EF90DF90CF90BF90AF909F908F909C
:101C90007F906F900895CF93DF93DB0161157105FD
:101CA00019F420E030E01FC000D000D000D0EDB724
:101CB000FEB73196CDB7DEB75A83498383E091E012
:101CC0009383828319968D919C911A97958384832F
:101CD0000E9445049C018DB79EB706960FB6F894F6
:101CE0009EBF0FBE8DBFC901DF91CF910895FB014B
:101CF0006115710509F44BC020852330B1F1243002
:101D00003CF4213049F1223064F4222399F03FC0A1
:101D1000253089F1253064F1263091F12730B9F56D
:101D200032C000D000D0EDB7FEB75283418385EFBB
:101D300090E008C000D000D0EDB7FEB752834183D9
:101D40008FEE90E0948383830E9445049C010F9062
:101D50000F900F900F901DC000D000D0EDB7FEB7D0
:101D6000528341838AEE90E0EDCF0E944B0E0DC06E
:101D70000E94810D0AC0618572850E94E60C05C033
:101D80000E94190F02C00E94CB0E9C0102C020E0ED
:101D900030E0C9010895EF92FF920F931F93CF9304
:101DA000DF937C01FB018A0161157105C1F1C681D8
:101DB000D7818BE790E020C068817981C701A801B5
:101DC0000E94E60C8F5F9F4F39F18AE390E0B801E3
:101DD0000E9462048F5F9F4FF9F0C701BE01A80106
:101DE0000E94770E8F5F9F4FB9F00A80DB81C02D74
:101DF000209741F08CE290E0B8010E9462048F5F6E
:101E00009F4F51F02097C1F68DE790E0B8010E94F6
:101E100062048F5F9F4F19F42FEF3FEF02C020E065
:101E200030E0C901DF91CF911F910F91FF90EF90AA
:101E30000895EF92FF920F931F93CF93DF937C014E
:101E4000FB018A016115710539F1C681D7818BE5E6
:101E500090E00FC0C701BE01A8010E94770E8F5FFE
:101E60009F4FB9F00A80DB81C02D209741F08CE2B2
:101E700090E0B8010E9462048F5F9F4F51F020975D
:101E800049F78DE590E0B8010E9462048F5F9F4F93
:101E900019F42FEF3FEF02C020E030E0C901DF91DD
:101EA000CF911F910F91FF90EF900895EF92FF92C5
:101EB0000F931F93CF93DF938C017B010E945D14DE
:101EC000EC01009719F420E030E009C0C801B70127
:101ED000AE010E94770ECE010E9446149C01C901FA
:101EE000DF91CF911F910F91FF90EF900895EF92A6
:101EF000FF920F931F93CF93DF937B018A01CA0157
:101F00000E940304829709F04FC085E0F7018087A3
:101F10000E941815EC01009709F446C0C8010E9400
:101F20000304FFEF8F3F9F0709F041C03AC08C3593
:101F3000910569F5C8010E9403042FEF8F3F9207B6
:101F400081F186369105E1F0873691054CF48C35A8
:101F5000910581F08236910589F08297D9F40CC001
:101F60008237910589F08437910581F08E3691058D
:101F700089F408C08CE50BC082E209C088E007C084
:101F80008CE005C08AE003C08DE001C089E0BE019D
:101F90000E94B214C8010E940304EFEF8F3F9E0716
:101FA00031F4CE010E94D0142FEF3FEF0FC08232E8
:101FB000910521F0803291050CF0B9CFCE010E943D
:101FC000D514F7019287818720E030E0C901DF91C5
:101FD000CF911F910F91FF90EF9008952F923F9214
:101FE0004F925F926F92AF92BF92CF92DF92EF9239
:101FF000FF920F931F93DF93CF93CDB7DEB7289750
:102000000FB6F894DEBF0FBECDBF7A8369831A0185
:10201000CA010E9403042C012FEF8F3F920771F039
:102020008D32910519F0AA24A3940DC0C1010E941C
:1020300003042C014FEF8F3F940719F42FEF3FEF6C
:1020400016C1AA24AA94C201C0970A9718F000E00A
:1020500010E018C000E010E0C80173E0880F991F7D
:102060007A95E1F7000F111F800F911F8201005335
:102070001040080F191FC1010E9403042C01C097D2
:102080000A9750F35EE245165104D1F085E64816F2
:102090005104B1F095E44916510491F08A2D992725
:1020A00087FD9095FC010E9FC0010F9F900D1E9F14
:1020B000900D1124E981FA819287818783E0D0C055
:1020C000B801882777FD8095982F0E948E2C7B0180
:1020D0008C01FEE24F16510419F0CC24DD242DC0F2
:1020E000C1010E9403042C01CC24DD24C801B701E6
:1020F00020E030E040E251E40E943E2D7B018C0163
:1021000020ED3FEF420E531EB201882777FD8095E8
:10211000982F0E948E2C9B01AC01C801B7010E9430
:102120008B2B7B018C010894C108D108C1010E944E
:1021300003042C01C0970A97C8F235E643165104F0
:1021400049F045E44416510429F018861F8266249C
:10215000639437C0C1010E9403042C018B329105A6
:1021600029F4C1010E9403042C0104C08DE2481629
:10217000510419F06624639406C0C1010E9403044F
:102180002C0166246A9418861F8215C08F81988559
:1021900053E0880F991F5A95E1F7EF81F885EE0F0C
:1021A000FF1FE80FF91FE20FF31FF887EF83C1014C
:1021B0000E9403042C019201205330402A30310543
:1021C00028F36A2D772767FD7095872F972F0E9438
:1021D0008E2CA80197010E943E2D6B837C838D83FA
:1021E0009E83B601882777FD8095982F0E948E2CBC
:1021F0005B016C012F813885B901882777FD8095B7
:10220000982F0E948E2C7B018C01662D772767FD0D
:102210007095872F972F0E948E2C9B01AC01C801CF
:10222000B7010E943E2D9B01AC01C601B5010E9481
:102230008B2B9B01AC0160E070E080E291E40E9496
:10224000A12D9B01AC016B817C818D819E810E94BF
:102250003E2DE981FA81618772878387948784E0C4
:102260008087C201B1010E94E30420E030E0C9018F
:1022700028960FB6F894DEBF0FBECDBFCF91DF9189
:102280001F910F91FF90EF90DF90CF90BF90AF9094
:102290006F905F904F903F902F9008958DE090E069
:1022A0000E94E000FC01009729F08DE0DF011D9203
:1022B0008A95E9F7CF0108950E944E11FC0100971D
:1022C00011F087E08087CF0108950E944E11FC0134
:1022D000009711F086E08087CF0108950F931F9338
:1022E000CF93DF938B010E944E11EC01009739F0E0
:1022F00085E08887C8010E942F0389879A87CE01CD
:10230000DF91CF911F910F910895CF92DF92EF92BD
:10231000FF920F931F938C017B016A01B9010E9408
:102320006E119C01C801B701A6010E947C0C1F918F
:102330000F91FF90EF90DF90CF900895EF92FF9272
:102340000F931F937A018B010E944E11FC0100979D
:1023500031F084E08087E186F28603871487CF011D
:102360001F910F91FF90EF900895AF92BF92CF927F
:10237000DF92EF92FF920F931F937C016B015A0142
:10238000B901A8010E949E119C01C701B601A501D7
:102390000E947C0C1F910F91FF90EF90DF90CF90E7
:1023A000BF90AF900895CF93DF93EB010E944E1141
:1023B000FC01009721F083E08087D287C187CF019D
:1023C000DF91CF910895CF92DF92EF92FF920F931A
:1023D0001F938C017B016A01B9010E94D3119C01FA
:1023E000C801B701A6010E947C0C1F910F91FF90BC
:1023F000EF90DF90CF9008956F927F928F929F928F
:10240000BF92CF92DF92EF92FF920F931F93CF93E1
:10241000DF937C014B018A013901CA010E94030448
:102420008B37910509F05DC087E0F4018087C70113
:10243000B8010E94610DC8010E9403048D37910507
:1024400009F452C0B8010E94E304BB24BA94C70146
:102450000E944E11EC01009709F443C0BB2021F00B
:10246000F4019783868305C0F60193838283DD821E
:10247000CC82C701B8010E94610DC701BE01A8014D
:102480000E94770F8F5F9F4F61F1C701B8010E94D3
:10249000610D89859A85998388831A861986C80172
:1024A0000E940304CA97E9F4C701B8010E94610DB4
:1024B000C701BE01A80193010E9485128F5F9F4F43
:1024C00081F0C701B8010E94610DC8010E94030498
:1024D000BB246E018C32910509F4B9CF8D3791057B
:1024E00019F02FEF3FEF02C020E030E0C901DF918B
:1024F000CF911F910F91FF90EF90DF90CF90BF9001
:102500009F908F907F906F9008958F929F92AF923F
:10251000BF92CF92DF92EF92FF920F931F93DF93C0
:10252000CF93CDB7DEB729970FB6F894DEBF0FBEB5
:10253000CDBF6C015B017A0149014115510509F4D8
:10254000ADC0BA010E94610D8F5F9F4F09F4A6C014
:10255000C7010E9403048C018FEF0F3F180709F495
:102560009DC0C801B7010E94E3048F5F9F4F09F42B
:1025700095C00232110531F4C601B501A7010E94D0
:10258000770F20C00D32110521F0C801C0970A97BE
:1025900030F4C601B501A7010E94EE0F13C00B3540
:1025A000110539F4C601B501A70194010E94641315
:1025B00009C00B37110541F4C601B501A70194010B
:1025C0000E94FC119C016CC00E36110501F51982A8
:1025D0001A821B821C828E010F5F1F4FC80161E0AF
:1025E00070E044E050E097010E948E04049709F0E7
:1025F00055C0C80160E071E044E050E00E9467030C
:10260000009709F04BC082E0F501808744C0063690
:102610001105F9F48E010B5F1F4F85E0F80111924F
:102620008A95E9F7C80161E070E045E050E0970164
:102630000E948E04059791F5C80165E071E045E0C0
:1026400050E00E946703009749F5F5011086118656
:1026500022C00437110511F519821A821B821C82CF
:102660008E010F5F1F4FC80161E070E044E050E051
:1026700097010E948E04049789F4C8016BE071E011
:1026800044E050E00E946703009741F481E0F501C7
:1026900080878FEF818720E030E002C02FEF3FEF8F
:1026A000C90129960FB6F894DEBF0FBECDBFCF91FA
:1026B000DF911F910F91FF90EF90DF90CF90BF902F
:1026C000AF909F908F9008956F927F928F929F927C
:1026D000BF92CF92DF92EF92FF920F931F93CF930F
:1026E000DF936C014B01EA013901CA010E94030426
:1026F0008B35910509F03FC086E0F4018087C60163
:10270000BE010E94610DCE010E9403048D3591052A
:10271000A9F1BE010E94E304BB24BA94C6010E9441
:102720004E118C01009739F1BB2021F0F401978301
:10273000868306C0F70193838283FC01F582E482DD
:10274000C601BE010E94610DC601B801AE01930130
:102750000E948512892B79F4C601BE010E94610D89
:10276000CE010E940304BB2478018C329105B1F2A2
:102770008D35910519F02FEF3FEF02C020E030E0DA
:10278000C901DF91CF911F910F91FF90EF90DF90E2
:10279000CF90BF909F908F907F906F900895CF9231
:1027A000DF92EF92FF920F931F93CF93DF937C0101
:1027B0008B016A0161157105B1F00E944E11EC01A7
:1027C000009799F0C701B8010E94610DC701BE01D1
:1027D000A80196010E9485128F5F9F4F31F4C701B7
:1027E000BE010E94B10CC0E0D0E0CE01DF91CF91DC
:1027F0001F910F91FF90EF90DF90CF900895EF928F
:10280000FF920F931F937C01CB010E948B148C01CC
:10281000C701B80140E050E00E94CF13F82EE92E26
:10282000C8010E9478148F2D9E2D1F910F91FF904B
:10283000EF900895FC01A485B58512962D913C91E9
:102840001397ED91FC911197E20FF31F808188237C
:1028500019F4EFEFFFEF0AC02F5F3F4F13963C9341
:102860002E931297E82FFF27E7FDF095CF010895EB
:10287000FB01648575850E94B214882319F420E059
:1028800030E002C02FEF3FEFC90108950F931F936F
:10289000CF93DF93EC018C859D850E94D5148C012C
:1028A000009711F01D861C86CE010E948C03C80182
:1028B000DF91CF911F910F910895CF93DF9388E31C
:1028C00094E160E070E00E94B703EC01009761F0D2
:1028D0000E941815009731F4CE010E948C03C0E0CD
:1028E000D0E002C09D878C87CE01DF91CF91089503
:1028F000CF93DF93EC01009759F08C859D8500976D
:1029000011F00E948A011D861C86CE010E948C0354
:10291000DF91CF9108950F931F93CF93DF938C0195
:1029200080E090E06AE174E10E94B703EC01009757
:1029300099F084E090E00E94E000FC01009739F0FB
:1029400011830083138212829D878C8705C0CE017C
:102950000E948C03C0E0D0E0CE01DF91CF911F91A7
:102960000F910895482FDB0114962D913C911597F6
:1029700012968D919C9113972817390778F4ED9151
:10298000FC911197E20FF31F408314968D919C9157
:102990001597019615969C938E93149780E0089551
:1029A000009711F00E948A0108950F931F93CF930F
:1029B000DF938C01DC0114962D913C911597211524
:1029C000310541F0ED91FC91E20FF31F31978081C9
:1029D0008823B1F0F801828193812817390780F4A8
:1029E0000190F081E02DE20FF31F1082D8011496C0
:1029F0008D919C911597019615969C938E931497A3
:102A0000F801848195810E94E000EC01009751F06B
:102A100061EC74E00E946003D8011D921C92C80111
:102A20000E948A01CE01DF91CF911F910F910895ED
:102A3000CF93DF9386E090E00E94E000DC010097F6
:102A4000A9F0E1ECF4E01196FC93EE9380E091E0C4
:102A5000EF019C01199221503040E1F713969C93AD
:102A60008E93129715961C921E921497CD01DF91AA
:102A7000CF9108958BEB91E06EE00E94C807089516
:102A8000FF920F931F9303E112E0C8010E94F61614
:102A9000C80168E470E042E050E00E94F316C8010B
:102AA0000E944716F82EC8010E9447163F2D20E0CD
:102AB00090E0282B392B84E0359527958A95E1F70E
:102AC000442737FD4095542FCA01B9010E948E2C2E
:102AD00020E030E040E85DE30E943E2D1F910F9121
:102AE000FF900895CF93DF93613029F48EE090E05A
:102AF0006EE070E00DC0623029F48FE090E06FE08E
:102B000070E006C0633021F480E190E060E170E0A5
:102B100047305105E1F0483051055CF4453051052E
:102B2000B1F0463051050CF054C0452B09F451C0AA
:102B30000BC04930510509F447C049305105A4F094
:102B40004A30510509F445C0CFEFDFEF45C0862F6D
:102B50000E94CF272FEF33E0829FE001839FD00DAB
:102B6000929FD00D112438C08BEB91E00E949F07FB
:102B70008BEB91E00E94FC079093CB018093CA01FC
:102B80000197069718F4C0E0D0E026C08BEB91E0E7
:102B90000E94B80720E030E040E251E40E943E2D60
:102BA0000E945B2CEB018BEB91E00E94C00720E0C0
:102BB00030E040E251E40E943E2D0E945B2C709375
:102BC000CD016093CC0108C0C091CC01D091CD0162
:102BD00003C00E94D326EC01CE01DF91CF9108956E
:102BE000CF93DF93EB01442369F082EA94E060E144
:102BF00071E00E94742B82EA94E0BE014AE050E04A
:102C00000E94552BCE01835B9040439718F42AE035
:102C100030E030C0CE018B5F9040439718F427E03E
:102C200030E028C0CE0188549140439718F429EE33
:102C300033E020C0CE018E569140439718F426E031
:102C400030E018C0CE0180509240439718F428E03D
:102C500030E010C0CE018F509340439718F425E028
:102C600030E008C0C35FD3401CF420E030E002C075
:102C70002FEF3FEFC901DF91CF9108952091EF0130
:102C800030E08091EE01281B3109C901089540917F
:102C9000EE018091EF01481718F02FEF3FEF0AC0C7
:102CA000E42FF0E0E253FE4F8081282F30E04F5FA9
:102CB0004093EE01C9010895E091EE018091EF018A
:102CC000E81718F0EFEFFFEF06C0F0E0E253FE4F19
:102CD0008081E82FF0E0CF01089508951092160248
:102CE0001092150288EE93E0A0E0B0E08093170206
:102CF00090931802A0931902B0931A0286E791E00C
:102D000090931402809313020895CF92DF92EF9272
:102D1000FF920F931F93CF93DF937C016B018A0186
:102D2000809112028823A1F0C0E0D0E00DC0D7014D
:102D3000ED91FC91D601AC0FBD1F0190F081E02D0B
:102D4000C7016C9109952196C017D10780F304C083
:102D5000CB01642F0E943817C801DF91CF911F91DA
:102D60000F91FF90EF90DF90CF900895DF93CF9376
:102D70000F92CDB7DEB7FC016983809112028823E0
:102D8000C9F080911102803238F081E090E09383A5
:102D9000828320E030E015C080911002E82FF0E03F
:102DA000E051FE4F998190838F5F80931002809352
:102DB000110205C0CE01019661E00E94381721E0A2
:102DC00030E0C9010F90CF91DF910895413208F0B2
:102DD00040E2862F6EEC71E00E9401171092EE0126
:102DE0008093EF0108950E94E61608951092EE0177
:102DF0001092EF0110921002109211020E94CE1850
:102E00000895982F413210F040E030C080911F02A9
:102E10008823E1F781E080931F028FEF80938A027D
:102E2000109245024150409346024F5F990F9160C6
:102E30009093200285EE8093BC0080911F02813028
:102E4000E1F380914502841710F44091450220E09F
:102E500030E00AC0FB01E20FF31FD901AB5DBD4FAB
:102E60008C9180832F5F3F4F2417A0F3842F089508
:102E7000482F613210F081E0089580911F02843064
:102E800011F082E0089560936802A7E4B2E0842F15
:102E90009C01F90102C081918D938E2F841B8617AE
:102EA000D0F380E008951F920F920FB60F92112475
:102EB0002F933F934F935F936F937F938F939F9342
:102EC000AF93BF93EF93FF938091B90090E0887F19
:102ED00090708036910509F4DCC081369105CCF5FF
:102EE0008832910509F47BC089329105B4F48031B0
:102EF000910509F46FC0813191053CF4009709F404
:102F000031C1089709F039C165C08831910509F4CC
:102F100066C0809709F031C17DC08034910509F405
:102F20009FC08134910544F48033910509F47DC03C
:102F3000C89709F022C184C08035910509F484C086
:102F40008835910509F491C08834910509F015C1BF
:102F500098C08839910509F4FDC089399105ECF4D0
:102F60008837910509F495C0893791054CF4883666
:102F7000910509F48EC08037910509F0FEC089C023
:102F80008838910509F4E6C08039910509F487C0B5
:102F90008038910509F0F1C082C0803B910509F4A9
:102FA000B0C0813B91054CF4803A910509F489C089
:102FB000883A910509F0E1C0A4C0803C910509F46C
:102FC000CDC0883C910509F4C9C0883B910509F042
:102FD000D4C0ACC0809120028093BB00B9C0909156
:102FE000450280914602981768F490914502E92FB6
:102FF000F0E0EB5DFD4F80818093BB009F5F90937D
:103000004502A6C085ED8093BC008091BC0084FD84
:10301000FCCFB1C080E280938A0285ED8093BC0032
:103020008091BC0084FDFCCFA6C080E380938A021F
:1030300085ED8093BC008091BC0084FDFCCF9BC0DB
:1030400088E380938A028AC0809145029091BB00F8
:10305000E82FF0E0EB5DFD4F90838F5F809345029A
:10306000909145028091460271C0809145029091F5
:10307000BB00E82FF0E0EB5DFD4F90838F5F809306
:10308000450285ED8093BC008091BC0084FDFCCF9F
:1030900072C083E080931F021092890259C0809110
:1030A0008902803208F056C0809189029091BB005D
:1030B000E82FF0E0E759FD4F90838F5F80938902FE
:1030C00047C080918902803230F4E0918902F0E0BB
:1030D000E759FD4F108285ED8093BC008091BC00C4
:1030E00084FDFCCF10921F0260918902E0912302BF
:1030F000F091240289E692E070E00995109289022D
:103100002DC084E080931F02109267021092680223
:10311000E0912102F09122020995809168028823B2
:1031200029F481E08093680210924702909167022F
:10313000E92FF0E0E95BFD4F80818093BB009F5F4A
:10314000909367029091670280916802981710F43B
:1031500085EC01C085E88093BC000FC085EC8093AE
:10316000BC0009C010928A0285ED8093BC0080915A
:10317000BC0084FDFCCF10921F02FF91EF91BF9124
:10318000AF919F918F917F916F915F914F913F91FF
:103190002F910F900FBE0F901F90189510921F0245
:1031A00082E161E00E947B2783E161E00E947B274E
:1031B000E9EBF0E080818E7F808380818D7F80834A
:1031C00088E48093B80085E48093BC000895362F8E
:1031D000242F87E991E06DE1432F0E94B80B0895F9
:1031E000EF92FF920F931F93CF93DF93162F7A01E5
:1031F000022F87E991E06DE1412F0E94F50B87E9ED
:1032000091E06DE1412F202F0E94330BC0E0D0E010
:1032100010E009C087E991E00E949409F701EC0FE2
:10322000FD1F80832196C017D107A4F3DF91CF91B2
:103230001F910F91FF90EF900895AF92BF92CF92A0
:10324000DF92EF92FF920F93DF93CF9300D000D0E5
:1032500000D0CDB7DEB77B016A015901AE014F5FE7
:103260005F4F0023C1F161E026E00E94F0182A813F
:10327000229526952695237030E0898190E0880F6D
:10328000991F880F991F282B392BF7013183208331
:103290002C81229526952695237030E08B8190E035
:1032A000880F991F880F991F282B392BF60131831E
:1032B00020832E81229526952695237030E08D81DE
:1032C00090E0880F991F880F991F282B392BF50143
:1032D000318320831FC061E023E00E94F0188981C0
:1032E00090E0880F991F880F991FF70191838083C1
:1032F0008A8190E0880F991F880F991FF6019183AA
:1033000080838B8190E0880F991F880F991FF501AA
:1033100091838083F70180819181F2E080309F0763
:103320002CF080509440F70191838083F6018081D6
:103330009181F2E080309F072CF080509440F6019C
:1033400091838083F50180819181F2E080309F0735
:103350002CF080509440F5019183808326960FB61F
:10336000F894DEBF0FBECDBFCF91DF910F91FF90DC
:10337000EF90DF90CF90BF90AF9008950F931F9381
:10338000DF93CF930F92CDB7DEB78C016AE2AE0127
:103390004F5F5F4F21E00E94F01849814D7FC801C7
:1033A0006AE20E94E7180F90CF91DF911F910F9171
:1033B00008950F931F93DF93CF930F92CDB7DEB78E
:1033C0008C016AE2AE014F5F5F4F21E00E94F0186E
:1033D00049814160C8016AE20E94E7180F90CF91CD
:1033E000DF911F910F9108950F931F93DF93CF9358
:1033F0000F92CDB7DEB78C016AE2AE014F5F5F4F2F
:1034000021E00E94F01849814E7FC8016AE20E94C3
:10341000E7180F90CF91DF911F910F9108950F93AF
:103420001F93DF93CF930F92CDB7DEB78C0187E95F
:1034300091E00E948309C8010E94F419C8016EE05E
:1034400040E00E94E718C8010E94BE19C8010E940E
:10345000D919C8016DE0AE014F5F5F4F21E00E94B6
:10346000F0180F90CF91DF911F910F9108958BE885
:1034700092E00E940F1A08958AE693E00E941B21B1
:103480000895AF92BF92CF92DF92EF92FF920F9387
:103490001F93CF93DF930DE812E089EB91E0B80121
:1034A0000E94FF135C0180E8F80111928A95E9F708
:1034B000A114B10411F480E08DC089EB91E0B50155
:1034C0000E94270C882309F47CC089EB91E0B501A8
:1034D0004FE151E00E94610CBC01009709F471C0FA
:1034E00089EB91E040E00E94340CEC01009709F474
:1034F00068C089EB91E0BE0146E251E00E94610C98
:103500008C0189EB91E0BE0148E251E00E94610C20
:103510007C0189EB91E0BE014AE251E00E94610C1E
:103520006C0189EB91E0BE014CE251E00E94610C1C
:10353000EC010115110509F444C0F80180858530BE
:1035400009F03FC0618572858DE093E044E250E070
:103550000E947503E114F104A1F1F7018085833025
:1035600081F5818592859093320380933103C11454
:10357000D10439F1F6018085833019F58185928572
:1035800090933403809333032097D9F08885853056
:1035900061F469857A8585E393E042E350E00E9417
:1035A000750381E0809369030AC0833051F48985F3
:1035B0009A8590936803809367031092690301E0F2
:1035C00001C000E089EB91E0B5010E94B10C802FB1
:1035D000011181E0DF91CF911F910F91FF90EF904A
:1035E000DF90CF90BF90AF900895CF93DF9382EAA2
:1035F00094E00E943929892B19F4CFEFDFEF1CC02A
:10360000C0E0D0E012C0C038D1057CF482EA94E07A
:103610000E946A29FE01E357FD4F8083219662E0F4
:1036200070E080E090E00E94352682EA94E00E94FB
:103630003929181619063CF3CE01DF91CF91089570
:10364000CF92DF92EF92FF920F931F93CF93DF936E
:10365000EC010E94F51A181619060CF0DCC0CE0118
:103660000E94411A882309F4D6C082EA94E00E949D
:103670006A2A82EA94E06FE271E00E94742B82EA87
:1036800094E06DE073E00E94742B82EA94E065E3BD
:1036900071E00E94742B82EA94E067E371E00E947B
:1036A000742B609131037091320382EA94E04AE016
:1036B00050E00E94422B82EA94E065E371E00E94B0
:1036C000742B82EA94E06CE371E00E94742B6091A9
:1036D00033037091340382EA94E04AE050E00E94A0
:1036E000422B82EA94E065E371E00E94742B82EA47
:1036F00094E061E471E00E94742B80916903882357
:1037000039F082EA94E065E373E00E94742B0AC00A
:10371000609167037091680382EA94E04AE050E0A8
:103720000E94422B82EA94E00E946A2A809131032F
:1037300090913203892B09F06EC0809133039091F0
:10374000340323E0883E920729F0895E934009F014
:1037500062C02BC095E3C92E93E0D92EC60160E06C
:1037600070E040E150E00E94E2017B018C0182E3C5
:10377000F60111928A95E9F78FEFC82ED12CB60188
:10378000601B710987E00E94F526CF18D10888E0F8
:10379000B6010E94F526E094F094FFEFEF22FF249B
:1037A00089E0B7010E94F52636C08DE093E00E94C3
:1037B0001103823049F0833061F0813081F48AE670
:1037C00093E06EE070E009C08AE693E06FE070E09D
:1037D00004C08AE693E060E170E00E9421258AE659
:1037E00093E06EE571E00E943B218AE693E065E399
:1037F00073E00E94DD2464E670E080E090E00E94C7
:1038000035268AE693E065E373E00E94DD248AE6CC
:1038100093E00E941125DF91CF911F910F91FF90AE
:10382000EF90DF90CF9008959F92AF92BF92CF928A
:10383000DF92EF92FF920F931F93DF93CF93CDB759
:10384000DEB72F970FB6F894DEBF0FBECDBF5C0179
:10385000962E89EB91E00E945C116C01009739F47F
:1038600082EA94E067E471E00E94772B98C082EAD4
:1038700094E00E943929181619061CF4C5010E940B
:10388000201B89EB91E00E9465118C0189EB91E08E
:10389000B6014FE151E098010E947C0C89EB91E068
:1038A0000E945C117C0189EB91E0B801A7010E94A4
:1038B000430C00D000D000D0EDB7FEB731968E019A
:1038C0000F5F1F4FADB7BEB712961C930E931197A3
:1038D00082E591E093838283948215820E94BF04E3
:1038E0008DB79EB706960FB6F8949EBF0FBE8DBFDC
:1038F00089EB91E0B70146E251E098010E94851101
:1039000089EB91E0B70148E251E020E030E00E940D
:10391000E31189EB91E0B7014AE251E029E030E0A0
:103920000E94E3118AEB91E0692D49E050E00E948A
:103930007215AA2797FDA095BA2FBC01CD010E9450
:103940008E2C20E030E040E251E40E94F32B8B010A
:103950009C0189EB91E0B7014CE251E00E94B51166
:1039600082EA94E00E943929181619061CF4C50150
:103970000E94201B89EB91E0B6010E94560F8C013A
:10398000009729F082EA94E0B8010E94772B89EB36
:1039900091E0B6010E94B10CC8010E948A012F96E5
:1039A0000FB6F894DEBF0FBECDBFCF91DF911F9150
:1039B0000F91FF90EF90DF90CF90BF90AF909F90CE
:1039C0000895AF92BF92CF92DF92EF92FF920F9342
:1039D0001F93DF93CF93CDB7DEB765970FB6F894FB
:1039E000DEBF0FBECDBF5C0189EB91E00E945C1190
:1039F0006C01009739F482EA94E067E471E00E9478
:103A0000772BA6C082EA94E00E943929181619067D
:103A10001CF4C5010E94201B89EB91E00E946511F6
:103A20008C0189EB91E0B6014FE151E098010E94D1
:103A30007C0C89EB91E00E945C117C0189EB91E0A8
:103A4000B801A7010E94430C89EB91E0B70146E25F
:103A500051E025E531E00E94851189EB91E0B70145
:103A600048E251E020E030E00E94E31189EB91E070
:103A7000B7014AE251E022E030E00E94E3111A82ED
:103A800019821C821B821E821D828BE892E0BE017D
:103A90006F5F7F4FAE014D5F5F4F9E012B5F3F4FCA
:103AA00001E00E941D198DB79EB70A970FB6F894D2
:103AB0009EBF0FBE8DBFEDB7FEB731968E01095F79
:103AC0001F4FADB7BEB712961C930E93119787E5A3
:103AD00091E09383828389819A81958384838B810A
:103AE0009C81978386838D819E81918780870E94A8
:103AF000BF048DB79EB70A960FB6F8949EBF0FBE4F
:103B00008DBF89EB91E0B7014CE251E098010E9432
:103B1000851182EA94E00E943929181619061CF4CE
:103B2000C5010E94201B89EB91E0B6010E94560F4F
:103B30008C01009729F082EA94E0B8010E94772B6B
:103B400089EB91E0B6010E94B10CC8010E948A0184
:103B500065960FB6F894DEBF0FBECDBFCF91DF9153
:103B60001F910F91FF90EF90DF90CF90BF90AF909B
:103B70000895CF92DF92EF92FF920F931F93CF930E
:103B8000DF936C0189EB91E00E945C11EC010097DE
:103B900039F482EA94E067E471E00E94772B73C005
:103BA00082EA94E00E943929181619061CF4C6010D
:103BB0000E94201B89EB91E00E9465118C0189EB2A
:103BC00091E0BE014FE151E098010E947C0C82EA35
:103BD00094E00E943929181619061CF4C6010E94A7
:103BE000201B89EB91E00E945C117C0189EB91E044
:103BF000B801A7010E94430C89EB91E0B70146E2AE
:103C000051E025E531E00E94851189EB91E0B70193
:103C100048E251E020E030E00E94E31189EB91E0BE
:103C2000B7014AE251E021E030E00E94E3118AEB63
:103C300091E00E9440158B019C0189EB91E0B70156
:103C40004CE251E00E94B51182EA94E00E943929C9
:103C5000181619061CF4C6010E94201B89EB91E07E
:103C6000BE010E94560F8C01009729F082EA94E071
:103C7000B8010E94772B89EB91E0BE010E94B10C44
:103C8000C8010E948A01DF91CF911F910F91FF908F
:103C9000EF90DF90CF9008950F931F93182F0E94FD
:103CA000D3266AE070E080E090E00E943526812F04
:103CB0000E94D326182F092F64E170E080E090E085
:103CC0000E943526812F902F1F910F9108958F927A
:103CD0009F92BF92CF92DF92EF92FF920F931F932A
:103CE000CF93DF934C01EB01188282EA94E00E94AB
:103CF0003929181619061CF4C4010E94201B85E1FD
:103D000090E00E944C1EBC018AEB91E040E00E94D2
:103D1000F0157C0188E0E816F10429F483E088833B
:103D2000BB24B39403C0F7FC0EC0BB2489EB91E025
:103D30000E945C116C01009741F482EA94E067E410
:103D400071E00E94772BBB2489C089EB91E00E942F
:103D500065118C0189EB91E0B6014FE151E09801CA
:103D60000E947C0C89EB91E00E945C11EC0189EBD4
:103D700091E0B801AE010E94430C89EB91E0BE01D5
:103D800046E251E023E631E00E94851189EB91E0A3
:103D9000BE0148E251E020E030E00E94E31189EBEF
:103DA00091E0BE014AE251E097010E94E311E11463
:103DB000F10429F485E190E00E944C1E28C0C7015F
:103DC00008970297F0F48AEB91E063E0A7010E9464
:103DD0007215AA2797FDA095BA2FBC01CD010E94AC
:103DE0008E2C20E030E040E251E40E94F32B8B0166
:103DF0009C0189EB91E0BE014CE251E00E94B511BB
:103E00000EC08AEB91E063E0A7010E9472159C014D
:103E100089EB91E0BE014CE251E00E94E31182EA9D
:103E200094E00E943929181619061CF4C4010E9456
:103E3000201B89EB91E0B6010E94560F8C01009780
:103E400029F082EA94E0B8010E94772B89EB91E097
:103E5000B6010E94B10CC8010E948A018B2DDF912E
:103E6000CF911F910F91FF90EF90DF90CF90BF9077
:103E70009F908F9008958F929F92BF92CF92DF92E2
:103E8000EF92FF920F931F93CF93DF934C01EB01BF
:103E9000188282EA94E00E943929181619061CF447
:103EA000C4010E94201B84E190E00E944C1EBC01D2
:103EB0008AEB91E040E00E94F0157C0188E0E81672
:103EC000F10429F482E08883BB24B39403C0F7FC97
:103ED0000EC0BB2489EB91E00E945C116C0100973D
:103EE00041F482EA94E067E471E00E94772BBB24FE
:103EF00089C089EB91E00E9465118C0189EB91E00A
:103F0000B6014FE151E098010E947C0C89EB91E0F1
:103F10000E945C11EC0189EB91E0B801AE010E94B6
:103F2000430C89EB91E0BE0146E251E025E631E029
:103F30000E94851189EB91E0BE0148E251E020E04A
:103F400030E00E94E31189EB91E0BE014AE251E0CA
:103F500097010E94E311E114F10429F484E190E057
:103F60000E944C1E28C0C70108970297F0F48AEB04
:103F700091E062E0A7010E947215AA2797FDA09523
:103F8000BA2FBC01CD010E948E2C20E030E040E22F
:103F900051E40E94F32B8B019C0189EB91E0BE015F
:103FA0004CE251E00E94B5110EC08AEB91E062E054
:103FB000A7010E9472159C0189EB91E0BE014CE2C1
:103FC00051E00E94E31182EA94E00E943929181618
:103FD00019061CF4C4010E94201B89EB91E0B60174
:103FE0000E94560F8C01009729F082EA94E0B801F4
:103FF0000E94772B89EB91E0B6010E94B10CC801B9
:104000000E948A018B2DDF91CF911F910F91FF901C
:10401000EF90DF90CF90BF909F908F9008958F92F8
:104020009F92BF92CF92DF92EF92FF920F931F93D6
:10403000CF93DF934C01EB01188282EA94E00E9457
:104040003929181619061CF4C4010E94201B81E1AD
:1040500090E00E944C1EBC018AEB91E040E00E947F
:10406000F0157C0188E0E816F10429F481E08883EA
:10407000BB24B39403C0F7FC0EC0BB2489EB91E0D2
:104080000E945C116C01009741F482EA94E067E4BD
:1040900071E00E94772BBB2489C089EB91E00E94DC
:1040A00065118C0189EB91E0B6014FE151E0980177
:1040B0000E947C0C89EB91E00E945C11EC0189EB81
:1040C00091E0B801AE010E94430C89EB91E0BE0182
:1040D00046E251E027E631E00E94851189EB91E04C
:1040E000BE0148E251E020E030E00E94E31189EB9C
:1040F00091E0BE014AE251E097010E94E311E11410
:10410000F10429F481E190E00E944C1E28C0C7010F
:1041100008970297F0F48AEB91E061E0A7010E9412
:104120007215AA2797FDA095BA2FBC01CD010E9458
:104130008E2C20E030E040E251E40E94F32B8B0112
:104140009C0189EB91E0BE014CE251E00E94B51167
:104150000EC08AEB91E061E0A7010E9472159C01FC
:1041600089EB91E0BE014CE251E00E94E31182EA4A
:1041700094E00E943929181619061CF4C4010E9403
:10418000201B89EB91E0B6010E94560F8C0100972D
:1041900029F082EA94E0B8010E94772B89EB91E044
:1041A000B6010E94B10CC8010E948A018B2DDF91DB
:1041B000CF911F910F91FF90EF90DF90CF90BF9024
:1041C0009F908F9008950F931F93DF93CF930F923B
:1041D000CDB7DEB78C0119820E94B91DC8010E94BB
:1041E000E11CC801BE016F5F7F4F0E940F20882332
:1041F00021F0C80169810E94141CC801BE016F5FD3
:104200007F4F0E943B1F882321F0C80169810E94D3
:10421000141CC801BE016F5F7F4F0E94671E882378
:1042200021F0C80169810E94141C0F90CF91DF9189
:104230001F910F910895FC018FEF9FEF9183808371
:104240009383828310927303109274031092750308
:10425000109276038AE090E0978386838CE390E067
:104260009093700180936F0181E080878EE591E0EB
:10427000958384830895FC017583648308952F9248
:104280003F924F925F926F927F928F929F92AF92E6
:10429000BF92CF92DF92EF92FF920F931F93DF9323
:1042A000CF93CDB7DEB762970FB6F894DEBF0FBEDF
:1042B000CDBF3C0180917D0390917E036FE170E062
:1042C0000E94272F4B017B0100E010E020916F013D
:1042D00030917001442737FD4095542FC801B70134
:1042E0000E94082F0E948C2C2AE037ED43E25CE309
:1042F0000E943E2D0E94602CA8019701220F331FBF
:10430000441F551F2E0D3F1D401F511F59016A01AB
:10431000A61AB70AC80AD90AAD82BE82CF82D88649
:104320005B016C01A20EB31EC41ED51EA982BA8207
:10433000CB82DC82AA24BB24650121E030E03A87ED
:10434000298717012801261A370A480A590AA8019D
:104350009701260F371F481F591F2F87388B498B0E
:104360005A8B7AC0E985FA85EE0FFF1FE358FC4FA0
:10437000808191819C0140E050E022163306440682
:10438000550658F58F859889A989BA89281739075C
:104390004A075B0710F5E985FA85EE0FFF1FE15824
:1043A000FC4F0190F081E02D7F0100E010E0EB86F2
:1043B000FC860D871E878D819E81AF81B8858E1505
:1043C0009F05A007B10748F489819A81AB81BC8120
:1043D000E816F9060A071B0778F1ED80FE800F81C9
:1043E0001885E216F3060407150758F589819A81A6
:1043F000AB81BC81281739074A075B0710F5E985AF
:10440000FA85EE0FFF1FE158FC4F80819181A0E0FB
:10441000B0E0281639064A065B0698F4EF84F8885F
:1044200009891A898E159F05A007B10750F40894D1
:10443000A11CB11CC11CD11CAA0CBB1CCC1CDD1CBA
:1044400005C07A866986AA24BB24650109851A8578
:104450000E5F1F4F1A87098729853A85261537056C
:1044600008F480CFA6019501569547953795279575
:1044700087E068167104C0F02093730330937403CF
:104480004093750350937603769467947092780303
:104490006092770390927A038092790381E090E0B2
:1044A00090937C0380937B0380E0211531054105C7
:1044B000510509F081E062960FB6F894DEBF0FBE99
:1044C000CDBFCF91DF911F910F91FF90EF90DF90C3
:1044D000CF90BF90AF909F908F907F906F905F90A4
:1044E0004F903F902F9008952F923F924F925F925E
:1044F0006F927F928F929F92AF92BF92CF92DF92F4
:10450000EF92FF920F931F93DF93CF93CDB7DEB758
:1045100062970FB6F894DEBF0FBECDBF3C0180910D
:104520007D0390917E036AE070E00E94272F4B018B
:104530007B0100E010E020916F0130917001442771
:1045400037FD4095542FC801B7010E94082F0E94E3
:104550008C2C2AE037ED43E25CE30E943E2D0E9462
:10456000602CA8019701220F331F441F551F5901CA
:104570006A01A61AB70AC80AD90AAD82BE82CF82DA
:10458000D8865B016C01A20EB31EC41ED51EA98283
:10459000BA82CB82DC82AA24BB24650121E030E010
:1045A0003A87298717012801261A370A480A590A23
:1045B000A8019701260F371F481F591F2F87388BD7
:1045C000498B5A8B7AC0E985FA85EE0FFF1FE358B5
:1045D000FC4F808191819C0140E050E0221633061F
:1045E0004406550658F58F859889A989BA892817F0
:1045F00039074A075B0710F5E985FA85EE0FFF1FBB
:10460000E158FC4F0190F081E02D7F0100E010E0C7
:10461000EB86FC860D871E878D819E81AF81B885D4
:104620008E159F05A007B10748F489819A81AB8157
:10463000BC81E816F9060A071B0778F1ED80FE80B9
:104640000F811885E216F3060407150758F58981CE
:104650009A81AB81BC81281739074A075B0710F59F
:10466000E985FA85EE0FFF1FE158FC4F80819181AB
:10467000A0E0B0E0281639064A065B0698F4EF84FD
:10468000F88809891A898E159F05A007B10750F48B
:104690000894A11CB11CC11CD11CAA0CBB1CCC1CB5
:1046A000DD1C05C07A866986AA24BB2465010985BC
:1046B0001A850E5F1F4F1A87098729853A852615A7
:1046C000370508F480CFA601950156954795379593
:1046D000279587E068167104C0F020937303309328
:1046E00074034093750350937603769467947092A5
:1046F00078036092770390927A038092790382E044
:1047000090E090937C0380937B0380E0211531053A
:104710004105510509F081E062960FB6F894DEBFBD
:104720000FBECDBFCF91DF911F910F91FF90EF9002
:10473000DF90CF90BF90AF909F908F907F906F90C1
:104740005F904F903F902F900895CF92DF92EF921D
:10475000FF920F931F93CF93DF930E940F266B015D
:104760007C0180910504909106048601081B190BB9
:1047700010930C0400930B0483E10938180798F197
:1047800020917D0330917E03C901885C90408017A1
:10479000910728F528533F4F0217130700F5809122
:1047A00003049091040401969093040480930304FD
:1047B000C0910904D0910A042197D0930A04C093B0
:1047C0000904029761F4CE010E943F21882319F465
:1047D000CE010E94742210920404109203041092DD
:1047E0000A04109209048091090490910A04833408
:1047F000910540F010920A041092090410920404EA
:10480000109203048091090490910A04FC01EE0FB8
:10481000FF1FE358FC4F11830083019690930A0415
:1048200080930904C0920504D0920604E092070424
:10483000F0920804DF91CF911F910F91FF90EF90BC
:10484000DF90CF9008950F931F938C01FC0180811E
:104850000E944C258FEF9FEFF801918380831F9179
:104860000F910895FC01808191812FEF8F3F920776
:1048700091F01092730310927403109275031092CA
:104880007603109278031092770365EA73E241E0B1
:1048900050E00E9429250895AF92BF92DF92EF92D7
:1048A000FF920F931F93CF93DF93EC017B015A018B
:1048B000088119818A819B818F5F9F4F91F13FEF22
:1048C0000F3F130711F4DD2405C0CE010E942324FD
:1048D000DD24D3948A8161E00E947B278C819D81B5
:1048E0009C01E29EC001E39E900DF29E900D11246A
:1048F0000E948E268A8160E00E947B278C819D81A8
:104900009C01A29EC001A39E900DB29E900D112409
:104910000E948E26DD2029F019830883CE010E9493
:104920003224DF91CF911F910F91FF90EF90DF9094
:10493000BF90AF900895FC018085813041F4CF0194
:1049400061E070E04FE150E00E944C240895823015
:1049500039F4CF0161E070E04AE050E00E944C245D
:104960000895FC018085813041F4CF0163E070E05F
:1049700041E050E00E944C240895823039F4CF0188
:1049800062E070E041E050E00E944C240895FC0198
:104990008085813041F4CF0161E070E043E050E078
:1049A0000E944C240895823039F4CF0161E070E018
:1049B00042E050E00E944C240895CF92DF92EF92A3
:1049C000FF920F931F93CF93DF938C016B01EE2423
:1049D000FF2416C0803319F0813341F404C0C801AC
:1049E0000E94C72403C0C8010E94B1242196888177
:1049F000882381F7C8010E949B240894E11CF11CC4
:104A0000F80186819781E816F90614F4E601EFCFE4
:104A1000DF91CF911F910F91FF90EF90DF90CF909A
:104A200008950F931F938C01FC01828160E00E9426
:104A300055278FEF9FEFF801938382831F910F918A
:104A40000895FC01862F6283738361E00E945527DD
:104A50000895823000F5E82FF0E0EE0FFF1FE35FCE
:104A6000FB4F71836083882319F08130A1F408C063
:104A7000809169008C7F842B80936900E89A089567
:104A800080916900440F551F440F551F837F842B6D
:104A900080936900E99A0895823080F4882319F0A0
:104AA000813021F402C0E89801C0E998E82FF0E0D5
:104AB000EE0FFF1FE35FFB4F1182108208951F92DC
:104AC0000F920FB60F9211242F933F934F935F9342
:104AD0006F937F938F939F93AF93BF93EF93FF93C6
:104AE00080910D0490910E04892B29F0E0910D0422
:104AF000F0910E040995FF91EF91BF91AF919F91B5
:104B00008F917F916F915F914F913F912F910F9076
:104B10000FBE0F901F9018951F920F920FB60F9215
:104B200011242F933F934F935F936F937F938F93B2
:104B30009F93AF93BF93EF93FF9380910F04909156
:104B40001004892B29F0E0910F04F09110040995CD
:104B5000FF91EF91BF91AF919F918F917F916F9155
:104B60005F914F913F912F910F900FBE0F901F902B
:104B700018951F920F920FB60F9211242F933F9307
:104B80008F939F93AF93BF938091150490911604D8
:104B9000A0911704B0911804309119040196A11D39
:104BA000B11D232F2D5F2D3720F02D570196A11D0C
:104BB000B11D209319048093150490931604A093BB
:104BC0001704B09318048091110490911204A091DD
:104BD0001304B09114040196A11DB11D809311041A
:104BE00090931204A0931304B0931404BF91AF9157
:104BF0009F918F913F912F910F900FBE0F901F901B
:104C000018958FB7F89420911504309116044091AF
:104C10001704509118048FBFB901CA0108959FB7B6
:104C2000F894209111043091120440911304509192
:104C3000140486B5A89B06C08F3F21F02F5F3F4F1D
:104C40004F4F5F4F9FBF542F432F322F2227280FE4
:104C5000311D411D511D82E0220F331F441F551F7E
:104C60008A95D1F7B901CA0108959B01AC017FB7BC
:104C7000F8948091110490911204A0911304B091C2
:104C8000140466B5A89B05C06F3F19F00196A11DDD
:104C9000B11D7FBFBA2FA92F982F8827860F911D8E
:104CA000A11DB11D62E0880F991FAA1FBB1F6A9545
:104CB000D1F7BC012DC0FFB7F894809111049091F9
:104CC0001204A0911304B0911404E6B5A89B05C08A
:104CD000EF3F19F00196A11DB11DFFBFBA2FA92FFB
:104CE000982F88278E0F911DA11DB11DE2E0880F1E
:104CF000991FAA1FBB1FEA95D1F7861B970B885EE9
:104D00009340C8F2215030404040504068517C4FA1
:104D1000211531054105510571F60895019739F0C6
:104D2000880F991F880F991F02970197F1F708952F
:104D3000789484B5826084BD84B5816084BD85B576
:104D4000826085BD85B5816085BDEEE6F0E080813D
:104D500081608083E1E8F0E010828081826080835E
:104D6000808181608083E0E8F0E0808181608083E1
:104D7000E1EBF0E0808184608083E0EBF0E0808113
:104D800081608083EAE7F0E08081846080838081B5
:104D9000826080838081816080838081806880835D
:104DA0001092C1000895982F8E3008F09E50977091
:104DB000809171018295880F880F807C892B809368
:104DC0007C0080917A00806480937A0080917A00E0
:104DD00086FDFCCF2091780040917900942F80E0EF
:104DE00030E0282B392BC90108951F93CF93DF930F
:104DF000182FEB0161E00E945527209709F44AC063
:104E0000CF3FD10509F449C0E12FF0E0E45BFE4F4C
:104E100084918330C1F0843028F4813051F08230A5
:104E2000B1F50CC0863019F1873049F1843079F53D
:104E300014C084B5806884BDC7BD33C084B58062AA
:104E400084BDC8BD2EC080918000806880938000A2
:104E5000D0938900C093880024C080918000806234
:104E600080938000D0938B00C0938A001AC08091F9
:104E7000B00080688093B000C093B30012C08091EE
:104E8000B00080628093B000C093B4000AC0C03804
:104E9000D1051CF4812F60E002C0812F61E00E94E7
:104EA0007B27DF91CF911F910895482F50E0CA01D1
:104EB000885C9E4FFC0124914C5D5E4FFA01849109
:104EC0008823C1F0E82FF0E0EE0FFF1FEA5FFE4FEE
:104ED000A591B491662341F49FB7F8948C912095E5
:104EE00082238C939FBF08959FB7F8948C91822B57
:104EF0008C939FBF0895482F50E0CA01845B9E4F5A
:104F0000FC012491CA01885C9E4FFC0194914C5D88
:104F10005E4FFA013491332309F440C0222351F14A
:104F2000233071F0243028F42130A1F0223011F523
:104F300014C02630B1F02730C1F02430D9F404C0B9
:104F4000809180008F7703C0809180008F7D809357
:104F5000800010C084B58F7702C084B58F7D84BD7A
:104F600009C08091B0008F7703C08091B0008F7D21
:104F70008093B000E32FF0E0EE0FFF1FE05FFE4FE5
:104F8000A591B4912FB7F894662321F48C91909554
:104F9000892302C08C91892B8C932FBF0895682F91
:104FA00070E0CB01845B9E4FFC012491CB01885CB7
:104FB0009E4FFC0144916C5D7E4FFB0194919923BF
:104FC00019F420E030E03CC0222351F1233071F08D
:104FD000243028F42130A1F0223011F514C02630FD
:104FE000B1F02730C1F02430D9F404C080918000A2
:104FF0008F7703C0809180008F7D8093800010C0E8
:1050000084B58F7702C084B58F7D84BD09C080913F
:10501000B0008F7703C08091B0008F7D8093B00087
:10502000892F90E0880F991F865E9E4FFC01A59105
:10503000B4918C9120E030E0842311F021E030E045
:10504000C901089508951F920F920FB60F9211246F
:105050002F933F934F938F939F93EF93FF934091A1
:10506000C60020915A0430915B042F5F3F4F2F738D
:10507000307080915C0490915D042817390759F0D5
:10508000E0915A04F0915B04E65EFB4F408330935D
:105090005B0420935A04FF91EF919F918F914F9160
:1050A0003F912F910F900FBE0F901F901895E09198
:1050B000AE04F091AF04E05CFF4F819191912081AB
:1050C0003181821B930B8F739070892B11F00E949A
:1050D000222808951F920F920FB60F9211242F933A
:1050E0003F934F935F936F937F938F939F93AF9370
:1050F000BF93EF93FF9320919E0430919F04809182
:10510000A0049091A1042817390731F48091C100BF
:105110008F7D8093C10016C0E091A004F091A1049E
:10512000E25AFB4F40818091A0049091A104019626
:1051300060E470E00E943B2F9093A1048093A00450
:105140004093C600FF91EF91BF91AF919F918F91D6
:105150007F916F915F914F913F912F910F900FBE73
:105160000F901F901895AF92BF92DF92EF92FF922F
:105170000F931F93CF93DF93EC017A018B01DD2412
:10518000403081EE580780E0680780E0780711F032
:10519000DD24D39491E0A92EB12CEC89FD89DD208A
:1051A00069F0C5010E8C02C0880F991F0A94E2F7BE
:1051B000808360E079E08DE390E005C0108260E8D4
:1051C00074E88EE190E0A80197010E944E2F2150D3
:1051D000304040405040569547953795279580E19F
:1051E0002030380720F0DD2011F0DD24D6CFE8890B
:1051F000F9893083EA89FB892083EE89FF89408120
:1052000021E030E0C9010A8C02C0880F991F0A947E
:10521000E2F7482B4083EE89FF894081C9010B8C5E
:1052200002C0880F991F0A94E2F7482B4083EE8949
:10523000FF894081C9010C8C02C0880F991F0A9414
:10524000E2F7482B4083EE89FF8980810D8C02C0F4
:10525000220F331F0A94E2F7209528232083DF9141
:10526000CF911F910F91FF90EF90DF90BF90AF9083
:105270000895DC011C96ED91FC911D97E05CFF4FB9
:105280002191319180819181281B390B2F733070CE
:10529000C9010895DC011C96ED91FC911D97E05C1D
:1052A000FF4F20813181E054F040DF01AE5BBF4F02
:1052B0008D919C9111972817390719F42FEF3FEF23
:1052C00007C08D919C91E80FF91F8081282F30E055
:1052D000C9010895DC011C96ED91FC911D97E05CDD
:1052E000FF4F20813181E054F040DF01AE5BBF4FC2
:1052F0008D919C9111972817390719F42FEF3FEFE3
:1053000010C08D919C911197E80FF91F20818D910C
:105310009C91119701968F73907011969C938E9328
:1053200030E0C9010895FC0186859785DC01A05C09
:10533000BF4FFC01EE5BFF4F2D913C911197808197
:10534000918128173907C1F70895CF93DF93EC01B6
:10535000462FEE85FF85E05CFF4F80819181E05410
:10536000F040019660E470E00E943B2F9C01DF0159
:10537000AE5BBF4F8D919C91119728173907D1F3E0
:10538000E05CFF4F80819181E054F040E80FF91F0D
:105390004083EE85FF85E05CFF4F31832083EE89FB
:1053A000FF89208181E090E00D8C02C0880F991F59
:1053B0000A94E2F7282B208381E090E0DF91CF91DF
:1053C00008951092A5041092A40488EE93E0A0E042
:1053D000B0E08093A6049093A704A093A804B09390
:1053E000A90486E891E09093A3048093A2048AE143
:1053F00094E09093AF048093AE048EE594E0909394
:10540000B1048093B00485EC90E09093B304809352
:10541000B20484EC90E09093B5048093B40480ECE3
:1054200090E09093B7048093B60481EC90E0909361
:10543000B9048093B80486EC90E09093BB04809309
:10544000BA0484E08093BC0483E08093BD0487E0C9
:105450008093BE0485E08093BF0481E08093C00404
:105460000895CF93DF930E9498260E947E07C7E598
:10547000D8E20E9471072097E1F30E945728F9CFE4
:10548000CF92DF92EF92FF920F931F93CF93DF9310
:105490007C016B018A01C0E0D0E00FC0D6016D91A4
:1054A0006D01D701ED91FC910190F081E02DC701D4
:1054B0000995C80FD91F015010400115110571F74A
:1054C000CE01DF91CF911F910F91FF90EF90DF9070
:1054D000CF900895EF92FF920F931F938C01DC0100
:1054E000ED91FC910190F081E02D6DE009957C013A
:1054F000D801ED91FC910190F081E02DC8016AE0A6
:1055000009959C012E0D3F1DC9011F910F91FF9020
:10551000EF900895CF93DF93DB010D900020E9F722
:105520001197A61BB70BEC01E881F9810280F3818A
:10553000E02DAD010995DF91CF9108954F925F92D3
:105540007F928F929F92AF92BF92CF92DF92EF9213
:10555000FF920F931F93DF93CF93CDB7DEB7A19741
:105560000FB6F894DEBF0FBECDBF2C01742ECB0159
:10557000223008F42AE019A231E2C32ED12CCC0E3D
:10558000DD1E822E9924AA24BB24672D752FA50128
:1055900094010E944E2F79018A01C801B701A5012B
:1055A00094010E94082F472D461B0894C108D1087A
:1055B0004A3014F4405D01C0495CF6014083E114B7
:1055C000F1040105110521F07E2C5F2DC801DDCF0E
:1055D000C201B6010E948A2AA1960FB6F894DEBFD6
:1055E0000FBECDBFCF91DF911F910F91FF90EF9034
:1055F000DF90CF90BF90AF909F908F907F905F9003
:105600004F900895CF92DF92EF92FF920F931F93E6
:10561000CF93DF93EC016A017B012115310541F441
:10562000E881F9810190F081E02D642F09951FC078
:105630002A303105D1F477FF17C0E881F981019054
:10564000F081E02D6DE209958C0144275527BA01C0
:105650004C195D096E097F09CE012AE00E949E2A3D
:105660009801280F391F04C02AE00E949E2A9C013D
:10567000C901DF91CF911F910F91FF90EF90DF90C3
:10568000CF900895EF92FF920F931F937B019A01A1
:105690000027F7FC0095102FB801A7010E94022BEC
:1056A0001F910F91FF90EF900895CF92DF92EF92AC
:1056B000FF920F931F936C017B019A010027F7FC67
:1056C0000095102FB801A7010E94022B8C01C60182
:1056D0000E946A2A080F191FC8011F910F91FF909D
:1056E000EF90DF90CF9008950E948A2A0895EF925C
:1056F000FF920F931F937C010E948A2A8C01C7019D
:105700000E946A2A080F191FC8011F910F91FF906C
:10571000EF9008955058BB27AA270ED075C166D1C7
:1057200030F06BD120F031F49F3F11F41EF45BC1D7
:105730000EF4E095E7FB51C1E92F77D180F3BA175A
:10574000620773078407950718F071F49EF58FC1FF
:105750000EF4E0950B2EBA2FA02D0B01B90190018C
:105760000C01CA01A0011124FF27591B99F0593FD0
:1057700050F4503E68F11A16F040A22F232F342F18
:105780004427585FF3CF469537952795A795F04066
:105790005395C9F77EF41F16BA0B620B730B840B7B
:1057A000BAF09150A1F0FF0FBB1F661F771F881F33
:1057B000C2F70EC0BA0F621F731F841F48F487958B
:1057C00077956795B795F7959E3F08F0B3CF93957A
:1057D000880F08F09927EE0F979587950895D9D0EF
:1057E00008F481E008950CD00FC107D140F0FED03D
:1057F00030F021F45F3F19F0F0C0511139C1F3C00E
:1058000014D198F39923C9F35523B1F3951B550B84
:10581000BB27AA2762177307840738F09F5F5F4F83
:10582000220F331F441FAA1FA9F333D00E2E3AF0C4
:10583000E0E830D091505040E695001CCAF729D0DE
:10584000FE2F27D0660F771F881FBB1F261737072D
:105850004807AB07B0E809F0BB0B802DBF01FF275D
:1058600093585F4F2AF09E3F510568F0B6C000C1C3
:105870005F3FECF3983EDCF3869577956795B79597
:10588000F7959F5FC9F7880F911D9695879597F9B2
:105890000895E1E0660F771F881FBB1F621773072B
:1058A0008407BA0720F0621B730B840BBA0BEE1F40
:1058B00088F7E095089504D06894B111D9C008958F
:1058C000BCD088F09F5790F0B92F9927B751A0F01E
:1058D000D1F0660F771F881F991F1AF0BA95C9F784
:1058E00012C0B13081F0C3D0B1E00895C0C0672FBD
:1058F000782F8827B85F39F0B93FCCF38695779534
:105900006795B395D9F73EF490958095709561951C
:105910007F4F8F4F9F4F0895E89409C097FB3EF447
:1059200090958095709561957F4F8F4F9F4F9923EC
:10593000A9F0F92F96E9BB279395F695879577956A
:105940006795B795F111F8CFFAF4BB0F11F460FF2A
:105950001BC06F5F7F4F8F4F9F4F16C0882311F082
:1059600096E911C0772321F09EE8872F762F05C096
:10597000662371F096E8862F70E060E02AF09A9531
:10598000660F771F881FDAF7880F9695879597F926
:105990000895990F0008550FAA0BE0E8FEEF1616C0
:1059A0001706E807F907C0F012161306E407F50713
:1059B00098F0621B730B840B950B39F40A2661F087
:1059C000232B242B252B21F408950A2609F4A1402A
:1059D000A6958FEF811D811D089597F99F6780E837
:1059E00070E060E008959FEF80EC089500240A9431
:1059F0001616170618060906089500240A941216AA
:105A00001306140605060895092E0394000C11F4DC
:105A1000882352F0BB0F40F4BF2B11F460FF04C089
:105A20006F5F7F4F8F4F9F4F089557FD9058440FE2
:105A3000551F59F05F3F71F04795880F97FB991FED
:105A400061F09F3F79F087950895121613061406AA
:105A5000551FF2CF4695F1DF08C016161706180637
:105A6000991FF1CF86957105610508940895E89412
:105A7000BB2766277727CB0197F908950BD0C4CFB2
:105A8000B5DF28F0BADF18F0952309F0A6CFABCF29
:105A90001124EECFCADFA0F3959FD1F3950F50E00C
:105AA000551F629FF001729FBB27F00DB11D639FD0
:105AB000AA27F00DB11DAA1F649F6627B00DA11D76
:105AC000661F829F2227B00DA11D621F739FB00D1C
:105AD000A11D621F839FA00D611D221F749F33278C
