:100000000C94B6000C94B1270C94DE270C94DE00FF
:100010000C94DE000C94DE000C94DE000C94DE00E8
:100020000C94DE000C94DE000C94DE000C94DE00D8
:100030000C94DE000C94DE000C94DE000C94DE00C8
:100040000C940B280C94DE000C94752A0C94BC2A9A
:100050000C94DE000C94DE000C94DE000C94DE00A8
:100060000C94C2180C94DE0007634236B79BD8A7E5
:100070001A39685618AEBAAB558C1D3CB7CC5763CD
:10008000BD6DEDFD753EF6177231BF000000803F7B
:1000900008000000BE922449123EABAAAA2ABECD97
:1000A000CCCC4C3E00000080BEABAAAAAA3E000009
:1000B0000000BF000000803F000000000008417801
:1000C000D3BB4387D1133D190E3CC3BD4282AD2B38
:1000D0003E68EC8276BED98FE1A93E4C80EFFFBE30
:1000E00001C4FF7F3F000000000074727565006668
:1000F000616C7365006E756C6C0025750025752E3E
:10010000002D0025640000000000240027002A00C4
:1001100000000000250028002B0000000000230044
:100120002600290004040404040404040202020258
:1001300002020303030303030102040810204080AA
:10014000010204081020010204081020000000072A
:10015000000201000003040600000000000000008F
:10016000BB0A5E16DD17A61BAB1B332C11241FBE6A
:10017000CFEFD8E0DEBFCDBF11E0A0E0B1E0E6EF09
:10018000F5E602C005900D92AA3CB107D9F716E03A
:10019000AAECB1E001C01D92AC30B107E1F711E06B
:1001A000CCE6D1E004C02297FE010E94B332C036F3
:1001B000D107C9F70E94832C0C94F9320C940000EB
:1001C000CF93DF93BC018230910510F462E070E0C0
:1001D000A0910206B0910306ED01E0E0F0E040E0FE
:1001E00050E021C0888199818617970769F48A8138
:1001F0009B81309719F09383828304C09093030608
:1002000080930206FE0134C06817790738F441155F
:10021000510519F08417950708F4AC01FE018A8195
:100220009B819C01E9012097E9F641155105A9F14F
:10023000CA01861B970B049708F4BA01E0E0F0E0CE
:100240002AC08D919C91119784179507F9F4641732
:10025000750781F412968D919C911397309719F040
:100260009383828304C09093030680930206FD016A
:1002700032964CC0CA01861B970BFD01E80FF91F8F
:100280006193719302978D939C9340C0FD0182818D
:1002900093819C01D9011097A1F68091000690915D
:1002A0000106892B41F48091A3019091A4019093C0
:1002B0000106809300064091A5015091A6014115C9
:1002C000510541F44DB75EB78091A1019091A20113
:1002D000481B590B2091000630910106CA01821B70
:1002E000930B8617970780F0AB014E5F5F4F841723
:1002F000950750F0420F531F50930106409300069C
:10030000F9016193719302C0E0E0F0E0CF01DF9169
:10031000CF910895CF93DF93009709F450C0EC017B
:1003200022971B821A82A0910206B09103061097B1
:1003300009F140E050E0AC17BD0708F1BB83AA8388
:10034000FE0121913191E20FF31FAE17BF0779F43F
:100350008D919C911197280F391F2E5F3F4F398344
:10036000288312968D919C9113979B838A834115C4
:10037000510571F4D0930306C093020620C0129673
:100380008D919C911397AD01009711F0DC01D3CFB3
:10039000FA01D383C28321913191E20FF31FCE176B
:1003A000DF0769F488819981280F391F2E5F3F4F3D
:1003B000FA01318320838A819B8193838283DF9139
:1003C000CF910895A0E0B0E0E8EEF1E00C94C432E3
:1003D0006C01009729F4CB010E94E0006C01C1C0C0
:1003E0008EEF882E8FEF982E8C0C9D1C8601060FA9
:1003F000171F0815190508F4B2C0F401A081B181D6
:10040000A617B707B8F0A530B10508F4AAC0CD010A
:1004100004978617970708F4A4C01297A61BB70B7A
:10042000F801A193B193D4016D937C93CF010E9405
:100430008A0197C07B01EA1AFB0AEEEFFFEFEE0E8E
:10044000FF1E36016A0E7B1EC0910206D091030684
:1004500044245524AA24BB244AC0C615D705E1F577
:10046000488159814E155F05B8F1CA0104978E1570
:100470009F05B0F41296A40FB51FF401B183A083B9
:100480002A813B814114510431F0D20113963C93EF
:100490002E93129766C0309303062093020661C024
:1004A0008A819B81F80193838283425050404E1988
:1004B0005F09518340834114510431F0D2011396F6
:1004C0001C930E93129704C0109303060093020628
:1004D000F4017183608345C088819981A816B906AB
:1004E00008F45C012E018A819B819C01E90120971F
:1004F00009F0B3CF8091000690910106861597050B
:10050000E9F4A616B706D0F42091A5013091A60112
:100510002115310541F42DB73EB78091A10190918D
:10052000A201281B390B02171307C8F41093010608
:1005300000930006D4016D937C9313C0CB010E94FD
:10054000E000EC01009759F0F40140815181B601BF
:100550000E942204C6010E948A016E0102C0CC24BE
:10056000DD24C601CDB7DEB7E0E10C94E0322F9276
:100570003F925F926F927F928F929F92AF92BF92C3
:10058000CF92DF92EF92FF920F931F93CF93DF935F
:100590008C011B01EA016115710519F0FB019183C2
:1005A0008083209749F0CE010297839728F020E0BE
:1005B00030E040E050E0F6C0F801A1908F018A2DB4
:1005C00090E00E94B732892BB9F7FDE2AF1631F403
:1005D000F801A1908F015524539407C0FBE2AF1698
:1005E00019F4F801A1908F015524209719F0C0311A
:1005F000D105C1F4F0E3AF1679F4F80180818837B2
:1006000011F0883549F4F801A1800E5F1F4FF2E028
:100610005F2AC0E1D0E006C0209721F480E3A8164D
:10062000E9F427C0C830D10531F1C930D10524F42F
:10063000C230D10531F50CC0CA30D10589F0C031C6
:10064000D105F9F4C12CD12CE12CB8E0FB2E28C047
:10065000C12CD12CE12CA0E4FA2E22C0CAE0D0E0BB
:10066000FCECCF2EFCECDF2EFCECEF2EFCE0FF2EA2
:1006700017C0C8E0D0E0C12CD12CE12CE0E1FE2E67
:100680000FC09E01442737FD4095542F60E070E075
:1006900080E090E80E948F32C901DA016C017D018F
:1006A00020E030E040E050E060E03E01882477FC4C
:1006B0008094982C70EDB72EBA0CE9E0EB1570F42D
:1006C0008A2D81548A3118F499ECB92E06C08A2DEE
:1006D00081568A3150F589EAB82EBA0C8B2D90E0FC
:1006E0008C179D0714F56F3FE1F0C216D306E406A0
:1006F000F506B0F0CA01B901A40193010E94493284
:100700009B01AC012B0D311D411D511D2130F0E02D
:100710003F07F0E04F07F0E85F0710F461E001C029
:100720006FEFF801A1908F01C5CF2114310481F042
:10073000662331F001501040F1011183008308C09D
:1007400051FE1AC002501040F1011183008314C001
:1007500067FF12C050FC05C02FEF3FEF4FEF5FE780
:1007600004C020E030E040E050E882E290E0909366
:100770000B0680930A0616C050FE08C0509540959F
:10078000309521953F4F4F4F5F4F0CC057FF0AC028
:1007900082E290E090930B0680930A062FEF3FEFE2
:1007A0004FEF5FE7B901CA01DF91CF911F910F9120
:1007B000FF90EF90DF90CF90BF90AF909F908F9081
:1007C0007F906F905F903F902F900895FC01882755
:1007D0009927E89421912032E9F3293010F02E3046
:1007E000C8F32B3241F02D3239F4689404C00E94D2
:1007F0006204820F911D219120532A30C0F31EF410
:10080000909581959F4F08950F931F93CF93DF93FA
:10081000182F092FE82FF92FDF010D900020E9F79D
:10082000CD018E1B9F0B0E94E000EC01009721F090
:10083000612F702F0E943E04CE01DF91CF911F9156
:100840000F910895FB01DC0102C001900D9241500F
:100850005040D8F70895FB01DC018D9181341CF0E4
:100860008B350CF4805E619161341CF06B350CF4B7
:10087000605E861B611189F3990B0895FB01DC0111
:1008800001900D920020E1F70895FB01DC01415039
:10089000504030F08D910190801919F40020B9F783
:1008A000881B990B0895FB01DC014150504048F032
:1008B00001900D920020C9F701C01D924150504097
:1008C000E0F708957AE0979F902D879F802D910DF6
:1008D00011240895FA01CF93FF93EF932230CCF0C7
:1008E0002532BCF4C22F2C2F332744275527FF93E2
:1008F000EF930E948F32EF91FF91605D6A330CF0AD
:10090000695D6193B901CA016050704080409040B8
:1009100051F710828F919F91CF910C941608FC0192
:10092000838187FF24C080910406909105068E176D
:100930009F0721F410920506109204068091060686
:10094000909107068E179F0721F4109207061092C8
:10095000060680910806909109068E179F0721F4DC
:100960001092090610920806CF010E948A0180E0C9
:1009700090E008950F931F93CF93DF938C01EB01C9
:10098000009731F46115710519F420E030E038C0AA
:1009900081E090E06EE070E00E94DD07FC019C01C8
:1009A000009771F180E88383209771F0D387C28725
:1009B00081E883838091040690910506892B21F4B8
:1009C000F0930506E093040601151105C9F011879F
:1009D0000087838182608383809106069091070659
:1009E000892B71F4F0930706E093060680910806C0
:1009F00090910906892B21F4F0930906E0930806EB
:100A0000C901DF91CF911F910F910895CF93DF938B
:100A1000EC014B8140FF1AC046FF0AC04F7B4B835D
:100A20008E819F8101969F838E838A81282F2BC080
:100A300042FF13C0E881F9818081282F332727FDE9
:100A400030952115310529F440624B832FEF3FEF9C
:100A50001BC03196F983E88311C0EA85FB85CE017E
:100A600009959C0197FF0AC09B812F5F3F4F11F0B2
:100A700080E201C080E1892B8B83E8CF8E819F814A
:100A800001969F838E8330E0C901DF91CF91089555
:100A9000A0E0B0E0EEE4F5E00C94D0320F811885D0
:100AA0009E01255F3F4FF801838188608383C801E1
:100AB00069857A85A9010E940006F8012381277FB4
:100AC00023832096E4E00C94EC320F931F93CF9392
:100AD000DF938C01EB018B8181FF1BC082FF0DC076
:100AE0002E813F818C819D812817390764F4E8812C
:100AF000F9810193F983E88306C0E885F985802FA1
:100B00000995892B31F48E819F8101969F838E8375
:100B100002C00FEF1FEFC801DF91CF911F910F911E
:100B20000895A0E0B0E0E7E9F5E00C94C832FC01DC
:100B30004B015A016901D90113968C9180FF1AC0AB
:100B40007F01C0E0D0E010C0C6010E940605BFEFE3
:100B50008F3F9B0789F0F70181937F010F5F1F4F44
:100B60000815190588F32196CA15DB0528F400E05D
:100B700010E0F6CFC0E0D0E0CE01CDB7DEB7ECE0BC
:100B80000C94E432AEE0B0E0E8ECF5E00C94D03246
:100B90000D891E8986E08C831A8309838FEF9FE776
:100BA0009E838D839E01275E3F4FCE0101966F8904
:100BB000788DA9010E9400062F813885020F131F2E
:100BC000F80110822E96E4E00C94EC329C01FB01BB
:100BD000838180FF11C086FD0FC09FEF2F3F390733
:100BE00059F0228380648F7D83838681978101976A
:100BF0009783868330E002C02FEF3FEFC90108954D
:100C0000ABE0B0E0E6E0F6E00C94C2323C012B0130
:100C10005A01FC0117821682838181FD03C06FEFA8
:100C20007FEFC6C19AE0892E1E010894211C311C59
:100C3000F3012381F20123FD859123FF81912F018F
:100C4000882309F4B2C1853239F423FD859123FF4D
:100C500081912F01853229F490E0B3010E9465054E
:100C6000E7CF982FFF24EE249924FFE1FF15D0F061
:100C70009B3269F09C3228F4903259F0933291F40F
:100C80000EC09D3249F0903369F441E024C052E037
:100C9000F52A84E0F82A28C098E0F92A25C0E0E186
:100CA000FE2A22C0F7FC29C0892F80538A3070F4B5
:100CB000F6FE05C0989C902C1124980E15C0E89C57
:100CC000E02C1124E80EF0E2FF2A0EC09E3229F437
:100CD000F6FC6BC140E4F42A07C09C3619F450E8D6
:100CE000F52A02C0983649F4F20123FD959123FFBD
:100CF00091912F01992309F0B8CF892F8554833022
:100D000018F08052833038F444E050E0A40EB51E51
:100D10005FE359830FC0933631F0933779F0933501
:100D200009F056C020C0F5018081898342E050E07F
:100D3000A40EB51E610101E010E012C0F501C080F3
:100D4000D180F6FC03C06FEF7FEF02C0692D70E029
:100D500042E050E0A40EB51EC6010E940B088C01B3
:100D60005FE7F52214C0F501C080D180F6FC03C016
:100D70006FEF7FEF02C0692D70E042E050E0A40EFB
:100D8000B51EC6010E94F9078C0150E8F52AF3FE52
:100D900007C01AC080E290E0B3010E946505EA94A2
:100DA0008E2D90E008171907A8F30EC0F601F7FC86
:100DB0008591F7FE81916F0190E0B3010E94650576
:100DC000E110EA94015010400115110579F7EAC0CD
:100DD000943611F0993669F5F7FE08C0F5012081C7
:100DE00031814281538184E090E00AC0F501808125
:100DF00091819C01442737FD4095542F82E090E07B
:100E0000A80EB91E9FE6F92257FF09C050954095DC
:100E1000309521953F4F4F4F5F4FE0E8FE2ACA01C2
:100E2000B901A1012AE030E00E942608D82ED2188C
:100E300040C0953729F41F2D1F7E2AE030E01DC0E9
:100E40001F2D197F9F3661F0903720F4983509F0F7
:100E5000ACC00FC0903739F0983709F0A6C004C075
:100E600028E030E00AC0106114FD146020E130E099
:100E700004C014FD166020E132E017FF08C0F50140
:100E8000608171818281938144E050E008C0F50166
:100E900080819181BC0180E090E042E050E0A40EAE
:100EA000B51EA1010E942608D82ED2188FE7F82E71
:100EB000F122F6FE0BC05EEFF522D91438F4F4FEF1
:100EC00007C0F2FC05C08FEEF82202C01D2D01C044
:100ED000192DF4FE0DC0FE01ED0DF11D8081803352
:100EE00019F499EEF92208C01F5FF2FE05C003C095
:100EF0008F2D867809F01F5F0F2DF3FC14C0F0FED4
:100F00000FC01E1510F09D2C0BC09D2C9E0C911A2D
:100F10001E2D06C080E290E0B3010E9465051F5FB0
:100F20001E15C0F304C01E1510F4E11A01C0EE2412
:100F300004FF0FC080E390E0B3010E94650502FF4B
:100F40001DC001FD03C088E790E00EC088E590E079
:100F50000BC0802F867891F001FF02C08BE201C0A8
:100F600080E2F7FC8DE290E0B3010E94650506C0C7
:100F700080E390E0B3010E9465059A94D914C0F310
:100F8000DA94F101ED0DF11D808190E0B3010E9432
:100F90006505DD20A9F706C080E290E0B3010E945C
:100FA0006505EA94EE20C1F743CEF30166817781AF
:100FB000CB012B96E2E10C94DE320F931F93CF937B
:100FC000DF93689F8001699F100D789F100D112499
:100FD000C8010E94E000EC01009729F060E070E099
:100FE000A8010E940408CE01DF91CF911F910F91BB
:100FF0000895FC010590615070400110D8F780956C
:1010000090958E0F9F1F0895DC0101C06D93415094
:101010005040E0F70895FC016150704001900110CC
:10102000D8F7809590958E0F9F1F0895DC01FC01E5
:10103000672F71917723E1F7329704C07C916D930C
:1010400070836291AE17BF07C8F30895FA01AA270B
:10105000283051F1203181F1E8946F936E7F6E5FFB
:101060007F4F8F4F9F4FAF4FB1E03ED0B4E03CD0A9
:10107000670F781F891F9A1FA11D680F791F8A1F8C
:10108000911DA11D6A0F711D811D911DA11D20D0F3
:1010900009F468943F912AE0269F11243019305DAD
:1010A0003193DEF6CF010895462F4770405D41939E
:1010B000B3E00FD0C9F7F6CF462F4F70405D4A33EB
:1010C00018F0495D31FD4052419302D0A9F7EACFB3
:1010D000B4E0A6959795879577956795BA95C9F7E2
:1010E00000976105710508959B01AC010A2E0694D5
:1010F0005795479537952795BA95C9F7620F731F8E
:10110000841F951FA01D08950F931F930BEC12E0F1
:10111000C8010E940423C8010E94A71C1F910F91BF
:10112000089581EE94E040E855E260E070E00E94AE
:10113000052B87E061E00E94A72988E061E00E941A
:10114000A72989E061E00E94A72987E061E00E9469
:10115000CD2988E061E00E94CD2989E061E00E940C
:10116000CD290895DC01862F90E0FC01E85CFE4F5C
:10117000E491EC938C5D9E4FFC016491E62FF0E0CE
:10118000EE0FFF1FE65EFE4F8591949112969C93A1
:101190008E9311970895FC012781308541855285F2
:1011A000B901CA010895FC0123853485458556851A
:1011B000B901CA0108950F931F938C01862F90E007
:1011C000FC01E85CFE4FE491D801EC938C5D9E4FEE
:1011D000FC016491E62FF0E0EE0FFF1FE65EFE4F8C
:1011E0008591949112969C938E9311970E94532807
:1011F000D80113966D937D938D939C93169780E001
:1012000090E0A7ECB2ECF80187839087A187B287C2
:1012100083879487A587B6871F910F9108954F9272
:101220005F927F928F929F92AF92BF92CF92DF9206
:10123000EF92FF920F931F93DF93CF93CDB7DEB75B
:10124000A9970FB6F894DEBF0FBECDBF5C01FC01BD
:101250007080018112810E9453289B01AC014E01D4
:101260000894811C911C2401CE018A96F2011192EE
:101270002F01E817F907D1F7F50183819481A58142
:10128000B68169017A01C81AD90AEA0AFB0AD701AC
:10129000C601805D9740A040B04018F427E030E0E0
:1012A0002EC1F5012383348345835683F894F801D6
:1012B0008181E72CE0948E2181837894FF24C72CD0
:1012C000DD2407C0F394FEE7FF1619F421E030E0B7
:1012D00016C182E090E00E94E028F801808190E051
:1012E0008C219D21892B71F3F894F80182818E2144
:1012F000828381818729818378948CE494E00E94A1
:10130000E028F894F80181818E2181837894FF246C
:1013100007C0F394FAE1FF1619F422E030E0EFC0C1
:1013200082E090E00E94E028F801808190E08C212A
:101330009D21892B71F3FF2407C0F394F3E3FF167B
:1013400019F423E030E0DBC082E090E00E94E02866
:10135000F801808190E08C219D21892B71F7FF2479
:1013600007C0F394F4E2FF1619F424E030E0C7C09C
:1013700082E090E00E94E028F801808190E08C21DA
:101380009D21892B71F3FF2406C0F3E3FF1619F4A6
:1013900025E030E0B4C0F39482E090E00E94E028C1
:1013A000F801808190E08C219D21892B71F7F40157
:1013B000F1924F01E415F50591F6EE24FF2420E0AB
:1013C00030E0DE01119660E170E041E050E02F5F17
:1013D0003F4FFD01E20FF31F80818C3058F0CB01AD
:1013E000821B930B6A0102C0CC0CDD1C8A95E2F7CC
:1013F000EC28FD282031310551F7FE01729600E0FE
:1014000010E02FE030E041E050E080818C3048F087
:10141000CA01022E02C0880F991F0A94E2F7082B16
:10142000192B2150304031966FEF2F3F360769F767
:10143000FE01B296DD2427E030E041E050E08081FB
:101440008C3040F0CA01022E02C0880F991F0A9406
:10145000E2F7D82A215030403196E415F50579F7A6
:10146000B7017F77882777FD8095982F0E94CF2F2F
:1014700020E030E040E251E40E94342FF501678320
:1014800070878187928717FF0DC01F77B801882763
:1014900077FD8095982F0E94CF2F20E030E040E22A
:1014A00051EC0BC0B801882777FD8095982F0E94DA
:1014B000CF2F20E030E040E251E40E94342FF501CC
:1014C00063877487858796874D2D50E02F2D3327AE
:1014D00027FD3A958E2D90E0820F911D800F911D72
:1014E000212F332727FD3A95820F911D90704817C1
:1014F000590719F026E030E002C020E030E0C901D1
:10150000A9960FB6F894DEBF0FBECDBFCF91DF9185
:101510001F910F91FF90EF90DF90CF90BF90AF9011
:101520009F908F907F905F904F900895449A459A36
:10153000E9EBF0E080818E7F808380818D7F8083E6
:1015400088E48093B80084E48093BC000895FC0193
:101550008091CA019091CC01981B9093CB01882374
:1015600019F41092CB01089581508093CA01E90FBC
:10157000F11D828108950895EF92FF920F931F93BA
:101580000E9453287B018C0184E98093BC001BC01E
:1015900021153105E1F00E9453286E197F09800B57
:1015A000910B2091CD013091CE0140E050E06217C7
:1015B00073078407950738F01092BC0084E4809389
:1015C000BC0081E009C02091CD013091CE01809115
:1015D000BC0084FDDDCF80E01F910F91FF90EF9064
:1015E0000895CF92DF92EF92FF921F93162F0E94E1
:1015F00053286B017C01112311F084EC01C084E8B5
:101600008093BC001BC021153105E1F00E945328D6
:101610006C197D098E099F092091CD013091CE0171
:1016200040E050E0621773078407950738F0109286
:10163000BC0084E48093BC0091E019C02091CD01EE
:101640003091CE018091BC0087FFDDCF8091B90041
:10165000887F883349F49091B900987F1092BC003C
:1016600084E48093BC0003C09091B900987F892FD7
:101670001F91FF90EF90DF90CF900895EF92FF922F
:101680000F931F93CF93DF93EC016093BB000E94F5
:1016900053287B018C0184E88093BC001BC021157A
:1016A0003105E1F00E9453286E197F09800B910BE0
:1016B0002091CD013091CE0140E050E062177307D8
:1016C0008407950738F01092BC0084E48093BC0036
:1016D00011E020C02091CD013091CE018091BC005D
:1016E00087FFDDCF8091B900887F883211F410E048
:1016F00011C01091B900187F8091B900887F8033A4
:1017000021F4CE010E94BC0A05C01092BC0084E402
:101710008093BC00812FDF91CF911F910F91FF909B
:10172000EF900895EF92FF920F931F93CF93DF9363
:10173000EC016093BB000E9453287B018C0184E87C
:101740008093BC001BC021153105E1F00E94532895
:101750006E197F09800B910B2091CD013091CE0144
:1017600040E050E0621773078407950738F0109245
:10177000BC0084E48093BC0011E01DC02091CD0129
:101780003091CE018091BC0087FFDDCF8091B90000
:10179000887F883179F08091B900887F803499F40E
:1017A00009C08091B900887F8834B1F4CE010E94CD
:1017B000BC0A01C010E0812FDF91CF911F910F91E2
:1017C000FF90EF9008951091B900187F8091B900B3
:1017D000887F803231F7EACF1092BC0084E4809396
:1017E000BC00E9CFEF92FF920F931F930E94532802
:1017F0007B018C0184EA8093BC001BC0211531055C
:10180000E1F00E9453286E197F09800B910B209103
:10181000CD013091CE0140E050E06217730784079C
:10182000950738F01092BC0084E48093BC0091E0EE
:1018300021C02091CD013091CE018091BC0087FF65
:10184000DDCF8091B900887F883099F08091B90010
:10185000887F8031A9F40DC09091B900987F1092D3
:10186000BC0084E48093BC0005C09091B900987FCF
:1018700001C090E0892F1F910F91FF90EF90089584
:101880008091B900887F883381F7E6CFEF92FF928D
:101890000F931F93CF93DF93EC01162F042FE22EAB
:1018A0001092CA011092CB01222311F4EE24E3948A
:1018B000EA94E982E3941882CE010E94F20B8883B5
:1018C000882309F061C0110FCE01612F0E94920B95
:1018D0008883882329F0813009F056C082E054C003
:1018E000CE01602F0E943E0B8883882329F081302F
:1018F00009F04AC083E048C0CE010E94F20B888301
:10190000882329F0813009F03FC084E03DC01F5F8B
:10191000CE01612F0E94920B8883882319F48E01D7
:10192000FF2425C0813081F585E02EC08981F8161D
:1019300051F4CE0160E00E94F10A8883813019F1F0
:10194000883551F021C0CE0161E00E94F10A888300
:101950008130C9F08035C1F48091BB00F8018283E9
:10196000F394F092CA01F092CC010F5F1F4FFE1466
:10197000E8F2CE010E94BC0A8883882329F08130D6
:1019800019F487E001C086E0DF91CF911F910F919C
:10199000FF90EF900895FF920F931F93CF93DF93E3
:1019A000EC01162F042FF22E18820E94F20B88836E
:1019B000882341F5110FCE01612F0E94920B88837D
:1019C000882321F08130F1F482E01CC0CE01602F29
:1019D0000E943E0B8883882339F4CE016F2D0E942C
:1019E0003E0B8883882319F0813061F40AC0CE0150
:1019F0000E94BC0A8883882329F0813019F487E08B
:101A000001C083E0DF91CF911F910F91FF90089566
:101A10000F931F93CF93DF93EC01162F042F18829F
:101A20000E94F20B8883882301F5110FCE01612FEC
:101A30000E94920B8883882321F08130B1F482E0E8
:101A400014C0CE01602F0E943E0B8883882321F0B2
:101A5000813059F483E009C0CE010E94BC0A88831A
:101A6000882319F0813009F487E0DF91CF911F912D
:101A70000F910895FB010680F781E02D80E004C0FE
:101A80008F5F0280F381E02D3097D1F70895FB013D
:101A90000680F781E02D04C041500280F381E02DE3
:101AA000309711F04423C1F7CF010895CF93DF930E
:101AB000EB01DA01EE81FF814115510591F030977C
:101AC00019F45F834E830DC0CF010280F381E02DB6
:101AD0003097D1F7FC01B383A28315969C938E9324
:101AE0001497DF91CF9108950F931F93CF93DF93B6
:101AF000FB018A01C681D78103C00A80DB81C02D2A
:101B0000209739F088819981B8010E942B04892B94
:101B1000A1F7CE01DF91CF911F910F910895EF9220
:101B2000FF920F931F93CF93DF937B018A01E9010B
:101B30002115310511F188819981009711F00E94DA
:101B40008A01C8010E94040488839983D7011696EC
:101B5000ED91FC911797309729F41796DC93CE936B
:101B600016970BC0CF010280F381E02D3097D1F79B
:101B7000FC01D383C2839D838C83DF91CF911F911E
:101B80000F91FF90EF900895EF92FF920F931F93A4
:101B9000CF93DF938C01EB0123C0FA80EB80888523
:101BA00087FD08C06E817F816115710519F0C8013C
:101BB0000E94C40D8885853031F489859A85009707
:101BC00011F00E948A0188819981009711F00E948A
:101BD0008A01CE010E948A018F2D9E2D9C01E90170
:101BE0002097D9F6DF91CF911F910F91FF90EF9041
:101BF00008950F931F93CF93DF938B01EA0182E245
:101C000090E0BA010E9465058F5F9F4F09F464C0A0
:101C10000115110509F050C054C0803240F08232E5
:101C200031F08C3521F0992787FD909534C08CE5F3
:101C300090E0BE010E9465058F5F9F4F09F44CC084
:101C4000F80180818C30C9F08D303CF4893051F13D
:101C50008A30B1F0883071F50DC0823241F08C3598
:101C600019F08D3039F515C08CE590E01DC082E289
:101C700090E008C082E690E00EC086E690E014C0D6
:101C80008EE690E0BE010E9465058F5F9F4F91F444
:101C900023C082E790E0BE010E9465058F5F9F4FE1
:101CA00049F41AC084E790E0BE010E9465058F5F89
:101CB0009F4F91F00F5F1F4FF8018081882309F03B
:101CC000ACCF82E290E0BE010E9465058F5F9F4F1E
:101CD00019F020E030E002C02FEF3FEFC901DF91A3
:101CE000CF911F910F910895CF93DF93EB01611571
:101CF000710559F0CE010E9406052FEF8F3F920724
:101D000021F081329105B4F306C02FEF3FEFC901F6
:101D1000DF91CF910895BE010E94E6058F5F9F4F2E
:101D2000A1F320E030E0F3CF6F927F928F929F92E9
:101D3000AF92BF92CF92DF92EF92FF920F931F93D9
:101D4000CF93DF93FB014A016115710509F4A5C02A
:101D5000A184B284C384D484C601B50120E030E0FC
:101D600040E050E00E94302F8823C4F400D000D01F
:101D7000ADB7BEB712969C928E92119781E091E01A
:101D800014969C938E9313970E944805D7FAD0948B
:101D9000D7F8D0940F900F900F900F90C601B50117
:101DA0000E94A12F7B018C01EDB7FEB738970FB6CB
:101DB000F894FEBF0FBEEDBF3196ADB7BEB7129619
:101DC0009C928E9211978DEF90E093838283E482B0
:101DD000F582068317830E944805C801B7010E9457
:101DE000CD2F9B01AC01C601B5010E94CB2E2CEA80
:101DF00035EC47EA56E30E94CC2E7B018C01C5E00E
:101E0000D0E0EDB7FEB738960FB6F894FEBF0FBE20
:101E1000EDBF8AEF682E80E0782EC801B70120E080
:101E200030E040E251E40E947F305B016C010E948F
:101E3000A12F7B0100D000D000D0EDB7FEB73196C6
:101E4000ADB7BEB712969C928E9211977382628242
:101E5000758364830E94480500E010E0C801B70163
:101E60000E94CD2F9B01AC01C601B5010E94CB2E73
:101E70007B018C01EDB7FEB736960FB6F894FEBF26
:101E80000FBEEDBF20E030E040E050E00E94302F78
:101E9000882319F0219709F0C0CF80E090E0DF910E
:101EA000CF911F910F91FF90EF90DF90CF90BF9057
:101EB000AF909F908F907F906F900895CF93DF9316
:101EC000DB016115710519F420E030E01FC000D07E
:101ED00000D000D0EDB7FEB73196CDB7DEB75A834C
:101EE000498383E091E09383828319968D919C913D
:101EF0001A97958384830E9448059C018DB79EB7ED
:101F000006960FB6F8949EBF0FBE8DBFC901DF9134
:101F1000CF910895FB016115710509F44BC020852F
:101F20002330B1F124303CF4213049F1223064F403
:101F3000222399F03FC0253089F1253064F1263005
:101F400091F12730B9F532C000D000D0EDB7FEB71F
:101F50005283418385EF90E008C000D000D0EDB7F8
:101F6000FEB7528341838FEE90E0948383830E9477
:101F700048059C010F900F900F900F901DC000D04E
:101F800000D0EDB7FEB7528341838AEE90E0EDCFEB
:101F90000E945E0F0DC00E94940E0AC0618572857A
:101FA0000E94F90D05C00E942C1002C00E94DE0F95
:101FB0009C0102C020E030E0C9010895EF92FF9239
:101FC0000F931F93CF93DF937C01FB018A0161156F
:101FD0007105C1F1C681D7818BE790E020C068818F
:101FE0007981C701A8010E94F90D8F5F9F4F39F1D8
:101FF0008AE390E0B8010E9465058F5F9F4FF9F07A
:10200000C701BE01A8010E948A0F8F5F9F4FB9F0E0
:102010000A80DB81C02D209741F08CE290E0B8016E
:102020000E9465058F5F9F4F51F02097C1F68DE7A5
:1020300090E0B8010E9465058F5F9F4F19F42FEF64
:102040003FEF02C020E030E0C901DF91CF911F9146
:102050000F91FF90EF900895EF92FF920F931F93CF
:10206000CF93DF937C01FB018A016115710539F182
:10207000C681D7818BE590E00FC0C701BE01A801E2
:102080000E948A0F8F5F9F4FB9F00A80DB81C02DBD
:10209000209741F08CE290E0B8010E9465058F5FC7
:1020A0009F4F51F0209749F78DE590E0B8010E94CD
:1020B00065058F5F9F4F19F42FEF3FEF02C020E0BF
:1020C00030E0C901DF91CF911F910F91FF90EF9008
:1020D0000895EF92FF920F931F93CF93DF938C019C
:1020E0007B010E947015EC01009719F420E030E0AC
:1020F00009C0C801B701AE010E948A0FCE010E943B
:1021000059159C01C901DF91CF911F910F91FF904B
:10211000EF900895EF92FF920F931F93CF93DF9369
:102120007B018A01CA010E940605829709F04FC00F
:1021300085E0F70180870E942B16EC01009709F4D7
:1021400046C0C8010E940605FFEF8F3F9F0709F0B8
:1021500041C03AC08C35910569F5C8010E94060559
:102160002FEF8F3F920781F186369105E1F0873698
:1021700091054CF48C35910581F08236910589F0FA
:102180008297D9F40CC08237910589F08437910584
:1021900081F08E36910589F408C08CE50BC082E28F
:1021A00009C088E007C08CE005C08AE003C08DE06C
:1021B00001C089E0BE010E94C515C8010E94060544
:1021C000EFEF8F3F9E0731F4CE010E94E3152FEF12
:1021D0003FEF0FC08232910521F0803291050CF063
:1021E000B9CFCE010E94E815F7019287818720E0E0
:1021F00030E0C901DF91CF911F910F91FF90EF90D7
:1022000008952F923F924F925F926F92AF92BF923A
:10221000CF92DF92EF92FF920F931F93DF93CF93B2
:10222000CDB7DEB728970FB6F894DEBF0FBECDBF8F
:102230007A8369831A01CA010E9406052C012FEFD7
:102240008F3F920771F08D32910519F0AA24A39463
:102250000DC0C1010E9406052C014FEF8F3F94076E
:1022600019F42FEF3FEF16C1AA24AA94C201C09718
:102270000A9718F000E010E018C000E010E0C80174
:1022800073E0880F991F7A95E1F7000F111F800FF7
:10229000911F820100531040080F191FC1010E94B5
:1022A00006052C01C0970A9750F35EE245165104CB
:1022B000D1F085E648165104B1F095E44916510471
:1022C00091F08A2D992787FD9095FC010E9FC00102
:1022D0000F9F900D1E9F900D1124E981FA81928726
:1022E000818783E0D0C0B801882777FD8095982F3B
:1022F0000E94CF2F7B018C01FEE24F16510419F092
:10230000CC24DD242DC0C1010E9406052C01CC2463
:10231000DD24C801B70120E030E040E251E40E9432
:102320007F307B018C0120ED3FEF420E531EB20146
:10233000882777FD8095982F0E94CF2F9B01AC01B5
:10234000C801B7010E94CC2E7B018C010894C10802
:10235000D108C1010E9406052C01C0970A97C8F256
:1023600035E64316510449F045E44416510429F07A
:1023700018861F826624639437C0C1010E94060537
:102380002C018B32910529F4C1010E9406052C0114
:1023900004C08DE24816510419F06624639406C007
:1023A000C1010E9406052C0166246A9418861F82CA
:1023B00015C08F81988553E0880F991F5A95E1F7D2
:1023C000EF81F885EE0FFF1FE80FF91FE20FF31FF3
:1023D000F887EF83C1010E9406052C01920120536A
:1023E00030402A30310528F36A2D772767FD709534
:1023F000872F972F0E94CF2FA80197010E947F302F
:102400006B837C838D839E83B601882777FD8095BF
:10241000982F0E94CF2F5B016C012F813885B90165
:10242000882777FD8095982F0E94CF2F7B018C0104
:10243000662D772767FD7095872F972F0E94CF2FE6
:102440009B01AC01C801B7010E947F309B01AC0128
:10245000C601B5010E94CC2E9B01AC0160E070E08A
:1024600080E291E40E94E2309B01AC016B817C81AF
:102470008D819E810E947F30E981FA816187728718
:102480008387948784E08087C201B1010E94E605BA
:1024900020E030E0C90128960FB6F894DEBF0FBEE9
:1024A000CDBFCF91DF911F910F91FF90EF90DF9003
:1024B000CF90BF90AF906F905F904F903F902F90D4
:1024C00008958DE090E00E94E000FC01009729F063
:1024D0008DE0DF011D928A95E9F7CF0108950E94F2
:1024E0006112FC01009711F087E08087CF01089509
:1024F0000E946112FC01009711F086E08087CF01F5
:1025000008950F931F93CF93DF938B010E94611265
:10251000EC01009739F085E08887C8010E94040427
:1025200089879A87CE01DF91CF911F910F910895EE
:10253000CF92DF92EF92FF920F931F938C017B015A
:102540006A01B9010E9481129C01C801B701A6016C
:102550000E948F0D1F910F91FF90EF90DF90CF9011
:102560000895EF92FF920F931F937A018B010E94BF
:102570006112FC01009731F084E08087E186F286E9
:1025800003871487CF011F910F91FF90EF9008955B
:10259000AF92BF92CF92DF92EF92FF920F931F9371
:1025A0007C016B015A01B901A8010E94B1129C0182
:1025B000C701B601A5010E948F0D1F910F91FF90D9
:1025C000EF90DF90CF90BF90AF900895CF93DF93BF
:1025D000EB010E946112FC01009721F083E08087EB
:1025E000D287C187CF01DF91CF910895CF92DF923B
:1025F000EF92FF920F931F938C017B016A01B90147
:102600000E94E6129C01C801B701A6010E948F0D2D
:102610001F910F91FF90EF90DF90CF9008956F92F0
:102620007F928F929F92BF92CF92DF92EF92FF9212
:102630000F931F93CF93DF937C014B018A013901E4
:10264000CA010E9406058B37910509F05DC087E03D
:10265000F4018087C701B8010E94740EC8010E946E
:1026600006058D37910509F452C0B8010E94E605B0
:10267000BB24BA94C7010E946112EC01009709F4CF
:1026800043C0BB2021F0F4019783868305C0F60187
:1026900093838283DD82CC82C701B8010E94740ECD
:1026A000C701BE01A8010E948A108F5F9F4F61F190
:1026B000C701B8010E94740E89859A859983888321
:1026C0001A861986C8010E940605CA97E9F4C7014F
:1026D000B8010E94740EC701BE01A80193010E94B7
:1026E00098138F5F9F4F81F0C701B8010E94740E4D
:1026F000C8010E940605BB246E018C32910509F4C5
:10270000B9CF8D37910519F02FEF3FEF02C020E0D0
:1027100030E0C901DF91CF911F910F91FF90EF90B1
:10272000DF90CF90BF909F908F907F906F90089593
:102730008F929F92AF92BF92CF92DF92EF92FF92D1
:102740000F931F93DF93CF93CDB7DEB729970FB6C3
:10275000F894DEBF0FBECDBF6C015B017A01490169
:102760004115510509F4ADC0BA010E94740E8F5F86
:102770009F4F09F4A6C0C7010E9406058C018FEF88
:102780000F3F180709F49DC0C801B7010E94E60574
:102790008F5F9F4F09F495C00232110531F4C601D5
:1027A000B501A7010E948A1020C00D32110521F049
:1027B000C801C0970A9730F4C601B501A7010E946D
:1027C000011113C00B35110539F4C601B501A7017C
:1027D00094010E94771409C00B37110541F4C6011A
:1027E000B501A70194010E940F139C016CC00E3625
:1027F000110501F519821A821B821C828E010F5F5E
:102800001F4FC80161E070E044E050E097010E9472
:102810009105049709F055C0C80160E071E044E0FB
:1028200050E00E944504009709F04BC082E0F5019A
:10283000808744C006361105F9F48E010B5F1F4FE7
:1028400085E0F80111928A95E9F7C80161E070E02E
:1028500045E050E097010E949105059791F5C80168
:1028600065E071E045E050E00E944504009749F5BD
:10287000F5011086118622C00437110511F5198261
:102880001A821B821C828E010F5F1F4FC80161E0FC
:1028900070E044E050E097010E949105049789F4AC
:1028A000C8016BE071E044E050E00E9445040097ED
:1028B00041F481E0F50180878FEF818720E030E0EF
:1028C00002C02FEF3FEFC90129960FB6F894DEBF83
:1028D0000FBECDBFCF91DF911F910F91FF90EF9071
:1028E000DF90CF90BF90AF909F908F9008956F92A0
:1028F0007F928F929F92BF92CF92DF92EF92FF9240
:102900000F931F93CF93DF936C014B01EA013901C1
:10291000CA010E9406058B35910509F03FC086E08B
:10292000F4018087C601BE010E94740ECE010E9490
:1029300006058D359105A9F1BE010E94E605BB246F
:10294000BA94C6010E9461128C01009739F1BB2034
:1029500021F0F4019783868306C0F7019383828375
:10296000FC01F582E482C601BE010E94740EC6011C
:10297000B801AE0193010E949813892B79F4C60126
:10298000BE010E94740ECE010E940605BB24780190
:102990008C329105B1F28D35910519F02FEF3FEF93
:1029A00002C020E030E0C901DF91CF911F910F916B
:1029B000FF90EF90DF90CF90BF909F908F907F908F
:1029C0006F900895CF92DF92EF92FF920F931F9333
:1029D000CF93DF937C018B016A0161157105B1F022
:1029E0000E946112EC01009799F0C701B8010E94A2
:1029F000740EC701BE01A80196010E9498138F5F53
:102A00009F4F31F4C701BE010E94C40DC0E0D0E069
:102A1000CE01DF91CF911F910F91FF90EF90DF904A
:102A2000CF900895EF92FF920F931F937C01CB01FB
:102A30000E949E158C01C701B80140E050E00E9441
:102A4000E214F82EE92EC8010E948B158F2D9E2DC1
:102A50001F910F91FF90EF900895FC01A485B5851B
:102A600012962D913C911397ED91FC911197E20FE5
:102A7000F31F8081882319F4EFEFFFEF0AC02F5F67
:102A80003F4F13963C932E931297E82FFF27E7FDB5
:102A9000F095CF010895FB01648575850E94C515E9
:102AA000882319F420E030E002C02FEF3FEFC90186
:102AB00008950F931F93CF93DF93EC018C859D8531
:102AC0000E94E8158C01009711F01D861C86CE012E
:102AD0000E948F04C801DF91CF911F910F9108953B
:102AE000CF93DF938BE495E160E070E00E94BA043D
:102AF000EC01009761F00E942B16009731F4CE0193
:102B00000E948F04C0E0D0E002C09D878C87CE0178
:102B1000DF91CF910895CF93DF93EC01009759F0A7
:102B20008C859D85009711F00E948A011D861C8668
:102B3000CE010E948F04DF91CF9108950F931F93D0
:102B4000CF93DF938C0180E090E06DE275E10E940D
:102B5000BA04EC01009799F084E090E00E94E00054
:102B6000FC01009739F011830083138212829D8744
:102B70008C8705C0CE010E948F04C0E0D0E0CE015A
:102B8000DF91CF911F910F910895482FDB0114968B
:102B90002D913C91159712968D919C911397281722
:102BA000390778F4ED91FC911197E20FF31F408300
:102BB00014968D919C911597019615969C938E93E2
:102BC000149780E00895009711F00E948A010895FB
:102BD0000F931F93CF93DF938C01DC0114962D91FB
:102BE0003C9115972115310541F0ED91FC91E20FD3
:102BF000F31F319780818823B1F0F801828193819E
:102C00002817390780F40190F081E02DE20FF31FBF
:102C10001082D80114968D919C9115970196159666
:102C20009C938E931497F801848195810E94E00013
:102C3000EC01009751F060E075E00E943E04D8017D
:102C40001D921C92C8010E948A01CE01DF91CF9192
:102C50001F910F910895CF93DF9386E090E00E943B
:102C6000E000DC010097A9F0E0E0F5E01196FC93AC
:102C7000EE9380E091E0EF019C01199221503040E9
:102C8000E1F713969C938E93129715961C921E92C1
:102C90001497CD01DF91CF9108950F931F938C016D
:102CA0000E945328605A75418F4F9F4FF8016083EF
:102CB0007183828393831F910F91089582EF91E036
:102CC0000E944D168AEF91E06EE00E94DB080895A5
:102CD0000F931F93CF93DF93EC010E945328288119
:102CE00039814A815B81621B730B840B950B6153A5
:102CF000754780409040C0F182E592E00E946518DF
:102D000082E592E068E470E042E050E00E946218E0
:102D100082E592E00E94B617182F82E592E00E94A9
:102D2000B617312F20E090E0282B392B84E0359521
:102D300027958A95E1F7442737FD4095542FCA011E
:102D4000B9010E94CF2F20E030E040E85DE30E940F
:102D50007F308B01F82FE92FAC01CB01DA018C8396
:102D60009D83AE83BF8304C00C811D81FE81EF81F2
:102D70004F2F5E2FB801CA01DF91CF911F910F91A4
:102D80000895CF93DF93613029F48EE090E06EE0F8
:102D900070E00DC0623029F48FE090E06FE070E0E9
:102DA00006C0633021F480E190E060E170E04730DC
:102DB000510501F1483051055CF445305105D1F021
:102DC000463051050CF058C0452B09F455C00FC0D2
:102DD0004930510509F44BC049305105C4F04A301F
:102DE000510509F449C04C30510509F449C0CFEFF1
:102DF000DFEF51C0862F0E94212A2FEF33E0829F00
:102E0000E001839FD00D929FD00D112444C08AEF22
:102E100091E00E94B2088AEF91E00E940F0990931E
:102E20000A02809309020197069718F4C0E0D0E0E7
:102E300032C08AEF91E00E94CB0820E030E040E20F
:102E400051E40E947F300E949C2FEB018AEF91E0B9
:102E50000E94D30820E030E040E251E40E947F303D
:102E60000E949C2F70930C0260930B0214C0C091BF
:102E70000B02D0910C020FC00E942529EC010BC05F
:102E80000E942529EC01181619062CF48BEC92E00F
:102E900067E00E949C21CE01DF91CF910895CF93EE
:102EA000DF93EB01442369F081EE94E060E171E08F
:102EB0000E94CE2D81EE94E0BE014AE050E00E94D7
:102EC000AF2DCE01835B9040439718F42AE030E0A9
:102ED00040C0CE018B5F9040439718F427E030E06C
:102EE00038C0CE0188549140439718F429EE33E05E
:102EF00030C0CE018E569140439718F426E030E062
:102F000028C0CE01805A9140439718F42BE030E05E
:102F100020C0CE0180509240439718F428E030E062
:102F200018C0CE0180539240439718F42CE030E053
:102F300010C0CE018F509340439718F425E030E045
:102F400008C0C35FD3401CF420E030E002C02FEF84
:102F50003FEFC901DF91CF91089520912E0230E01B
:102F600080912D02281B3109C901089540912D023D
:102F700080912E02481718F02FEF3FEF0AC0E42F80
:102F8000F0E0E35FFD4F8081282F30E04F5F4093FA
:102F90002D02C9010895E0912D0280912E02E817BB
:102FA00018F0EFEFFFEF06C0F0E0E35FFD4F808128
:102FB000E82FF0E0CF010895089510925502109285
:102FC000540288EE93E0A0E0B0E080935602909324
:102FD0005702A0935802B09359028EEA91E0909361
:102FE0005302809352020895CF92DF92EF92FF92A4
:102FF0000F931F93CF93DF937C016B018A01809124
:1030000051028823A1F0C0E0D0E00DC0D701ED91BE
:10301000FC91D601AC0FBD1F0190F081E02DC701DE
:103020006C9109952196C017D10780F304C0CB019C
:10303000642F0E94A718C801DF91CF911F910F91B3
:10304000FF90EF90DF90CF900895DF93CF930F9292
:10305000CDB7DEB7FC016983809151028823C9F0A6
:1030600080915002803238F081E090E09383828337
:1030700020E030E015C080914F02E82FF0E0E15DE4
:10308000FD4F998190838F5F80934F028093500210
:1030900005C0CE01019661E00E94A71821E030E052
:1030A000C9010F90CF91DF910895413208F040E2BD
:1030B000862F6DE072E00E94701810922D028093AE
:1030C0002E0208950E945518089510922D02109214
:1030D0002E0210924F02109250020E943D1A089543
:1030E000982F413210F040E030C080915E0288237A
:1030F000E1F781E080935E028FEF8093C902109226
:1031000084024150409385024F5F990F91609093E4
:103110005F0285EE8093BC0080915E028130E1F316
:1031200080918402841710F44091840220E030E002
:103130000AC0FB01E20FF31FD901AC59BD4F8C91BE
:1031400080832F5F3F4F2417A0F3842F0895482FCB
:10315000613210F081E0089580915E02843011F0B8
:1031600082E008956093A702A6E8B2E0842F9C0154
:10317000F90102C081918D938E2F841B8617D0F3A5
:1031800080E008951F920F920FB60F9211242F9393
:103190003F934F935F936F937F938F939F93AF93DF
:1031A000BF93EF93FF938091B90090E0887F907078
:1031B0008036910509F4DCC081369105CCF5883262
:1031C000910509F47BC089329105B4F480319105F1
:1031D00009F46FC0813191053CF4009709F431C1C5
:1031E000089709F039C165C08831910509F466C0B6
:1031F000809709F031C17DC08034910509F49FC0EA
:103200008134910544F48033910509F47DC0C89759
:1032100009F022C184C08035910509F484C0883545
:10322000910509F491C08834910509F015C198C041
:103230008839910509F4FDC089399105ECF4883786
:10324000910509F495C0893791054CF488369105AC
:1032500009F48EC08037910509F0FEC089C0883816
:10326000910509F4E6C08039910509F487C08038DA
:10327000910509F0F1C082C0803B910509F4B0C00E
:10328000813B91054CF4803A910509F489C0883A54
:10329000910509F0E1C0A4C0803C910509F4CDC0BE
:1032A000883C910509F4C9C0883B910509F0D4C058
:1032B000ACC080915F028093BB00B9C09091840242
:1032C00080918502981768F490918402E92FF0E0CC
:1032D000EC59FD4F80818093BB009F5F90938402E7
:1032E000A6C085ED8093BC008091BC0084FDFCCF1E
:1032F000B1C080E28093C90285ED8093BC008091CB
:10330000BC0084FDFCCFA6C080E38093C90285ED9C
:103310008093BC008091BC0084FDFCCF9BC088E3FF
:103320008093C9028AC0809184029091BB00E82FEB
:10333000F0E0EC59FD4F90838F5F80938402909171
:1033400084028091850271C0809184029091BB00BB
:10335000E82FF0E0EC59FD4F90838F5F809384025B
:1033600085ED8093BC008091BC0084FDFCCF72C0D1
:1033700083E080935E021092C80259C08091C80217
:10338000803208F056C08091C8029091BB00E82FAF
:10339000F0E0E855FD4F90838F5F8093C80247C0EF
:1033A0008091C802803230F4E091C802F0E0E85524
:1033B000FD4F108285ED8093BC008091BC0084FDA0
:1033C000FCCF10925E026091C802E0916202F0911F
:1033D000630288EA92E070E009951092C8022DC05D
:1033E00084E080935E021092A6021092A702E09100
:1033F0006002F091610209958091A702882329F467
:1034000081E08093A702109286029091A602E92F94
:10341000F0E0EA57FD4F80818093BB009F5F90935F
:10342000A6029091A6028091A702981710F485EC4D
:1034300001C085E88093BC000FC085EC8093BC0080
:1034400009C01092C90285ED8093BC008091BC0038
:1034500084FDFCCF10925E02FF91EF91BF91AF917E
:103460009F918F917F916F915F914F913F912F919C
:103470000F900FBE0F901F90189510925E0282E180
:1034800061E00E94CD2983E161E00E94CD29E9EB52
:10349000F0E080818E7F808380818D7F808388E4CF
:1034A0008093B80085E48093BC000895362F242FC4
:1034B0008FEC91E06DE1432F0E94CB0C0895EF92C9
:1034C000FF920F931F93CF93DF93162F7A01022F52
:1034D0008FEC91E06DE1412F0E94080D8FEC91E09F
:1034E0006DE1412F202F0E94460CC0E0D0E010E09B
:1034F00009C08FEC91E00E94A70AF701EC0FFD1FB5
:1035000080832196C017D107A4F3DF91CF911F913B
:103510000F91FF90EF900895AF92BF92CF92DF92FC
:10352000EF92FF920F93DF93CF9300D000D000D0A3
:10353000CDB7DEB77B016A015901AE014F5F5F4F26
:103540000023C1F161E026E00E945F1A2A812295E2
:1035500026952695237030E0898190E0880F991F89
:10356000880F991F282B392BF701318320832C8159
:10357000229526952695237030E08B8190E0880F68
:10358000991F880F991F282B392BF601318320832F
:103590002E81229526952695237030E08D8190E02E
:1035A000880F991F880F991F282B392BF50131831C
:1035B00020831FC061E023E00E945F1A898190E0B0
:1035C000880F991F880F991FF701918380838A8143
:1035D00090E0880F991F880F991FF60191838083CF
:1035E0008B8190E0880F991F880F991FF5019183B7
:1035F0008083F70180819181F2E080309F072CF079
:1036000080509440F70191838083F60180819181FD
:10361000F2E080309F072CF080509440F6019183B7
:103620008083F50180819181F2E080309F072CF04A
:1036300080509440F5019183808326960FB6F894CC
:10364000DEBF0FBECDBFCF91DF910F91FF90EF9006
:10365000DF90CF90BF90AF9008950F931F93DF93AB
:10366000CF930F92CDB7DEB78C016AE2AE014F5F08
:103670005F4F21E00E945F1A49814D7FC8016AE2D5
:103680000E94561A0F90CF91DF911F910F910895CC
:103690000F931F93DF93CF930F92CDB7DEB78C01BB
:1036A0006AE2AE014F5F5F4F21E00E945F1A4981DD
:1036B0004160C8016AE20E94561A0F90CF91DF91D3
:1036C0001F910F9108950F931F93DF93CF930F9244
:1036D000CDB7DEB78C016AE2AE014F5F5F4F21E0EC
:1036E0000E945F1A49814E7FC8016AE20E94561A01
:1036F0000F90CF91DF911F910F9108950F931F931A
:10370000DF93CF930F92CDB7DEB78C018FEC91E0B2
:103710000E94960AC8010E94631BC8016EE040E047
:103720000E94561AC8010E942D1BC8010E94481B06
:10373000C8016DE0AE014F5F5F4F21E00E945F1A4C
:103740000F90CF91DF911F910F9108958AEC92E035
:103750000E947E1B089589EA93E00E943C2308950D
:10376000AF92BF92CF92DF92EF92FF920F931F938F
:10377000CF93DF930CEC12E081EF91E0B8010E944F
:1037800012155C0180E8F80111928A95E9F7A114FD
:10379000B10411F480E08DC081EF91E0B5010E9489
:1037A0003A0D882309F47CC081EF91E0B5014FE127
:1037B00051E00E94740DBC01009709F471C081EFC3
:1037C00091E040E00E94470DEC01009709F468C0C9
:1037D00081EF91E0BE0146E251E00E94740D8C0140
:1037E00081EF91E0BE0148E251E00E94740D7C013E
:1037F00081EF91E0BE014AE251E00E94740D6C013C
:1038000081EF91E0BE014CE251E00E94740DEC01A9
:103810000115110509F444C0F8018085853009F0CF
:103820003FC0618572858CE493E044E250E00E94E1
:103830005304E114F104A1F1F7018085833081F58F
:10384000818592859093710380937003C114D10494
:1038500039F1F6018085833019F581859285909341
:103860007303809372032097D9F08885853061F4C3
:1038700069857A8584E793E042E350E00E9453042F
:1038800081E08093A8030AC0833051F489859A852A
:103890009093A7038093A6031092A80301E001C0B0
:1038A00000E081EF91E0B5010E94C40D802F01116D
:1038B00081E0DF91CF911F910F91FF90EF90DF900A
:1038C000CF90BF90AF900895CF93DF9381EE94E0B7
:1038D0000E948B2B892B19F4CFEFDFEF34C081EEE0
:1038E00094E06FE271E00E94D12DC0E0D0E017C0FB
:1038F000C038D105D9F081EE94E00E94BC2B682F2E
:10390000FE01E453FD4F8083219681EE94E00E94F6
:10391000BC2C62E070E080E090E00E94872881EE9D
:1039200094E00E948B2B1816190614F381EE94E094
:1039300069E371E00E94CE2D81EE94E0BE014AE081
:1039400050E00E94AF2DCE01DF91CF910895CF922C
:10395000DF92EF92FF920F931F93CF93DF93EC01CF
:103960000E94641C181619060CF0E2C081EE94E067
:1039700069E471E00E94D12DCE010E94B01B882322
:1039800009F4D6C081EE94E067E571E00E94D12D84
:1039900081EE94E00E94C42C81EE94E064E671E034
:1039A0000E94CE2D81EE94E06CE473E00E94CE2D57
:1039B00081EE94E06AE671E00E94CE2D81EE94E003
:1039C0006CE671E00E94CE2D6091700370917103DE
:1039D00081EE94E04AE050E00E949C2D81EE94E05C
:1039E0006AE671E00E94CE2D81EE94E061E771E01D
:1039F0000E94CE2D609172037091730381EE94E06A
:103A00004AE050E00E949C2D81EE94E06AE671E06D
:103A10000E94CE2D81EE94E066E771E00E94CE2DEB
:103A20008091A803882339F081EE94E064E773E085
:103A30000E94CE2D0AC06091A6037091A70381EE6B
:103A400094E04AE050E00E949C2D81EE94E00E94B8
:103A5000C42C8091700390917103892B09F068C088
:103A6000809172039091730323E0883E920729F0BE
:103A7000895E934009F05CC02BC094E7C92E93E0A7
:103A8000D92EC60160E070E040E150E00E94B7022C
:103A90007B018C0182E3F60111928A95E9F78FEFA1
:103AA000C82ED12CB601601B710987E00E944729FE
:103AB000CF18D10888E0B6010E944729E094F0941D
:103AC000FFEFEF22FF2489E0B7010E94472930C0B1
:103AD0008CE493E00E94E603823049F0833061F089
:103AE000813081F489EA93E06EE070E009C089EAF0
:103AF00093E06FE070E004C089EA93E060E170E079
:103B00000E94732789EA93E06EE571E00E945C23CE
:103B100089EA93E06AE070E00E94602389EA93E01A
:103B200064E773E00E942F2789EA93E00E946327ED
:103B3000DF91CF911F910F91FF90EF90DF90CF9089
:103B400008959F92AF92BF92CF92DF92EF92FF9231
:103B50000F931F93DF93CF93CDB7DEB72F970FB699
:103B6000F894DEBF0FBECDBF5C01962E81EF91E0D1
:103B70000E946F126C01009739F481EE94E06CE7BB
:103B800071E00E94D12D98C081EE94E00E948B2BB1
:103B9000181619061CF4C5010E94A71C81EF91E0BC
:103BA0000E9478128C0181EF91E0B6014FE151E063
:103BB00098010E948F0D81EF91E00E946F127C01AD
:103BC00081EF91E0B801A7010E94560D00D000D00E
:103BD00000D0EDB7FEB731968E010F5F1F4FADB726
:103BE000BEB712961C930E93119787E891E09383CA
:103BF0008283948215820E94C2058DB79EB7069675
:103C00000FB6F8949EBF0FBE8DBF81EF91E0B70154
:103C100046E251E098010E94981281EF91E0B701CD
:103C200048E251E020E030E00E94F61281EF91E09E
:103C3000B7014AE251E029E030E00E94F61282EF3B
:103C400091E0692D49E050E00E94C116AA2797FD36
:103C5000A095BA2FBC01CD010E94CF2F20E030E00B
:103C600040E251E40E94342F8B019C0181EF91E0EE
:103C7000B7014CE251E00E94C81281EE94E00E942C
:103C80008B2B181619061CF4C5010E94A71C81EF86
:103C900091E0B6010E9469108C01009729F081EE35
:103CA00094E0B8010E94D12D81EF91E0B6010E940D
:103CB000C40DC8010E948A012F960FB6F894DEBF8A
:103CC0000FBECDBFCF91DF911F910F91FF90EF906D
:103CD000DF90CF90BF90AF909F900895AF92BF922A
:103CE000CF92DF92EF92FF920F931F93DF93CF93C8
:103CF000CDB7DEB765970FB6F894DEBF0FBECDBF68
:103D00005C0181EF91E00E946F126C01009739F421
:103D100081EE94E06CE771E00E94D12DA6C081EEA7
:103D200094E00E948B2B181619061CF4C5010E9402
:103D3000A71C81EF91E00E9478128C0181EF91E045
:103D4000B6014FE151E098010E948F0D81EF91E0A3
:103D50000E946F127C0181EF91E0B801A7010E94DF
:103D6000560D81EF91E0B70146E251E02AE831E0DB
:103D70000E94981281EF91E0B70148E251E020E003
:103D800030E00E94F61281EF91E0B7014AE251E083
:103D900022E030E00E94F6121A8219821C821B82F5
:103DA0001E821D828AEC92E0BE016F5F7F4FAE01E2
:103DB0004D5F5F4F9E012B5F3F4F01E00E948C1AC9
:103DC0008DB79EB70A970FB6F8949EBF0FBE8DBFF2
:103DD000EDB7FEB731968E01095F1F4FADB7BEB785
:103DE00012961C930E9311978CE891E09383828333
:103DF00089819A81958384838B819C819783868333
:103E00008D819E81918780870E94C2058DB79EB764
:103E10000A960FB6F8949EBF0FBE8DBF81EF91E05A
:103E2000B7014CE251E098010E94981281EE94E0B3
:103E30000E948B2B181619061CF4C5010E94A71CA2
:103E400081EF91E0B6010E9469108C01009729F082
:103E500081EE94E0B8010E94D12D81EF91E0B6018E
:103E60000E94C40DC8010E948A0165960FB6F8949D
:103E7000DEBF0FBECDBFCF91DF911F910F91FF909D
:103E8000EF90DF90CF90BF90AF900895CF92DF92E8
:103E9000EF92FF920F931F93CF93DF936C0181EF0B
:103EA00091E00E946F12EC01009739F481EE94E0EA
:103EB0006CE771E00E94D12D73C081EE94E00E9406
:103EC0008B2B181619061CF4C6010E94A71C81EF43
:103ED00091E00E9478128C0181EF91E0BE014FE1E8
:103EE00051E098010E948F0D81EE94E00E948B2B8F
:103EF000181619061CF4C6010E94A71C81EF91E058
:103F00000E946F127C0181EF91E0B801A7010E942D
:103F1000560D81EF91E0B70146E251E02AE831E029
:103F20000E94981281EF91E0B70148E251E020E051
:103F300030E00E94F61281EF91E0B7014AE251E0D1
:103F400021E030E00E94F61282EF91E00E946816B4
:103F50008B019C0181EF91E0B7014CE251E00E949E
:103F6000C81281EE94E00E948B2B181619061CF4DF
:103F7000C6010E94A71C81EF91E0BE010E9469105A
:103F80008C01009729F081EE94E0B8010E94D12DB8
:103F900081EF91E0BE010E94C40DC8010E948A0118
:103FA000DF91CF911F910F91FF90EF90DF90CF9015
:103FB00008950F931F93182F0E9425296AE070E03F
:103FC00080E090E00E948728812F0E942529182FE9
:103FD000092F64E170E080E090E00E948728812F43
:103FE000902F1F910F9108958F929F92BF92CF9221
:103FF000DF92EF92FF920F931F93CF93DF934C01C9
:10400000EB01188281EE94E00E948B2B18161906A2
:104010001CF4C4010E94A71C85E190E00E94D91FF6
:10402000BC0182EF91E040E00E944F177C0188E0E4
:10403000E816F10429F483E08883BB24B39403C019
:10404000F7FC0EC0BB2481EF91E00E946F126C015F
:10405000009741F481EE94E06CE771E00E94D12D6D
:10406000BB2489C081EF91E00E9478128C0181EF1E
:1040700091E0B6014FE151E098010E948F0D81EF70
:1040800091E00E946F12EC0181EF91E0B801AE0166
:104090000E94560D81EF91E0BE0146E251E028E911
:1040A00031E00E94981281EF91E0BE0148E251E0B8
:1040B00020E030E00E94F61281EF91E0BE014AE27A
:1040C00051E097010E94F612E114F10429F485E110
:1040D00090E00E94D91F28C0C70108970297F0F40A
:1040E00082EF91E063E0A7010E94C116AA2797FD25
:1040F000A095BA2FBC01CD010E94CF2F20E030E067
:1041000040E251E40E94342F8B019C0181EF91E049
:10411000BE014CE251E00E94C8120EC082EF91E055
:1041200063E0A7010E94C1169C0181EF91E0BE01EE
:104130004CE251E00E94F61281EE94E00E948B2B3B
:10414000181619061CF4C4010E94A71C81EF91E007
:10415000B6010E9469108C01009729F081EE94E06D
:10416000B8010E94D12D81EF91E0B6010E94C40DEB
:10417000C8010E948A018B2DDF91CF911F910F9171
:10418000FF90EF90DF90CF90BF909F908F90089519
:104190008F929F92BF92CF92DF92EF92FF920F93F6
:1041A0001F93CF93DF934C01EB01188281EE94E0D3
:1041B0000E948B2B181619061CF4C4010E94A71C20
:1041C00084E190E00E94D91FBC0182EF91E040E0C1
:1041D0000E944F177C0188E0E816F10429F482E080
:1041E0008883BB24B39403C0F7FC0EC0BB2481EFCB
:1041F00091E00E946F126C01009741F481EE94E00F
:104200006CE771E00E94D12DBB2489C081EF91E061
:104210000E9478128C0181EF91E0B6014FE151E0EC
:1042200098010E948F0D81EF91E00E946F12EC01C6
:1042300081EF91E0B801AE010E94560D81EF91E04F
:10424000BE0146E251E02AE931E00E94981281EF76
:1042500091E0BE0148E251E020E030E00E94F61219
:1042600081EF91E0BE014AE251E097010E94F6120F
:10427000E114F10429F484E190E00E94D91F28C0E0
:10428000C70108970297F0F482EF91E062E0A7017E
:104290000E94C116AA2797FDA095BA2FBC01CD0197
:1042A0000E94CF2F20E030E040E251E40E94342F02
:1042B0008B019C0181EF91E0BE014CE251E00E9434
:1042C000C8120EC082EF91E062E0A7010E94C11601
:1042D0009C0181EF91E0BE014CE251E00E94F61298
:1042E00081EE94E00E948B2B181619061CF4C40171
:1042F0000E94A71C81EF91E0B6010E9469108C0119
:10430000009729F081EE94E0B8010E94D12D81EF51
:1043100091E0B6010E94C40DC8010E948A018B2D54
:10432000DF91CF911F910F91FF90EF90DF90CF9091
:10433000BF909F908F900895FF920F931F93162F19
:1043400005B1FBB087E061E00E94CD2988E061E023
:104350000E94CD2989E061E00E94CD29812F60E093
:104360000E94CD2960E570E080E090E00E948728FF
:1043700005B9FBB81F910F91FF9008957F928F921E
:104380009F92AF92BF92CF92DF92EF92FF920F93E4
:104390001F93DF93CF93CDB7DEB727970FB6F8946F
:1043A000DEBF0FBECDBF4C018B01FB01108281EE41
:1043B00094E00E948B2B181619061CF4C4010E946D
:1043C000A71C81E190E00E94D91FBC0182EF91E01F
:1043D00040E00E944F177C018B30910539F489EA47
:1043E00093E061E070E00E94932610C089EA93E0B8
:1043F0000E946A2688E0E816F10431F481E0F801B1
:1044000080837724739403C0F7FC0EC0772481EF78
:1044100091E00E946F125C01009741F481EE94E0FC
:104420006CE771E00E94D12D7724D9C081EF91E033
:104430000E9478128C0181EF91E0B5014FE151E0CB
:1044400098010E948F0D81EF91E00E946F126C0124
:1044500081EF91E0B801A6010E94560D81EF91E035
:10446000B60146E251E02CE931E00E94981281EF5A
:1044700091E0B60148E251E020E030E00E94F612FF
:1044800081EF91E0B6014AE251E097010E94F612F5
:10449000E114F10429F481E190E00E94D91F78C071
:1044A000C70108970297F0F482EF91E061E0A7015D
:1044B0000E94C116AA2797FDA095BA2FBC01CD0175
:1044C0000E94CF2F20E030E040E251E40E94342FE0
:1044D0008B019C0181EF91E0B6014CE251E00E941A
:1044E000C8125EC0FBE0EF16F10409F04BC089EA88
:1044F00093E00E9464238823D9F189EA93E00E9423
:104500007D23672B51F481EF91E0B6014CE251E03D
:104510002AE831E00E94981226C0C40168E00E9497
:104520009C2189EA93E00E947D23AB01BC018E01AE
:104530000F5F1F4FC80122E00E94932EC80164E75D
:1045400073E042E350E020E030E00E94E42D81EF90
:1045500091E0B6014CE251E024E733E00E9498126A
:10456000C8010E94C52E89EA93E00E94742318C0F6
:1045700081EF91E0B6014CE251E02EE931E00E947A
:1045800098120EC082EF91E061E0A7010E94C1166F
:104590009C0181EF91E0B6014CE251E00E94F612DD
:1045A00081EE94E00E948B2B181619061CF4C401AE
:1045B0000E94A71C81EF91E0B5010E9469108C0157
:1045C000009729F081EE94E0B8010E94D12D81EF8F
:1045D00091E0B5010E94C40DC8010E948A01872D97
:1045E00027960FB6F894DEBF0FBECDBFCF91DF91F7
:1045F0001F910F91FF90EF90DF90CF90BF90AF9001
:104600009F908F907F9008950F931F93DF93CF9388
:104610000F92CDB7DEB78C0119820E94461FC801E8
:104620000E946E1EC801BE016F5F7F4F0E94BE21B7
:10463000882321F0C80169810E94A11DC801BE0123
:104640006F5F7F4F0E94C820882321F0C8016981D5
:104650000E94A11DC801BE016F5F7F4F0E94F41F21
:10466000882321F0C80169810E94A11D0F90CF917C
:10467000DF911F910F910895FC018FEF9FEF9183C0
:104680008083938382831092B2031092B3031092BB
:10469000B4031092B5038AE090E0978386838CE39D
:1046A00090E09093A8018093A70181E080878EE538
:1046B00091E0958384830895FC0175836483089554
:1046C000FC0177836683089520E08091B203909186
:1046D000B303A091B403B091B5030097A105B10550
:1046E00009F021E0822F08951092B2031092B303D3
:1046F0001092B4031092B50308956091B2037091C3
:10470000B3038091B4039091B50308952F923F9223
:104710004F925F926F927F928F929F92AF92BF92D1
:10472000CF92DF92EF92FF920F931F93DF93CF937D
:10473000CDB7DEB762970FB6F894DEBF0FBECDBF20
:104740003C018091BC039091BD036FE170E00E9439
:1047500068324B017B0100E010E02091A70130910D
:10476000A801442737FD4095542FC801B7010E9486
:1047700049320E94CD2F2AE037ED43E25CE30E94EC
:104780007F300E94A12FA8019701220F331F441FE1
:10479000551F2E0D3F1D401F511F59016A01A61ABA
:1047A000B70AC80AD90AAD82BE82CF82D8865B0119
:1047B0006C01A20EB31EC41ED51EA982BA82CB8282
:1047C000DC82AA24BB24650121E030E03A872987F6
:1047D00017012801261A370A480A590AA801970121
:1047E000260F371F481F591F2F87388B498B5A8B2D
:1047F0007AC0E985FA85EE0FFF1FE454FC4F8081F3
:1048000091819C0140E050E0221633064406550693
:1048100058F58F859889A989BA89281739074A07D1
:104820005B0710F5E985FA85EE0FFF1FE254FC4F98
:104830000190F081E02D7F0100E010E0EB86FC8626
:104840000D871E878D819E81AF81B8858E159F054E
:10485000A007B10748F489819A81AB81BC81E81631
:10486000F9060A071B0778F1ED80FE800F81188595
:10487000E216F3060407150758F589819A81AB8182
:10488000BC81281739074A075B0710F5E985FA85C7
:10489000EE0FFF1FE254FC4F80819181A0E0B0E059
:1048A000281639064A065B0698F4EF84F8880989C9
:1048B0001A898E159F05A007B10750F40894A11C12
:1048C000B11CC11CD11CAA0CBB1CCC1CDD1C05C01E
:1048D0007A866986AA24BB24650109851A850E5F3C
:1048E0001F4F1A87098729853A852615370508F449
:1048F00080CFA6019501569547953795279587E076
:1049000068167104C0F02093B2033093B303409350
:10491000B4035093B503769467947092B703609292
:10492000B6039092B9038092B80381E090E090932F
:10493000BB038093BA0380E0211531054105510581
:1049400009F081E062960FB6F894DEBF0FBECDBFCE
:10495000CF91DF911F910F91FF90EF90DF90CF905B
:10496000BF90AF909F908F907F906F905F904F908F
:104970003F902F9008952F923F924F925F926F92A7
:104980007F928F929F92AF92BF92CF92DF92EF92DF
:10499000FF920F931F93DF93CF93CDB7DEB762974C
:1049A0000FB6F894DEBF0FBECDBF3C018091BC03B3
:1049B0009091BD036AE070E00E9468324B017B0178
:1049C00000E010E02091A7013091A801442737FDB5
:1049D0004095542FC801B7010E9449320E94CD2F43
:1049E0002AE037ED43E25CE30E947F300E94A12F72
:1049F000A8019701220F331F441F551F59016A0157
:104A0000A61AB70AC80AD90AAD82BE82CF82D88652
:104A10005B016C01A20EB31EC41ED51EA982BA8210
:104A2000CB82DC8221E030E03A872987AA24BB24AC
:104A3000650117012801261A370A480A590AA801F0
:104A40009701260F371F481F591F2F87388B498B17
:104A50005A8B7AC0E985FA85EE0FFF1FE454FC4FAC
:104A6000808191819C0140E050E02216330644068B
:104A7000550658F58F859889A989BA892817390765
:104A80004A075B0710F5E985FA85EE0FFF1FE25430
:104A9000FC4F0190F081E02D7F0100E010E0EB86FB
:104AA000FC860D871E878D819E81AF81B8858E150E
:104AB0009F05A007B10748F489819A81AB81BC8129
:104AC000E816F9060A071B0778F1ED80FE800F81D2
:104AD0001885E216F3060407150758F589819A81AF
:104AE000AB81BC81281739074A075B0710F5E985B8
:104AF000FA85EE0FFF1FE254FC4F80819181A0E008
:104B0000B0E0281639064A065B0698F4EF84F88868
:104B100009891A898E159F05A007B10750F40894DA
:104B2000A11CB11CC11CD11CAA0CBB1CCC1CDD1CC3
:104B300005C07A866986AA24BB24650109851A8581
:104B40000E5F1F4F1A87098729853A852615370575
:104B500008F480CFA601950156954795379527957E
:104B600087E068167104C0F02093B2033093B3035A
:104B70004093B4035093B503769467947092B7034F
:104B80006092B6039092B9038092B80382E090E0FD
:104B90009093BB038093BA0380E021153105410552
:104BA000510509F081E062960FB6F894DEBF0FBEA2
:104BB000CDBFCF91DF911F910F91FF90EF90DF90CC
:104BC000CF90BF90AF909F908F907F906F905F90AD
:104BD0004F903F902F900895CF92DF92EF92FF92E7
:104BE0000F931F93CF93DF930E9461286B017C0189
:104BF00080914404909145048601081B190B109381
:104C00004B0400934A0483E10938180798F1209176
:104C1000BC033091BD03C901885C904080179107A7
:104C200028F528533F4F0217130700F580914204DF
:104C30009091430401969093430480934204C09161
:104C40004804D09149042197D0934904C093480463
:104C5000029761F4CE010E948623882319F4CE01C5
:104C60000E94BB2410924304109242041092490403
:104C7000109248048091480490914904833491052E
:104C800040F010924904109248041092430410928C
:104C900042048091480490914904FC01EE0FFF1FEB
:104CA000E454FC4F11830083019690934904809350
:104CB0004804C0924404D0924504E0924604F09225
:104CC0004704DF91CF911F910F91FF90EF90DF90FC
:104CD000CF9008950F931F938C01FC0180810E9457
:104CE0009E278FEF9FEFF801918380831F910F9193
:104CF0000895FC01808191812FEF8F3F920791F001
:104D00001092B2031092B3031092B4031092B50341
:104D10001092B7031092B6036CEE75E241E050E0DA
:104D20000E947B270895FC01808191818617970757
:104D300029F071836083CF010E9479260895AF9294
:104D4000BF92DF92EF92FF920F931F93CF93DF9367
:104D5000EC017B015A01088119818A819B818F5F57
:104D60009F4F89F13FEF0F3F130711F4DD2405C07A
:104D7000CE010E946A26DD24D3948A8161E00E94DC
:104D8000CD298C819D819C01E29EC001E39E900D06
:104D9000F29E900D11240E94E0288A8160E00E941A
:104DA000CD298C819D819C01A29EC001A39E900D66
:104DB000B29E900D11240E94E028DD2021F0CE014A
:104DC000B8010E949326DF91CF911F910F91FF9020
:104DD000EF90DF90BF90AF900895FC018085813007
:104DE00041F4CF0161E070E04FE150E00E949F2666
:104DF0000895823039F4CF0161E070E04AE050E07C
:104E00000E949F260895FC018085813041F4CF01E6
:104E100063E070E041E050E00E949F2608958230F8
:104E200039F4CF0162E070E041E050E00E949F263B
:104E30000895FC018085813041F4CF0161E070E08C
:104E400043E050E00E949F260895823039F4CF015C
:104E500061E070E042E050E00E949F260895CF920A
:104E6000DF92EF92FF920F931F93CF93DF938C010A
:104E70006B01EE24FF2416C0803319F0813341F416
:104E800004C0C8010E94192703C0C8010E9403275B
:104E900021968881882381F7C8010E94ED26089415
:104EA000E11CF11CF80186819781E816F90614F4DB
:104EB000E601EFCFDF91CF911F910F91FF90EF901F
:104EC000DF90CF9008950F931F938C01FC01828196
:104ED00060E00E94A7298FEF9FEFF8019383828300
:104EE0001F910F910895FC01862F6283738361E007
:104EF0000E94A7290895823000F5E82FF0E0EE0F18
:104F0000FF1FE45BFB4F71836083882319F08130BE
:104F1000A1F408C0809169008C7F842B8093690084
:104F2000E89A089580916900440F551F440F551F5A
:104F3000837F842B80936900E99A0895823080F4FE
:104F4000882319F0813021F402C0E89801C0E99863
:104F5000E82FF0E0EE0FFF1FE45BFB4F11821082A1
:104F600008951F920F920FB60F9211242F933F9323
:104F70004F935F936F937F938F939F93AF93BF9361
:104F8000EF93FF9380914C0490914D04892B29F06D
:104F9000E0914C04F0914D040995FF91EF91BF9180
:104FA000AF919F918F917F916F915F914F913F91C1
:104FB0002F910F900FBE0F901F9018951F920F9278
:104FC0000FB60F9211242F933F934F935F936F93DC
:104FD0007F938F939F93AF93BF93EF93FF938091B2
:104FE0004E0490914F04892B29F0E0914E04F091EA
:104FF0004F040995FF91EF91BF91AF919F918F91D0
:105000007F916F915F914F913F912F910F900FBEC4
:105010000F901F9018951F920F920FB60F921124A8
:105020002F933F938F939F93AF93BF93809154049B
:1050300090915504A0915604B091570430915804B2
:105040000196A11DB11D232F2D5F2D3720F02D5767
:105050000196A11DB11D2093580480935404909390
:105060005504A0935604B093570480915004909136
:105070005104A0915204B09153040196A11DB11D99
:105080008093500490935104A0935204B09353041E
:10509000BF91AF919F918F913F912F910F900FBE34
:1050A0000F901F9018958FB7F89420915404309169
:1050B000550440915604509157048FBFB901CA015D
:1050C00008959FB7F8942091500430915104409175
:1050D00052045091530486B5A89B06C08F3F21F01F
:1050E0002F5F3F4F4F4F5F4F9FBF542F432F322FA4
:1050F0002227280F311D411D511D82E0220F331F31
:10510000441F551F8A95D1F7B901CA0108959B0123
:10511000AC017FB7F8948091500490915104A09114
:105120005204B091530466B5A89B05C06F3F19F0B7
:105130000196A11DB11D7FBFBA2FA92F982F8827D7
:10514000860F911DA11DB11D62E0880F991FAA1F36
:10515000BB1F6A95D1F7BC012DC0FFB7F8948091B1
:10516000500490915104A0915204B0915304E6B5BB
:10517000A89B05C0EF3F19F00196A11DB11DFFBF0F
:10518000BA2FA92F982F88278E0F911DA11DB11D11
:10519000E2E0880F991FAA1FBB1FEA95D1F7861B73
:1051A000970B885E9340C8F22150304040405040F9
:1051B00068517C4F211531054105510571F608955F
:1051C000019739F0880F991F880F991F029701974F
:1051D000F1F70895789484B5826084BD84B58160C8
:1051E00084BD85B5826085BD85B5816085BDEEE6EF
:1051F000F0E0808181608083E1E8F0E010828081CE
:1052000082608083808181608083E0E8F0E080813B
:1052100081608083E1EBF0E0808184608083E0EB5B
:10522000F0E0808181608083EAE7F0E08081846043
:10523000808380818260808380818160808380819F
:10524000806880831092C1000895982F8E3008F0F6
:105250009E5097708091A9018295880F880F807C5D
:10526000892B80937C0080917A00806480937A00FF
:1052700080917A0086FDFCCF2091780040917900E2
:10528000942F80E030E0282B392BC90108951F931B
:10529000CF93DF93182FEB0161E00E94A72920979D
:1052A00009F44AC0CF3FD10509F449C0E12FF0E02D
:1052B000E45BFE4F84918330C1F0843028F4813068
:1052C00051F08230B1F50CC0863019F1873049F1C8
:1052D000843079F514C084B5806884BDC7BD33C0FF
:1052E00084B5806284BDC8BD2EC080918000806876
:1052F00080938000D0938900C093880024C080915F
:105300008000806280938000D0938B00C0938A00DD
:105310001AC08091B00080688093B000C093B30041
:1053200012C08091B00080628093B000C093B4003E
:105330000AC0C038D1051CF4812F60E002C0812F63
:1053400061E00E94CD29DF91CF911F910895482FF0
:1053500050E0CA01885C9E4FFC0124914C5D5E4F79
:10536000FA0184918823C1F0E82FF0E0EE0FFF1FCF
:10537000EA5FFE4FA591B491662341F49FB7F8947C
:105380008C91209582238C939FBF08959FB7F894AA
:105390008C91822B8C939FBF0895482F50E0CA01B7
:1053A000845B9E4FFC012491CA01885C9E4FFC01E6
:1053B00094914C5D5E4FFA013491332309F440C05F
:1053C000222351F1233071F0243028F42130A1F050
:1053D000223011F514C02630B1F02730C1F024304E
:1053E000D9F404C0809180008F7703C08091800041
:1053F0008F7D8093800010C084B58F7702C084B504
:105400008F7D84BD09C08091B0008F7703C08091EB
:10541000B0008F7D8093B000E32FF0E0EE0FFF1F10
:10542000E05FFE4FA591B4912FB7F894662321F465
:105430008C919095892302C08C91892B8C932FBFDE
:105440000895682F70E0CB01845B9E4FFC0124918E
:10545000CB01885C9E4FFC0144916C5D7E4FFB014B
:105460009491992319F420E030E03CC0222351F1BB
:10547000233071F0243028F42130A1F0223011F5CE
:1054800014C02630B1F02730C1F02430D9F404C064
:10549000809180008F7703C0809180008F7D809302
:1054A000800010C084B58F7702C084B58F7D84BD25
:1054B00009C08091B0008F7703C08091B0008F7DCC
:1054C0008093B000892F90E0880F991F865E9E4FD1
:1054D000FC01A591B4918C9120E030E0842311F07F
:1054E00021E030E0C901089508951F920F920FB690
:1054F0000F9211242F933F934F938F939F93EF938A
:10550000FF934091C6002091990430919A042F5F37
:105510003F4F2F73307080919B0490919C0428170B
:10552000390759F0E0919904F0919A04E75AFB4F3A
:10553000408330939A0420939904FF91EF919F91B7
:105540008F914F913F912F910F900FBE0F901F9011
:105550001895E091ED04F091EE04E05CFF4F81912D
:10556000919120813181821B930B8F739070892BD5
:1055700011F00E94742A08951F920F920FB60F9295
:1055800011242F933F934F935F936F937F938F9348
:105590009F93AF93BF93EF93FF932091DD043091DE
:1055A000DE048091DF049091E0042817390731F47C
:1055B0008091C1008F7D8093C10016C0E091DF040F
:1055C000F091E004E356FB4F40818091DF0490911D
:1055D000E004019660E470E00E947C329093E00465
:1055E0008093DF044093C600FF91EF91BF91AF918C
:1055F0009F918F917F916F915F914F913F912F91EB
:105600000F900FBE0F901F901895AF92BF92DF9230
:10561000EF92FF920F931F93CF93DF93EC017A01E8
:105620008B01DD24403081EE580780E0680780E080
:10563000780711F0DD24D39491E0A92EB12CEC89E8
:10564000FD89DD2069F0C5010E8C02C0880F991F0D
:105650000A94E2F7808360E079E08DE390E005C092
:10566000108260E874E88EE190E0A80197010E9442
:105670008F322150304040405040569547953795E5
:10568000279580E12030380720F0DD2011F0DD245F
:10569000D6CFE889F9893083EA89FB892083EE89AE
:1056A000FF89408121E030E0C9010A8C02C0880FE7
:1056B000991F0A94E2F7482B4083EE89FF894081C5
:1056C000C9010B8C02C0880F991F0A94E2F7482B7E
:1056D0004083EE89FF894081C9010C8C02C0880F8C
:1056E000991F0A94E2F7482B4083EE89FF89808155
:1056F0000D8C02C0220F331F0A94E2F72095282355
:105700002083DF91CF911F910F91FF90EF90DF9059
:10571000BF90AF900895DC011C96ED91FC911D9710
:10572000E05CFF4F2191319180819181281B390BE1
:105730002F733070C9010895DC011C96ED91FC9126
:105740001D97E05CFF4F20813181E054F040DF0184
:10575000AE5BBF4F8D919C9111972817390719F4B3
:105760002FEF3FEF07C08D919C91E80FF91F8081CB
:10577000282F30E0C9010895DC011C96ED91FC91C1
:105780001D97E05CFF4F20813181E054F040DF0144
:10579000AE5BBF4F8D919C9111972817390719F473
:1057A0002FEF3FEF10C08D919C911197E80FF91FDB
:1057B00020818D919C91119701968F739070119615
:1057C0009C938E9330E0C9010895FC0186859785EE
:1057D000DC01A05CBF4FFC01EE5BFF4F2D913C91C3
:1057E00011978081918128173907C1F70895CF93C8
:1057F000DF93EC01462FEE85FF85E05CFF4F808153
:105800009181E054F040019660E470E00E947C32A7
:105810009C01DF01AE5BBF4F8D919C9111972817C2
:105820003907D1F3E05CFF4F80819181E054F04073
:10583000E80FF91F4083EE85FF85E05CFF4F318361
:105840002083EE89FF89208181E090E00D8C02C0E9
:10585000880F991F0A94E2F7282B208381E090E0BB
:10586000DF91CF9108951092E4041092E30488EE42
:1058700093E0A0E0B0E08093E5049093E604A09369
:10588000E704B093E8048EEB91E09093E2048093F8
:10589000E10489E594E09093EE048093ED048DE9B2
:1058A00094E09093F0048093EF0485EC90E0909363
:1058B000F2048093F10484EC90E09093F4048093DC
:1058C000F30480EC90E09093F6048093F50481EC6F
:1058D00090E09093F8048093F70486EC90E0909326
:1058E000FA048093F90484E08093FB0483E08093BE
:1058F000FC0487E08093FD0485E08093FE0481E052
:105900008093FF040895CF93DF930E94EA280E94BA
:105910009108C9EADAE20E9484082097E1F30E9424
:10592000A92AF9CFCF92DF92EF92FF920F931F93A4
:10593000CF93DF937C016B018A01C0E0D0E00FC000
:10594000D6016D916D01D701ED91FC910190F0812F
:10595000E02DC7010995C80FD91F0150104001154E
:10596000110571F7CE01DF91CF911F910F91FF903B
:10597000EF90DF90CF900895DC01ED91FC910190C4
:10598000F081E02D09950895EF92FF920F931F93F8
:105990008C01DC01ED91FC910190F081E02D6DE036
:1059A00009957C01D801ED91FC910190F081E02DE9
:1059B000C8016AE009959C012E0D3F1DC9011F9188
:1059C0000F91FF90EF900895CF93DF93DB010D903F
:1059D0000020E9F71197A61BB70BEC01E881F981CC
:1059E0000280F381E02DAD010995DF91CF910895FB
:1059F0004F925F927F928F929F92AF92BF92CF927F
:105A0000DF92EF92FF920F931F93DF93CF93CDB767
:105A1000DEB7A1970FB6F894DEBF0FBECDBF2C0145
:105A2000742ECB01223008F42AE019A231E2C32EF1
:105A3000D12CCC0EDD1E822E9924AA24BB24672DE6
:105A4000752FA50194010E948F3279018A01C80146
:105A5000B701A50194010E944932472D461B0894C5
:105A6000C108D1084A3014F4405D01C0495CF60118
:105A70004083E114F1040105110521F07E2C5F2D16
:105A8000C801DDCFC201B6010E94E42CA1960FB679
:105A9000F894DEBF0FBECDBFCF91DF911F910F9164
:105AA000FF90EF90DF90CF90BF90AF909F908F903E
:105AB0007F905F904F900895CF92DF92EF92FF9288
:105AC0000F931F93CF93DF93EC016A017B012115A4
:105AD000310541F4E881F9810190F081E02D642FD6
