:100000000C94B6000C948D270C94BA270C94DE0047
:100010000C94DE000C94DE000C94DE000C94DE00E8
:100020000C94DE000C94DE000C94DE000C94DE00D8
:100030000C94DE000C94DE000C94DE000C94DE00C8
:100040000C94E7270C94DE000C94512A0C94982A07
:100050000C94DE000C94DE000C94DE000C94DE00A8
:100060000C94C2180C94DE0007634236B79BD8A7E5
:100070001A39685618AEBAAB558C1D3CB7CC5763CD
:10008000BD6DEDFD753EF6177231BF000000803F7B
:1000900008000000BE922449123EABAAAA2ABECD97
:1000A000CCCC4C3E00000080BEABAAAAAA3E000009
:1000B0000000BF000000803F000000000008417801
:1000C000D3BB4387D1133D190E3CC3BD4282AD2B38
:1000D0003E68EC8276BED98FE1A93E4C80EFFFBE30
:1000E00001C4FF7F3F000000000074727565006668
:1000F000616C7365006E756C6C0025750025752E3E
:10010000002D0025640000000000240027002A00C4
:1001100000000000250028002B0000000000230044
:100120002600290004040404040404040202020258
:1001300002020303030303030102040810204080AA
:10014000010204081020010204081020000000072A
:10015000000201000003040600000000000000008F
:10016000BB0A5E16DD17A61BAB1B0F2C11241FBE8E
:10017000CFEFD8E0DEBFCDBF11E0A0E0B1E0EEE907
:10018000F5E602C005900D92A639B107D9F715E042
:10019000A6E9B1E001C01D92A83DB107E1F711E069
:1001A000CCE6D1E004C02297FE010E948732C0361F
:1001B000D107C9F70E945F2C0C94CD320C9400003B
:1001C000CF93DF93BC018230910510F462E070E0C0
:1001D000A091CE05B091CF05ED01E0E0F0E040E068
:1001E00050E021C0888199818617970769F48A8138
:1001F0009B81309719F09383828304C09093CF053D
:100200008093CE05FE0134C06817790738F4411594
:10021000510519F08417950708F4AC01FE018A8195
:100220009B819C01E9012097E9F641155105A9F14F
:10023000CA01861B970B049708F4BA01E0E0F0E0CE
:100240002AC08D919C91119784179507F9F4641732
:10025000750781F412968D919C911397309719F040
:100260009383828304C09093CF058093CE05FD01D4
:1002700032964CC0CA01861B970BFD01E80FF91F8F
:100280006193719302978D939C9340C0FD0182818D
:1002900093819C01D9011097A1F68091CC05909192
:1002A000CD05892B41F480916E0190916F0190935F
:1002B000CD058093CC05409170015091710141159D
:1002C000510541F44DB75EB780916C0190916D017D
:1002D000481B590B2091CC053091CD05CA01821BDA
:1002E000930B8617970780F0AB014E5F5F4F841723
:1002F000950750F0420F531F5093CD054093CC0506
:10030000F9016193719302C0E0E0F0E0CF01DF9169
:10031000CF910895CF93DF93009709F450C0EC017B
:1003200022971B821A82A091CE05B091CF0510971B
:1003300009F140E050E0AC17BD0708F1BB83AA8388
:10034000FE0121913191E20FF31FAE17BF0779F43F
:100350008D919C911197280F391F2E5F3F4F398344
:10036000288312968D919C9113979B838A834115C4
:10037000510571F4D093CF05C093CE0520C01296DD
:100380008D919C911397AD01009711F0DC01D3CFB3
:10039000FA01D383C28321913191E20FF31FCE176B
:1003A000DF0769F488819981280F391F2E5F3F4F3D
:1003B000FA01318320838A819B8193838283DF9139
:1003C000CF910895A0E0B0E0E8EEF1E00C9498320F
:1003D0006C01009729F4CB010E94E0006C01C1C0C0
:1003E0008EEF882E8FEF982E8C0C9D1C8601060FA9
:1003F000171F0815190508F4B2C0F401A081B181D6
:10040000A617B707B8F0A530B10508F4AAC0CD010A
:1004100004978617970708F4A4C01297A61BB70B7A
:10042000F801A193B193D4016D937C93CF010E9405
:100430008A0197C07B01EA1AFB0AEEEFFFEFEE0E8E
:10044000FF1E36016A0E7B1EC091CE05D091CF05EE
:1004500044245524AA24BB244AC0C615D705E1F577
:10046000488159814E155F05B8F1CA0104978E1570
:100470009F05B0F41296A40FB51FF401B183A083B9
:100480002A813B814114510431F0D20113963C93EF
:100490002E93129766C03093CF052093CE0561C08E
:1004A0008A819B81F80193838283425050404E1988
:1004B0005F09518340834114510431F0D2011396F6
:1004C0001C930E93129704C01093CF050093CE0592
:1004D000F4017183608345C088819981A816B906AB
:1004E00008F45C012E018A819B819C01E90120971F
:1004F00009F0B3CF8091CC059091CD058615970575
:10050000E9F4A616B706D0F420917001309171017C
:100510002115310541F42DB73EB780916C019091C2
:100520006D01281B390B02171307C8F41093CD0572
:100530000093CC05D4016D937C9313C0CB010E9432
:10054000E000EC01009759F0F40140815181B601BF
:100550000E942204C6010E948A016E0102C0CC24BE
:10056000DD24C601CDB7DEB7E0E10C94B4322F92A2
:100570003F925F926F927F928F929F92AF92BF92C3
:10058000CF92DF92EF92FF920F931F93CF93DF935F
:100590008C011B01EA016115710519F0FB019183C2
:1005A0008083209749F0CE010297839728F020E0BE
:1005B00030E040E050E0F6C0F801A1908F018A2DB4
:1005C00090E00E948B32892BB9F7FDE2AF1631F42F
:1005D000F801A1908F015524539407C0FBE2AF1698
:1005E00019F4F801A1908F015524209719F0C0311A
:1005F000D105C1F4F0E3AF1679F4F80180818837B2
:1006000011F0883549F4F801A1800E5F1F4FF2E028
:100610005F2AC0E1D0E006C0209721F480E3A8164D
:10062000E9F427C0C830D10531F1C930D10524F42F
:10063000C230D10531F50CC0CA30D10589F0C031C6
:10064000D105F9F4C12CD12CE12CB8E0FB2E28C047
:10065000C12CD12CE12CA0E4FA2E22C0CAE0D0E0BB
:10066000FCECCF2EFCECDF2EFCECEF2EFCE0FF2EA2
:1006700017C0C8E0D0E0C12CD12CE12CE0E1FE2E67
:100680000FC09E01442737FD4095542F60E070E075
:1006900080E090E80E946332C901DA016C017D01BB
:1006A00020E030E040E050E060E03E01882477FC4C
:1006B0008094982C70EDB72EBA0CE9E0EB1570F42D
:1006C0008A2D81548A3118F499ECB92E06C08A2DEE
:1006D00081568A3150F589EAB82EBA0C8B2D90E0FC
:1006E0008C179D0714F56F3FE1F0C216D306E406A0
:1006F000F506B0F0CA01B901A40193010E941D32B0
:100700009B01AC012B0D311D411D511D2130F0E02D
:100710003F07F0E04F07F0E85F0710F461E001C029
:100720006FEFF801A1908F01C5CF2114310481F042
:10073000662331F001501040F1011183008308C09D
:1007400051FE1AC002501040F1011183008314C001
:1007500067FF12C050FC05C02FEF3FEF4FEF5FE780
:1007600004C020E030E040E050E882E290E0909366
:10077000D7058093D60516C050FE08C05095409509
:10078000309521953F4F4F4F5F4F0CC057FF0AC028
:1007900082E290E09093D7058093D6052FEF3FEF4C
:1007A0004FEF5FE7B901CA01DF91CF911F910F9120
:1007B000FF90EF90DF90CF90BF90AF909F908F9081
:1007C0007F906F905F903F902F900895FC01882755
:1007D0009927E89421912032E9F3293010F02E3046
:1007E000C8F32B3241F02D3239F4689404C00E94D2
:1007F0006204820F911D219120532A30C0F31EF410
:10080000909581959F4F08950F931F93CF93DF93FA
:10081000182F092FE82FF92FDF010D900020E9F79D
:10082000CD018E1B9F0B0E94E000EC01009721F090
:10083000612F702F0E943E04CE01DF91CF911F9156
:100840000F910895FB01DC0102C001900D9241500F
:100850005040D8F70895FB01DC018D9181341CF0E4
:100860008B350CF4805E619161341CF06B350CF4B7
:10087000605E861B611189F3990B0895FB01DC0111
:1008800001900D920020E1F70895FB01DC01415039
:10089000504030F08D910190801919F40020B9F783
:1008A000881B990B0895FB01DC014150504048F032
:1008B00001900D920020C9F701C01D924150504097
:1008C000E0F708957AE0979F902D879F802D910DF6
:1008D00011240895FA01CF93FF93EF932230CCF0C7
:1008E0002532BCF4C22F2C2F332744275527FF93E2
:1008F000EF930E946332EF91FF91605D6A330CF0D9
:10090000695D6193B901CA016050704080409040B8
:1009100051F710828F919F91CF910C941608FC0192
:10092000838187FF24C08091D0059091D1058E17D7
:100930009F0721F41092D1051092D0058091D20525
:100940009091D3058E179F0721F41092D305109232
:10095000D2058091D4059091D5058E179F0721F47B
:100960001092D5051092D405CF010E948A0180E033
:1009700090E008950F931F93CF93DF938C01EB01C9
:10098000009731F46115710519F420E030E038C0AA
:1009900081E090E06EE070E00E94DD07FC019C01C8
:1009A000009771F180E88383209771F0D387C28725
:1009B00081E883838091D0059091D105892B21F422
:1009C000F093D105E093D00501151105C9F0118709
:1009D00000878381826083838091D2059091D305C3
:1009E000892B71F4F093D305E093D2058091D4055F
:1009F0009091D505892B21F4F093D505E093D4058A
:100A0000C901DF91CF911F910F910895CF93DF938B
:100A1000EC014B8140FF1AC046FF0AC04F7B4B835D
:100A20008E819F8101969F838E838A81282F2BC080
:100A300042FF13C0E881F9818081282F332727FDE9
:100A400030952115310529F440624B832FEF3FEF9C
:100A50001BC03196F983E88311C0EA85FB85CE017E
:100A600009959C0197FF0AC09B812F5F3F4F11F0B2
:100A700080E201C080E1892B8B83E8CF8E819F814A
:100A800001969F838E8330E0C901DF91CF91089555
:100A9000A0E0B0E0EEE4F5E00C94A4320F811885FC
:100AA0009E01255F3F4FF801838188608383C801E1
:100AB00069857A85A9010E940006F8012381277FB4
:100AC00023832096E4E00C94C0320F931F93CF93BE
:100AD000DF938C01EB018B8181FF1BC082FF0DC076
:100AE0002E813F818C819D812817390764F4E8812C
:100AF000F9810193F983E88306C0E885F985802FA1
:100B00000995892B31F48E819F8101969F838E8375
:100B100002C00FEF1FEFC801DF91CF911F910F911E
:100B20000895A0E0B0E0E7E9F5E00C949C32FC0108
:100B30004B015A016901D90113968C9180FF1AC0AB
:100B40007F01C0E0D0E010C0C6010E940605BFEFE3
:100B50008F3F9B0789F0F70181937F010F5F1F4F44
:100B60000815190588F32196CA15DB0528F400E05D
:100B700010E0F6CFC0E0D0E0CE01CDB7DEB7ECE0BC
:100B80000C94B832AEE0B0E0E8ECF5E00C94A4329E
:100B90000D891E8986E08C831A8309838FEF9FE776
:100BA0009E838D839E01275E3F4FCE0101966F8904
:100BB000788DA9010E9400062F813885020F131F2E
:100BC000F80110822E96E4E00C94C0329C01FB01E7
:100BD000838180FF11C086FD0FC09FEF2F3F390733
:100BE00059F0228380648F7D83838681978101976A
:100BF0009783868330E002C02FEF3FEFC90108954D
:100C0000ABE0B0E0E6E0F6E00C9496323C012B015C
:100C10005A01FC0117821682838181FD03C06FEFA8
:100C20007FEFC6C19AE0892E1E010894211C311C59
:100C3000F3012381F20123FD859123FF81912F018F
:100C4000882309F4B2C1853239F423FD859123FF4D
:100C500081912F01853229F490E0B3010E9465054E
:100C6000E7CF982FFF24EE249924FFE1FF15D0F061
:100C70009B3269F09C3228F4903259F0933291F40F
:100C80000EC09D3249F0903369F441E024C052E037
:100C9000F52A84E0F82A28C098E0F92A25C0E0E186
:100CA000FE2A22C0F7FC29C0892F80538A3070F4B5
:100CB000F6FE05C0989C902C1124980E15C0E89C57
:100CC000E02C1124E80EF0E2FF2A0EC09E3229F437
:100CD000F6FC6BC140E4F42A07C09C3619F450E8D6
:100CE000F52A02C0983649F4F20123FD959123FFBD
:100CF00091912F01992309F0B8CF892F8554833022
:100D000018F08052833038F444E050E0A40EB51E51
:100D10005FE359830FC0933631F0933779F0933501
:100D200009F056C020C0F5018081898342E050E07F
:100D3000A40EB51E610101E010E012C0F501C080F3
:100D4000D180F6FC03C06FEF7FEF02C0692D70E029
:100D500042E050E0A40EB51EC6010E940B088C01B3
:100D60005FE7F52214C0F501C080D180F6FC03C016
:100D70006FEF7FEF02C0692D70E042E050E0A40EFB
:100D8000B51EC6010E94F9078C0150E8F52AF3FE52
:100D900007C01AC080E290E0B3010E946505EA94A2
:100DA0008E2D90E008171907A8F30EC0F601F7FC86
:100DB0008591F7FE81916F0190E0B3010E94650576
:100DC000E110EA94015010400115110579F7EAC0CD
:100DD000943611F0993669F5F7FE08C0F5012081C7
:100DE00031814281538184E090E00AC0F501808125
:100DF00091819C01442737FD4095542F82E090E07B
:100E0000A80EB91E9FE6F92257FF09C050954095DC
:100E1000309521953F4F4F4F5F4FE0E8FE2ACA01C2
:100E2000B901A1012AE030E00E942608D82ED2188C
:100E300040C0953729F41F2D1F7E2AE030E01DC0E9
:100E40001F2D197F9F3661F0903720F4983509F0F7
:100E5000ACC00FC0903739F0983709F0A6C004C075
:100E600028E030E00AC0106114FD146020E130E099
:100E700004C014FD166020E132E017FF08C0F50140
:100E8000608171818281938144E050E008C0F50166
:100E900080819181BC0180E090E042E050E0A40EAE
:100EA000B51EA1010E942608D82ED2188FE7F82E71
:100EB000F122F6FE0BC05EEFF522D91438F4F4FEF1
:100EC00007C0F2FC05C08FEEF82202C01D2D01C044
:100ED000192DF4FE0DC0FE01ED0DF11D8081803352
:100EE00019F499EEF92208C01F5FF2FE05C003C095
:100EF0008F2D867809F01F5F0F2DF3FC14C0F0FED4
:100F00000FC01E1510F09D2C0BC09D2C9E0C911A2D
:100F10001E2D06C080E290E0B3010E9465051F5FB0
:100F20001E15C0F304C01E1510F4E11A01C0EE2412
:100F300004FF0FC080E390E0B3010E94650502FF4B
:100F40001DC001FD03C088E790E00EC088E590E079
:100F50000BC0802F867891F001FF02C08BE201C0A8
:100F600080E2F7FC8DE290E0B3010E94650506C0C7
:100F700080E390E0B3010E9465059A94D914C0F310
:100F8000DA94F101ED0DF11D808190E0B3010E9432
:100F90006505DD20A9F706C080E290E0B3010E945C
:100FA0006505EA94EE20C1F743CEF30166817781AF
:100FB000CB012B96E2E10C94B2320F931F93CF93A7
:100FC000DF93689F8001699F100D789F100D112499
:100FD000C8010E94E000EC01009729F060E070E099
:100FE000A8010E940408CE01DF91CF911F910F91BB
:100FF0000895FC010590615070400110D8F780956C
:1010000090958E0F9F1F0895DC0101C06D93415094
:101010005040E0F70895FC016150704001900110CC
:10102000D8F7809590958E0F9F1F0895DC01FC01E5
:10103000672F71917723E1F7329704C07C916D930C
:1010400070836291AE17BF07C8F30895FA01AA270B
:10105000283051F1203181F1E8946F936E7F6E5FFB
:101060007F4F8F4F9F4FAF4FB1E03ED0B4E03CD0A9
:10107000670F781F891F9A1FA11D680F791F8A1F8C
:10108000911DA11D6A0F711D811D911DA11D20D0F3
:1010900009F468943F912AE0269F11243019305DAD
:1010A0003193DEF6CF010895462F4770405D41939E
:1010B000B3E00FD0C9F7F6CF462F4F70405D4A33EB
:1010C00018F0495D31FD4052419302D0A9F7EACFB3
:1010D000B4E0A6959795879577956795BA95C9F7E2
:1010E00000976105710508959B01AC010A2E0694D5
:1010F0005795479537952795BA95C9F7620F731F8E
:10110000841F951FA01D08950F931F9307E912E0F8
:10111000C8010E94E022C8010E948F1C1F910F91FC
:1011200008958DEA94E040E855E260E070E00E94A6
:10113000E12A87E061E00E94832988E061E00E9463
:10114000832989E061E00E94832987E061E00E94B1
:10115000A92988E061E00E94A92989E061E00E9454
:10116000A9290895DC01862F90E0FC01E85CFE4F80
:10117000E491EC938C5D9E4FFC016491E62FF0E0CE
:10118000EE0FFF1FE65EFE4F8591949112969C93A1
:101190008E9311970895FC012781308541855285F2
:1011A000B901CA010895FC0123853485458556851A
:1011B000B901CA0108950F931F938C01862F90E007
:1011C000FC01E85CFE4FE491D801EC938C5D9E4FEE
:1011D000FC016491E62FF0E0EE0FFF1FE65EFE4F8C
:1011E0008591949112969C938E9311970E942F282B
:1011F000D80113966D937D938D939C93169780E001
:1012000090E0A7ECB2ECF80187839087A187B287C2
:1012100083879487A587B6871F910F9108954F9272
:101220005F927F928F929F92AF92BF92CF92DF9206
:10123000EF92FF920F931F93DF93CF93CDB7DEB75B
:10124000A9970FB6F894DEBF0FBECDBF5C01FC01BD
:101250007080018112810E942F289B01AC014E01F8
:101260000894811C911C2401CE018A96F2011192EE
:101270002F01E817F907D1F7F50183819481A58142
:10128000B68169017A01C81AD90AEA0AFB0AD701AC
:10129000C601805D9740A040B04018F427E030E0E0
:1012A0002EC1F5012383348345835683F894F801D6
:1012B0008181E72CE0948E2181837894FF24C72CD0
:1012C000DD2407C0F394FEE7FF1619F421E030E0B7
:1012D00016C182E090E00E94BC28F801808190E075
:1012E0008C219D21892B71F3F894F80182818E2144
:1012F000828381818729818378948CE494E00E94A1
:10130000BC28F894F80181818E2181837894FF2490
:1013100007C0F394FAE1FF1619F422E030E0EFC0C1
:1013200082E090E00E94BC28F801808190E08C214E
:101330009D21892B71F3FF2407C0F394F3E3FF167B
:1013400019F423E030E0DBC082E090E00E94BC288A
:10135000F801808190E08C219D21892B71F7FF2479
:1013600007C0F394F4E2FF1619F424E030E0C7C09C
:1013700082E090E00E94BC28F801808190E08C21FE
:101380009D21892B71F3FF2406C0F3E3FF1619F4A6
:1013900025E030E0B4C0F39482E090E00E94BC28E5
:1013A000F801808190E08C219D21892B71F7F40157
:1013B000F1924F01E415F50591F6EE24FF2420E0AB
:1013C00030E0DE01119660E170E041E050E02F5F17
:1013D0003F4FFD01E20FF31F80818C3058F0CB01AD
:1013E000821B930B6A0102C0CC0CDD1C8A95E2F7CC
:1013F000EC28FD282031310551F7FE01729600E0FE
:1014000010E02FE030E041E050E080818C3048F087
:10141000CA01022E02C0880F991F0A94E2F7082B16
:10142000192B2150304031966FEF2F3F360769F767
:10143000FE01B296DD2427E030E041E050E08081FB
:101440008C3040F0CA01022E02C0880F991F0A9406
:10145000E2F7D82A215030403196E415F50579F7A6
:10146000B7017F77882777FD8095982F0E94A32F5B
:1014700020E030E040E251E40E94082FF50167834C
:1014800070878187928717FF0DC01F77B801882763
:1014900077FD8095982F0E94A32F20E030E040E256
:1014A00051EC0BC0B801882777FD8095982F0E94DA
:1014B000A32F20E030E040E251E40E94082FF50124
:1014C00063877487858796874D2D50E02F2D3327AE
:1014D00027FD3A958E2D90E0820F911D800F911D72
:1014E000212F332727FD3A95820F911D90704817C1
:1014F000590719F026E030E002C020E030E0C901D1
:10150000A9960FB6F894DEBF0FBECDBFCF91DF9185
:101510001F910F91FF90EF90DF90CF90BF90AF9011
:101520009F908F907F905F904F900895449A459A36
:10153000E9EBF0E080818E7F808380818D7F8083E6
:1015400088E48093B80084E48093BC000895FC0193
:101550008091960190919801981B90939701882310
:1015600019F4109297010895815080939601E90F24
:10157000F11D828108950895EF92FF920F931F93BA
:101580000E942F287B018C0184E98093BC001BC042
:1015900021153105E1F00E942F286E197F09800B7B
:1015A000910B2091990130919A0140E050E062172F
:1015B00073078407950738F01092BC0084E4809389
:1015C000BC0081E009C02091990130919A0180917D
:1015D000BC0084FDDDCF80E01F910F91FF90EF9064
:1015E0000895CF92DF92EF92FF921F93162F0E94E1
:1015F0002F286B017C01112311F084EC01C084E8D9
:101600008093BC001BC021153105E1F00E942F28FA
:101610006C197D098E099F092091990130919A01D9
:1016200040E050E0621773078407950738F0109286
:10163000BC0084E48093BC0091E019C02091990122
:1016400030919A018091BC0087FFDDCF8091B90075
:10165000887F883349F49091B900987F1092BC003C
:1016600084E48093BC0003C09091B900987F892FD7
:101670001F91FF90EF90DF90CF900895EF92FF922F
:101680000F931F93CF93DF93EC016093BB000E94F5
:101690002F287B018C0184E88093BC001BC021159E
:1016A0003105E1F00E942F286E197F09800B910B04
:1016B0002091990130919A0140E050E06217730740
:1016C0008407950738F01092BC0084E48093BC0036
:1016D00011E020C02091990130919A018091BC00C5
:1016E00087FFDDCF8091B900887F883211F410E048
:1016F00011C01091B900187F8091B900887F8033A4
:1017000021F4CE010E94BC0A05C01092BC0084E402
:101710008093BC00812FDF91CF911F910F91FF909B
:10172000EF900895EF92FF920F931F93CF93DF9363
:10173000EC016093BB000E942F287B018C0184E8A0
:101740008093BC001BC021153105E1F00E942F28B9
:101750006E197F09800B910B2091990130919A01AC
:1017600040E050E0621773078407950738F0109245
:10177000BC0084E48093BC0011E01DC0209199015D
:1017800030919A018091BC0087FFDDCF8091B90034
:10179000887F883179F08091B900887F803499F40E
:1017A00009C08091B900887F8834B1F4CE010E94CD
:1017B000BC0A01C010E0812FDF91CF911F910F91E2
:1017C000FF90EF9008951091B900187F8091B900B3
:1017D000887F803231F7EACF1092BC0084E4809396
:1017E000BC00E9CFEF92FF920F931F930E942F2826
:1017F0007B018C0184EA8093BC001BC0211531055C
:10180000E1F00E942F286E197F09800B910B209127
:10181000990130919A0140E050E062177307840704
:10182000950738F01092BC0084E48093BC0091E0EE
:1018300021C02091990130919A018091BC0087FFCD
:10184000DDCF8091B900887F883099F08091B90010
:10185000887F8031A9F40DC09091B900987F1092D3
:10186000BC0084E48093BC0005C09091B900987FCF
:1018700001C090E0892F1F910F91FF90EF90089584
:101880008091B900887F883381F7E6CFEF92FF928D
:101890000F931F93CF93DF93EC01162F042FE22EAB
:1018A0001092960110929701222311F4EE24E394F2
:1018B000EA94E982E3941882CE010E94F20B8883B5
:1018C000882309F061C0110FCE01612F0E94920B95
:1018D0008883882329F0813009F056C082E054C003
:1018E000CE01602F0E943E0B8883882329F081302F
:1018F00009F04AC083E048C0CE010E94F20B888301
:10190000882329F0813009F03FC084E03DC01F5F8B
:10191000CE01612F0E94920B8883882319F48E01D7
:10192000FF2425C0813081F585E02EC08981F8161D
:1019300051F4CE0160E00E94F10A8883813019F1F0
:10194000883551F021C0CE0161E00E94F10A888300
:101950008130C9F08035C1F48091BB00F8018283E9
:10196000F394F0929601F09298010F5F1F4FFE14CE
:10197000E8F2CE010E94BC0A8883882329F08130D6
:1019800019F487E001C086E0DF91CF911F910F919C
:10199000FF90EF900895FF920F931F93CF93DF93E3
:1019A000EC01162F042FF22E18820E94F20B88836E
:1019B000882341F5110FCE01612F0E94920B88837D
:1019C000882321F08130F1F482E01CC0CE01602F29
:1019D0000E943E0B8883882339F4CE016F2D0E942C
:1019E0003E0B8883882319F0813061F40AC0CE0150
:1019F0000E94BC0A8883882329F0813019F487E08B
:101A000001C083E0DF91CF911F910F91FF90089566
:101A10000F931F93CF93DF93EC01162F042F18829F
:101A20000E94F20B8883882301F5110FCE01612FEC
:101A30000E94920B8883882321F08130B1F482E0E8
:101A400014C0CE01602F0E943E0B8883882321F0B2
:101A5000813059F483E009C0CE010E94BC0A88831A
:101A6000882319F0813009F487E0DF91CF911F912D
:101A70000F910895FB010680F781E02D80E004C0FE
:101A80008F5F0280F381E02D3097D1F70895FB013D
:101A90000680F781E02D04C041500280F381E02DE3
:101AA000309711F04423C1F7CF010895CF93DF930E
:101AB000EB01DA01EE81FF814115510591F030977C
:101AC00019F45F834E830DC0CF010280F381E02DB6
:101AD0003097D1F7FC01B383A28315969C938E9324
:101AE0001497DF91CF9108950F931F93CF93DF93B6
:101AF000FB018A01C681D78103C00A80DB81C02D2A
:101B0000209739F088819981B8010E942B04892B94
:101B1000A1F7CE01DF91CF911F910F910895EF9220
:101B2000FF920F931F93CF93DF937B018A01E9010B
:101B30002115310511F188819981009711F00E94DA
:101B40008A01C8010E94040488839983D7011696EC
:101B5000ED91FC911797309729F41796DC93CE936B
:101B600016970BC0CF010280F381E02D3097D1F79B
:101B7000FC01D383C2839D838C83DF91CF911F911E
:101B80000F91FF90EF900895EF92FF920F931F93A4
:101B9000CF93DF938C01EB0123C0FA80EB80888523
:101BA00087FD08C06E817F816115710519F0C8013C
:101BB0000E94C40D8885853031F489859A85009707
:101BC00011F00E948A0188819981009711F00E948A
:101BD0008A01CE010E948A018F2D9E2D9C01E90170
:101BE0002097D9F6DF91CF911F910F91FF90EF9041
:101BF00008950F931F93CF93DF938B01EA0182E245
:101C000090E0BA010E9465058F5F9F4F09F464C0A0
:101C10000115110509F050C054C0803240F08232E5
:101C200031F08C3521F0992787FD909534C08CE5F3
:101C300090E0BE010E9465058F5F9F4F09F44CC084
:101C4000F80180818C30C9F08D303CF4893051F13D
:101C50008A30B1F0883071F50DC0823241F08C3598
:101C600019F08D3039F515C08CE590E01DC082E289
:101C700090E008C082E690E00EC086E690E014C0D6
:101C80008EE690E0BE010E9465058F5F9F4F91F444
:101C900023C082E790E0BE010E9465058F5F9F4FE1
:101CA00049F41AC084E790E0BE010E9465058F5F89
:101CB0009F4F91F00F5F1F4FF8018081882309F03B
:101CC000ACCF82E290E0BE010E9465058F5F9F4F1E
:101CD00019F020E030E002C02FEF3FEFC901DF91A3
:101CE000CF911F910F910895CF93DF93EB01611571
:101CF000710559F0CE010E9406052FEF8F3F920724
:101D000021F081329105B4F306C02FEF3FEFC901F6
:101D1000DF91CF910895BE010E94E6058F5F9F4F2E
:101D2000A1F320E030E0F3CF6F927F928F929F92E9
:101D3000AF92BF92CF92DF92EF92FF920F931F93D9
:101D4000CF93DF93FB014A016115710509F4A5C02A
:101D5000A184B284C384D484C601B50120E030E0FC
:101D600040E050E00E94042F8823C4F400D000D04B
:101D7000ADB7BEB712969C928E92119781E091E01A
:101D800014969C938E9313970E944805D7FAD0948B
:101D9000D7F8D0940F900F900F900F90C601B50117
:101DA0000E94752F7B018C01EDB7FEB738970FB6F7
:101DB000F894FEBF0FBEEDBF3196ADB7BEB7129619
:101DC0009C928E9211978DEF90E093838283E482B0
:101DD000F582068317830E944805C801B7010E9457
:101DE000A12F9B01AC01C601B5010E949F2E2CEAD8
:101DF00035EC47EA56E30E94A02E7B018C01C5E03A
:101E0000D0E0EDB7FEB738960FB6F894FEBF0FBE20
:101E1000EDBF8AEF682E80E0782EC801B70120E080
:101E200030E040E251E40E9453305B016C010E94BB
:101E3000752F7B0100D000D000D0EDB7FEB73196F2
:101E4000ADB7BEB712969C928E9211977382628242
:101E5000758364830E94480500E010E0C801B70163
:101E60000E94A12F9B01AC01C601B5010E949F2ECB
:101E70007B018C01EDB7FEB736960FB6F894FEBF26
:101E80000FBEEDBF20E030E040E050E00E94042FA4
:101E9000882319F0219709F0C0CF80E090E0DF910E
:101EA000CF911F910F91FF90EF90DF90CF90BF9057
:101EB000AF909F908F907F906F900895CF93DF9316
:101EC000DB016115710519F420E030E01FC000D07E
:101ED00000D000D0EDB7FEB73196CDB7DEB75A834C
:101EE000498383E091E09383828319968D919C913D
:101EF0001A97958384830E9448059C018DB79EB7ED
:101F000006960FB6F8949EBF0FBE8DBFC901DF9134
:101F1000CF910895FB016115710509F44BC020852F
:101F20002330B1F124303CF4213049F1223064F403
:101F3000222399F03FC0253089F1253064F1263005
:101F400091F12730B9F532C000D000D0EDB7FEB71F
:101F50005283418385EF90E008C000D000D0EDB7F8
:101F6000FEB7528341838FEE90E0948383830E9477
:101F700048059C010F900F900F900F901DC000D04E
:101F800000D0EDB7FEB7528341838AEE90E0EDCFEB
:101F90000E945E0F0DC00E94940E0AC0618572857A
:101FA0000E94F90D05C00E942C1002C00E94DE0F95
:101FB0009C0102C020E030E0C9010895EF92FF9239
:101FC0000F931F93CF93DF937C01FB018A0161156F
:101FD0007105C1F1C681D7818BE790E020C068818F
:101FE0007981C701A8010E94F90D8F5F9F4F39F1D8
:101FF0008AE390E0B8010E9465058F5F9F4FF9F07A
:10200000C701BE01A8010E948A0F8F5F9F4FB9F0E0
:102010000A80DB81C02D209741F08CE290E0B8016E
:102020000E9465058F5F9F4F51F02097C1F68DE7A5
:1020300090E0B8010E9465058F5F9F4F19F42FEF64
:102040003FEF02C020E030E0C901DF91CF911F9146
:102050000F91FF90EF900895EF92FF920F931F93CF
:10206000CF93DF937C01FB018A016115710539F182
:10207000C681D7818BE590E00FC0C701BE01A801E2
:102080000E948A0F8F5F9F4FB9F00A80DB81C02DBD
:10209000209741F08CE290E0B8010E9465058F5FC7
:1020A0009F4F51F0209749F78DE590E0B8010E94CD
:1020B00065058F5F9F4F19F42FEF3FEF02C020E0BF
:1020C00030E0C901DF91CF911F910F91FF90EF9008
:1020D0000895EF92FF920F931F93CF93DF938C019C
:1020E0007B010E947015EC01009719F420E030E0AC
:1020F00009C0C801B701AE010E948A0FCE010E943B
:1021000059159C01C901DF91CF911F910F91FF904B
:10211000EF900895EF92FF920F931F93CF93DF9369
:102120007B018A01CA010E940605829709F04FC00F
:1021300085E0F70180870E942B16EC01009709F4D7
:1021400046C0C8010E940605FFEF8F3F9F0709F0B8
:1021500041C03AC08C35910569F5C8010E94060559
:102160002FEF8F3F920781F186369105E1F0873698
:1021700091054CF48C35910581F08236910589F0FA
:102180008297D9F40CC08237910589F08437910584
:1021900081F08E36910589F408C08CE50BC082E28F
:1021A00009C088E007C08CE005C08AE003C08DE06C
:1021B00001C089E0BE010E94C515C8010E94060544
:1021C000EFEF8F3F9E0731F4CE010E94E3152FEF12
:1021D0003FEF0FC08232910521F0803291050CF063
:1021E000B9CFCE010E94E815F7019287818720E0E0
:1021F00030E0C901DF91CF911F910F91FF90EF90D7
:1022000008952F923F924F925F926F92AF92BF923A
:10221000CF92DF92EF92FF920F931F93DF93CF93B2
:10222000CDB7DEB728970FB6F894DEBF0FBECDBF8F
:102230007A8369831A01CA010E9406052C012FEFD7
:102240008F3F920771F08D32910519F0AA24A39463
:102250000DC0C1010E9406052C014FEF8F3F94076E
:1022600019F42FEF3FEF16C1AA24AA94C201C09718
:102270000A9718F000E010E018C000E010E0C80174
:1022800073E0880F991F7A95E1F7000F111F800FF7
:10229000911F820100531040080F191FC1010E94B5
:1022A00006052C01C0970A9750F35EE245165104CB
:1022B000D1F085E648165104B1F095E44916510471
:1022C00091F08A2D992787FD9095FC010E9FC00102
:1022D0000F9F900D1E9F900D1124E981FA81928726
:1022E000818783E0D0C0B801882777FD8095982F3B
:1022F0000E94A32F7B018C01FEE24F16510419F0BE
:10230000CC24DD242DC0C1010E9406052C01CC2463
:10231000DD24C801B70120E030E040E251E40E9432
:1023200053307B018C0120ED3FEF420E531EB20172
:10233000882777FD8095982F0E94A32F9B01AC01E1
:10234000C801B7010E94A02E7B018C010894C1082E
:10235000D108C1010E9406052C01C0970A97C8F256
:1023600035E64316510449F045E44416510429F07A
:1023700018861F826624639437C0C1010E94060537
:102380002C018B32910529F4C1010E9406052C0114
:1023900004C08DE24816510419F06624639406C007
:1023A000C1010E9406052C0166246A9418861F82CA
:1023B00015C08F81988553E0880F991F5A95E1F7D2
:1023C000EF81F885EE0FFF1FE80FF91FE20FF31FF3
:1023D000F887EF83C1010E9406052C01920120536A
:1023E00030402A30310528F36A2D772767FD709534
:1023F000872F972F0E94A32FA80197010E94533087
:102400006B837C838D839E83B601882777FD8095BF
:10241000982F0E94A32F5B016C012F813885B90191
:10242000882777FD8095982F0E94A32F7B018C0130
:10243000662D772767FD7095872F972F0E94A32F12
:102440009B01AC01C801B7010E9453309B01AC0154
:10245000C601B5010E94A02E9B01AC0160E070E0B6
:1024600080E291E40E94B6309B01AC016B817C81DB
:102470008D819E810E945330E981FA816187728744
:102480008387948784E08087C201B1010E94E605BA
:1024900020E030E0C90128960FB6F894DEBF0FBEE9
:1024A000CDBFCF91DF911F910F91FF90EF90DF9003
:1024B000CF90BF90AF906F905F904F903F902F90D4
:1024C00008958DE090E00E94E000FC01009729F063
:1024D0008DE0DF011D928A95E9F7CF0108950E94F2
:1024E0006112FC01009711F087E08087CF01089509
:1024F0000E946112FC01009711F086E08087CF01F5
:1025000008950F931F93CF93DF938B010E94611265
:10251000EC01009739F085E08887C8010E94040427
:1025200089879A87CE01DF91CF911F910F910895EE
:10253000CF92DF92EF92FF920F931F938C017B015A
:102540006A01B9010E9481129C01C801B701A6016C
:102550000E948F0D1F910F91FF90EF90DF90CF9011
:102560000895EF92FF920F931F937A018B010E94BF
:102570006112FC01009731F084E08087E186F286E9
:1025800003871487CF011F910F91FF90EF9008955B
:10259000AF92BF92CF92DF92EF92FF920F931F9371
:1025A0007C016B015A01B901A8010E94B1129C0182
:1025B000C701B601A5010E948F0D1F910F91FF90D9
:1025C000EF90DF90CF90BF90AF900895CF93DF93BF
:1025D000EB010E946112FC01009721F083E08087EB
:1025E000D287C187CF01DF91CF910895CF92DF923B
:1025F000EF92FF920F931F938C017B016A01B90147
:102600000E94E6129C01C801B701A6010E948F0D2D
:102610001F910F91FF90EF90DF90CF9008956F92F0
:102620007F928F929F92BF92CF92DF92EF92FF9212
:102630000F931F93CF93DF937C014B018A013901E4
:10264000CA010E9406058B37910509F05DC087E03D
:10265000F4018087C701B8010E94740EC8010E946E
:1026600006058D37910509F452C0B8010E94E605B0
:10267000BB24BA94C7010E946112EC01009709F4CF
:1026800043C0BB2021F0F4019783868305C0F60187
:1026900093838283DD82CC82C701B8010E94740ECD
:1026A000C701BE01A8010E948A108F5F9F4F61F190
:1026B000C701B8010E94740E89859A859983888321
:1026C0001A861986C8010E940605CA97E9F4C7014F
:1026D000B8010E94740EC701BE01A80193010E94B7
:1026E00098138F5F9F4F81F0C701B8010E94740E4D
:1026F000C8010E940605BB246E018C32910509F4C5
:10270000B9CF8D37910519F02FEF3FEF02C020E0D0
:1027100030E0C901DF91CF911F910F91FF90EF90B1
:10272000DF90CF90BF909F908F907F906F90089593
:102730008F929F92AF92BF92CF92DF92EF92FF92D1
:102740000F931F93DF93CF93CDB7DEB729970FB6C3
:10275000F894DEBF0FBECDBF6C015B017A01490169
:102760004115510509F4ADC0BA010E94740E8F5F86
:102770009F4F09F4A6C0C7010E9406058C018FEF88
:102780000F3F180709F49DC0C801B7010E94E60574
:102790008F5F9F4F09F495C00232110531F4C601D5
:1027A000B501A7010E948A1020C00D32110521F049
:1027B000C801C0970A9730F4C601B501A7010E946D
:1027C000011113C00B35110539F4C601B501A7017C
:1027D00094010E94771409C00B37110541F4C6011A
:1027E000B501A70194010E940F139C016CC00E3625
:1027F000110501F519821A821B821C828E010F5F5E
:102800001F4FC80161E070E044E050E097010E9472
:102810009105049709F055C0C80160E071E044E0FB
:1028200050E00E944504009709F04BC082E0F5019A
:10283000808744C006361105F9F48E010B5F1F4FE7
:1028400085E0F80111928A95E9F7C80161E070E02E
:1028500045E050E097010E949105059791F5C80168
:1028600065E071E045E050E00E944504009749F5BD
:10287000F5011086118622C00437110511F5198261
:102880001A821B821C828E010F5F1F4FC80161E0FC
:1028900070E044E050E097010E949105049789F4AC
:1028A000C8016BE071E044E050E00E9445040097ED
:1028B00041F481E0F50180878FEF818720E030E0EF
:1028C00002C02FEF3FEFC90129960FB6F894DEBF83
:1028D0000FBECDBFCF91DF911F910F91FF90EF9071
:1028E000DF90CF90BF90AF909F908F9008956F92A0
:1028F0007F928F929F92BF92CF92DF92EF92FF9240
:102900000F931F93CF93DF936C014B01EA013901C1
:10291000CA010E9406058B35910509F03FC086E08B
:10292000F4018087C601BE010E94740ECE010E9490
:1029300006058D359105A9F1BE010E94E605BB246F
:10294000BA94C6010E9461128C01009739F1BB2034
:1029500021F0F4019783868306C0F7019383828375
:10296000FC01F582E482C601BE010E94740EC6011C
:10297000B801AE0193010E949813892B79F4C60126
:10298000BE010E94740ECE010E940605BB24780190
:102990008C329105B1F28D35910519F02FEF3FEF93
:1029A00002C020E030E0C901DF91CF911F910F916B
:1029B000FF90EF90DF90CF90BF909F908F907F908F
:1029C0006F900895CF92DF92EF92FF920F931F9333
:1029D000CF93DF937C018B016A0161157105B1F022
:1029E0000E946112EC01009799F0C701B8010E94A2
:1029F000740EC701BE01A80196010E9498138F5F53
:102A00009F4F31F4C701BE010E94C40DC0E0D0E069
:102A1000CE01DF91CF911F910F91FF90EF90DF904A
:102A2000CF900895EF92FF920F931F937C01CB01FB
:102A30000E949E158C01C701B80140E050E00E9441
:102A4000E214F82EE92EC8010E948B158F2D9E2DC1
:102A50001F910F91FF90EF900895FC01A485B5851B
:102A600012962D913C911397ED91FC911197E20FE5
:102A7000F31F8081882319F4EFEFFFEF0AC02F5F67
:102A80003F4F13963C932E931297E82FFF27E7FDB5
:102A9000F095CF010895FB01648575850E94C515E9
:102AA000882319F420E030E002C02FEF3FEFC90186
:102AB00008950F931F93CF93DF93EC018C859D8531
:102AC0000E94E8158C01009711F01D861C86CE012E
:102AD0000E948F04C801DF91CF911F910F9108953B
:102AE000CF93DF938BE495E160E070E00E94BA043D
:102AF000EC01009761F00E942B16009731F4CE0193
:102B00000E948F04C0E0D0E002C09D878C87CE0178
:102B1000DF91CF910895CF93DF93EC01009759F0A7
:102B20008C859D85009711F00E948A011D861C8668
:102B3000CE010E948F04DF91CF9108950F931F93D0
:102B4000CF93DF938C0180E090E06DE275E10E940D
:102B5000BA04EC01009799F084E090E00E94E00054
:102B6000FC01009739F011830083138212829D8744
:102B70008C8705C0CE010E948F04C0E0D0E0CE015A
:102B8000DF91CF911F910F910895482FDB0114968B
:102B90002D913C91159712968D919C911397281722
:102BA000390778F4ED91FC911197E20FF31F408300
:102BB00014968D919C911597019615969C938E93E2
:102BC000149780E00895009711F00E948A010895FB
:102BD0000F931F93CF93DF938C01DC0114962D91FB
:102BE0003C9115972115310541F0ED91FC91E20FD3
:102BF000F31F319780818823B1F0F801828193819E
:102C00002817390780F40190F081E02DE20FF31FBF
:102C10001082D80114968D919C9115970196159666
:102C20009C938E931497F801848195810E94E00013
:102C3000EC01009751F06CEC74E00E943E04D80166
:102C40001D921C92C8010E948A01CE01DF91CF9192
:102C50001F910F910895CF93DF9386E090E00E943B
:102C6000E000DC010097A9F0ECECF4E01196FC9395
:102C7000EE9380E091E0EF019C01199221503040E9
:102C8000E1F713969C938E93129715961C921E92C1
:102C90001497CD01DF91CF9108950F931F938C016D
:102CA0000E942F28605A75418F4F9F4FF801608313
:102CB0007183828393831F910F9108958EEB91E02E
:102CC0000E944D1686EC91E06EE00E94DB080895AC
:102CD0000F931F93CF93DF93EC010E942F2828813D
:102CE00039814A815B81621B730B840B950B6153A5
:102CF000754780409040C0F18EE192E00E946518D7
:102D00008EE192E068E470E042E050E00E946218D8
:102D10008EE192E00E94B617182F8EE192E00E9499
:102D2000B617312F20E090E0282B392B84E0359521
:102D300027958A95E1F7442737FD4095542FCA011E
:102D4000B9010E94A32F20E030E040E85DE30E943B
:102D500053308B01F82FE92FAC01CB01DA018C83C2
:102D60009D83AE83BF8304C00C811D81FE81EF81F2
:102D70004F2F5E2FB801CA01DF91CF911F910F91A4
:102D80000895CF93DF93613029F48EE090E06EE0F8
:102D900070E00DC0623029F48FE090E06FE070E0E9
:102DA00006C0633021F480E190E060E170E04730DC
:102DB000510501F1483051055CF445305105D1F021
:102DC000463051050CF058C0452B09F455C00FC0D2
:102DD0004930510509F44BC049305105C4F04A301F
:102DE000510509F449C04C30510509F449C0CFEFF1
:102DF000DFEF51C0862F0E94FD292FEF33E0829F25
:102E0000E001839FD00D929FD00D112444C086EC29
:102E100091E00E94B20886EC91E00E940F09909325
:102E2000D6018093D5010197069718F4C0E0D0E051
:102E300032C086EC91E00E94CB0820E030E040E216
:102E400051E40E9453300E94702FEB0186EC91E018
:102E50000E94D30820E030E040E251E40E94533069
:102E60000E94702F7093D8016093D70114C0C09155
:102E7000D701D091D8010FC00E940129EC010BC0ED
:102E80000E940129EC01181619062CF487E992E03A
:102E900067E00E947821CE01DF91CF910895CF9312
:102EA000DF93EB01442369F08DEA94E060E171E087
:102EB0000E94A22D8DEA94E0BE014AE050E00E94FB
:102EC000832DCE01835B9040439718F42AE030E0D5
:102ED00040C0CE018B5F9040439718F427E030E06C
:102EE00038C0CE0188549140439718F429EE33E05E
:102EF00030C0CE018E569140439718F426E030E062
:102F000028C0CE01805A9140439718F42BE030E05E
:102F100020C0CE0180509240439718F428E030E062
:102F200018C0CE0180539240439718F42CE030E053
:102F300010C0CE018F509340439718F425E030E045
:102F400008C0C35FD3401CF420E030E002C02FEF84
:102F50003FEFC901DF91CF9108952091FA0130E050
:102F60008091F901281B3109C90108954091F901A7
:102F70008091FA01481718F02FEF3FEF0AC0E42FB5
:102F8000F0E0E752FE4F8081282F30E04F5F409302
:102F9000F901C9010895E091F9018091FA01E8175A
:102FA00018F0EFEFFFEF06C0F0E0E752FE4F808130
:102FB000E82FF0E0CF0108950895109221021092B9
:102FC000200288EE93E0A0E0B0E08093220290938C
:102FD0002302A0932402B093250289E791E0909305
:102FE0001F0280931E020895CF92DF92EF92FF920C
:102FF0000F931F93CF93DF937C016B018A01809124
:103000001D028823A1F0C0E0D0E00DC0D701ED91F2
:10301000FC91D601AC0FBD1F0190F081E02DC701DE
:103020006C9109952196C017D10780F304C0CB019C
:10303000642F0E94A718C801DF91CF911F910F91B3
:10304000FF90EF90DF90CF900895DF93CF930F9292
:10305000CDB7DEB7FC01698380911D028823C9F0DA
:1030600080911C02803238F081E090E0938382836B
:1030700020E030E015C080911B02E82FF0E0E55021
:10308000FE4F998190838F5F80931B0280931C0277
:1030900005C0CE01019661E00E94A71821E030E052
:1030A000C9010F90CF91DF910895413208F040E2BD
:1030B000862F69ED71E00E9470181092F9018093DB
:1030C000FA0108950E94551808951092F90110927E
:1030D000FA0110921B0210921C020E943D1A0895E0
:1030E000982F413210F040E030C080912A028823AE
:1030F000E1F781E080932A028FEF8093950210928E
:1031000050024150409351024F5F990F916090934C
:103110002B0285EE8093BC0080912A028130E1F37E
:1031200080915002841710F44091500220E030E06A
:103130000AC0FB01E20FF31FD901A05DBD4F8C91C6
:1031400080832F5F3F4F2417A0F3842F0895482FCB
:10315000613210F081E0089580912A02843011F0EC
:1031600082E0089560937302A2E5B2E0842F9C018F
:10317000F90102C081918D938E2F841B8617D0F3A5
:1031800080E008951F920F920FB60F9211242F9393
:103190003F934F935F936F937F938F939F93AF93DF
:1031A000BF93EF93FF938091B90090E0887F907078
:1031B0008036910509F4DCC081369105CCF5883262
:1031C000910509F47BC089329105B4F480319105F1
:1031D00009F46FC0813191053CF4009709F431C1C5
:1031E000089709F039C165C08831910509F466C0B6
:1031F000809709F031C17DC08034910509F49FC0EA
:103200008134910544F48033910509F47DC0C89759
:1032100009F022C184C08035910509F484C0883545
:10322000910509F491C08834910509F015C198C041
:103230008839910509F4FDC089399105ECF4883786
:10324000910509F495C0893791054CF488369105AC
:1032500009F48EC08037910509F0FEC089C0883816
:10326000910509F4E6C08039910509F487C08038DA
:10327000910509F0F1C082C0803B910509F4B0C00E
:10328000813B91054CF4803A910509F489C0883A54
:10329000910509F0E1C0A4C0803C910509F4CDC0BE
:1032A000883C910509F4C9C0883B910509F0D4C058
:1032B000ACC080912B028093BB00B9C090915002AA
:1032C00080915102981768F490915002E92FF0E034
:1032D000E05DFD4F80818093BB009F5F9093500223
:1032E000A6C085ED8093BC008091BC0084FDFCCF1E
:1032F000B1C080E28093950285ED8093BC008091FF
:10330000BC0084FDFCCFA6C080E38093950285EDD0
:103310008093BC008091BC0084FDFCCF9BC088E3FF
:10332000809395028AC0809150029091BB00E82F53
:10333000F0E0E05DFD4F90838F5F809350029091AD
:1033400050028091510271C0809150029091BB0057
:10335000E82FF0E0E05DFD4F90838F5F8093500297
:1033600085ED8093BC008091BC0084FDFCCF72C0D1
:1033700083E080932A021092940259C080919402B3
:10338000803208F056C0809194029091BB00E82FE3
:10339000F0E0EC58FD4F90838F5F8093940247C01C
:1033A00080919402803230F4E0919402F0E0EC5885
:1033B000FD4F108285ED8093BC008091BC0084FDA0
:1033C000FCCF10922A0260919402E0912E02F091BB
:1033D0002F0284E792E070E00995109294022DC0CC
:1033E00084E080932A021092720210927302E0919C
:1033F0002C02F0912D02099580917302882329F403
:1034000081E0809373021092520290917202E92F30
:10341000F0E0EE5AFD4F80818093BB009F5F909358
:1034200072029091720280917302981710F485ECE9
:1034300001C085E88093BC000FC085EC8093BC0080
:1034400009C01092950285ED8093BC008091BC006C
:1034500084FDFCCF10922A02FF91EF91BF91AF91B2
:103460009F918F917F916F915F914F913F912F919C
:103470000F900FBE0F901F90189510922A0282E1B4
:1034800061E00E94A92983E161E00E94A929E9EB9A
:10349000F0E080818E7F808380818D7F808388E4CF
:1034A0008093B80085E48093BC000895362F242FC4
:1034B0008BE991E06DE1432F0E94CB0C0895EF92D0
:1034C000FF920F931F93CF93DF93162F7A01022F52
:1034D0008BE991E06DE1412F0E94080D8BE991E0AD
:1034E0006DE1412F202F0E94460CC0E0D0E010E09B
:1034F00009C08BE991E00E94A70AF701EC0FFD1FBC
:1035000080832196C017D107A4F3DF91CF911F913B
:103510000F91FF90EF900895AF92BF92CF92DF92FC
:10352000EF92FF920F93DF93CF9300D000D000D0A3
:10353000CDB7DEB77B016A015901AE014F5F5F4F26
:103540000023C1F161E026E00E945F1A2A812295E2
:1035500026952695237030E0898190E0880F991F89
:10356000880F991F282B392BF701318320832C8159
:10357000229526952695237030E08B8190E0880F68
:10358000991F880F991F282B392BF601318320832F
:103590002E81229526952695237030E08D8190E02E
:1035A000880F991F880F991F282B392BF50131831C
:1035B00020831FC061E023E00E945F1A898190E0B0
:1035C000880F991F880F991FF701918380838A8143
:1035D00090E0880F991F880F991FF60191838083CF
:1035E0008B8190E0880F991F880F991FF5019183B7
:1035F0008083F70180819181F2E080309F072CF079
:1036000080509440F70191838083F60180819181FD
:10361000F2E080309F072CF080509440F6019183B7
:103620008083F50180819181F2E080309F072CF04A
:1036300080509440F5019183808326960FB6F894CC
:10364000DEBF0FBECDBFCF91DF910F91FF90EF9006
:10365000DF90CF90BF90AF9008950F931F93DF93AB
:10366000CF930F92CDB7DEB78C016AE2AE014F5F08
:103670005F4F21E00E945F1A49814D7FC8016AE2D5
:103680000E94561A0F90CF91DF911F910F910895CC
:103690000F931F93DF93CF930F92CDB7DEB78C01BB
:1036A0006AE2AE014F5F5F4F21E00E945F1A4981DD
:1036B0004160C8016AE20E94561A0F90CF91DF91D3
:1036C0001F910F9108950F931F93DF93CF930F9244
:1036D000CDB7DEB78C016AE2AE014F5F5F4F21E0EC
:1036E0000E945F1A49814E7FC8016AE20E94561A01
:1036F0000F90CF91DF911F910F9108950F931F931A
:10370000DF93CF930F92CDB7DEB78C018BE991E0B9
:103710000E94960AC8010E94631BC8016EE040E047
:103720000E94561AC8010E942D1BC8010E94481B06
:10373000C8016DE0AE014F5F5F4F21E00E945F1A4C
:103740000F90CF91DF911F910F91089586E992E03C
:103750000E947E1B089585E793E00E941823089538
:10376000AF92BF92CF92DF92EF92FF920F931F938F
:10377000CF93DF9308E912E08DEB91E0B8010E944E
:1037800012155C0180E8F80111928A95E9F7A114FD
:10379000B10411F480E08DC08DEB91E0B5010E9481
:1037A0003A0D882309F47CC08DEB91E0B5014FE11F
:1037B00051E00E94740DBC01009709F471C08DEBBB
:1037C00091E040E00E94470DEC01009709F468C0C9
:1037D0008DEB91E0BE0146E251E00E94740D8C0138
:1037E0008DEB91E0BE0148E251E00E94740D7C0136
:1037F0008DEB91E0BE014AE251E00E94740D6C0134
:103800008DEB91E0BE014CE251E00E94740DEC01A1
:103810000115110509F444C0F8018085853009F0CF
:103820003FC06185728588E193E044E250E00E94E8
:103830005304E114F104A1F1F7018085833081F58F
:103840008185928590933D0380933C03C114D104FC
:1038500039F1F6018085833019F581859285909341
:103860003F0380933E032097D9F08885853061F42B
:1038700069857A8580E493E042E350E00E94530436
:1038800081E0809374030AC0833051F489859A855E
:1038900090937303809372031092740301E001C04C
:1038A00000E08DEB91E0B5010E94C40D802F011165
:1038B00081E0DF91CF911F910F91FF90EF90DF900A
:1038C000CF90BF90AF900895CF93DF938DEA94E0AF
:1038D0000E94672B892B19F4CFEFDFEF1CC0C0E0EB
:1038E000D0E012C0C038D105B1F08DEA94E00E945A
:1038F000982BFE01E856FD4F8083219662E070E030
:1039000080E090E00E9463288DEA94E00E94672B9B
:10391000181619063CF3CE01DF91CF910895CF928E
:10392000DF92EF92FF920F931F93CF93DF93EC01FF
:103930000E94641C181619060CF0D6C0CE010E9415
:10394000B01B882309F4D0C08DEA94E00E94982C23
:103950008DEA94E06FE271E00E94A22D8DEA94E07E
:1039600068E173E00E94A22D8DEA94E065E371E0C6
:103970000E94A22D8DEA94E067E371E00E94A22DDF
:1039800060913C0370913D038DEA94E04AE050E081
:103990000E94702D8DEA94E065E371E00E94A22DF3
:1039A0008DEA94E06CE371E00E94A22D60913E03E9
:1039B00070913F038DEA94E04AE050E00E94702D40
:1039C0008DEA94E065E371E00E94A22D8DEA94E017
:1039D00061E471E00E94A22D80917403882339F084
:1039E0008DEA94E060E473E00E94A52D0AC0609126
:1039F0007203709173038DEA94E04AE050E00E94F4
:103A0000832D8DEA94E00E94982C80913C03909144
:103A10003D03892B09F068C080913E0390913F03DC
:103A200023E0883E920729F0895E934009F05CC04C
:103A30002BC090E4C92E93E0D92EC60160E070E05F
:103A400040E150E00E94B7027B018C0182E3F60165
:103A500011928A95E9F78FEFC82ED12CB601601B21
:103A6000710987E00E942329CF18D10888E0B601A8
:103A70000E942329E094F094FFEFEF22FF2489E0D5
:103A8000B7010E94232930C088E193E00E94E60339
:103A9000823049F0833061F0813081F485E793E032
:103AA0006EE070E009C085E793E06FE070E004C06D
:103AB00085E793E060E170E00E944F2785E793E09F
:103AC0006EE571E00E94382385E793E06AE070E0DC
:103AD0000E943C2385E793E060E473E00E940B279B
:103AE00085E793E00E943F27DF91CF911F910F91CF
:103AF000FF90EF90DF90CF9008959F92AF92BF928A
:103B0000CF92DF92EF92FF920F931F93DF93CF93A9
:103B1000CDB7DEB72F970FB6F894DEBF0FBECDBF7F
:103B20005C01962E8DEB91E00E946F126C01009764
:103B300039F48DEA94E067E471E00E94A52D98C005
:103B40008DEA94E00E94672B181619061CF4C50133
:103B50000E948F1C8DEB91E00E9478128C018DEBFE
:103B600091E0B6014FE151E098010E948F0D8DEB7D
:103B700091E00E946F127C018DEB91E0B801A701EA
:103B80000E94560D00D000D000D0EDB7FEB73196A0
:103B90008E010F5F1F4FADB7BEB712961C930E93E9
:103BA000119782E591E093838283948215820E942B
:103BB000C2058DB79EB706960FB6F8949EBF0FBE8E
:103BC0008DBF8DEB91E0B70146E251E098010E9474
:103BD00098128DEB91E0B70148E251E020E030E02F
:103BE0000E94F6128DEB91E0B7014AE251E029E024
:103BF00030E00E94F6128EEB91E0692D49E050E032
:103C00000E94C116AA2797FDA095BA2FBC01CD012D
:103C10000E94A32F20E030E040E251E40E94082FF0
:103C20008B019C018DEB91E0B7014CE251E00E94C9
:103C3000C8128DEA94E00E94672B181619061CF42E
:103C4000C5010E948F1C8DEB91E0B6010E946910A6
:103C50008C01009729F08DEA94E0B8010E94A52D0F
:103C60008DEB91E0B6010E94C40DC8010E948A014B
:103C70002F960FB6F894DEBF0FBECDBFCF91DF9168
:103C80001F910F91FF90EF90DF90CF90BF90AF907A
:103C90009F900895AF92BF92CF92DF92EF92FF92E2
:103CA0000F931F93DF93CF93CDB7DEB765970FB612
:103CB000F894DEBF0FBECDBF5C018DEB91E00E949A
:103CC0006F126C01009739F48DEA94E067E471E0BB
:103CD0000E94A52DA6C08DEA94E00E94672B1816BD
:103CE00019061CF4C5010E948F1C8DEB91E00E9407
:103CF00078128C018DEB91E0B6014FE151E0980113
:103D00000E948F0D8DEB91E00E946F127C018DEB74
:103D100091E0B801A7010E94560D8DEB91E0B7012B
:103D200046E251E025E531E00E9498128DEB91E0EA
:103D3000B70148E251E020E030E00E94F6128DEB3E
:103D400091E0B7014AE251E022E030E00E94F61231
:103D50001A8219821C821B821E821D8286E992E0D1
:103D6000BE016F5F7F4FAE014D5F5F4F9E012B5FC6
:103D70003F4F01E00E948C1A8DB79EB70A970FB68D
:103D8000F8949EBF0FBE8DBFEDB7FEB731968E0182
:103D9000095F1F4FADB7BEB712961C930E931197D4
:103DA00087E591E09383828389819A8195838483D7
:103DB0008B819C81978386838D819E81918780876B
:103DC0000E94C2058DB79EB70A960FB6F8949EBFA3
:103DD0000FBE8DBF8DEB91E0B7014CE251E0980131
:103DE0000E9498128DEA94E00E94672B181619061B
:103DF0001CF4C5010E948F1C8DEB91E0B6010E945E
:103E000069108C01009729F08DEA94E0B8010E94B6
:103E1000A52D8DEB91E0B6010E94C40DC8010E9452
:103E20008A0165960FB6F894DEBF0FBECDBFCF9165
:103E3000DF911F910F91FF90EF90DF90CF90BF9097
:103E4000AF900895CF92DF92EF92FF920F931F935E
:103E5000CF93DF936C018DEB91E00E946F12EC0128
:103E6000009739F48DEA94E067E471E00E94A52D93
:103E700073C08DEA94E00E94672B181619061CF493
:103E8000C6010E948F1C8DEB91E00E9478128C017C
:103E90008DEB91E0BE014FE151E098010E948F0D42
:103EA0008DEA94E00E94672B181619061CF4C601CF
:103EB0000E948F1C8DEB91E00E946F127C018DEBB4
:103EC00091E0B801A7010E94560D8DEB91E0B7017A
:103ED00046E251E025E531E00E9498128DEB91E039
:103EE000B70148E251E020E030E00E94F6128DEB8D
:103EF00091E0B7014AE251E021E030E00E94F61281
:103F00008EEB91E00E9468168B019C018DEB91E095
:103F1000B7014CE251E00E94C8128DEA94E00E9481
:103F2000672B181619061CF4C6010E948F1C8DEB16
:103F300091E0BE010E9469108C01009729F08DEA82
:103F400094E0B8010E94A52D8DEB91E0BE010E9486
:103F5000C40DC8010E948A01DF91CF911F910F917A
:103F6000FF90EF90DF90CF9008950F931F93182F3D
:103F70000E9401296AE070E080E090E00E946328DE
:103F8000812F0E940129182F092F64E170E080E041
:103F900090E00E946328812F902F1F910F91089528
:103FA0008F929F92BF92CF92DF92EF92FF920F93E8
:103FB0001F93CF93DF934C01EB0118828DEA94E0BD
:103FC0000E94672B181619061CF4C4010E948F1C4E
:103FD00085E190E00E94B51FBC018EEB91E040E0CE
:103FE0000E944F177C0188E0E816F10429F483E071
:103FF0008883BB24B39403C0F7FC0EC0BB248DEBB5
:1040000091E00E946F126C01009741F48DEA94E0F8
:1040100067E471E00E94A52DBB2489C08DEB91E07F
:104020000E9478128C018DEB91E0B6014FE151E0D6
:1040300098010E948F0D8DEB91E00E946F12EC01B0
:104040008DEB91E0B801AE010E94560D8DEB91E031
:10405000BE0146E251E023E631E00E9498128DEB6A
:1040600091E0BE0148E251E020E030E00E94F6120B
:104070008DEB91E0BE014AE251E097010E94F612F9
:10408000E114F10429F485E190E00E94B51F28C0F5
:10409000C70108970297F0F48EEB91E063E0A70167
:1040A0000E94C116AA2797FDA095BA2FBC01CD0189
:1040B0000E94A32F20E030E040E251E40E94082F4C
:1040C0008B019C018DEB91E0BE014CE251E00E941E
:1040D000C8120EC08EEB91E063E0A7010E94C116EA
:1040E0009C018DEB91E0BE014CE251E00E94F61282
:1040F0008DEA94E00E94672B181619061CF4C4017F
:104100000E948F1C8DEB91E0B6010E9469108C011A
:10411000009729F08DEA94E0B8010E94A52D8DEB5F
:1041200091E0B6010E94C40DC8010E948A018B2D46
:10413000DF91CF911F910F91FF90EF90DF90CF9083
:10414000BF909F908F9008958F929F92BF92CF9231
:10415000DF92EF92FF920F931F93CF93DF934C0167
:10416000EB0118828DEA94E00E94672B181619065D
:104170001CF4C4010E948F1C84E190E00E94B51FD2
:10418000BC018EEB91E040E00E944F177C0188E07B
:10419000E816F10429F482E08883BB24B39403C0B9
:1041A000F7FC0EC0BB248DEB91E00E946F126C01F6
:1041B000009741F48DEA94E067E471E00E94A52D38
:1041C000BB2489C08DEB91E00E9478128C018DEBAD
:1041D00091E0B6014FE151E098010E948F0D8DEB07
:1041E00091E00E946F12EC018DEB91E0B801AE01FD
:1041F0000E94560D8DEB91E0BE0146E251E025E6AE
:1042000031E00E9498128DEB91E0BE0148E251E04E
:1042100020E030E00E94F6128DEB91E0BE014AE210
:1042200051E097010E94F612E114F10429F484E1AF
:1042300090E00E94B51F28C0C70108970297F0F4CC
:104240008EEB91E062E0A7010E94C116AA2797FDBC
:10425000A095BA2FBC01CD010E94A32F20E030E031
:1042600040E251E40E94082F8B019C018DEB91E00C
:10427000BE014CE251E00E94C8120EC08EEB91E0EC
:1042800062E0A7010E94C1169C018DEB91E0BE0186
:104290004CE251E00E94F6128DEA94E00E94672BF6
:1042A000181619061CF4C4010E948F1C8DEB91E0B6
:1042B000B6010E9469108C01009729F08DEA94E004
:1042C000B8010E94A52D8DEB91E0B6010E94C40DAE
:1042D000C8010E948A018B2DDF91CF911F910F9110
:1042E000FF90EF90DF90CF90BF909F908F900895B8
:1042F000FF920F931F93162F05B1FBB087E061E08B
:104300000E94A92988E061E00E94A92989E061E072
:104310000E94A929812F60E00E94A92960E570E030
:1043200080E090E00E94632805B9FBB81F910F91CF
:10433000FF9008957F928F929F92AF92BF92CF92FB
:10434000DF92EF92FF920F931F93DF93CF93CDB73E
:10435000DEB727970FB6F894DEBF0FBECDBF4C0176
:104360008B01FB0110828DEA94E00E94672B1816E6
:1043700019061CF4C4010E948F1C81E190E00E9488
:10438000B51FBC018EEB91E040E00E944F177C010D
:104390008B30910539F485E793E061E070E00E948D
:1043A0006F2610C085E793E00E94462688E0E81655
:1043B000F10431F481E0F80180837724739403C021
:1043C000F7FC0EC077248DEB91E00E946F125C0128
:1043D000009741F48DEA94E067E471E00E94A52D16
:1043E0007724D9C08DEB91E00E9478128C018DEB7F
:1043F00091E0B5014FE151E098010E948F0D8DEBE6
:1044000091E00E946F126C018DEB91E0B801A60162
:104410000E94560D8DEB91E0B60146E251E027E691
:1044200031E00E9498128DEB91E0B60148E251E034
:1044300020E030E00E94F6128DEB91E0B6014AE2F6
:1044400051E097010E94F612E114F10429F481E190
:1044500090E00E94B51F78C0C70108970297F0F45A
:104460008EEB91E061E0A7010E94C116AA2797FD9B
:10447000A095BA2FBC01CD010E94A32F20E030E00F
:1044800040E251E40E94082F8B019C018DEB91E0EA
:10449000B6014CE251E00E94C8125EC0FBE0EF168C
:1044A000F10409F04BC085E793E00E944023882384
:1044B000D9F185E793E00E945923672B51F48DEBE6
:1044C00091E0B6014CE251E025E531E00E949812FE
:1044D00026C0C40168E00E94782185E793E00E942D
:1044E0005923AB01BC018E010F5F1F4FC80122E0B1
:1044F0000E94672EC80160E473E042E350E020E0D0
:1045000030E00E94B82D8DEB91E0B6014CE251E015
:1045100020E433E00E949812C8010E94992E85E79A
:1045200093E00E94502318C08DEB91E0B6014CE25D
:1045300051E029E631E00E9498120EC08EEB91E026
:1045400061E0A7010E94C1169C018DEB91E0B601CC
:104550004CE251E00E94F6128DEA94E00E94672B33
:10456000181619061CF4C4010E948F1C8DEB91E0F3
:10457000B5010E9469108C01009729F08DEA94E042
:10458000B8010E94A52D8DEB91E0B5010E94C40DEC
:10459000C8010E948A01872D27960FB6F894DEBFC6
:1045A0000FBECDBFCF91DF911F910F91FF90EF9084
:1045B000DF90CF90BF90AF909F908F907F900895A5
:1045C0000F931F93DF93CF930F92CDB7DEB78C017C
:1045D00019820E94221FC8010E944A1EC801BE0102
:1045E0006F5F7F4F0E949A21882321F0C801698163
:1045F0000E947D1DC801BE016F5F7F4F0E94A420F5
:10460000882321F0C80169810E947D1DC801BE0177
:104610006F5F7F4F0E94D01F882321F0C8016981FE
:104620000E947D1D0F90CF91DF911F910F910895F2
:10463000FC018FEF9FEF918380839383828310929D
:104640007E0310927F0310928003109281038AE010
:1046500090E0978386838CE390E09093730180933E
:10466000720181E080878EE591E0958384830895CF
:10467000FC01758364830895FC0177836683089544
:1046800020E080917E0390917F03A0918003B09100
:1046900081030097A105B10509F021E0822F08955B
:1046A00010927E0310927F03109280031092810378
:1046B000089560917E0370917F03809180039091B3
:1046C000810308952F923F924F925F926F927F9253
:1046D0008F929F92AF92BF92CF92DF92EF92FF9212
:1046E0000F931F93DF93CF93CDB7DEB762970FB6CB
:1046F000F894DEBF0FBECDBF3C018091880390913E
:1047000089036FE170E00E943C324B017B0100E0C5
:1047100010E02091720130917301442737FD4095DC
:10472000542FC801B7010E941D320E94A12F2AE018
:1047300037ED43E25CE30E9453300E94752FA801DD
:104740009701220F331F441F551F2E0D3F1D401F81
:10475000511F59016A01A61AB70AC80AD90AAD82BF
:10476000BE82CF82D8865B016C01A20EB31EC41E2E
:10477000D51EA982BA82CB82DC82AA24BB24650121
:1047800021E030E03A87298717012801261A370AE5
:10479000480A590AA8019701260F371F481F591FB9
:1047A0002F87388B498B5A8B7AC0E985FA85EE0FB3
:1047B000FF1FE857FC4F808191819C0140E050E051
:1047C000221633064406550658F58F859889A9891F
:1047D000BA89281739074A075B0710F5E985FA8572
:1047E000EE0FFF1FE657FC4F0190F081E02D7F0197
:1047F00000E010E0EB86FC860D871E878D819E8190
:10480000AF81B8858E159F05A007B10748F489814F
:104810009A81AB81BC81E816F9060A071B0778F17B
:10482000ED80FE800F811885E216F3060407150758
:1048300058F589819A81AB81BC81281739074A07CD
:104840005B0710F5E985FA85EE0FFF1FE657FC4F71
:1048500080819181A0E0B0E0281639064A065B0607
:1048600098F4EF84F88809891A898E159F05A007A6
:10487000B10750F40894A11CB11CC11CD11CAA0C96
:10488000BB1CCC1CDD1C05C07A866986AA24BB240F
:10489000650109851A850E5F1F4F1A8709872985CB
:1048A0003A852615370508F480CFA601950156955F
:1048B00047953795279587E068167104C0F02093D7
:1048C0007E0330937F03409380035093810376945B
:1048D0006794709283036092820390928503809222
:1048E000840381E090E0909387038093860380E0C7
:1048F000211531054105510509F081E062960FB699
:10490000F894DEBF0FBECDBFCF91DF911F910F9105
:10491000FF90EF90DF90CF90BF90AF909F908F90DF
:104920007F906F905F904F903F902F9008952F92BF
:104930003F924F925F926F927F928F929F92AF922F
:10494000BF92CF92DF92EF92FF920F931F93DF936C
:10495000CF93CDB7DEB762970FB6F894DEBF0FBE28
:10496000CDBF3C0180918803909189036AE070E09B
:104970000E943C324B017B0100E010E0209172016B
:1049800030917301442737FD4095542FC801B7017A
:104990000E941D320E94A12F2AE037ED43E25CE322
:1049A0000E9453300E94752FA8019701220F331FD8
:1049B000441F551F59016A01A61AB70AC80AD90A25
:1049C000AD82BE82CF82D8865B016C01A20EB31E7F
:1049D000C41ED51EA982BA82CB82DC8221E030E0DF
:1049E0003A872987AA24BB24650117012801261AC2
:1049F000370A480A590AA8019701260F371F481F8E
:104A0000591F2F87388B498B5A8B7AC0E985FA85D5
:104A1000EE0FFF1FE857FC4F808191819C0140E021
:104A200050E0221633064406550658F58F859889BE
:104A3000A989BA89281739074A075B0710F5E9855C
:104A4000FA85EE0FFF1FE657FC4F0190F081E02D35
:104A50007F0100E010E0EB86FC860D871E878D81CC
:104A60009E81AF81B8858E159F05A007B10748F4D8
:104A700089819A81AB81BC81E816F9060A071B0778
:104A800078F1ED80FE800F811885E216F3060407A9
:104A9000150758F589819A81AB81BC8128173907A0
:104AA0004A075B0710F5E985FA85EE0FFF1FE65709
:104AB000FC4F80819181A0E0B0E0281639064A06BB
:104AC0005B0698F4EF84F88809891A898E159F058A
:104AD000A007B10750F40894A11CB11CC11CD11C43
:104AE000AA0CBB1CCC1CDD1C05C07A866986AA24D6
:104AF000BB24650109851A850E5F1F4F1A87098738
:104B000029853A852615370508F480CFA601950139
:104B1000569547953795279587E068167104C0F03C
:104B200020937E0330937F0340938003509381034F
:104B300076946794709283036092820390928503C7
:104B40008092840382E090E09093870380938603B1
:104B500080E0211531054105510509F081E062969B
:104B60000FB6F894DEBF0FBECDBFCF91DF911F917E
:104B70000F91FF90EF90DF90CF90BF90AF909F90FC
:104B80008F907F906F905F904F903F902F900895FF
:104B9000CF92DF92EF92FF920F931F93CF93DF9309
:104BA0000E943D286B017C018091100490911104BA
:104BB0008601081B190B109317040093160483E158
:104BC0000938180798F12091880330918903C901A9
:104BD000885C90408017910728F528533F4F0217B3
:104BE000130700F580910E0490910F0401969093A5
:104BF0000F0480930E04C0911404D09115042197E2
:104C0000D0931504C0931404029761F4CE010E945E
:104C10006223882319F4CE010E94972410920F0476
:104C200010920E0410921504109214048091140432
:104C3000909115048334910540F010921504109260
:104C4000140410920F0410920E0480911404909199
:104C50001504FC01EE0FFF1FE857FC4F1183008382
:104C600001969093150480931404C0921004D0927E
:104C70001104E0921204F0921304DF91CF911F917E
:104C80000F91FF90EF90DF90CF9008950F931F93B7
:104C90008C01FC0180810E947A278FEF9FEFF80141
:104CA000918380831F910F910895FC0180819181F0
:104CB0002FEF8F3F920791F010927E0310927F03A7
:104CC000109280031092810310928303109282034A
:104CD00068EC75E241E050E00E9457270895FC011E
:104CE000808191818617970729F071836083CF01B6
:104CF0000E9455260895AF92BF92DF92EF92FF92E5
:104D00000F931F93CF93DF93EC017B015A0108812E
:104D100019818A819B818F5F9F4F89F13FEF0F3F00
:104D2000130711F4DD2405C0CE010E944626DD24C0
:104D3000D3948A8161E00E94A9298C819D819C0184
:104D4000E29EC001E39E900DF29E900D11240E9400
:104D5000BC288A8160E00E94A9298C819D819C01E8
:104D6000A29EC001A39E900DB29E900D11240E94A0
:104D7000BC28DD2021F0CE01B8010E946F26DF9112
:104D8000CF911F910F91FF90EF90DF90BF90AF9068
:104D90000895FC018085813041F4CF0161E070E02D
:104DA0004FE150E00E947B260895823039F4CF0114
:104DB00061E070E04AE050E00E947B260895FC012B
:104DC0008085813041F4CF0163E070E041E050E044
:104DD0000E947B260895823039F4CF0162E070E0B2
:104DE00041E050E00E947B260895FC0180858130DF
:104DF00041F4CF0161E070E043E050E00E947B2687
:104E00000895823039F4CF0161E070E042E050E073
:104E10000E947B260895CF92DF92EF92FF920F932C
:104E20001F93CF93DF938C016B01EE24FF2416C0F8
:104E3000803319F0813341F404C0C8010E94F52683
:104E400003C0C8010E94DF2621968881882381F74C
:104E5000C8010E94C9260894E11CF11CF801868152
:104E60009781E816F90614F4E601EFCFDF91CF91B0
:104E70001F910F91FF90EF90DF90CF9008950F93C7
:104E80001F938C01FC01828160E00E9483298FEFD7
:104E90009FEFF801938382831F910F910895FC0186
:104EA000862F6283738361E00E9483290895823094
:104EB00000F5E82FF0E0EE0FFF1FE85EFB4F718377
:104EC0006083882319F08130A1F408C080916900C3
:104ED0008C7F842B80936900E89A08958091690003
:104EE000440F551F440F551F837F842B8093690007
:104EF000E99A0895823080F4882319F0813021F4F2
:104F000002C0E89801C0E998E82FF0E0EE0FFF1F1B
:104F1000E85EFB4F1182108208951F920F920FB628
:104F20000F9211242F933F934F935F936F937F932F
:104F30008F939F93AF93BF93EF93FF938091180448
:104F400090911904892B29F0E0911804F09119042B
:104F50000995FF91EF91BF91AF919F918F917F91B3
:104F60006F915F914F913F912F910F900FBE0F90D6
:104F70001F9018951F920F920FB60F9211242F9326
:104F80003F934F935F936F937F938F939F93AF93D1
:104F9000BF93EF93FF9380911A0490911B04892B88
:104FA00029F0E0911A04F0911B040995FF91EF910B
:104FB000BF91AF919F918F917F916F915F914F9131
:104FC0003F912F910F900FBE0F901F9018951F9239
:104FD0000F920FB60F9211242F933F938F939F93AD
:104FE000AF93BF938091200490912104A09122045B
:104FF000B0912304309124040196A11DB11D232FEB
:105000002D5F2D3720F02D570196A11DB11D209346
:1050100024048093200490932104A0932204B0934D
:10502000230480911C0490911D04A0911E04B09152
:105030001F040196A11DB11D80931C0490931D04B3
:10504000A0931E04B0931F04BF91AF919F918F91C5
:105050003F912F910F900FBE0F901F9018958FB713
:10506000F894209120043091210440912204509121
:1050700023048FBFB901CA0108959FB7F894209106
:105080001C0430911D0440911E0450911F0486B5EC
:10509000A89B06C08F3F21F02F5F3F4F4F4F5F4FC0
:1050A0009FBF542F432F322F2227280F311D411D20
:1050B000511D82E0220F331F441F551F8A95D1F7DF
:1050C000B901CA0108959B01AC017FB7F8948091A2
:1050D0001C0490911D04A0911E04B0911F0466B59C
:1050E000A89B05C06F3F19F00196A11DB11D7FBFA0
:1050F000BA2FA92F982F8827860F911DA11DB11DAA
:1051000062E0880F991FAA1FBB1F6A95D1F7BC01E7
:105110002DC0FFB7F89480911C0490911D04A091BC
:105120001E04B0911F04E6B5A89B05C0EF3F19F01F
:105130000196A11DB11DFFBFBA2FA92F982F882757
:105140008E0F911DA11DB11DE2E0880F991FAA1FAE
:10515000BB1FEA95D1F7861B970B885E9340C8F278
:10516000215030404040504068517C4F211531055E
:105170004105510571F60895019739F0880F991F7F
:10518000880F991F02970197F1F70895789484B5D5
:10519000826084BD84B5816084BD85B5826085BD33
:1051A00085B5816085BDEEE6F0E080818160808319
:1051B000E1E8F0E0108280818260808380818160FC
:1051C0008083E0E8F0E0808181608083E1EBF0E0C3
:1051D000808184608083E0EBF0E080818160808367
:1051E000EAE7F0E080818460808380818260808350
:1051F0008081816080838081806880831092C1007B
:105200000895982F8E3008F09E5097708091740109
:105210008295880F880F807C892B80937C008091F9
:105220007A00806480937A0080917A0086FDFCCFBA
:105230002091780040917900942F80E030E0282B75
:10524000392BC90108951F93CF93DF93182FEB01DA
:1052500061E00E948329209709F44AC0CF3FD1051D
:1052600009F449C0E12FF0E0E45BFE4F8491833004
:10527000C1F0843028F4813051F08230B1F50CC097
:10528000863019F1873049F1843079F514C084B53E
:10529000806884BDC7BD33C084B5806284BDC8BD8D
:1052A0002EC080918000806880938000D093890018
:1052B000C093880024C08091800080628093800029
:1052C000D0938B00C0938A001AC08091B000806890
:1052D0008093B000C093B30012C08091B000806290
:1052E0008093B000C093B4000AC0C038D1051CF44C
:1052F000812F60E002C0812F61E00E94A929DF9127
:10530000CF911F910895482F50E0CA01885C9E4FAD
:10531000FC0124914C5D5E4FFA0184918823C1F019
:10532000E82FF0E0EE0FFF1FEA5FFE4FA591B4916A
:10533000662341F49FB7F8948C91209582238C9337
:105340009FBF08959FB7F8948C91822B8C939FBF39
:105350000895482F50E0CA01845B9E4FFC012491C0
:10536000CA01885C9E4FFC0194914C5D5E4FFA012E
:105370003491332309F440C0222351F1233071F0DA
:10538000243028F42130A1F0223011F514C0263049
:10539000B1F02730C1F02430D9F404C080918000EE
:1053A0008F7703C0809180008F7D8093800010C034
:1053B00084B58F7702C084B58F7D84BD09C080918C
:1053C000B0008F7703C08091B0008F7D8093B000D4
:1053D000E32FF0E0EE0FFF1FE05FFE4FA591B491C9
:1053E0002FB7F894662321F48C919095892302C0FD
:1053F0008C91892B8C932FBF0895682F70E0CB017F
:10540000845B9E4FFC012491CB01885C9E4FFC0184
:1054100044916C5D7E4FFB019491992319F420E037
:1054200030E03CC0222351F1233071F0243028F4C5
:105430002130A1F0223011F514C02630B1F0273010
:10544000C1F02430D9F404C0809180008F7703C06C
:10545000809180008F7D8093800010C084B58F770D
:1054600002C084B58F7D84BD09C08091B0008F7764
:1054700003C08091B0008F7D8093B000892F90E0B1
:10548000880F991F865E9E4FFC01A591B4918C9167
:1054900020E030E0842311F021E030E0C9010895DC
:1054A00008951F920F920FB60F9211242F933F93DE
:1054B0004F938F939F93EF93FF934091C60020915A
:1054C0006504309166042F5F3F4F2F7330708091D9
:1054D0006704909168042817390759F0E091650432
:1054E000F0916604EB5DFB4F40833093660420939C
:1054F0006504FF91EF919F918F914F913F912F9173
:105500000F900FBE0F901F901895E091B904F09185
:10551000BA04E05CFF4F8191919120813181821B1F
:10552000930B8F739070892B11F00E94502A08956D
:105530001F920F920FB60F9211242F933F934F9308
:105540005F936F937F938F939F93AF93BF93EF93EB
:10555000FF932091A9043091AA048091AB0490910B
:10556000AC042817390731F48091C1008F7D8093F6
:10557000C10016C0E091AB04F091AC04E759FB4FB9
:1055800040818091AB049091AC04019660E470E09E
:105590000E9450329093AC048093AB044093C600B9
:1055A000FF91EF91BF91AF919F918F917F916F91FB
:1055B0005F914F913F912F910F900FBE0F901F90D1
:1055C0001895AF92BF92DF92EF92FF920F931F93C5
:1055D000CF93DF93EC017A018B01DD24403081EE23
:1055E000580780E0680780E0780711F0DD24D39445
:1055F00091E0A92EB12CEC89FD89DD2069F0C5016F
:105600000E8C02C0880F991F0A94E2F7808360E035
:1056100079E08DE390E005C0108260E874E88EE1E7
:1056200090E0A80197010E94633221503040404031
:105630005040569547953795279580E1203038079B
:1056400020F0DD2011F0DD24D6CFE889F989308300
:10565000EA89FB892083EE89FF89408121E030E0DF
:10566000C9010A8C02C0880F991F0A94E2F7482BDF
:105670004083EE89FF894081C9010B8C02C0880FED
:10568000991F0A94E2F7482B4083EE89FF894081F5
:10569000C9010C8C02C0880F991F0A94E2F7482BAD
:1056A0004083EE89FF8980810D8C02C0220F331F59
:1056B0000A94E2F7209528232083DF91CF911F9150
:1056C0000F91FF90EF90DF90BF90AF900895DC01B5
:1056D0001C96ED91FC911D97E05CFF4F219131915B
:1056E00080819181281B390B2F733070C901089577
:1056F000DC011C96ED91FC911D97E05CFF4F208131
:105700003181E054F040DF01AE5BBF4F8D919C9141
:1057100011972817390719F42FEF3FEF07C08D9124
:105720009C91E80FF91F8081282F30E0C90108956E
:10573000DC011C96ED91FC911D97E05CFF4F2081F0
:105740003181E054F040DF01AE5BBF4F8D919C9101
:1057500011972817390719F42FEF3FEF10C08D91DB
:105760009C911197E80FF91F20818D919C911197C1
:1057700001968F73907011969C938E9330E0C901BF
:105780000895FC0186859785DC01A05CBF4FFC0174
:10579000EE5BFF4F2D913C911197808191812817ED
:1057A0003907C1F70895CF93DF93EC01462FEE85BB
:1057B000FF85E05CFF4F80819181E054F0400196CD
:1057C00060E470E00E9450329C01DF01AE5BBF4F8D
:1057D0008D919C91119728173907D1F3E05CFF4F09
:1057E00080819181E054F040E80FF91F4083EE85FD
:1057F000FF85E05CFF4F31832083EE89FF892081A4
:1058000081E090E00D8C02C0880F991F0A94E2F7A6
:10581000282B208381E090E0DF91CF9108951092B2
:10582000B0041092AF0488EE93E0A0E0B0E0809363
:10583000B1049093B204A093B304B093B40489E884
:1058400091E09093AE048093AD0485E294E0909350
:10585000BA048093B90489E694E09093BC048093E1
:10586000BB0485EC90E09093BE048093BD0484EC6F
:1058700090E09093C0048093BF0480EC90E09093FC
:10588000C2048093C10481EC90E09093C40480939F
:10589000C30486EC90E09093C6048093C50484E032
:1058A0008093C70483E08093C80487E08093C90491
:1058B00085E08093CA0481E08093CB040895CF9360
:1058C000DF930E94C6280E949108C5E8DAE20E9490
:1058D00084082097E1F30E94852AF9CFCF92DF92C6
:1058E000EF92FF920F931F93CF93DF937C016B0195
:1058F0008A01C0E0D0E00FC0D6016D916D01D701E3
:10590000ED91FC910190F081E02DC7010995C80F40
:10591000D91F015010400115110571F7CE01DF911B
:10592000CF911F910F91FF90EF90DF90CF9008954E
:10593000EF92FF920F931F938C01DC01ED91FC918C
:105940000190F081E02D6DE009957C01D801ED9189
:10595000FC910190F081E02DC8016AE009959C015D
:105960002E0D3F1DC9011F910F91FF90EF900895DB
:10597000CF93DF93DB010D900020E9F71197A61B71
:10598000B70BEC01E881F9810280F381E02DAD01D4
:105990000995DF91CF9108954F925F927F928F92F8
:1059A0009F92AF92BF92CF92DF92EF92FF920F93AE
:1059B0001F93DF93CF93CDB7DEB7A1970FB6F894BF
:1059C000DEBF0FBECDBF2C01742ECB01223008F4F8
:1059D0002AE019A231E2C32ED12CCC0EDD1E822E7C
:1059E0009924AA24BB24672D752FA50194010E9438
:1059F000633279018A01C801B701A50194010E94AF
:105A00001D32472D461B0894C108D1084A3014F4B2
:105A1000405D01C0495CF6014083E114F1040105D9
:105A2000110521F07E2C5F2DC801DDCFC201B6012A
:105A30000E94B82CA1960FB6F894DEBF0FBECDBF62
:105A4000CF91DF911F910F91FF90EF90DF90CF905A
:105A5000BF90AF909F908F907F905F904F900895F0
:105A6000CF92DF92EF92FF920F931F93CF93DF932A
:105A7000EC016A017B012115310541F4E881F981CE
:105A80000190F081E02D642F09951FC02A30310567
:105A9000D1F477FF17C0E881F9810190F081E02D02
:105AA0006DE209958C0144275527BA014C195D090F
:105AB0006E097F09CE012AE00E94CC2C9801280FA4
:105AC000391F04C02AE00E94CC2C9C01C901DF913F
:105AD000CF911F910F91FF90EF90DF90CF9008959D
