:100000000C94B6000C944B290C9478290C94DE00C7
:100010000C94DE000C94DE000C94DE000C94DE00E8
:100020000C94DE000C94DE000C94DE000C94DE00D8
:100030000C94DE000C94DE000C94DE000C94DE00C8
:100040000C94A5290C94DE000C940F2C0C94562CC7
:100050000C94DE000C94DE000C94DE000C94DE00A8
:100060000C9413190C94DE0007634236B79BD8A793
:100070001A39685618AEBAAB558C1D3CB7CC5763CD
:10008000BD6DEDFD753EF6177231BF000000803F7B
:1000900008000000BE922449123EABAAAA2ABECD97
:1000A000CCCC4C3E00000080BEABAAAAAA3E000009
:1000B0000000BF000000803F000000000008417801
:1000C000D3BB4387D1133D190E3CC3BD4282AD2B38
:1000D0003E68EC8276BED98FE1A93E4C80EFFFBE30
:1000E00001C4FF7F3F000000000074727565006668
:1000F000616C7365006E756C6C0025750025752E3E
:10010000002D0025640000000000240027002A00C4
:1001100000000000250028002B0000000000230044
:100120002600290004040404040404040202020258
:1001300002020303030303030102040810204080AA
:10014000010204081020010204081020000000072A
:10015000000201000003040600000000000000008F
:10016000C60A69162E18F71BFC1BCD2D11241FBEC5
:10017000CFEFD8E0DEBFCDBF11E0A0E0B1E0E4EF0B
:10018000F8E602C005900D92A239B107D9F715E043
:10019000A2E9B1E001C01D92A43DB107E1F711E071
:1001A000CCE6D1E004C02297FE010E943234C03672
:1001B000D107C9F70E941D2E0C9478340C940000CE
:1001C000CF93DF93BC018230910510F462E070E0C0
:1001D000A091CA05B091CB05ED01E0E0F0E040E070
:1001E00050E021C0888199818617970769F48A8138
:1001F0009B81309719F09383828304C09093CB0541
:100200008093CA05FE0134C06817790738F4411598
:10021000510519F08417950708F4AC01FE018A8195
:100220009B819C01E9012097E9F641155105A9F14F
:10023000CA01861B970B049708F4BA01E0E0F0E0CE
:100240002AC08D919C91119784179507F9F4641732
:10025000750781F412968D919C911397309719F040
:100260009383828304C09093CB058093CA05FD01DC
:1002700032964CC0CA01861B970BFD01E80FF91F8F
:100280006193719302978D939C9340C0FD0182818D
:1002900093819C01D9011097A1F68091C805909196
:1002A000C905892B41F480916B0190916C01909369
:1002B000C9058093C80540916D0150916E014115AB
:1002C000510541F44DB75EB78091690190916A0183
:1002D000481B590B2091C8053091C905CA01821BE2
:1002E000930B8617970780F0AB014E5F5F4F841723
:1002F000950750F0420F531F5093C9054093C8050E
:10030000F9016193719302C0E0E0F0E0CF01DF9169
:10031000CF910895CF93DF93009709F450C0EC017B
:1003200022971B821A82A091CA05B091CB05109723
:1003300009F140E050E0AC17BD0708F1BB83AA8388
:10034000FE0121913191E20FF31FAE17BF0779F43F
:100350008D919C911197280F391F2E5F3F4F398344
:10036000288312968D919C9113979B838A834115C4
:10037000510571F4D093CB05C093CA0520C01296E5
:100380008D919C911397AD01009711F0DC01D3CFB3
:10039000FA01D383C28321913191E20FF31FCE176B
:1003A000DF0769F488819981280F391F2E5F3F4F3D
:1003B000FA01318320838A819B8193838283DF9139
:1003C000CF910895A0E0B0E0E8EEF1E00C94433462
:1003D0006C01009729F4CB010E94E0006C01C1C0C0
:1003E0008EEF882E8FEF982E8C0C9D1C8601060FA9
:1003F000171F0815190508F4B2C0F401A081B181D6
:10040000A617B707B8F0A530B10508F4AAC0CD010A
:1004100004978617970708F4A4C01297A61BB70B7A
:10042000F801A193B193D4016D937C93CF010E9405
:100430008A0197C07B01EA1AFB0AEEEFFFEFEE0E8E
:10044000FF1E36016A0E7B1EC091CA05D091CB05F6
:1004500044245524AA24BB244AC0C615D705E1F577
:10046000488159814E155F05B8F1CA0104978E1570
:100470009F05B0F41296A40FB51FF401B183A083B9
:100480002A813B814114510431F0D20113963C93EF
:100490002E93129766C03093CB052093CA0561C096
:1004A0008A819B81F80193838283425050404E1988
:1004B0005F09518340834114510431F0D2011396F6
:1004C0001C930E93129704C01093CB050093CA059A
:1004D000F4017183608345C088819981A816B906AB
:1004E00008F45C012E018A819B819C01E90120971F
:1004F00009F0B3CF8091C8059091C905861597057D
:10050000E9F4A616B706D0F420916D0130916E0182
:100510002115310541F42DB73EB7809169019091C5
:100520006A01281B390B02171307C8F41093C90579
:100530000093C805D4016D937C9313C0CB010E9436
:10054000E000EC01009759F0F40140815181B601BF
:100550000E942204C6010E948A016E0102C0CC24BE
:10056000DD24C601CDB7DEB7E0E10C945F342F92F5
:100570003F925F926F927F928F929F92AF92BF92C3
:10058000CF92DF92EF92FF920F931F93CF93DF935F
:100590008C011B01EA016115710519F0FB019183C2
:1005A0008083209749F0CE010297839728F020E0BE
:1005B00030E040E050E0F6C0F801A1908F018A2DB4
:1005C00090E00E943634892BB9F7FDE2AF1631F482
:1005D000F801A1908F015524539407C0FBE2AF1698
:1005E00019F4F801A1908F015524209719F0C0311A
:1005F000D105C1F4F0E3AF1679F4F80180818837B2
:1006000011F0883549F4F801A1800E5F1F4FF2E028
:100610005F2AC0E1D0E006C0209721F480E3A8164D
:10062000E9F427C0C830D10531F1C930D10524F42F
:10063000C230D10531F50CC0CA30D10589F0C031C6
:10064000D105F9F4C12CD12CE12CB8E0FB2E28C047
:10065000C12CD12CE12CA0E4FA2E22C0CAE0D0E0BB
:10066000FCECCF2EFCECDF2EFCECEF2EFCE0FF2EA2
:1006700017C0C8E0D0E0C12CD12CE12CE0E1FE2E67
:100680000FC09E01442737FD4095542F60E070E075
:1006900080E090E80E940E34C901DA016C017D010E
:1006A00020E030E040E050E060E03E01882477FC4C
:1006B0008094982C70EDB72EBA0CE9E0EB1570F42D
:1006C0008A2D81548A3118F499ECB92E06C08A2DEE
:1006D00081568A3150F589EAB82EBA0C8B2D90E0FC
:1006E0008C179D0714F56F3FE1F0C216D306E406A0
:1006F000F506B0F0CA01B901A40193010E94C83304
:100700009B01AC012B0D311D411D511D2130F0E02D
:100710003F07F0E04F07F0E85F0710F461E001C029
:100720006FEFF801A1908F01C5CF2114310481F042
:10073000662331F001501040F1011183008308C09D
:1007400051FE1AC002501040F1011183008314C001
:1007500067FF12C050FC05C02FEF3FEF4FEF5FE780
:1007600004C020E030E040E050E882E290E0909366
:10077000D3058093D20516C050FE08C05095409511
:10078000309521953F4F4F4F5F4F0CC057FF0AC028
:1007900082E290E09093D3058093D2052FEF3FEF54
:1007A0004FEF5FE7B901CA01DF91CF911F910F9120
:1007B000FF90EF90DF90CF90BF90AF909F908F9081
:1007C0007F906F905F903F902F900895FC01882755
:1007D0009927E89421912032E9F3293010F02E3046
:1007E000C8F32B3241F02D3239F4689404C00E94D2
:1007F0006D04820F911D219120532A30C0F31EF405
:10080000909581959F4F08950F931F93CF93DF93FA
:10081000182F092FE82FF92FDF010D900020E9F79D
:10082000CD018E1B9F0B0E94E000EC01009721F090
:10083000612F702F0E944904CE01DF91CF911F914B
:100840000F910895FB01DC0102C001900D9241500F
:100850005040D8F70895FB01DC018D9181341CF0E4
:100860008B350CF4805E619161341CF06B350CF4B7
:10087000605E861B611189F3990B0895FB01DC0111
:100880000D900020E9F7119701900D920020E1F7FB
:100890000895FB01DC0101900D920020E1F708951D
:1008A000FB01DC014150504030F08D9101908019E6
:1008B00019F40020B9F7881B990B0895FB01DC019E
:1008C0004150504048F001900D920020C9F701C0FE
:1008D0001D9241505040E0F708957AE0979F902D87
:1008E000879F802D910D11240895FA01CF93FF93D6
:1008F000EF932230CCF02532BCF4C22F2C2F3327BB
:1009000044275527FF93EF930E940E34EF91FF91F8
:10091000605D6A330CF0695D6193B901CA01605092
:1009200070408040904051F710828F919F91CF91FD
:100930000C942108FC01838187FF24C08091CC05A1
:100940009091CD058E179F0721F41092CD0510923E
:10095000CC058091CE059091CF058E179F0721F48D
:100960001092CF051092CE058091D0059091D105BF
:100970008E179F0721F41092D1051092D005CF0158
:100980000E948A0180E090E008950F931F93CF9317
:10099000DF938C01EB01009731F46115710519F4B7
:1009A00020E030E038C081E090E06EE070E00E942E
:1009B000E807FC019C01009771F180E88383209790
:1009C00071F0D387C28781E883838091CC059091B1
:1009D000CD05892B21F4F093CD05E093CC050115CD
:1009E0001105C9F01187008783818260838380911C
:1009F000CE059091CF05892B71F4F093CF05E0934C
:100A0000CE058091D0059091D105892B21F4F093EA
:100A1000D105E093D005C901DF91CF911F910F91CE
:100A20000895CF93DF93EC014B8140FF1AC046FF3E
:100A30000AC04F7B4B838E819F8101969F838E835B
:100A40008A81282F2BC042FF13C0E881F981808161
:100A5000282F332727FD30952115310529F44062D1
:100A60004B832FEF3FEF1BC03196F983E88311C012
:100A7000EA85FB85CE0109959C0197FF0AC09B8101
:100A80002F5F3F4F11F080E201C080E1892B8B8303
:100A9000E8CF8E819F8101969F838E8330E0C901CC
:100AA000DF91CF910895A0E0B0E0E9E5F5E00C9486
:100AB0004F340F8118859E01255F3F4FF8018381D8
:100AC00088608383C80169857A85A9010E940B0625
:100AD000F8012381277F23832096E4E00C946B3474
:100AE0000F931F93CF93DF938C01EB018B8181FFD9
:100AF0001BC082FF0DC02E813F818C819D812817F4
:100B0000390764F4E881F9810193F983E88306C029
:100B1000E885F985802F0995892B31F48E819F8195
:100B200001969F838E8302C00FEF1FEFC801DF91F4
:100B3000CF911F910F910895A0E0B0E0E2EAF5E0B7
:100B40000C944734FC014B015A016901D9011396F9
:100B50008C9180FF1AC07F01C0E0D0E010C0C601B8
:100B60000E941105BFEF8F3F9B0789F0F70181932A
:100B70007F010F5F1F4F0815190588F32196CA15CD
:100B8000DB0528F400E010E0F6CFC0E0D0E0CE01B5
:100B9000CDB7DEB7ECE00C946334AEE0B0E0E3ED4B
:100BA000F5E00C944F340D891E8986E08C831A83FE
:100BB00009838FEF9FE79E838D839E01275E3F4FC2
:100BC000CE0101966F89788DA9010E940B062F81B5
:100BD0003885020F131FF80110822E96E4E00C9462
:100BE0006B349C01FB01838180FF11C086FD0FC027
:100BF0009FEF2F3F390759F0228380648F7D8383D5
:100C00008681978101979783868330E002C02FEF1A
:100C10003FEFC9010895ABE0B0E0E1E1F6E00C94EC
:100C200041343C012B015A01FC0117821682838159
:100C300081FD03C06FEF7FEFC6C19AE0892E1E01D0
:100C40000894211C311CF3012381F20123FD8591BD
:100C500023FF81912F01882309F4B2C1853239F431
:100C600023FD859123FF81912F01853229F490E0A6
:100C7000B3010E947005E7CF982FFF24EE2499243A
:100C8000FFE1FF15D0F09B3269F09C3228F49032DE
:100C900059F0933291F40EC09D3249F0903369F4CB
:100CA00041E024C052E0F52A84E0F82A28C098E008
:100CB000F92A25C0E0E1FE2A22C0F7FC29C0892FCD
:100CC00080538A3070F4F6FE05C0989C902C112455
:100CD000980E15C0E89CE02C1124E80EF0E2FF2AE3
:100CE0000EC09E3229F4F6FC6BC140E4F42A07C022
:100CF0009C3619F450E8F52A02C0983649F4F201FE
:100D000023FD959123FF91912F01992309F0B8CFED
:100D1000892F8554833018F08052833038F444E0B2
:100D200050E0A40EB51E5FE359830FC0933631F037
:100D3000933779F0933509F056C020C0F5018081D2
:100D4000898342E050E0A40EB51E610101E010E08D
:100D500012C0F501C080D180F6FC03C06FEF7FEFB9
:100D600002C0692D70E042E050E0A40EB51EC6013D
:100D70000E9416088C015FE7F52214C0F501C080BF
:100D8000D180F6FC03C06FEF7FEF02C0692D70E0E9
:100D900042E050E0A40EB51EC6010E9404088C017A
:100DA00050E8F52AF3FE07C01AC080E290E0B301D4
:100DB0000E947005EA948E2D90E008171907A8F399
:100DC0000EC0F601F7FC8591F7FE81916F0190E06E
:100DD000B3010E947005E110EA9401501040011522
:100DE000110579F7EAC0943611F0993669F5F7FEE6
:100DF00008C0F501208131814281538184E090E077
:100E00000AC0F501808191819C01442737FD4095FE
:100E1000542F82E090E0A80EB91E9FE6F92257FFFA
:100E200009C050954095309521953F4F4F4F5F4FEA
:100E3000E0E8FE2ACA01B901A1012AE030E00E94DF
:100E40003108D82ED21840C0953729F41F2D1F7EA7
:100E50002AE030E01DC01F2D197F9F3661F09037CA
:100E600020F4983509F0ACC00FC0903739F09837AE
:100E700009F0A6C004C028E030E00AC0106114FDEB
:100E8000146020E130E004C014FD166020E132E07F
:100E900017FF08C0F501608171818281938144E070
:100EA00050E008C0F50180819181BC0180E090E0B4
:100EB00042E050E0A40EB51EA1010E943108D82ED8
:100EC000D2188FE7F82EF122F6FE0BC05EEFF52266
:100ED000D91438F4F4FE07C0F2FC05C08FEEF822F6
:100EE00002C01D2D01C0192DF4FE0DC0FE01ED0D37
:100EF000F11D8081803319F499EEF92208C01F5F3B
:100F0000F2FE05C003C08F2D867809F01F5F0F2DFC
:100F1000F3FC14C0F0FE0FC01E1510F09D2C0BC08A
:100F20009D2C9E0C911A1E2D06C080E290E0B3010C
:100F30000E9470051F5F1E15C0F304C01E1510F43B
:100F4000E11A01C0EE2404FF0FC080E390E0B3017A
:100F50000E94700502FF1DC001FD03C088E790E0FC
:100F60000EC088E590E00BC0802F867891F001FFDD
:100F700002C08BE201C080E2F7FC8DE290E0B30199
:100F80000E94700506C080E390E0B3010E947005E6
:100F90009A94D914C0F3DA94F101ED0DF11D80811A
:100FA00090E0B3010E947005DD20A9F706C080E241
:100FB00090E0B3010E947005EA94EE20C1F743CEA1
:100FC000F30166817781CB012B96E2E10C945D34CD
:100FD0000F931F93CF93DF93689F8001699F100D3C
:100FE000789F100D1124C8010E94E000EC010097C9
:100FF00029F060E070E0A8010E940F08CE01DF91A7
:10100000CF911F910F910895FC01059061507040A0
:101010000110D8F7809590958E0F9F1F0895DC01E1
:1010200001C06D9341505040E0F70895FC016150BC
:10103000704001900110D8F7809590958E0F9F1FFA
:101040000895DC01FC01672F71917723E1F7329756
:1010500004C07C916D9370836291AE17BF07C8F393
:101060000895FA01AA27283051F1203181F1E8943E
:101070006F936E7F6E5F7F4F8F4F9F4FAF4FB1E08B
:101080003ED0B4E03CD0670F781F891F9A1FA11D86
:10109000680F791F8A1F911DA11D6A0F711D811D87
:1010A000911DA11D20D009F468943F912AE0269F4C
:1010B00011243019305D3193DEF6CF010895462FAB
:1010C0004770405D4193B3E00FD0C9F7F6CF462F8C
:1010D0004F70405D4A3318F0495D31FD40524193F5
:1010E00002D0A9F7EACFB4E0A695979587957795B2
:1010F0006795BA95C9F700976105710508959B0139
:10110000AC010A2E06945795479537952795BA95C1
:10111000C9F7620F731F841F951FA01D08950F93B9
:101120001F9303E912E0C8010E949B24C8010E949A
:10113000B51D1F910F91089589EA94E040E855E2AA
:1011400060E070E00E949F2C87E061E00E94412BEC
:1011500088E061E00E94412B89E061E00E94412B20
:1011600087E061E00E94672B88E061E00E94672BC6
:1011700089E061E00E94672B0895DC01862F90E0F2
:10118000FC01E85CFE4FE491EC938C5D9E4FFC010A
:101190006491E62FF0E0EE0FFF1FE65EFE4F8591B3
:1011A000949112969C938E9311970895FC01278138
:1011B000308541855285B901CA010895FC01238516
:1011C000348545855685B901CA0108950F931F934B
:1011D0008C01862F90E0FC01E85CFE4FE491D80181
:1011E000EC938C5D9E4FFC016491E62FF0E0EE0FD6
:1011F000FF1FE65EFE4F8591949112969C938E930D
:1012000011970E94ED29D80113966D937D938D93CC
:101210009C93169780E090E0A7ECB2ECF8018783EE
:101220009087A187B28783879487A587B6871F9108
:101230000F9108954F925F927F928F929F92AF92FB
:10124000BF92CF92DF92EF92FF920F931F93DF93A3
:10125000CF93CDB7DEB7A9970FB6F894DEBF0FBE18
:10126000CDBF5C01FC017080018112810E94ED29DB
:101270009B01AC014E010894811C911C2401CE01FC
:101280008A96F20111922F01E817F907D1F7F501BB
:1012900083819481A581B68169017A01C81AD90A2E
:1012A000EA0AFB0AD701C601805D9740A040B04022
:1012B00018F427E030E02EC1F50123833483458301
:1012C0005683F894F8018181E72CE0948E21818384
:1012D0007894FF24C72CDD2407C0F394FEE7FF16A3
:1012E00019F421E030E016C182E090E00E947A2AF1
:1012F000F801808190E08C219D21892B71F3F89475
:10130000F80182818E21828381818729818378946B
:101310008CE494E00E947A2AF894F80181818E216D
:1013200081837894FF2407C0F394FAE1FF1619F43F
:1013300022E030E0EFC082E090E00E947A2AF801DB
:10134000808190E08C219D21892B71F3FF2407C0BF
:10135000F394F3E3FF1619F423E030E0DBC082E0FE
:1013600090E00E947A2AF801808190E08C219D21F2
:10137000892B71F7FF2407C0F394F4E2FF1619F4E8
:1013800024E030E0C7C082E090E00E947A2AF801B1
:10139000808190E08C219D21892B71F3FF2406C070
:1013A000F3E3FF1619F425E030E0B4C0F39482E0D3
:1013B00090E00E947A2AF801808190E08C219D21A2
:1013C000892B71F7F401F1924F01E415F50591F6BF
:1013D000EE24FF2420E030E0DE01119660E170E0B1
:1013E00041E050E02F5F3F4FFD01E20FF31F80818E
:1013F0008C3058F0CB01821B930B6A0102C0CC0CDD
:10140000DD1C8A95E2F7EC28FD282031310551F7E3
:10141000FE01729600E010E02FE030E041E050E085
:1014200080818C3048F0CA01022E02C0880F991FBB
:101430000A94E2F7082B192B2150304031966FEFB8
:101440002F3F360769F7FE01B296DD2427E030E032
:1014500041E050E080818C3040F0CA01022E02C091
:10146000880F991F0A94E2F7D82A2150304031960C
:10147000E415F50579F7B7017F77882777FD809523
:10148000982F0E944E3120E030E040E251E40E946B
:10149000B330F501678370878187928717FF0DC08E
:1014A0001F77B801882777FD8095982F0E944E31CD
:1014B00020E030E040E251EC0BC0B801882777FD16
:1014C0008095982F0E944E3120E030E040E251E4B8
:1014D0000E94B330F50163877487858796874D2D09
:1014E00050E02F2D332727FD3A958E2D90E0820F67
:1014F000911D800F911D212F332727FD3A95820FD3
:10150000911D90704817590719F026E030E002C08D
:1015100020E030E0C901A9960FB6F894DEBF0FBEF7
:10152000CDBFCF91DF911F910F91FF90EF90DF9092
:10153000CF90BF90AF909F908F907F905F904F9093
:101540000895449A459AE9EBF0E080818E7F80838C
:1015500080818D7F808388E48093B80084E48093C9
:10156000BC000895FC018091920190919401981B18
:1015700090939301882319F4109293010895815058
:1015800080939201E90FF11D828108950895EF92F1
:10159000FF920F931F930E94ED297B018C0184E938
:1015A0008093BC001BC021153105E1F00E94ED299C
:1015B0006E197F09800B910B209195013091960156
:1015C00040E050E0621773078407950738F01092E7
:1015D000BC0084E48093BC0081E009C020919501A7
:1015E000309196018091BC0084FDDDCF80E01F9199
:1015F0000F91FF90EF900895CF92DF92EF92FF92BC
:101600001F93162F0E94ED296B017C01112311F00D
:1016100084EC01C084E88093BC001BC02115310517
:10162000E1F00E94ED296C197D098E099F09209136
:1016300095013091960140E050E0621773078407EE
:10164000950738F01092BC0084E48093BC0091E0D0
:1016500019C020919501309196018091BC0087FFBF
:10166000DDCF8091B900887F883349F49091B9002B
:10167000987F1092BC0084E48093BC0003C09091DA
:10168000B900987F892F1F91FF90EF90DF90CF9046
:101690000895EF92FF920F931F93CF93DF93EC0186
:1016A0006093BB000E94ED297B018C0184E880934C
:1016B000BC001BC021153105E1F00E94ED296E1917
:1016C0007F09800B910B209195013091960140E0AC
:1016D00050E0621773078407950738F01092BC003A
:1016E00084E48093BC0011E020C0209195013091EA
:1016F00096018091BC0087FFDDCF8091B900887F83
:10170000883211F410E011C01091B900187F809157
:10171000B900887F803321F4CE010E94C70A05C03A
:101720001092BC0084E48093BC00812FDF91CF91A4
:101730001F910F91FF90EF900895EF92FF920F93FA
:101740001F93CF93DF93EC016093BB000E94ED29C0
:101750007B018C0184E88093BC001BC021153105FE
:10176000E1F00E94ED296E197F09800B910B209109
:1017700095013091960140E050E0621773078407AD
:10178000950738F01092BC0084E48093BC0011E00F
:101790001DC020919501309196018091BC0087FF7A
:1017A000DDCF8091B900887F883179F08091B900D0
:1017B000887F803499F409C08091B900887F88348B
:1017C000B1F4CE010E94C70A01C010E0812FDF9161
:1017D000CF911F910F91FF90EF9008951091B90054
:1017E000187F8091B900887F803231F7EACF10925C
:1017F000BC0084E48093BC00E9CFEF92FF920F938A
:101800001F930E94ED297B018C0184EA8093BC0028
:101810001BC021153105E1F00E94ED296E197F09E9
:10182000800B910B209195013091960140E050E0A2
:10183000621773078407950738F01092BC0084E4A0
:101840008093BC0091E021C02091950130919601D8
:101850008091BC0087FFDDCF8091B900887F883000
:1018600099F08091B900887F8031A9F40DC09091E2
:10187000B900987F1092BC0084E48093BC0005C03E
:101880009091B900987F01C090E0892F1F910F912E
:10189000FF90EF9008958091B900887F883381F799
:1018A000E6CFEF92FF920F931F93CF93DF93EC015C
:1018B000162F042FE22E10929201109293012223F0
:1018C00011F4EE24E394EA94E982E3941882CE01C1
:1018D0000E94FD0B8883882309F061C0110FCE019F
:1018E000612F0E949D0B8883882329F0813009F0A5
:1018F00056C082E054C0CE01602F0E94490B8883FD
:10190000882329F0813009F04AC083E048C0CE0125
:101910000E94FD0B8883882329F0813009F03FC0A5
:1019200084E03DC01F5FCE01612F0E949D0B888324
:10193000882319F48E01FF2425C0813081F585E0CC
:101940002EC08981F81651F4CE0160E00E94FC0A95
:101950008883813019F1883551F021C0CE0161E0D2
:101960000E94FC0A88838130C9F08035C1F48091DF
:10197000BB00F8018283F394F0929201F0929401FB
:101980000F5F1F4FFE14E8F2CE010E94C70A888342
:10199000882329F0813019F487E001C086E0DF91C7
:1019A000CF911F910F91FF90EF900895FF920F93A9
:1019B0001F93CF93DF93EC01162F042FF22E188282
:1019C0000E94FD0B8883882341F5110FCE01612F02
:1019D0000E949D0B8883882321F08130F1F482E0FE
:1019E0001CC0CE01602F0E94490B8883882339F4E4
:1019F000CE016F2D0E94490B8883882319F0813016
:101A000061F40AC0CE010E94C70A8883882329F0A6
:101A1000813019F487E001C083E0DF91CF911F91FD
:101A20000F91FF9008950F931F93CF93DF93EC01D5
:101A3000162F042F18820E94FD0B8883882301F53E
:101A4000110FCE01612F0E949D0B8883882321F006
:101A50008130B1F482E014C0CE01602F0E94490BA6
:101A60008883882321F0813059F483E009C0CE01B6
:101A70000E94C70A8883882319F0813009F487E01F
:101A8000DF91CF911F910F910895FB010680F7819F
:101A9000E02D80E004C08F5F0280F381E02D30975D
:101AA000D1F70895FB010680F781E02D04C0415075
:101AB0000280F381E02D309711F04423C1F7CF016C
:101AC0000895CF93DF93EB01DA01EE81FF81411599
:101AD000510591F0309719F45F834E830DC0CF010B
:101AE0000280F381E02D3097D1F7FC01B383A2830C
:101AF00015969C938E931497DF91CF9108950F9331
:101B00001F93CF93DF93FB018A01C681D78103C066
:101B10000A80DB81C02D209739F088819981B80136
:101B20000E942B04892BA1F7CE01DF91CF911F9149
:101B30000F910895EF92FF920F931F93CF93DF932E
:101B40007B018A01E9012115310511F18881998113
:101B5000009711F00E948A01C8010E940404888342
:101B60009983D7011696ED91FC911797309729F438
:101B70001796DC93CE9316970BC0CF010280F381AA
:101B8000E02D3097D1F7FC01D383C2839D838C83F2
:101B9000DF91CF911F910F91FF90EF900895EF92F9
:101BA000FF920F931F93CF93DF938C01EB0123C020
:101BB000FA80EB80888587FD08C06E817F81611582
:101BC000710519F0C8010E94CF0D8885853031F468
:101BD00089859A85009711F00E948A0188819981F0
:101BE000009711F00E948A01CE010E948A018F2D78
:101BF0009E2D9C01E9012097D9F6DF91CF911F918D
:101C00000F91FF90EF9008950F931F93CF93DF9361
:101C10008B01EA0182E290E0BA010E9470058F5FB9
:101C20009F4F09F464C00115110509F050C054C05C
:101C3000803240F0823231F08C3521F0992787FDD7
:101C4000909534C08CE590E0BE010E9470058F5FD6
:101C50009F4F09F44CC0F80180818C30C9F08D3061
:101C60003CF4893051F18A30B1F0883071F50DC003
:101C7000823241F08C3519F08D3039F515C08CE584
:101C800090E01DC082E290E008C082E690E00EC0C5
:101C900086E690E014C08EE690E0BE010E947005DA
:101CA0008F5F9F4F91F423C082E790E0BE010E94B6
:101CB00070058F5F9F4F49F41AC084E790E0BE0122
:101CC0000E9470058F5F9F4F91F00F5F1F4FF801CB
:101CD0008081882309F0ACCF82E290E0BE010E94AF
:101CE00070058F5F9F4F19F020E030E002C02FEFAA
:101CF0003FEFC901DF91CF911F910F910895CF93CD
:101D0000DF93EB016115710559F0CE010E941105B9
:101D10002FEF8F3F920721F081329105B4F306C077
:101D20002FEF3FEFC901DF91CF910895BE010E94CF
:101D3000F1058F5F9F4FA1F320E030E0F3CF6F926A
:101D40007F928F929F92AF92BF92CF92DF92EF924B
:101D5000FF920F931F93CF93DF93FB014A0161150D
:101D6000710509F4A5C0A184B284C384D484C601DA
:101D7000B50120E030E040E050E00E94AF30882321
:101D8000C4F400D000D0ADB7BEB712969C928E922C
:101D9000119781E091E014969C938E9313970E9483
:101DA0005305D7FAD094D7F8D0940F900F900F9096
:101DB0000F90C601B5010E9420317B018C01EDB767
:101DC000FEB738970FB6F894FEBF0FBEEDBF319641
:101DD000ADB7BEB712969C928E9211978DEF90E0A0
:101DE00093838283E482F582068317830E945305DE
:101DF000C801B7010E944C319B01AC01C601B5017D
:101E00000E944A302CEA35EC47EA56E30E944B30F8
:101E10007B018C01C5E0D0E0EDB7FEB738960FB678
:101E2000F894FEBF0FBEEDBF8AEF682E80E0782EDB
:101E3000C801B70120E030E040E251E40E94FE31E9
:101E40005B016C010E9420317B0100D000D000D0EA
:101E5000EDB7FEB73196ADB7BEB712969C928E9293
:101E6000119773826282758364830E94530500E038
:101E700010E0C801B7010E944C319B01AC01C601C2
:101E8000B5010E944A307B018C01EDB7FEB7369652
:101E90000FB6F894FEBF0FBEEDBF20E030E040E08B
:101EA00050E00E94AF30882319F0219709F0C0CF8D
:101EB00080E090E0DF91CF911F910F91FF90EF9024
:101EC000DF90CF90BF90AF909F908F907F906F905A
:101ED0000895CF93DF93DB016115710519F420E0BC
:101EE00030E01FC000D000D000D0EDB7FEB7319673
:101EF000CDB7DEB75A83498383E091E09383828331
:101F000019968D919C911A97958384830E9453050D
:101F10009C018DB79EB706960FB6F8949EBF0FBE74
:101F20008DBFC901DF91CF910895FB016115710546
:101F300009F44BC020852330B1F124303CF421302A
:101F400049F1223064F4222399F03FC0253089F111
:101F5000253064F1263091F12730B9F532C000D038
:101F600000D0EDB7FEB75283418385EF90E008C003
:101F700000D000D0EDB7FEB7528341838FEE90E0E2
:101F8000948383830E9453059C010F900F900F90C0
:101F90000F901DC000D000D0EDB7FEB75283418333
:101FA0008AEE90E0EDCF0E94690F0DC00E949F0E57
:101FB0000AC0618572850E94040E05C00E94371018
:101FC00002C00E94E90F9C0102C020E030E0C9017C
:101FD0000895EF92FF920F931F93CF93DF937C01AD
:101FE000FB018A0161157105C1F1C681D7818BE7BB
:101FF00090E020C068817981C701A8010E94040E89
:102000008F5F9F4F39F18AE390E0B8010E9470051D
:102010008F5F9F4FF9F0C701BE01A8010E94950F85
:102020008F5F9F4FB9F00A80DB81C02D209741F070
:102030008CE290E0B8010E9470058F5F9F4F51F0D5
:102040002097C1F68DE790E0B8010E9470058F5F80
:102050009F4F19F42FEF3FEF02C020E030E0C9019D
:10206000DF91CF911F910F91FF90EF900895EF9224
:10207000FF920F931F93CF93DF937C01FB018A01A3
:102080006115710539F1C681D7818BE590E00FC0EC
:10209000C701BE01A8010E94950F8F5F9F4FB9F045
:1020A0000A80DB81C02D209741F08CE290E0B801DE
:1020B0000E9470058F5F9F4F51F0209749F78DE583
:1020C00090E0B8010E9470058F5F9F4F19F42FEFC9
:1020D0003FEF02C020E030E0C901DF91CF911F91B6
:1020E0000F91FF90EF900895EF92FF920F931F933F
:1020F000CF93DF938C017B010E947B15EC0100974D
:1021000019F420E030E009C0C801B701AE010E9417
:10211000950FCE010E9464159C01C901DF91CF91FA
:102120001F910F91FF90EF900895EF92FF920F9300
:102130001F93CF93DF937B018A01CA010E9411058F
:10214000829709F04FC085E0F70180870E9436161C
:10215000EC01009709F446C0C8010E941105FFEF89
:102160008F3F9F0709F041C03AC08C35910569F552
:10217000C8010E9411052FEF8F3F920781F186362B
:102180009105E1F0873691054CF48C35910581F08D
:102190008236910589F08297D9F40CC08237910577
:1021A00089F08437910581F08E36910589F408C055
:1021B0008CE50BC082E209C088E007C08CE005C056
:1021C0008AE003C08DE001C089E0BE010E94D01505
:1021D000C8010E941105EFEF8F3F9E0731F4CE0139
:1021E0000E94EE152FEF3FEF0FC08232910521F0D4
:1021F000803291050CF0B9CFCE010E94F315F701A2
:102200009287818720E030E0C901DF91CF911F9153
:102210000F91FF90EF9008952F923F924F925F920F
:102220006F92AF92BF92CF92DF92EF92FF920F9395
:102230001F93DF93CF93CDB7DEB728970FB6F894EF
:10224000DEBF0FBECDBF7A8369831A01CA010E9427
:1022500011052C012FEF8F3F920771F08D32910500
:1022600019F0AA24A3940DC0C1010E9411052C01EC
:102270004FEF8F3F940719F42FEF3FEF16C1AA24B9
:10228000AA94C201C0970A9718F000E010E018C0A5
:1022900000E010E0C80173E0880F991F7A95E1F71C
:1022A000000F111F800F911F820100531040080F73
:1022B000191FC1010E9411052C01C0970A9750F304
:1022C0005EE245165104D1F085E648165104B1F09E
:1022D00095E44916510491F08A2D992787FD909530
:1022E000FC010E9FC0010F9F900D1E9F900D1124A9
:1022F000E981FA819287818783E0D0C0B80188277D
:1023000077FD8095982F0E944E317B018C01FEE273
:102310004F16510419F0CC24DD242DC0C1010E94B8
:1023200011052C01CC24DD24C801B70120E030E0E8
:1023300040E251E40E94FE317B018C0120ED3FEF31
:10234000420E531EB201882777FD8095982F0E9478
:102350004E319B01AC01C801B7010E944B307B019B
:102360008C010894C108D108C1010E9411052C01FB
:10237000C0970A97C8F235E64316510449F045E480
:102380004416510429F018861F826624639437C0CE
:10239000C1010E9411052C018B32910529F4C10164
:1023A0000E9411052C0104C08DE24816510419F059
:1023B0006624639406C0C1010E9411052C016624A5
:1023C0006A9418861F8215C08F81988553E0880F04
:1023D000991F5A95E1F7EF81F885EE0FFF1FE80F7F
:1023E000F91FE20FF31FF887EF83C1010E94110567
:1023F0002C019201205330402A30310528F36A2DF8
:10240000772767FD7095872F972F0E944E31A8017F
:1024100097010E94FE316B837C838D839E83B6017E
:10242000882777FD8095982F0E944E315B016C01C3
:102430002F813885B901882777FD8095982F0E94D4
:102440004E317B018C01662D772767FD7095872FB4
:10245000972F0E944E319B01AC01C801B7010E9429
:10246000FE319B01AC01C601B5010E944B309B01BE
:10247000AC0160E070E080E291E40E9461329B0177
:10248000AC016B817C818D819E810E94FE31E9814E
:10249000FA81618772878387948784E08087C2018D
:1024A000B1010E94F10520E030E0C90128960FB685
:1024B000F894DEBF0FBECDBFCF91DF911F910F917A
:1024C000FF90EF90DF90CF90BF90AF906F905F90B4
:1024D0004F903F902F9008958DE090E00E94E00093
:1024E000FC01009729F08DE0DF011D928A95E9F744
:1024F000CF0108950E946C12FC01009711F087E053
:102500008087CF0108950E946C12FC01009711F0A2
:1025100086E08087CF0108950F931F93CF93DF93B9
:102520008B010E946C12EC01009739F085E08887DE
:10253000C8010E94040489879A87CE01DF91CF9158
:102540001F910F910895CF92DF92EF92FF920F9318
:102550001F938C017B016A01B9010E948C129C01BE
:10256000C801B701A6010E949A0D1F910F91FF901B
:10257000EF90DF90CF900895EF92FF920F931F930B
:102580007A018B010E946C12FC01009731F084E00B
:102590008087E186F28603871487CF011F910F9110
:1025A000FF90EF900895AF92BF92CF92DF92EF929B
:1025B000FF920F931F937C016B015A01B901A8018F
:1025C0000E94BC129C01C701B601A5010E949A0D90
:1025D0001F910F91FF90EF90DF90CF90BF90AF9041
:1025E0000895CF93DF93EB010E946C12FC010097DA
:1025F00021F083E08087D287C187CF01DF91CF911F
:102600000895CF92DF92EF92FF920F931F938C0168
:102610007B016A01B9010E94F1129C01C801B70156
:10262000A6010E949A0D1F910F91FF90EF90DF90ED
:10263000CF9008956F927F928F929F92BF92CF9288
:10264000DF92EF92FF920F931F93CF93DF937C0162
:102650004B018A013901CA010E9411058B3791058E
:1026600009F05DC087E0F4018087C701B8010E94CE
:102670007F0EC8010E9411058D37910509F452C0E3
:10268000B8010E94F105BB24BA94C7010E946C12E4
:10269000EC01009709F443C0BB2021F0F4019783BB
:1026A000868305C0F60193838283DD82CC82C701D5
:1026B000B8010E947F0EC701BE01A8010E949510BB
:1026C0008F5F9F4F61F1C701B8010E947F0E89851E
:1026D0009A85998388831A861986C8010E941105F4
:1026E000CA97E9F4C701B8010E947F0EC701BE0175
:1026F000A80193010E94A3138F5F9F4F81F0C70130
:10270000B8010E947F0EC8010E941105BB246E0112
:102710008C32910509F4B9CF8D37910519F02FEF5F
:102720003FEF02C020E030E0C901DF91CF911F915F
:102730000F91FF90EF90DF90CF90BF909F908F9080
:102740007F906F9008958F929F92AF92BF92CF9299
:10275000DF92EF92FF920F931F93DF93CF93CDB74A
:10276000DEB729970FB6F894DEBF0FBECDBF6C0160
:102770005B017A0149014115510509F4ADC0BA0167
:102780000E947F0E8F5F9F4F09F4A6C0C7010E9471
:1027900011058C018FEF0F3F180709F49DC0C80188
:1027A000B7010E94F1058F5F9F4F09F495C0023277
:1027B000110531F4C601B501A7010E94951020C092
:1027C0000D32110521F0C801C0970A9730F4C601F7
:1027D000B501A7010E940C1113C00B35110539F486
:1027E000C601B501A70194010E94821409C00B37EC
:1027F000110541F4C601B501A70194010E941A1305
:102800009C016CC00E36110501F519821A821B82DB
:102810001C828E010F5F1F4FC80161E070E044E031
:1028200050E097010E949C05049709F055C0C8012B
:1028300060E071E044E050E00E945004009709F02D
:102840004BC082E0F501808744C006361105F9F4DB
:102850008E010B5F1F4F85E0F80111928A95E9F711
:10286000C80161E070E045E050E097010E949C05DE
:10287000059791F5C80165E071E045E050E00E94E0
:102880005004009749F5F5011086118622C00437DF
:10289000110511F519821A821B821C828E010F5FAD
:1028A0001F4FC80161E070E044E050E097010E94D2
:1028B0009C05049789F4C8016BE071E044E050E0A6
:1028C0000E945004009741F481E0F50180878FEF6A
:1028D000818720E030E002C02FEF3FEFC901299649
:1028E0000FB6F894DEBF0FBECDBFCF91DF911F9121
:1028F0000F91FF90EF90DF90CF90BF90AF909F909F
:102900008F9008956F927F928F929F92BF92CF92F5
:10291000DF92EF92FF920F931F93CF93DF936C019F
:102920004B01EA013901CA010E9411058B3591055D
:1029300009F03FC086E0F4018087C601BE010E9415
:102940007F0ECE010E9411058D359105A9F1BE01C2
:102950000E94F105BB24BA94C6010E946C128C013E
:10296000009739F1BB2021F0F4019783868306C0DC
:10297000F70193838283FC01F582E482C601BE01E4
:102980000E947F0EC601B801AE0193010E94A313FD
:10299000892B79F4C601BE010E947F0ECE010E94F0
:1029A0001105BB2478018C329105B1F28D3591056A
:1029B00019F02FEF3FEF02C020E030E0C901DF91B6
:1029C000CF911F910F91FF90EF90DF90CF90BF902C
:1029D0009F908F907F906F900895CF92DF92EF92AB
:1029E000FF920F931F93CF93DF937C018B016A01BA
:1029F00061157105B1F00E946C12EC01009799F01D
:102A0000C701B8010E947F0EC701BE01A80196014F
:102A10000E94A3138F5F9F4F31F4C701BE010E9434
:102A2000CF0DC0E0D0E0CE01DF91CF911F910F918B
:102A3000FF90EF90DF90CF900895EF92FF920F9369
:102A40001F937C01CB010E94A9158C01C701B8011D
:102A500040E050E00E94ED14F82EE92EC8010E94DB
:102A600096158F2D9E2D1F910F91FF90EF90089539
:102A7000FC01A485B58512962D913C911397ED919B
:102A8000FC911197E20FF31F8081882319F4EFEF77
:102A9000FFEF0AC02F5F3F4F13963C932E93129780
:102AA000E82FFF27E7FDF095CF010895FB0164852E
:102AB00075850E94D015882319F420E030E002C00B
:102AC0002FEF3FEFC90108950F931F93CF93DF932B
:102AD000EC018C859D850E94F3158C01009711F007
:102AE0001D861C86CE010E949A04C801DF91CF91F9
:102AF0001F910F910895CF93DF9386E595E160E0F4
:102B000070E00E94C504EC01009761F00E94361647
:102B1000009731F4CE010E949A04C0E0D0E002C0D8
:102B20009D878C87CE01DF91CF910895CF93DF935E
:102B3000EC01009759F08C859D85009711F00E945B
:102B40008A011D861C86CE010E949A04DF91CF91D6
:102B500008950F931F93CF93DF938C0180E090E053
:102B600068E375E10E94C504EC01009799F084E0E8
:102B700090E00E94E000FC01009739F0118300838F
:102B8000138212829D878C8705C0CE010E949A0411
:102B9000C0E0D0E0CE01DF91CF911F910F91089559
:102BA000482FDB0114962D913C91159712968D912B
:102BB0009C9113972817390778F4ED91FC911197A0
:102BC000E20FF31F408314968D919C911597019607
:102BD00015969C938E93149780E00895009711F0BA
:102BE0000E948A0108950F931F93CF93DF938C0166
:102BF000DC0114962D913C9115972115310541F07A
:102C0000ED91FC91E20FF31F319780818823B1F0A1
:102C1000F801828193812817390780F40190F081AF
:102C2000E02DE20FF31F1082D80114968D919C9134
:102C30001597019615969C938E931497F8018481AD
:102C400095810E94E000EC01009751F068EC74E07F
:102C50000E944904D8011D921C92C8010E948A0159
:102C6000CE01DF91CF911F910F910895CF93DF9304
:102C700086E090E00E94E000DC010097A9F0E8EC1B
:102C8000F4E01196FC93EE9380E091E0EF019C015B
:102C9000199221503040E1F713969C938E9312972E
:102CA00015961C921E921497CD01DF91CF91089535
:102CB0000F931F938C010E94ED29605A75418F4F2D
:102CC0009F4FF80160837183828393831F910F91DB
:102CD00008958AEB91E00E94581682EC91E06EE034
:102CE0000E94E60808950F931F93CF93DF93EC01A2
:102CF0000E94ED29288139814A815B81621B730B17
:102D0000840B950B6153754780409040C0F18AE178
:102D100092E00E94B6188AE192E068E470E042E036
:102D200050E00E94B3188AE192E00E940718182F21
:102D30008AE192E00E940718312F20E090E0282BD2
:102D4000392B84E0359527958A95E1F7442737FD9F
:102D50004095542FCA01B9010E944E3120E030E065
:102D600040E85DE30E94FE318B01F82FE92FAC01B2
:102D7000CB01DA018C839D83AE83BF8304C00C81B9
:102D80001D81FE81EF814F2F5E2FB801CA01DF91B7
:102D9000CF911F910F910895CF93DF93262F61302C
:102DA00029F48EE090E06EE070E00DC0623029F40E
:102DB0008FE090E06FE070E006C0633021F480E1C6
:102DC00090E060E170E04830510509F451C04930AD
:102DD000510594F44530510511F14630510524F464
:102DE000452B09F47AC018C04630510509F475C066
:102DF0004730510589F426C04A30510509F46DC0A9
:102E00004A3051050CF464C04C30510509F469C0D6
:102E10004A5E534009F46FC0CFEFDFEF85C0862FC5
:102E20000E94BB2B2FEF33E0829FE001839FD00DE8
:102E3000929FD00D1124209709F076C083E992E08B
:102E400069E013C0862F0E94BB2B2FEF33E0829FD7
:102E5000E001839FD00D929FD00D11241C161D06FA
:102E60000CF062C083E992E068E00E9470215CC0CF
:102E700082EC91E00E94BD0882EC91E00E941A0968
:102E80009093D2018093D1010197069718F4C0E086
:102E9000D0E04AC082EC91E00E94D60820E030E009
:102EA00040E251E40E94FE310E941B31EB0182ECB2
:102EB00091E00E94DE0820E030E040E251E40E9410
:102EC000FE310E941B317093D4016093D3012CC05A
:102ED000C091D301D091D40127C00E94BF2AEC0138
:102EE00023C00E94BF2AEC0118161906ECF483E9EE
:102EF00092E067E0BACF213021F488B1C82FD0E04A
:102F000011C0223031F488B1C82FD0E0D595C795D3
:102F100009C0233049F488B1C82FD0E0D595C795B2
:102F2000D595C795C170D070CE01DF91CF9108952E
:102F3000CF93DF93EB01442369F089EA94E060E1E9
:102F400071E00E944D2F89EA94E0BE014AE050E012
:102F50000E942E2FCE01835B9040439718F42AE005
:102F600030E048C0CE018B5F9040439718F427E0D3
:102F700030E040C0CE0188549140439718F429EEC8
:102F800033E038C0CE018E569140439718F426E0C6
:102F900030E030C0CE01805A9140439718F42BE0C6
:102FA00030E028C0CE0180509240439718F428E0CA
:102FB00030E020C0CE0180539240439718F42CE0BB
:102FC00030E018C0CE018F589240439718F42AEE93
:102FD00033E010C0CE018F509340439718F425E0A2
:102FE00030E008C0C35FD3401CF420E030E002C0F2
:102FF0002FEF3FEFC901DF91CF9108952091F601A6
:1030000030E08091F501281B3109C90108954091F4
:10301000F5018091F601481718F02FEF3FEF0AC035
:10302000E42FF0E0EB52FE4F8081282F30E04F5F1D
:103030004093F501C9010895E091F5018091F601F1
:10304000E81718F0EFEFFFEF06C0F0E0EB52FE4F8D
:103050008081E82FF0E0CF010895089510921D02BD
:1030600010921C0288EE93E0A0E0B0E080931E0274
:1030700090931F02A0932002B093210286E791E073
:1030800090931B0280931A020895CF92DF92EF92E1
:10309000FF920F931F93CF93DF937C016B018A0103
:1030A000809119028823A1F0C0E0D0E00DC0D701C3
:1030B000ED91FC91D601AC0FBD1F0190F081E02D88
:1030C000C7016C9109952196C017D10780F304C000
:1030D000CB01642F0E94F818C801DF91CF911F9196
:1030E0000F91FF90EF90DF90CF900895DF93CF93F3
:1030F0000F92CDB7DEB7FC01698380911902882356
:10310000C9F080911802803238F081E090E093831A
:10311000828320E030E015C080911702E82FF0E0B4
:10312000E950FE4F998190838F5F809317028093BF
:10313000180205C0CE01019661E00E94F81821E056
:1031400030E0C9010F90CF91DF910895413208F02E
:1031500040E2862F65ED71E00E94C1181092F501E2
:103160008093F60108950E94A61808951092F50123
:103170001092F60110921702109218020E948E1AF5
:103180000895982F413210F040E030C0809126021F
:103190008823E1F781E0809326028FEF80939102EC
:1031A00010924C02415040934D024F5F990F916035
:1031B0009093270285EE8093BC0080912602813097
:1031C000E1F380914C02841710F440914C0220E00E
:1031D00030E00AC0FB01E20FF31FD901A45DBD4F2F
:1031E0008C9180832F5F3F4F2417A0F3842F089585
:1031F000482F613210F081E00895809126028430DA
:1032000011F082E0089560936F02AEE4B2E0842F83
:103210009C01F90102C081918D938E2F841B86172A
:10322000D0F380E008951F920F920FB60F921124F1
:103230002F933F934F935F936F937F938F939F93BE
:10324000AF93BF93EF93FF938091B90090E0887F95
:1032500090708036910509F4DCC081369105CCF57B
:103260008832910509F47BC089329105B4F480312C
:10327000910509F46FC0813191053CF4009709F480
:1032800031C1089709F039C165C08831910509F449
:1032900066C0809709F031C17DC08034910509F482
:1032A0009FC08134910544F48033910509F47DC0B9
:1032B000C89709F022C184C08035910509F484C003
:1032C0008835910509F491C08834910509F015C13C
:1032D00098C08839910509F4FDC089399105ECF44D
:1032E0008837910509F495C0893791054CF48836E3
:1032F000910509F48EC08037910509F0FEC089C0A0
:103300008838910509F4E6C08039910509F487C031
:103310008038910509F0F1C082C0803B910509F425
:10332000B0C0813B91054CF4803A910509F489C005
:10333000883A910509F0E1C0A4C0803C910509F4E8
:10334000CDC0883C910509F4C9C0883B910509F0BE
:10335000D4C0ACC0809127028093BB00B9C09091CB
:103360004C0280914D02981768F490914C02E92F1D
:10337000F0E0E45DFD4F80818093BB009F5F909300
:103380004C02A6C085ED8093BC008091BC0084FDFA
:10339000FCCFB1C080E28093910285ED8093BC00A8
:1033A0008091BC0084FDFCCFA6C080E38093910295
:1033B00085ED8093BC008091BC0084FDFCCF9BC058
:1033C00088E3809391028AC080914C029091BB0067
:1033D000E82FF0E0E45DFD4F90838F5F80934C0217
:1033E00090914C0280914D0271C080914C0290915D
:1033F000BB00E82FF0E0E45DFD4F90838F5F80938A
:103400004C0285ED8093BC008091BC0084FDFCCF14
:1034100072C083E0809326021092900259C080917E
:103420009002803208F056C0809190029091BB00CB
:10343000E82FF0E0E059FD4F90838F5F809390027A
:1034400047C080919002803230F4E0919002F0E029
:10345000E059FD4F108285ED8093BC008091BC0047
:1034600084FDFCCF1092260260919002E0912A0226
:10347000F0912B0280E792E070E0099510929002A3
:103480002DC084E08093260210926E0210926F028B
:10349000E0912802F0912902099580916F0288231A
:1034A00029F481E080936F0210924E0290916E0297
:1034B000E92FF0E0E25BFD4F80818093BB009F5FCE
:1034C00090936E0290916E0280916F02981710F4A3
:1034D00085EC01C085E88093BC000FC085EC80932B
:1034E000BC0009C01092910285ED8093BC008091D0
:1034F000BC0084FDFCCF10922602FF91EF91BF919A
:10350000AF919F918F917F916F915F914F913F917B
:103510002F910F900FBE0F901F90189510922602BA
:1035200082E161E00E94672B83E161E00E94672BEA
:10353000E9EBF0E080818E7F808380818D7F8083C6
:1035400088E48093B80085E48093BC000895362F0A
:10355000242F87E991E06DE1432F0E94D60C089556
:10356000EF92FF920F931F93CF93DF93162F7A0161
:10357000022F87E991E06DE1412F0E94130D87E949
:1035800091E06DE1412F202F0E94510CC0E0D0E06E
:1035900010E009C087E991E00E94B20AF701EC0F40
:1035A000FD1F80832196C017D107A4F3DF91CF912F
:1035B0001F910F91FF90EF900895AF92BF92CF921D
:1035C000DF92EF92FF920F93DF93CF9300D000D062
:1035D00000D0CDB7DEB77B016A015901AE014F5F64
:1035E0005F4F0023C1F161E026E00E94B01A2A81FA
:1035F000229526952695237030E0898190E0880FEA
:10360000991F880F991F282B392BF70131832083AD
:103610002C81229526952695237030E08B8190E0B1
:10362000880F991F880F991F282B392BF60131839A
:1036300020832E81229526952695237030E08D815A
:1036400090E0880F991F880F991F282B392BF501BF
:10365000318320831FC061E023E00E94B01A89817A
:1036600090E0880F991F880F991FF701918380833D
:103670008A8190E0880F991F880F991FF601918326
:1036800080838B8190E0880F991F880F991FF50127
:1036900091838083F70180819181F2E080309F07E0
:1036A0002CF080509440F70191838083F601808153
:1036B0009181F2E080309F072CF080509440F60119
:1036C00091838083F50180819181F2E080309F07B2
:1036D0002CF080509440F5019183808326960FB69C
:1036E000F894DEBF0FBECDBFCF91DF910F91FF9059
:1036F000EF90DF90CF90BF90AF9008950F931F93FE
:10370000DF93CF930F92CDB7DEB78C016AE2AE01A3
:103710004F5F5F4F21E00E94B01A49814D7FC80181
:103720006AE20E94A71A0F90CF91DF911F910F912B
:1037300008950F931F93DF93CF930F92CDB7DEB70A
:103740008C016AE2AE014F5F5F4F21E00E94B01A28
:1037500049814160C8016AE20E94A71A0F90CF9187
:10376000DF911F910F9108950F931F93DF93CF93D4
:103770000F92CDB7DEB78C016AE2AE014F5F5F4FAB
:1037800021E00E94B01A49814E7FC8016AE20E947E
:10379000A71A0F90CF91DF911F910F9108950F936A
:1037A0001F93DF93CF930F92CDB7DEB78C0187E9DC
:1037B00091E00E94A10AC8010E94B41BC8016EE0FA
:1037C00040E00E94A71AC8010E947E1BC8010E9407
:1037D000991BC8016DE0AE014F5F5F4F21E00E9471
:1037E000B01A0F90CF91DF911F910F91089582E948
:1037F00092E00E94CF1B089581E793E00E94D624B7
:103800000895EF92FF920F931F93CF93DF9389EB6D
:1038100091E00E947A127C01009739F489EA94E0E1
:103820006FE171E00E94502F65C089EB91E00E942A
:1038300083128C0189EB91E0B7014AE251E09801D3
:103840000E949A0D89EB91E00E947A12EC0189EBBB
:1038500091E0B801AE010E94610D89EB91E0BE01DB
:103860004EE251E024E133E00E94A312209138039C
:103870003091390389EB91E0BE0140E351E00E94B1
:10388000011320913A0330913B0389EB91E0BE0193
:1038900042E351E00E94011380917003882351F0AC
:1038A00089EB91E0BE0144E351E02CE333E00E9458
:1038B000A3120BC020916E0330916F0389EB91E04E
:1038C000BE0144E351E00E94011389EB91E0B7018E
:1038D0000E947410EC01009729F089EA94E0BE017F
:1038E0000E94502F89EB91E0B7010E94CF0DCE01CD
:1038F0000E948A01DF91CF911F910F91FF90EF906D
:103900000895CF92DF92EF92FF920F931F93CF9380
:10391000DF93EB0189EB91E00E947A126C01009732
:1039200039F489EA94E06FE171E00E94502F35C0CC
:1039300089EB91E00E9483127C0189EB91E0B60152
:1039400047E351E097010E949A0D89EB91E00E94B4
:103950007A128C0189EB91E0B701A8010E94610DF8
:1039600089EB91E0B8014DE351E09E010E94011303
:1039700089EB91E0B6010E947410EC01009729F0E8
:1039800089EA94E0BE010E94502F89EB91E0B601D4
:103990000E94CF0DCE010E948A01DF91CF911F912D
:1039A0000F91FF90EF90DF90CF900895AF92BF926C
:1039B000CF92DF92EF92FF920F931F93CF93DF93FB
:1039C00004E912E089EB91E0B8010E941D155C0149
:1039D00080E8F80111928A95E9F7A114B10411F475
:1039E00080E08DC089EB91E0B5010E94450D8823F0
:1039F00009F47CC089EB91E0B50142E451E00E94FA
:103A00007F0DBC01009709F471C089EB91E040E0A3
:103A10000E94520DEC01009709F468C089EB91E017
:103A2000BE014EE251E00E947F0D8C0189EB91E0D6
:103A3000BE0140E351E00E947F0D7C0189EB91E0E3
:103A4000BE0142E351E00E947F0D6C0189EB91E0E1
:103A5000BE0144E351E00E947F0DEC010115110508
:103A600009F444C0F8018085853009F03FC06185C4
:103A7000728584E193E044E250E00E945E04E11428
:103A8000F104A1F1F7018085833081F5818592856C
:103A90009093390380933803C114D10439F1F601AE
:103AA0008085833019F58185928590933B038093BF
:103AB0003A032097D9F08885853061F469857A8545
:103AC0008CE393E042E350E00E945E0481E0809347
:103AD00070030AC0833051F489859A8590936F03EF
:103AE00080936E031092700301E001C000E089EB47
:103AF00091E0B5010E94CF0D802F011181E0DF918F
:103B0000CF911F910F91FF90EF90DF90CF90BF90DA
:103B1000AF900895CF93DF9389EA94E00E94252D1A
:103B2000892B19F4CFEFDFEF1CC0C0E0D0E012C04A
:103B3000C038D105B1F089EA94E00E94562DFE010B
:103B4000EC56FD4F8083219662E070E080E090E0CB
:103B50000E94212A89EA94E00E94252D1816190650
:103B60003CF3CE01DF91CF910895CF92DF92EF9297
:103B7000FF920F931F93CF93DF93EC010E948A1D56
:103B8000181619060CF0A3C0CE010E94D61C88237B
:103B900009F498C08091380390913903892B09F07A
:103BA0008DC080913A0390913B0323E0893E9207B8
:103BB00061F123E08A3E920709F458C0885E934081
:103BC00009F078C08CE393E060E070E040E150E001
:103BD0000E94B7027B018C018FEFC82ED12CB60159
:103BE000601B710987E00E94E12ACF18D10888E0A4
:103BF000B6010E94E12AE094F0948FEFE822FF24BE
:103C000089E0B7010E94E12A51C084E193E00E945B
:103C1000E603823049F0833061F0813081F481E73E
:103C200093E06EE070E009C081E793E06FE070E040
:103C300004C081E793E060E170E00E940D2981E714
:103C400093E06EE571E00E94F62481E793E065E081
:103C500070E00E94FA2481E793E06CE373E00E9435
:103C6000C92881E793E00E94FD2820C084E193E009
:103C70000E94E603823041F0833041F0813011F43C
:103C80001EE005C01FEF03C01FE001C010E18091DE
:103C90007003882331F08CE393E00E94E603682FE1
:103CA00002C060916E03812F0E94672BCE010E949B
:103CB000011C0DC0CE0163E070E007C0CE0162E0E0
:103CC00070E003C0CE0161E070E00E94811CDF91D2
:103CD000CF911F910F91FF90EF90DF90CF900895BB
:103CE0009F92AF92BF92CF92DF92EF92FF920F938B
:103CF0001F93DF93CF93CDB7DEB72F970FB6F8940E
:103D0000DEBF0FBECDBF5C01962E89EB91E00E9415
:103D10007A126C01009739F489EA94E06FE171E05E
:103D20000E94502F98C089EA94E00E94252D181611
:103D300019061CF4C5010E94B51D89EB91E00E9493
:103D400083128C0189EB91E0B60142E451E09801C5
:103D50000E949A0D89EB91E00E947A127C0189EB16
:103D600091E0B801A7010E94610D00D000D000D001
:103D7000EDB7FEB731968E010F5F1F4FADB7BEB7DF
:103D800012961C930E93119789E491E0938382839A
:103D9000948215820E94CD058DB79EB706960FB608
:103DA000F8949EBF0FBE8DBF89EB91E0B7014EE244
:103DB00051E098010E94A31289EB91E0B70140E322
:103DC00051E020E030E00E94011389EB91E0B7015F
:103DD00042E351E029E030E00E9401138AEB91E0D8
:103DE000692D49E050E00E94CC16AA2797FDA095C6
:103DF000BA2FBC01CD010E944E3120E030E040E2FC
:103E000051E40E94B3308B019C0189EB91E0B70132
:103E100044E351E00E94D31289EA94E00E94252DE8
:103E2000181619061CF4C5010E94B51D89EB91E016
:103E3000B6010E9474108C01009729F089EA94E081
:103E4000B8010E94502F89EB91E0B6010E94CF0D7E
:103E5000C8010E948A012F960FB6F894DEBF0FBEEC
:103E6000CDBFCF91DF911F910F91FF90EF90DF9029
:103E7000CF90BF90AF909F900895AF92BF92CF9296
:103E8000DF92EF92FF920F931F93DF93CF93CDB703
:103E9000DEB765970FB6F894DEBF0FBECDBF5C01ED
:103EA00089EB91E00E947A126C01009739F489EA5B
:103EB00094E06FE171E00E94502FA6C089EA94E07F
:103EC0000E94252D181619061CF4C5010E94B51D67
:103ED00089EB91E00E9483128C0189EB91E0B6019D
:103EE00042E451E098010E949A0D89EB91E00E9412
:103EF0007A127C0189EB91E0B801A7010E94610D63
:103F000089EB91E0B7014EE251E02CE431E00E94F0
:103F1000A31289EB91E0B70140E351E020E030E0EB
:103F20000E94011389EB91E0B70142E351E022E0E6
:103F300030E00E9401131A8219821C821B821E82A9
:103F40001D8282E992E0BE016F5F7F4FAE014D5F3F
:103F50005F4F9E012B5F3F4F01E00E94DD1A8DB73E
:103F60009EB70A970FB6F8949EBF0FBE8DBFEDB7F0
:103F7000FEB731968E01095F1F4FADB7BEB71296DF
:103F80001C930E9311978EE491E093838283898131
:103F90009A81958384838B819C81978386838D818D
:103FA0009E81918780870E94CD058DB79EB70A9626
:103FB0000FB6F8949EBF0FBE8DBF89EB91E0B7019D
:103FC00044E351E098010E94A31289EA94E00E9420
:103FD000252D181619061CF4C5010E94B51D89EB84
:103FE00091E0B6010E9474108C01009729F089EAD3
:103FF00094E0B8010E94502F89EB91E0B6010E9435
:10400000CF0DC8010E948A0165960FB6F894DEBFF5
:104010000FBECDBFCF91DF911F910F91FF90EF9019
:10402000DF90CF90BF90AF900895CF92DF92EF9244
:10403000FF920F931F93CF93DF936C0189EB91E075
:104040000E947A12EC01009739F489EA94E06FE15A
:1040500071E00E94502F73C089EA94E00E94252DE0
:10406000181619061CF4C6010E94B51D89EB91E0D3
:104070000E9483128C0189EB91E0BE0142E451E081
:1040800098010E949A0D89EA94E00E94252D181645
:1040900019061CF4C6010E94B51D89EB91E00E942F
:1040A0007A127C0189EB91E0B801A7010E94610DB1
:1040B00089EB91E0B7014EE251E02CE431E00E943F
:1040C000A31289EB91E0B70140E351E020E030E03A
:1040D0000E94011389EB91E0B70142E351E021E036
:1040E00030E00E9401138AEB91E00E9473168B016D
:1040F0009C0189EB91E0B70144E351E00E94D312A7
:1041000089EA94E00E94252D181619061CF4C601B0
:104110000E94B51D89EB91E0BE010E9474108C01D4
:10412000009729F089EA94E0B8010E94502F89EBAA
:1041300091E0BE010E94CF0DC8010E948A01DF916B
:10414000CF911F910F91FF90EF90DF90CF90089546
:10415000AF92BF92CF92DF92EF92FF920F931F9395
:10416000DF93CF93CDB7DEB727970FB6F894DEBFB6
:104170000FBECDBF5C0189EB91E00E947A126C0109
:10418000009739F489EA94E06FE171E00E94502FC2
:1041900096C089EA94E00E94252D181619061CF491
:1041A000C5010E94B51D89EB91E00E9483128C012C
:1041B00089EB91E0B60142E451E098010E949A0D2A
:1041C00089EA94E00E94252D181619061CF4C501F1
:1041D0000E94B51D89EB91E00E947A127C0189EB67
:1041E00091E0B801A7010E94610D89EB91E0B70150
:1041F0004EE251E02CE431E00E94A31289EB91E001
:10420000B70140E351E020E030E00E94011389EB68
:1042100091E0B70142E351E028EE33E00E94011340
:1042200085B1082F10E003701070CE0101965F9BDE
:1042300003C067E571E002C06AE571E00E944904CD
:10424000CE01019600FF03C067E571E002C06AE598
:1042500071E00E943E04CE01019601FF03C067E5B4
:1042600071E002C06AE571E00E943E0489EB91E0D2
:10427000B70144E351E09E012F5F3F4F0E94A3121C
:1042800089EA94E00E94252D181619061CF4C50130
:104290000E94B51D89EB91E0B6010E9474108C015B
:1042A000009729F089EA94E0B8010E94502F89EB29
:1042B00091E0B6010E94CF0DC8010E948A012796A5
:1042C0000FB6F894DEBF0FBECDBFCF91DF911F9127
:1042D0000F91FF90EF90DF90CF90BF90AF90089537
:1042E000FF920F931F93162F05B1FBB087E061E09B
:1042F0000E94672B88E061E00E94672B89E061E003
:104300000E94672B812F60E00E94672B60E570E0C0
:1043100080E090E00E94212A05B9FBB81F910F911F
:10432000FF9008950F931F93182F0E94BF2A6AE0F1
:1043300070E080E090E00E94212A812F0E94BF2A35
:10434000182F092F64E170E080E090E00E94212A9C
:10435000812F902F1F910F9108958F929F92BF925E
:10436000CF92DF92EF92FF920F931F93CF93DF9341
:104370004C01EB01188289EA94E00E94252D181661
:1043800019061CF4C4010E94B51D85E190E00E944D
:104390009221BC018AEB91E040E00E9498177C01D9
:1043A00088E0E816F10429F483E08883BB24B39401
:1043B00003C0F7FC0EC0BB2489EB91E00E947A1287
:1043C0006C01009741F489EA94E06FE171E00E948A
:1043D000502FBB2489C089EB91E00E9483128C018D
:1043E00089EB91E0B60142E451E098010E949A0DF8
:1043F00089EB91E00E947A12EC0189EB91E0B8011F
:10440000AE010E94610D89EB91E0BE014EE251E0E8
:1044100020E631E00E94A31289EB91E0BE0140E367
:1044200051E020E030E00E94011389EB91E0BE01F1
:1044300042E351E097010E940113E114F10429F4D1
:1044400085E190E00E94922128C0C7010897029759
:10445000F0F48AEB91E063E0A7010E94CC16AA2752
:1044600097FDA095BA2FBC01CD010E944E3120E0EE
:1044700030E040E251E40E94B3308B019C0189EBB3
:1044800091E0BE0144E351E00E94D3120EC08AEBDA
:1044900091E063E0A7010E94CC169C0189EB91E0BA
:1044A000BE0144E351E00E94011389EA94E00E94B6
:1044B000252D181619061CF4C4010E94B51D89EBA0
:1044C00091E0B6010E9474108C01009729F089EAEE
:1044D00094E0B8010E94502F89EB91E0B6010E9450
:1044E000CF0DC8010E948A018B2DDF91CF911F91C2
:1044F0000F91FF90EF90DF90CF90BF909F908F90A3
:1045000008958F929F92BF92CF92DF92EF92FF9287
:104510000F931F93CF93DF934C01EB01188289EA2D
:1045200094E00E94252D181619061CF4C4010E945F
:10453000B51D84E190E00E949221BC018AEB91E0DC
:1045400040E00E9498177C0188E0E816F10429F405
:1045500082E08883BB24B39403C0F7FC0EC0BB2465
:1045600089EB91E00E947A126C01009741F489EA8C
:1045700094E06FE171E00E94502FBB2489C089EB69
:1045800091E00E9483128C0189EB91E0B60142E434
:1045900051E098010E949A0D89EB91E00E947A12F5
:1045A000EC0189EB91E0B801AE010E94610D89EB4D
:1045B00091E0BE014EE251E022E631E00E94A312FA
:1045C00089EB91E0BE0140E351E020E030E00E9441
:1045D000011389EB91E0BE0142E351E097010E9493
:1045E0000113E114F10429F484E190E00E94922186
:1045F00028C0C70108970297F0F48AEB91E062E0C7
:10460000A7010E94CC16AA2797FDA095BA2FBC013E
:10461000CD010E944E3120E030E040E251E40E94A2
:10462000B3308B019C0189EB91E0BE0144E351E082
:104630000E94D3120EC08AEB91E062E0A7010E94B3
:10464000CC169C0189EB91E0BE0144E351E00E944D
:10465000011389EA94E00E94252D181619061CF40E
:10466000C4010E94B51D89EB91E0B6010E9474104F
:104670008C01009729F089EA94E0B8010E94502F3C
:1046800089EB91E0B6010E94CF0DC8010E948A011A
:104690008B2DDF91CF911F910F91FF90EF90DF90C5
:1046A000CF90BF909F908F9008957F928F929F920E
:1046B000AF92BF92CF92DF92EF92FF920F931F9330
:1046C000DF93CF93CDB7DEB727970FB6F894DEBF51
:1046D0000FBECDBF4C018B01FB01108289EA94E033
:1046E0000E94252D181619061CF4C4010E94B51D40
:1046F00081E190E00E949221BC018AEB91E040E0D0
:104700000E9498177C018B30910539F481E793E082
:1047100061E070E00E942D2810C081E793E00E94C4
:10472000042888E0E816F10431F481E0F801808380
:104730007724739403C0F7FC0EC0772489EB91E0D3
:104740000E947A125C01009741F489EA94E06FE1DB
:1047500071E00E94502F7724D9C089EB91E00E942C
:1047600083128C0189EB91E0B50142E451E098019C
:104770000E949A0D89EB91E00E947A126C0189EBFC
:1047800091E0B801A6010E94610D89EB91E0B601AC
:104790004EE251E024E631E00E94A31289EB91E061
:1047A000B60140E351E020E030E00E94011389EBC4
:1047B00091E0B60142E351E097010E940113E11438
:1047C000F10429F481E190E00E94922178C0C701B0
:1047D00008970297F0F48AEB91E061E0A7010E944C
:1047E000CC16AA2797FDA095BA2FBC01CD010E9437
:1047F0004E3120E030E040E251E40E94B3308B01C2
:104800009C0189EB91E0B60144E351E00E94D31290
:104810005EC0FBE0EF16F10409F04BC081E793E0C6
:104820000E94FE248823D9F181E793E00E94172596
:10483000672B51F489EB91E0B60144E351E02CE49D
:1048400031E00E94A31226C0C40168E00E947021DA
:1048500081E793E00E941725AB01BC018E010F5F39
:104860001F4FC80122E00E941230C8016CE373E0C0
:1048700042E350E020E030E00E94632F89EB91E0BA
:10488000B60144E351E02CE333E00E94A312C801D7
:104890000E94443081E793E00E940E2518C089EB06
:1048A00091E0B60144E351E026E631E00E94A31214
:1048B0000EC08AEB91E061E0A7010E94CC169C013A
:1048C00089EB91E0B60144E351E00E94011389EACB
:1048D00094E00E94252D181619061CF4C4010E94AC
:1048E000B51D89EB91E0B5010E9474108C01009711
:1048F00029F089EA94E0B8010E94502F89EB91E0F9
:10490000B5010E94CF0DC8010E948A01872D27960C
:104910000FB6F894DEBF0FBECDBFCF91DF911F91D0
:104920000F91FF90EF90DF90CF90BF90AF909F904E
:104930008F907F9008950F931F93DF93CF930F92E3
:10494000CDB7DEB78C0119820E941520C8010E94E4
:104950003D1FC8010E94A820C801BE016F5F7F4FA4
:104960000E945523882321F0C80169810E94701E8E
:10497000C801BE016F5F7F4F0E948122882321F012
:10498000C80169810E94701EC801BE016F5F7F4F20
:104990000E94AD21882321F0C80169810E94701E08
:1049A0000F90CF91DF911F910F910895FC018FEF30
:1049B0009FEF918380839383828310927A03109276
:1049C0007B0310927C0310927D038AE090E0978332
:1049D00086838CE390E09093700180936F0181E077
:1049E00080878EE591E0958384830895FC0175832B
:1049F00064830895FC0177836683089520E08091A5
:104A00007A0390917B03A0917C03B0917D03009782
:104A1000A105B10509F021E0822F089510927A03D3
:104A200010927B0310927C0310927D030895609195
:104A30007A0370917B0380917C0390917D030895AC
:104A40002F923F924F925F926F927F928F929F929E
:104A5000AF92BF92CF92DF92EF92FF920F931F938C
:104A6000DF93CF93CDB7DEB762970FB6F894DEBF72
:104A70000FBECDBF3C0180918403909185036FE10F
:104A800070E00E94E7334B017B0100E010E02091D1
:104A90006F0130917001442737FD4095542FC801B4
:104AA000B7010E94C8330E944C312AE037ED43E23F
:104AB0005CE30E94FE310E942031A8019701220F81
:104AC000331F441F551F2E0D3F1D401F511F5901FD
:104AD0006A01A61AB70AC80AD90AAD82BE82CF8275
:104AE000D8865B016C01A20EB31EC41ED51EA9821E
:104AF000BA82CB82DC82AA24BB24650121E030E0AB
:104B00003A87298717012801261A370A480A590ABD
:104B1000A8019701260F371F481F591F2F87388B71
:104B2000498B5A8B7AC0E985FA85EE0FFF1FEC5747
:104B3000FC4F808191819C0140E050E022163306B9
:104B40004406550658F58F859889A989BA8928178A
:104B500039074A075B0710F5E985FA85EE0FFF1F55
:104B6000EA57FC4F0190F081E02D7F0100E010E05A
:104B7000EB86FC860D871E878D819E81AF81B8856F
:104B80008E159F05A007B10748F489819A81AB81F2
:104B9000BC81E816F9060A071B0778F1ED80FE8054
:104BA0000F811885E216F3060407150758F5898169
:104BB0009A81AB81BC81281739074A075B0710F53A
:104BC000E985FA85EE0FFF1FEA57FC4F808191813E
:104BD000A0E0B0E0281639064A065B0698F4EF8498
:104BE000F88809891A898E159F05A007B10750F426
:104BF0000894A11CB11CC11CD11CAA0CBB1CCC1C50
:104C0000DD1C05C07A866986AA24BB246501098556
:104C10001A850E5F1F4F1A87098729853A85261541
:104C2000370508F480CFA60195015695479537952D
:104C3000279587E068167104C0F020937A033093BB
:104C40007B0340937C0350937D037694679470922A
:104C50007F0360927E03909281038092800381E0C3
:104C600090E0909383038093820380E021153105C7
:104C70004105510509F081E062960FB6F894DEBF58
:104C80000FBECDBFCF91DF911F910F91FF90EF909D
:104C9000DF90CF90BF90AF909F908F907F906F905C
:104CA0005F904F903F902F9008952F923F924F9298
:104CB0005F926F927F928F929F92AF92BF92CF92AC
:104CC000DF92EF92FF920F931F93DF93CF93CDB7B5
:104CD000DEB762970FB6F894DEBF0FBECDBF3C01C2
:104CE00080918403909185036AE070E00E94E7332D
:104CF0004B017B0100E010E020916F0130917001C9
:104D0000442737FD4095542FC801B7010E94C8338E
:104D10000E944C312AE037ED43E25CE30E94FE3111
:104D20000E942031A8019701220F331F441F551FF5
:104D300059016A01A61AB70AC80AD90AAD82BE8209
:104D4000CF82D8865B016C01A20EB31EC41ED51E95
:104D5000A982BA82CB82DC8221E030E03A872987BF
:104D6000AA24BB24650117012801261A370A480A1C
:104D7000590AA8019701260F371F481F591F2F876F
:104D8000388B498B5A8B7AC0E985FA85EE0FFF1F65
:104D9000EC57FC4F808191819C0140E050E022164D
:104DA00033064406550658F58F859889A989BA892E
:104DB000281739074A075B0710F5E985FA85EE0FD2
:104DC000FF1FEA57FC4F0190F081E02D7F0100E0CA
:104DD00010E0EB86FC860D871E878D819E81AF815A
:104DE000B8858E159F05A007B10748F489819A817F
:104DF000AB81BC81E816F9060A071B0778F1ED8044
:104E0000FE800F811885E216F3060407150758F592
:104E100089819A81AB81BC81281739074A075B07D2
:104E200010F5E985FA85EE0FFF1FEA57FC4F8081E8
:104E30009181A0E0B0E0281639064A065B0698F496
:104E4000EF84F88809891A898E159F05A007B10794
:104E500050F40894A11CB11CC11CD11CAA0CBB1C91
:104E6000CC1CDD1C05C07A866986AA24BB2465019A
:104E700009851A850E5F1F4F1A87098729853A858C
:104E80002615370508F480CFA6019501569547955C
:104E90003795279587E068167104C0F020937A0350
:104EA00030937B0340937C0350937D037694679407
:104EB00070927F0360927E039092810380928003C0
:104EC00082E090E0909383038093820380E0211539
:104ED00031054105510509F081E062960FB6F8945D
:104EE000DEBF0FBECDBFCF91DF911F910F91FF901D
:104EF000EF90DF90CF90BF90AF909F908F907F907A
:104F00006F905F904F903F902F900895CF92DF92D7
:104F1000EF92FF920F931F93CF93DF930E94FB2991
:104F20006B017C0180910C0490910D048601081B9B
:104F3000190B109313040093120483E10938180726
:104F400098F12091840330918503C901885C9040D9
:104F50008017910728F528533F4F0217130700F5D4
:104F600080910A0490910B04019690930B04809316
:104F70000A04C0911004D09111042197D093110418
:104F8000C0931004029761F4CE010E94202588236B
:104F900019F4CE010E94552610920B0410920A04B7
:104FA0001092110410921004809110049091110439
:104FB0008334910540F01092110410921004109265
:104FC0000B0410920A048091100490911104FC01CA
:104FD000EE0FFF1FEC57FC4F118300830196909357
:104FE000110480931004C0920C04D0920D04E0923E
:104FF0000E04F0920F04DF91CF911F910F91FF905B
:10500000EF90DF90CF9008950F931F938C01FC01D8
:1050100080810E9438298FEF9FEFF8019183808370
:105020001F910F910895FC01808191812FEF8F3F97
:10503000920791F010927A0310927B0310927C03F6
:1050400010927D0310927F0310927E0366E877E250
:1050500041E050E00E9415290895FC018081918172
:105060008617970729F071836083CF010E94132868
:105070000895AF92BF92DF92EF92FF920F931F932A
:10508000CF93DF93EC017B015A01088119818A815A
:105090009B818F5F9F4F89F13FEF0F3F130711F403
:1050A000DD2405C0CE010E940428DD24D3948A812A
:1050B00061E00E94672B8C819D819C01E29EC00172
:1050C000E39E900DF29E900D11240E947A2A8A810F
:1050D00060E00E94672B8C819D819C01A29EC00193
:1050E000A39E900DB29E900D11240E947A2ADD207D
:1050F00021F0CE01B8010E942D28DF91CF911F91A0
:105100000F91FF90EF90DF90BF90AF900895FC015A
:105110008085813041F4CF0161E070E04FE150E0E3
:105120000E9439280895823039F4CF0161E070E09F
:105130004AE050E00E9439280895FC0180858130C2
:1051400041F4CF0163E070E041E050E00E94392873
:105150000895823039F4CF0162E070E041E050E020
:105160000E9439280895FC018085813041F4CF01E7
:1051700061E070E043E050E00E94392808958230F9
:1051800039F4CF0161E070E042E050E00E9439283C
:105190000895CF92DF92EF92FF920F931F93CF93D8
:1051A000DF938C016B01EE24FF2416C0803319F0CD
:1051B000813341F404C0C8010E94B32803C0C80170
:1051C0000E949D2821968881882381F7C8010E942A
:1051D00087280894E11CF11CF80186819781E81664
:1051E000F90614F4E601EFCFDF91CF911F910F91F3
:1051F000FF90EF90DF90CF9008950F931F938C0155
:10520000FC01828160E00E94412B8FEF9FEFF8014B
:10521000938382831F910F910895FC01862F6283EF
:10522000738361E00E94412B0895823000F5E82FDE
:10523000F0E0EE0FFF1FEC5EFB4F7183608388236D
:1052400019F08130A1F408C0809169008C7F842B13
:1052500080936900E89A089580916900440F551F72
:10526000440F551F837F842B80936900E99A08952A
:10527000823080F4882319F0813021F402C0E8984C
:1052800001C0E998E82FF0E0EE0FFF1FEC5EFB4F46
:105290001182108208951F920F920FB60F9211245F
:1052A0002F933F934F935F936F937F938F939F932E
:1052B000AF93BF93EF93FF938091140490911504E3
:1052C000892B29F0E0911404F09115040995FF91C0
:1052D000EF91BF91AF919F918F917F916F915F916E
:1052E0004F913F912F910F900FBE0F901F901895E7
:1052F0001F920F920FB60F9211242F933F934F934B
:105300005F936F937F938F939F93AF93BF93EF932D
:10531000FF938091160490911704892B29F0E09156
:105320001604F09117040995FF91EF91BF91AF9189
:105330009F918F917F916F915F914F913F912F91AD
:105340000F900FBE0F901F9018951F920F920FB6DF
:105350000F9211242F933F938F939F93AF93BF93FB
:1053600080911C0490911D04A0911E04B0911F0413
:10537000309120040196A11DB11D232F2D5F2D37E3
:1053800020F02D570196A11DB11D2093200480937C
:105390001C0490931D04A0931E04B0931F048091DD
:1053A000180490911904A0911A04B0911B0401965D
:1053B000A11DB11D8093180490931904A0931A04A1
:1053C000B0931B04BF91AF919F918F913F912F910B
:1053D0000F900FBE0F901F9018958FB7F8942091E3
:1053E0001C0430911D0440911E0450911F048FBF76
:1053F000B901CA0108959FB7F8942091180430911B
:10540000190440911A0450911B0486B5A89B06C04C
:105410008F3F21F02F5F3F4F4F4F5F4F9FBF542F64
:10542000432F322F2227280F311D411D511D82E0AD
:10543000220F331F441F551F8A95D1F7B901CA01A6
:1054400008959B01AC017FB7F89480911804909166
:105450001904A0911A04B0911B0466B5A89B05C05D
:105460006F3F19F00196A11DB11D7FBFBA2FA92F63
:10547000982F8827860F911DA11DB11D62E0880F0E
:10548000991FAA1FBB1F6A95D1F7BC012DC0FFB79A
:10549000F8948091180490911904A0911A04B09185
:1054A0001B04E6B5A89B05C0EF3F19F00196A11DAE
:1054B000B11DFFBFBA2FA92F982F88278E0F911DDE
:1054C000A11DB11DE2E0880F991FAA1FBB1FEA951D
:1054D000D1F7861B970B885E9340C8F2215030406D
:1054E0004040504068517C4F211531054105510520
:1054F00071F60895019739F0880F991F880F991F49
:1055000002970197F1F70895789484B5826084BD7D
:1055100084B5816084BD85B5826085BD85B58160B7
:1055200085BDEEE6F0E0808181608083E1E8F0E017
:105530001082808182608083808181608083E0E846
:10554000F0E0808181608083E1EBF0E08081846025
:105550008083E0EBF0E0808181608083EAE7F0E027
:10556000808184608083808182608083808181608B
:1055700080838081806880831092C1000895982F75
:105580008E3008F09E509770809171018295880F3F
:10559000880F807C892B80937C0080917A008064C6
:1055A00080937A0080917A0086FDFCCF209178006C
:1055B00040917900942F80E030E0282B392BC901ED
:1055C00008951F93CF93DF93182FEB0161E00E94A2
:1055D000412B209709F44AC0CF3FD10509F449C0B7
:1055E000E12FF0E0E45BFE4F84918330C1F0843022
:1055F00028F4813051F08230B1F50CC0863019F1B9
:10560000873049F1843079F514C084B5806884BD51
:10561000C7BD33C084B5806284BDC8BD2EC0809133
:105620008000806880938000D0938900C0938800B8
:1056300024C080918000806280938000D0938B0092
:10564000C0938A001AC08091B00080688093B00037
:10565000C093B30012C08091B00080628093B0000C
:10566000C093B4000AC0C038D1051CF4812F60E09B
:1056700002C0812F61E00E94672BDF91CF911F91C3
:105680000895482F50E0CA01885C9E4FFC01249188
:105690004C5D5E4FFA0184918823C1F0E82FF0E061
:1056A000EE0FFF1FEA5FFE4FA591B491662341F410
:1056B0009FB7F8948C91209582238C939FBF089577
:1056C0009FB7F8948C91822B8C939FBF0895482F9D
:1056D00050E0CA01845B9E4FFC012491CA01885CA2
:1056E0009E4FFC0194914C5D5E4FFA01349133233F
:1056F00009F440C0222351F1233071F0243028F402
:105700002130A1F0223011F514C02630B1F027303D
:10571000C1F02430D9F404C0809180008F7703C099
:10572000809180008F7D8093800010C084B58F773A
:1057300002C084B58F7D84BD09C08091B0008F7791
:1057400003C08091B0008F7D8093B000E32FF0E024
:10575000EE0FFF1FE05FFE4FA591B4912FB7F894B5
:10576000662321F48C919095892302C08C91892B1A
:105770008C932FBF0895682F70E0CB01845B9E4F00
:10578000FC012491CB01885C9E4FFC0144916C5D2F
:105790007E4FFB019491992319F420E030E03CC046
:1057A000222351F1233071F0243028F42130A1F06C
:1057B000223011F514C02630B1F02730C1F024306A
:1057C000D9F404C0809180008F7703C0809180005D
:1057D0008F7D8093800010C084B58F7702C084B520
:1057E0008F7D84BD09C08091B0008F7703C0809108
:1057F000B0008F7D8093B000892F90E0880F991FB3
:10580000865E9E4FFC01A591B4918C9120E030E022
:10581000842311F021E030E0C901089508951F921A
:105820000F920FB60F9211242F933F934F938F93A4
:105830009F93EF93FF934091C600209161043091B4
:1058400062042F5F3F4F2F733070809163049091FB
:1058500064042817390759F0E0916104F09162045B
:10586000EF5DFB4F40833093620420936104FF910E
:10587000EF919F918F914F913F912F910F900FBE7C
:105880000F901F901895E091B504F091B604E05C7C
:10589000FF4F8191919120813181821B930B8F73F6
:1058A0009070892B11F00E940E2C08951F920F9278
:1058B0000FB60F9211242F933F934F935F936F93E3
:1058C0007F938F939F93AF93BF93EF93FF93209119
:1058D000A5043091A6048091A7049091A8042817EC
:1058E000390731F48091C1008F7D8093C10016C0CB
:1058F000E091A704F091A804EB59FB4F40818091FF
:10590000A7049091A804019660E470E00E94FB3324
:105910009093A8048093A7044093C600FF91EF9151
:10592000BF91AF919F918F917F916F915F914F91B7
:105930003F912F910F900FBE0F901F901895AF922F
:10594000BF92DF92EF92FF920F931F93CF93DF935B
:10595000EC017A018B01DD24403081EE580780E0B4
:10596000680780E0780711F0DD24D39491E0A92E38
:10597000B12CEC89FD89DD2069F0C5010E8C02C0D7
:10598000880F991F0A94E2F7808360E079E08DE345
:1059900090E005C0108260E874E88EE190E0A80114
:1059A00097010E940E34215030404040504056959F
:1059B00047953795279580E12030380720F0DD2086
:1059C00011F0DD24D6CFE889F9893083EA89FB8993
:1059D0002083EE89FF89408121E030E0C9010A8CF3
:1059E00002C0880F991F0A94E2F7482B4083EE8982
:1059F000FF894081C9010B8C02C0880F991F0A944E
:105A0000E2F7482B4083EE89FF894081C9010C8C65
:105A100002C0880F991F0A94E2F7482B4083EE8951
:105A2000FF8980810D8C02C0220F331F0A94E2F798
:105A3000209528232083DF91CF911F910F91FF9014
:105A4000EF90DF90BF90AF900895DC011C96ED9130
:105A5000FC911D97E05CFF4F2191319180819181F4
:105A6000281B390B2F733070C9010895DC011C9677
:105A7000ED91FC911D97E05CFF4F20813181E05456
:105A8000F040DF01AE5BBF4F8D919C9111972817BD
:105A9000390719F42FEF3FEF07C08D919C91E80F64
:105AA000F91F8081282F30E0C9010895DC011C9680
:105AB000ED91FC911D97E05CFF4F20813181E05416
:105AC000F040DF01AE5BBF4F8D919C91119728177D
:105AD000390719F42FEF3FEF10C08D919C9111976A
