:100000000C94B6000C9499290C94C6290C94DE002B
:100010000C94DE000C94DE000C94DE000C94DE00E8
:100020000C94DE000C94DE000C94DE000C94DE00D8
:100030000C94DE000C94DE000C94DE000C94DE00C8
:100040000C94F3290C94DE000C945D2C0C94A42CDD
:100050000C94DE000C94DE000C94DE000C94DE00A8
:100060000C9445190C94DE0007634236B79BD8A761
:100070001A39685618AEBAAB558C1D3CB7CC5763CD
:10008000BD6DEDFD753EF6177231BF000000803F7B
:1000900008000000BE922449123EABAAAA2ABECD97
:1000A000CCCC4C3E00000080BEABAAAAAA3E000009
:1000B0000000BF000000803F000000000008417801
:1000C000D3BB4387D1133D190E3CC3BD4282AD2B38
:1000D0003E68EC8276BED98FE1A93E4C80EFFFBE30
:1000E00001C4FF7F3F000000000074727565006668
:1000F000616C7365006E756C6C0025750025752E3E
:10010000002D0025640000000000240027002A00C4
:1001100000000000250028002B0000000000230044
:100120002600290004040404040404040202020258
:1001300002020303030303030102040810204080AA
:10014000010204081020010204081020000000072A
:10015000000201000003040600000000000000008F
:10016000CF0A72166018291C2E1C1B2E11241FBECC
:10017000CFEFD8E0DEBFCDBF11E0A0E0B1E0E0E915
:10018000F9E602C005900D92AA39B107D9F715E03A
:10019000AAE9B1E001C01D92AC3DB107E1F711E061
:1001A000CCE6D1E004C02297FE010E948034C03624
:1001B000D107C9F70E946B2E0C94C6340C94000032
:1001C000CF93DF93BC018230910510F462E070E0C0
:1001D000A091D205B091D305ED01E0E0F0E040E060
:1001E00050E021C0888199818617970769F48A8138
:1001F0009B81309719F09383828304C09093D30539
:100200008093D205FE0134C06817790738F4411590
:10021000510519F08417950708F4AC01FE018A8195
:100220009B819C01E9012097E9F641155105A9F14F
:10023000CA01861B970B049708F4BA01E0E0F0E0CE
:100240002AC08D919C91119784179507F9F4641732
:10025000750781F412968D919C911397309719F040
:100260009383828304C09093D3058093D205FD01CC
:1002700032964CC0CA01861B970BFD01E80FF91F8F
:100280006193719302978D939C9340C0FD0182818D
:1002900093819C01D9011097A1F68091D00590918E
:1002A000D105892B41F48091730190917401909351
:1002B000D1058093D005409175015091760141158B
:1002C000510541F44DB75EB7809171019091720173
:1002D000481B590B2091D0053091D105CA01821BD2
:1002E000930B8617970780F0AB014E5F5F4F841723
:1002F000950750F0420F531F5093D1054093D005FE
:10030000F9016193719302C0E0E0F0E0CF01DF9169
:10031000CF910895CF93DF93009709F450C0EC017B
:1003200022971B821A82A091D205B091D305109713
:1003300009F140E050E0AC17BD0708F1BB83AA8388
:10034000FE0121913191E20FF31FAE17BF0779F43F
:100350008D919C911197280F391F2E5F3F4F398344
:10036000288312968D919C9113979B838A834115C4
:10037000510571F4D093D305C093D20520C01296D5
:100380008D919C911397AD01009711F0DC01D3CFB3
:10039000FA01D383C28321913191E20FF31FCE176B
:1003A000DF0769F488819981280F391F2E5F3F4F3D
:1003B000FA01318320838A819B8193838283DF9139
:1003C000CF910895A0E0B0E0E8EEF1E00C94913414
:1003D0006C01009729F4CB010E94E0006C01C1C0C0
:1003E0008EEF882E8FEF982E8C0C9D1C8601060FA9
:1003F000171F0815190508F4B2C0F401A081B181D6
:10040000A617B707B8F0A530B10508F4AAC0CD010A
:1004100004978617970708F4A4C01297A61BB70B7A
:10042000F801A193B193D4016D937C93CF010E9405
:100430008A0197C07B01EA1AFB0AEEEFFFEFEE0E8E
:10044000FF1E36016A0E7B1EC091D205D091D305E6
:1004500044245524AA24BB244AC0C615D705E1F577
:10046000488159814E155F05B8F1CA0104978E1570
:100470009F05B0F41296A40FB51FF401B183A083B9
:100480002A813B814114510431F0D20113963C93EF
:100490002E93129766C03093D3052093D20561C086
:1004A0008A819B81F80193838283425050404E1988
:1004B0005F09518340834114510431F0D2011396F6
:1004C0001C930E93129704C01093D3050093D2058A
:1004D000F4017183608345C088819981A816B906AB
:1004E00008F45C012E018A819B819C01E90120971F
:1004F00009F0B3CF8091D0059091D105861597056D
:10050000E9F4A616B706D0F4209175013091760172
:100510002115310541F42DB73EB7809171019091BD
:100520007201281B390B02171307C8F41093D10569
:100530000093D005D4016D937C9313C0CB010E942E
:10054000E000EC01009759F0F40140815181B601BF
:100550000E942204C6010E948A016E0102C0CC24BE
:10056000DD24C601CDB7DEB7E0E10C94AD342F92A7
:100570003F925F926F927F928F929F92AF92BF92C3
:10058000CF92DF92EF92FF920F931F93CF93DF935F
:100590008C011B01EA016115710519F0FB019183C2
:1005A0008083209749F0CE010297839728F020E0BE
:1005B00030E040E050E0F6C0F801A1908F018A2DB4
:1005C00090E00E948434892BB9F7FDE2AF1631F434
:1005D000F801A1908F015524539407C0FBE2AF1698
:1005E00019F4F801A1908F015524209719F0C0311A
:1005F000D105C1F4F0E3AF1679F4F80180818837B2
:1006000011F0883549F4F801A1800E5F1F4FF2E028
:100610005F2AC0E1D0E006C0209721F480E3A8164D
:10062000E9F427C0C830D10531F1C930D10524F42F
:10063000C230D10531F50CC0CA30D10589F0C031C6
:10064000D105F9F4C12CD12CE12CB8E0FB2E28C047
:10065000C12CD12CE12CA0E4FA2E22C0CAE0D0E0BB
:10066000FCECCF2EFCECDF2EFCECEF2EFCE0FF2EA2
:1006700017C0C8E0D0E0C12CD12CE12CE0E1FE2E67
:100680000FC09E01442737FD4095542F60E070E075
:1006900080E090E80E945C34C901DA016C017D01C0
:1006A00020E030E040E050E060E03E01882477FC4C
:1006B0008094982C70EDB72EBA0CE9E0EB1570F42D
:1006C0008A2D81548A3118F499ECB92E06C08A2DEE
:1006D00081568A3150F589EAB82EBA0C8B2D90E0FC
:1006E0008C179D0714F56F3FE1F0C216D306E406A0
:1006F000F506B0F0CA01B901A40193010E941634B5
:100700009B01AC012B0D311D411D511D2130F0E02D
:100710003F07F0E04F07F0E85F0710F461E001C029
:100720006FEFF801A1908F01C5CF2114310481F042
:10073000662331F001501040F1011183008308C09D
:1007400051FE1AC002501040F1011183008314C001
:1007500067FF12C050FC05C02FEF3FEF4FEF5FE780
:1007600004C020E030E040E050E882E290E0909366
:10077000DB058093DA0516C050FE08C05095409501
:10078000309521953F4F4F4F5F4F0CC057FF0AC028
:1007900082E290E09093DB058093DA052FEF3FEF44
:1007A0004FEF5FE7B901CA01DF91CF911F910F9120
:1007B000FF90EF90DF90CF90BF90AF909F908F9081
:1007C0007F906F905F903F902F900895FC01882755
:1007D0009927E89421912032E9F3293010F02E3046
:1007E000C8F32B3241F02D3239F4689404C00E94D2
:1007F0007604820F911D219120532A30C0F31EF4FC
:10080000909581959F4F08950F931F93CF93DF93FA
:10081000182F092FE82FF92FDF010D900020E9F79D
:10082000CD018E1B9F0B0E94E000EC01009721F090
:10083000612F702F0E945204CE01DF91CF911F9142
:100840000F910895FB01DC0102C001900D9241500F
:100850005040D8F70895FB01DC018D9181341CF0E4
:100860008B350CF4805E619161341CF06B350CF4B7
:10087000605E861B611189F3990B0895FB01DC0111
:100880000D900020E9F7119701900D920020E1F7FB
:100890000895FB01DC018D91019080190110D9F3BD
:1008A000990B0895FB01DC0101900D920020E1F706
:1008B0000895FB01DC014150504030F08D910190D2
:1008C000801919F40020B9F7881B990B0895FB01D2
:1008D000DC014150504048F001900D920020C9F7D2
:1008E00001C01D9241505040E0F708957AE0979F73
:1008F000902D879F802D910D11240895FA01CF939B
:10090000FF93EF932230CCF02532BCF4C22F2C2F72
:10091000332744275527FF93EF930E945C34EF91D0
:10092000FF91605D6A330CF0695D6193B901CA01A2
:10093000605070408040904051F710828F919F919D
:10094000CF910C942A08FC01838187FF24C08091F9
:10095000D4059091D5058E179F0721F41092D505E7
:100960001092D4058091D6059091D7058E179F07D8
:1009700021F41092D7051092D6058091D805909158
:10098000D9058E179F0721F41092D9051092D8052A
:10099000CF010E948A0180E090E008950F931F9399
:1009A000CF93DF938C01EB01009731F46115710552
:1009B00019F420E030E038C081E090E06EE070E0B3
:1009C0000E94F107FC019C01009771F180E883838C
:1009D000209771F0D387C28781E883838091D40503
:1009E0009091D505892B21F4F093D505E093D4059A
:1009F00001151105C9F01187008783818260838307
:100A00008091D6059091D705892B71F4F093D70585
:100A1000E093D6058091D8059091D905892B21F4D2
:100A2000F093D905E093D805C901DF91CF911F91CB
:100A30000F910895CF93DF93EC014B8140FF1AC0D3
:100A400046FF0AC04F7B4B838E819F8101969F8317
:100A50008E838A81282F2BC042FF13C0E881F98141
:100A60008081282F332727FD30952115310529F462
:100A700040624B832FEF3FEF1BC03196F983E88331
:100A800011C0EA85FB85CE0109959C0197FF0AC03C
:100A90009B812F5F3F4F11F080E201C080E1892BE5
:100AA0008B83E8CF8E819F8101969F838E8330E078
:100AB000C901DF91CF910895A0E0B0E0E2E6F5E052
:100AC0000C949D340F8118859E01255F3F4FF801DE
:100AD000838188608383C80169857A85A9010E9422
:100AE0001406F8012381277F23832096E4E00C94E9
:100AF000B9340F931F93CF93DF938C01EB018B815C
:100B000081FF1BC082FF0DC02E813F818C819D81A2
:100B10002817390764F4E881F9810193F983E883A0
:100B200006C0E885F985802F0995892B31F48E81DF
:100B30009F8101969F838E8302C00FEF1FEFC80134
:100B4000DF91CF911F910F910895A0E0B0E0EBEA03
:100B5000F5E00C949534FC014B015A016901D9016F
:100B600013968C9180FF1AC07F01C0E0D0E010C0C6
:100B7000C6010E941A05BFEF8F3F9B0789F0F7015E
:100B800081937F010F5F1F4F0815190588F3219688
:100B9000CA15DB0528F400E010E0F6CFC0E0D0E095
:100BA000CE01CDB7DEB7ECE00C94B134AEE0B0E0EE
:100BB000ECEDF5E00C949D340D891E8986E08C8364
:100BC0001A8309838FEF9FE79E838D839E01275EA3
:100BD0003F4FCE0101966F89788DA9010E941406BE
:100BE0002F813885020F131FF80110822E96E4E042
:100BF0000C94B9349C01FB01838180FF11C086FDF8
:100C00000FC09FEF2F3F390759F0228380648F7DFB
:100C100083838681978101979783868330E002C022
:100C20002FEF3FEFC9010895ABE0B0E0EAE1F6E055
:100C30000C948F343C012B015A01FC01178216825F
:100C4000838181FD03C06FEF7FEFC6C19AE0892EDB
:100C50001E010894211C311CF3012381F20123FDA4
:100C6000859123FF81912F01882309F4B2C1853238
:100C700039F423FD859123FF81912F01853229F4D9
:100C800090E0B3010E947905E7CF982FFF24EE246E
:100C90009924FFE1FF15D0F09B3269F09C3228F4D3
:100CA000903259F0933291F40EC09D3249F0903356
:100CB00069F441E024C052E0F52A84E0F82A28C013
:100CC00098E0F92A25C0E0E1FE2A22C0F7FC29C0FD
:100CD000892F80538A3070F4F6FE05C0989C902CC2
:100CE0001124980E15C0E89CE02C1124E80EF0E2C7
:100CF000FF2A0EC09E3229F4F6FC6BC140E4F42AB0
:100D000007C09C3619F450E8F52A02C0983649F419
:100D1000F20123FD959123FF91912F01992309F071
:100D2000B8CF892F8554833018F08052833038F43F
:100D300044E050E0A40EB51E5FE359830FC0933624
:100D400031F0933779F0933509F056C020C0F501A2
:100D50008081898342E050E0A40EB51E610101E06C
:100D600010E012C0F501C080D180F6FC03C06FEF27
:100D70007FEF02C0692D70E042E050E0A40EB51E86
:100D8000C6010E941F088C015FE7F52214C0F5011F
:100D9000C080D180F6FC03C06FEF7FEF02C0692DE9
:100DA00070E042E050E0A40EB51EC6010E940D089E
:100DB0008C0150E8F52AF3FE07C01AC080E290E0EB
:100DC000B3010E947905EA948E2D90E00817190767
:100DD000A8F30EC0F601F7FC8591F7FE81916F0133
:100DE00090E0B3010E947905E110EA9401501040AF
:100DF0000115110579F7EAC0943611F0993669F5B5
:100E0000F7FE08C0F501208131814281538184E0E1
:100E100090E00AC0F501808191819C01442737FD53
:100E20004095542F82E090E0A80EB91E9FE6F9226B
:100E300057FF09C050954095309521953F4F4F4F32
:100E40005F4FE0E8FE2ACA01B901A1012AE030E0C3
:100E50000E943A08D82ED21840C0953729F41F2D89
:100E60001F7E2AE030E01DC01F2D197F9F3661F0E4
:100E7000903720F4983509F0ACC00FC0903739F0A6
:100E8000983709F0A6C004C028E030E00AC010611D
:100E900014FD146020E130E004C014FD166020E170
:100EA00032E017FF08C0F501608171818281938172
:100EB00044E050E008C0F50180819181BC0180E0F0
:100EC00090E042E050E0A40EB51EA1010E943A0855
:100ED000D82ED2188FE7F82EF122F6FE0BC05EEF67
:100EE000F522D91438F4F4FE07C0F2FC05C08FEEE9
:100EF000F82202C01D2D01C0192DF4FE0DC0FE0107
:100F0000ED0DF11D8081803319F499EEF92208C0AE
:100F10001F5FF2FE05C003C08F2D867809F01F5FAA
:100F20000F2DF3FC14C0F0FE0FC01E1510F09D2C09
:100F30000BC09D2C9E0C911A1E2D06C080E290E0E5
:100F4000B3010E9479051F5F1E15C0F304C01E1572
:100F500010F4E11A01C0EE2404FF0FC080E390E01A
:100F6000B3010E94790502FF1DC001FD03C088E79F
:100F700090E00EC088E590E00BC0802F867891F05D
:100F800001FF02C08BE201C080E2F7FC8DE290E03D
:100F9000B3010E94790506C080E390E0B3010E948E
:100FA00079059A94D914C0F3DA94F101ED0DF11D8D
:100FB000808190E0B3010E947905DD20A9F706C089
:100FC00080E290E0B3010E947905EA94EE20C1F737
:100FD00043CEF30166817781CB012B96E2E10C943D
:100FE000AB340F931F93CF93DF93689F8001699F6A
:100FF000100D789F100D1124C8010E94E000EC0133
:10100000009729F060E070E0A8010E941808CE0166
:10101000DF91CF911F910F910895FC0105906150D0
:1010200070400110D8F7809590958E0F9F1F0895FE
:10103000DC0101C06D9341505040E0F70895FC0180
:101040006150704001900110D8F7809590958E0FF7
:101050009F1F0895DC01FC01672F71917723E1F751
:10106000329704C07C916D9370836291AE17BF0775
:10107000C8F30895FA01AA27283051F1203181F1EF
:10108000E8946F936E7F6E5F7F4F8F4F9F4FAF4F90
:10109000B1E03ED0B4E03CD0670F781F891F9A1FA3
:1010A000A11D680F791F8A1F911DA11D6A0F711D57
:1010B000811D911DA11D20D009F468943F912AE063
:1010C000269F11243019305D3193DEF6CF0108954B
:1010D000462F4770405D4193B3E00FD0C9F7F6CF7C
:1010E000462F4F70405D4A3318F0495D31FD405244
:1010F000419302D0A9F7EACFB4E0A69597958795DA
:1011000077956795BA95C9F70097610571050895B8
:101110009B01AC010A2E0694579547953795279564
:10112000BA95C9F7620F731F841F951FA01D0895FC
:101130000F931F930BE912E0C8010E94E924C80134
:101140000E94E71D1F910F91089581EB94E040E804
:1011500055E260E070E00E94ED2C87E061E00E94C3
:101160008F2B88E061E00E948F2B89E061E00E9474
:101170008F2B87E061E00E94B52B88E061E00E9440
:10118000B52B89E061E00E94B52B0895DC01862F24
:1011900090E0FC01E85CFE4FE491EC938C5D9E4F87
:1011A000FC016491E62FF0E0EE0FFF1FE65EFE4FBC
:1011B0008591949112969C938E9311970895FC01BA
:1011C0002781308541855285B901CA010895FC0106
:1011D0002385348545855685B901CA0108950F9345
:1011E0001F938C01862F90E0FC01E85CFE4FE49198
:1011F000D801EC938C5D9E4FFC016491E62FF0E0EA
:10120000EE0FFF1FE65EFE4F8591949112969C9320
:101210008E9311970E943B2AD80113966D937D936C
:101220008D939C93169780E090E0A7ECB2ECF801C8
:1012300087839087A187B28783879487A587B6879E
:101240001F910F9108954F925F927F928F929F927C
:10125000AF92BF92CF92DF92EF92FF920F931F93C4
:10126000DF93CF93CDB7DEB7A9970FB6F894DEBF63
:101270000FBECDBF5C01FC017080018112810E9414
:101280003B2A9B01AC014E010894811C911C240156
:10129000CE018A96F20111922F01E817F907D1F7D2
:1012A000F50183819481A581B68169017A01C81A0B
:1012B000D90AEA0AFB0AD701C601805D9740A0401F
:1012C000B04018F427E030E02EC1F50123833483C9
:1012D00045835683F894F8018181E72CE0948E21B0
:1012E00081837894FF24C72CDD2407C0F394FEE7A4
:1012F000FF1619F421E030E016C182E090E00E9470
:10130000C82AF801808190E08C219D21892B71F3FE
:10131000F894F80182818E218283818187298183DB
:1013200078948CE494E00E94C82AF894F8018181B2
:101330008E2181837894FF2407C0F394FAE1FF168D
:1013400019F422E030E0EFC082E090E00E94C82A69
:10135000F801808190E08C219D21892B71F3FF247D
:1013600007C0F394F3E3FF1619F423E030E0DBC089
:1013700082E090E00E94C82AF801808190E08C21F0
:101380009D21892B71F7FF2407C0F394F4E2FF1627
:1013900019F424E030E0C7C082E090E00E94C82A3F
:1013A000F801808190E08C219D21892B71F3FF242D
:1013B00006C0F3E3FF1619F425E030E0B4C0F3945F
:1013C00082E090E00E94C82AF801808190E08C21A0
:1013D0009D21892B71F7F401F1924F01E415F50578
:1013E00091F6EE24FF2420E030E0DE01119660E16A
:1013F00070E041E050E02F5F3F4FFD01E20FF31F2F
:1014000080818C3058F0CB01821B930B6A0102C0A3
:10141000CC0CDD1C8A95E2F7EC28FD282031310543
:1014200051F7FE01729600E010E02FE030E041E05D
:1014300050E080818C3048F0CA01022E02C0880F33
:10144000991F0A94E2F7082B192B2150304031964E
:101450006FEF2F3F360769F7FE01B296DD2427E0D4
:1014600030E041E050E080818C3040F0CA01022E33
:1014700002C0880F991F0A94E2F7D82A2150304001
:101480003196E415F50579F7B7017F77882777FD61
:101490008095982F0E949C3120E030E040E251E49A
:1014A0000E940131F501678370878187928717FF5A
:1014B0000DC01F77B801882777FD8095982F0E946F
:1014C0009C3120E030E040E251EC0BC0B8018827AD
:1014D00077FD8095982F0E949C3120E030E040E21B
:1014E00051E40E940131F5016387748785879687EF
:1014F0004D2D50E02F2D332727FD3A958E2D90E06E
:10150000820F911D800F911D212F332727FD3A95C2
:10151000820F911D90704817590719F026E030E0AE
:1015200002C020E030E0C901A9960FB6F894DEBFF2
:101530000FBECDBFCF91DF911F910F91FF90EF9024
:10154000DF90CF90BF90AF909F908F907F905F90F3
:101550004F900895449A459AE9EBF0E080818E7FA0
:10156000808380818D7F808388E48093B80084E4C9
:101570008093BC000895FC0180919A0190919C0198
:10158000981B90939B01882319F410929B01089556
:10159000815080939A01E90FF11D82810895089589
:1015A000EF92FF920F931F930E943B2A7B018C01C5
:1015B00084E98093BC001BC021153105E1F00E9435
:1015C0003B2A6E197F09800B910B20919D01309170
:1015D0009E0140E050E0621773078407950738F0DA
:1015E0001092BC0084E48093BC0081E009C020918B
:1015F0009D0130919E018091BC0084FDDDCF80E093
:101600001F910F91FF90EF900895CF92DF92EF928C
:10161000FF921F93162F0E943B2A6B017C0111231E
:1016200011F084EC01C084E88093BC001BC021153C
:101630003105E1F00E943B2A6C197D098E099F0952
:1016400020919D0130919E0140E050E062177307A8
:101650008407950738F01092BC0084E48093BC00A6
:1016600091E019C020919D0130919E018091BC00B4
:1016700087FFDDCF8091B900887F883349F490914E
:10168000B900987F1092BC0084E48093BC0003C032
:101690009091B900987F892F1F91FF90EF90DF9074
:1016A000CF900895EF92FF920F931F93CF93DF9304
:1016B000EC016093BB000E943B2A7B018C0184E813
:1016C0008093BC001BC021153105E1F00E943B2A2C
:1016D0006E197F09800B910B20919D0130919E0125
:1016E00040E050E0621773078407950738F01092C6
:1016F000BC0084E48093BC0011E020C020919D01D7
:1017000030919E018091BC0087FFDDCF8091B900B0
:10171000887F883211F410E011C01091B900187F51
:101720008091B900887F803321F4CE010E94D00AD5
:1017300005C01092BC0084E48093BC00812FDF912F
:10174000CF911F910F91FF90EF900895EF92FF922C
:101750000F931F93CF93DF93EC016093BB000E9424
:101760003B2A7B018C0184E88093BC001BC02115BF
:101770003105E1F00E943B2A6E197F09800B910B25
:1017800020919D0130919E0140E050E06217730767
:101790008407950738F01092BC0084E48093BC0065
:1017A00011E01DC020919D0130919E018091BC00EF
:1017B00087FFDDCF8091B900887F883179F08091F3
:1017C000B900887F803499F409C08091B900887F7E
:1017D0008834B1F4CE010E94D00A01C010E0812FFC
:1017E000DF91CF911F910F91FF90EF90089510918D
:1017F000B900187F8091B900887F803231F7EACF35
:101800001092BC0084E48093BC00E9CFEF92FF9279
:101810000F931F930E943B2A7B018C0184EA8093E3
:10182000BC001BC021153105E1F00E943B2A6E1956
:101830007F09800B910B20919D0130919E0140E02A
:1018400050E0621773078407950738F01092BC00C8
:1018500084E48093BC0091E021C020919D013091EF
:101860009E018091BC0087FFDDCF8091B900887F09
:10187000883099F08091B900887F8031A9F40DC03B
:101880009091B900987F1092BC0084E48093BC00D2
:1018900005C09091B900987F01C090E0892F1F91F9
:1018A0000F91FF90EF9008958091B900887F883361
:1018B00081F7E6CFEF92FF920F931F93CF93DF93C1
:1018C000EC01162F042FE22E10929A0110929B0128
:1018D000222311F4EE24E394EA94E982E39418823B
:1018E000CE010E94060C8883882309F061C0110F85
:1018F000CE01612F0E94A60B8883882329F08130B6
:1019000009F056C082E054C0CE01602F0E94520BF5
:101910008883882329F0813009F04AC083E048C0D9
:10192000CE010E94060C8883882329F0813009F0BB
:101930003FC084E03DC01F5FCE01612F0E94A60B17
:101940008883882319F48E01FF2425C0813081F516
:1019500085E02EC08981F81651F4CE0160E00E9426
:10196000050B8883813019F1883551F021C0CE01F3
:1019700061E00E94050B88838130C9F08035C1F495
:101980008091BB00F8018283F394F0929A01F09267
:101990009C010F5F1F4FFE14E8F2CE010E94D00A97
:1019A0008883882329F0813019F487E001C086E01C
:1019B000DF91CF911F910F91FF90EF900895FF92CB
:1019C0000F931F93CF93DF93EC01162F042FF22E6A
:1019D00018820E94060C8883882341F5110FCE01DE
:1019E000612F0E94A60B8883882321F08130F1F4B7
:1019F00082E01CC0CE01602F0E94520B8883882396
:101A000039F4CE016F2D0E94520B8883882319F080
:101A1000813061F40AC0CE010E94D00A88838823F5
:101A200029F0813019F487E001C083E0DF91CF9184
:101A30001F910F91FF9008950F931F93CF93DF9302
:101A4000EC01162F042F18820E94060C888388232D
:101A500001F5110FCE01612F0E94A60B8883882308
:101A600021F08130B1F482E014C0CE01602F0E94D9
:101A7000520B8883882321F0813059F483E009C018
:101A8000CE010E94D00A8883882319F0813009F49E
:101A900087E0DF91CF911F910F910895FB010680A0
:101AA000F781E02D80E004C08F5F0280F381E02D9C
:101AB0003097D1F70895FB010680F781E02D04C02F
:101AC00041500280F381E02D309711F04423C1F79B
:101AD000CF010895CF93DF93EB01DA01EE81FF810F
:101AE0004115510591F0309719F45F834E830DC075
:101AF000CF010280F381E02D3097D1F7FC01B38351
:101B0000A28315969C938E931497DF91CF9108959D
:101B10000F931F93CF93DF93FB018A01C681D78177
:101B200003C00A80DB81C02D209739F0888199811C
:101B3000B8010E942B04892BA1F7CE01DF91CF9130
:101B40001F910F910895EF92FF920F931F93CF93E0
:101B5000DF937B018A01E9012115310511F18881AB
:101B60009981009711F00E948A01C8010E94040423
:101B700088839983D7011696ED91FC91179730973A
:101B800029F41796DC93CE9316970BC0CF010280F1
:101B9000F381E02D3097D1F7FC01D383C2839D837D
:101BA0008C83DF91CF911F910F91FF90EF9008955B
:101BB000EF92FF920F931F93CF93DF938C01EB0172
:101BC00023C0FA80EB80888587FD08C06E817F8105
:101BD0006115710519F0C8010E94D80D88858530FE
:101BE00031F489859A85009711F00E948A018881D5
:101BF0009981009711F00E948A01CE010E948A010A
:101C00008F2D9E2D9C01E9012097D9F6DF91CF9170
:101C10001F910F91FF90EF9008950F931F93CF9313
:101C2000DF938B01EA0182E290E0BA010E9479051C
:101C30008F5F9F4F09F464C00115110509F050C072
:101C400054C0803240F0823231F08C3521F0992737
:101C500087FD909534C08CE590E0BE010E94790527
:101C60008F5F9F4F09F44CC0F80180818C30C9F020
:101C70008D303CF4893051F18A30B1F0883071F503
:101C80000DC0823241F08C3519F08D3039F515C018
:101C90008CE590E01DC082E290E008C082E690E012
:101CA0000EC086E690E014C08EE690E0BE010E9471
:101CB00079058F5F9F4F91F423C082E790E0BE01CA
:101CC0000E9479058F5F9F4F49F41AC084E790E026
:101CD000BE010E9479058F5F9F4F91F00F5F1F4FEC
:101CE000F8018081882309F0ACCF82E290E0BE0148
:101CF0000E9479058F5F9F4F19F020E030E002C00D
:101D00002FEF3FEFC901DF91CF911F910F91089500
:101D1000CF93DF93EB016115710559F0CE010E945D
:101D20001A052FEF8F3F920721F081329105B4F30E
:101D300006C02FEF3FEFC901DF91CF910895BE019B
:101D40000E94FA058F5F9F4FA1F320E030E0F3CFB0
:101D50006F927F928F929F92AF92BF92CF92DF92BB
:101D6000EF92FF920F931F93CF93DF93FB014A01F2
:101D70006115710509F4A5C0A184B284C384D4841B
:101D8000C601B50120E030E040E050E00E94FD30A7
:101D90008823C4F400D000D0ADB7BEB712969C9291
:101DA0008E92119781E091E014969C938E931397F5
:101DB0000E945C05D7FAD094D7F8D0940F900F907A
:101DC0000F900F90C601B5010E946E317B018C010E
:101DD000EDB7FEB738970FB6F894FEBF0FBEEDBF54
:101DE0003196ADB7BEB712969C928E9211978DEF39
:101DF00090E093838283E482F582068317830E94B6
:101E00005C05C801B7010E949A319B01AC01C60173
:101E1000B5010E9498302CEA35EC47EA56E30E945F
:101E200099307B018C01C5E0D0E0EDB7FEB7389664
:101E30000FB6F894FEBF0FBEEDBF8AEF682E80E0AC
:101E4000782EC801B70120E030E040E251E40E9462
:101E50004C325B016C010E946E317B0100D000D0DE
:101E600000D0EDB7FEB73196ADB7BEB712969C92D3
:101E70008E92119773826282758364830E945C05DF
:101E800000E010E0C801B7010E949A319B01AC014B
:101E9000C601B5010E9498307B018C01EDB7FEB7F9
:101EA00036960FB6F894FEBF0FBEEDBF20E030E0CF
:101EB00040E050E00E94FD30882319F0219709F09E
:101EC000C0CF80E090E0DF91CF911F910F91FF9004
:101ED000EF90DF90CF90BF90AF909F908F907F90CA
:101EE0006F900895CF93DF93DB016115710519F4AD
:101EF00020E030E01FC000D000D000D0EDB7FEB72A
:101F00003196CDB7DEB75A83498383E091E093835E
:101F1000828319968D919C911A97958384830E9450
:101F20005C059C018DB79EB706960FB6F8949EBFD0
:101F30000FBE8DBFC901DF91CF910895FB016115DF
:101F4000710509F44BC020852330B1F124303CF4F5
:101F5000213049F1223064F4222399F03FC025302A
:101F600089F1253064F1263091F12730B9F532C07E
:101F700000D000D0EDB7FEB75283418385EF90E0EB
:101F800008C000D000D0EDB7FEB7528341838FEE7A
:101F900090E0948383830E945C059C010F900F90D6
:101FA0000F900F901DC000D000D0EDB7FEB7528348
:101FB00041838AEE90E0EDCF0E94720F0DC00E9427
:101FC000A80E0AC0618572850E940D0E05C00E9490
:101FD000401002C00E94F20F9C0102C020E030E0DD
:101FE000C9010895EF92FF920F931F93CF93DF9350
:101FF0007C01FB018A0161157105C1F1C681D781A0
:102000008BE790E020C068817981C701A8010E9418
:102010000D0E8F5F9F4F39F18AE390E0B8010E9467
:1020200079058F5F9F4FF9F0C701BE01A8010E949B
:102030009E0F8F5F9F4FB9F00A80DB81C02D2097E4
:1020400041F08CE290E0B8010E9479058F5F9F4FCC
:1020500051F02097C1F68DE790E0B8010E94790514
:102060008F5F9F4F19F42FEF3FEF02C020E030E069
:10207000C901DF91CF911F910F91FF90EF900895CB
:10208000EF92FF920F931F93CF93DF937C01FB019D
:102090008A016115710539F1C681D7818BE590E020
:1020A0000FC0C701BE01A8010E949E0F8F5F9F4F06
:1020B000B9F00A80DB81C02D209741F08CE290E0DE
:1020C000B8010E9479058F5F9F4F51F0209749F723
:1020D0008DE590E0B8010E9479058F5F9F4F19F45C
:1020E0002FEF3FEF02C020E030E0C901DF91CF9138
:1020F0001F910F91FF90EF900895EF92FF920F9331
:102100001F93CF93DF938C017B010E948415EC0118
:10211000009719F420E030E009C0C801B701AE0112
:102120000E949E0FCE010E946D159C01C901DF9196
:10213000CF911F910F91FF90EF900895EF92FF9232
:102140000F931F93CF93DF937B018A01CA010E94F3
:102150001A05829709F04FC085E0F70180870E9439
:102160003F16EC01009709F446C0C8010E941A0509
:10217000FFEF8F3F9F0709F041C03AC08C359105B2
:1021800069F5C8010E941A052FEF8F3F920781F170
:1021900086369105E1F0873691054CF48C35910532
:1021A00081F08236910589F08297D9F40CC082378C
:1021B000910589F08437910581F08E36910589F477
:1021C00008C08CE50BC082E209C088E007C08CE043
:1021D00005C08AE003C08DE001C089E0BE010E9415
:1021E000D915C8010E941A05EFEF8F3F9E0731F401
:1021F000CE010E94F7152FEF3FEF0FC082329105FD
:1022000021F0803291050CF0B9CFCE010E94FC156F
:10221000F7019287818720E030E0C901DF91CF91FB
:102220001F910F91FF90EF9008952F923F924F9240
:102230005F926F92AF92BF92CF92DF92EF92FF9236
:102240000F931F93DF93CF93CDB7DEB728970FB6C9
:10225000F894DEBF0FBECDBF7A8369831A01CA012D
:102260000E941A052C012FEF8F3F920771F08D32DB
:10227000910519F0AA24A3940DC0C1010E941A056A
:102280002C014FEF8F3F940719F42FEF3FEF16C14A
:10229000AA24AA94C201C0970A9718F000E010E09F
:1022A00018C000E010E0C80173E0880F991F7A950C
:1022B000E1F7000F111F800F911F820100531040A2
:1022C000080F191FC1010E941A052C01C0970A9717
:1022D00050F35EE245165104D1F085E648165104EC
:1022E000B1F095E44916510491F08A2D992787FDA4
:1022F0009095FC010E9FC0010F9F900D1E9F900DA9
:102300001124E981FA819287818783E0D0C0B801E6
:10231000882777FD8095982F0E949C317B018C0146
:10232000FEE24F16510419F0CC24DD242DC0C1016A
:102330000E941A052C01CC24DD24C801B70120E03D
:1023400030E040E251E40E944C327B018C0120EDF0
:102350003FEF420E531EB201882777FD8095982FDC
:102360000E949C319B01AC01C801B7010E949930C9
:102370007B018C010894C108D108C1010E941A0593
:102380002C01C0970A97C8F235E64316510449F06C
:1023900045E44416510429F018861F82662463948C
:1023A00037C0C1010E941A052C018B32910529F416
:1023B000C1010E941A052C0104C08DE24816510487
:1023C00019F06624639406C0C1010E941A052C010D
:1023D00066246A9418861F8215C08F81988553E001
:1023E000880F991F5A95E1F7EF81F885EE0FFF1FCF
:1023F000E80FF91FE20FF31FF887EF83C1010E9476
:102400001A052C019201205330402A30310528F35F
:102410006A2D772767FD7095872F972F0E949C3133
:10242000A80197010E944C326B837C838D839E832D
:10243000B601882777FD8095982F0E949C315B011B
:102440006C012F813885B901882777FD8095982FF9
:102450000E949C317B018C01662D772767FD70956A
:10246000872F972F0E949C319B01AC01C801B701B7
:102470000E944C329B01AC01C601B5010E9499300B
:102480009B01AC0160E070E080E291E40E94AF3219
:102490009B01AC016B817C818D819E810E944C32BD
:1024A000E981FA81618772878387948784E08087D6
:1024B000C201B1010E94FA0520E030E0C90128966E
:1024C0000FB6F894DEBF0FBECDBFCF91DF911F9145
:1024D0000F91FF90EF90DF90CF90BF90AF906F90F3
:1024E0005F904F903F902F9008958DE090E00E9474
:1024F000E000FC01009729F08DE0DF011D928A9534
:10250000E9F7CF0108950E947512FC01009711F0C0
:1025100087E08087CF0108950E947512FC01009723
:1025200011F086E08087CF0108950F931F93CF931A
:10253000DF938B010E947512EC01009739F085E062
:102540008887C8010E94040489879A87CE01DF9199
:10255000CF911F910F910895CF92DF92EF92FF924A
:102560000F931F938C017B016A01B9010E949512A0
:102570009C01C801B701A6010E94A30D1F910F91F4
:10258000FF90EF90DF90CF900895EF92FF920F931E
:102590001F937A018B010E947512FC01009731F0A4
:1025A00084E08087E186F28603871487CF011F913C
:1025B0000F91FF90EF900895AF92BF92CF92DF926C
:1025C000EF92FF920F931F937C016B015A01B901A7
:1025D000A8010E94C5129C01C701B601A5010E9475
:1025E000A30D1F910F91FF90EF90DF90CF90BF90C0
:1025F000AF900895CF93DF93EB010E947512FC0119
:10260000009721F083E08087D287C187CF01DF91D7
:10261000CF910895CF92DF92EF92FF920F931F9385
:102620008C017B016A01B9010E94FA129C01C80168
:10263000B701A6010E94A30D1F910F91FF90EF908B
:10264000DF90CF9008956F927F928F929F92BF926A
:10265000CF92DF92EF92FF920F931F93CF93DF936E
:102660007C014B018A013901CA010E941A058B378E
:10267000910509F05DC087E0F4018087C701B801CA
:102680000E94880EC8010E941A058D37910509F431
:1026900052C0B8010E94FA05BB24BA94C7010E9437
:1026A0007512EC01009709F443C0BB2021F0F4013E
:1026B0009783868305C0F60193838283DD82CC8273
:1026C000C701B8010E94880EC701BE01A8010E947F
:1026D0009E108F5F9F4F61F1C701B8010E94880E65
:1026E00089859A85998388831A861986C8010E94EC
:1026F0001A05CA97E9F4C701B8010E94880EC701FC
:10270000BE01A80193010E94AC138F5F9F4F81F01F
:10271000C701B8010E94880EC8010E941A05BB2497
:102720006E018C32910509F4B9CF8D37910519F0FE
:102730002FEF3FEF02C020E030E0C901DF91CF91E1
:102740001F910F91FF90EF90DF90CF90BF909F90DF
:102750008F907F906F9008958F929F92AF92BF92CB
:10276000CF92DF92EF92FF920F931F93DF93CF935D
:10277000CDB7DEB729970FB6F894DEBF0FBECDBF39
:102780006C015B017A0149014115510509F4ADC0A5
:10279000BA010E94880E8F5F9F4F09F4A6C0C7013F
:1027A0000E941A058C018FEF0F3F180709F49DC096
:1027B000C801B7010E94FA058F5F9F4F09F495C0C9
:1027C0000232110531F4C601B501A7010E949E1025
:1027D00020C00D32110521F0C801C0970A9730F4CE
:1027E000C601B501A7010E94151113C00B351105D3
:1027F00039F4C601B501A70194010E948B1409C0E8
:102800000B37110541F4C601B501A70194010E94DF
:1028100023139C016CC00E36110501F519821A8232
:102820001B821C828E010F5F1F4FC80161E070E0A8
:1028300044E050E097010E94A505049709F055C0B7
:10284000C80160E071E044E050E00E945904009744
:1028500009F04BC082E0F501808744C006361105BF
:10286000F9F48E010B5F1F4F85E0F80111928A95F4
:10287000E9F7C80161E070E045E050E097010E948F
:10288000A505059791F5C80165E071E045E050E0C8
:102890000E945904009749F5F5011086118622C05F
:1028A0000437110511F519821A821B821C828E01D0
:1028B0000F5F1F4FC80161E070E044E050E09701F6
:1028C0000E94A505049789F4C8016BE071E044E01B
:1028D00050E00E945904009741F481E0F50180879F
:1028E0008FEF818720E030E002C02FEF3FEFC9017A
:1028F00029960FB6F894DEBF0FBECDBFCF91DF9102
:102900001F910F91FF90EF90DF90CF90BF90AF900D
:102910009F908F9008956F927F928F929F92BF9217
:10292000CF92DF92EF92FF920F931F93CF93DF939B
:102930006C014B01EA013901CA010E941A058B356D
:10294000910509F03FC086E0F4018087C601BE0111
:102950000E94880ECE010E941A058D359105A9F1BD
:10296000BE010E94FA05BB24BA94C6010E947512EA
:102970008C01009739F1BB2021F0F4019783868305
:1029800006C0F70193838283FC01F582E482C601CD
:10299000BE010E94880EC601B801AE0193010E94DB
:1029A000AC13892B79F4C601BE010E94880ECE01BA
:1029B0000E941A05BB2478018C329105B1F28D3545
:1029C000910519F02FEF3FEF02C020E030E0C90180
:1029D000DF91CF911F910F91FF90EF90DF90CF90FB
:1029E000BF909F908F907F906F900895CF92DF92CD
:1029F000EF92FF920F931F93CF93DF937C018B0194
:102A00006A0161157105B1F00E947512EC01009721
:102A100099F0C701B8010E94880EC701BE01A80144
:102A200096010E94AC138F5F9F4F31F4C701BE0126
:102A30000E94D80DC0E0D0E0CE01DF91CF911F9170
:102A40000F91FF90EF90DF90CF900895EF92FF925B
:102A50000F931F937C01CB010E94B2158C01C7011B
:102A6000B80140E050E00E94F614F82EE92EC801AB
:102A70000E949F158F2D9E2D1F910F91FF90EF901B
:102A80000895FC01A485B58512962D913C9113976C
:102A9000ED91FC911197E20FF31F8081882319F4C7
:102AA000EFEFFFEF0AC02F5F3F4F13963C932E933B
:102AB0001297E82FFF27E7FDF095CF010895FB015E
:102AC000648575850E94D915882319F420E030E0CB
:102AD00002C02FEF3FEFC90108950F931F93CF93CB
:102AE000DF93EC018C859D850E94FC158C0100977D
:102AF00011F01D861C86CE010E94A304C801DF913F
:102B0000CF911F910F910895CF93DF938FE595E1BA
:102B100060E070E00E94CE04EC01009761F00E943A
:102B20003F16009731F4CE010E94A304C0E0D0E02C
:102B300002C09D878C87CE01DF91CF910895CF93FE
:102B4000DF93EC01009759F08C859D85009711F07B
:102B50000E948A011D861C86CE010E94A304DF917B
:102B6000CF9108950F931F93CF93DF938C0180E053
:102B700090E061E475E10E94CE04EC01009799F0C9
:102B800084E090E00E94E000FC01009739F011839E
:102B90000083138212829D878C8705C0CE010E941C
:102BA000A304C0E0D0E0CE01DF91CF911F910F913F
:102BB0000895482FDB0114962D913C91159712969C
:102BC0008D919C9113972817390778F4ED91FC911A
:102BD0001197E20FF31F408314968D919C911597E6
:102BE000019615969C938E93149780E00895009714
:102BF00011F00E948A0108950F931F93CF93DF93E2
:102C00008C01DC0114962D913C911597211531050D
:102C100041F0ED91FC91E20FF31F31978081882301
:102C2000B1F0F801828193812817390780F401906F
:102C3000F081E02DE20FF31F1082D80114968D91E0
:102C40009C911597019615969C938E931497F80175
:102C5000848195810E94E000EC01009751F060EDC5
:102C600074E00E945204D8011D921C92C8010E9477
:102C70008A01CE01DF91CF911F910F910895CF93DB
:102C8000DF9386E090E00E94E000DC010097A9F06D
:102C9000E0EDF4E01196FC93EE9380E091E0EF011B
:102CA0009C01199221503040E1F713969C938E932A
:102CB000129715961C921E921497CD01DF91CF9119
:102CC00008950F931F938C010E943B2A605A75410F
:102CD0008F4F9F4FF80160837183828393831F918D
:102CE0000F91089582EC91E00E9461168AEC91E0C8
:102CF0006EE00E94EF0808950F931F93CF93DF9328
:102D0000EC010E943B2A288139814A815B81621B48
:102D1000730B840B950B6153754780409040C0F155
:102D200082E292E00E94E81882E292E068E470E0B9
:102D300042E050E00E94E51882E292E00E943918D9
:102D4000182F82E292E00E943918312F20E090E0A3
:102D5000282B392B84E0359527958A95E1F7442770
:102D600037FD4095542FCA01B9010E949C3120E0E3
:102D700030E040E85DE30E944C328B01F82FE92FF0
:102D8000AC01CB01DA018C839D83AE83BF8304C089
:102D90000C811D81FE81EF814F2F5E2FB801CA018A
:102DA000DF91CF911F910F910895EF92FF920F93B2
:102DB0001F93DF93CF930F92CDB7DEB7962F61307D
:102DC00031F47EE0E72EF12C0EE010E00FC062300F
:102DD00031F46FE0E62EF12C0FE010E007C0633015
:102DE00029F430E1E32EF12C00E110E048305105E8
:102DF00009F45AC04930510594F44530510511F198
:102E00004630510524F4452B09F484C018C04630DF
:102E1000510509F47FC04730510589F42BC04A3071
:102E2000510509F477C04A3051050CF46EC04C309E
:102E3000510509F478C04A5E534009F483C00FEF8E
:102E40001FEF9FC0802F60E00E948F2B802F0E9479
:102E5000092C2FEF33E0829F8001839F100D929FFA
:102E6000100D11240115110509F08BC08BE992E0BA
:102E700069E017C0802F60E00E948F2B802F0E9496
:102E8000092C2FEF33E0829F8001839F100D929FCA
:102E9000100D1124101611060CF073C08BE992E08E
:102EA00068E00E94BE216DC08AEC91E0602F0E9414
:102EB000C6088AEC91E00E9423099093DA0180937E
:102EC000D9010197069718F400E010E05AC08AEC87
:102ED00091E00E94DF0820E030E040E251E40E94EF
:102EE0004C320E9469318B018AEC91E00E94E70824
:102EF00020E030E040E251E40E944C320E9469310F
:102F00007093DC016093DB013CC00091DB01109108
:102F1000DC0137C08E2D60E00E948F2B8E2D0E9429
:102F20000D2B8C012EC08E2D60E00E948F2B8E2DDC
:102F30000E940D2B8C01181619061CF58BE992E0E6
:102F400067E0AFCF802F61E099830E948F2B99813A
:102F5000913021F488B1082F10E011C0923031F483
:102F600088B1082F10E01595079509C0933049F4F2
:102F700088B1082F10E015950795159507950170F4
:102F80001070C8010F90CF91DF911F910F91FF90AA
:102F9000EF900895CF93DF93EB01442369F081EB29
:102FA00094E060E171E00E949B2F81EB94E0BE0110
:102FB0004AE050E00E947C2FCE01835B9040439713
:102FC00018F42AE030E048C0CE018B5F9040439770
:102FD00018F427E030E040C0CE0188549140439778
:102FE00018F429EE33E038C0CE018E569140439755
:102FF00018F426E030E030C0CE01805A914043976B
:1030000018F42BE030E028C0CE0180509240439766
:1030100018F428E030E020C0CE018053924043975E
:1030200018F42CE030E018C0CE018F58924043973E
:1030300018F42AEE33E010C0CE018F50934043972E
:1030400018F425E030E008C0C35FD3401CF420E052
:1030500030E002C02FEF3FEFC901DF91CF9108951B
:103060002091FE0130E08091FD01281B3109C9014A
:1030700008954091FD018091FE01481718F02FEF4F
:103080003FEF0AC0E42FF0E0E352FE4F8081282F8B
:1030900030E04F5F4093FD01C9010895E091FD01CB
:1030A0008091FE01E81718F0EFEFFFEF06C0F0E0A7
:1030B000E352FE4F8081E82FF0E0CF01089508959C
:1030C000109225021092240288EE93E0A0E0B0E076
:1030D0008093260290932702A0932802B09329029E
:1030E0008EE791E090932302809322020895CF927D
:1030F000DF92EF92FF920F931F93CF93DF937C01A8
:103100006B018A01809121028823A1F0C0E0D0E008
:103110000DC0D701ED91FC91D601AC0FBD1F019000
:10312000F081E02DC7016C9109952196C017D10758
:1031300080F304C0CB01642F0E942A19C801DF91DB
:10314000CF911F910F91FF90EF90DF90CF90089556
:10315000DF93CF930F92CDB7DEB7FC0169838091E7
:1031600021028823C9F080912002803238F081E06A
:1031700090E09383828320E030E015C080911F02AD
:10318000E82FF0E0E150FE4F998190838F5F8093AC
:103190001F028093200205C0CE01019661E00E94CB
:1031A0002A1921E030E0C9010F90CF91DF910895F5
:1031B000413208F040E2862F6DED71E00E94F31875
:1031C0001092FD018093FE0108950E94D818089581
:1031D0001092FD011092FE0110921F021092200227
:1031E0000E94C01A0895982F413210F040E030C07C
:1031F00080912E028823E1F781E080932E028FEFE9
:1032000080939902109254024150409355024F5FAF
:10321000990F916090932F0285EE8093BC0080916E
:103220002E028130E1F380915402841710F4409112
:10323000540220E030E00AC0FB01E20FF31FD90185
:10324000AC5CBD4F8C9180832F5F3F4F2417A0F360
:10325000842F0895482F613210F081E00895809105
:103260002E02843011F082E0089560937702A6E583
:10327000B2E0842F9C01F90102C081918D938E2FC1
:10328000841B8617D0F380E008951F920F920FB62B
:103290000F9211242F933F934F935F936F937F93DC
:1032A0008F939F93AF93BF93EF93FF938091B90058
:1032B00090E0887F90708036910509F4DCC08136FB
:1032C0009105CCF58832910509F47BC089329105CE
:1032D000B4F48031910509F46FC0813191053CF45B
:1032E000009709F431C1089709F039C165C08831E8
:1032F000910509F466C0809709F031C17DC0803422
:10330000910509F49FC08134910544F480339105FF
:1033100009F47DC0C89709F022C184C080359105A9
:1033200009F484C08835910509F491C08834910569
:1033300009F015C198C08839910509F4FDC0893993
:103340009105ECF48837910509F495C0893791050A
:103350004CF48836910509F48EC08037910509F048
:10336000FEC089C08838910509F4E6C0803991050E
:1033700009F487C08038910509F0F1C082C0803B14
:10338000910509F4B0C0813B91054CF4803A910558
:1033900009F489C0883A910509F0E1C0A4C0803CD5
:1033A000910509F4CDC0883C910509F4C9C0883B5A
:1033B000910509F0D4C0ACC080912F028093BB006E
:1033C000B9C09091540280915502981768F4909179
:1033D0005402E92FF0E0EC5CFD4F80818093BB004C
:1033E0009F5F90935402A6C085ED8093BC008091AE
:1033F000BC0084FDFCCFB1C080E28093990285EDD2
:103400008093BC008091BC0084FDFCCFA6C080E30B
:103410008093990285ED8093BC008091BC0084FD6F
:10342000FCCF9BC088E3809399028AC080915402AC
:103430009091BB00E82FF0E0EC5CFD4F90838F5F34
:1034400080935402909154028091550271C08091F2
:1034500054029091BB00E82FF0E0EC5CFD4F9083AC
:103460008F5F8093540285ED8093BC008091BC00F7
:1034700084FDFCCF72C083E080932E0210929802EC
:1034800059C080919802803208F056C0809198020D
:103490009091BB00E82FF0E0E858FD4F90838F5FDC
:1034A0008093980247C080919802803230F4E09176
:1034B0009802F0E0E858FD4F108285ED8093BC0043
:1034C0008091BC0084FDFCCF10922E026091980286
:1034D000E0913202F091330288E792E070E00995C2
:1034E000109298022DC084E080932E0210927602F2
:1034F00010927702E0913002F091310209958091AB
:103500007702882329F481E0809377021092560293
:1035100090917602E92FF0E0EA5AFD4F8081809386
:10352000BB009F5F90937602909176028091770224
:10353000981710F485EC01C085E88093BC000FC09B
:1035400085EC8093BC0009C01092990285ED8093B0
:10355000BC008091BC0084FDFCCF10922E02FF9134
:10356000EF91BF91AF919F918F917F916F915F91FB
:103570004F913F912F910F900FBE0F901F90189574
:1035800010922E0282E161E00E94B52B83E161E09E
:103590000E94B52BE9EBF0E080818E7F80838081F3
:1035A0008D7F808388E48093B80085E48093BC009D
:1035B0000895362F242F8FE991E06DE1432F0E946B
:1035C000DF0C0895EF92FF920F931F93CF93DF9339
:1035D000162F7A01022F8FE991E06DE1412F0E94B1
:1035E0001C0D8FE991E06DE1412F202F0E945A0CB4
:1035F000C0E0D0E010E009C08FE991E00E94BB0A72
:10360000F701EC0FFD1F80832196C017D107A4F3AB
:10361000DF91CF911F910F91FF90EF900895AF929E
:10362000BF92CF92DF92EF92FF920F93DF93CF93EF
:1036300000D000D000D0CDB7DEB77B016A015901C0
:10364000AE014F5F5F4F0023C1F161E026E00E94B1
:10365000E21A2A81229526952695237030E08981E9
:1036600090E0880F991F880F991F282B392BF7019D
:10367000318320832C81229526952695237030E076
:103680008B8190E0880F991F880F991F282B392B69
:10369000F601318320832E8122952695269523706D
:1036A00030E08D8190E0880F991F880F991F282B9B
:1036B000392BF501318320831FC061E023E00E9494
:1036C000E21A898190E0880F991F880F991FF701EE
:1036D000918380838A8190E0880F991F880F991FBA
:1036E000F601918380838B8190E0880F991F880F6A
:1036F000991FF50191838083F70180819181F2E028
:1037000080309F072CF080509440F7019183808394
:10371000F60180819181F2E080309F072CF080508B
:103720009440F60191838083F50180819181F2E0DC
:1037300080309F072CF080509440F5019183808366
:1037400026960FB6F894DEBF0FBECDBFCF91DF91A6
:103750000F91FF90EF90DF90CF90BF90AF900895C2
:103760000F931F93DF93CF930F92CDB7DEB78C01EA
:103770006AE2AE014F5F5F4F21E00E94E21A498189
:103780004D7FC8016AE20E94D91A0F90CF91DF9154
:103790001F910F9108950F931F93DF93CF930F9273
:1037A000CDB7DEB78C016AE2AE014F5F5F4F21E01B
:1037B0000E94E21A49814160C8016AE20E94D91A56
:1037C0000F90CF91DF911F910F9108950F931F9349
:1037D000DF93CF930F92CDB7DEB78C016AE2AE01D3
:1037E0004F5F5F4F21E00E94E21A49814E7FC8017E
:1037F0006AE20E94D91A0F90CF91DF911F910F9129
:1038000008950F931F93DF93CF930F92CDB7DEB739
:103810008C018FE991E00E94AA0AC8010E94E61B70
:10382000C8016EE040E00E94D91AC8010E94B01B96
:10383000C8010E94CB1BC8016DE0AE014F5F5F4F16
:1038400021E00E94E21A0F90CF91DF911F910F911A
:1038500008958AE992E00E94011C089589E793E0A7
:103860000E9424250895EF92FF920F931F93CF9308
:10387000DF9381EC91E00E9483127C01009739F480
:1038800081EB94E06FE171E00E949E2F65C081ECB6
:1038900091E00E948C128C0181EC91E0B7014AE228
:1038A00051E098010E94A30D81EC91E00E948312E7
:1038B000EC0181EC91E0B801AE010E946A0D81EC4F
:1038C00091E0BE014EE251E02CE133E00E94AC12E7
:1038D000209140033091410381EC91E0BE0140E32F
:1038E00051E00E940A13209142033091430381EC7E
:1038F00091E0BE0142E351E00E940A1380917803F7
:10390000882351F081EC91E0BE0144E351E024E4CE
:1039100033E00E94AC120BC0209176033091770304
:1039200081EC91E0BE0144E351E00E940A1381EC76
:1039300091E0B7010E947D10EC01009729F081EB26
:1039400094E0BE010E949E2F81EC91E0B7010E949D
:10395000D80DCE010E948A01DF91CF911F910F9166
:10396000FF90EF900895CF92DF92EF92FF920F9326
:103970001F93CF93DF93EB0181EC91E00E948312C0
:103980006C01009739F481EB94E06FE171E00E94E3
:103990009E2F35C081EC91E00E948C127C0181EC5D
:1039A00091E0B60147E351E097010E94A30D81EC3D
:1039B00091E00E9483128C0181EC91E0B701A80193
:1039C0000E946A0D81EC91E0B8014DE351E09E0147
:1039D0000E940A1381EC91E0B6010E947D10EC0177
:1039E000009729F081EB94E0BE010E949E2F81ECAC
:1039F00091E0B6010E94D80DCE010E948A01DF91AC
:103A0000CF911F910F91FF90EF90DF90CF9008958D
:103A1000AF92BF92CF92DF92EF92FF920F931F93DC
:103A2000CF93DF930CE912E081EC91E0B8010E94A2
:103A300026155C0180E8F80111928A95E9F7A11436
:103A4000B10411F480E08DC081EC91E0B5010E94D9
:103A50004E0D882309F47CC081EC91E0B50142E46D
:103A600051E00E94880DBC01009709F471C081ECFF
:103A700091E040E00E945B0DEC01009709F468C002
:103A800081EC91E0BE014EE251E00E94880D8C0174
:103A900081EC91E0BE0140E351E00E94880D7C0181
:103AA00081EC91E0BE0142E351E00E94880D6C017F
:103AB00081EC91E0BE0144E351E00E94880DEC01ED
:103AC0000115110509F444C0F8018085853009F01D
:103AD0003FC0618572858CE193E044E250E00E9432
:103AE0006704E114F104A1F1F7018085833081F5C9
:103AF000818592859093410380934003C114D10442
:103B000039F1F6018085833019F58185928590938E
:103B10004303809342032097D9F08885853061F470
:103B200069857A8584E493E042E350E00E9467046B
:103B300081E0809378030AC0833051F489859A85A7
:103B400090937703809376031092780301E001C08D
:103B500000E081EC91E0B5010E94D80D802F0111A9
:103B600081E0DF91CF911F910F91FF90EF90DF9057
:103B7000CF90BF90AF900895CF93DF9381EB94E007
:103B80000E94732D892B19F4CFEFDFEF1CC0C0E02A
:103B9000D0E012C0C038D105B1F081EB94E00E94B2
:103BA000A42DFE01E456FD4F8083219662E070E073
:103BB00080E090E00E946F2A81EB94E00E94732DD8
:103BC000181619063CF3CE01DF91CF910895CF92DC
:103BD000DF92EF92FF920F931F93CF93DF93EC014D
:103BE0000E94BC1D181619060CF0BFC0CE010E9421
:103BF000081D882309F4B4C08091400390914103CB
:103C0000892B09F0A9C0809142039091430323E0DE
:103C1000883E920791F023E0893E920724F40B97A7
:103C200009F096C02DC023E08A3E920709F459C0DE
:103C30008B5E934009F08CC075C084E493E060E033
:103C400070E040E150E00E94B7027B018C018FEFF1
:103C5000C82ED12CB601601B710987E00E942F2B62
:103C6000CF18D10888E0B6010E942F2BE094F09481
:103C70008FEFE822FF2489E0B7010E942F2B60C05C
:103C80008CE193E00E94E603823049F0833061F0DA
:103C9000813081F489E793E06EE070E009C089E744
:103CA00093E06FE070E004C089E793E060E170E0CA
:103CB0000E945B2989E793E06EE571E00E9444254C
:103CC00089E793E068E070E00E94482589E793E087
:103CD00064E473E00E94172989E793E00E944B296E
:103CE0002FC08CE193E00E94E603823041F08330E4
:103CF00041F0813011F41EE005C01FEF03C01FE04A
:103D000001C010E180917803882331F084E493E0CE
:103D10000E94E603682F02C060917603812F0E9403
:103D2000B52B0EC084E493E069E471E00E9449047D
:103D3000009751F484E493E06DE471E00E94520432
:103D4000CE010E94331C11C0CE0164E070E00BC0B4
:103D5000CE0163E070E007C0CE0162E070E003C016
:103D6000CE0161E070E00E94B31CDF91CF911F9102
:103D70000F91FF90EF90DF90CF9008959F92AF92B8
:103D8000BF92CF92DF92EF92FF920F931F93DF9338
:103D9000CF93CDB7DEB72F970FB6F894DEBF0FBE27
:103DA000CDBF5C01962E81EC91E00E9483126C01E4
:103DB000009739F481EB94E06FE171E00E949E2F4F
:103DC00098C081EB94E00E94732D181619061CF41C
:103DD000C5010E94E71D81EC91E00E948C128C01CC
:103DE00081EC91E0B60142E451E098010E94A30DFC
:103DF00081EC91E00E9483127C0181EC91E0B8019A
:103E0000A7010E946A0D00D000D000D0EDB7FEB728
:103E100031968E010F5F1F4FADB7BEB712961C9340
:103E20000E93119781E591E09383828394821582AA
:103E30000E94D6058DB79EB706960FB6F8949EBF22
:103E40000FBE8DBF81EC91E0B7014EE251E09801C9
:103E50000E94AC1281EC91E0B70140E351E020E018
:103E600030E00E940A1381EC91E0B70142E351E097
:103E700029E030E00E940A1382EC91E0692D49E0CC
:103E800050E00E94D516AA2797FDA095BA2FBC0135
:103E9000CD010E949C3120E030E040E251E40E94DC
:103EA00001318B019C0181EC91E0B70144E351E0C9
:103EB0000E94DC1281EB94E00E94732D1816190603
:103EC0001CF4C5010E94E71D81EC91E0B6010E943F
:103ED0007D108C01009729F081EB94E0B8010E94DD
:103EE0009E2F81EC91E0B6010E94D80DC8010E947E
:103EF0008A012F960FB6F894DEBF0FBECDBFCF91CB
:103F0000DF911F910F91FF90EF90DF90CF90BF90C6
:103F1000AF909F900895AF92BF92CF92DF92EF92B1
:103F2000FF920F931F93DF93CF93CDB7DEB76597C3
:103F30000FB6F894DEBF0FBECDBF5C0181EC91E0FF
:103F40000E9483126C01009739F481EB94E06FE1D9
:103F500071E00E949E2FA6C081EB94E00E94732D19
:103F6000181619061CF4C5010E94E71D81EC91E0AA
:103F70000E948C128C0181EC91E0B60142E451E088
:103F800098010E94A30D81EC91E00E9483127C01B4
:103F900081EC91E0B801A7010E946A0D81EC91E0EB
:103FA000B7014EE251E024E531E00E94AC1281EC11
:103FB00091E0B70140E351E020E030E00E940A13B5
:103FC00081EC91E0B70142E351E022E030E00E9451
:103FD0000A131A8219821C821B821E821D828AE9A0
:103FE00092E0BE016F5F7F4FAE014D5F5F4F9E015C
:103FF0002B5F3F4F01E00E940F1B8DB79EB70A97C2
:104000000FB6F8949EBF0FBE8DBFEDB7FEB73196C9
:104010008E01095F1F4FADB7BEB712961C930E936A
:10402000119786E591E09383828389819A819583B4
:1040300084838B819C81978386838D819E819187E8
:1040400080870E94D6058DB79EB70A960FB6F89462
:104050009EBF0FBE8DBF81EC91E0B70144E351E0FC
:1040600098010E94AC1281EB94E00E94732D181607
:1040700019061CF4C5010E94E71D81EC91E0B60110
:104080000E947D108C01009729F081EB94E0B8012B
:104090000E949E2F81EC91E0B6010E94D80DC801CC
:1040A0000E948A0165960FB6F894DEBF0FBECDBFA1
:1040B000CF91DF911F910F91FF90EF90DF90CF9004
:1040C000BF90AF900895CF92DF92EF92FF920F933F
:1040D0001F93CF93DF936C0181EC91E00E948312D8
:1040E000EC01009739F481EB94E06FE171E00E94FC
:1040F0009E2F73C081EB94E00E94732D1816190651
:104100001CF4C6010E94E71D81EC91E00E948C1214
:104110008C0181EC91E0BE0142E451E098010E94E3
:10412000A30D81EB94E00E94732D181619061CF460
:10413000C6010E94E71D81EC91E00E9483127C0180
:1041400081EC91E0B801A7010E946A0D81EC91E039
:10415000B7014EE251E024E531E00E94AC1281EC5F
:1041600091E0B70140E351E020E030E00E940A1303
:1041700081EC91E0B70142E351E021E030E00E94A0
:104180000A1382EC91E00E947C168B019C0181EC69
:1041900091E0B70144E351E00E94DC1281EB94E02E
:1041A0000E94732D181619061CF4C6010E94E71D03
:1041B00081EC91E0BE010E947D108C01009729F0F6
:1041C00081EB94E0B8010E949E2F81EC91E0BE014A
:1041D0000E94D80DC8010E948A01DF91CF911F91E2
:1041E0000F91FF90EF90DF90CF900895AF92BF9224
:1041F000CF92DF92EF92FF920F931F93DF93CF93B3
:10420000CDB7DEB727970FB6F894DEBF0FBECDBF90
:104210005C0181EC91E00E9483126C01009739F4FB
:1042200081EB94E06FE171E00E949E2F96C081EBDC
:1042300094E00E94732D181619061CF4C5010E9403
:10424000E71D81EC91E00E948C128C0181EC91E0E1
:10425000B60142E451E098010E94A30D81EB94E085
:104260000E94732D181619061CF4C5010E94E71D43
:1042700081EC91E00E9483127C0181EC91E0B80115
:10428000A7010E946A0D81EC91E0B7014EE251E076
:1042900024E531E00E94AC1281EC91E0B70140E3EB
:1042A00051E020E030E00E940A1381EC91E0B70178
:1042B00042E351E028EE33E00E940A1385B1082F53
:1042C00010E003701070CE0101965F9B03C06FE594
:1042D00071E002C062E671E00E945204CE010196D4
:1042E00000FF03C06FE571E002C062E671E00E946A
:1042F0003E04CE01019601FF03C06FE571E002C0EC
:1043000062E671E00E943E0481EC91E0B70144E373
:1043100051E09E012F5F3F4F0E94AC1281EB94E071
:104320000E94732D181619061CF4C5010E94E71D82
:1043300081EC91E0B6010E947D108C01009729F07C
:1043400081EB94E0B8010E949E2F81EC91E0B601D0
:104350000E94D80DC8010E948A0127960FB6F894D2
:10436000DEBF0FBECDBFCF91DF911F910F91FF90A8
:10437000EF90DF90CF90BF90AF900895FF920F9392
:104380001F93162F05B1FBB087E061E00E94B52BAB
:1043900088E061E00E94B52B89E061E00E94B52BC6
:1043A000812F60E00E94B52B60E570E080E090E036
:1043B0000E946F2A05B9FBB81F910F91FF900895D5
:1043C0000F931F93182F0E940D2B6AE070E080E07E
:1043D00090E00E946F2A812F0E940D2B182F092F29
:1043E00064E170E080E090E00E946F2A812F902FBE
:1043F0001F910F9108958F929F92BF92CF92DF925B
:10440000EF92FF920F931F93CF93DF934C01EB0139
:10441000188281EB94E00E94732D181619061CF483
:10442000C4010E94E71D85E190E00E94E021BC01EB
:1044300082EC91E040E00E94CA177C0188E0E81617
:10444000F10429F483E08883BB24B39403C0F7FC10
:104450000EC0BB2481EC91E00E9483126C01009796
:1044600041F481EB94E06FE171E00E949E2FBB2448
:1044700089C081EC91E00E948C128C0181EC91E06A
:10448000B60142E451E098010E94A30D81EC91E055
:104490000E948312EC0181EC91E0B801AE010E9410
:1044A0006A0D81EC91E0BE014EE251E028E631E078
:1044B0000E94AC1281EC91E0BE0140E351E020E0AB
:1044C00030E00E940A1381EC91E0BE0142E351E02A
:1044D00097010E940A13E114F10429F485E190E0A8
:1044E0000E94E02128C0C70108970297F0F482ECEF
:1044F00091E063E0A7010E94D516AA2797FDA09539
:10450000BA2FBC01CD010E949C3120E030E040E296
:1045100051E40E9401318B019C0181EC91E0BE01CC
:1045200044E351E00E94DC120EC082EC91E063E0B3
:10453000A7010E94D5169C0181EC91E0BE0144E3E5
:1045400051E00E940A1381EB94E00E94732D18162B
:1045500019061CF4C4010E94E71D81EC91E0B6012C
:104560000E947D108C01009729F081EB94E0B80146
:104570000E949E2F81EC91E0B6010E94D80DC801E7
:104580000E948A018B2DDF91CF911F910F91FF9097
:10459000EF90DF90CF90BF909F908F9008958F9273
:1045A0009F92BF92CF92DF92EF92FF920F931F9351
:1045B000CF93DF934C01EB01188281EB94E00E94D2
:1045C000732D181619061CF4C4010E94E71D84E11E
:1045D00090E00E94E021BC0182EC91E040E00E946A
:1045E000CA177C0188E0E816F10429F482E0888388
:1045F000BB24B39403C0F7FC0EC0BB2481EC91E054
:104600000E9483126C01009741F481EB94E06FE10A
:1046100071E00E949E2FBB2489C081EC91E00E9432
:104620008C128C0181EC91E0B60142E451E09801DA
:104630000E94A30D81EC91E00E948312EC0181ECB9
:1046400091E0B801AE010E946A0D81EC91E0BE01DB
:104650004EE251E02AE631E00E94AC1281EC91E09A
:10466000BE0140E351E020E030E00E940A1381ECFB
:1046700091E0BE0142E351E097010E940A13E11468
:10468000F10429F484E190E00E94E02128C0C701F0
:1046900008970297F0F482EC91E062E0A7010E9493
:1046A000D516AA2797FDA095BA2FBC01CD010E946F
:1046B0009C3120E030E040E251E40E9401318B0166
:1046C0009C0181EC91E0BE0144E351E00E94DC12C8
:1046D0000EC082EC91E062E0A7010E94D5169C0119
:1046E00081EC91E0BE0144E351E00E940A1381EBAA
:1046F00094E00E94732D181619061CF4C4010E9440
:10470000E71D81EC91E0B6010E947D108C010097BD
:1047100029F081EB94E0B8010E949E2F81EC91E09A
:10472000B6010E94D80DC8010E948A018B2DDF912D
:10473000CF911F910F91FF90EF90DF90CF90BF909E
:104740009F908F9008957F928F929F92AF92BF9289
:10475000CF92DF92EF92FF920F931F93DF93CF934D
:10476000CDB7DEB727970FB6F894DEBF0FBECDBF2B
:104770004C018B01FB01108281EB94E00E94732DB0
:10478000181619061CF4C4010E94E71D81E190E08F
:104790000E94E021BC0182EC91E040E00E94CA1737
:1047A0007C018B30910539F489E793E061E070E09A
:1047B0000E947B2810C089E793E00E94522888E07D
:1047C000E816F10431F481E0F801808377247394D2
:1047D00003C0F7FC0EC0772481EC91E00E948312A5
:1047E0005C01009741F481EB94E06FE171E00E947D
:1047F0009E2F7724D9C081EC91E00E948C128C010D
:1048000081EC91E0B50142E451E098010E94A30DD2
:1048100081EC91E00E9483126C0181EC91E0B8017F
:10482000A6010E946A0D81EC91E0B6014EE251E0D2
:104830002CE631E00E94AC1281EC91E0B60140E33D
:1048400051E020E030E00E940A1381EC91E0B601D3
:1048500042E351E097010E940A13E114F10429F4A4
:1048600081E190E00E94E02178C0C701089702979B
:10487000F0F482EC91E061E0A7010E94D516AA272E
:1048800097FDA095BA2FBC01CD010E949C3120E07C
:1048900030E040E251E40E9401318B019C0181EC47
:1048A00091E0B60144E351E00E94DC125EC0FBE0FF
:1048B000EF16F10409F04BC089E793E00E944C2504
:1048C0008823D9F189E793E00E946525672B51F48D
:1048D00081EC91E0B60144E351E024E531E00E942F
:1048E000AC1226C0C40168E00E94BE2189E793E0B3
:1048F0000E946525AB01BC018E010F5F1F4FC801EF
:1049000022E00E946030C80164E473E042E350E0BA
:1049100020E030E00E94B12F81EC91E0B60144E349
:1049200051E024E433E00E94AC12C8010E949230AE
:1049300089E793E00E945C2518C081EC91E0B60104
:1049400044E351E02EE631E00E94AC120EC082EC4E
:1049500091E061E0A7010E94D5169C0181EC91E0F5
:10496000B60144E351E00E940A1381EB94E00E94F7
:10497000732D181619061CF4C4010E94E71D81EC62
:1049800091E0B5010E947D108C01009729F081EB28
:1049900094E0B8010E949E2F81EC91E0B5010E9445
:1049A000D80DC8010E948A01872D27960FB6F8946A
:1049B000DEBF0FBECDBFCF91DF911F910F91FF9052
:1049C000EF90DF90CF90BF90AF909F908F907F90AF
:1049D00008950F931F93DF93CF930F92CDB7DEB758
:1049E0008C0119820E946320C8010E948B1FC8019C
:1049F0000E94F620C801BE016F5F7F4F0E94A32373
:104A0000882321F0C80169810E94BE1EC801BE0131
:104A10006F5F7F4F0E94CF22882321F0C8016981F8
:104A20000E94BE1EC801BE016F5F7F4F0E94FB2126
:104A3000882321F0C80169810E94BE1E0F90CF918A
:104A4000DF911F910F910895FC018FEF9FEF9183EC
:104A50008083938382831092820310928303109247
:104A60008403109285038AE090E0978386838CE329
:104A700090E0909378018093770181E080878EE5C4
:104A800091E0958384830895FC0175836483089580
:104A9000FC0177836683089520E0809182039091E2
:104AA0008303A0918403B09185030097A105B1050C
:104AB00009F021E0822F089510928203109283035F
:104AC000109284031092850308956091820370917F
:104AD0008303809184039091850308952F923F92E0
:104AE0004F925F926F927F928F929F92AF92BF92FE
:104AF000CF92DF92EF92FF920F931F93DF93CF93AA
:104B0000CDB7DEB762970FB6F894DEBF0FBECDBF4C
:104B10003C0180918C0390918D036FE170E00E94C5
:104B200035344B017B0100E010E02091770130919A
:104B30007801442737FD4095542FC801B7010E94E2
:104B400016340E949A312AE037ED43E25CE30E947A
:104B50004C320E946E31A8019701220F331F441F6F
:104B6000551F2E0D3F1D401F511F59016A01A61AE6
:104B7000B70AC80AD90AAD82BE82CF82D8865B0145
:104B80006C01A20EB31EC41ED51EA982BA82CB82AE
:104B9000DC82AA24BB24650121E030E03A87298722
:104BA00017012801261A370A480A590AA80197014D
:104BB000260F371F481F591F2F87388B498B5A8B59
:104BC0007AC0E985FA85EE0FFF1FE457FC4F80811C
:104BD00091819C0140E050E02216330644065506C0
:104BE00058F58F859889A989BA89281739074A07FE
:104BF0005B0710F5E985FA85EE0FFF1FE257FC4FC2
:104C00000190F081E02D7F0100E010E0EB86FC8652
:104C10000D871E878D819E81AF81B8858E159F057A
:104C2000A007B10748F489819A81AB81BC81E8165D
:104C3000F9060A071B0778F1ED80FE800F811885C1
:104C4000E216F3060407150758F589819A81AB81AE
:104C5000BC81281739074A075B0710F5E985FA85F3
:104C6000EE0FFF1FE257FC4F80819181A0E0B0E082
:104C7000281639064A065B0698F4EF84F8880989F5
:104C80001A898E159F05A007B10750F40894A11C3E
:104C9000B11CC11CD11CAA0CBB1CCC1CDD1C05C04A
:104CA0007A866986AA24BB24650109851A850E5F68
:104CB0001F4F1A87098729853A852615370508F475
:104CC00080CFA6019501569547953795279587E0A2
:104CD00068167104C0F020938203309383034093DD
:104CE000840350938503769467947092870360924F
:104CF0008603909289038092880381E090E09093EC
:104D00008B0380938A0380E021153105410551050D
:104D100009F081E062960FB6F894DEBF0FBECDBFFA
:104D2000CF91DF911F910F91FF90EF90DF90CF9087
:104D3000BF90AF909F908F907F906F905F904F90BB
:104D40003F902F9008952F923F924F925F926F92D3
:104D50007F928F929F92AF92BF92CF92DF92EF920B
:104D6000FF920F931F93DF93CF93CDB7DEB7629778
:104D70000FB6F894DEBF0FBECDBF3C0180918C030F
:104D800090918D036AE070E00E9435344B017B0105
:104D900000E010E02091770130917801442737FD41
:104DA0004095542FC801B7010E9416340E949A31D1
:104DB0002AE037ED43E25CE30E944C320E946E3100
:104DC000A8019701220F331F441F551F59016A0183
:104DD000A61AB70AC80AD90AAD82BE82CF82D8867F
:104DE0005B016C01A20EB31EC41ED51EA982BA823D
:104DF000CB82DC8221E030E03A872987AA24BB24D9
:104E0000650117012801261A370A480A590AA8011C
:104E10009701260F371F481F591F2F87388B498B43
:104E20005A8B7AC0E985FA85EE0FFF1FE457FC4FD5
:104E3000808191819C0140E050E0221633064406B7
:104E4000550658F58F859889A989BA892817390791
:104E50004A075B0710F5E985FA85EE0FFF1FE25759
:104E6000FC4F0190F081E02D7F0100E010E0EB8627
:104E7000FC860D871E878D819E81AF81B8858E153A
:104E80009F05A007B10748F489819A81AB81BC8155
:104E9000E816F9060A071B0778F1ED80FE800F81FE
:104EA0001885E216F3060407150758F589819A81DB
:104EB000AB81BC81281739074A075B0710F5E985E4
:104EC000FA85EE0FFF1FE257FC4F80819181A0E031
:104ED000B0E0281639064A065B0698F4EF84F88895
:104EE00009891A898E159F05A007B10750F4089407
:104EF000A11CB11CC11CD11CAA0CBB1CCC1CDD1CF0
:104F000005C07A866986AA24BB24650109851A85AD
:104F10000E5F1F4F1A87098729853A8526153705A1
:104F200008F480CFA60195015695479537952795AA
:104F300087E068167104C0F02093820330938303E6
:104F4000409384035093850376946794709287030B
:104F500060928603909289038092880382E090E0B9
:104F600090938B0380938A0380E0211531054105DE
:104F7000510509F081E062960FB6F894DEBF0FBECE
:104F8000CDBFCF91DF911F910F91FF90EF90DF90F8
:104F9000CF90BF90AF909F908F907F906F905F90D9
:104FA0004F903F902F900895CF92DF92EF92FF9213
:104FB0000F931F93CF93DF930E94492A6B017C01CB
:104FC00080911404909115048601081B190B10930D
:104FD0001B0400931A0483E10938180798F1209103
:104FE0008C0330918D03C901885C90408017910734
:104FF00028F528533F4F0217130700F5809112043C
:105000009091130401969093130480931204C0911D
:105010001804D09119042197D0931904C09318044F
:10502000029761F4CE010E946E25882319F4CE0107
:105030000E94A326109213041092120410921904D5
:1050400010921804809118049091190483349105EA
:1050500040F0109219041092180410921304109248
:1050600012048091180490911904FC01EE0FFF1FA7
:10507000E457FC4F118300830196909319048093A9
:105080001804C0921404D0921504E0921604F09211
:105090001704DF91CF911F910F91FF90EF90DF9058
:1050A000CF9008950F931F938C01FC0180810E9483
:1050B00086298FEF9FEFF801918380831F910F91D5
:1050C0000895FC01808191812FEF8F3F920791F02D
:1050D000109282031092830310928403109285032E
:1050E000109287031092860364ED77E241E050E06E
:1050F0000E9463290895FC0180819181861797079A
:1051000029F071836083CF010E9461280895AF92D6
:10511000BF92DF92EF92FF920F931F93CF93DF9393
:10512000EC017B015A01088119818A819B818F5F83
:105130009F4F89F13FEF0F3F130711F4DD2405C0A6
:10514000CE010E945228DD24D3948A8161E00E941E
:10515000B52B8C819D819C01E29EC001E39E900D48
:10516000F29E900D11240E94C82A8A8160E00E945C
:10517000B52B8C819D819C01A29EC001A39E900DA8
:10518000B29E900D11240E94C82ADD2021F0CE018C
:10519000B8010E947B28DF91CF911F910F91FF9062
:1051A000EF90DF90BF90AF900895FC018085813033
:1051B00041F4CF0161E070E04FE150E00E948728A8
:1051C0000895823039F4CF0161E070E04AE050E0A8
:1051D0000E9487280895FC018085813041F4CF0129
:1051E00063E070E041E050E00E948728089582303B
:1051F00039F4CF0162E070E041E050E00E9487287E
:105200000895FC018085813041F4CF0161E070E0B8
:1052100043E050E00E9487280895823039F4CF019E
:1052200061E070E042E050E00E9487280895CF924C
:10523000DF92EF92FF920F931F93CF93DF938C0136
:105240006B01EE24FF2416C0803319F0813341F442
:1052500004C0C8010E94012903C0C8010E94EB28B4
:1052600021968881882381F7C8010E94D528089457
:10527000E11CF11CF80186819781E816F90614F407
:10528000E601EFCFDF91CF911F910F91FF90EF904B
:10529000DF90CF9008950F931F938C01FC018281C2
:1052A00060E00E948F2B8FEF9FEFF8019383828342
:1052B0001F910F910895FC01862F6283738361E033
:1052C0000E948F2B0895823000F5E82FF0E0EE0F5A
:1052D000FF1FE45EFB4F71836083882319F08130E8
:1052E000A1F408C0809169008C7F842B80936900B1
:1052F000E89A089580916900440F551F440F551F87
:10530000837F842B80936900E99A0895823080F42A
:10531000882319F0813021F402C0E89801C0E9988F
:10532000E82FF0E0EE0FFF1FE45EFB4F11821082CA
:1053300008951F920F920FB60F9211242F933F934F
:105340004F935F936F937F938F939F93AF93BF938D
:10535000EF93FF9380911C0490911D04892B29F0F9
:10536000E0911C04F0911D040995FF91EF91BF910C
:10537000AF919F918F917F916F915F914F913F91ED
:105380002F910F900FBE0F901F9018951F920F92A4
:105390000FB60F9211242F933F934F935F936F9308
:1053A0007F938F939F93AF93BF93EF93FF938091DE
:1053B0001E0490911F04892B29F0E0911E04F091A6
:1053C0001F040995FF91EF91BF91AF919F918F912C
:1053D0007F916F915F914F913F912F910F900FBEF1
:1053E0000F901F9018951F920F920FB60F921124D5
:1053F0002F933F938F939F93AF93BF9380912404F8
:1054000090912504A0912604B0912704309128049E
:105410000196A11DB11D232F2D5F2D3720F02D5793
:105420000196A11DB11D209328048093240490931C
:105430002504A0932604B093270480912004909122
:105440002104A0912204B09123040196A11DB11D55
:105450008093200490932104A0932204B09323040A
:10546000BF91AF919F918F913F912F910F900FBE60
:105470000F901F9018958FB7F894209124043091C5
:10548000250440912604509127048FBFB901CA0119
:1054900008959FB7F8942091200430912104409101
:1054A00022045091230486B5A89B06C08F3F21F0AB
:1054B0002F5F3F4F4F4F5F4F9FBF542F432F322FD0
:1054C0002227280F311D411D511D82E0220F331F5D
:1054D000441F551F8A95D1F7B901CA0108959B0150
:1054E000AC017FB7F8948091200490912104A091A1
:1054F0002204B091230466B5A89B05C06F3F19F044
:105500000196A11DB11D7FBFBA2FA92F982F882703
:10551000860F911DA11DB11D62E0880F991FAA1F62
:10552000BB1F6A95D1F7BC012DC0FFB7F8948091DD
:10553000200490912104A0912204B0912304E6B5A7
:10554000A89B05C0EF3F19F00196A11DB11DFFBF3B
:10555000BA2FA92F982F88278E0F911DA11DB11D3D
:10556000E2E0880F991FAA1FBB1FEA95D1F7861B9F
:10557000970B885E9340C8F2215030404040504025
:1055800068517C4F211531054105510571F608958B
:10559000019739F0880F991F880F991F029701977B
:1055A000F1F70895789484B5826084BD84B58160F4
:1055B00084BD85B5826085BD85B5816085BDEEE61B
:1055C000F0E0808181608083E1E8F0E010828081FA
:1055D00082608083808181608083E0E8F0E0808168
:1055E00081608083E1EBF0E0808184608083E0EB88
:1055F000F0E0808181608083EAE7F0E08081846070
:1056000080838081826080838081816080838081CB
:10561000806880831092C1000895982F8E3008F022
:105620009E509770809179018295880F880F807CB9
:10563000892B80937C0080917A00806480937A002B
:1056400080917A0086FDFCCF20917800409179000E
:10565000942F80E030E0282B392BC90108951F9347
:10566000CF93DF93182FEB0161E00E948F2B2097DF
:1056700009F44AC0CF3FD10509F449C0E12FF0E059
:10568000E45BFE4F84918330C1F0843028F4813094
:1056900051F08230B1F50CC0863019F1873049F1F4
:1056A000843079F514C084B5806884BDC7BD33C02B
:1056B00084B5806284BDC8BD2EC0809180008068A2
:1056C00080938000D0938900C093880024C080918B
:1056D0008000806280938000D0938B00C0938A000A
:1056E0001AC08091B00080688093B000C093B3006E
:1056F00012C08091B00080628093B000C093B4006B
:105700000AC0C038D1051CF4812F60E002C0812F8F
:1057100061E00E94B52BDF91CF911F910895482F32
:1057200050E0CA01885C9E4FFC0124914C5D5E4FA5
:10573000FA0184918823C1F0E82FF0E0EE0FFF1FFB
:10574000EA5FFE4FA591B491662341F49FB7F894A8
:105750008C91209582238C939FBF08959FB7F894D6
:105760008C91822B8C939FBF0895482F50E0CA01E3
:10577000845B9E4FFC012491CA01885C9E4FFC0112
:1057800094914C5D5E4FFA013491332309F440C08B
:10579000222351F1233071F0243028F42130A1F07C
:1057A000223011F514C02630B1F02730C1F024307A
:1057B000D9F404C0809180008F7703C0809180006D
:1057C0008F7D8093800010C084B58F7702C084B530
:1057D0008F7D84BD09C08091B0008F7703C0809118
:1057E000B0008F7D8093B000E32FF0E0EE0FFF1F3D
:1057F000E05FFE4FA591B4912FB7F894662321F492
:105800008C919095892302C08C91892B8C932FBF0A
:105810000895682F70E0CB01845B9E4FFC012491BA
:10582000CB01885C9E4FFC0144916C5D7E4FFB0177
:105830009491992319F420E030E03CC0222351F1E7
:10584000233071F0243028F42130A1F0223011F5FA
:1058500014C02630B1F02730C1F02430D9F404C090
:10586000809180008F7703C0809180008F7D80932E
:10587000800010C084B58F7702C084B58F7D84BD51
:1058800009C08091B0008F7703C08091B0008F7DF8
:105890008093B000892F90E0880F991F865E9E4FFD
:1058A000FC01A591B4918C9120E030E0842311F0AB
:1058B00021E030E0C901089508951F920F920FB6BC
:1058C0000F9211242F933F934F938F939F93EF93B6
:1058D000FF934091C6002091690430916A042F5FC4
:1058E0003F4F2F73307080916B0490916C04281798
:1058F000390759F0E0916904F0916A04E75DFB4FC4
:10590000408330936A0420936904FF91EF919F9143
:105910008F914F913F912F910F900FBE0F901F903D
:105920001895E091BD04F091BE04E05CFF4F8191B9
:10593000919120813181821B930B8F739070892B01
:1059400011F00E945C2C08951F920F920FB60F92D7
:1059500011242F933F934F935F936F937F938F9374
:105960009F93AF93BF93EF93FF932091AD0430913A
:10597000AE048091AF049091B0042817390731F438
:105980008091C1008F7D8093C10016C0E091AF046B
:10599000F091B004E359FB4F40818091AF049091A6
:1059A000B004019660E470E00E9449349093B00422
:1059B0008093AF044093C600FF91EF91BF91AF91E8
:1059C0009F918F917F916F915F914F913F912F9117
:1059D0000F900FBE0F901F901895AF92BF92DF925D
:1059E000EF92FF920F931F93CF93DF93EC017A0115
:1059F0008B01DD24403081EE580780E0680780E0AD
:105A0000780711F0DD24D39491E0A92EB12CEC8914
:105A1000FD89DD2069F0C5010E8C02C0880F991F39
:105A20000A94E2F7808360E079E08DE390E005C0BE
:105A3000108260E874E88EE190E0A80197010E946E
:105A40005C34215030404040504056954795379542
:105A5000279580E12030380720F0DD2011F0DD248B
:105A6000D6CFE889F9893083EA89FB892083EE89DA
:105A7000FF89408121E030E0C9010A8C02C0880F13
:105A8000991F0A94E2F7482B4083EE89FF894081F1
:105A9000C9010B8C02C0880F991F0A94E2F7482BAA
:105AA0004083EE89FF894081C9010C8C02C0880FB8
:105AB000991F0A94E2F7482B4083EE89FF89808181
:105AC0000D8C02C0220F331F0A94E2F72095282381
:105AD0002083DF91CF911F910F91FF90EF90DF9086
