:100000000C94B6000C941B310C9448310C94DE0017
:100010000C94DE000C94DE000C94DE000C94DE00E8
:100020000C94DE000C94DE000C94DE000C94DE00D8
:100030000C94DE000C94DE000C94DE000C94DE00C8
:100040000C9475310C94DE000C94F8330C94463407
:100050000C94DE000C94DE000C94DE000C94DE00A8
:100060000C946F190C94DE0007634236B79BD8A737
:100070001A39685618AEBAAB558C1D3CB7CC5763CD
:10008000BD6DEDFD753EF6177231BF000000803F7B
:1000900008000000BE922449123EABAAAA2ABECD97
:1000A000CCCC4C3E00000080BEABAAAAAA3E000009
:1000B0000000BF000000803F000000000008417801
:1000C000D3BB4387D1133D190E3CC3BD4282AD2B38
:1000D0003E68EC8276BED98FE1A93E4C80EFFFBE30
:1000E00001C4FF7F3F000000000074727565006668
:1000F000616C7365006E756C6C0025750025752E3E
:10010000002D0025640000000000240027002A00C4
:1001100000000000250028002B0000000000230044
:100120002600290004040404040404040202020258
:1001300002020303030303030102040810204080AA
:10014000010204081020010204081020000000072A
:10015000000201000003040600000000000000008F
:10016000C60A711677186E1CEF1CB23511241FBE1B
:10017000CFEFD8E0DEBFCDBF11E0A0E0B1E0ECE012
:10018000F7E702C005900D92A83BB107D9F716E03A
:10019000A8EBB1E001C01D92A236B107E1F711E072
:1001A000CCE6D1E004C02297FE010E943E3BC0365F
:1001B000D107C9F70E9408360C94843B0C940000C8
:1001C000EF92FF920F93DF93CF93CDB7DEB7609797
:1001D0000FB6F894DEBF0FBECDBFA82F002309F4E1
:1001E00061C07E010894E11CF11C88E0F7011192C6
:1001F0008A95E9F729833A834B835C836D837E83F9
:10020000AF83988780E2801BE82FFF27E7FDF095FA
:100210004D815E816F817885181684F01D861E865B
:100220001F86188A882799278E1B9F0B04C07695F6
:100230006795579547958A95D2F728C0202F332781
:1002400027FD3095DB01CA01022E04C0B695A795A3
:10025000979587950A94D2F78D879E87AF87B88B3D
:1002600004C0440F551F661F771FEA95D2F7898196
:100270009A81AB81BC8104C0B695A7959795879567
:100280002A95D2F7482B592B6A2B7B2B49875A8703
:100290006B877C8729853A854B855C856D857E8556
:1002A000AF8598898A2F60960FB6F894DEBF0FBE8F
:1002B000CDBFCF91DF910F91FF90EF900895EF9216
:1002C000FF920F93DF93CF93CDB7DEB760970FB652
:1002D000F894DEBF0FBECDBFA82F002309F461C084
:1002E0007E010894E11CF11C88E0F70111928A95C7
:1002F000E9F729833A834B835C836D837E83AF83E5
:10030000988780E2801BE82FFF27E7FDF095498161
:100310005A816B817C81181684F019861A861B8697
:100320001C86882799278E1B9F0B04C0440F551FDE
:10033000661F771F8A95D2F728C0202F332727FD05
:100340003095DB01CA01022E04C0880F991FAA1F35
:10035000BB1F0A94D2F789879A87AB87BC8704C0F2
:100360007695679557954795EA95D2F78D819E8149
:10037000AF81B88504C0880F991FAA1FBB1F2A959B
:10038000D2F7482B592B6A2B7B2B4D875E876F87C3
:10039000788B29853A854B855C856D857E85AF8513
:1003A00098898A2F60960FB6F894DEBF0FBECDBF36
:1003B000CF91DF910F91FF90EF900895CF93DF934E
:1003C000BC018230910510F462E070E0A091580603
:1003D000B0915906ED01E0E0F0E040E050E021C0CE
:1003E000888199818617970769F48A819B81309764
:1003F00019F09383828304C0909359068093580622
:10040000FE0134C06817790738F44115510519F019
:100410008417950708F4AC01FE018A819B819C0139
:10042000E9012097E9F641155105A9F1CA01861B9A
:10043000970B049708F4BA01E0E0F0E02AC08D9130
:100440009C91119784179507F9F46417750781F447
:1004500012968D919C911397309719F09383828314
:1004600004C09093590680935806FD0132964CC003
:10047000CA01861B970BFD01E80FF91F6193719369
:1004800002978D939C9340C0FD01828193819C01D2
:10049000D9011097A1F68091560690915706892BA5
:1004A00041F4809185019091860190935706809345
:1004B000560640918701509188014115510541F43C
:1004C0004DB75EB78091830190918401481B590B11
:1004D0002091560630915706CA01821B930B86174E
:1004E000970780F0AB014E5F5F4F8417950750F080
:1004F000420F531F5093570640935606F9016193DC
:10050000719302C0E0E0F0E0CF01DF91CF91089558
:10051000CF93DF93009709F450C0EC0122971B8220
:100520001A82A0915806B0915906109709F140E03F
:1005300050E0AC17BD0708F1BB83AA83FE012191EF
:100540003191E20FF31FAE17BF0779F48D919C91A3
:100550001197280F391F2E5F3F4F3983288312963A
:100560008D919C9113979B838A834115510571F45A
:10057000D0935906C093580620C012968D919C9135
:100580001397AD01009711F0DC01D3CFFA01D383AB
:10059000C28321913191E20FF31FCE17DF0769F477
:1005A00088819981280F391F2E5F3F4FFA013183CF
:1005B00020838A819B8193838283DF91CF910895E9
:1005C0002F923F925F926F927F928F929F92AF9203
:1005D000BF92CF92DF92EF92FF920F931F93CF9330
:1005E000DF938C011B01EA016115710519F0FB0114
:1005F00091838083209749F0CE010297839728F05A
:1006000020E030E040E050E0F6C0F801A1908F011A
:100610008A2D90E00E94423B892BB9F7FDE2AF168C
:1006200031F4F801A1908F015524539407C0FBE2E7
:10063000AF1619F4F801A1908F015524209719F0F5
:10064000C031D105C1F4F0E3AF1679F4F80180812F
:10065000883711F0883549F4F801A1800E5F1F4FEB
:10066000F2E05F2AC0E1D0E006C0209721F480E3E9
:10067000A816E9F427C0C830D10531F1C930D10539
:1006800024F4C230D10531F50CC0CA30D10589F04F
:10069000C031D105F9F4C12CD12CE12CB8E0FB2EEE
:1006A00028C0C12CD12CE12CA0E4FA2E22C0CAE033
:1006B000D0E0FCECCF2EFCECDF2EFCECEF2EFCE0CF
:1006C000FF2E17C0C8E0D0E0C12CD12CE12CE0E116
:1006D000FE2E0FC09E01442737FD4095542F60E049
:1006E00070E080E090E80E941A3BC901DA016C01D9
:1006F0007D0120E030E040E050E060E03E018824F1
:1007000077FC8094982C70EDB72EBA0CE9E0EB15CD
:1007100070F48A2D81548A3118F499ECB92E06C0F0
:100720008A2D81568A3150F589EAB82EBA0C8B2D64
:1007300090E08C179D0714F56F3FE1F0C216D306C9
:10074000E406F506B0F0CA01B901A40193010E94C4
:10075000D43A9B01AC012B0D311D411D511D21309F
:10076000F0E03F07F0E04F07F0E85F0710F461E0CA
:1007700001C06FEFF801A1908F01C5CF21143104A2
:1007800081F0662331F001501040F10111830083A4
:1007900008C051FE1AC002501040F10111830083BD
:1007A00014C067FF12C050FC05C02FEF3FEF4FEFA2
:1007B0005FE704C020E030E040E050E882E290E0F3
:1007C000909361068093600616C050FE08C0509555
:1007D0004095309521953F4F4F4F5F4F0CC057FFCD
:1007E0000AC082E290E090936106809360062FEF4A
:1007F0003FEF4FEF5FE7B901CA01DF91CF911F9142
:100800000F91FF90EF90DF90CF90BF90AF909F90AF
:100810008F907F906F905F903F902F900895FC0194
:1008200088279927E89421912032E9F3293010F0A4
:100830002E30C8F32B3241F02D3239F4689404C0C5
:100840000E949604820F911D219120532A30C0F3FB
:100850001EF4909581959F4F08950F931F93CF930A
:10086000DF93182F092FE82FF92FDF010D900020BB
:10087000E9F7CD018E1B9F0B0E94DE01EC01009772
:1008800021F0612F702F0E947204CE01DF91CF9171
:100890001F910F910895FB01DC018D9181341CF0B3
:1008A0008B350CF4805E619161341CF06B350CF477
:1008B000605E861B611189F3990B0895FB01DC01D1
:1008C0000D900020E9F7119701900D920020E1F7BB
:1008D0000895FB01DC018D91019080190110D9F37D
:1008E000990B0895FB01DC0101900D920020E1F7C6
:1008F0000895FB01DC014150504030F08D91019092
:10090000801919F40020B9F7881B990B0895FB0191
:10091000DC014150504048F001900D920020C9F791
:1009200001C01D9241505040E0F708957AE0979F32
:10093000902D879F802D910D11240895FC018381B6
:1009400087FF24C080915A0690915B068E179F07FF
:1009500021F410925B0610925A0680915C069091E9
:100960005D068E179F0721F410925D0610925C06BB
:1009700080915E0690915F068E179F0721F410927A
:100980005F0610925E06CF010E94880280E090E030
:1009900008950F931F93CF93DF938C01EB01009782
:1009A00031F46115710519F420E030E038C081E0C0
:1009B00090E06EE070E00E94EC07FC019C01009763
:1009C00071F180E88383209771F0D387C28781E833
:1009D000838380915A0690915B06892B21F4F093D2
:1009E0005B06E0935A0601151105C9F011870087CF
:1009F00083818260838380915C0690915D06892B60
:100A000071F4F0935D06E0935C0680915E06909130
:100A10005F06892B21F4F0935F06E0935E06C9011F
:100A2000DF91CF911F910F910895CF93DF93EC0148
:100A30004B8140FF1AC046FF0AC04F7B4B838E811B
:100A40009F8101969F838E838A81282F2BC042FF2E
:100A500013C0E881F9818081282F332727FD309545
:100A60002115310529F440624B832FEF3FEF1BC066
:100A70003196F983E88311C0EA85FB85CE0109959B
:100A80009C0197FF0AC09B812F5F3F4F11F080E2CE
:100A900001C080E1892B8B83E8CF8E819F810196F5
:100AA0009F838E8330E0C901DF91CF910895A0E04C
:100AB000B0E0EDE5F5E00C945B3B0F8118859E01FD
:100AC000255F3F4FF801838188608383C801698572
:100AD0007A85A9010E940F06F8012381277F2383CD
:100AE0002096E4E00C94773B0F931F93CF93DF9312
:100AF0008C01EB018B8181FF1BC082FF0DC02E8119
:100B00003F818C819D812817390764F4E881F98140
:100B10000193F983E88306C0E885F985802F09955C
:100B2000892B31F48E819F8101969F838E8302C031
:100B30000FEF1FEFC801DF91CF911F910F91089523
:100B4000A0E0B0E0E6EAF5E00C94533BFC014B0179
:100B50005A016901D90113968C9180FF1AC07F0157
:100B6000C0E0D0E010C0C6010E941505BFEF8F3F66
:100B70009B0789F0F70181937F010F5F1F4F0815D5
:100B8000190588F32196CA15DB0528F400E010E06A
:100B9000F6CFC0E0D0E0CE01CDB7DEB7ECE00C94EC
:100BA0006F3BAEE0B0E0E7EDF5E00C945B3B0D8908
:100BB0001E8986E08C831A8309838FEF9FE79E83CB
:100BC0008D839E01275E3F4FCE0101966F89788D00
:100BD000A9010E940F062F813885020F131FF8010B
:100BE00010822E96E4E00C94773B9C01FB018381FC
:100BF00080FF11C086FD0FC09FEF2F3F390759F0CE
:100C0000228380648F7D8383868197810197978378
:100C1000868330E002C02FEF3FEFC9010895ABE0BB
:100C2000B0E0E5E1F6E00C944D3B3C012B015A01AC
:100C3000FC0117821682838181FD03C06FEF7FEF75
:100C4000C6C19AE0892E1E010894211C311CF301B3
:100C50002381F20123FD859123FF81912F018823B8
:100C600009F4B2C1853239F423FD859123FF8191C6
:100C70002F01853229F490E0B3010E947405E7CF7B
:100C8000982FFF24EE249924FFE1FF15D0F09B322A
:100C900069F09C3228F4903259F0933291F40EC0EE
:100CA0009D3249F0903369F441E024C052E0F52AC6
:100CB00084E0F82A28C098E0F92A25C0E0E1FE2A5D
:100CC00022C0F7FC29C0892F80538A3070F4F6FEC9
:100CD00005C0989C902C1124980E15C0E89CE02C1F
:100CE0001124E80EF0E2FF2A0EC09E3229F4F6FC31
:100CF0006BC140E4F42A07C09C3619F450E8F52A89
:100D000002C0983649F4F20123FD959123FF919199
:100D10002F01992309F0B8CF892F8554833018F01B
:100D20008052833038F444E050E0A40EB51E5FE3F7
:100D300059830FC0933631F0933779F0933509F02A
:100D400056C020C0F5018081898342E050E0A40EA6
:100D5000B51E610101E010E012C0F501C080D18034
:100D6000F6FC03C06FEF7FEF02C0692D70E042E038
:100D700050E0A40EB51EC6010E941A088C015FE760
:100D8000F52214C0F501C080D180F6FC03C06FEFDE
:100D90007FEF02C0692D70E042E050E0A40EB51E66
:100DA000C6010E9408088C0150E8F52AF3FE07C02E
:100DB0001AC080E290E0B3010E947405EA948E2D7F
:100DC00090E008171907A8F30EC0F601F7FC85910B
:100DD000F7FE81916F0190E0B3010E947405E1106C
:100DE000EA94015010400115110579F7EAC09436D4
:100DF00011F0993669F5F7FE08C0F50120813181BF
:100E00004281538184E090E00AC0F50180819181A4
:100E10009C01442737FD4095542F82E090E0A80EB6
:100E2000B91E9FE6F92257FF09C0509540953095AD
:100E300021953F4F4F4F5F4FE0E8FE2ACA01B901AD
:100E4000A1012AE030E00E942508D82ED21840C027
:100E5000953729F41F2D1F7E2AE030E01DC01F2D7D
:100E6000197F9F3661F0903720F4983509F0ACC0B7
:100E70000FC0903739F0983709F0A6C004C028E0B9
:100E800030E00AC0106114FD146020E130E004C0BD
:100E900014FD166020E132E017FF08C0F501608103
:100EA00071818281938144E050E008C0F501808126
:100EB0009181BC0180E090E042E050E0A40EB51EBC
:100EC000A1010E942508D82ED2188FE7F82EF12212
:100ED000F6FE0BC05EEFF522D91438F4F4FE07C01D
:100EE000F2FC05C08FEEF82202C01D2D01C0192DA5
:100EF000F4FE0DC0FE01ED0DF11D8081803319F46B
:100F000099EEF92208C01F5FF2FE05C003C08F2DC5
:100F1000867809F01F5F0F2DF3FC14C0F0FE0FC0A0
:100F20001E1510F09D2C0BC09D2C9E0C911A1E2D91
:100F300006C080E290E0B3010E9474051F5F1E1599
:100F4000C0F304C01E1510F4E11A01C0EE2404FF22
:100F50000FC080E390E0B3010E94740502FF1DC042
:100F600001FD03C088E790E00EC088E590E00BC06B
:100F7000802F867891F001FF02C08BE201C080E2F1
:100F8000F7FC8DE290E0B3010E94740506C080E397
:100F900090E0B3010E9474059A94D914C0F3DA94D6
:100FA000F101ED0DF11D808190E0B3010E94740507
:100FB000DD20A9F706C080E290E0B3010E9474052D
:100FC000EA94EE20C1F743CEF30166817781CB012D
:100FD0002B96E2E10C94693B0F931F93CF93DF9321
:100FE000689F8001699F100D789F100D1124C80122
:100FF0000E94DE01EC01009729F060E070E0A8019A
:101000000E941308CE01DF91CF911F910F91089597
:10101000FC010590615070400110D8F780959095C3
:101020008E0F9F1F0895DC0101C06D934150504009
:10103000E0F70895FC016150704001900110D8F76D
:10104000809590958E0F9F1F0895FA01AA2728304A
:1010500051F1203181F1E8946F936E7F6E5F7F4F85
:101060008F4F9F4FAF4FB1E03ED0B4E03CD0670F01
:10107000781F891F9A1FA11D680F791F8A1F911D54
:10108000A11D6A0F711D811D911DA11D20D009F4A4
:1010900068943F912AE0269F11243019305D3193E6
:1010A000DEF6CF010895462F4770405D4193B3E0CF
:1010B0000FD0C9F7F6CF462F4F70405D4A3318F076
:1010C000495D31FD4052419302D0A9F7EACFB4E027
:1010D000A6959795879577956795BA95C9F70097DF
:1010E0006105710508959B01AC010A2E0694579580
:1010F000479537952795BA95C9F7620F731F841FD7
:10110000951FA01D08950F931F930BEB12E0C801CC
:101110000E94382BC8010E940F231F910F91089540
:101120000F931F9304E315E0C80140E855E260E027
:1011300070E00E948134C8010E94413687E061E07E
:101140000E94113388E061E00E94113389E061E080
:101150000E94113387E061E00E94503388E061E033
:101160000E94503389E061E00E94503389E060E0E2
:101170000E9450331F910F910895DC01862F90E05B
:10118000FC01E85CFE4FE491EC938C5D9E4FFC010A
:101190006491E62FF0E0EE0FFF1FE65EFE4F8591B3
:1011A000949112969C938E9311970895FC01278138
:1011B000308541855285B901CA010895FC01238516
:1011C000348545855685B901CA0108950F931F934B
:1011D0008C01862F90E0FC01E85CFE4FE491D80181
:1011E000EC938C5D9E4FFC016491E62FF0E0EE0FD6
:1011F000FF1FE65EFE4F8591949112969C938E930D
:1012000011970E94BD31D80113966D937D938D93F4
:101210009C93169780E090E0A7ECB2ECF8018783EE
:101220009087A187B28783879487A587B6871F9108
:101230000F9108954F925F927F928F929F92AF92FB
:10124000BF92CF92DF92EF92FF920F931F93DF93A3
:10125000CF93CDB7DEB7A9970FB6F894DEBF0FBE18
:10126000CDBF5C01FC017080018112810E94BD3103
:101270009B01AC014E010894811C911C2401CE01FC
:101280008A96F20111922F01E817F907D1F7F501BB
:1012900083819481A581B68169017A01C81AD90A2E
:1012A000EA0AFB0AD701C601805D9740A040B04022
:1012B00018F427E030E02EC1F50123833483458301
:1012C0005683F894F8018181E72CE0948E21818384
:1012D0007894FF24C72CDD2407C0F394FEE7FF16A3
:1012E00019F421E030E016C182E090E00E944A3219
:1012F000F801808190E08C219D21892B71F3F89475
:10130000F80182818E21828381818729818378946B
:101310008CE494E00E944A32F894F80181818E2195
:1013200081837894FF2407C0F394FAE1FF1619F43F
:1013300022E030E0EFC082E090E00E944A32F80103
:10134000808190E08C219D21892B71F3FF2407C0BF
:10135000F394F3E3FF1619F423E030E0DBC082E0FE
:1013600090E00E944A32F801808190E08C219D211A
:10137000892B71F7FF2407C0F394F4E2FF1619F4E8
:1013800024E030E0C7C082E090E00E944A32F801D9
:10139000808190E08C219D21892B71F3FF2406C070
:1013A000F3E3FF1619F425E030E0B4C0F39482E0D3
:1013B00090E00E944A32F801808190E08C219D21CA
:1013C000892B71F7F401F1924F01E415F50591F6BF
:1013D000EE24FF2420E030E0DE01119660E170E0B1
:1013E00041E050E02F5F3F4FFD01E20FF31F80818E
:1013F0008C3058F0CB01821B930B6A0102C0CC0CDD
:10140000DD1C8A95E2F7EC28FD282031310551F7E3
:10141000FE01729600E010E02FE030E041E050E085
:1014200080818C3048F0CA01022E02C0880F991FBB
:101430000A94E2F7082B192B2150304031966FEFB8
:101440002F3F360769F7FE01B296DD2427E030E032
:1014500041E050E080818C3040F0CA01022E02C091
:10146000880F991F0A94E2F7D82A2150304031960C
:10147000E415F50579F7B7017F77882777FD809523
:10148000982F0E945A3820E030E040E251E40E9458
:10149000BF37F501678370878187928717FF0DC07B
:1014A0001F77B801882777FD8095982F0E945A38BA
:1014B00020E030E040E251EC0BC0B801882777FD16
:1014C0008095982F0E945A3820E030E040E251E4A5
:1014D0000E94BF37F50163877487858796874D2DF6
:1014E00050E02F2D332727FD3A958E2D90E0820F67
:1014F000911D800F911D212F332727FD3A95820FD3
:10150000911D90704817590719F026E030E002C08D
:1015100020E030E0C901A9960FB6F894DEBF0FBEF7
:10152000CDBFCF91DF911F910F91FF90EF90DF9092
:10153000CF90BF90AF909F908F907F905F904F9093
:101540000895449A459AE9EBF0E080818E7F80838C
:1015500080818D7F808388E48093B80084E48093C9
:10156000BC000895FC018091B8019091BA01981BCC
:101570009093B901882319F41092B901089581500C
:101580008093B801E90FF11D828108950895EF92CB
:10159000FF920F931F930E94BD317B018C0184E960
:1015A0008093BC001BC021153105E1F00E94BD31C4
:1015B0006E197F09800B910B2091BB013091BC010A
:1015C00040E050E0621773078407950738F01092E7
:1015D000BC0084E48093BC0081E009C02091BB0181
:1015E0003091BC018091BC0084FDDDCF80E01F9173
:1015F0000F91FF90EF900895CF92DF92EF92FF92BC
:101600001F93162F0E94BD316B017C01112311F035
:1016100084EC01C084E88093BC001BC02115310517
:10162000E1F00E94BD316C197D098E099F0920915E
:10163000BB013091BC0140E050E0621773078407A2
:10164000950738F01092BC0084E48093BC0091E0D0
:1016500019C02091BB013091BC018091BC0087FF73
:10166000DDCF8091B900887F883349F49091B9002B
:10167000987F1092BC0084E48093BC0003C09091DA
:10168000B900987F892F1F91FF90EF90DF90CF9046
:101690000895EF92FF920F931F93CF93DF93EC0186
:1016A0006093BB000E94BD317B018C0184E8809374
:1016B000BC001BC021153105E1F00E94BD316E193F
:1016C0007F09800B910B2091BB013091BC0140E060
:1016D00050E0621773078407950738F01092BC003A
:1016E00084E48093BC0011E020C02091BB013091C4
:1016F000BC018091BC0087FFDDCF8091B900887F5D
:10170000883211F410E011C01091B900187F809157
:10171000B900887F803321F4CE010E94C70A05C03A
:101720001092BC0084E48093BC00812FDF91CF91A4
:101730001F910F91FF90EF900895EF92FF920F93FA
:101740001F93CF93DF93EC016093BB000E94BD31E8
:101750007B018C0184E88093BC001BC021153105FE
:10176000E1F00E94BD316E197F09800B910B209131
:10177000BB013091BC0140E050E062177307840761
:10178000950738F01092BC0084E48093BC0011E00F
:101790001DC02091BB013091BC018091BC0087FF2E
:1017A000DDCF8091B900887F883179F08091B900D0
:1017B000887F803499F409C08091B900887F88348B
:1017C000B1F4CE010E94C70A01C010E0812FDF9161
:1017D000CF911F910F91FF90EF9008951091B90054
:1017E000187F8091B900887F803231F7EACF10925C
:1017F000BC0084E48093BC00E9CFEF92FF920F938A
:101800001F930E94BD317B018C0184EA8093BC0050
:101810001BC021153105E1F00E94BD316E197F0911
:10182000800B910B2091BB013091BC0140E050E056
:10183000621773078407950738F01092BC0084E4A0
:101840008093BC0091E021C02091BB013091BC018C
:101850008091BC0087FFDDCF8091B900887F883000
:1018600099F08091B900887F8031A9F40DC09091E2
:10187000B900987F1092BC0084E48093BC0005C03E
:101880009091B900987F01C090E0892F1F910F912E
:10189000FF90EF9008958091B900887F883381F799
:1018A000E6CFEF92FF920F931F93CF93DF93EC015C
:1018B000162F042FE22E1092B8011092B9012223A4
:1018C00011F4EE24E394EA94E982E3941882CE01C1
:1018D0000E94FD0B8883882309F061C0110FCE019F
:1018E000612F0E949D0B8883882329F0813009F0A5
:1018F00056C082E054C0CE01602F0E94490B8883FD
:10190000882329F0813009F04AC083E048C0CE0125
:101910000E94FD0B8883882329F0813009F03FC0A5
:1019200084E03DC01F5FCE01612F0E949D0B888324
:10193000882319F48E01FF2425C0813081F585E0CC
:101940002EC08981F81651F4CE0160E00E94FC0A95
:101950008883813019F1883551F021C0CE0161E0D2
:101960000E94FC0A88838130C9F08035C1F48091DF
:10197000BB00F8018283F394F092B801F092BA01AF
:101980000F5F1F4FFE14E8F2CE010E94C70A888342
:10199000882329F0813019F487E001C086E0DF91C7
:1019A000CF911F910F91FF90EF900895FF920F93A9
:1019B0001F93CF93DF93EC01162F042FF22E188282
:1019C0000E94FD0B8883882341F5110FCE01612F02
:1019D0000E949D0B8883882321F08130F1F482E0FE
:1019E0001CC0CE01602F0E94490B8883882339F4E4
:1019F000CE016F2D0E94490B8883882319F0813016
:101A000061F40AC0CE010E94C70A8883882329F0A6
:101A1000813019F487E001C083E0DF91CF911F91FD
:101A20000F91FF9008950F931F93CF93DF93EC01D5
:101A3000162F042F18820E94FD0B8883882301F53E
:101A4000110FCE01612F0E949D0B8883882321F006
:101A50008130B1F482E014C0CE01602F0E94490BA6
:101A60008883882321F0813059F483E009C0CE01B6
:101A70000E94C70A8883882319F0813009F487E01F
:101A8000DF91CF911F910F910895FB010680F7819F
:101A9000E02D80E004C08F5F0280F381E02D30975D
:101AA000D1F70895FB010680F781E02D04C0415075
:101AB0000280F381E02D309711F04423C1F7CF016C
:101AC0000895CF93DF93EB01DA01EE81FF81411599
:101AD000510591F0309719F45F834E830DC0CF010B
:101AE0000280F381E02D3097D1F7FC01B383A2830C
:101AF00015969C938E931497DF91CF9108950F9331
:101B00001F93CF93DF93FB018A01C681D78103C066
:101B10000A80DB81C02D209739F088819981B80136
:101B20000E944B04892BA1F7CE01DF91CF911F9129
:101B30000F910895EF92FF920F931F93CF93DF932E
:101B40007B018A01E9012115310511F18881998113
:101B5000009711F00E948802C8010E942D0488831A
:101B60009983D7011696ED91FC911797309729F438
:101B70001796DC93CE9316970BC0CF010280F381AA
:101B8000E02D3097D1F7FC01D383C2839D838C83F2
:101B9000DF91CF911F910F91FF90EF900895EF92F9
:101BA000FF920F931F93CF93DF938C01EB0123C020
:101BB000FA80EB80888587FD08C06E817F81611582
:101BC000710519F0C8010E94CF0D8885853031F468
:101BD00089859A85009711F00E94880288819981F1
:101BE000009711F00E948802CE010E9488028F2D7A
:101BF0009E2D9C01E9012097D9F6DF91CF911F918D
:101C00000F91FF90EF9008950F931F93CF93DF9361
:101C10008B01EA0182E290E0BA010E9474058F5FB5
:101C20009F4F09F464C00115110509F050C054C05C
:101C3000803240F0823231F08C3521F0992787FDD7
:101C4000909534C08CE590E0BE010E9474058F5FD2
:101C50009F4F09F44CC0F80180818C30C9F08D3061
:101C60003CF4893051F18A30B1F0883071F50DC003
:101C7000823241F08C3519F08D3039F515C08CE584
:101C800090E01DC082E290E008C082E690E00EC0C5
:101C900086E690E014C08EE690E0BE010E947405D6
:101CA0008F5F9F4F91F423C082E790E0BE010E94B6
:101CB00074058F5F9F4F49F41AC084E790E0BE011E
:101CC0000E9474058F5F9F4F91F00F5F1F4FF801C7
:101CD0008081882309F0ACCF82E290E0BE010E94AF
:101CE00074058F5F9F4F19F020E030E002C02FEFA6
:101CF0003FEFC901DF91CF911F910F910895CF93CD
:101D0000DF93EB016115710559F0CE010E941505B5
:101D10002FEF8F3F920721F081329105B4F306C077
:101D20002FEF3FEFC901DF91CF910895BE010E94CF
:101D3000F5058F5F9F4FA1F320E030E0F3CF6F9266
:101D40007F928F929F92AF92BF92CF92DF92EF924B
:101D5000FF920F931F93CF93DF93FB014A0161150D
:101D6000710509F4A5C0A184B284C384D484C601DA
:101D7000B50120E030E040E050E00E94BB3788230E
:101D8000C4F400D000D0ADB7BEB712969C928E922C
:101D9000119781E091E014969C938E9313970E9483
:101DA0005705D7FAD094D7F8D0940F900F900F9092
:101DB0000F90C601B5010E942C387B018C01EDB754
:101DC000FEB738970FB6F894FEBF0FBEEDBF319641
:101DD000ADB7BEB712969C928E9211978DEF90E0A0
:101DE00093838283E482F582068317830E945705DA
:101DF000C801B7010E9458389B01AC01C601B5016A
:101E00000E9456372CEA35EC47EA56E30E945737D2
:101E10007B018C01C5E0D0E0EDB7FEB738960FB678
:101E2000F894FEBF0FBEEDBF8AEF682E80E0782EDB
:101E3000C801B70120E030E040E251E40E940A39D5
:101E40005B016C010E942C387B0100D000D000D0D7
:101E5000EDB7FEB73196ADB7BEB712969C928E9293
:101E6000119773826282758364830E94570500E034
:101E700010E0C801B7010E9458389B01AC01C601AF
:101E8000B5010E9456377B018C01EDB7FEB736963F
:101E90000FB6F894FEBF0FBEEDBF20E030E040E08B
:101EA00050E00E94BB37882319F0219709F0C0CF7A
:101EB00080E090E0DF91CF911F910F91FF90EF9024
:101EC000DF90CF90BF90AF909F908F907F906F905A
:101ED0000895CF93DF93DB016115710519F420E0BC
:101EE00030E01FC000D000D000D0EDB7FEB7319673
:101EF000CDB7DEB75A83498383E091E09383828331
:101F000019968D919C911A97958384830E94570509
:101F10009C018DB79EB706960FB6F8949EBF0FBE74
:101F20008DBFC901DF91CF910895FB016115710546
:101F300009F44BC020852330B1F124303CF421302A
:101F400049F1223064F4222399F03FC0253089F111
:101F5000253064F1263091F12730B9F532C000D038
:101F600000D0EDB7FEB75283418385EF90E008C003
:101F700000D000D0EDB7FEB7528341838FEE90E0E2
:101F8000948383830E9457059C010F900F900F90BC
:101F90000F901DC000D000D0EDB7FEB75283418333
:101FA0008AEE90E0EDCF0E94690F0DC00E949F0E57
:101FB0000AC0618572850E94040E05C00E94371018
:101FC00002C00E94E90F9C0102C020E030E0C9017C
:101FD0000895EF92FF920F931F93CF93DF937C01AD
:101FE000FB018A0161157105C1F1C681D7818BE7BB
:101FF00090E020C068817981C701A8010E94040E89
:102000008F5F9F4F39F18AE390E0B8010E94740519
:102010008F5F9F4FF9F0C701BE01A8010E94950F85
:102020008F5F9F4FB9F00A80DB81C02D209741F070
:102030008CE290E0B8010E9474058F5F9F4F51F0D1
:102040002097C1F68DE790E0B8010E9474058F5F7C
:102050009F4F19F42FEF3FEF02C020E030E0C9019D
:10206000DF91CF911F910F91FF90EF900895EF9224
:10207000FF920F931F93CF93DF937C01FB018A01A3
:102080006115710539F1C681D7818BE590E00FC0EC
:10209000C701BE01A8010E94950F8F5F9F4FB9F045
:1020A0000A80DB81C02D209741F08CE290E0B801DE
:1020B0000E9474058F5F9F4F51F0209749F78DE57F
:1020C00090E0B8010E9474058F5F9F4F19F42FEFC5
:1020D0003FEF02C020E030E0C901DF91CF911F91B6
:1020E0000F91FF90EF900895EF92FF920F931F933F
:1020F000CF93DF938C017B010E947B15EC0100974D
:1021000019F420E030E009C0C801B701AE010E9417
:10211000950FCE010E9464159C01C901DF91CF91FA
:102120001F910F91FF90EF900895EF92FF920F9300
:102130001F93CF93DF937B018A01CA010E9415058B
:10214000829709F04FC085E0F70180870E9436161C
:10215000EC01009709F446C0C8010E941505FFEF85
:102160008F3F9F0709F041C03AC08C35910569F552
:10217000C8010E9415052FEF8F3F920781F1863627
:102180009105E1F0873691054CF48C35910581F08D
:102190008236910589F08297D9F40CC08237910577
:1021A00089F08437910581F08E36910589F408C055
:1021B0008CE50BC082E209C088E007C08CE005C056
:1021C0008AE003C08DE001C089E0BE010E94D01505
:1021D000C8010E941505EFEF8F3F9E0731F4CE0135
:1021E0000E94EE152FEF3FEF0FC08232910521F0D4
:1021F000803291050CF0B9CFCE010E94F315F701A2
:102200009287818720E030E0C901DF91CF911F9153
:102210000F91FF90EF9008952F923F924F925F920F
:102220006F92AF92BF92CF92DF92EF92FF920F9395
:102230001F93DF93CF93CDB7DEB728970FB6F894EF
:10224000DEBF0FBECDBF7A8369831A01CA010E9427
:1022500015052C012FEF8F3F920771F08D329105FC
:1022600019F0AA24A3940DC0C1010E9415052C01E8
:102270004FEF8F3F940719F42FEF3FEF16C1AA24B9
:10228000AA94C201C0970A9718F000E010E018C0A5
:1022900000E010E0C80173E0880F991F7A95E1F71C
:1022A000000F111F800F911F820100531040080F73
:1022B000191FC1010E9415052C01C0970A9750F300
:1022C0005EE245165104D1F085E648165104B1F09E
:1022D00095E44916510491F08A2D992787FD909530
:1022E000FC010E9FC0010F9F900D1E9F900D1124A9
:1022F000E981FA819287818783E0D0C0B80188277D
:1023000077FD8095982F0E945A387B018C01FEE260
:102310004F16510419F0CC24DD242DC0C1010E94B8
:1023200015052C01CC24DD24C801B70120E030E0E4
:1023300040E251E40E940A397B018C0120ED3FEF1D
:10234000420E531EB201882777FD8095982F0E9478
:102350005A389B01AC01C801B7010E9457377B0175
:102360008C010894C108D108C1010E9415052C01F7
:10237000C0970A97C8F235E64316510449F045E480
:102380004416510429F018861F826624639437C0CE
:10239000C1010E9415052C018B32910529F4C10160
:1023A0000E9415052C0104C08DE24816510419F055
:1023B0006624639406C0C1010E9415052C016624A1
:1023C0006A9418861F8215C08F81988553E0880F04
:1023D000991F5A95E1F7EF81F885EE0FFF1FE80F7F
:1023E000F91FE20FF31FF887EF83C1010E94150563
:1023F0002C019201205330402A30310528F36A2DF8
:10240000772767FD7095872F972F0E945A38A8016C
:1024100097010E940A396B837C838D839E83B6016A
:10242000882777FD8095982F0E945A385B016C01B0
:102430002F813885B901882777FD8095982F0E94D4
:102440005A387B018C01662D772767FD7095872FA1
:10245000972F0E945A389B01AC01C801B7010E9416
:102460000A399B01AC01C601B5010E9457379B0197
:10247000AC0160E070E080E291E40E946D399B0164
:10248000AC016B817C818D819E810E940A39E9813A
:10249000FA81618772878387948784E08087C2018D
:1024A000B1010E94F50520E030E0C90128960FB681
:1024B000F894DEBF0FBECDBFCF91DF911F910F917A
:1024C000FF90EF90DF90CF90BF90AF906F905F90B4
:1024D0004F903F902F9008958DE090E00E94DE0194
:1024E000FC01009729F08DE0DF011D928A95E9F744
:1024F000CF0108950E946C12FC01009711F087E053
:102500008087CF0108950E946C12FC01009711F0A2
:1025100086E08087CF0108950F931F93CF93DF93B9
:102520008B010E946C12EC01009739F085E08887DE
:10253000C8010E942D0489879A87CE01DF91CF912F
:102540001F910F910895CF92DF92EF92FF920F9318
:102550001F938C017B016A01B9010E948C129C01BE
:10256000C801B701A6010E949A0D1F910F91FF901B
:10257000EF90DF90CF900895EF92FF920F931F930B
:102580007A018B010E946C12FC01009731F084E00B
:102590008087E186F28603871487CF011F910F9110
:1025A000FF90EF900895AF92BF92CF92DF92EF929B
:1025B000FF920F931F937C016B015A01B901A8018F
:1025C0000E94BC129C01C701B601A5010E949A0D90
:1025D0001F910F91FF90EF90DF90CF90BF90AF9041
:1025E0000895CF93DF93EB010E946C12FC010097DA
:1025F00021F083E08087D287C187CF01DF91CF911F
:102600000895CF92DF92EF92FF920F931F938C0168
:102610007B016A01B9010E94F1129C01C801B70156
:10262000A6010E949A0D1F910F91FF90EF90DF90ED
:10263000CF9008956F927F928F929F92BF92CF9288
:10264000DF92EF92FF920F931F93CF93DF937C0162
:102650004B018A013901CA010E9415058B3791058A
:1026600009F05DC087E0F4018087C701B8010E94CE
:102670007F0EC8010E9415058D37910509F452C0DF
:10268000B8010E94F505BB24BA94C7010E946C12E0
:10269000EC01009709F443C0BB2021F0F4019783BB
:1026A000868305C0F60193838283DD82CC82C701D5
:1026B000B8010E947F0EC701BE01A8010E949510BB
:1026C0008F5F9F4F61F1C701B8010E947F0E89851E
:1026D0009A85998388831A861986C8010E941505F0
:1026E000CA97E9F4C701B8010E947F0EC701BE0175
:1026F000A80193010E94A3138F5F9F4F81F0C70130
:10270000B8010E947F0EC8010E941505BB246E010E
:102710008C32910509F4B9CF8D37910519F02FEF5F
:102720003FEF02C020E030E0C901DF91CF911F915F
:102730000F91FF90EF90DF90CF90BF909F908F9080
:102740007F906F9008958F929F92AF92BF92CF9299
:10275000DF92EF92FF920F931F93DF93CF93CDB74A
:10276000DEB729970FB6F894DEBF0FBECDBF6C0160
:102770005B017A0149014115510509F4ADC0BA0167
:102780000E947F0E8F5F9F4F09F4A6C0C7010E9471
:1027900015058C018FEF0F3F180709F49DC0C80184
:1027A000B7010E94F5058F5F9F4F09F495C0023273
:1027B000110531F4C601B501A7010E94951020C092
:1027C0000D32110521F0C801C0970A9730F4C601F7
:1027D000B501A7010E940C1113C00B35110539F486
:1027E000C601B501A70194010E94821409C00B37EC
:1027F000110541F4C601B501A70194010E941A1305
:102800009C016CC00E36110501F519821A821B82DB
:102810001C828E010F5F1F4FC80161E070E044E031
:1028200050E097010E94A005049709F055C0C80127
:1028300060E071E044E050E00E947904009709F004
:102840004BC082E0F501808744C006361105F9F4DB
:102850008E010B5F1F4F85E0F80111928A95E9F711
:10286000C80161E070E045E050E097010E94A005DA
:10287000059791F5C80165E071E045E050E00E94E0
:102880007904009749F5F5011086118622C00437B6
:10289000110511F519821A821B821C828E010F5FAD
:1028A0001F4FC80161E070E044E050E097010E94D2
:1028B000A005049789F4C8016BE071E044E050E0A2
:1028C0000E947904009741F481E0F50180878FEF41
:1028D000818720E030E002C02FEF3FEFC901299649
:1028E0000FB6F894DEBF0FBECDBFCF91DF911F9121
:1028F0000F91FF90EF90DF90CF90BF90AF909F909F
:102900008F9008956F927F928F929F92BF92CF92F5
:10291000DF92EF92FF920F931F93CF93DF936C019F
:102920004B01EA013901CA010E9415058B35910559
:1029300009F03FC086E0F4018087C601BE010E9415
:102940007F0ECE010E9415058D359105A9F1BE01BE
:102950000E94F505BB24BA94C6010E946C128C013A
:10296000009739F1BB2021F0F4019783868306C0DC
:10297000F70193838283FC01F582E482C601BE01E4
:102980000E947F0EC601B801AE0193010E94A313FD
:10299000892B79F4C601BE010E947F0ECE010E94F0
:1029A0001505BB2478018C329105B1F28D35910566
:1029B00019F02FEF3FEF02C020E030E0C901DF91B6
:1029C000CF911F910F91FF90EF90DF90CF90BF902C
:1029D0009F908F907F906F900895CF92DF92EF92AB
:1029E000FF920F931F93CF93DF937C018B016A01BA
:1029F00061157105B1F00E946C12EC01009799F01D
:102A0000C701B8010E947F0EC701BE01A80196014F
:102A10000E94A3138F5F9F4F31F4C701BE010E9434
:102A2000CF0DC0E0D0E0CE01DF91CF911F910F918B
:102A3000FF90EF90DF90CF900895EF92FF920F9369
:102A40001F937C01CB010E94A9158C01C701B8011D
:102A500040E050E00E94ED14F82EE92EC8010E94DB
:102A600096158F2D9E2D1F910F91FF90EF90089539
:102A7000FC01A485B58512962D913C911397ED919B
:102A8000FC911197E20FF31F8081882319F4EFEF77
:102A9000FFEF0AC02F5F3F4F13963C932E93129780
:102AA000E82FFF27E7FDF095CF010895FB0164852E
:102AB00075850E94D015882319F420E030E002C00B
:102AC0002FEF3FEFC90108950F931F93CF93DF932B
:102AD000EC018C859D850E94F3158C01009711F007
:102AE0001D861C86CE010E949E04C801DF91CF91F5
:102AF0001F910F910895CF93DF9386E595E160E0F4
:102B000070E00E94C904EC01009761F00E94361643
:102B1000009731F4CE010E949E04C0E0D0E002C0D4
:102B20009D878C87CE01DF91CF910895CF93DF935E
:102B3000EC01009759F08C859D85009711F00E945B
:102B400088021D861C86CE010E949E04DF91CF91D3
:102B500008950F931F93CF93DF938C0180E090E053
:102B600068E375E10E94C904EC01009799F084E0E4
:102B700090E00E94DE01FC01009739F01183008390
:102B8000138212829D878C8705C0CE010E949E040D
:102B9000C0E0D0E0CE01DF91CF911F910F91089559
:102BA000482FDB0114962D913C91159712968D912B
:102BB0009C9113972817390778F4ED91FC911197A0
:102BC000E20FF31F408314968D919C911597019607
:102BD00015969C938E93149780E00895009711F0BA
:102BE0000E94880208950F931F93CF93DF938C0167
:102BF000DC0114962D913C9115972115310541F07A
:102C0000ED91FC91E20FF31F319780818823B1F0A1
:102C1000F801828193812817390780F40190F081AF
:102C2000E02DE20FF31F1082D80114968D919C9134
:102C30001597019615969C938E931497F8018481AD
:102C400095810E94DE01EC01009751F066E575E088
:102C50000E947204D8011D921C92C8010E94880231
:102C6000CE01DF91CF911F910F910895CF93DF9304
:102C700086E090E00E94DE01DC010097A9F0E6E525
:102C8000F5E01196FC93EE9380E091E0EF019C015A
:102C9000199221503040E1F713969C938E9312972E
:102CA00015961C921E921497CD01DF91CF91089535
:102CB0000F931F938C010E94BD31605A75418F4F55
:102CC0009F4FF801608371838283938380E090E05B
:102CD000A0E0B0E084839583A683B7831F910F9112
:102CE000089580EE91E00E94581688EE91E06EE023
:102CF0000E94E6080895EF92FF920F931F93CF93DF
:102D0000DF93EC010E94BD319B01AC018881998168
:102D1000AA81BB8179018A01E81AF90A0A0B1B0B07
:102D2000D801C70181539547A040B04008F450C076
:102D3000288339834A835B8380E492E00E940019F0
:102D400080E492E068E470E042E050E00E94FC1809
:102D500080E492E00E945018182F80E492E00E94D4
:102D60005018312F20E090E0282B392B84E0359546
:102D700027958A95E1F7442737FD4095542FCA01DE
:102D8000B9010E945A3820E030E040E85DE30E943B
:102D90000A3920E030E040E251E40E940A390E9402
:102DA0002738882777FD8095982F0E945A3820E091
:102DB00030E040E251E40E94BF378B01F82FE92F49
:102DC000AC01CB01DA018C839D83AE83BF8304C049
:102DD0000C811D81FE81EF814F2F5E2FB801CA014A
:102DE000DF91CF911F910F91FF90EF900895EF9297
:102DF000FF920F931F93DF93CF930F92CDB7DEB760
:102E0000962F613031F47EE0E72EF12C0EE010E0D9
:102E100014C0623031F46FE0E62EF12C0FE010E0C8
:102E20000CC0633031F430E1E32EF12C00E110E00E
:102E300004C0EE24FF2400E010E04830510509F4FE
:102E400047C04930510594F44530510511F14630E1
:102E5000510524F4452B09F46FC018C046305105C4
:102E600009F46AC04730510589F422C04A3051053F
:102E700009F462C04A3051050CF459C04C30510578
:102E800009F463C04A5E534009F470C00FEF1FEFAE
:102E90008FC0802F60E00E941133802F0E94A433E6
:102EA0008C01009709F084C08BEB92E069E05BC075
:102EB000802F60E00E941133802F0E94A4338C0188
:102EC000181619060CF074C08BEB92E068E04BC04A
:102ED00088EE91E0602F0E94BD0888EE91E00E948C
:102EE0001A099093F8018093F7010197069708F467
:102EF0005DC088EE91E00E94D60820E030E040E21C
:102F000051E40E940A390E9427388B0188EE91E033
:102F10000E94DE0820E030E040E251E40E940A39DD
:102F20000E9427387093FA016093F90141C0009123
:102F3000F9011091FA013CC08E2D60E00E9411331E
:102F40008E2D0E948F328C0133C08E2D60E00E9446
:102F500011338E2D0E948F328C011816190644F5FC
:102F60008BEB92E067E00E940F2622C0802F61E089
:102F700099830E9411339981913021F488B1082FEF
:102F800010E011C0923031F488B1082F10E015958F
:102F9000079509C0933051F488B1082F10E01595BA
:102FA0000795159507950170107002C000E010E0BC
:102FB000C8010F90CF91DF911F910F91FF90EF907B
:102FC0000895CF93DF93EB01442369F084E395E008
:102FD00060E171E00E94403784E395E0BE014AE081
:102FE00050E00E942137CE01835B9040439718F454
:102FF0002AE030E048C0CE018B5F9040439718F440
:1030000027E030E040C0CE0188549140439718F447
:1030100029EE33E038C0CE018E569140439718F424
:1030200026E030E030C0CE01805A9140439718F43A
:103030002BE030E028C0CE0180509240439718F436
:1030400028E030E020C0CE0180539240439718F42E
:103050002CE030E018C0CE018F589240439718F40E
:103060002AEE33E010C0CE018F509340439718F4FE
:1030700025E030E008C0C35FD3401CF420E030E01E
:1030800002C02FEF3FEFC901DF91CF91089520914A
:103090001C0230E080911B02281B3109C9010895F0
:1030A00040911B0280911C02481718F02FEF3FEF50
:1030B0000AC0E42FF0E0E550FE4F8081282F30E079
:1030C0004F5F40931B02C9010895E0911B0280915C
:1030D0001C02E81718F0EFEFFFEF06C0F0E0E55034
:1030E000FE4F8081E82FF0E0CF01089508951092FF
:1030F00043021092420288EE93E0A0E0B0E0809399
:10310000440290934502A0934602B09347028CE993
:1031100091E090934102809340020895CF92DF9214
:10312000EF92FF920F931F93CF93DF937C016B017C
:103130008A0180913F028823A1F0C0E0D0E00DC059
:10314000D701ED91FC91D601AC0FBD1F0190F0812C
:10315000E02DC7016C9109952196C017D10780F326
:1031600004C0CB01642F0E945419C801DF91CF9194
:103170001F910F91FF90EF90DF90CF900895DF9314
:10318000CF930F92CDB7DEB7FC01698380913F02E8
:103190008823C9F080913E02803238F081E090E0CF
:1031A0009383828320E030E015C080913D02E82FB8
:1031B000F0E0E35EFD4F998190838F5F80933D0245
:1031C00080933E0205C0CE01019661E00E94541931
:1031D00021E030E0C9010F90CF91DF910895413295
:1031E00008F040E2862F6BEF71E00E940B191092FD
:1031F0001B0280931C02089521E00E94EF1808959D
:1032000010921B0210921C0210923D0210923E027C
:103210000E94001B0895382F413210F040E042C058
:1032200080914C028823E1F791E090934C02209327
:103230004E028FEF8093B902109274024150409376
:1032400075024F5F90934D0280914D02330F832B97
:1032500080934D0280914F02813041F410924F02D1
:1032600080914D028093BB0085EC01C085EE809378
:10327000BC0080914C028130E1F38091740284178C
:1032800010F44091740220E030E00AC0FB01E20F2C
:10329000F31FD901AC5ABD4F8C9180832F5F3F4FF4
:1032A0002417A0F3842F0895482F613210F081E095
:1032B000089580914C02843011F082E0089560936B
:1032C0009702A6E7B2E0842F9C01F90102C0819128
:1032D0008D938E2F841B8617D0F380E008951F9264
:1032E0000F920FB60F9211242F933F934F935F933A
:1032F0006F937F938F939F93AF93BF93EF93FF93BE
:103300008091B90090E0887F90708036910509F433
:10331000F2C081369105CCF58832910509F47BC065
:1033200089329105B4F48031910509F46FC081317F
:1033300091053CF4009709F447C1089709F04FC183
:1033400065C08831910509F466C0809709F047C1CE
:1033500082C08034910509F4A4C08134910544F4FD
:103360008033910509F482C0C89709F038C189C03B
:103370008035910509F489C08835910509F496C016
:103380008834910509F02BC1AEC08839910509F444
:1033900013C189399105ECF48837910509F4ABC064
:1033A000893791054CF48836910509F4A4C080371B
:1033B000910509F014C19FC08838910509F4FCC03B
:1033C0008039910509F49DC08038910509F007C145
:1033D00098C0803B910509F4C6C0813B91054CF42F
:1033E000803A910509F49FC0883A910509F0F7C029
:1033F000BAC0803C910509F4E3C0883C910509F40A
:10340000DFC0883B910509F0EAC0C2C080914D023F
:103410008093BB00CFC09091740280917502981781
:1034200068F490917402E92FF0E0EC5AFD4F80812E
:103430008093BB009F5F90937402BCC080914E024A
:10344000882309F44BC085ED8093BC008091BC00BB
:1034500084FDFCCFC2C080E28093B90285ED8093E9
:10346000BC008091BC0084FDFCCFB7C080E380939A
:10347000B90285ED8093BC008091BC0084FDFCCF37
:10348000ACC088E38093B9029BC080917402909194
:10349000BB00E82FF0E0EC5AFD4F90838F5F8093E4
:1034A0007402909174028091750282C080917402BE
:1034B0009091BB00E82FF0E0EC5AFD4F90838F5FB6
:1034C0008093740280914E02882341F085ED8093B1
:1034D000BC008091BC0084FDFCCF7FC081E0809364
:1034E0004F0284EA6EC085ED8093BC008091BC00E1
:1034F00084FDFCCF72C083E080934C021092B8022E
:1035000059C08091B802803208F056C08091B8024C
:103510009091BB00E82FF0E0E856FD4F90838F5F5D
:103520008093B80247C08091B802803230F4E091B5
:10353000B802F0E0E856FD4F108285ED8093BC00A4
:103540008091BC0084FDFCCF10924C026091B802C7
:10355000E0915202F091530288E992E070E00995FF
:103560001092B8022DC084E080934C021092960213
:1035700010929702E0915002F091510209958091CA
:103580009702882329F481E08093970210927602B3
:1035900090919602E92FF0E0EA58FD4F80818093E8
:1035A000BB009F5F90939602909196028091970244
:1035B000981710F485EC01C085E88093BC000FC01B
:1035C00085EC8093BC0009C01092B90285ED809310
:1035D000BC008091BC0084FDFCCF10924C02FF9196
:1035E000EF91BF91AF919F918F917F916F915F917B
:1035F0004F913F912F910F900FBE0F901F901895F4
:1036000010924C0281E080934E0210924F0282E1B0
:1036100061E00E94503383E161E00E945033E9EBA6
:10362000F0E080818E7F808380818D7F808388E43D
:103630008093B80085E48093BC000895362F242F32
:103640008DEB91E06DE1432F0E94D60C0895EF922F
:10365000FF920F931F93CF93DF93162F7A01022FC0
:103660008DEB91E06DE1412F0E94130D8DEB91E008
:103670006DE1412F202F0E94510CC0E0D0E010E0FE
:1036800009C08DEB91E00E94B20AF701EC0FFD1F1B
:1036900080832196C017D107A4F3DF91CF911F91AA
:1036A0000F91FF90EF900895AF92BF92CF92DF926B
:1036B000EF92FF920F93DF93CF9300D000D000D012
:1036C000CDB7DEB77B016A015901AE014F5F5F4F95
:1036D0000023C1F161E026E00E94271B2A81229588
:1036E00026952695237030E0898190E0880F991FF8
:1036F000880F991F282B392BF701318320832C81C8
:10370000229526952695237030E08B8190E0880FD6
:10371000991F880F991F282B392BF601318320839D
:103720002E81229526952695237030E08D8190E09C
:10373000880F991F880F991F282B392BF50131838A
:1037400020831FC061E023E00E94271B898190E055
:10375000880F991F880F991FF701918380838A81B1
:1037600090E0880F991F880F991FF601918380833D
:103770008B8190E0880F991F880F991FF501918325
:103780008083F70180819181F2E080309F072CF0E7
:1037900080509440F70191838083F601808191816C
:1037A000F2E080309F072CF080509440F601918326
:1037B0008083F50180819181F2E080309F072CF0B9
:1037C00080509440F5019183808326960FB6F8943B
:1037D000DEBF0FBECDBFCF91DF910F91FF90EF9075
:1037E000DF90CF90BF90AF9008950F931F93DF931A
:1037F000CF930F92CDB7DEB78C016AE2AE014F5F77
:103800005F4F21E00E94271B49814D7FC8016AE27A
:103810000E941E1B0F90CF91DF911F910F91089571
:103820000F931F93DF93CF930F92CDB7DEB78C0129
:103830006AE2AE014F5F5F4F21E00E94271B498182
:103840004160C8016AE20E941E1B0F90CF91DF9178
:103850001F910F9108950F931F93DF93CF930F92B2
:10386000CDB7DEB78C016AE2AE014F5F5F4F21E05A
:103870000E94271B49814E7FC8016AE20E941E1BDD
:103880000F90CF91DF911F910F9108950F931F9388
:10389000DF93CF930F92CDB7DEB78C018DEB91E024
:1038A0000E94A10AC8010E942B1CC8016EE040E0E2
:1038B0000E941E1BC8010E94F51BC8010E94101C1B
:1038C000C8016DE0AE014F5F5F4F21E00E94271BF2
:1038D0000F90CF91DF911F910F9108958AEB92E0A5
:1038E0000E94461C08957F928F929F92AF92BF9242
:1038F000CF92DF92EF92FF920F931F93CF93DF93BC
:103900005C01712E122FB32FA42FF52FE62F972FC6
:1039100047016501E501EE24FF241BC000FD02C044
:1039200080E301C081E388A30894E11CF11C202FEF
:10393000372D412F5B2F6A2F7F2F8E2F01E00E94A2
:10394000E000022F732E142FB52FA62FF72FE82F8C
:103950002196802F8729812B8B2B8A2B8F2B8E2BC7
:10396000892BE1F6A4014E195F09D501A80DB91DF7
:10397000FD0120E030E090E30FC02417350720F070
:10398000878DE601888302C0E60198832F5F3F4F51
:1039900031970894C11CD11C2815390570F31C926D
:1039A000DF91CF911F910F91FF90EF90DF90CF901B
:1039B000BF90AF909F908F907F9008950F931F932B
:1039C0008C010E94BD31605A75418F4F9F4FF801A5
:1039D00060837183828393831F910F9108958BEB92
:1039E00092E00E94DE1C8AEA93E00E94DB2B08959D
:1039F0002F923F924F925F926F927F928F92AF92EF
:103A0000BF92CF92DF92EF92FF920F931F93DF93BB
:103A1000CF9300D000D000D0CDB7DEB71B015A83C2
:103A200049833C832B831E830D8326013701DA2CC7
:103A3000182D133008F092C08FED91E00E947A1299
:103A40005C01009709F48AC08FED91E00E94831217
:103A50007C01882031F48FED91E0B5014FE151E018
:103A60000DC0113031F48FED91E0B50146E251E027
:103A700005C08FED91E0B5014DE251E097010E9444
:103A80009A0D8FED91E00E947A128C018FED91E0FA
:103A9000B701A8010E94610D8FED91E0B80144E3E8
:103AA00051E091010E94A3128FED91E0B80146E32D
:103AB00051E029813A810E9401138FED91E0B80114
:103AC00048E351E02B813C810E940113DD2051F03D
:103AD0008FED91E0B8014AE351E02D813E810E94D3
:103AE000A31227C0C301B2010E9427386B017C01D9
:103AF000B601882777FD8095982F0E945A389B0140
:103B0000AC01C301B2010E94BB37882351F08FED95
:103B100091E0B8014AE351E0930182010E94D3127F
:103B200008C08FED91E0B8014AE351E096010E9490
:103B300001138FED91E0B5010E9474108C01009784
:103B400029F084E395E0B8010E9443378FED91E0BE
:103B5000B5010E94CF0DC8010E94880226960FB6BB
:103B6000F894DEBF0FBECDBFCF91DF911F910F91B3
:103B7000FF90EF90DF90CF90BF90AF908F907F90AD
:103B80006F905F904F903F902F9008952F923F92AB
:103B90004F925F926F927F928F92AF92CF92DF920D
:103BA000EF92FF920F931F93DF93CF93CDB7DEB7C2
:103BB0002F970FB6F894DEBF0FBECDBF1C01822E2B
:103BC000A32EB42FA52FCB01CC24DD244BE0E42E73
:103BD000F12C34E0632E712C6C0E7D1E202F2F7083
:103BE000F301EE0DFF1D20833BE0E316F10411F01D
:103BF000C20ED11C0894E108F1082FEFE2162FEF56
:103C0000F20671F09801482D5A2D6B2F7A2F04E09F
:103C10000E94E0008901842EA52EB62FA72FDECFAB
:103C20008C81893009F045C18F8590E03FE0C32247
:103C3000DD248C159D0509F03CC100D000D000D0DA
:103C4000EDB7FEB7319621E030E02C0F3D1FADB748
:103C5000BEB712963C932E9311978DE391E0938318
:103C600082838E818295807F9F81890F84831582D4
:103C70000E94D1058DB79EB706960FB6F8949EBFE9
:103C80000FBE8DBF8D818370813009F44EC08130AD
:103C900038F0823009F462C0833009F00AC1A6C04E
:103CA0006A8524E6629FB0011124882777FD8095FC
:103CB000982F0E945A387B018C016B852AE0629F05
:103CC000B0011124882777FD8095982F0E945A38DB
:103CD0009B01AC01C801B7010E9457377B018C01E1
:103CE0006C8570E0882777FD8095982F0E945A3860
:103CF0009B01AC01C801B7010E94573720E030E0BA
:103D000046E953E40E94563720E030E040E251E4B7
:103D10000E94BF376B017C01C101BE016F5F7F4F05
:103D200040E050E024E130E05CC06A852AE0629F18
:103D3000B00111242B85620F711D882777FD8095B6
:103D4000982F0E945A386B017C01C101BE016F5F40
:103D50007F4F40E050E025E130E043C07A8560E0ED
:103D6000882777FD8095982F0E945A387B018C0117
:103D70006B8570E024E0660F771F2A95E1F78827AE
:103D800077FD8095982F0E945A389B01AC01C8019D
:103D9000B7010E9457377B018C016C8570E0882742
:103DA00077FD8095982F0E945A389B01AC01C8017D
:103DB000B7010E94573720E030E841E054E40E9408
:103DC0000A3920E030E04AE754E40E94BF376B0133
:103DD0007C01C101BE016F5F7F4F40E050E026E1F2
:103DE00030E000E010E0AA24882461C0698570E01A
:103DF00061707070762F6627882777FD8095982FE1
:103E00000E945A387B018C016A8570E084E0660F5D
:103E1000771F8A95E1F7882777FD8095982F0E9474
:103E20005A389B01AC01C801B7010E9457377B018A
:103E30008C016B8570E0882777FD8095982F0E9414
:103E40005A389B01AC01C801B7010E94573720E0E6
:103E500030E040E251E40E94BF372B013C016C8509
:103E600070E080E090E00E9458386B017C01C10155
:103E7000BE016F5F7F4F40E050E027E130E000E09F
:103E800010E0AA2488240E94F81CC301B20126E68F
:103E900036E646E650E40E940A396B017C01C10116
:103EA000BE016F5F7F4F40E050E028E130E00E94AC
:103EB000F81C2F960FB6F894DEBF0FBECDBFCF9182
:103EC000DF911F910F91FF90EF90DF90CF90AF9017
:103ED0008F907F906F905F904F903F902F900895BC
:103EE0004F925F926F927F928F92AF92BF92CF92DA
:103EF000DF92EF92FF920F931F93DF93CF93CDB793
:103F0000DEB72D970FB6F894DEBF0FBECDBF2C01E4
:103F1000822EA32EB42FA52FCB01CC24DD2479E053
:103F2000E72EF12C64E0662E712C6C0E7D1E202F86
:103F30002F70F301EE0DFF1D208339E0E316F1042D
:103F400011F0C20ED11C0894E108F1086FEFE616DB
:103F50006FEFF60671F09801482D5A2D6B2F7A2FCE
:103F600004E00E94E0008901842EA52EB62FA72F21
:103F7000DECF1C811A3009F063C08D8590E07FE0B0
:103F8000C722DD248C159D0509F05AC000D000D051
:103F900000D0EDB7FEB731965E010894A11CB11CAC
:103FA000ADB7BEB71296BC92AE9211978DE391E079
:103FB000938382838F8190E08E7090709595879522
:103FC0002E812295207F280F248315820E94D105FF
:103FD0002B859C854A856DB77EB76A5F7F4F0FB68C
:103FE000F8947EBF0FBE6DBF8D81882349F564E6CE
:103FF000269FB0011124919F90011124620F731F1D
:10400000640F711D80E090E00E94583820E030E09D
:1040100040E251E40E94BF3720E030E048E452E43F
:104020000E9456376B017C01C201B50140E050E0AF
:104030002DE030E000E010E0AA2488240E94F81C63
:104040002D960FB6F894DEBF0FBECDBFCF91DF9196
:104050001F910F91FF90EF90DF90CF90BF90AF90A6
:104060008F907F906F905F904F9008952F923F9226
:104070004F925F926F927F928F929F92AF92BF9278
:10408000CF92DF92EF92FF920F931F93DF93CF9324
:10409000CDB7DEB72B970FB6F894DEBF0FBECDBFFE
:1040A0009F838E83680179016D2D70E080E090E040
:1040B0000E94583820E030E048E452E40E9456372D
:1040C000688779878A879B87D701C60134E0B695D0
:1040D000A795979587953A95D1F78F70882E992453
:1040E000B40123E0769567952A95E1F7882777FD57
:1040F0008095982F0E945A3820E030E040E05FE33E
:104100000E940A392B013C01B4017595679575959C
:10411000679561707070882777FD8095982F0E9451
:104120005A3820E030E040E85EE30E940A399B0103
:10413000AC01C301B2010E9457372B013C01B4010D
:104140007595679561707070882777FD8095982FB9
:104150000E945A3820E030E040E05EE30E940A39D5
:104160009B01AC01C301B2010E9457372B013C01F6
:1041700081E088229924AA2497FCA094BA2CC50136
:10418000B4010E945A3820E030E040E85DE30E942C
:104190000A399B01AC01C301B2010E9457379B0150
:1041A000AC01688579858A859B850E94573720E018
:1041B00030E040E251E40E940A390E942738882703
:1041C00077FD8095982F0E945A381B012C01ADB7BE
:1041D000BEB718970FB6F894BEBF0FBEADBFEDB710
:1041E000FEB731963E010894611C711C12967C92B8
:1041F0006E92119780E491E093838283D701C60188
:104200000CE1B695A795979587950A95D1F7958373
:104210008483D701C6011AE1B695A795979587952E
:104220001A95D1F783708F5F868317820E94D1051C
:104230008DB79EB708960FB6F8949EBF0FBE8DBF80
:104240006701EE24FF249FEFC922DD24B6018827F1
:1042500077FD8095982F0E945A386B017C018E81E2
:104260009F81B30140E050E02EE130E000E010E03B
:10427000AA2488240E94F81CC201B10120E030E089
:1042800040E251E40E94BF376B017C018E819F8127
:10429000B30140E050E02FE130E00E94F81C2B9683
:1042A0000FB6F894DEBF0FBECDBFCF91DF911F9147
:1042B0000F91FF90EF90DF90CF90BF90AF909F90C5
:1042C0008F907F906F905F904F903F902F900895C8
:1042D000EF92FF920F931F93CF93DF938FED91E0B7
:1042E0000E947A127C01009709F465C08FED91E07D
:1042F0000E9483128C018FED91E0B70149E451E0F7
:1043000098010E949A0D8FED91E00E947A12EC01C3
:104310008FED91E0B801AE010E94610D8FED91E04B
:10432000BE0144E351E02FE333E00E94A312209149
:104330006303309164038FED91E0BE0146E351E0E9
:104340000E94011320916503309166038FED91E087
:10435000BE0148E351E00E9401138091A903882324
:1043600051F08FED91E0BE014AE351E027E633E0E2
:104370000E94A3120BC02091A7033091A8038FEDD8
:1043800091E0BE014AE351E00E9401138FED91E0FC
:10439000B7010E947410EC01009729F084E395E0C6
:1043A000BE010E9443378FED91E0B7010E94CF0D0F
:1043B000CE010E948802DF91CF911F910F91FF9053
:1043C000EF900895CF92DF92EF92FF920F931F9399
:1043D000CF93DF93EB018FED91E00E947A126C0195
:1043E0000097A9F18FED91E00E9483127C018FED7F
:1043F00091E0B6014DE451E097010E949A0D8FEDD6
:1044000091E00E947A128C018FED91E0B701A80132
:104410000E94610D8FED91E0B80143E551E09E01EE
:104420000E9401138FED91E0B6010E947410EC011F
:10443000009729F084E395E0BE010E9443378FED99
:1044400091E0B6010E94CF0DCE010E948802DF915B
:10445000CF911F910F91FF90EF90DF90CF90089533
:10446000AF92BF92CF92DF92EF92FF920F931F9382
:10447000CF93DF930FEB12E08FED91E0B8010E9434
:104480001D155C0180E8F80111928A95E9F7A114E5
:10449000B10411F480E08DC08FED91E0B5010E9470
:1044A000450D882309F47CC08FED91E0B5014FE103
:1044B00051E00E947F0DBC01009709F471C08FED9F
:1044C00091E040E00E94520DEC01009709F468C0B1
:1044D0008FED91E0BE0144E351E00E947F0D8C011D
:1044E0008FED91E0BE0146E351E00E947F0D7C011B
:1044F0008FED91E0BE0148E351E00E947F0D6C0119
:104500008FED91E0BE014AE351E00E947F0DEC0186
:104510000115110509F444C0F8018085853009F0C2
:104520003FC0618572858FE393E044E250E00E94D2
:104530008704E114F104A1F1F7018085833081F54E
:10454000818592859093640380936303C114D104A1
:1045500039F1F6018085833019F581859285909334
:104560006603809365032097D9F08885853061F4D0
:1045700069857A8587E693E040E450E00E948704ED
:1045800081E08093A9030AC0833051F489859A851C
:104590009093A8038093A7031092A90301E001C0A0
:1045A00000E08FED91E0B5010E94CF0D802F011149
:1045B00081E0DF91CF911F910F91FF90EF90DF90FD
:1045C000CF90BF90AF900895CF93DF9384E395E0B1
:1045D0000E940835892B19F4CFEFDFEF1CC0C0E033
:1045E000D0E012C0C038D105B1F084E395E00E945C
:1045F0003935FE01E154FD4F8083219662E070E081
:1046000080E090E00E94F13184E395E00E9408355B
:10461000181619063CF3CE01DF91CF910895CF9281
:10462000DF92EF92FF920F931F93CF93DF93EC01F2
:104630000E94E422181619060CF0E9C0CE010E946F
:104640003022882309F4DEC08091630390916403D3
:10465000892B09F0D3C0809165039091660323E014
:10466000883E9207B1F123E0893E92074CF48B30EB
:10467000910509F451C0875E934009F0BBC00AC0A0
:1046800023E08A3E920709F478C08B5E934009F0DC
:10469000B1C094C087E693E060E070E040E150E094
:1046A0000E94E0027B018C015FEFC52ED12CB60188
:1046B000601B710987E00E94B132CF18D10888E0F1
:1046C000B6010E94B132E094F0948FEFE822FF240B
:1046D0001EC087E693E060E070E040E150E00E9499
:1046E000E0027B018C014FEFC42ED12CB601601B80
:1046F000710987E00E94B132CF18D10888E0B60175
:104700000E94B132E094F0942FEFE222FF2489E07E
:10471000B7010E94B13266C08FE393E00E940F049C
:10472000823049F0833061F0813081F48AEA93E08D
:104730006EE070E009C08AEA93E06FE070E004C0C8
:104740008AEA93E060E170E00E94DD308AEA93E05B
:104750006EE571E00E94032C8AEA93E068E070E065
:104760000E94072C8AEA93E067E673E00E94993082
:104770008AEA93E00E94CD3035C08FE393E00E9437
:104780000F04823041F0833041F0813011F41EE09B
:1047900005C01FEF03C01FE001C010E18091A90315
:1047A000882331F087E693E00E940F04682F02C04F
:1047B0006091A703812F0E94503314C087E693E0D5
:1047C00068E571E00E946904009781F487E693E050
:1047D0006CE571E00E94720487E693E061E671E0A7
:1047E0000E945E04CE010E94682111C0CE0164E0E7
:1047F00070E00BC0CE0163E070E007C0CE0162E064
:1048000070E003C0CE0161E070E00E94E221DF9120
:10481000CF911F910F91FF90EF90DF90CF9008956F
:104820002F923F924F925F926F927F928F92AF92B0
:10483000CF92DF92EF92FF920F931F93DF93CF936C
:10484000CDB7DEB72F970FB6F894DEBF0FBECDBF42
:104850003C01F62E84E395E00E94083518161906EF
:104860001CF4C3010E940F2300D000D000D0EDB78C
:10487000FEB731961E010894211C311CADB7BEB79E
:1048800012963C922E92119786E691E09383828352
:10489000F48215820E94D1058DB79EB706960FB699
:1048A000F8949EBF0FBE8DBF80EE91E06F2D48E063
:1048B00050E00E94F7168C0180EE91E06F2D49E0E8
:1048C00050E00E94F7162C01C80101978F5C9740B9
:1048D000C8F5B801882777FD8095982F0E945A382F
:1048E00020E030E040E251E40E94BF376B017C01E0
:1048F000C301B10140E050E028E030E000E010E00A
:10490000AA2488240E94F81C1092B303C2010197C4
:104910008F5C9740B8F4B201882777FD8095982F77
:104920000E945A3820E030E040E251E40E94BF3754
:104930006B017C01C301B10140E050E029E030E0AF
:104940000E94F81C84E395E00E94083518161906A9
:104950001CF4C3010E940F232F960FB6F894DEBFFC
:104960000FBECDBFCF91DF911F910F91FF90EF90C0
:10497000DF90CF90AF908F907F906F905F904F902F
:104980003F902F9008956F927F928F92AF92CF9227
:10499000DF92EF92FF920F931F93DF93CF93CDB7E8
:1049A000DEB765970FB6F894DEBF0FBECDBF3C01F2
:1049B0001A8219821C821B821E821D8284E395E06A
:1049C0000E940835181619061CF4C3010E940F2313
:1049D0008AEB92E0BE016F5F7F4FAE014D5F5F4F8C
:1049E0009E012B5F3F4F01E00E94541B8DB79EB785
:1049F0000A970FB6F8949EBF0FBE8DBFEDB7FEB7F6
:104A000031968E01095F1F4FADB7BEB712961C934A
:104A10000E93119789E691E09383828389819A812D
:104A2000958384838B819C81978386838D819E81EE
:104A3000918780870E94D1058DB79EB70A960FB6E1
:104A4000F8949EBF0FBE8DBFC30162E771E040E0E6
:104A500050E022E030E00F2EF0E0CF2EF0E0DF2E2D
:104A6000F0E0EF2EF0E0FF2EF02DAA24A39488248E
:104A70000E94F81C84E395E00E9408351816190678
:104A80001CF4C3010E940F2365960FB6F894DEBF95
:104A90000FBECDBFCF91DF911F910F91FF90EF908F
:104AA000DF90CF90AF908F907F906F9008958F920E
:104AB000AF92CF92DF92EF92FF920F931F93CF931B
:104AC000DF93EC0184E395E00E940835181619067F
:104AD0001CF4CE010E940F2380EE91E00E947B1611
:104AE0006B017C01CE0162E771E040E050E021E023
:104AF00030E000E010E0AA2488240E94F81C84E33F
:104B000095E00E940835181619061CF4CE010E9483
:104B10000F23DF91CF911F910F91FF90EF90DF90C6
:104B2000CF90AF908F9008956F927F928F92AF92B7
:104B3000CF92DF92EF92FF920F931F93DF93CF9369
:104B4000CDB7DEB727970FB6F894DEBF0FBECDBF47
:104B50003C0184E395E00E940835181619061CF400
:104B6000C3010E940F2385B1082F10E0037010705D
:104B7000CE0101965F9B03C064E771E002C067E766
:104B800071E00E947204CE01019600FF03C064E749
:104B900071E002C067E771E00E945E04CE010196F9
:104BA00001FF03C064E771E002C067E771E00E94A3
:104BB0005E04C30162E771E040E050E028EE33E0BC
:104BC0008E010F5F1F4F0F2EF0E0CF2EF0E0DF2E93
:104BD000F0E0EF2EF0E0FF2EF02DAA24A39488241D
:104BE0000E94F81C84E395E00E9408351816190607
:104BF0001CF4C3010E940F2327960FB6F894DEBF62
:104C00000FBECDBFCF91DF911F910F91FF90EF901D
:104C1000DF90CF90AF908F907F906F900895FF922C
:104C20000F931F93162F05B1FBB087E061E00E9440
:104C3000503388E061E00E94503389E061E00E94D7
:104C40005033812F60E00E9450336CE370E080E0CD
:104C500090E00E94F13187E061E00E94503388E0EB
:104C600061E00E94503389E061E00E94503364E1CA
:104C700070E080E090E00E94F13105B9FBB81F912F
:104C80000F91FF9008958F929F92AF92BF92CF9213
:104C9000DF92EF92FF920F931F93CF93DF93EC017C
:104CA00084E395E00E940835181619061CF4CE011D
:104CB0000E940F238AEA93E061E070E00E94FD2FDA
:104CC0008AEA93E00E940B2C882309F49CC08AEAAC
:104CD00093E00E944E2C892B09F495C08AEA93E058
:104CE0000E944E2C069708F08EC08AEA93E00E943C
:104CF000382C8901F42EE52ED62EC72EB82EA92EDB
:104D0000822F812B8F298E298D298C298B298A2905
:104D1000D1F1CE0168E00E940F268AEA93E00E945A
:104D20004E2C039751F4CE012F2D3E2D4D2D5C2D91
:104D30006B2D7A2D0E94701F62C08AEA93E00E9458
:104D40004E2C049751F4CE012F2D3E2D4D2D5C2D70
:104D50006B2D7A2D0E94C61D52C08AEA93E00E94F4
:104D60004E2C059751F4CE012F2D3E2D4D2D5C2D4F
:104D70006B2D7A2D0E94362042C08AEA93E00E9471
:104D8000492C819750F0CE016AE771E040E050E095
:104D90002BE030E002E711E023C08AEA93E00E94B2
:104DA000382C8901D42EC52EB62EA72E982E892EEA
:104DB0008AEA93E00E94492C7C0187E693E02D2D3E
:104DC0003C2D4B2D5A2D692D782D0E94731CCE0140
:104DD0006AE771E040E050E02BE030E007E613E0E6
:104DE0000F2EF0E0CF2EF0E0DF2EF0E0EF2EF0E01F
:104DF000FF2EF02DAA24A39488240E94F81C8AEA8E
:104E000093E00E94272C84E395E00E940835181651
:104E100019061CF4CE010E940F23DF91CF911F9140
:104E20000F91FF90EF90DF90CF90BF90AF909F9049
:104E30008F9008950F931F93182F0E948F326AE06E
:104E400070E080E090E00E94F131812F0E948F326B
:104E5000182F092F64E170E080E090E00E94F131AA
:104E6000812F902F1F910F9108954F925F926F9213
:104E70007F928F92AF92CF92DF92EF92FF920F9339
:104E80001F93CF93DF933C012B01FB01108284E33E
:104E900095E00E940835181619061CF4C3010E94FB
:104EA0000F2385E190E00E941A27BC0180EE91E07B
:104EB00040E00E94E117EC0180918D0190918E01FC
:104EC000FFEF8F3F9F0739F5D7FD25C090939401E1
:104ED00080939301C3016CE771E040E050E09E01D4
:104EE00000E010E00F2EF0E0CF2EF0E0DF2EF0E03B
:104EF000EF2EF0E0FF2EF02DAA24882483940E9448
:104F0000F81CC630D10539F41092B4031092B603E0
:104F10001092B50333C0C830D10571F483E0F201BB
:104F2000808380918D0190918E01089719F081E026
:104F30008093B30311E0C2C0CB30D10509F4BDC0EA
:104F4000D7FD9FC02097D1F485E190E00E941A27F9
:104F5000AA2797FDA095BA2FBC01CD010E945A380F
:104F60006B017C01C3016CE771E040E050E020E0A0
:104F700030E000E010E0AA2488249DC080EE91E09B
:104F800063E0AE010E94F7162C01C630D10509F08E
:104F90004DC02091B5033091B603280F391F3093CF
:104FA000B6032093B5038091B4038F5F8093B4035D
:104FB0008A3008F461C0C9016AE070E00E94073BD2
:104FC000882777FD8095982F0E945A3820EF36E188
:104FD00048EC5DE30E940A3920E030E040E251E411
:104FE0000E940A390E942738882777FD8095982FDC
:104FF0000E945A3820E030E040E251E40E94BF377E
:105000006B017C01C3016CE771E040E050E026E0F9
:1050100030E000E010E0AA2488240E94F81C1092DE
:10502000B4031092B6031092B50326C0C530D10563
:1050300039F0C730D10521F0F3E0CA3EDF0739F47B
:10504000809193019091940184159505A9F0B20186
:10505000882777FD8095982F0E945A386B017C0134
:10506000C3016CE771E040E050E09E0100E010E019
:10507000AA2488240E94F81C509294014092930123
:105080001CC020918D0130918E0137FD16C0C301E7
:105090006CE771E040E050E000E010E00F2EF0E03F
:1050A000CF2EF0E0DF2EF0E0EF2EF0E0FF2EF02D1F
:1050B000AA24E2E08E2E0E94F81C10E0D0938E010C
:1050C000C0938D0184E395E00E94083518161906F7
:1050D0001CF4C3010E940F23812FDF91CF911F91F8
:1050E0000F91FF90EF90DF90CF90AF908F907F90D7
:1050F0006F905F904F9008954F925F926F927F9262
:105100008F92AF92CF92DF92EF92FF920F931F9305
:10511000CF93DF933C012B01FB01108284E395E0E8
:105120000E940835181619061CF4C3010E940F23AB
:1051300084E190E00E941A27BC0180EE91E040E0FB
:105140000E94E117EC0180918B0190918C01FFEF9F
:105150008F3F9F0739F5D7FD25C09093920180932B
:105160009101C3016EE771E040E050E09E0100E074
:1051700010E00F2EF0E0CF2EF0E0DF2EF0E0EF2E6B
:10518000F0E0FF2EF02DAA24882483940E94F81CBE
:10519000C630D10539F41092B4031092B6031092C0
:1051A000B50333C0C830D10571F482E0F2018083C9
:1051B00080918B0190918C01089719F081E0809388
:1051C000B30311E0C2C0CB30D10509F4BDC0D7FD97
:1051D0009FC02097D1F484E190E00E941A27AA276B
:1051E00097FDA095BA2FBC01CD010E945A386B01E2
:1051F0007C01C3016EE771E040E050E020E030E068
:1052000000E010E0AA2488249DC080EE91E062E0D6
:10521000AE010E94F7162C01C630D10509F04DC031
:105220002091B5033091B603280F391F3093B60390
:105230002093B5038091B4038F5F8093B4038A30C9
:1052400008F461C0C9016AE070E00E94073B88274A
:1052500077FD8095982F0E945A3820EF36E148EC70
:105260005DE30E940A3920E030E040E251E40E9410
:105270000A390E942738882777FD8095982F0E9449
:105280005A3820E030E040E251E40E94BF376B0121
:105290007C01C3016EE771E040E050E026E030E0C1
:1052A00000E010E0AA2488240E94F81C1092B403A5
:1052B0001092B6031092B50326C0C530D10539F05F
:1052C000C730D10521F0F3E0CA3EDF0739F4809101
:1052D00091019091920184159505A9F0B20188275A
:1052E00077FD8095982F0E945A386B017C01C3018D
:1052F0006EE771E040E050E09E0100E010E0AA247B
:1053000088240E94F81C50929201409291011CC086
:1053100020918B0130918C0137FD16C0C3016EE7DF
:1053200071E040E050E000E010E00F2EF0E0CF2E02
:10533000F0E0DF2EF0E0EF2EF0E0FF2EF02DAA24BB
:10534000F2E08F2E0E94F81C10E084E395E00E94AA
:105350000835181619061CF4C3010E940F23D093B8
:105360008C01C0938B01812FDF91CF911F910F9101
:10537000FF90EF90DF90CF90AF908F907F906F90E5
:105380005F904F9008954F925F926F927F928F92AD
:10539000AF92CF92DF92EF92FF920F931F93CF9332
:1053A000DF933C012B01FB01108284E395E00E9416
:1053B0000835181619061CF4C3010E940F2381E159
:1053C00090E00E941A27BC0180EE91E040E00E942C
:1053D000E117EC018091890190918A01FFEF8F3FE5
:1053E0009F0739F5D7FD25C09093900180938F01D9
:1053F000C3016AE771E040E050E09E0100E010E088
:105400000F2EF0E0CF2EF0E0DF2EF0E0EF2EF0E0F8
:10541000FF2EF02DAA24882483940E94F81CC63005
:10542000D10539F41092B4031092B6031092B5036B
:105430000AC0CB30D10539F48AEA93E061E070E02C
:105440000E94FD2F32C08AEA93E00E94CC2FC83020
:10545000D10569F421E0F2012083809189019091C6
:105460008A01089711F02093B30311E0E3C0D7FD40
:10547000C4C02097D1F481E190E00E941A27AA27A6
:1054800097FDA095BA2FBC01CD010E945A386B013F
:105490007C01C3016AE771E040E050E020E030E0C9
:1054A00000E010E0AA248824C2C0CB30D10511F559
:1054B0008091890190918A010B97C1F0C3016AE73D
:1054C00071E040E050E02BE030E000E811E00F2E0A
:1054D000F0E0CF2EF0E0DF2EF0E0EF2EF0E0FF2E38
:1054E000F02DAA24A39488240E94F81CC3010E94D2
:1054F00043269FC080EE91E061E0AE010E94F71666
:105500002C01C630D10509F04DC02091B503309172
:10551000B603280F391F3093B6032093B50380914B
:10552000B4038F5F8093B4038A3008F461C0C9016B
:105530006AE070E00E94073B882777FD8095982FEE
:105540000E945A3820EF36E148EC5DE30E940A39A8
:1055500020E030E040E251E40E940A390E942738FE
:10556000882777FD8095982F0E945A3820E030E0F8
:1055700040E251E40E94BF376B017C01C3016AE73E
:1055800071E040E050E026E030E000E010E0AA24C6
:1055900088240E94F81C1092B4031092B603109253
:1055A000B50326C0C530D10539F0C730D10521F08B
:1055B000F3E0CA3EDF0739F480918F0190919001AA
:1055C00084159505A9F0B201882777FD8095982F5D
:1055D0000E945A386B017C01C3016AE771E040E028
:1055E00050E09E0100E010E0AA2488240E94F81CEC
:1055F0005092900140928F011CC0209189013091FE
:105600008A0137FD16C0C3016AE771E040E050E04F
:1056100000E010E00F2EF0E0CF2EF0E0DF2EF0E003
:10562000EF2EF0E0FF2EF02DAA24A2E08A2E0E9499
:10563000F81C10E0D0938A01C093890184E395E0BF
:105640000E940835181619061CF4C3010E940F2386
:10565000812FDF91CF911F910F91FF90EF90DF90FD
:10566000CF90AF908F907F906F905F904F90089504
:10567000AF92BF92CF92DF92EF92FF921F93DF9390
:10568000CF930F92CDB7DEB77C0119820E94C3245D
:10569000C701BE016F5F7F4F0E94C329182F0E9470
:1056A000BD315B016C011123D1F08091B3038823DC
:1056B00091F4F70180819181A281B381A6019501C6
:1056C000281B390B4A0B5B0BDA01C9018153954743
:1056D000A040B04020F0C70169810E941024C7019A
:1056E000BE016F5F7F4F0E947C288823D1F080919C
:1056F000B303882391F4F70180819181A281B38162
:10570000A6019501281B390B4A0B5B0BDA01C90175
:1057100081539547A040B04020F0C70169810E94A5
:105720001024C701BE016F5F7F4F0E943527882379
:10573000D1F08091B303882391F4F70180819181A6
:10574000A281B381A6019501281B390B4A0B5B0B83
:10575000DA01C90181539547A040B04020F0C7014C
:1057600069810E941024F70180819181A281B38117
:10577000A6019501281B390B4A0B5B0BDA01C90105
:1057800081539547A040B04058F0C7010E9494252E
:10579000C7010E945725F701A082B182C282D3823D
:1057A0000F90CF91DF911F91FF90EF90DF90CF90FE
:1057B000BF90AF900895FC018FEF9FEF918380839E
:1057C000938382831092B7031092B8031092B903A7
:1057D0001092BA031092BB031092BC031092BD0347
:1057E0001092BE038AE090E0978386838CE390E07A
:1057F000909396018093950181E080878EE591E0FA
:10580000958384830895FC01758364830895FC0166
:1058100077836683089520E08091B7039091B80361
:10582000892B9091B903892B9091BA03892B909180
:10583000BB03892B9091BC03892B9091BD03892BCD
:105840009091BE03892B09F021E0822F08951092D8
:10585000B7031092B8031092B9031092BA031092D2
:10586000BB031092BC031092BD031092BE030895B7
:105870002091B7033091B8034091B9035091BA0316
:105880006091BB037091BC038091BD039091BE03F6
:1058900008958091BF039091C00308958091C30340
:1058A0009091C40308952F923F924F925F926F920E
:1058B0007F928F929F92AF92BF92CF92DF92EF92A0
:1058C000FF920F931F93DF93CF93CDB7DEB762970D
:1058D0000FB6F894DEBF0FBECDBF3C018091C5036B
:1058E0009091C6036FE170E00E94F33A4B017B0197
:1058F00000E010E02091950130919601442737FD9A
:105900004095542FC801B7010E94D43A0E945838DC
:105910002AE037ED43E25CE30E940A390E942C380A
:10592000A8019701220F331F441F551F2E0D3F1D45
:10593000401F511F59016A01A61AB70AC80AD90A9D
:10594000AD82BE82CF82D8865B016C01A20EB31EEF
:10595000C41ED51EA982BA82CB82DC82AA24BB24B3
:10596000650121E030E03A87298717012801261ACE
:10597000370A480A590AA8019701260F371F481FFE
:10598000591F2F87388B498B5A8B7AC0E985FA8546
:10599000EE0FFF1FEB53FC4F808191819C0140E093
:1059A00050E0221633064406550658F58F8598892F
:1059B000A989BA89281739074A075B0710F5E985CD
:1059C000FA85EE0FFF1FE953FC4F0190F081E02DA7
:1059D0007F0100E010E0EB86FC860D871E878D813D
:1059E0009E81AF81B8858E159F05A007B10748F449
:1059F00089819A81AB81BC81E816F9060A071B07E9
:105A000078F1ED80FE800F811885E216F306040719
:105A1000150758F589819A81AB81BC812817390710
:105A20004A075B0710F5E985FA85EE0FFF1FE9537A
:105A3000FC4F80819181A0E0B0E0281639064A062B
:105A40005B0698F4EF84F88809891A898E159F05FA
:105A5000A007B10750F40894A11CB11CC11CD11CB3
:105A6000AA0CBB1CCC1CDD1C05C07A866986AA2446
:105A7000BB24650109851A850E5F1F4F1A870987A8
:105A800029853A852615370508F480CFA6019501AA
:105A9000569547953795279580E36816710440F130
:105AA000211531054105510511F480E028C02093EE
:105AB000B7033093B8034093B9035093BA031092DD
:105AC000BB031092BC031092BD031092BE037694E8
:105AD00067947092C0036092BF039092C203809259
