:100000000C94B6000C94CA2C0C94F72C0C94DE00C3
:100010000C94DE000C94DE000C94DE000C94DE00E8
:100020000C94DE000C94DE000C94DE000C94DE00D8
:100030000C94DE000C94DE000C94DE000C94DE00C8
:100040000C94242D0C94DE000C948E2F0C94D52F40
:100050000C94DE000C94DE000C94DE000C94DE00A8
:100060000C9436190C94DE0007634236B79BD8A770
:100070001A39685618AEBAAB558C1D3CB7CC5763CD
:10008000BD6DEDFD753EF6177231BF000000803F7B
:1000900008000000BE922449123EABAAAA2ABECD97
:1000A000CCCC4C3E00000080BEABAAAAAA3E000009
:1000B0000000BF000000803F000000000008417801
:1000C000D3BB4387D1133D190E3CC3BD4282AD2B38
:1000D0003E68EC8276BED98FE1A93E4C80EFFFBE30
:1000E00001C4FF7F3F000000000074727565006668
:1000F000616C7365006E756C6C0025750025752E3E
:10010000002D0025640000000000240027002A00C4
:1001100000000000250028002B0000000000230044
:100120002600290004040404040404040202020258
:1001300002020303030303030102040810204080AA
:10014000010204081020010204081020000000072A
:10015000000201000003040600000000000000008F
:10016000BA0A5D1651181A1C8A1C4C3111241FBE84
:10017000CFEFD8E0DEBFCDBF11E0A0E0B1E0ECE210
:10018000FEE602C005900D92A03EB107D9F716E039
:10019000A0EEB1E001C01D92AE37B107E1F711E06A
:1001A000CCE6D1E004C02297FE010E94CE36C036D4
:1001B000D107C9F70E949C310C9414370C940000AD
:1001C000EF92FF920F93DF93CF93CDB7DEB7609797
:1001D0000FB6F894DEBF0FBECDBFA82F002309F4E1
:1001E00061C07E010894E11CF11C88E0F7011192C6
:1001F0008A95E9F729833A834B835C836D837E83F9
:10020000AF83988780E2801BE82FFF27E7FDF095FA
:100210004D815E816F817885181684F01D861E865B
:100220001F86188A882799278E1B9F0B04C07695F6
:100230006795579547958A95D2F728C0202F332781
:1002400027FD3095DB01CA01022E04C0B695A795A3
:10025000979587950A94D2F78D879E87AF87B88B3D
:1002600004C0440F551F661F771FEA95D2F7898196
:100270009A81AB81BC8104C0B695A7959795879567
:100280002A95D2F7482B592B6A2B7B2B49875A8703
:100290006B877C8729853A854B855C856D857E8556
:1002A000AF8598898A2F60960FB6F894DEBF0FBE8F
:1002B000CDBFCF91DF910F91FF90EF900895EF9216
:1002C000FF920F93DF93CF93CDB7DEB760970FB652
:1002D000F894DEBF0FBECDBFA82F002309F461C084
:1002E0007E010894E11CF11C88E0F70111928A95C7
:1002F000E9F729833A834B835C836D837E83AF83E5
:10030000988780E2801BE82FFF27E7FDF095498161
:100310005A816B817C81181684F019861A861B8697
:100320001C86882799278E1B9F0B04C0440F551FDE
:10033000661F771F8A95D2F728C0202F332727FD05
:100340003095DB01CA01022E04C0880F991FAA1F35
:10035000BB1F0A94D2F789879A87AB87BC8704C0F2
:100360007695679557954795EA95D2F78D819E8149
:10037000AF81B88504C0880F991FAA1FBB1F2A959B
:10038000D2F7482B592B6A2B7B2B4D875E876F87C3
:10039000788B29853A854B855C856D857E85AF8513
:1003A00098898A2F60960FB6F894DEBF0FBECDBF36
:1003B000CF91DF910F91FF90EF900895CF93DF934E
:1003C000BC018230910510F462E070E0A0917406E7
:1003D000B0917506ED01E0E0F0E040E050E021C0B2
:1003E000888199818617970769F48A819B81309764
:1003F00019F09383828304C09093750680937406EA
:10040000FE0134C06817790738F44115510519F019
:100410008417950708F4AC01FE018A819B819C0139
:10042000E9012097E9F641155105A9F1CA01861B9A
:10043000970B049708F4BA01E0E0F0E02AC08D9130
:100440009C91119784179507F9F46417750781F447
:1004500012968D919C911397309719F09383828314
:1004600004C09093750680937406FD0132964CC0CB
:10047000CA01861B970BFD01E80FF91F6193719369
:1004800002978D939C9340C0FD01828193819C01D2
:10049000D9011097A1F68091720690917306892B6D
:1004A00041F4809178019091790190937306809343
:1004B000720640917A0150917B014115510541F43A
:1004C0004DB75EB78091760190917701481B590B2B
:1004D0002091720630917306CA01821B930B861716
:1004E000970780F0AB014E5F5F4F8417950750F080
:1004F000420F531F5093730640937206F9016193A4
:10050000719302C0E0E0F0E0CF01DF91CF91089558
:10051000CF93DF93009709F450C0EC0122971B8220
:100520001A82A0917406B0917506109709F140E007
:1005300050E0AC17BD0708F1BB83AA83FE012191EF
:100540003191E20FF31FAE17BF0779F48D919C91A3
:100550001197280F391F2E5F3F4F3983288312963A
:100560008D919C9113979B838A834115510571F45A
:10057000D0937506C093740620C012968D919C91FD
:100580001397AD01009711F0DC01D3CFFA01D383AB
:10059000C28321913191E20FF31FCE17DF0769F477
:1005A00088819981280F391F2E5F3F4FFA013183CF
:1005B00020838A819B8193838283DF91CF910895E9
:1005C0002F923F925F926F927F928F929F92AF9203
:1005D000BF92CF92DF92EF92FF920F931F93CF9330
:1005E000DF938C011B01EA016115710519F0FB0114
:1005F00091838083209749F0CE010297839728F05A
:1006000020E030E040E050E0F6C0F801A1908F011A
:100610008A2D90E00E94D236892BB9F7FDE2AF1601
:1006200031F4F801A1908F015524539407C0FBE2E7
:10063000AF1619F4F801A1908F015524209719F0F5
:10064000C031D105C1F4F0E3AF1679F4F80180812F
:10065000883711F0883549F4F801A1800E5F1F4FEB
:10066000F2E05F2AC0E1D0E006C0209721F480E3E9
:10067000A816E9F427C0C830D10531F1C930D10539
:1006800024F4C230D10531F50CC0CA30D10589F04F
:10069000C031D105F9F4C12CD12CE12CB8E0FB2EEE
:1006A00028C0C12CD12CE12CA0E4FA2E22C0CAE033
:1006B000D0E0FCECCF2EFCECDF2EFCECEF2EFCE0CF
:1006C000FF2E17C0C8E0D0E0C12CD12CE12CE0E116
:1006D000FE2E0FC09E01442737FD4095542F60E049
:1006E00070E080E090E80E94AA36C901DA016C014E
:1006F0007D0120E030E040E050E060E03E018824F1
:1007000077FC8094982C70EDB72EBA0CE9E0EB15CD
:1007100070F48A2D81548A3118F499ECB92E06C0F0
:100720008A2D81568A3150F589EAB82EBA0C8B2D64
:1007300090E08C179D0714F56F3FE1F0C216D306C9
:10074000E406F506B0F0CA01B901A40193010E94C4
:1007500064369B01AC012B0D311D411D511D213013
:10076000F0E03F07F0E04F07F0E85F0710F461E0CA
:1007700001C06FEFF801A1908F01C5CF21143104A2
:1007800081F0662331F001501040F10111830083A4
:1007900008C051FE1AC002501040F10111830083BD
:1007A00014C067FF12C050FC05C02FEF3FEF4FEFA2
:1007B0005FE704C020E030E040E050E882E290E0F3
:1007C00090937D0680937C0616C050FE08C050951D
:1007D0004095309521953F4F4F4F5F4F0CC057FFCD
:1007E0000AC082E290E090937D0680937C062FEF12
:1007F0003FEF4FEF5FE7B901CA01DF91CF911F9142
:100800000F91FF90EF90DF90CF90BF90AF909F90AF
:100810008F907F906F905F903F902F900895FC0194
:1008200088279927E89421912032E9F3293010F0A4
:100830002E30C8F32B3241F02D3239F4689404C0C5
:100840000E949604820F911D219120532A30C0F3FB
:100850001EF4909581959F4F08950F931F93CF930A
:10086000DF93182F092FE82FF92FDF010D900020BB
:10087000E9F7CD018E1B9F0B0E94DE01EC01009772
:1008800021F0612F702F0E947204CE01DF91CF9171
:100890001F910F910895FB01DC018D9181341CF0B3
:1008A0008B350CF4805E619161341CF06B350CF477
:1008B000605E861B611189F3990B0895FB01DC01D1
:1008C0000D900020E9F7119701900D920020E1F7BB
:1008D0000895FB01DC018D91019080190110D9F37D
:1008E000990B0895FB01DC0101900D920020E1F7C6
:1008F0000895FB01DC014150504030F08D91019092
:10090000801919F40020B9F7881B990B0895FB0191
:10091000DC014150504048F001900D920020C9F791
:1009200001C01D9241505040E0F708957AE0979F32
:10093000902D879F802D910D11240895FC018381B6
:1009400087FF24C080917606909177068E179F07C7
:1009500021F4109277061092760680917806909195
:1009600079068E179F0721F4109279061092780667
:1009700080917A0690917B068E179F0721F4109242
:100980007B0610927A06CF010E94880280E090E0F8
:1009900008950F931F93CF93DF938C01EB01009782
:1009A00031F46115710519F420E030E038C081E0C0
:1009B00090E06EE070E00E94EC07FC019C01009763
:1009C00071F180E88383209771F0D387C28781E833
:1009D00083838091760690917706892B21F4F0939A
:1009E0007706E093760601151105C9F01187008797
:1009F0008381826083838091780690917906892B28
:100A000071F4F0937906E093780680917A069091DC
:100A10007B06892B21F4F0937B06E0937A06C901CB
:100A2000DF91CF911F910F910895CF93DF93EC0148
:100A30004B8140FF1AC046FF0AC04F7B4B838E811B
:100A40009F8101969F838E838A81282F2BC042FF2E
:100A500013C0E881F9818081282F332727FD309545
:100A60002115310529F440624B832FEF3FEF1BC066
:100A70003196F983E88311C0EA85FB85CE0109959B
:100A80009C0197FF0AC09B812F5F3F4F11F080E2CE
:100A900001C080E1892B8B83E8CF8E819F810196F5
:100AA0009F838E8330E0C901DF91CF910895A0E04C
:100AB000B0E0EDE5F5E00C94EB360F8118859E0172
:100AC000255F3F4FF801838188608383C801698572
:100AD0007A85A9010E940F06F8012381277F2383CD
:100AE0002096E4E00C9407370F931F93CF93DF9386
:100AF0008C01EB018B8181FF1BC082FF0DC02E8119
:100B00003F818C819D812817390764F4E881F98140
:100B10000193F983E88306C0E885F985802F09955C
:100B2000892B31F48E819F8101969F838E8302C031
:100B30000FEF1FEFC801DF91CF911F910F91089523
:100B4000A0E0B0E0E6EAF5E00C94E336FC014B01EE
:100B50005A016901D90113968C9180FF1AC07F0157
:100B6000C0E0D0E010C0C6010E941505BFEF8F3F66
:100B70009B0789F0F70181937F010F5F1F4F0815D5
:100B8000190588F32196CA15DB0528F400E010E06A
:100B9000F6CFC0E0D0E0CE01CDB7DEB7ECE00C94EC
:100BA000FF36AEE0B0E0E7EDF5E00C94EB360D89F2
:100BB0001E8986E08C831A8309838FEF9FE79E83CB
:100BC0008D839E01275E3F4FCE0101966F89788D00
:100BD000A9010E940F062F813885020F131FF8010B
:100BE00010822E96E4E00C9407379C01FB01838170
:100BF00080FF11C086FD0FC09FEF2F3F390759F0CE
:100C0000228380648F7D8383868197810197978378
:100C1000868330E002C02FEF3FEFC9010895ABE0BB
:100C2000B0E0E5E1F6E00C94DD363C012B015A0121
:100C3000FC0117821682838181FD03C06FEF7FEF75
:100C4000C6C19AE0892E1E010894211C311CF301B3
:100C50002381F20123FD859123FF81912F018823B8
:100C600009F4B2C1853239F423FD859123FF8191C6
:100C70002F01853229F490E0B3010E947405E7CF7B
:100C8000982FFF24EE249924FFE1FF15D0F09B322A
:100C900069F09C3228F4903259F0933291F40EC0EE
:100CA0009D3249F0903369F441E024C052E0F52AC6
:100CB00084E0F82A28C098E0F92A25C0E0E1FE2A5D
:100CC00022C0F7FC29C0892F80538A3070F4F6FEC9
:100CD00005C0989C902C1124980E15C0E89CE02C1F
:100CE0001124E80EF0E2FF2A0EC09E3229F4F6FC31
:100CF0006BC140E4F42A07C09C3619F450E8F52A89
:100D000002C0983649F4F20123FD959123FF919199
:100D10002F01992309F0B8CF892F8554833018F01B
:100D20008052833038F444E050E0A40EB51E5FE3F7
:100D300059830FC0933631F0933779F0933509F02A
:100D400056C020C0F5018081898342E050E0A40EA6
:100D5000B51E610101E010E012C0F501C080D18034
:100D6000F6FC03C06FEF7FEF02C0692D70E042E038
:100D700050E0A40EB51EC6010E941A088C015FE760
:100D8000F52214C0F501C080D180F6FC03C06FEFDE
:100D90007FEF02C0692D70E042E050E0A40EB51E66
:100DA000C6010E9408088C0150E8F52AF3FE07C02E
:100DB0001AC080E290E0B3010E947405EA948E2D7F
:100DC00090E008171907A8F30EC0F601F7FC85910B
:100DD000F7FE81916F0190E0B3010E947405E1106C
:100DE000EA94015010400115110579F7EAC09436D4
:100DF00011F0993669F5F7FE08C0F50120813181BF
:100E00004281538184E090E00AC0F50180819181A4
:100E10009C01442737FD4095542F82E090E0A80EB6
:100E2000B91E9FE6F92257FF09C0509540953095AD
:100E300021953F4F4F4F5F4FE0E8FE2ACA01B901AD
:100E4000A1012AE030E00E942508D82ED21840C027
:100E5000953729F41F2D1F7E2AE030E01DC01F2D7D
:100E6000197F9F3661F0903720F4983509F0ACC0B7
:100E70000FC0903739F0983709F0A6C004C028E0B9
:100E800030E00AC0106114FD146020E130E004C0BD
:100E900014FD166020E132E017FF08C0F501608103
:100EA00071818281938144E050E008C0F501808126
:100EB0009181BC0180E090E042E050E0A40EB51EBC
:100EC000A1010E942508D82ED2188FE7F82EF12212
:100ED000F6FE0BC05EEFF522D91438F4F4FE07C01D
:100EE000F2FC05C08FEEF82202C01D2D01C0192DA5
:100EF000F4FE0DC0FE01ED0DF11D8081803319F46B
:100F000099EEF92208C01F5FF2FE05C003C08F2DC5
:100F1000867809F01F5F0F2DF3FC14C0F0FE0FC0A0
:100F20001E1510F09D2C0BC09D2C9E0C911A1E2D91
:100F300006C080E290E0B3010E9474051F5F1E1599
:100F4000C0F304C01E1510F4E11A01C0EE2404FF22
:100F50000FC080E390E0B3010E94740502FF1DC042
:100F600001FD03C088E790E00EC088E590E00BC06B
:100F7000802F867891F001FF02C08BE201C080E2F1
:100F8000F7FC8DE290E0B3010E94740506C080E397
:100F900090E0B3010E9474059A94D914C0F3DA94D6
:100FA000F101ED0DF11D808190E0B3010E94740507
:100FB000DD20A9F706C080E290E0B3010E9474052D
:100FC000EA94EE20C1F743CEF30166817781CB012D
:100FD0002B96E2E10C94F9360F931F93CF93DF9396
:100FE000689F8001699F100D789F100D1124C80122
:100FF0000E94DE01EC01009729F060E070E0A8019A
:101000000E941308CE01DF91CF911F910F91089597
:10101000FC010590615070400110D8F780959095C3
:101020008E0F9F1F0895DC0101C06D934150504009
:10103000E0F70895FC016150704001900110D8F76D
:10104000809590958E0F9F1F0895FA01AA2728304A
:1010500051F1203181F1E8946F936E7F6E5F7F4F85
:101060008F4F9F4FAF4FB1E03ED0B4E03CD0670F01
:10107000781F891F9A1FA11D680F791F8A1F911D54
:10108000A11D6A0F711D811D911DA11D20D009F4A4
:1010900068943F912AE0269F11243019305D3193E6
:1010A000DEF6CF010895462F4770405D4193B3E0CF
:1010B0000FD0C9F7F6CF462F4F70405D4A3318F076
:1010C000495D31FD4052419302D0A9F7EACFB4E027
:1010D000A6959795879577956795BA95C9F70097DF
:1010E0006105710508959B01AC010A2E0694579580
:1010F000479537952795BA95C9F7620F731F841FD7
:10110000951FA01D08950F931F9301EE12E0C801D3
:101110000E94FA26C8010E9478211F910F9108951C
:1011200083E595E040E855E260E070E00E941E3003
:1011300087E061E00E94C02E88E061E00E94C02E3E
:1011400089E061E00E94C02E87E061E00E94E62E07
:1011500088E061E00E94E62E89E061E00E94E62ED0
:101160000895DC01862F90E0FC01E85CFE4FE491DD
:10117000EC938C5D9E4FFC016491E62FF0E0EE0F46
:10118000FF1FE65EFE4F8591949112969C938E937D
:1011900011970895FC012781308541855285B90159
:1011A000CA010895FC012385348545855685B9011A
:1011B000CA0108950F931F938C01862F90E0FC01C4
:1011C000E85CFE4FE491D801EC938C5D9E4FFC01EE
:1011D0006491E62FF0E0EE0FFF1FE65EFE4F859173
:1011E000949112969C938E9311970E946C2DD80126
:1011F00013966D937D938D939C93169780E090E06A
:10120000A7ECB2ECF80187839087A187B287838728
:101210009487A587B6871F910F9108954F925F928B
:101220007F928F929F92AF92BF92CF92DF92EF9276
:10123000FF920F931F93DF93CF93CDB7DEB7A9979C
:101240000FB6F894DEBF0FBECDBF5C01FC0170800D
:10125000018112810E946C2D9B01AC014E0108940A
:10126000811C911C2401CE018A96F20111922F015A
:10127000E817F907D1F7F50183819481A581B6813B
:1012800069017A01C81AD90AEA0AFB0AD701C6011C
:10129000805D9740A040B04018F427E030E02EC1B8
:1012A000F5012383348345835683F894F8018181C3
:1012B000E72CE0948E2181837894FF24C72CDD24D1
:1012C00007C0F394FEE7FF1619F421E030E016C1E1
:1012D00082E090E00E94F92DF801808190E08C215D
:1012E0009D21892B71F3F894F80182818E218283EC
:1012F00081818729818378948CE494E00E94F92D80
:10130000F894F80181818E2181837894FF2407C0AD
:10131000F394FAE1FF1619F422E030E0EFC082E026
:1013200090E00E94F92DF801808190E08C219D21B0
:10133000892B71F3FF2407C0F394F3E3FF1619F42C
:1013400023E030E0DBC082E090E00E94F92DF8015C
:10135000808190E08C219D21892B71F7FF2407C0AB
:10136000F394F4E2FF1619F424E030E0C7C082E001
:1013700090E00E94F92DF801808190E08C219D2160
:10138000892B71F3FF2406C0F3E3FF1619F425E05F
:1013900030E0B4C0F39482E090E00E94F92DF801AF
:1013A000808190E08C219D21892B71F7F401F192CD
:1013B0004F01E415F50591F6EE24FF2420E030E01E
:1013C000DE01119660E170E041E050E02F5F3F4F99
:1013D000FD01E20FF31F80818C3058F0CB01821B9E
:1013E000930B6A0102C0CC0CDD1C8A95E2F7EC2855
:1013F000FD282031310551F7FE01729600E010E022
:101400002FE030E041E050E080818C3048F0CA01AC
:10141000022E02C0880F991F0A94E2F7082B192B9D
:101420002150304031966FEF2F3F360769F7FE01AC
:10143000B296DD2427E030E041E050E080818C303E
:1014400040F0CA01022E02C0880F991F0A94E2F7E9
:10145000D82A215030403196E415F50579F7B701C7
:101460007F77882777FD8095982F0E94E63320E0CC
:1014700030E040E251E40E944B33F501678370870E
:101480008187928717FF0DC01F77B801882777FDE6
:101490008095982F0E94E63320E030E040E251EC46
:1014A0000BC0B801882777FD8095982F0E94E633FE
:1014B00020E030E040E251E40E944B33F5016387C5
:1014C0007487858796874D2D50E02F2D332727FD74
:1014D0003A958E2D90E0820F911D800F911D212F46
:1014E000332727FD3A95820F911D907048175907B1
:1014F00019F026E030E002C020E030E0C901A996F2
:101500000FB6F894DEBF0FBECDBFCF91DF911F9114
:101510000F91FF90EF90DF90CF90BF90AF909F9092
:101520008F907F905F904F900895449A459AE9EB91
:10153000F0E080818E7F808380818D7F808388E44E
:101540008093B80084E48093BC000895FC018091EE
:10155000E0019091E201981B9093E101882319F436
:101560001092E101089581508093E001E90FF11D8F
:10157000828108950895EF92FF920F931F930E9426
:101580006C2D7B018C0184E98093BC001BC021156C
:101590003105E1F00E946C2D6E197F09800B910BD3
:1015A0002091E3013091E40140E050E062177307BD
:1015B0008407950738F01092BC0084E48093BC0047
:1015C00081E009C02091E3013091E4018091BC00E9
:1015D00084FDDDCF80E01F910F91FF90EF90089583
:1015E000CF92DF92EF92FF921F93162F0E946C2DE5
:1015F0006B017C01112311F084EC01C084E880931D
:10160000BC001BC021153105E1F00E946C2D6C1946
:101610007D098E099F092091E3013091E40140E0AA
:1016200050E0621773078407950738F01092BC00EA
:1016300084E48093BC0091E019C02091E3013091D3
:10164000E4018091BC0087FFDDCF8091B900887FE5
:10165000883349F49091B900987F1092BC0084E4DB
:101660008093BC0003C09091B900987F892F1F918F
:10167000FF90EF90DF90CF900895EF92FF920F933D
:101680001F93CF93DF93EC016093BB000E946C2DFE
:101690007B018C0184E88093BC001BC021153105BF
:1016A000E1F00E946C2D6E197F09800B910B209147
:1016B000E3013091E40140E050E0621773078407D2
:1016C000950738F01092BC0084E48093BC0011E0D0
:1016D00020C02091E3013091E4018091BC0087FF9C
:1016E000DDCF8091B900887F883211F410E011C0FD
:1016F0001091B900187F8091B900887F803321F460
:10170000CE010E94BB0A05C01092BC0084E4809305
:10171000BC00812FDF91CF911F910F91FF90EF902F
:101720000895EF92FF920F931F93CF93DF93EC01F5
:101730006093BB000E946C2D7B018C0184E8809338
:10174000BC001BC021153105E1F00E946C2D6E1903
:101750007F09800B910B2091E3013091E40140E07F
:1017600050E0621773078407950738F01092BC00A9
:1017700084E48093BC0011E01DC02091E30130910E
:10178000E4018091BC0087FFDDCF8091B900887FA4
:10179000883179F08091B900887F803499F409C04C
:1017A0008091B900887F8834B1F4CE010E94BB0AD1
:1017B00001C010E0812FDF91CF911F910F91FF9019
:1017C000EF9008951091B900187F8091B900887F3B
:1017D000803231F7EACF1092BC0084E48093BC00E1
:1017E000E9CFEF92FF920F931F930E946C2D7B0124
:1017F0008C0184EA8093BC001BC021153105E1F007
:101800000E946C2D6E197F09800B910B2091E301D2
:101810003091E40140E050E06217730784079507B8
:1018200038F01092BC0084E48093BC0091E021C0A9
:101830002091E3013091E4018091BC0087FFDDCF6E
:101840008091B900887F883099F08091B900887FB5
:101850008031A9F40DC09091B900987F1092BC001E
:1018600084E48093BC0005C09091B900987F01C0CA
:1018700090E0892F1F910F91FF90EF900895809134
:10188000B900887F883381F7E6CFEF92FF920F93FC
:101890001F93CF93DF93EC01162F042FE22E1092AB
:1018A000E0011092E101222311F4EE24E394EA9482
:1018B000E982E3941882CE010E94F10B8883882389
:1018C00009F061C0110FCE01612F0E94910B888336
:1018D000882329F0813009F056C082E054C0CE013F
:1018E000602F0E943D0B8883882329F0813009F006
:1018F0004AC083E048C0CE010E94F10B8883882350
:1019000029F0813009F03FC084E03DC01F5FCE0167
:10191000612F0E94910B8883882319F48E01FF2484
:1019200025C0813081F585E02EC08981F81651F4FB
:10193000CE0160E00E94F00A8883813019F1883579
:1019400051F021C0CE0161E00E94F00A888381300D
:10195000C9F08035C1F48091BB00F8018283F39413
:10196000F092E001F092E2010F5F1F4FFE14E8F2E7
:10197000CE010E94BB0A8883882329F0813019F4A4
:1019800087E001C086E0DF91CF911F910F91FF901A
:10199000EF900895FF920F931F93CF93DF93EC0185
:1019A000162F042FF22E18820E94F10B88838823B1
:1019B00041F5110FCE01612F0E94910B888388237E
:1019C00021F08130F1F482E01CC0CE01602F0E9432
:1019D0003D0B8883882339F4CE016F2D0E943D0B87
:1019E0008883882319F0813061F40AC0CE010E94F7
:1019F000BB0A8883882329F0813019F487E001C06D
:101A000083E0DF91CF911F910F91FF9008950F9385
:101A10001F93CF93DF93EC01162F042F18820E949F
:101A2000F10B8883882301F5110FCE01612F0E94ED
:101A3000910B8883882321F08130B1F482E014C0B7
:101A4000CE01602F0E943D0B8883882321F08130D6
:101A500059F483E009C0CE010E94BB0A8883882321
:101A600019F0813009F487E0DF91CF911F910F9138
:101A70000895FB010680F781E02D80E004C08F5FB0
:101A80000280F381E02D3097D1F70895FB010680A5
:101A9000F781E02D04C041500280F381E02D3097A2
:101AA00011F04423C1F7CF010895CF93DF93EB01E9
:101AB000DA01EE81FF814115510591F0309719F45B
:101AC0005F834E830DC0CF010280F381E02D3097FC
:101AD000D1F7FC01B383A28315969C938E93149740
:101AE000DF91CF9108950F931F93CF93DF93FB0165
:101AF0008A01C681D78103C00A80DB81C02D20976F
:101B000039F088819981B8010E944B04892BA1F793
:101B1000CE01DF91CF911F910F910895EF92FF9227
:101B20000F931F93CF93DF937B018A01E901211566
:101B3000310511F188819981009711F00E94880286
:101B4000C8010E942D0488839983D7011696ED91D0
:101B5000FC911797309729F41796DC93CE9316973C
:101B60000BC0CF010280F381E02D3097D1F7FC014B
:101B7000D383C2839D838C83DF91CF911F910F917B
:101B8000FF90EF900895EF92FF920F931F93CF93E2
:101B9000DF938C01EB0123C0FA80EB80888587FD01
:101BA00008C06E817F816115710519F0C8010E941E
:101BB000C30D8885853031F489859A85009711F0A9
:101BC0000E94880288819981009711F00E94880202
:101BD000CE010E9488028F2D9E2D9C01E901209745
:101BE000D9F6DF91CF911F910F91FF90EF9008955B
:101BF0000F931F93CF93DF938B01EA0182E290E072
:101C0000BA010E9474058F5F9F4F09F464C00115EB
:101C1000110509F050C054C0803240F0823231F0DA
:101C20008C3521F0992787FD909534C08CE590E0A4
:101C3000BE010E9474058F5F9F4F09F44CC0F801EC
:101C400080818C30C9F08D303CF4893051F18A307C
:101C5000B1F0883071F50DC0823241F08C3519F049
:101C60008D3039F515C08CE590E01DC082E290E022
:101C700008C082E690E00EC086E690E014C08EE6D2
:101C800090E0BE010E9474058F5F9F4F91F423C0C6
:101C900082E790E0BE010E9474058F5F9F4F49F478
:101CA0001AC084E790E0BE010E9474058F5F9F4FC9
:101CB00091F00F5F1F4FF8018081882309F0ACCFAE
:101CC00082E290E0BE010E9474058F5F9F4F19F081
:101CD00020E030E002C02FEF3FEFC901DF91CF914C
:101CE0001F910F910895CF93DF93EB01611571055B
:101CF00059F0CE010E9415052FEF8F3F920721F07A
:101D000081329105B4F306C02FEF3FEFC901DF9197
:101D1000CF910895BE010E94F5058F5F9F4FA1F3FB
:101D200020E030E0F3CF6F927F928F929F92AF923C
:101D3000BF92CF92DF92EF92FF920F931F93CF93B8
:101D4000DF93FB014A016115710509F4A5C0A18467
:101D5000B284C384D484C601B50120E030E040E001
:101D600050E00E9447338823C4F400D000D0ADB7C0
:101D7000BEB712969C928E92119781E091E01496D4
:101D80009C938E9313970E945705D7FAD094D7F857
:101D9000D0940F900F900F900F90C601B5010E9444
:101DA000B8337B018C01EDB7FEB738970FB6F894C6
:101DB000FEBF0FBEEDBF3196ADB7BEB712969C9277
:101DC0008E9211978DEF90E093838283E482F58267
:101DD000068317830E945705C801B7010E94E433A8
:101DE0009B01AC01C601B5010E94E2322CEA35EC40
:101DF00047EA56E30E94E3327B018C01C5E0D0E064
:101E0000EDB7FEB738960FB6F894FEBF0FBEEDBF24
:101E10008AEF682E80E0782EC801B70120E030E01C
:101E200040E251E40E949A345B016C010E94B83395
:101E30007B0100D000D000D0EDB7FEB73196ADB732
:101E4000BEB712969C928E921197738262827583AE
:101E500064830E94570500E010E0C801B7010E94AA
:101E6000E4339B01AC01C601B5010E94E2327B0163
:101E70008C01EDB7FEB736960FB6F894FEBF0FBED5
:101E8000EDBF20E030E040E050E00E94473388237F
:101E900019F0219709F0C0CF80E090E0DF91CF9159
:101EA0001F910F91FF90EF90DF90CF90BF90AF9078
:101EB0009F908F907F906F900895CF93DF93DB0179
:101EC0006115710519F420E030E01FC000D000D08A
:101ED00000D0EDB7FEB73196CDB7DEB75A83498350
:101EE00083E091E09383828319968D919C911A9758
:101EF000958384830E9457059C018DB79EB70696F3
:101F00000FB6F8949EBF0FBE8DBFC901DF91CF9170
:101F10000895FB016115710509F44BC0208523303C
:101F2000B1F124303CF4213049F1223064F4222311
:101F300099F03FC0253089F1253064F1263091F1C8
:101F40002730B9F532C000D000D0EDB7FEB75283CC
:101F5000418385EF90E008C000D000D0EDB7FEB718
:101F6000528341838FEE90E0948383830E945705D0
:101F70009C010F900F900F900F901DC000D000D0CB
:101F8000EDB7FEB7528341838AEE90E0EDCF0E9419
:101F90005D0F0DC00E94930E0AC0618572850E947C
:101FA000F80D05C00E942B1002C00E94DD0F9C019D
:101FB00002C020E030E0C9010895EF92FF920F9334
:101FC0001F93CF93DF937C01FB018A01611571059B
:101FD000C1F1C681D7818BE790E020C0688179810B
:101FE000C701A8010E94F80D8F5F9F4F39F18AE366
:101FF00090E0B8010E9474058F5F9F4FF9F0C70110
:10200000BE01A8010E94890F8F5F9F4FB9F00A801F
:10201000DB81C02D209741F08CE290E0B8010E9456
:1020200074058F5F9F4F51F02097C1F68DE790E0C8
:10203000B8010E9474058F5F9F4F19F42FEF3FEF97
:1020400002C020E030E0C901DF91CF911F910F91D4
:10205000FF90EF900895EF92FF920F931F93CF930D
:10206000DF937C01FB018A016115710539F1C6819D
:10207000D7818BE590E00FC0C701BE01A8010E9487
:10208000890F8F5F9F4FB9F00A80DB81C02D2097A9
:1020900041F08CE290E0B8010E9474058F5F9F4F81
:1020A00051F0209749F78DE590E0B8010E94740542
:1020B0008F5F9F4F19F42FEF3FEF02C020E030E019
:1020C000C901DF91CF911F910F91FF90EF9008957B
:1020D000EF92FF920F931F93CF93DF938C017B01BD
:1020E0000E946F15EC01009719F420E030E009C060
:1020F000C801B701AE010E94890FCE010E94581598
:102100009C01C901DF91CF911F910F91FF90EF903A
:102110000895EF92FF920F931F93CF93DF937B016C
:102120008A01CA010E941505829709F04FC085E017
:10213000F70180870E942A16EC01009709F446C037
:10214000C8010E941505FFEF8F3F9F0709F041C0AE
:102150003AC08C35910569F5C8010E9415052FEF2D
:102160008F3F920781F186369105E1F08736910520
:102170004CF48C35910581F08236910589F0829777
:10218000D9F40CC08237910589F08437910581F02C
:102190008E36910589F408C08CE50BC082E209C037
:1021A00088E007C08CE005C08AE003C08DE001C074
:1021B00089E0BE010E94C415C8010E941505EFEF19
:1021C0008F3F9E0731F4CE010E94E2152FEF3FEFC3
:1021D0000FC08232910521F0803291050CF0B9CF09
:1021E000CE010E94E715F7019287818720E030E059
:1021F000C901DF91CF911F910F91FF90EF9008954A
:102200002F923F924F925F926F92AF92BF92CF9276
:10221000DF92EF92FF920F931F93DF93CF93CDB78F
:10222000DEB728970FB6F894DEBF0FBECDBF7A8316
:1022300069831A01CA010E9415052C012FEF8F3FF7
:10224000920771F08D32910519F0AA24A3940DC064
:10225000C1010E9415052C014FEF8F3F940719F41F
:102260002FEF3FEF16C1AA24AA94C201C0970A9784
:1022700018F000E010E018C000E010E0C80173E0C2
:10228000880F991F7A95E1F7000F111F800F911F9A
:10229000820100531040080F191FC1010E9415054B
:1022A0002C01C0970A9750F35EE245165104D1F015
:1022B00085E648165104B1F095E44916510491F0B1
:1022C0008A2D992787FD9095FC010E9FC0010F9FD5
:1022D000900D1E9F900D1124E981FA8192878187CC
:1022E00083E0D0C0B801882777FD8095982F0E94A1
:1022F000E6337B018C01FEE24F16510419F0CC2429
:10230000DD242DC0C1010E9415052C01CC24DD2443
:10231000C801B70120E030E040E251E40E949A3465
:102320007B018C0120ED3FEF420E531EB201882746
:1023300077FD8095982F0E94E6339B01AC01C80180
:10234000B7010E94E3327B018C010894C108D108D7
:10235000C1010E9415052C01C0970A97C8F235E605
:102360004316510449F045E44416510429F01886F7
:102370001F826624639437C0C1010E9415052C0199
:102380008B32910529F4C1010E9415052C0104C06E
:102390008DE24816510419F06624639406C0C10109
:1023A0000E9415052C0166246A9418861F8215C0A8
:1023B0008F81988553E0880F991F5A95E1F7EF8137
:1023C000F885EE0FFF1FE80FF91FE20FF31FF887E4
:1023D000EF83C1010E9415052C019201205330406A
:1023E0002A30310528F36A2D772767FD7095872FEE
:1023F000972F0E94E633A80197010E949A346B83BD
:102400007C838D839E83B601882777FD8095982FE6
:102410000E94E6335B016C012F813885B901882762
:1024200077FD8095982F0E94E6337B018C01662D05
:10243000772767FD7095872F972F0E94E6339B01C2
:10244000AC01C801B7010E949A349B01AC01C601DE
:10245000B5010E94E3329B01AC0160E070E080E2D4
:1024600091E40E94FD349B01AC016B817C818D81E4
:102470009E810E949A34E981FA81618772878387FD
:10248000948784E08087C201B1010E94F50520E0B5
:1024900030E0C90128960FB6F894DEBF0FBECDBF5D
:1024A000CF91DF911F910F91FF90EF90DF90CF9030
:1024B000BF90AF906F905F904F903F902F90089596
:1024C0008DE090E00E94DE01FC01009729F08DE094
:1024D000DF011D928A95E9F7CF0108950E946012ED
:1024E000FC01009711F087E08087CF0108950E94DA
:1024F0006012FC01009711F086E08087CF010895FB
:102500000F931F93CF93DF938B010E946012EC0116
:10251000009739F085E08887C8010E942D048987DB
:102520009A87CE01DF91CF911F910F910895CF929D
:10253000DF92EF92FF920F931F938C017B016A0150
:10254000B9010E9480129C01C801B701A6010E9436
:102550008E0D1F910F91FF90EF90DF90CF90089517
:10256000EF92FF920F931F937A018B010E946012EA
:10257000FC01009731F084E08087E186F2860387D2
:102580001487CF011F910F91FF90EF900895AF92A4
:10259000BF92CF92DF92EF92FF920F931F937C0135
:1025A0006B015A01B901A8010E94B0129C01C70138
:1025B000B601A5010E948E0D1F910F91FF90EF9023
:1025C000DF90CF90BF90AF900895CF93DF93EB0152
:1025D0000E946012FC01009721F083E08087D2877F
:1025E000C187CF01DF91CF910895CF92DF92EF9213
:1025F000FF920F931F938C017B016A01B9010E9426
:10260000E5129C01C801B701A6010E948E0D1F9121
:102610000F91FF90EF90DF90CF9008956F927F928F
:102620008F929F92BF92CF92DF92EF92FF920F9381
:102630001F93CF93DF937C014B018A013901CA01BB
:102640000E9415058B37910509F05DC087E0F40104
:102650008087C701B8010E94730EC8010E9415054A
:102660008D37910509F452C0B8010E94F505BB24CD
:10267000BA94C7010E946012EC01009709F443C0AC
:10268000BB2021F0F4019783868305C0F601938374
:102690008283DD82CC82C701B8010E94730EC7011C
:1026A000BE01A8010E9489108F5F9F4F61F1C70191
:1026B000B8010E94730E89859A85998388831A864A
:1026C0001986C8010E941505CA97E9F4C701B80127
:1026D0000E94730EC701BE01A80193010E949713C7
:1026E0008F5F9F4F81F0C701B8010E94730EC80130
:1026F0000E941505BB246E018C32910509F4B9CFF7
:102700008D37910519F02FEF3FEF02C020E030E048
:10271000C901DF91CF911F910F91FF90EF90DF9052
:10272000CF90BF909F908F907F906F9008958F92E1
:102730009F92AF92BF92CF92DF92EF92FF920F9350
:102740001F93DF93CF93CDB7DEB729970FB6F894D9
:10275000DEBF0FBECDBF6C015B017A01490141159F
:10276000510509F4ADC0BA010E94730E8F5F9F4FEF
:1027700009F4A6C0C7010E9415058C018FEF0F3F19
:10278000180709F49DC0C801B7010E94F5058F5FC5
:102790009F4F09F495C00232110531F4C601B5010D
:1027A000A7010E94891020C00D32110521F0C80137
:1027B000C0970A9730F4C601B501A7010E94001125
:1027C00013C00B35110539F4C601B501A7019401F9
:1027D0000E94761409C00B37110541F4C601B501FA
:1027E000A70194010E940E139C016CC00E361105C6
:1027F00001F519821A821B821C828E010F5F1F4F06
:10280000C80161E070E044E050E097010E94A0053B
:10281000049709F055C0C80160E071E044E050E061
:102820000E947904009709F04BC082E0F50180878F
:1028300044C006361105F9F48E010B5F1F4F85E089
:10284000F80111928A95E9F7C80161E070E045E06E
:1028500050E097010E94A005059791F5C80165E039
:1028600071E045E050E00E947904009749F5F501D8
:102870001086118622C00437110511F519821A82BB
:102880001B821C828E010F5F1F4FC80161E070E048
:1028900044E050E097010E94A005049789F4C80124
:1028A0006BE071E044E050E00E947904009741F44D
:1028B00081E0F50180878FEF818720E030E002C062
:1028C0002FEF3FEFC90129960FB6F894DEBF0FBE78
:1028D000CDBFCF91DF911F910F91FF90EF90DF90CF
:1028E000CF90BF90AF909F908F9008956F927F92FE
:1028F0008F929F92BF92CF92DF92EF92FF920F93AF
:102900001F93CF93DF936C014B01EA013901CA0198
:102910000E9415058B35910509F03FC086E0F40152
:102920008087C601BE010E94730ECE010E9415056C
:102930008D359105A9F1BE010E94F505BB24BA941D
:10294000C6010E9460128C01009739F1BB2021F072
:10295000F4019783868306C0F70193838283FC0189
:10296000F582E482C601BE010E94730EC601B80161
:10297000AE0193010E949713892B79F4C601BE0121
:102980000E94730ECE010E941505BB2478018C3283
:102990009105B1F28D35910519F02FEF3FEF02C08F
:1029A00020E030E0C901DF91CF911F910F91FF909E
:1029B000EF90DF90CF90BF909F908F907F906F901F
:1029C0000895CF92DF92EF92FF920F931F93CF93D0
:1029D000DF937C018B016A0161157105B1F00E94E2
:1029E0006012EC01009799F0C701B8010E94730EC4
:1029F000C701BE01A80196010E9497138F5F9F4FE8
:102A000031F4C701BE010E94C30DC0E0D0E0CE0189
:102A1000DF91CF911F910F91FF90EF90DF90CF90BA
:102A20000895EF92FF920F931F937C01CB010E94B8
:102A30009D158C01C701B80140E050E00E94E114EF
:102A4000F82EE92EC8010E948A158F2D9E2D1F9108
:102A50000F91FF90EF900895FC01A485B585129623
:102A60002D913C911397ED91FC911197E20FF31F7B
:102A70008081882319F4EFEFFFEF0AC02F5F3F4FEB
:102A800013963C932E931297E82FFF27E7FDF095BE
:102A9000CF010895FB01648575850E94C4158823C4
:102AA00019F420E030E002C02FEF3FEFC901089594
:102AB0000F931F93CF93DF93EC018C859D850E942C
:102AC000E7158C01009711F01D861C86CE010E942F
:102AD0009E04C801DF91CF911F910F910895CF936C
:102AE000DF938AE495E160E070E00E94C904EC01A4
:102AF000009761F00E942A16009731F4CE010E94DF
:102B00009E04C0E0D0E002C09D878C87CE01DF919B
:102B1000CF910895CF93DF93EC01009759F08C8506
:102B20009D85009711F00E9488021D861C86CE01AB
:102B30000E949E04DF91CF9108950F931F93CF932E
:102B4000DF938C0180E090E06CE275E10E94C904A3
:102B5000EC01009799F084E090E00E94DE01FC0116
:102B6000009739F011830083138212829D878C872E
:102B700005C0CE010E949E04C0E0D0E0CE01DF91EE
:102B8000CF911F910F910895482FDB0114962D913D
:102B90003C91159712968D919C91139728173907A0
:102BA00078F4ED91FC911197E20FF31F4083149696
:102BB0008D919C911597019615969C938E931497E1
:102BC00080E00895009711F00E94880208950F9305
:102BD0001F93CF93DF938C01DC0114962D913C91D0
:102BE00015972115310541F0ED91FC91E20FF31F8E
:102BF000319780818823B1F0F80182819381281771
:102C0000390780F40190F081E02DE20FF31F10826C
:102C1000D80114968D919C911597019615969C93C9
:102C20008E931497F801848195810E94DE01EC0156
:102C3000009751F062E775E00E947204D8011D927E
:102C40001C92C8010E948802CE01DF91CF911F9192
:102C50000F910895CF93DF9386E090E00E94DE010C
:102C6000DC010097A9F0E2E7F5E01196FC93EE9302
:102C700080E091E0EF019C01199221503040E1F792
:102C800013969C938E93129715961C921E921497EE
:102C9000CD01DF91CF9108950F931F938C010E9476
:102CA0006C2D605A75418F4F9F4FF801608371837F
:102CB000828393831F910F91089588E092E00E9490
:102CC0004C1680E192E06EE00E94DA0808950F93BE
:102CD0001F93CF93DF93EC010E946C2D28813981E3
:102CE0004A815B81621B730B840B950B61537547A3
:102CF00080409040C0F188E692E00E94D91888E6B2
:102D000092E068E470E042E050E00E94D61888E665
:102D100092E00E942A18182F88E692E00E942A1852
:102D2000312F20E090E0282B392B84E03595279532
:102D30008A95E1F7442737FD4095542FCA01B90120
:102D40000E94E63320E030E040E85DE30E949A34E0
:102D50008B01F82FE92FAC01CB01DA018C839D8325
:102D6000AE83BF8304C00C811D81FE81EF814F2F94
:102D70005E2FB801CA01DF91CF911F910F91089585
:102D8000EF92FF920F931F93DF93CF930F92CDB7E4
:102D9000DEB7962F613031F47EE0E72EF12C0EE0A5
:102DA00010E014C0623031F46FE0E62EF12C0FE039
:102DB00010E00CC0633031F430E1E32EF12C00E17F
:102DC00010E004C0EE24FF2400E010E0483051057C
:102DD00009F458C04930510594F44530510511F1BA
:102DE0004630510524F4452B09F480C018C0463004
:102DF000510509F47BC04730510589F42BC04A3096
:102E0000510509F473C04A3051050CF46AC04C30C6
:102E1000510509F474C04A5E534009F481C00FEFB4
:102E20001FEFA0C0802F60E00E94C02E802F0E9464
:102E30003A2F2FEF33E0829F8001839F100D929FE6
:102E4000100D11240115110509F08CC081EE92E0DE
:102E500069E063C0802F60E00E94C02E802F0E9436
:102E60003A2F2FEF33E0829F8001839F100D929FB6
:102E7000100D1124101611060CF074C081EE92E0B2
:102E800068E04BC080E192E0602F0E94B10880E1D1
:102E900092E00E940E099093200280931F020197F6
:102EA000069708F45DC080E192E00E94CA0820E025
:102EB00030E040E251E40E949A340E94B3338B0127
:102EC00080E192E00E94D20820E030E040E251E44C
:102ED0000E949A340E94B3337093220260932102BD
:102EE00041C000912102109122023CC08E2D60E071
:102EF0000E94C02E8E2D0E943E2E8C0133C08E2D3E
:102F000060E00E94C02E8E2D0E943E2E8C0118166D
:102F1000190644F581EE92E067E00E94142422C075
:102F2000802F61E099830E94C02E9981913021F415
:102F300088B1082F10E011C0923031F488B1082F09
:102F400010E01595079509C0933051F488B1082F0A
:102F500010E015950795159507950170107002C042
:102F600000E010E0C8010F90CF91DF911F910F9109
:102F7000FF90EF900895CF93DF93EB01442369F026
:102F800083E595E060E171E00E94CC3283E595E055
:102F9000BE014AE050E00E94AD32CE01835B90401A
:102FA000439718F42AE030E048C0CE018B5F904090
:102FB000439718F427E030E040C0CE018854914098
:102FC000439718F429EE33E038C0CE018E56914075
:102FD000439718F426E030E030C0CE01805A91408B
:102FE000439718F42BE030E028C0CE018050924087
:102FF000439718F428E030E020C0CE01805392407F
:10300000439718F42CE030E018C0CE018F5892405E
:10301000439718F42AEE33E010C0CE018F5093404E
:10302000439718F425E030E008C0C35FD3401CF498
:1030300020E030E002C02FEF3FEFC901DF91CF91D8
:1030400008952091440230E080914302281B310909
:10305000C90108954091430280914402481718F035
:103060002FEF3FEF0AC0E42FF0E0ED5DFD4F8081D0
:10307000282F30E04F5F40934302C9010895E0914B
:10308000430280914402E81718F0EFEFFFEF06C00B
:10309000F0E0ED5DFD4F8081E82FF0E0CF01089575
:1030A000089510926B0210926A0288EE93E0A0E0FD
:1030B000B0E080936C0290936D02A0936E02B09387
:1030C0006F0283E891E0909369028093680208950B
:1030D000CF92DF92EF92FF920F931F93CF93DF93E4
:1030E0007C016B018A01809167028823A1F0C0E016
:1030F000D0E00DC0D701ED91FC91D601AC0FBD1F02
:103100000190F081E02DC7016C9109952196C017BF
:10311000D10780F304C0CB01642F0E941B19C801A2
:10312000DF91CF911F910F91FF90EF90DF90CF90A3
:103130000895DF93CF930F92CDB7DEB7FC0169837B
:10314000809167028823C9F080916602803238F04E
:1031500081E090E09383828320E030E015C080918D
:103160006502E82FF0E0EB5BFD4F998190838F5F64
:10317000809365028093660205C0CE01019661E0EE
:103180000E941B1921E030E0C9010F90CF91DF911F
:103190000895413208F040E2862F63E272E00E9417
:1031A000E418109243028093440208950E94C918C3
:1031B00008951092430210924402109265021092F8
:1031C00066020E94B11A0895982F413210F040E033
:1031D00030C0809174028823E1F781E0809374020B
:1031E0008FEF8093DF0210929A02415040939B022E
:1031F0004F5F990F91609093750285EE8093BC00AC
:10320000809174028130E1F380919A02841710F466
:1032100040919A0220E030E00AC0FB01E20FF31F68
:10322000D901A658BD4F8C9180832F5F3F4F241743
:10323000A0F3842F0895482F613210F081E00895A3
:1032400080917402843011F082E008956093BD0291
:10325000ACE9B2E0842F9C01F90102C081918D9309
:103260008E2F841B8617D0F380E008951F920F9253
:103270000FB60F9211242F933F934F935F936F9349
:103280007F938F939F93AF93BF93EF93FF9380911F
:10329000B90090E0887F90708036910509F4DCC019
:1032A00081369105CCF58832910509F47BC08932CD
:1032B0009105B4F48031910509F46FC08131910515
:1032C0003CF4009709F431C1089709F039C165C091
:1032D0008831910509F466C0809709F031C17DC03D
:1032E0008034910509F49FC08134910544F4803302
:1032F000910509F47DC0C89709F022C184C08035CA
:10330000910509F484C08835910509F491C0883489
:10331000910509F015C198C08839910509F4FDC0DF
:1033200089399105ECF48837910509F495C08937FE
:1033300091054CF48836910509F48EC080379105CB
:1033400009F0FEC089C08838910509F4E6C08039CB
:10335000910509F487C08038910509F0F1C082C059
:10336000803B910509F4B0C0813B91054CF4803A53
:10337000910509F489C0883A910509F0E1C0A4C01B
:10338000803C910509F4CDC0883C910509F4C9C081
:10339000883B910509F0D4C0ACC080917502809340
:1033A000BB00B9C090919A0280919B02981768F473
:1033B00090919A02E92FF0E0E658FD4F80818093CA
:1033C000BB009F5F90939A02A6C085ED8093BC00DE
:1033D0008091BC0084FDFCCFB1C080E28093DF020D
:1033E00085ED8093BC008091BC0084FDFCCFA6C01D
:1033F00080E38093DF0285ED8093BC008091BC0068
:1034000084FDFCCF9BC088E38093DF028AC080915B
:103410009A029091BB00E82FF0E0E658FD4F9083B0
:103420008F5F80939A0290919A0280919B0271C063
:1034300080919A029091BB00E82FF0E0E658FD4F92
:1034400090838F5F80939A0285ED8093BC0080917A
:10345000BC0084FDFCCF72C083E0809374021092A4
:10346000DE0259C08091DE02803208F056C08091A1
:10347000DE029091BB00E82FF0E0E254FD4F908314
:103480008F5F8093DE0247C08091DE02803230F48D
:10349000E091DE02F0E0E254FD4F108285ED809372
:1034A000BC008091BC0084FDFCCF1092740260913E
:1034B000DE02E0917802F09179028EEB92E070E00A
:1034C00009951092DE022DC084E080937402109260
:1034D000BC021092BD02E0917602F091770209954C
:1034E0008091BD02882329F481E08093BD0210926F
:1034F0009C029091BC02E92FF0E0E456FD4F8081E0
:103500008093BB009F5F9093BC029091BC0280911E
:10351000BD02981710F485EC01C085E88093BC00CB
:103520000FC085EC8093BC0009C01092DF0285EDCE
:103530008093BC008091BC0084FDFCCF109274028B
:10354000FF91EF91BF91AF919F918F917F916F917B
:103550005F914F913F912F910F900FBE0F901F9051
:1035600018951092740282E161E00E94E62E83E1D8
:1035700061E00E94E62EE9EBF0E080818E7F80839F
:1035800080818D7F808388E48093B80085E4809378
:10359000BC000895362F242F85EE91E06DE1432F76
:1035A0000E94CA0C0895EF92FF920F931F93CF933E
:1035B000DF93162F7A01022F85EE91E06DE1412F06
:1035C0000E94070D85EE91E06DE1412F202F0E94B2
:1035D000450CC0E0D0E010E009C085EE91E00E940B
:1035E000A60AF701EC0FFD1F80832196C017D107B3
:1035F000A4F3DF91CF911F910F91FF90EF90089569
:10360000AF92BF92CF92DF92EF92FF920F93DF9330
:10361000CF9300D000D000D0CDB7DEB77B016A01D8
:103620005901AE014F5F5F4F0023C1F161E026E019
:103630000E94D31A2A81229526952695237030E080
:10364000898190E0880F991F880F991F282B392BAB
:10365000F701318320832C812295269526952370AE
:1036600030E08B8190E0880F991F880F991F282BDD
:10367000392BF601318320832E81229526952695BC
:10368000237030E08D8190E0880F991F880F991F7B
:10369000282B392BF501318320831FC061E023E003
:1036A0000E94D31A898190E0880F991F880F991F73
:1036B000F701918380838A8190E0880F991F880F9A
:1036C000991FF601918380838B8190E0880F991F69
:1036D000880F991FF50191838083F7018081918183
:1036E000F2E080309F072CF080509440F7019183E6
:1036F0008083F60180819181F2E080309F072CF079
:1037000080509440F60191838083F50180819181FE
:10371000F2E080309F072CF080509440F5019183B7
:10372000808326960FB6F894DEBF0FBECDBFCF9133
:10373000DF910F91FF90EF90DF90CF90BF90AF900F
:1037400008950F931F93DF93CF930F92CDB7DEB7FA
:103750008C016AE2AE014F5F5F4F21E00E94D31AF5
:1037600049814D7FC8016AE20E94CA1A0F90CF9129
:10377000DF911F910F9108950F931F93DF93CF93C4
:103780000F92CDB7DEB78C016AE2AE014F5F5F4F9B
:1037900021E00E94D31A49814160C8016AE20E9477
:1037A000CA1A0F90CF91DF911F910F9108950F9337
:1037B0001F93DF93CF930F92CDB7DEB78C016AE2F0
:1037C000AE014F5F5F4F21E00E94D31A49814E7FC7
:1037D000C8016AE20E94CA1A0F90CF91DF911F912F
:1037E0000F9108950F931F93DF93CF930F92CDB74F
:1037F000DEB78C0185EE91E00E94950AC8010E9417
:10380000D71BC8016EE040E00E94CA1AC8010E949E
:10381000A11BC8010E94BC1BC8016DE0AE014F5F37
:103820005F4F21E00E94D31A0F90CF91DF911F913B
:103830000F91089580EE92E00E94F21B08957F920E
:103840008F929F92AF92BF92CF92DF92EF92FF92B0
:103850000F931F93CF93DF935C01712E122FB32F21
:10386000A42FF52FE62F972F47016501E501EE24E0
:10387000FF241BC000FD02C080E301C081E388A3D8
:103880000894E11CF11C202F372D412F5B2F6A2F4C
:103890007F2F8E2F01E00E94E000022F732E142F45
:1038A000B52FA62FF72FE82F2196802F8729812B60
:1038B0008B2B8A2B8F2B8E2B892BE1F6A4014E1993
:1038C0005F09D501A80DB91DFD0120E030E090E3AE
:1038D0000FC02417350720F0878DE601888302C0CA
:1038E000E60198832F5F3F4F31970894C11CD11C8C
:1038F0002815390570F31C92DF91CF911F910F911C
:10390000FF90EF90DF90CF90BF90AF909F908F90FF
:103910007F9008958DEC93E00E94352708952F92B3
:103920003F924F925F926F927F928F929F92AF924F
:10393000CF92DF92EF92FF920F931F93DF93CF937B
:1039400000D000D000D0CDB7DEB72B011A013A83EA
:1039500029831C830B833601470187E092E00E9494
:103960006E126C01009739F483E595E06FE171E028
:103970000E94CF3281C087E092E00E9477128C01D2
:1039800087E092E0B6014AE251E098010E948E0D74
:1039900087E092E00E946E129E838D8387E092E022
:1039A000B8014D815E810E94550D87E092E06D81E6
:1039B0007E8141E351E092010E94971287E092E0FC
:1039C0006D817E8143E351E091010E94F51287E011
:1039D00092E06D817E8145E351E029813A810E9428
:1039E000F512AA2059F087E092E06D817E8147E3CD
:1039F00051E02B813C810E94971229C0C401B30180
:103A00000E94B3337B018C01B701882777FD809535
:103A1000982F0E94E6339B01AC01C401B3010E94C0
:103A2000963418165CF487E092E06D817E8147E35E
:103A300051E0940183010E94C71209C087E092E01F
:103A40006D817E8147E351E097010E94F51287E086
:103A500092E0B6010E9468108C01009729F083E57E
:103A600095E0B8010E94CF3287E092E0B6010E9453
:103A7000C30DC8010E94880226960FB6F894DEBFD7
:103A80000FBECDBFCF91DF911F910F91FF90EF90AF
:103A9000DF90CF90AF909F908F907F906F905F90CE
:103AA0004F903F902F9008952F923F924F925F92A8
:103AB0006F927F928F929F92AF92CF92DF92EF920E
:103AC000FF920F931F93DF93CF93CDB7DEB72F975E
:103AD0000FB6F894DEBF0FBECDBF2C01622EA32E11
:103AE000B42FA52FCB01CC24DD245BE0E52EF12CF7
:103AF00044E0242E312C2C0E3D1E202F2F70F1017E
:103B0000EE0DFF1D20833BE0E316F10411F0C20E21
:103B1000D11C0894E108F1082FEFE2162FEFF2060E
:103B200071F09801462D5A2D6B2F7A2F04E00E94D8
:103B3000E0008901642EA52EB62FA72FDECF8C8141
:103B4000893009F043C18F8590E03FE0C322DD2436
:103B50008C159D0509F03AC100D000D000D0EDB71A
:103B6000FEB731961E010894211C311CADB7BEB7BB
:103B700012963C922E9211978AE391E0938382836E
:103B80008E818295807F9F81890F848315820E9418
:103B9000D1052DB73EB72A5F3F4F0FB6F8943EBF11
:103BA0000FBE2DBF8D818370813009F44CC08130F0
:103BB00038F0823009F45EC0833009F007C19CC040
:103BC0006A8524E6629FB0011124882777FD8095DD
:103BD000982F0E94E6337B018C016B852AE0629F5F
:103BE000B0011124882777FD8095982F0E94E63335
:103BF0009B01AC01C801B7010E94E3327B018C013B
:103C00006C8570E0882777FD8095982F0E94E633B9
:103C10009B01AC01C801B7010E94E33220E030E013
:103C200046E953E40E94E23220E030E040E251E411
:103C30000E944B336B017C01C201B10140E050E0B6
:103C400024E130E0BEC06A852AE0629FB001112401
:103C50002B85620F711D882777FD8095982F0E9414
:103C6000E6336B017C01C201B10140E050E025E187
:103C700030E0A7C07A8560E0882777FD8095982F8F
:103C80000E94E6337B018C016B8570E034E0660FA7
:103C9000771F3A95E1F7882777FD8095982F0E9446
:103CA000E6339B01AC01C801B7010E94E3327B01FE
:103CB0008C016C8570E0882777FD8095982F0E9495
:103CC000E6339B01AC01C801B7010E94E33220E05A
:103CD00030E841E054E40E949A3420E030E04AE7C2
:103CE00054E40E944B336B017C01C201B10140E0FE
:103CF00050E026E130E065C0698570E06170707069
:103D0000762F6627882777FD8095982F0E94E633C7
:103D10007B018C016A8570E094E0660F771F9A95AD
:103D2000E1F7882777FD8095982F0E94E6339B0165
:103D3000AC01C801B7010E94E3327B018C016B85A5
:103D400070E0882777FD8095982F0E94E6339B01CD
:103D5000AC01C801B7010E94E33220E030E040E24C
:103D600051E40E944B333B014C010C8510E0000FE5
:103D7000111F000F111F01571E4FC201B10140E07A
:103D800050E027E130E00F2EF0E0CF2EF0E0DF2E04
:103D9000F0E0EF2EF0E0FF2EF02DAA24A3940E9475
:103DA0008F1CC401B30126E636E646E650E40E94C5
:103DB0009A346B017C01C201B10140E050E028E17E
:103DC00030E000E010E0AA240E948F1C2F960FB66E
:103DD000F894DEBF0FBECDBFCF91DF911F910F9141
:103DE000FF90EF90DF90CF90AF909F908F907F905B
:103DF0006F905F904F903F902F9008956F927F92B9
:103E00008F929F92AF92BF92CF92DF92EF92FF92EA
:103E10000F931F93DF93CF93CDB7DEB72D970FB6D8
:103E2000F894DEBF0FBECDBF3C01B12E122FA32EE2
:103E3000B42FA52FCB01CC24DD24E9E0EE2EF12C0C
:103E400074E0872E912C8C0E9D1E202F2F70F40174
:103E5000EE0DFF1D208339E0E316F10411F0C20ED0
:103E6000D11C0894E108F1086FEFE6166FEFF60633
:103E700081F0202F3B2D412F5A2D6B2F7A2F04E0FC
:103E80000E94E000022FB32E142FA52EB62FA72FCD
:103E9000DCCF1C811A3009F062C08D8590E07FE094
:103EA000C722DD248C159D0509F059C000D000D033
:103EB00000D0EDB7FEB731965E010894A11CB11C8D
:103EC000ADB7BEB71296BC92AE9211978AE391E05D
:103ED000938382838F8190E08E7090709595879503
:103EE0002E812295207F280F248315820E94D105E0
:103EF0002B859C854A856DB77EB76A5F7F4F0FB66D
:103F0000F8947EBF0FBE6DBF8D81882341F564E6B6
:103F1000269FB0011124919F90011124620F731FFD
:103F2000640F711D80E090E00E94E43320E030E0F7
:103F300040E251E40E944B3320E030E048E452E498
:103F40000E94E2326B017C01C301B50140E050E008
:103F50002DE030E000E010E0AA240E948F1C2D9696
:103F60000FB6F894DEBF0FBECDBFCF91DF911F918A
:103F70000F91FF90EF90DF90CF90BF90AF909F9008
:103F80008F907F906F900895EF92FF920F931F9301
:103F9000CF93DF9387E092E00E946E127C0100973E
:103FA00039F483E595E06FE171E00E94CF3265C09E
:103FB00087E092E00E9477128C0187E092E0B701DF
:103FC0004DE351E098010E948E0D87E092E00E943F
:103FD0006E12EC0187E092E0B801AE010E94550D2F
:103FE00087E092E0BE0141E351E022E633E00E9427
:103FF0009712209186033091870387E092E0BE01FB
:1040000043E351E00E94F512209188033091890327
:1040100087E092E0BE0145E351E00E94F5128091F5
:10402000CC03882351F087E092E0BE0147E351E0E2
:104030002AE833E00E9497120BC02091CA03309106
:10404000CB0387E092E0BE0147E351E00E94F51206
:1040500087E092E0B7010E946810EC01009729F018
:1040600083E595E0BE010E94CF3287E092E0B70180
:104070000E94C30DCE010E948802DF91CF911F9153
:104080000F91FF90EF900895CF92DF92EF92FF9201
:104090000F931F93CF93DF93EB0187E092E00E9491
:1040A0006E126C01009739F483E595E06FE171E0E1
:1040B0000E94CF3235C087E092E00E9477127C01E7
:1040C00087E092E0B60141E451E097010E948E0D35
:1040D00087E092E00E946E128C0187E092E0B701C7
:1040E000A8010E94550D87E092E0B80147E451E035
:1040F0009E010E94F51287E092E0B6010E946810CE
:10410000EC01009729F083E595E0BE010E94CF32D3
:1041100087E092E0B6010E94C30DCE010E948802A2
:10412000DF91CF911F910F91FF90EF90DF90CF9093
:104130000895AF92BF92CF92DF92EF92FF920F93CA
:104140001F93CF93DF9302EE12E087E092E0B80175
:104150000E9411155C0180E8F80111928A95E9F737
:10416000A114B10411F480E08DC087E092E0B501A4
:104170000E94390D882309F47CC087E092E0B501E4
:104180004AE251E00E94730DBC01009709F471C02E
:1041900087E092E040E00E94460DEC01009709F4B0
:1041A00068C087E092E0BE0141E351E00E94730DD8
:1041B0008C0187E092E0BE0143E351E00E94730D61
:1041C0007C0187E092E0BE0145E351E00E94730D5F
:1041D0006C0187E092E0BE0147E351E00E94730D5D
:1041E000EC010115110509F444C0F8018085853002
:1041F00009F03FC06185728582E693E044E250E0B9
:104200000E948704E114F104A1F1F7018085833055
:1042100081F5818592859093870380938603C114ED
:10422000D10439F1F6018085833019F581859285B5
:1042300090938903809388032097D9F088858530EF
:1042400061F469857A858AE893E040E450E00E9451
:10425000870481E08093CC030AC0833051F48985C0
:104260009A859093CB038093CA031092CC0301E00C
:1042700001C000E087E092E0B5010E94C30D802FED
:10428000011181E0DF91CF911F910F91FF90EF908D
:10429000DF90CF90BF90AF900895CF93DF9383E5E9
:1042A00095E00E94A430892B19F4CFEFDFEF1CC0FA
:1042B000C0E0D0E012C0C038D105B1F083E595E090
:1042C0000E94D530FE01EE51FD4F8083219662E0C1
:1042D00070E080E090E00E94A02D83E595E00E94D0
:1042E000A430181619063CF3CE01DF91CF91089542
:1042F000CF92DF92EF92FF920F931F93CF93DF93B2
:10430000EC010E944D21181619060CF0C5C0CE0113
:104310000E949920882309F4BAC080918603909165
:104320008703892B09F0AFC080918803909189039E
:1043300023E0883E920791F023E0893E920724F41F
:104340000B9709F09CC02DC023E08A3E920709F428
:1043500059C08B5E934009F092C075C08AE893E023
:1043600060E070E040E150E00E94E0027B018C01DF
:10437000FFEFCF2ED12CB601601B710987E00E94A0
:10438000602ECF18D10888E0B6010E94602EE0941C
:10439000F0948FEFE822FF2489E0B7010E94602E9D
:1043A00066C082E693E00E940F04823049F08330B9
:1043B00061F0813081F48DEC93E06EE070E009C033
:1043C0008DEC93E06FE070E004C08DEC93E060E171
:1043D00070E00E948C2C8DEC93E06EE571E00E9401
:1043E0005D278DEC93E068E070E00E9461278DEC22
:1043F00093E06AE873E00E94482C8DEC93E00E9401
:104400007C2C35C082E693E00E940F04823041F09C
:10441000833041F0813011F41EE005C01FEF03C06E
:104420001FE001C010E18091CC03882331F08AE8BD
:1044300093E00E940F04682F02C06091CA03812F8D
:104440000E94E62E14C08AE893E06CE471E00E94BA
:104450006904009781F48AE893E060E571E00E94C6
:1044600072048AE893E065E571E00E945E04CE0183
:104470000E94C41F11C0CE0164E070E00BC0CE01E9
:1044800063E070E007C0CE0162E070E003C0CE01DF
:1044900061E070E00E944420DF91CF911F910F9165
:1044A000FF90EF90DF90CF9008958F929F92AF9200
:1044B000CF92DF92EF92FF920F931F93DF93CF93F0
:1044C000CDB7DEB72F970FB6F894DEBF0FBECDBFC6
:1044D0004C01F62E83E595E00E94A43018161906CB
:1044E0001CF4C4010E94782100D000D000D0EDB7A8
:1044F000FEB731968E010F5F1F4FADB7BEB7129654
:104500001C930E93119789E591E093838283F48243
:1045100015820E94D1058DB79EB706960FB6F89406
:104520009EBF0FBE8DBF88E092E06F2D49E050E046
:104530000E94C016AA2797FDA095BA2FBC01CD01F5
:104540000E94E63320E030E040E251E40E944B3329
:104550006B017C01C401B80140E050E029E030E08B
:1045600000E010E0AA240E948F1C83E595E00E94E1
:10457000A430181619061CF4C4010E9478212F9645
:104580000FB6F894DEBF0FBECDBFCF91DF911F9164
:104590000F91FF90EF90DF90CF90AF909F908F9012
:1045A00008958F929F92AF92CF92DF92EF92FF92F7
:1045B0000F931F93DF93CF93CDB7DEB765970FB6F9
:1045C000F894DEBF0FBECDBF4C011A8219821C8247
:1045D0001B821E821D8283E595E00E94A43018167E
:1045E00019061CF4C4010E94782180EE92E0BE01FD
:1045F0006F5F7F4FAE014D5F5F4F9E012B5F3F4F5F
:1046000001E00E94001B8DB79EB70A970FB6F89481
:104610009EBF0FBE8DBFEDB7FEB731968E01095F0D
:104620001F4FADB7BEB712961C930E9311978CE532
:1046300091E09383828389819A81958384838B819E
:104640009C81978386838D819E81918780870E943C
:10465000D1058DB79EB70A960FB6F8949EBF0FBED0
:104660008DBFC40165E671E040E050E022E030E03B
:104670000F2EF0E0CF2EF0E0DF2EF0E0EF2EF0E096
:10468000FF2EF02DAA24A3940E948F1C83E595E0B1
:104690000E94A430181619061CF4C4010E94782147
:1046A00065960FB6F894DEBF0FBECDBFCF91DF91F8
:1046B0001F910F91FF90EF90DF90CF90AF909F9060
:1046C0008F900895AF92CF92DF92EF92FF920F9367
:1046D0001F93CF93DF93EC0183E595E00E94A43014
:1046E000181619061CF4CE010E94782188E092E089
:1046F0000E9467166B017C01CE0165E671E040E027
:1047000050E021E030E000E010E0AA240E948F1C7D
:1047100083E595E00E94A430181619061CF4CE011A
:104720000E947821DF91CF911F910F91FF90EF9020
:10473000DF90CF90AF9008958F929F92AF92CF92DB
:10474000DF92EF92FF920F931F93DF93CF93CDB73A
:10475000DEB727970FB6F894DEBF0FBECDBF4C0172
:1047600083E595E00E94A430181619061CF4C401D4
:104770000E94782185B1082F10E003701070CE01DF
:1047800001965F9B03C067E671E002C06AE671E0D4
:104790000E947204CE01019600FF03C067E671E03B
:1047A00002C06AE671E00E945E04CE01019601FF3C
:1047B00003C067E671E002C06AE671E00E945E0431
:1047C000C40165E671E040E050E028EE33E08E0180
:1047D0000F5F1F4F0F2EF0E0CF2EF0E0DF2EF0E046
:1047E000EF2EF0E0FF2EF02DAA24A3940E948F1C40
:1047F00083E595E00E94A430181619061CF4C40144
:104800000E94782127960FB6F894DEBF0FBECDBF69
:10481000CF91DF911F910F91FF90EF90DF90CF909C
:10482000AF909F908F900895FF920F931F93162F34
:1048300005B1FBB087E061E00E94E62E88E061E010
:104840000E94E62E89E061E00E94E62E812F60E062
:104850000E94E62E6CE370E080E090E00E94A02DC4
:1048600087E061E00E94E62E88E061E00E94E62E8B
:1048700089E061E00E94E62E64E170E080E090E073
:104880000E94A02D05B9FBB81F910F91FF900895CC
:104890008F929F92AF92BF92CF92DF92EF92FF9250
:1048A0000F931F93CF93DF93EC0183E595E00E9474
:1048B000A430181619061CF4CE010E9478218DEC44
:1048C00093E061E070E00E94AC2B8DEC93E00E94DD
:1048D0006527882309F47DC08DEC93E00E94922720
:1048E0008901F42EE52ED62EC72EB82EA92E822FA2
:1048F000812B8F298E298D298C298B298A2951F189
:10490000CE0168E00E9414248DEC93E00E94A82759
:10491000039751F4CE012F2D3E2D4D2D5C2D6B2D87
:104920007A2D0E94FE1E50C08DEC93E00E94A827B5
:10493000049751F4CE012F2D3E2D4D2D5C2D6B2D66
:104940007A2D0E94541D40C08DEC93E00E94A32755
:10495000819748F0CE0165E671E040E050E02BE041
:1049600030E08B0123C08DEC93E00E9492278901F7
:10497000D42EC52EB62EA72E982E892E8DEC93E020
:104980000E94A3277C018AE893E02D2D3C2D4B2D1E
:104990005A2D692D782D0E941F1CCE0165E671E00D
:1049A00040E050E02BE030E00AE813E00F2EF0E0AA
:1049B000CF2EF0E0DF2EF0E0EF2EF0E0FF2EF02D16
:1049C000AA24A3940E948F1C8DEC93E00E9481275F
:1049D0000AC083E595E00E94A430181619061CF45D
:1049E000CE010E947821DF91CF911F910F91FF900E
:1049F000EF90DF90CF90BF90AF909F908F900895F1
:104A00000F931F93182F0E943E2E6AE070E080E003
:104A100090E00E94A02D812F0E943E2E182F092F7A
:104A200064E170E080E090E00E94A02D812F902F43
:104A30001F910F9108958F929F92AF92BF92CF9244
:104A4000DF92EF92FF920F931F93CF93DF934C016E
:104A5000EB01188283E595E00E94A4301816190630
:104A60001CF4C4010E94782185E190E00E94002599
:104A7000BC0188E092E040E00E94BB178C018830C6
:104A8000910529F483E08883BB24B39421C097FD6A
:104A90001CC00097E1F485E190E00E940025AA2760
:104AA00097FDA095BA2FBC01CD010E94E6336B01A2
:104AB0007C01C40160E771E040E050E020E030E0BC
:104AC00000E010E0AA240E948F1CBB2435C0BB2448
:104AD000C80108970297A8F488E092E063E0A80173
:104AE0000E94C016AA2797FDA095BA2FBC01CD0140
:104AF0000E94E63320E030E040E251E40E944B3374
:104B00000EC088E092E063E0A8010E94C016AA27C8
:104B100097FDA095BA2FBC01CD010E94E6336B0131
:104B20007C01C40160E771E040E050E0980100E0E2
:104B300010E0AA240E948F1C83E595E00E94A43017
:104B4000181619061CF4C4010E9478218B2DDF91E0
:104B5000CF911F910F91FF90EF90DF90CF90BF907A
:104B6000AF909F908F9008958F929F92AF92BF9237
:104B7000CF92DF92EF92FF920F931F93CF93DF9329
:104B80004C01EB01188283E595E00E94A4301816D1
:104B900019061CF4C4010E94782184E190E00E946F
:104BA0000025BC0188E092E040E00E94BB178C0128
:104BB0008830910529F482E08883BB24B39421C016
:104BC00097FD1CC00097E1F484E190E00E9400256D
:104BD000AA2797FDA095BA2FBC01CD010E94E6330C
:104BE0006B017C01C40162E771E040E050E020E02D
:104BF00030E000E010E0AA240E948F1CBB2435C0E6
:104C0000BB24C80108970297A8F488E092E062E00C
:104C1000A8010E94C016AA2797FDA095BA2FBC0133
:104C2000CD010E94E63320E030E040E251E40E94F2
:104C30004B330EC088E092E062E0A8010E94C016EB
:104C4000AA2797FDA095BA2FBC01CD010E94E6339B
:104C50006B017C01C40162E771E040E050E0980123
:104C600000E010E0AA240E948F1C83E595E00E94DA
:104C7000A430181619061CF4C4010E9478218B2D4B
:104C8000DF91CF911F910F91FF90EF90DF90CF9028
:104C9000BF90AF909F908F900895AF92BF92CF92A8
:104CA000DF92EF92FF920F931F93CF93DF93EC016C
:104CB0007B01FB01108283E595E00E94A430181669
:104CC00019061CF4CE010E94782181E190E00E9437
:104CD0000025BC0188E092E040E00E94BB178C01F7
:104CE0008B30910539F48DEC93E061E070E00E9427
:104CF000AC2B2EC08DEC93E00E947B2B083011056D
:104D000031F481E0F7018083BB24B39422C017FD06
:104D10001DC001151105E1F481E190E00E9400251C
:104D2000AA2797FDA095BA2FBC01CD010E94E633BA
:104D30006B017C01CE0164E771E040E050E020E0CF
:104D400030E000E010E0AA240E948F1CBB243CC08D
:104D5000BB24C80108970297A8F488E092E061E0BC
:104D6000A8010E94C016AA2797FDA095BA2FBC01E2
:104D7000CD010E94E63320E030E040E251E40E94A1
:104D80004B3315C00B30110521F4CE010E9448248D
:104D90001BC088E092E061E0A8010E94C016AA272B
:104DA00097FDA095BA2FBC01CD010E94E6336B019F
:104DB0007C01CE0164E771E040E050E0980100E042
:104DC00010E0AA240E948F1C83E595E00E94A43085
:104DD000181619061CF4CE010E9478218B2DDF9144
:104DE000CF911F910F91FF90EF90DF90CF90BF90E8
:104DF000AF9008950F931F93DF93CF930F92CDB78A
:104E0000DEB78C0119820E949C23C8010E94622394
:104E1000C8010E94D122C801BE016F5F7F4F0E946E
:104E20004D26882321F0C80169810E945522C801BE
:104E3000BE016F5F7F4F0E94B425882321F0C80117
:104E400069810E945522C801BE016F5F7F4F0E9499
:104E50001B25882321F0C80169810E9455220F90EB
:104E6000CF91DF911F910F910895FC018FEF9FEF7C
:104E700091838083938382831092D6031092D70309
:104E80001092D8031092D9031092DA031092DB0328
:104E90001092DC031092DD038AE090E09783868312
:104EA0008CE390E090937D0180937C0181E080878A
:104EB0008EE591E0958384830895FC017583648376
:104EC0000895FC0177836683089520E08091D603DE
:104ED0009091D703892B9091D803892B9091D90376
:104EE000892B9091DA03892B9091DB03892B909188
:104EF000DC03892B9091DD03892B09F021E0822FBF
:104F000008951092D6031092D7031092D8031092EE
:104F1000D9031092DA031092DB031092DC03109293
:104F2000DD0308952091D6033091D7034091D80333
:104F30005091D9036091DA037091DB038091DC0317
:104F40009091DD0308958091DE039091DF03089531
:104F50008091E2039091E30308952F923F924F9244
:104F60005F926F927F928F929F92AF92BF92CF92F9
:104F7000DF92EF92FF920F931F93DF93CF93CDB702
:104F8000DEB762970FB6F894DEBF0FBECDBF3C010F
:104F90008091E4039091E5036FE170E00E94833615
:104FA0004B017B0100E010E020917C0130917D01FC
:104FB000442737FD4095542FC801B7010E9464363D
:104FC0000E94E4332AE037ED43E25CE30E949A3426
:104FD0000E94B833A8019701220F331F441F551FA9
:104FE0002E0D3F1D401F511F59016A01A61AB70A15
:104FF000C80AD90AAD82BE82CF82D8865B016C0115
:10500000A20EB31EC41ED51EA982BA82CB82DC8238
:1050100021E030E03A872987AA24BB2465011701E3
:105020002801261A370A480A590AA8019701260FAB
:10503000371F481F591F2F87388B498B5A8B7AC0CF
:10504000E985FA85EE0FFF1FEC51FC4F80819181BD
:105050009C0140E050E0221633064406550658F500
:105060008F859889A989BA89281739074A075B0764
:1050700010F5E985FA85EE0FFF1FEA51FC4F01900C
:10508000F081E02D7F0100E010E0EB86FC860D87CB
:105090001E878D819E81AF81B8858E159F05A007E3
:1050A000B10748F489819A81AB81BC81E816F90681
:1050B0000A071B0778F1ED80FE800F811885E21644
:1050C000F3060407150758F589819A81AB81BC81E5
:1050D000281739074A075B0710F5E985FA85EE0FAF
:1050E000FF1FEA51FC4F80819181A0E0B0E02816BB
:1050F00039064A065B0698F4EF84F88809891A890C
:105100008E159F05A007B10750F40894A11CB11C8F
:10511000C11CD11CAA0CBB1CCC1CDD1C05C07A8692
:105120006986AA24BB24650109851A850E5F1F4F75
:105130001A87098729853A852615370508F480CF0F
:10514000D694C794B794A79437E06316710410F10E
:10515000A6019501A092D6033093D7034093D803BC
:105160005093D9031092DA031092DB031092DC0300
:105170001092DD03769467947092DF036092DE03F1
:105180009092E1038092E00381E090E09093E3034A
:105190008093E20380E0A114B104C104D10409F0BA
:1051A00081E062960FB6F894DEBF0FBECDBFCF91FF
:1051B000DF911F910F91FF90EF90DF90CF90BF9004
:1051C000AF909F908F907F906F905F904F903F90A7
:1051D0002F9008952F923F924F925F926F927F92FD
:1051E0008F929F92AF92BF92CF92DF92EF92FF92F7
:1051F0000F931F93DF93CF93CDB7DEB762970FB6B0
:10520000F894DEBF0FBECDBF3C018091E4039091C6
:10521000E5036AE070E00E9483364B017B0100E009
:1052200010E020917C0130917D01442737FD4095AD
:10523000542FC801B7010E9464360E94E4332AE06B
:1052400037ED43E25CE30E949A340E94B833A80130
:105250009701220F331F441F551F59016A01A61AD7
:10526000B70AC80AD90AAD82BE82CF82D8865B014E
:105270006C01A20EB31EC41ED51EA982BA82CB82B7
:10528000DC82AA24BB24650121E030E03A8729872B
:1052900017012801261A370A480A590AA801970156
:1052A000260F371F481F591F2F87388B498B5A8B62
:1052B0007AC0E985FA85EE0FFF1FEC51FC4F808123
:1052C00091819C0140E050E02216330644065506C9
:1052D00058F58F859889A989BA89281739074A0707
:1052E0005B0710F5E985FA85EE0FFF1FEA51FC4FC9
:1052F0000190F081E02D7F0100E010E0EB86FC865C
:105300000D871E878D819E81AF81B8858E159F0583
:10531000A007B10748F489819A81AB81BC81E81666
:10532000F9060A071B0778F1ED80FE800F811885CA
:10533000E216F3060407150758F589819A81AB81B7
:10534000BC81281739074A075B0710F5E985FA85FC
:10535000EE0FFF1FEA51FC4F80819181A0E0B0E089
:10536000281639064A065B0698F4EF84F8880989FE
:105370001A898E159F05A007B10750F40894A11C47
:10538000B11CC11CD11CAA0CBB1CCC1CDD1C05C053
:105390007A866986AA24BB24650109851A850E5F71
:1053A0001F4F1A87098729853A852615370508F47E
:1053B00080CFD694C794B794A79437E0631671044E
:1053C00010F1A6019501A092D6033093D703409324
:1053D000D8035093D9031092DA031092DB03109292
:1053E000DC031092DD03769467947092DF03609281
:1053F000DE039092E1038092E00382E090E09093DC
:10540000E3038093E20380E0A114B104C104D1045A
:1054100009F081E062960FB6F894DEBF0FBECDBFF3
:10542000CF91DF911F910F91FF90EF90DF90CF9080
:10543000BF90AF909F908F907F906F905F904F90B4
:105440003F902F900895BF92CF92DF92EF92FF92FC
:105450000F931F93CF93DF936C0120E0A0E0B0E0A7
:1054600000E010E0FF24EE24BB24C1E0D0E05AC0ED
:10547000FE01EE0FFF1FEC51FC4F0190F081E02D7B
:1054800085E0E531F80760F086E0E43AF80760F47B
:105490003A2F4B2F502F612F7F2D8E2D9B2D2DC0FE
:1054A00081E0ED32F807A0F1EC5BF24088F5E22FE5
:1054B000EF5F31E0E21708F030E03A0F41E03A17D1
:1054C00008F040E04B0F51E04B1708F050E0500F50
:1054D00061E0501708F060E0610F71E0611708F0BB
:1054E00070E07F0D81E07F1508F080E08E0D91E087
:1054F0008E1508F090E02E2F9B0D01E00E945F01B9
:10550000A32FB42F052F162FF72EE82EB92E09C082
:10551000E60120E0A0E0B0E000E010E0FF24EE248F
:10552000BB242296CC15DD0508F4A2CF3A2F4B2FD1
:10553000502F612F7F2D8E2D9B2D01E00E94E000CA
:10554000FC0181E5C816D10498F12093D60330936D
:10555000D7034093D8035093D9036093DA03709331
:10556000DB03E093DC03F093DD03C601969587959A
:105570009093DF038093DE0384EF91E09093E10347
:105580008093E00384E6C816D10418F483E090E029
:1055900006C088E6C816D10439F484E090E0909300
:1055A000E3038093E20304C01092E3031092E2034A
:1055B00090E0822F832B842B852B862B872B8E2BA1
:1055C0008F2B09F091E0892FDF91CF911F910F91DF
:1055D000FF90EF90DF90CF90BF900895CF92DF9231
:1055E000EF92FF920F931F93CF93DF930E947A2D38
:1055F0006B017C018091B6049091B7048601081B71
:10560000190B1093BD040093BC0423E10938120761
:10561000B0F18091E4039091E5038958934178F1CA
:105620008091B4049091B50401969093B504809351
:10563000B4040197F9F48091BA049091BB048531C8
:105640009105A0F08135910518F00E94232A0EC023
:10565000EC012197D093BB04C093BA04CE010E9401
:10566000AD27882319F4CE010E94EA281092B504D0
:105670001092B4041092BB041092BA040CC08BE0D8
:10568000093B180740F01092BB041092BA04109224
:10569000B5041092B4048091BA049091BB0488368A
:1056A000910540F01092BB041092BA041092B50418
:1056B0001092B4048091BA049091BB04FC01EE0FE7
:1056C000FF1FEC51FC4F1183008301969093BB04A4
:1056D0008093BA04C092B604D092B704E092B804A2
:1056E000F092B904DF91CF911F910F91FF90EF904D
:1056F000DF90CF9008950F931F938C01FC01808160
:105700000E94B72C8FEF9FEFF801918380831F9148
:105710000F910895FC01808191812FEF8F3F9207B7
:10572000D1F01092D6031092D7031092D8031092A2
:10573000D9031092DA031092DB031092DC0310926B
:10574000DD031092DF031092DE036EEE7AE241E099
:1057500050E00E94942C0895FC018081918186176D
:10576000970729F071836083CF010E948A2B0895E7
:10577000AF92BF92DF92EF92FF920F931F93CF935E
:10578000DF93EC017B015A01088119818A819B8199
:105790008F5F9F4F89F13FEF0F3F130711F4DD2417
:1057A00005C0CE010E947B2BDD24D3948A8161E069
:1057B0000E94E62E8C819D819C01E29EC001E39EA9
:1057C000900DF29E900D11240E94F92D8A8160E0C7
:1057D0000E94E62E8C819D819C01A29EC001A39E09
:1057E000900DB29E900D11240E94F92DDD2021F024
:1057F000CE01B8010E94AC2BDF91CF911F910F9188
:10580000FF90EF90DF90BF90AF900895FC018085EE
:10581000813041F4CF0161E070E04FE150E00E943F
:10582000B82B0895823039F4CF0161E070E04AE08E
:1058300050E00E94B82B0895FC018085813041F42E
:10584000CF0163E070E041E050E00E94B82B089582
:10585000823039F4CF0162E070E041E050E00E9414
:10586000B82B0895FC018085813041F4CF0161E0BF
:1058700070E043E050E00E94B82B0895823039F484
:10588000CF0161E070E042E050E00E94B82B089543
:10589000CF92DF92EF92FF920F931F93CF93DF93FC
:1058A0008C016B01EE24FF2416C0803319F0813384
:1058B00041F404C0C8010E94322C03C0C8010E94F8
:1058C0001C2C21968881882381F7C8010E94062C10
:1058D0000894E11CF11CF80186819781E816F9060D
:1058E00014F4E601EFCFDF91CF911F910F91FF905C
:1058F000EF90DF90CF9008950F931F938C01FC01E0
:10590000828160E00E94C02E8FEF9FEFF8019383A9
:1059100082831F910F910895FC01862F6283738308
:1059200061E00E94C02E0895823000F5E82FF0E07B
:10593000EE0FFF1FE254FB4F71836083882319F041
:105940008130A1F408C0809169008C7F842B809302
:105950006900E89A089580916900440F551F440F2B
:10596000551F837F842B80936900E99A08958230C4
:1059700080F4882319F0813021F402C0E89801C036
:10598000E998E82FF0E0EE0FFF1FE254FB4F118281
:10599000108208951F920F920FB60F9211242F9329
:1059A0003F934F935F936F937F938F939F93AF93A7
:1059B000BF93EF93FF938091BE049091BF04892B16
:1059C00029F0E091BE04F091BF040995FF91EF9199
:1059D000BF91AF919F918F917F916F915F914F9107
:1059E0003F912F910F900FBE0F901F9018951F920F
:1059F0000F920FB60F9211242F933F934F935F9303
:105A00006F937F938F939F93AF93BF93EF93FF9386
:105A10008091C0049091C104892B29F0E091C004C9
:105A2000F091C1040995FF91EF91BF91AF919F91C2
:105A30008F917F916F915F914F913F912F910F9037
:105A40000FBE0F901F9018951F920F920FB60F92D6
:105A500011242F933F938F939F93AF93BF93809184
:105A6000C6049091C704A091C804B091C9043091B4
:105A7000CA040196A11DB11D232F2D5F2D3720F0E3
:105A80002D570196A11DB11D2093CA048093C60411
:105A90009093C704A093C804B093C9048091C20432
:105AA0009091C304A091C404B091C5040196A11DB6
:105AB000B11D8093C2049093C304A093C404B09317
:105AC000C504BF91AF919F918F913F912F910F90FE
:105AD0000FBE0F901F9018958FB7F8942091C604B1
