:100000000C94B6000C9427300C9454300C94DE0001
:100010000C94DE000C94DE000C94DE000C94DE00E8
:100020000C94DE000C94DE000C94DE000C94DE00D8
:100030000C94DE000C94DE000C94DE000C94DE00C8
:100040000C9481300C94DE000C94EB320C9432331F
:100050000C94DE000C94DE000C94DE000C94DE00A8
:100060000C9458190C94DE0007634236B79BD8A74E
:100070001A39685618AEBAAB558C1D3CB7CC5763CD
:10008000BD6DEDFD753EF6177231BF000000803F7B
:1000900008000000BE922449123EABAAAA2ABECD97
:1000A000CCCC4C3E00000080BEABAAAAAA3E000009
:1000B0000000BF000000803F000000000008417801
:1000C000D3BB4387D1133D190E3CC3BD4282AD2B38
:1000D0003E68EC8276BED98FE1A93E4C80EFFFBE30
:1000E00001C4FF7F3F000000000074727565006668
:1000F000616C7365006E756C6C0025750025752E3E
:10010000002D0025640000000000240027002A00C4
:1001100000000000250028002B0000000000230044
:100120002600290004040404040404040202020258
:1001300002020303030303030102040810204080AA
:10014000010204081020010204081020000000072A
:10015000000201000003040600000000000000008F
:10016000C20A6D1673183C1CBD1CA93411241FBE95
:10017000CFEFD8E0DEBFCDBF11E0A0E0B1E0E6EE0A
:10018000F4E702C005900D92AE3FB107D9F716E033
:10019000AEEFB1E001C01D92A33AB107E1F711E063
:1001A000CCE6D1E004C02297FE010E942B3AC03673
:1001B000D107C9F70E94F9340C94713A0C940000ED
:1001C000EF92FF920F93DF93CF93CDB7DEB7609797
:1001D0000FB6F894DEBF0FBECDBFA82F002309F4E1
:1001E00061C07E010894E11CF11C88E0F7011192C6
:1001F0008A95E9F729833A834B835C836D837E83F9
:10020000AF83988780E2801BE82FFF27E7FDF095FA
:100210004D815E816F817885181684F01D861E865B
:100220001F86188A882799278E1B9F0B04C07695F6
:100230006795579547958A95D2F728C0202F332781
:1002400027FD3095DB01CA01022E04C0B695A795A3
:10025000979587950A94D2F78D879E87AF87B88B3D
:1002600004C0440F551F661F771FEA95D2F7898196
:100270009A81AB81BC8104C0B695A7959795879567
:100280002A95D2F7482B592B6A2B7B2B49875A8703
:100290006B877C8729853A854B855C856D857E8556
:1002A000AF8598898A2F60960FB6F894DEBF0FBE8F
:1002B000CDBFCF91DF910F91FF90EF900895EF9216
:1002C000FF920F93DF93CF93CDB7DEB760970FB652
:1002D000F894DEBF0FBECDBFA82F002309F461C084
:1002E0007E010894E11CF11C88E0F70111928A95C7
:1002F000E9F729833A834B835C836D837E83AF83E5
:10030000988780E2801BE82FFF27E7FDF095498161
:100310005A816B817C81181684F019861A861B8697
:100320001C86882799278E1B9F0B04C0440F551FDE
:10033000661F771F8A95D2F728C0202F332727FD05
:100340003095DB01CA01022E04C0880F991FAA1F35
:10035000BB1F0A94D2F789879A87AB87BC8704C0F2
:100360007695679557954795EA95D2F78D819E8149
:10037000AF81B88504C0880F991FAA1FBB1F2A959B
:10038000D2F7482B592B6A2B7B2B4D875E876F87C3
:10039000788B29853A854B855C856D857E85AF8513
:1003A00098898A2F60960FB6F894DEBF0FBECDBF36
:1003B000CF91DF910F91FF90EF900895CF93DF934E
:1003C000BC018230910510F462E070E0A0919906C2
:1003D000B0919A06ED01E0E0F0E040E050E021C08D
:1003E000888199818617970769F48A819B81309764
:1003F00019F09383828304C090939A0680939906A0
:10040000FE0134C06817790738F44115510519F019
:100410008417950708F4AC01FE018A819B819C0139
:10042000E9012097E9F641155105A9F1CA01861B9A
:10043000970B049708F4BA01E0E0F0E02AC08D9130
:100440009C91119784179507F9F46417750781F447
:1004500012968D919C911397309719F09383828314
:1004600004C090939A0680939906FD0132964CC081
:10047000CA01861B970BFD01E80FF91F6193719369
:1004800002978D939C9340C0FD01828193819C01D2
:10049000D9011097A1F68091970690919806892B23
:1004A00041F480918A0190918B01909398068093FA
:1004B000970640918C0150918D014115510541F4F1
:1004C0004DB75EB78091880190918901481B590B07
:1004D0002091970630919806CA01821B930B8617CC
:1004E000970780F0AB014E5F5F4F8417950750F080
:1004F000420F531F5093980640939706F90161935A
:10050000719302C0E0E0F0E0CF01DF91CF91089558
:10051000CF93DF93009709F450C0EC0122971B8220
:100520001A82A0919906B0919A06109709F140E0BD
:1005300050E0AC17BD0708F1BB83AA83FE012191EF
:100540003191E20FF31FAE17BF0779F48D919C91A3
:100550001197280F391F2E5F3F4F3983288312963A
:100560008D919C9113979B838A834115510571F45A
:10057000D0939A06C093990620C012968D919C91B3
:100580001397AD01009711F0DC01D3CFFA01D383AB
:10059000C28321913191E20FF31FCE17DF0769F477
:1005A00088819981280F391F2E5F3F4FFA013183CF
:1005B00020838A819B8193838283DF91CF910895E9
:1005C0002F923F925F926F927F928F929F92AF9203
:1005D000BF92CF92DF92EF92FF920F931F93CF9330
:1005E000DF938C011B01EA016115710519F0FB0114
:1005F00091838083209749F0CE010297839728F05A
:1006000020E030E040E050E0F6C0F801A1908F011A
:100610008A2D90E00E942F3A892BB9F7FDE2AF16A0
:1006200031F4F801A1908F015524539407C0FBE2E7
:10063000AF1619F4F801A1908F015524209719F0F5
:10064000C031D105C1F4F0E3AF1679F4F80180812F
:10065000883711F0883549F4F801A1800E5F1F4FEB
:10066000F2E05F2AC0E1D0E006C0209721F480E3E9
:10067000A816E9F427C0C830D10531F1C930D10539
:1006800024F4C230D10531F50CC0CA30D10589F04F
:10069000C031D105F9F4C12CD12CE12CB8E0FB2EEE
:1006A00028C0C12CD12CE12CA0E4FA2E22C0CAE033
:1006B000D0E0FCECCF2EFCECDF2EFCECEF2EFCE0CF
:1006C000FF2E17C0C8E0D0E0C12CD12CE12CE0E116
:1006D000FE2E0FC09E01442737FD4095542F60E049
:1006E00070E080E090E80E94073AC901DA016C01ED
:1006F0007D0120E030E040E050E060E03E018824F1
:1007000077FC8094982C70EDB72EBA0CE9E0EB15CD
:1007100070F48A2D81548A3118F499ECB92E06C0F0
:100720008A2D81568A3150F589EAB82EBA0C8B2D64
:1007300090E08C179D0714F56F3FE1F0C216D306C9
:10074000E406F506B0F0CA01B901A40193010E94C4
:10075000C1399B01AC012B0D311D411D511D2130B3
:10076000F0E03F07F0E04F07F0E85F0710F461E0CA
:1007700001C06FEFF801A1908F01C5CF21143104A2
:1007800081F0662331F001501040F10111830083A4
:1007900008C051FE1AC002501040F10111830083BD
:1007A00014C067FF12C050FC05C02FEF3FEF4FEFA2
:1007B0005FE704C020E030E040E050E882E290E0F3
:1007C0009093A2068093A10616C050FE08C05095D3
:1007D0004095309521953F4F4F4F5F4F0CC057FFCD
:1007E0000AC082E290E09093A2068093A1062FEFC8
:1007F0003FEF4FEF5FE7B901CA01DF91CF911F9142
:100800000F91FF90EF90DF90CF90BF90AF909F90AF
:100810008F907F906F905F903F902F900895FC0194
:1008200088279927E89421912032E9F3293010F0A4
:100830002E30C8F32B3241F02D3239F4689404C0C5
:100840000E949604820F911D219120532A30C0F3FB
:100850001EF4909581959F4F08950F931F93CF930A
:10086000DF93182F092FE82FF92FDF010D900020BB
:10087000E9F7CD018E1B9F0B0E94DE01EC01009772
:1008800021F0612F702F0E947204CE01DF91CF9171
:100890001F910F910895FB01DC018D9181341CF0B3
:1008A0008B350CF4805E619161341CF06B350CF477
:1008B000605E861B611189F3990B0895FB01DC01D1
:1008C0000D900020E9F7119701900D920020E1F7BB
:1008D0000895FB01DC018D91019080190110D9F37D
:1008E000990B0895FB01DC0101900D920020E1F7C6
:1008F0000895FB01DC014150504030F08D91019092
:10090000801919F40020B9F7881B990B0895FB0191
:10091000DC014150504048F001900D920020C9F791
:1009200001C01D9241505040E0F708957AE0979F32
:10093000902D879F802D910D11240895FC018381B6
:1009400087FF24C080919B0690919C068E179F077D
:1009500021F410929C0610929B0680919D06909126
:100960009E068E179F0721F410929E0610929D06F8
:1009700080919F069091A0068E179F0721F41092F8
:10098000A00610929F06CF010E94880280E090E0AE
:1009900008950F931F93CF93DF938C01EB01009782
:1009A00031F46115710519F420E030E038C081E0C0
:1009B00090E06EE070E00E94EC07FC019C01009763
:1009C00071F180E88383209771F0D387C28781E833
:1009D000838380919B0690919C06892B21F4F09350
:1009E0009C06E0939B0601151105C9F0118700874D
:1009F00083818260838380919D0690919E06892BDE
:100A000071F4F0939E06E0939D0680919F0690916D
:100A1000A006892B21F4F093A006E0939F06C9015C
:100A2000DF91CF911F910F910895CF93DF93EC0148
:100A30004B8140FF1AC046FF0AC04F7B4B838E811B
:100A40009F8101969F838E838A81282F2BC042FF2E
:100A500013C0E881F9818081282F332727FD309545
:100A60002115310529F440624B832FEF3FEF1BC066
:100A70003196F983E88311C0EA85FB85CE0109959B
:100A80009C0197FF0AC09B812F5F3F4F11F080E2CE
:100A900001C080E1892B8B83E8CF8E819F810196F5
:100AA0009F838E8330E0C901DF91CF910895A0E04C
:100AB000B0E0EDE5F5E00C94483A0F8118859E0111
:100AC000255F3F4FF801838188608383C801698572
:100AD0007A85A9010E940F06F8012381277F2383CD
:100AE0002096E4E00C94643A0F931F93CF93DF9326
:100AF0008C01EB018B8181FF1BC082FF0DC02E8119
:100B00003F818C819D812817390764F4E881F98140
:100B10000193F983E88306C0E885F985802F09955C
:100B2000892B31F48E819F8101969F838E8302C031
:100B30000FEF1FEFC801DF91CF911F910F91089523
:100B4000A0E0B0E0E6EAF5E00C94403AFC014B018D
:100B50005A016901D90113968C9180FF1AC07F0157
:100B6000C0E0D0E010C0C6010E941505BFEF8F3F66
:100B70009B0789F0F70181937F010F5F1F4F0815D5
:100B8000190588F32196CA15DB0528F400E010E06A
:100B9000F6CFC0E0D0E0CE01CDB7DEB7ECE00C94EC
:100BA0005C3AAEE0B0E0E7EDF5E00C94483A0D8930
:100BB0001E8986E08C831A8309838FEF9FE79E83CB
:100BC0008D839E01275E3F4FCE0101966F89788D00
:100BD000A9010E940F062F813885020F131FF8010B
:100BE00010822E96E4E00C94643A9C01FB01838110
:100BF00080FF11C086FD0FC09FEF2F3F390759F0CE
:100C0000228380648F7D8383868197810197978378
:100C1000868330E002C02FEF3FEFC9010895ABE0BB
:100C2000B0E0E5E1F6E00C943A3A3C012B015A01C0
:100C3000FC0117821682838181FD03C06FEF7FEF75
:100C4000C6C19AE0892E1E010894211C311CF301B3
:100C50002381F20123FD859123FF81912F018823B8
:100C600009F4B2C1853239F423FD859123FF8191C6
:100C70002F01853229F490E0B3010E947405E7CF7B
:100C8000982FFF24EE249924FFE1FF15D0F09B322A
:100C900069F09C3228F4903259F0933291F40EC0EE
:100CA0009D3249F0903369F441E024C052E0F52AC6
:100CB00084E0F82A28C098E0F92A25C0E0E1FE2A5D
:100CC00022C0F7FC29C0892F80538A3070F4F6FEC9
:100CD00005C0989C902C1124980E15C0E89CE02C1F
:100CE0001124E80EF0E2FF2A0EC09E3229F4F6FC31
:100CF0006BC140E4F42A07C09C3619F450E8F52A89
:100D000002C0983649F4F20123FD959123FF919199
:100D10002F01992309F0B8CF892F8554833018F01B
:100D20008052833038F444E050E0A40EB51E5FE3F7
:100D300059830FC0933631F0933779F0933509F02A
:100D400056C020C0F5018081898342E050E0A40EA6
:100D5000B51E610101E010E012C0F501C080D18034
:100D6000F6FC03C06FEF7FEF02C0692D70E042E038
:100D700050E0A40EB51EC6010E941A088C015FE760
:100D8000F52214C0F501C080D180F6FC03C06FEFDE
:100D90007FEF02C0692D70E042E050E0A40EB51E66
:100DA000C6010E9408088C0150E8F52AF3FE07C02E
:100DB0001AC080E290E0B3010E947405EA948E2D7F
:100DC00090E008171907A8F30EC0F601F7FC85910B
:100DD000F7FE81916F0190E0B3010E947405E1106C
:100DE000EA94015010400115110579F7EAC09436D4
:100DF00011F0993669F5F7FE08C0F50120813181BF
:100E00004281538184E090E00AC0F50180819181A4
:100E10009C01442737FD4095542F82E090E0A80EB6
:100E2000B91E9FE6F92257FF09C0509540953095AD
:100E300021953F4F4F4F5F4FE0E8FE2ACA01B901AD
:100E4000A1012AE030E00E942508D82ED21840C027
:100E5000953729F41F2D1F7E2AE030E01DC01F2D7D
:100E6000197F9F3661F0903720F4983509F0ACC0B7
:100E70000FC0903739F0983709F0A6C004C028E0B9
:100E800030E00AC0106114FD146020E130E004C0BD
:100E900014FD166020E132E017FF08C0F501608103
:100EA00071818281938144E050E008C0F501808126
:100EB0009181BC0180E090E042E050E0A40EB51EBC
:100EC000A1010E942508D82ED2188FE7F82EF12212
:100ED000F6FE0BC05EEFF522D91438F4F4FE07C01D
:100EE000F2FC05C08FEEF82202C01D2D01C0192DA5
:100EF000F4FE0DC0FE01ED0DF11D8081803319F46B
:100F000099EEF92208C01F5FF2FE05C003C08F2DC5
:100F1000867809F01F5F0F2DF3FC14C0F0FE0FC0A0
:100F20001E1510F09D2C0BC09D2C9E0C911A1E2D91
:100F300006C080E290E0B3010E9474051F5F1E1599
:100F4000C0F304C01E1510F4E11A01C0EE2404FF22
:100F50000FC080E390E0B3010E94740502FF1DC042
:100F600001FD03C088E790E00EC088E590E00BC06B
:100F7000802F867891F001FF02C08BE201C080E2F1
:100F8000F7FC8DE290E0B3010E94740506C080E397
:100F900090E0B3010E9474059A94D914C0F3DA94D6
:100FA000F101ED0DF11D808190E0B3010E94740507
:100FB000DD20A9F706C080E290E0B3010E9474052D
:100FC000EA94EE20C1F743CEF30166817781CB012D
:100FD0002B96E2E10C94563A0F931F93CF93DF9335
:100FE000689F8001699F100D789F100D1124C80122
:100FF0000E94DE01EC01009729F060E070E0A8019A
:101000000E941308CE01DF91CF911F910F91089597
:10101000FC010590615070400110D8F780959095C3
:101020008E0F9F1F0895DC0101C06D934150504009
:10103000E0F70895FC016150704001900110D8F76D
:10104000809590958E0F9F1F0895FA01AA2728304A
:1010500051F1203181F1E8946F936E7F6E5F7F4F85
:101060008F4F9F4FAF4FB1E03ED0B4E03CD0670F01
:10107000781F891F9A1FA11D680F791F8A1F911D54
:10108000A11D6A0F711D811D911DA11D20D009F4A4
:1010900068943F912AE0269F11243019305D3193E6
:1010A000DEF6CF010895462F4770405D4193B3E0CF
:1010B0000FD0C9F7F6CF462F4F70405D4A3318F076
:1010C000495D31FD4052419302D0A9F7EACFB4E027
:1010D000A6959795879577956795BA95C9F70097DF
:1010E0006105710508959B01AC010A2E0694579580
:1010F000479537952795BA95C9F7620F731F841FD7
:10110000951FA01D08950F931F930FEF12E0C801C4
:101110000E94D529C8010E94CA211F910F910895EC
:101120000F931F9308E715E0C80140E855E260E01F
:1011300070E00E947B33C8010E94323587E061E095
:101140000E941D3288E061E00E941D3289E061E06A
:101150000E941D3287E061E00E94433288E061E036
:101160000E94433289E061E00E9443321F910F9157
:101170000895DC01862F90E0FC01E85CFE4FE491CD
:10118000EC938C5D9E4FFC016491E62FF0E0EE0F36
:10119000FF1FE65EFE4F8591949112969C938E936D
:1011A00011970895FC012781308541855285B90149
:1011B000CA010895FC012385348545855685B9010A
:1011C000CA0108950F931F938C01862F90E0FC01B4
:1011D000E85CFE4FE491D801EC938C5D9E4FFC01DE
:1011E0006491E62FF0E0EE0FFF1FE65EFE4F859163
:1011F000949112969C938E9311970E94C930D801B6
:1012000013966D937D938D939C93169780E090E059
:10121000A7ECB2ECF80187839087A187B287838718
:101220009487A587B6871F910F9108954F925F927B
:101230007F928F929F92AF92BF92CF92DF92EF9266
:10124000FF920F931F93DF93CF93CDB7DEB7A9978C
:101250000FB6F894DEBF0FBECDBF5C01FC017080FD
:10126000018112810E94C9309B01AC014E0108949A
:10127000811C911C2401CE018A96F20111922F014A
:10128000E817F907D1F7F50183819481A581B6812B
:1012900069017A01C81AD90AEA0AFB0AD701C6010C
:1012A000805D9740A040B04018F427E030E02EC1A8
:1012B000F5012383348345835683F894F8018181B3
:1012C000E72CE0948E2181837894FF24C72CDD24C1
:1012D00007C0F394FEE7FF1619F421E030E016C1D1
:1012E00082E090E00E945631F801808190E08C21EC
:1012F0009D21892B71F3F894F80182818E218283DC
:1013000081818729818378948CE494E00E9456310E
:10131000F894F80181818E2181837894FF2407C09D
:10132000F394FAE1FF1619F422E030E0EFC082E016
:1013300090E00E945631F801808190E08C219D213F
:10134000892B71F3FF2407C0F394F3E3FF1619F41C
:1013500023E030E0DBC082E090E00E945631F801EB
:10136000808190E08C219D21892B71F7FF2407C09B
:10137000F394F4E2FF1619F424E030E0C7C082E0F1
:1013800090E00E945631F801808190E08C219D21EF
:10139000892B71F3FF2406C0F3E3FF1619F425E04F
:1013A00030E0B4C0F39482E090E00E945631F8013E
:1013B000808190E08C219D21892B71F7F401F192BD
:1013C0004F01E415F50591F6EE24FF2420E030E00E
:1013D000DE01119660E170E041E050E02F5F3F4F89
:1013E000FD01E20FF31F80818C3058F0CB01821B8E
:1013F000930B6A0102C0CC0CDD1C8A95E2F7EC2845
:10140000FD282031310551F7FE01729600E010E011
:101410002FE030E041E050E080818C3048F0CA019C
:10142000022E02C0880F991F0A94E2F7082B192B8D
:101430002150304031966FEF2F3F360769F7FE019C
:10144000B296DD2427E030E041E050E080818C302E
:1014500040F0CA01022E02C0880F991F0A94E2F7D9
:10146000D82A215030403196E415F50579F7B701B7
:101470007F77882777FD8095982F0E94433720E05B
:1014800030E040E251E40E94A836F501678370879E
:101490008187928717FF0DC01F77B801882777FDD6
:1014A0008095982F0E94433720E030E040E251ECD5
:1014B0000BC0B801882777FD8095982F0E9443378D
:1014C00020E030E040E251E40E94A836F501638755
:1014D0007487858796874D2D50E02F2D332727FD64
:1014E0003A958E2D90E0820F911D800F911D212F36
:1014F000332727FD3A95820F911D907048175907A1
:1015000019F026E030E002C020E030E0C901A996E1
:101510000FB6F894DEBF0FBECDBFCF91DF911F9104
:101520000F91FF90EF90DF90CF90BF90AF909F9082
:101530008F907F905F904F900895449A459AE9EB81
:10154000F0E080818E7F808380818D7F808388E43E
:101550008093B80084E48093BC000895FC018091DE
:10156000FE0190910002981B9093FF01882319F4CB
:101570001092FF01089581508093FE01E90FF11D43
:10158000828108950895EF92FF920F931F930E9416
:10159000C9307B018C0184E98093BC001BC02115FC
:1015A0003105E1F00E94C9306E197F09800B910B63
:1015B000209101023091020240E050E0621773076F
:1015C0008407950738F01092BC0084E48093BC0037
:1015D00081E009C020910102309102028091BC009B
:1015E00084FDDDCF80E01F910F91FF90EF90089573
:1015F000CF92DF92EF92FF921F93162F0E94C93075
:101600006B017C01112311F084EC01C084E880930C
:10161000BC001BC021153105E1F00E94C9306C19D6
:101620007D098E099F09209101023091020240E05C
:1016300050E0621773078407950738F01092BC00DA
:1016400084E48093BC0091E019C0209101023091A4
:1016500002028091BC0087FFDDCF8091B900887FB6
:10166000883349F49091B900987F1092BC0084E4CB
:101670008093BC0003C09091B900987F892F1F917F
:10168000FF90EF90DF90CF900895EF92FF920F932D
:101690001F93CF93DF93EC016093BB000E94C9308E
:1016A0007B018C0184E88093BC001BC021153105AF
:1016B000E1F00E94C9306E197F09800B910B2091D7
:1016C00001023091020240E050E062177307840784
:1016D000950738F01092BC0084E48093BC0011E0C0
:1016E00020C020910102309102028091BC0087FF4E
:1016F000DDCF8091B900887F883211F410E011C0ED
:101700001091B900187F8091B900887F803321F44F
:10171000CE010E94C30A05C01092BC0084E48093ED
:10172000BC00812FDF91CF911F910F91FF90EF901F
:101730000895EF92FF920F931F93CF93DF93EC01E5
:101740006093BB000E94C9307B018C0184E88093C8
:10175000BC001BC021153105E1F00E94C9306E1993
:101760007F09800B910B209101023091020240E031
:1017700050E0621773078407950738F01092BC0099
:1017800084E48093BC0011E01DC0209101023091DF
:1017900002028091BC0087FFDDCF8091B900887F75
:1017A000883179F08091B900887F803499F409C03C
:1017B0008091B900887F8834B1F4CE010E94C30AB9
:1017C00001C010E0812FDF91CF911F910F91FF9009
:1017D000EF9008951091B900187F8091B900887F2B
:1017E000803231F7EACF1092BC0084E48093BC00D1
:1017F000E9CFEF92FF920F931F930E94C9307B01B4
:101800008C0184EA8093BC001BC021153105E1F0F6
:101810000E94C9306E197F09800B910B2091010243
:101820003091020240E050E0621773078407950789
:1018300038F01092BC0084E48093BC0091E021C099
:1018400020910102309102028091BC0087FFDDCF20
:101850008091B900887F883099F08091B900887FA5
:101860008031A9F40DC09091B900987F1092BC000E
:1018700084E48093BC0005C09091B900987F01C0BA
:1018800090E0892F1F910F91FF90EF900895809124
:10189000B900887F883381F7E6CFEF92FF920F93EC
:1018A0001F93CF93DF93EC01162F042FE22E10929B
:1018B000FE011092FF01222311F4EE24E394EA9436
:1018C000E982E3941882CE010E94F90B8883882371
:1018D00009F061C0110FCE01612F0E94990B88831E
:1018E000882329F0813009F056C082E054C0CE012F
:1018F000602F0E94450B8883882329F0813009F0EE
:101900004AC083E048C0CE010E94F90B8883882337
:1019100029F0813009F03FC084E03DC01F5FCE0157
:10192000612F0E94990B8883882319F48E01FF246C
:1019300025C0813081F585E02EC08981F81651F4EB
:10194000CE0160E00E94F80A8883813019F1883561
:1019500051F021C0CE0161E00E94F80A88838130F5
:10196000C9F08035C1F48091BB00F8018283F39403
:10197000F092FE01F09200020F5F1F4FFE14E8F29A
:10198000CE010E94C30A8883882329F0813019F48C
:1019900087E001C086E0DF91CF911F910F91FF900A
:1019A000EF900895FF920F931F93CF93DF93EC0175
:1019B000162F042FF22E18820E94F90B8883882399
:1019C00041F5110FCE01612F0E94990B8883882366
:1019D00021F08130F1F482E01CC0CE01602F0E9422
:1019E000450B8883882339F4CE016F2D0E94450B67
:1019F0008883882319F0813061F40AC0CE010E94E7
:101A0000C30A8883882329F0813019F487E001C054
:101A100083E0DF91CF911F910F91FF9008950F9375
:101A20001F93CF93DF93EC01162F042F18820E948F
:101A3000F90B8883882301F5110FCE01612F0E94D5
:101A4000990B8883882321F08130B1F482E014C09F
:101A5000CE01602F0E94450B8883882321F08130BE
:101A600059F483E009C0CE010E94C30A8883882309
:101A700019F0813009F487E0DF91CF911F910F9128
:101A80000895FB010680F781E02D80E004C08F5FA0
:101A90000280F381E02D3097D1F70895FB01068095
:101AA000F781E02D04C041500280F381E02D309792
:101AB00011F04423C1F7CF010895CF93DF93EB01D9
:101AC000DA01EE81FF814115510591F0309719F44B
:101AD0005F834E830DC0CF010280F381E02D3097EC
:101AE000D1F7FC01B383A28315969C938E93149730
:101AF000DF91CF9108950F931F93CF93DF93FB0155
:101B00008A01C681D78103C00A80DB81C02D20975E
:101B100039F088819981B8010E944B04892BA1F783
:101B2000CE01DF91CF911F910F910895EF92FF9217
:101B30000F931F93CF93DF937B018A01E901211556
:101B4000310511F188819981009711F00E94880276
:101B5000C8010E942D0488839983D7011696ED91C0
:101B6000FC911797309729F41796DC93CE9316972C
:101B70000BC0CF010280F381E02D3097D1F7FC013B
:101B8000D383C2839D838C83DF91CF911F910F916B
:101B9000FF90EF900895EF92FF920F931F93CF93D2
:101BA000DF938C01EB0123C0FA80EB80888587FDF1
:101BB00008C06E817F816115710519F0C8010E940E
:101BC000CB0D8885853031F489859A85009711F091
:101BD0000E94880288819981009711F00E948802F2
:101BE000CE010E9488028F2D9E2D9C01E901209735
:101BF000D9F6DF91CF911F910F91FF90EF9008954B
:101C00000F931F93CF93DF938B01EA0182E290E061
:101C1000BA010E9474058F5F9F4F09F464C00115DB
:101C2000110509F050C054C0803240F0823231F0CA
:101C30008C3521F0992787FD909534C08CE590E094
:101C4000BE010E9474058F5F9F4F09F44CC0F801DC
:101C500080818C30C9F08D303CF4893051F18A306C
:101C6000B1F0883071F50DC0823241F08C3519F039
:101C70008D3039F515C08CE590E01DC082E290E012
:101C800008C082E690E00EC086E690E014C08EE6C2
:101C900090E0BE010E9474058F5F9F4F91F423C0B6
:101CA00082E790E0BE010E9474058F5F9F4F49F468
:101CB0001AC084E790E0BE010E9474058F5F9F4FB9
:101CC00091F00F5F1F4FF8018081882309F0ACCF9E
:101CD00082E290E0BE010E9474058F5F9F4F19F071
:101CE00020E030E002C02FEF3FEFC901DF91CF913C
:101CF0001F910F910895CF93DF93EB01611571054B
:101D000059F0CE010E9415052FEF8F3F920721F069
:101D100081329105B4F306C02FEF3FEFC901DF9187
:101D2000CF910895BE010E94F5058F5F9F4FA1F3EB
:101D300020E030E0F3CF6F927F928F929F92AF922C
:101D4000BF92CF92DF92EF92FF920F931F93CF93A8
:101D5000DF93FB014A016115710509F4A5C0A18457
:101D6000B284C384D484C601B50120E030E040E0F1
:101D700050E00E94A4368823C4F400D000D0ADB750
:101D8000BEB712969C928E92119781E091E01496C4
:101D90009C938E9313970E945705D7FAD094D7F847
:101DA000D0940F900F900F900F90C601B5010E9434
:101DB00015377B018C01EDB7FEB738970FB6F89455
:101DC000FEBF0FBEEDBF3196ADB7BEB712969C9267
:101DD0008E9211978DEF90E093838283E482F58257
:101DE000068317830E945705C801B7010E94413737
:101DF0009B01AC01C601B5010E943F362CEA35ECCF
:101E000047EA56E30E9440367B018C01C5E0D0E0F2
:101E1000EDB7FEB738960FB6F894FEBF0FBEEDBF14
:101E20008AEF682E80E0782EC801B70120E030E00C
:101E300040E251E40E94F7375B016C010E941537C4
:101E40007B0100D000D000D0EDB7FEB73196ADB722
:101E5000BEB712969C928E9211977382628275839E
:101E600064830E94570500E010E0C801B7010E949A
:101E700041379B01AC01C601B5010E943F367B0191
:101E80008C01EDB7FEB736960FB6F894FEBF0FBEC5
:101E9000EDBF20E030E040E050E00E94A43688230F
:101EA00019F0219709F0C0CF80E090E0DF91CF9149
:101EB0001F910F91FF90EF90DF90CF90BF90AF9068
:101EC0009F908F907F906F900895CF93DF93DB0169
:101ED0006115710519F420E030E01FC000D000D07A
:101EE00000D0EDB7FEB73196CDB7DEB75A83498340
:101EF00083E091E09383828319968D919C911A9748
:101F0000958384830E9457059C018DB79EB70696E2
:101F10000FB6F8949EBF0FBE8DBFC901DF91CF9160
:101F20000895FB016115710509F44BC0208523302C
:101F3000B1F124303CF4213049F1223064F4222301
:101F400099F03FC0253089F1253064F1263091F1B8
:101F50002730B9F532C000D000D0EDB7FEB75283BC
:101F6000418385EF90E008C000D000D0EDB7FEB708
:101F7000528341838FEE90E0948383830E945705C0
:101F80009C010F900F900F900F901DC000D000D0BB
:101F9000EDB7FEB7528341838AEE90E0EDCF0E9409
:101FA000650F0DC00E949B0E0AC0618572850E945C
:101FB000000E05C00E94331002C00E94E50F9C0174
:101FC00002C020E030E0C9010895EF92FF920F9324
:101FD0001F93CF93DF937C01FB018A01611571058B
:101FE000C1F1C681D7818BE790E020C068817981FB
:101FF000C701A8010E94000E8F5F9F4F39F18AE34D
:1020000090E0B8010E9474058F5F9F4FF9F0C701FF
:10201000BE01A8010E94910F8F5F9F4FB9F00A8007
:10202000DB81C02D209741F08CE290E0B8010E9446
:1020300074058F5F9F4F51F02097C1F68DE790E0B8
:10204000B8010E9474058F5F9F4F19F42FEF3FEF87
:1020500002C020E030E0C901DF91CF911F910F91C4
:10206000FF90EF900895EF92FF920F931F93CF93FD
:10207000DF937C01FB018A016115710539F1C6818D
:10208000D7818BE590E00FC0C701BE01A8010E9477
:10209000910F8F5F9F4FB9F00A80DB81C02D209791
:1020A00041F08CE290E0B8010E9474058F5F9F4F71
:1020B00051F0209749F78DE590E0B8010E94740532
:1020C0008F5F9F4F19F42FEF3FEF02C020E030E009
:1020D000C901DF91CF911F910F91FF90EF9008956B
:1020E000EF92FF920F931F93CF93DF938C017B01AD
:1020F0000E947715EC01009719F420E030E009C048
:10210000C801B701AE010E94910FCE010E94601577
:102110009C01C901DF91CF911F910F91FF90EF902A
:102120000895EF92FF920F931F93CF93DF937B015C
:102130008A01CA010E941505829709F04FC085E007
:10214000F70180870E943216EC01009709F446C01F
:10215000C8010E941505FFEF8F3F9F0709F041C09E
:102160003AC08C35910569F5C8010E9415052FEF1D
:102170008F3F920781F186369105E1F08736910510
:102180004CF48C35910581F08236910589F0829767
:10219000D9F40CC08237910589F08437910581F01C
:1021A0008E36910589F408C08CE50BC082E209C027
:1021B00088E007C08CE005C08AE003C08DE001C064
:1021C00089E0BE010E94CC15C8010E941505EFEF01
:1021D0008F3F9E0731F4CE010E94EA152FEF3FEFAB
:1021E0000FC08232910521F0803291050CF0B9CFF9
:1021F000CE010E94EF15F7019287818720E030E041
:10220000C901DF91CF911F910F91FF90EF90089539
:102210002F923F924F925F926F92AF92BF92CF9266
:10222000DF92EF92FF920F931F93DF93CF93CDB77F
:10223000DEB728970FB6F894DEBF0FBECDBF7A8306
:1022400069831A01CA010E9415052C012FEF8F3FE7
:10225000920771F08D32910519F0AA24A3940DC054
:10226000C1010E9415052C014FEF8F3F940719F40F
:102270002FEF3FEF16C1AA24AA94C201C0970A9774
:1022800018F000E010E018C000E010E0C80173E0B2
:10229000880F991F7A95E1F7000F111F800F911F8A
:1022A000820100531040080F191FC1010E9415053B
:1022B0002C01C0970A9750F35EE245165104D1F005
:1022C00085E648165104B1F095E44916510491F0A1
:1022D0008A2D992787FD9095FC010E9FC0010F9FC5
:1022E000900D1E9F900D1124E981FA8192878187BC
:1022F00083E0D0C0B801882777FD8095982F0E9491
:1023000043377B018C01FEE24F16510419F0CC24B7
:10231000DD242DC0C1010E9415052C01CC24DD2433
:10232000C801B70120E030E040E251E40E94F737F5
:102330007B018C0120ED3FEF420E531EB201882736
:1023400077FD8095982F0E9443379B01AC01C8010F
:10235000B7010E9440367B018C010894C108D10866
:10236000C1010E9415052C01C0970A97C8F235E6F5
:102370004316510449F045E44416510429F01886E7
:102380001F826624639437C0C1010E9415052C0189
:102390008B32910529F4C1010E9415052C0104C05E
:1023A0008DE24816510419F06624639406C0C101F9
:1023B0000E9415052C0166246A9418861F8215C098
:1023C0008F81988553E0880F991F5A95E1F7EF8127
:1023D000F885EE0FFF1FE80FF91FE20FF31FF887D4
:1023E000EF83C1010E9415052C019201205330405A
:1023F0002A30310528F36A2D772767FD7095872FDE
:10240000972F0E944337A80197010E94F7376B83EB
:102410007C838D839E83B601882777FD8095982FD6
:102420000E9443375B016C012F813885B9018827F1
:1024300077FD8095982F0E9443377B018C01662D94
:10244000772767FD7095872F972F0E9443379B0151
:10245000AC01C801B7010E94F7379B01AC01C6016E
:10246000B5010E9440369B01AC0160E070E080E263
:1024700091E40E945A389B01AC016B817C818D8173
:102480009E810E94F737E981FA816187728783878D
:10249000948784E08087C201B1010E94F50520E0A5
:1024A00030E0C90128960FB6F894DEBF0FBECDBF4D
:1024B000CF91DF911F910F91FF90EF90DF90CF9020
:1024C000BF90AF906F905F904F903F902F90089586
:1024D0008DE090E00E94DE01FC01009729F08DE084
:1024E000DF011D928A95E9F7CF0108950E946812D5
:1024F000FC01009711F087E08087CF0108950E94CA
:102500006812FC01009711F086E08087CF010895E2
:102510000F931F93CF93DF938B010E946812EC01FE
:10252000009739F085E08887C8010E942D048987CB
:102530009A87CE01DF91CF911F910F910895CF928D
:10254000DF92EF92FF920F931F938C017B016A0140
:10255000B9010E9488129C01C801B701A6010E941E
:10256000960D1F910F91FF90EF90DF90CF900895FF
:10257000EF92FF920F931F937A018B010E946812D2
:10258000FC01009731F084E08087E186F2860387C2
:102590001487CF011F910F91FF90EF900895AF9294
:1025A000BF92CF92DF92EF92FF920F931F937C0125
:1025B0006B015A01B901A8010E94B8129C01C70120
:1025C000B601A5010E94960D1F910F91FF90EF900B
:1025D000DF90CF90BF90AF900895CF93DF93EB0142
:1025E0000E946812FC01009721F083E08087D28767
:1025F000C187CF01DF91CF910895CF92DF92EF9203
:10260000FF920F931F938C017B016A01B9010E9415
:10261000ED129C01C801B701A6010E94960D1F9101
:102620000F91FF90EF90DF90CF9008956F927F927F
:102630008F929F92BF92CF92DF92EF92FF920F9371
:102640001F93CF93DF937C014B018A013901CA01AB
:102650000E9415058B37910509F05DC087E0F401F4
:102660008087C701B8010E947B0EC8010E94150532
:102670008D37910509F452C0B8010E94F505BB24BD
:10268000BA94C7010E946812EC01009709F443C094
:10269000BB2021F0F4019783868305C0F601938364
:1026A0008283DD82CC82C701B8010E947B0EC70104
:1026B000BE01A8010E9491108F5F9F4F61F1C70179
:1026C000B8010E947B0E89859A85998388831A8632
:1026D0001986C8010E941505CA97E9F4C701B80117
:1026E0000E947B0EC701BE01A80193010E949F13A7
:1026F0008F5F9F4F81F0C701B8010E947B0EC80118
:102700000E941505BB246E018C32910509F4B9CFE6
:102710008D37910519F02FEF3FEF02C020E030E038
:10272000C901DF91CF911F910F91FF90EF90DF9042
:10273000CF90BF909F908F907F906F9008958F92D1
:102740009F92AF92BF92CF92DF92EF92FF920F9340
:102750001F93DF93CF93CDB7DEB729970FB6F894C9
:10276000DEBF0FBECDBF6C015B017A01490141158F
:10277000510509F4ADC0BA010E947B0E8F5F9F4FD7
:1027800009F4A6C0C7010E9415058C018FEF0F3F09
:10279000180709F49DC0C801B7010E94F5058F5FB5
:1027A0009F4F09F495C00232110531F4C601B501FD
:1027B000A7010E94911020C00D32110521F0C8011F
:1027C000C0970A9730F4C601B501A7010E9408110D
:1027D00013C00B35110539F4C601B501A7019401E9
:1027E0000E947E1409C00B37110541F4C601B501E2
:1027F000A70194010E9416139C016CC00E361105AE
:1028000001F519821A821B821C828E010F5F1F4FF5
:10281000C80161E070E044E050E097010E94A0052B
:10282000049709F055C0C80160E071E044E050E051
:102830000E947904009709F04BC082E0F50180877F
:1028400044C006361105F9F48E010B5F1F4F85E079
:10285000F80111928A95E9F7C80161E070E045E05E
:1028600050E097010E94A005059791F5C80165E029
:1028700071E045E050E00E947904009749F5F501C8
:102880001086118622C00437110511F519821A82AB
:102890001B821C828E010F5F1F4FC80161E070E038
:1028A00044E050E097010E94A005049789F4C80114
:1028B0006BE071E044E050E00E947904009741F43D
:1028C00081E0F50180878FEF818720E030E002C052
:1028D0002FEF3FEFC90129960FB6F894DEBF0FBE68
:1028E000CDBFCF91DF911F910F91FF90EF90DF90BF
:1028F000CF90BF90AF909F908F9008956F927F92EE
:102900008F929F92BF92CF92DF92EF92FF920F939E
:102910001F93CF93DF936C014B01EA013901CA0188
:102920000E9415058B35910509F03FC086E0F40142
:102930008087C601BE010E947B0ECE010E94150554
:102940008D359105A9F1BE010E94F505BB24BA940D
:10295000C6010E9468128C01009739F1BB2021F05A
:10296000F4019783868306C0F70193838283FC0179
:10297000F582E482C601BE010E947B0EC601B80149
:10298000AE0193010E949F13892B79F4C601BE0109
:102990000E947B0ECE010E941505BB2478018C326B
:1029A0009105B1F28D35910519F02FEF3FEF02C07F
:1029B00020E030E0C901DF91CF911F910F91FF908E
:1029C000EF90DF90CF90BF909F908F907F906F900F
:1029D0000895CF92DF92EF92FF920F931F93CF93C0
:1029E000DF937C018B016A0161157105B1F00E94D2
:1029F0006812EC01009799F0C701B8010E947B0EA4
:102A0000C701BE01A80196010E949F138F5F9F4FCF
:102A100031F4C701BE010E94CB0DC0E0D0E0CE0171
:102A2000DF91CF911F910F91FF90EF90DF90CF90AA
:102A30000895EF92FF920F931F937C01CB010E94A8
:102A4000A5158C01C701B80140E050E00E94E914CF
:102A5000F82EE92EC8010E9492158F2D9E2D1F91F0
:102A60000F91FF90EF900895FC01A485B585129613
:102A70002D913C911397ED91FC911197E20FF31F6B
:102A80008081882319F4EFEFFFEF0AC02F5F3F4FDB
:102A900013963C932E931297E82FFF27E7FDF095AE
:102AA000CF010895FB01648575850E94CC158823AC
:102AB00019F420E030E002C02FEF3FEFC901089584
:102AC0000F931F93CF93DF93EC018C859D850E941C
:102AD000EF158C01009711F01D861C86CE010E9417
:102AE0009E04C801DF91CF911F910F910895CF935C
:102AF000DF9382E595E160E070E00E94C904EC019B
:102B0000009761F00E943216009731F4CE010E94C6
:102B10009E04C0E0D0E002C09D878C87CE01DF918B
:102B2000CF910895CF93DF93EC01009759F08C85F6
:102B30009D85009711F00E9488021D861C86CE019B
:102B40000E949E04DF91CF9108950F931F93CF931E
:102B5000DF938C0180E090E064E375E10E94C9049A
:102B6000EC01009799F084E090E00E94DE01FC0106
:102B7000009739F011830083138212829D878C871E
:102B800005C0CE010E949E04C0E0D0E0CE01DF91DE
:102B9000CF911F910F910895482FDB0114962D912D
:102BA0003C91159712968D919C9113972817390790
:102BB00078F4ED91FC911197E20FF31F4083149686
:102BC0008D919C911597019615969C938E931497D1
:102BD00080E00895009711F00E94880208950F93F5
:102BE0001F93CF93DF938C01DC0114962D913C91C0
:102BF00015972115310541F0ED91FC91E20FF31F7E
:102C0000319780818823B1F0F80182819381281760
:102C1000390780F40190F081E02DE20FF31F10825C
:102C2000D80114968D919C911597019615969C93B9
:102C30008E931497F801848195810E94DE01EC0146
:102C4000009751F067E975E00E947204D8011D9267
:102C50001C92C8010E948802CE01DF91CF911F9182
:102C60000F910895CF93DF9386E090E00E94DE01FC
:102C7000DC010097A9F0E7E9F5E01196FC93EE93EB
:102C800080E091E0EF019C01199221503040E1F782
:102C900013969C938E93129715961C921E921497DE
:102CA000CD01DF91CF9108950F931F938C010E9466
:102CB000C930605A75418F4F9F4FF801608371830F
:102CC0008283938380E090E0A0E0B0E084839583EA
:102CD000A683B7831F910F91089586E292E00E9428
:102CE00054168EE292E06EE00E94E2080895EF92A0
:102CF000FF920F931F93CF93DF93EC010E94C93093
:102D00009B01AC0188819981AA81BB8179018A01EB
:102D1000E81AF90A0A0B1B0BD801C7018153954722
:102D2000A040B04008F450C0288339834A835B83B5
:102D300086E892E00E94FB1886E892E068E470E082
:102D400042E050E00E94F81886E892E00E944C1899
:102D5000182F86E892E00E944C18312F20E090E076
:102D6000282B392B84E0359527958A95E1F7442760
:102D700037FD4095542FCA01B9010E94433720E026
:102D800030E040E85DE30E94F73720E030E040E2C9
:102D900051E40E94F7370E941037882777FD80950D
:102DA000982F0E94433720E030E040E251E40E9437
:102DB000A8368B01F82FE92FAC01CB01DA018C8307
:102DC0009D83AE83BF8304C00C811D81FE81EF8192
:102DD0004F2F5E2FB801CA01DF91CF911F910F9144
:102DE000FF90EF900895EF92FF920F931F93DF9360
:102DF000CF930F92CDB7DEB7962F613031F47EE0DE
:102E0000E72EF12C0EE010E014C0623031F46FE0D8
:102E1000E62EF12C0FE010E00CC0633031F430E10D
:102E2000E32EF12C00E110E004C0EE24FF2400E0CA
:102E300010E04830510509F447C04930510594F479
:102E40004530510511F14630510524F4452B09F464
:102E50006FC018C04630510509F46AC047305105AB
:102E600089F422C04A30510509F462C04A30510544
:102E70000CF459C04C30510509F463C04A5E53400C
:102E800009F470C00FEF1FEF8FC0802F60E00E9429
:102E90001D32802F0E9497328C01009709F084C068
:102EA0008FEF92E069E05BC0802F60E00E941D32EE
:102EB000802F0E9497328C01181619060CF074C0EE
:102EC0008FEF92E068E04BC08EE292E0602F0E94AC
:102ED000B9088EE292E00E94160990933E02809318
:102EE0003D020197069708F45DC08EE292E00E94D1
:102EF000D20820E030E040E251E40E94F7370E941F
:102F000010378B018EE292E00E94DA0820E030E078
:102F100040E251E40E94F7370E941037709340025C
:102F200060933F0241C000913F02109140023CC0BB
:102F30008E2D60E00E941D328E2D0E949B318C01EF
:102F400033C08E2D60E00E941D328E2D0E949B3179
:102F50008C011816190644F58FEF92E067E00E9485
:102F6000CA2422C0802F61E099830E941D3299817A
:102F7000913021F488B1082F10E011C0923031F463
:102F800088B1082F10E01595079509C0933051F4CA
:102F900088B1082F10E015950795159507950170D4
:102FA000107002C000E010E0C8010F90CF91DF91D7
:102FB0001F910F91FF90EF900895CF93DF93EB0156
:102FC000442369F088E795E060E171E00E942936CA
:102FD00088E795E0BE014AE050E00E940A36CE0143
:102FE000835B9040439718F42AE030E048C0CE015C
:102FF0008B5F9040439718F427E030E040C0CE014B
:1030000088549140439718F429EE33E038C0CE013C
:103010008E569140439718F426E030E030C0CE0140
:10302000805A9140439718F42BE030E028C0CE013D
:1030300080509240439718F428E030E020C0CE0141
:1030400080539240439718F42CE030E018C0CE0132
:103050008F589240439718F42AEE33E010C0CE0107
:103060008F509340439718F425E030E008C0C35FC9
:10307000D3401CF420E030E002C02FEF3FEFC90145
:10308000DF91CF9108952091620230E0809161023A
:10309000281B3109C90108954091610280916202A3
:1030A000481718F02FEF3FEF0AC0E42FF0E0EF5B76
:1030B000FD4F8081282F30E04F5F40936102C901AE
:1030C0000895E091610280916202E81718F0EFEF35
:1030D000FFEF06C0F0E0EF5BFD4F8081E82FF0E0EE
:1030E000CF0108950895109289021092880288EE07
:1030F00093E0A0E0B0E080938A0290938B02A093CB
:103100008C02B0938D0281EA91E0909387028093C4
:1031100086020895CF92DF92EF92FF920F931F9352
:10312000CF93DF937C016B018A0180918502882314
:10313000A1F0C0E0D0E00DC0D701ED91FC91D60127
:10314000AC0FBD1F0190F081E02DC7016C91099576
:103150002196C017D10780F304C0CB01642F0E94D1
:103160003D19C801DF91CF911F910F91FF90EF9012
:10317000DF90CF900895DF93CF930F92CDB7DEB756
:10318000FC016983809185028823C9F080918402C3
:10319000803238F081E090E09383828320E030E059
:1031A00015C080918302E82FF0E0ED59FD4F998121
:1031B00090838F5F809383028093840205C0CE0149
:1031C000019661E00E943D1921E030E0C9010F90B5
:1031D000CF91DF910895413208F040E2862F61E4FB
:1031E00072E00E94061910926102809362020895B3
:1031F0000E94EB18089510926102109262021092E0
:103200008302109284020E94D31A0895982F4132AB
:1032100010F040E030C0809192028823E1F781E015
:10322000809392028FEF8093FD021092B80241507A
:103230004093B9024F5F990F91609093930285EE8E
:103240008093BC00809192028130E1F38091B802BA
:10325000841710F44091B80220E030E00AC0FB016E
:10326000E20FF31FD901A856BD4F8C9180832F5FC9
:103270003F4F2417A0F3842F0895482F613210F098
:1032800081E0089580919202843011F082E00895E7
:103290006093DB02AAEBB2E0842F9C01F90102C02B
:1032A00081918D938E2F841B8617D0F380E0089533
:1032B0001F920F920FB60F9211242F933F934F93AB
:1032C0005F936F937F938F939F93AF93BF93EF938E
:1032D000FF938091B90090E0887F907080369105CF
:1032E00009F4DCC081369105CCF58832910509F4EA
:1032F0007BC089329105B4F48031910509F46FC027
:10330000813191053CF4009709F431C1089709F027
:1033100039C165C08831910509F466C0809709F00C
:1033200031C17DC08034910509F49FC0813491057D
:1033300044F48033910509F47DC0C89709F022C197
:1033400084C08035910509F484C08835910509F45D
:1033500091C08834910509F015C198C0883991054C
:1033600009F4FDC089399105ECF48837910509F419
:1033700095C0893791054CF48836910509F48EC0C3
:103380008037910509F0FEC089C08838910509F49D
:10339000E6C08039910509F487C08038910509F0AD
:1033A000F1C082C0803B910509F4B0C0813B91051A
:1033B0004CF4803A910509F489C0883A910509F0E6
:1033C000E1C0A4C0803C910509F4CDC0883C9105C2
:1033D00009F4C9C0883B910509F0D4C0ACC0809104
:1033E00093028093BB00B9C09091B8028091B9025A
:1033F000981768F49091B802E92FF0E0E856FD4F75
:1034000080818093BB009F5F9093B802A6C085ED3A
:103410008093BC008091BC0084FDFCCFB1C080E2F1
:103420008093FD0285ED8093BC008091BC0084FDFB
:10343000FCCFA6C080E38093FD0285ED8093BC00A5
:103440008091BC0084FDFCCF9BC088E38093FD028B
:103450008AC08091B8029091BB00E82FF0E0E85656
:10346000FD4F90838F5F8093B8029091B802809156
:10347000B90271C08091B8029091BB00E82FF0E0D2
:10348000E856FD4F90838F5F8093B80285ED80935F
:10349000BC008091BC0084FDFCCF72C083E08093AF
:1034A00092021092FC0259C08091FC02803208F016
:1034B00056C08091FC029091BB00E82FF0E0E452EE
:1034C000FD4F90838F5F8093FC0247C08091FC0288
:1034D000803230F4E091FC02F0E0E452FD4F1082C3
:1034E00085ED8093BC008091BC0084FDFCCF1092E0
:1034F00092026091FC02E0919602F09197028CEDAD
:1035000092E070E009951092FC022DC084E0809357
:1035100092021092DA021092DB02E0919402F09192
:10352000950209958091DB02882329F481E080933C
:10353000DB021092BA029091DA02E92FF0E0E65431
:10354000FD4F80818093BB009F5F9093DA02909142
:10355000DA028091DB02981710F485EC01C085E84F
:103560008093BC000FC085EC8093BC0009C0109212
:10357000FD0285ED8093BC008091BC0084FDFCCFF2
:1035800010929202FF91EF91BF91AF919F918F9115
:103590007F916F915F914F913F912F910F900FBE4F
:1035A0000F901F9018951092920282E161E00E94A4
:1035B000433283E161E00E944332E9EBF0E0808135
:1035C0008E7F808380818D7F808388E48093B800A4
:1035D00085E48093BC000895362F242F83E092E089
:1035E0006DE1432F0E94D20C0895EF92FF920F934A
:1035F0001F93CF93DF93162F7A01022F83E092E07F
:103600006DE1412F0E940F0D83E092E06DE1412FAB
:10361000202F0E944D0CC0E0D0E010E009C083E0F4
:1036200092E00E94AE0AF701EC0FFD1F8083219605
:10363000C017D107A4F3DF91CF911F910F91FF9095
:10364000EF900895AF92BF92CF92DF92EF92FF92E8
:103650000F93DF93CF9300D000D000D0CDB7DEB76B
:103660007B016A015901AE014F5F5F4F0023C1F139
:1036700061E026E00E94F51A2A812295269526957A
:10368000237030E0898190E0880F991F880F991F7F
:10369000282B392BF701318320832C812295269505
:1036A0002695237030E08B8190E0880F991F880F5A
:1036B000991F282B392BF601318320832E812295E7
:1036C00026952695237030E08D8190E0880F991F14
:1036D000880F991F282B392BF501318320831FC0B8
:1036E00061E023E00E94F51A898190E0880F991F1C
:1036F000880F991FF701918380838A8190E0880F5A
:10370000991F880F991FF601918380838B8190E028
:10371000880F991F880F991FF50191838083F70106
:1037200080819181F2E080309F072CF0805094409E
:10373000F70191838083F60180819181F2E08030EE
:103740009F072CF080509440F60191838083F5010F
:1037500080819181F2E080309F072CF0805094406E
:10376000F5019183808326960FB6F894DEBF0FBED5
:10377000CDBFCF91DF910F91FF90EF90DF90CF9071
:10378000BF90AF9008950F931F93DF93CF930F9245
:10379000CDB7DEB78C016AE2AE014F5F5F4F21E02B
:1037A0000E94F51A49814D7FC8016AE20E94EC1A15
:1037B0000F90CF91DF911F910F9108950F931F9359
:1037C000DF93CF930F92CDB7DEB78C016AE2AE01E3
:1037D0004F5F5F4F21E00E94F51A49814160C801A7
:1037E0006AE20E94EC1A0F90CF91DF911F910F9126
:1037F00008950F931F93DF93CF930F92CDB7DEB74A
:103800008C016AE2AE014F5F5F4F21E00E94F51A22
:1038100049814E7FC8016AE20E94EC1A0F90CF9155
:10382000DF911F910F9108950F931F93DF93CF9313
:103830000F92CDB7DEB78C0183E092E00E949D0A23
:10384000C8010E94F91BC8016EE040E00E94EC1A1A
:10385000C8010E94C31BC8010E94DE1BC8016DE0A5
:10386000AE014F5F5F4F21E00E94F51A0F90CF919C
:10387000DF911F910F9108958EEF92E00E94141C2A
:1038800008957F928F929F92AF92BF92CF92DF92D4
:10389000EF92FF920F931F93CF93DF935C01712EF2
:1038A000122FB32FA42FF52FE62F972F4701650175
:1038B000E501EE24FF241BC000FD02C080E301C02F
:1038C00081E388A30894E11CF11C202F372D412FA0
:1038D0005B2F6A2F7F2F8E2F01E00E94E000022FC6
:1038E000732E142FB52FA62FF72FE82F2196802F98
:1038F0008729812B8B2B8A2B8F2B8E2B892BE1F603
:10390000A4014E195F09D501A80DB91DFD0120E0E4
:1039100030E090E30FC02417350720F0878DE601D3
:10392000888302C0E60198832F5F3F4F3197089448
:10393000C11CD11C2815390570F31C92DF91CF9161
:103940001F910F91FF90EF90DF90CF90BF90AF90BD
:103950009F908F907F9008950F931F938C010E94EA
:10396000C930605A75418F4F9F4FF8016083718352
:10397000828393831F910F9108958FEF92E00E94AD
:10398000AC1C8EEE93E00E94782A08952F923F920D
:103990004F925F926F927F928F92AF92BF92CF922F
:1039A000DF92EF92FF920F931F93DF93CF9300D09C
:1039B00000D000D0CDB7DEB71B015A8349833C83CA
:1039C0002B831E830D8326013701DA2C182D13302B
:1039D00008F098C085E292E00E9476125C010097A0
:1039E00039F488E795E06FE171E00E942C368AC0D7
:1039F00085E292E00E947F127C01882031F485E20A
:103A000092E0B5014AE251E00DC0113031F485E297
:103A100092E0B50141E351E005C085E292E0B501D5
:103A200048E351E097010E94960D85E292E00E94E2
:103A300076128C0185E292E0B701A8010E945D0D2B
:103A400085E292E0B8014FE351E091010E949F129C
:103A500085E292E0B80141E451E029813A810E9477
:103A6000FD1285E292E0B80143E451E02B813C81F4
:103A70000E94FD12DD2051F085E292E0B80145E49C
:103A800051E02D813E810E949F1227C0C301B201E7
:103A90000E9410376B017C01B601882777FD809565
:103AA000982F0E9443379B01AC01C301B2010E94D1
:103AB000F337181654F485E292E0B80145E451E07A
:103AC000930182010E94CF1208C085E292E0B80102
:103AD00045E451E096010E94FD1285E292E0B501B5
:103AE0000E9470108C01009729F088E795E0B801DA
:103AF0000E942C3685E292E0B5010E94CB0DC801F0
:103B00000E94880226960FB6F894DEBF0FBECDBF86
:103B1000CF91DF911F910F91FF90EF90DF90CF90A9
:103B2000BF90AF908F907F906F905F904F903F903D
:103B30002F9008952F923F924F925F926F927F92B3
:103B40008F92AF92CF92DF92EF92FF920F931F93DB
:103B5000DF93CF93CDB7DEB72F970FB6F894DEBFC4
:103B60000FBECDBF1C01822EA32EB42FA52FCB01DB
:103B7000CC24DD245BE0E52EF12C44E0642E712C96
:103B80006C0E7D1E202F2F70F301EE0DFF1D208384
:103B90003BE0E316F10411F0C20ED11C0894E108D9
:103BA000F1082FEFE2162FEFF20671F09801482D81
:103BB0005A2D6B2F7A2F04E00E94E0008901842E99
:103BC000A52EB62FA72FDECF8C81893009F051C1E9
:103BD0008F8590E03FE0C322DD248C159D0509F020
:103BE00048C100D000D000D0EDB7FEB7319621E03B
:103BF00030E02C0F3D1FADB7BEB712963C932E930D
:103C0000119788E491E0938382838E818295807FEF
:103C10009F81890F848315820E94D1058DB79EB73D
:103C200006960FB6F8949EBF0FBE8DBF8D81837030
:103C3000813009F44EC0813038F0823009F462C01E
:103C4000833009F016C1A6C06A8524E6629FB001E0
:103C50001124882777FD8095982F0E9443377B0198
:103C60008C016B852AE0629FB0011124882777FDC3
:103C70008095982F0E9443379B01AC01C801B70182
:103C80000E9440367B018C016C8570E0882777FDAF
:103C90008095982F0E9443379B01AC01C801B70162
:103CA0000E94403620E030E046E953E40E943F366F
:103CB00020E030E040E251E40E94A8366B017C0134
:103CC000C101BE016F5F7F4F40E050E024E130E072
:103CD0005CC06A852AE0629FB00111242B85620FC7
:103CE000711D882777FD8095982F0E9443376B01BF
:103CF0007C01C101BE016F5F7F4F40E050E025E1D4
:103D000030E043C07A8560E0882777FD8095982F62
:103D10000E9443377B018C016B8570E034E0660FB5
:103D2000771F3A95E1F7882777FD8095982F0E94B5
:103D300043379B01AC01C801B7010E9440367B01AB
:103D40008C016C8570E0882777FD8095982F0E9404
:103D500043379B01AC01C801B7010E94403620E007
:103D600030E841E054E40E94F73720E030E04AE7D1
:103D700054E40E94A8366B017C01C101BE016F5F53
:103D80007F4F40E050E026E130E000E010E0AA2460
:103D900088246DC0698570E061707070762F662729
:103DA000882777FD8095982F0E9443377B018C01EF
:103DB0006A8570E094E0660F771F9A95E1F788278F
:103DC00077FD8095982F0E9443379B01AC01C80175
:103DD000B7010E9440367B018C016B8570E088271B
:103DE00077FD8095982F0E9443379B01AC01C80155
:103DF000B7010E94403620E030E040E251E40E94EA
:103E0000A8362B013C010C8510E0000F111F000F9C
:103E1000111F03551E4FC101BE016F5F7F4F40E070
:103E200050E027E130E00F2EF0E0CF2EF0E0DF2E63
:103E3000F0E0EF2EF0E0FF2EF02DAA24A3948824CA
:103E40000E94C61CC301B20126E636E646E650E4EF
:103E50000E94F7376B017C01C101BE016F5F7F4F8C
:103E600040E050E028E130E000E010E0AA240E94A9
:103E7000C61C2F960FB6F894DEBF0FBECDBFCF91F4
:103E8000DF911F910F91FF90EF90DF90CF90AF9057
:103E90008F907F906F905F904F903F902F900895FC
:103EA0004F925F926F927F928F92AF92BF92CF921A
:103EB000DF92EF92FF920F931F93DF93CF93CDB7D3
:103EC000DEB72D970FB6F894DEBF0FBECDBF2C0125
:103ED000822EA32EB42FA52FCB01CC24DD24E9E024
:103EE000EE2EF12C74E0672E712C6C0E7D1E202FAF
:103EF0002F70F301EE0DFF1D208339E0E316F1046E
:103F000011F0C20ED11C0894E108F1086FEFE6161B
:103F10006FEFF60671F09801482D5A2D6B2F7A2F0E
:103F200004E00E94E0008901842EA52EB62FA72F61
:103F3000DECF1C811A3009F063C08D8590E07FE0F0
:103F4000C722DD248C159D0509F05AC000D000D091
:103F500000D0EDB7FEB731965E010894A11CB11CEC
:103F6000ADB7BEB71296BC92AE92119788E491E0BD
:103F7000938382838F8190E08E7090709595879562
:103F80002E812295207F280F248315820E94D1053F
:103F90002B859C854A856DB77EB76A5F7F4F0FB6CC
:103FA000F8947EBF0FBE6DBF8D81882349F564E60E
:103FB000269FB0011124919F90011124620F731F5D
:103FC000640F711D80E090E00E94413720E030E0F6
:103FD00040E251E40E94A83620E030E048E452E498
:103FE0000E943F366B017C01C201B50140E050E008
:103FF0002DE030E000E010E0AA2488240E94C61CD6
:104000002D960FB6F894DEBF0FBECDBFCF91DF91D6
:104010001F910F91FF90EF90DF90CF90BF90AF90E6
:104020008F907F906F905F904F900895EF92FF92E6
:104030000F931F93CF93DF9385E292E00E94761255
:104040007C01009739F488E795E06FE171E00E9408
:104050002C3665C085E292E00E947F128C0185E2D9
:1040600092E0B7014BE451E098010E94960D85E281
:1040700092E00E947612EC0185E292E0B801AE0176
:104080000E945D0D85E292E0BE014FE351E023E81E
:1040900033E00E949F122091A7033091A80385E28C
:1040A00092E0BE0141E451E00E94FD122091A9037B
:1040B0003091AA0385E292E0BE0143E451E00E9400
:1040C000FD128091ED03882351F085E292E0BE015C
:1040D00045E451E02BEA33E00E949F120BC020918F
:1040E000EB033091EC0385E292E0BE0145E451E040
:1040F0000E94FD1285E292E0B7010E947010EC016F
:10410000009729F088E795E0BE010E942C3685E2F1
:1041100092E0B7010E94CB0DCE010E948802DF9190
:10412000CF911F910F91FF90EF900895CF92DF9262
:10413000EF92FF920F931F93CF93DF93EB0185E2F2
:1041400092E00E9476126C01009739F488E795E0BE
:104150006FE171E00E942C3635C085E292E00E944A
:104160007F127C0185E292E0B6014FE451E09701B5
:104170000E94960D85E292E00E9476128C0185E203
:1041800092E0B701A8010E945D0D85E292E0B801BE
:1041900045E551E09E010E94FD1285E292E0B601E4
:1041A0000E947010EC01009729F088E795E0BE01AD
:1041B0000E942C3685E292E0B6010E94CB0DCE0122
:1041C0000E948802DF91CF911F910F91FF90EF9095
:1041D000DF90CF900895AF92BF92CF92DF92EF928F
:1041E000FF920F931F93CF93DF9303E013E085E2D9
:1041F00092E0B8010E9419155C0180E8F801119263
:104200008A95E9F7A114B10411F480E08DC085E22C
:1042100092E0B5010E94410D882309F47CC085E23B
:1042200092E0B5014AE251E00E947B0DBC0100978B
:1042300009F471C085E292E040E00E944E0DEC016D
:10424000009709F468C085E292E0BE014FE351E0B7
:104250000E947B0D8C0185E292E0BE0141E451E0B9
:104260000E947B0D7C0185E292E0BE0143E451E0B7
:104270000E947B0D6C0185E292E0BE0145E451E0B5
:104280000E947B0DEC010115110509F444C0F801F1
:104290008085853009F03FC06185728583E893E0B1
:1042A00044E250E00E948704E114F104A1F1F70117
:1042B0008085833081F5818592859093A8038093D2
:1042C000A703C114D10439F1F6018085833019F5B3
:1042D000818592859093AA038093A9032097D9F0B2
:1042E0008885853061F469857A858BEA93E040E4BE
:1042F00050E00E94870481E08093ED030AC0833080
:1043000051F489859A859093EC038093EB03109286
:10431000ED0301E001C000E085E292E0B5010E94FA
:10432000CB0D802F011181E0DF91CF911F910F9173
:10433000FF90EF90DF90CF90BF90AF900895CF9314
:10434000DF9388E795E00E940134892B19F4CFEFC1
:10435000DFEF1CC0C0E0D0E012C0C038D105B1F022
:1043600088E795E00E943234FE01ED5FFC4F8083C8
:10437000219662E070E080E090E00E94FD3088E7E6
:1043800095E00E940134181619063CF3CE01DF9126
:10439000CF910895CF92DF92EF92FF920F931F93E8
:1043A000CF93DF93EC010E949F21181619060CF0A1
:1043B000E9C0CE010E94EB20882309F4DEC0809181
:1043C000A7039091A803892B09F0D3C08091A9037A
:1043D0009091AA0323E0883E9207B1F123E0893E41
:1043E00092074CF48B30910509F451C0875E9340DD
:1043F00009F0BBC00AC023E08A3E920709F478C0E6
:104400008B5E934009F0B1C094C08BEA93E060E00A
:1044100070E040E150E00E94E0027B018C01AFEFD0
:10442000CA2ED12CB601601B710987E00E94BD31F4
:10443000CF18D10888E0B6010E94BD31E094F09415
:104440008FEFE822FF241EC08BEA93E060E070E06B
:1044500040E150E00E94E0027B018C01FFEFCF2E93
:10446000D12CB601601B710987E00E94BD31CF18C5
:10447000D10888E0B6010E94BD31E094F0942FEF9E
:10448000E222FF2489E0B7010E94BD3166C083E8C3
:1044900093E00E940F04823049F0833061F0813054
:1044A00081F48EEE93E06EE070E009C08EEE93E052
:1044B0006FE070E004C08EEE93E060E170E00E9477
:1044C000E92F8EEE93E06EE571E00E94A02A8EEE59
:1044D00093E068E070E00E94A42A8EEE93E06BEA1D
:1044E00073E00E94A52F8EEE93E00E94D92F35C075
:1044F00083E893E00E940F04823041F0833041F062
:10450000813011F41EE005C01FEF03C01FE001C0A1
:1045100010E18091ED03882331F08BEA93E00E9453
:104520000F04682F02C06091EB03812F0E94433279
:1045300014C08BEA93E06AE571E00E946904009779
:1045400081F48BEA93E06EE571E00E9472048BEADD
:1045500093E063E671E00E945E04CE010E941620A3
:1045600011C0CE0164E070E00BC0CE0163E070E0EA
:1045700007C0CE0162E070E003C0CE0161E070E0F0
:104580000E949620DF91CF911F910F91FF90EF90A5
:10459000DF90CF9008952F923F924F925F926F924B
:1045A0007F928F92AF92CF92DF92EF92FF920F9312
:1045B0001F93DF93CF93CDB7DEB72F970FB6F89445
:1045C000DEBF0FBECDBF3C01F62E88E795E00E940E
:1045D0000134181619061CF4C3010E94CA2100D028
:1045E00000D000D0EDB7FEB731961E010894211C13
:1045F000311CADB7BEB712963C922E92119788E649
:1046000091E093838283F48215820E94D1058DB755
:104610009EB706960FB6F8949EBF0FBE8DBF86E27A
:1046200092E06F2D48E050E00E94F3168C0186E284
:1046300092E06F2D49E050E00E94F3162C01C80172
:1046400001978F5C9740C8F5B801882777FD809562
:10465000982F0E94433720E030E040E251E40E946E
:10466000A8366B017C01C301B10140E050E028E0B5
:1046700030E000E010E0AA2488240E94C61C1092BA
:10468000F703C20101978F5C9740B8F4B201882705
:1046900077FD8095982F0E94433720E030E040E27C
:1046A00051E40E94A8366B017C01C301B10140E0D6
:1046B00050E029E030E00E94C61C88E795E00E94A7
:1046C0000134181619061CF4C3010E94CA212F9642
:1046D0000FB6F894DEBF0FBECDBFCF91DF911F9113
:1046E0000F91FF90EF90DF90CF90AF908F907F90E1
:1046F0006F905F904F903F902F9008956F927F92B0
:104700008F92AF92CF92DF92EF92FF920F931F930F
:10471000DF93CF93CDB7DEB765970FB6F894DEBFC2
:104720000FBECDBF3C011A8219821C821B821E82E1
:104730001D8288E795E00E940134181619061CF4C2
:10474000C3010E94CA218EEF92E0BE016F5F7F4FCE
:10475000AE014D5F5F4F9E012B5F3F4F01E00E9416
:10476000221B8DB79EB70A970FB6F8949EBF0FBE57
:104770008DBFEDB7FEB731968E01095F1F4FADB704
:10478000BEB712961C930E9311978BE691E093831C
:10479000828389819A81958384838B819C8197838D
:1047A00086838D819E81918780870E94D1058DB7F8
:1047B0009EB70A960FB6F8949EBF0FBE8DBFC30179
:1047C00064E771E040E050E022E030E00F2EF0E0DE
:1047D000CF2EF0E0DF2EF0E0EF2EF0E0FF2EF02DF8
:1047E000AA24A39488240E94C61C88E795E00E940E
:1047F0000134181619061CF4C3010E94CA216596DB
:104800000FB6F894DEBF0FBECDBFCF91DF911F91E1
:104810000F91FF90EF90DF90CF90AF908F907F90AF
:104820006F9008958F92AF92CF92DF92EF92FF92A6
:104830000F931F93CF93DF93EC0188E795E00E94DD
:104840000134181619061CF4CE010E94CA2186E212
:1048500092E00E9477166B017C01CE0164E771E063
:1048600040E050E021E030E000E010E0AA2488249D
:104870000E94C61C88E795E00E94013418161906AC
:104880001CF4CE010E94CA21DF91CF911F910F919C
:10489000FF90EF90DF90CF90AF908F9008956F9240
:1048A0007F928F92AF92CF92DF92EF92FF920F930F
:1048B0001F93DF93CF93CDB7DEB727970FB6F8944A
:1048C000DEBF0FBECDBF3C0188E795E00E940134FA
:1048D000181619061CF4C3010E94CA2185B1082FBD
:1048E00010E003701070CE0101965F9B03C066E775
:1048F00071E002C069E771E00E947204CE01019686
:1049000000FF03C066E771E002C069E771E00E9442
:104910005E04CE01019601FF03C066E771E002C0AC
:1049200069E771E00E945E04C30164E771E040E062
:1049300050E028EE33E08E010F5F1F4F0F2EF0E0A6
:10494000CF2EF0E0DF2EF0E0EF2EF0E0FF2EF02D86
:10495000AA24A39488240E94C61C88E795E00E949C
:104960000134181619061CF4C3010E94CA212796A7
:104970000FB6F894DEBF0FBECDBFCF91DF911F9170
:104980000F91FF90EF90DF90CF90AF908F907F903E
:104990006F900895FF920F931F93162F05B1FBB0F0
:1049A00087E061E00E94433288E061E00E94433288
:1049B00089E061E00E944332812F60E00E9443322F
:1049C0006CE370E080E090E00E94FD3087E061E001
:1049D0000E94433288E061E00E94433289E061E056
:1049E0000E94433264E170E080E090E00E94FD307C
:1049F00005B9FBB81F910F91FF9008958F929F9278
:104A0000AF92BF92CF92DF92EF92FF920F931F93DC
:104A1000CF93DF93EC0188E795E00E9401341816EC
:104A200019061CF4CE010E94CA218EEE93E061E0CB
:104A300070E00E94092F8EEE93E00E94A82A88233E
:104A400009F47EC08EEE93E00E94D52A8901F42EEF
:104A5000E52ED62EC72EB82EA92E822F812B8F2978
:104A60008E298D298C298B298A2951F1CE0168E064
:104A70000E94CA248EEE93E00E94EB2A039751F421
:104A8000CE012F2D3E2D4D2D5C2D6B2D7A2D0E94AC
:104A9000501F52C08EEE93E00E94EB2A049751F40F
:104AA000CE012F2D3E2D4D2D5C2D6B2D7A2D0E948C
:104AB0009A1D42C08EEE93E00E94E62A819750F044
:104AC000CE016CE771E040E050E02BE030E004E71D
:104AD00011E023C08EEE93E00E94D52A8901D42EE6
:104AE000C52EB62EA72E982E892E8EEE93E00E940C
:104AF000E62A7C018BEA93E02D2D3C2D4B2D5A2D7F
:104B0000692D782D0E94411CCE016CE771E040E0D8
:104B100050E02BE030E00BEA13E00F2EF0E0CF2E58
:104B2000F0E0DF2EF0E0EF2EF0E0FF2EF02DAA24D3
:104B3000A39488240E94C61C8EEE93E00E94C42A8F
:104B400088E795E00E940134181619061CF4CE017E
:104B50000E94CA21DF91CF911F910F91FF90EF909A
:104B6000DF90CF90BF90AF909F908F9008950F935C
:104B70001F93182F0E949B316AE070E080E090E064
:104B80000E94FD30812F0E949B31182F092F64E174
:104B900070E080E090E00E94FD30812F902F1F9107
:104BA0000F9108954F925F926F927F928F92AF9282
:104BB000CF92DF92EF92FF920F931F93CF93DF93E9
:104BC0003C012B01FB01108288E795E00E94013433
:104BD000181619061CF4C3010E94CA2185E190E051
:104BE0000E94B725BC0186E292E040E00E94DD17FA
:104BF000EC018091920190919301FFEF8F3F9F070D
:104C000039F5D7FD25C09093990180939801C30190
:104C100061E871E040E050E09E0100E010E00F2EFE
:104C2000F0E0CF2EF0E0DF2EF0E0EF2EF0E0FF2EF0
:104C3000F02DAA24882483940E94C61CC630D10576
:104C400039F41092F8031092FA031092F90333C06A
:104C5000C830D10571F483E0F20180838091920124
:104C600090919301089719F081E08093F70311E088
:104C7000C2C0CB30D10509F4BDC0D7FD9FC020977D
:104C8000D1F485E190E00E94B725AA2797FDA09571
:104C9000BA2FBC01CD010E9443376B017C01C301D7
:104CA00061E871E040E050E020E030E000E010E03A
:104CB000AA2488249DC086E292E063E0AE010E94AF
:104CC000F3162C01C630D10509F04DC02091F9032F
:104CD0003091FA03280F391F3093FA032093F90318
:104CE0008091F8038F5F8093F8038A3008F461C0E5
:104CF000C9016AE070E00E94F439882777FD809549
:104D0000982F0E94433720EF36E148EC5DE30E9484
:104D1000F73720E030E040E251E40E94F7370E948C
:104D20001037882777FD8095982F0E94433720E021
:104D300030E040E251E40E94A8366B017C01C301DF
:104D400061E871E040E050E026E030E000E010E093
:104D5000AA2488240E94C61C1092F8031092FA0319
:104D60001092F90326C0C530D10539F0C730D105FE
:104D700021F0F3E0CA3EDF0739F480919801909169
:104D8000990184159505A9F0B201882777FD8095D2
:104D9000982F0E9443376B017C01C30161E871E0E9
:104DA00040E050E09E0100E010E0AA2488240E9428
:104DB000C61C50929901409298011CC0209192010A
:104DC0003091930137FD16C0C30161E871E040E006
:104DD00050E000E010E00F2EF0E0CF2EF0E0DF2EEC
:104DE000F0E0EF2EF0E0FF2EF02DAA24B2E08B2EA3
:104DF0000E94C61C10E0D0939301C093920188E7F3
:104E000095E00E940134181619061CF4C3010E9493
:104E1000CA21812FDF91CF911F910F91FF90EF90C9
:104E2000DF90CF90AF908F907F906F905F904F907A
:104E300008954F925F926F927F928F92AF92CF922E
:104E4000DF92EF92FF920F931F93CF93DF933C017A
:104E50002B01FB01108288E795E00E9401341816AF
:104E600019061CF4C3010E94CA2184E190E00E944B
:104E7000B725BC0186E292E040E00E94DD17EC011C
:104E80008091900190919101FFEF8F3F9F0739F53D
:104E9000D7FD25C09093970180939601C30163E8E5
:104EA00071E040E050E09E0100E010E00F2EF0E0E5
:104EB000CF2EF0E0DF2EF0E0EF2EF0E0FF2EF02D11
:104EC000AA24882483940E94C61CC630D10539F4D4
:104ED0001092F8031092FA031092F90333C0C8300D
:104EE000D10571F482E0F20180838091900190916C
:104EF0009101089719F081E08093F70311E0C2C097
:104F0000CB30D10509F4BDC0D7FD9FC02097D1F4A7
:104F100084E190E00E94B725AA2797FDA095BA2FBB
:104F2000BC01CD010E9443376B017C01C30163E8E2
:104F300071E040E050E020E030E000E010E0AA2422
:104F400088249DC086E292E062E0AE010E94F316E2
:104F50002C01C630D10509F04DC02091F9033091E4
:104F6000FA03280F391F3093FA032093F903809135
:104F7000F8038F5F8093F8038A3008F461C0C90199
:104F80006AE070E00E94F439882777FD8095982FB9
:104F90000E94433720EF36E148EC5DE30E94F7378B
:104FA00020E030E040E251E40E94F7370E941037E1
:104FB000882777FD8095982F0E94433720E030E0C6
:104FC00040E251E40E94A8366B017C01C30163E812
:104FD00071E040E050E026E030E000E010E0AA247C
:104FE00088240E94C61C1092F8031092FA031092B3
:104FF000F90326C0C530D10539F0C730D10521F0FD
:10500000F3E0CA3EDF0739F4809196019091970151
:1050100084159505A9F0B201882777FD8095982F12
:105020000E9443376B017C01C30163E871E040E0FB
:1050300050E09E0100E010E0AA2488240E94C61CD3
:1050400050929701409296011CC02091900130919E
:10505000910137FD16C0C30163E871E040E050E004
:1050600000E010E00F2EF0E0CF2EF0E0DF2EF0E0B9
:10507000EF2EF0E0FF2EF02DAA24E2E08E2E0E940B
:10508000C61C10E088E795E00E9401341816190646
:105090001CF4C3010E94CA21D0939101C0939001D6
:1050A000812FDF91CF911F910F91FF90EF90DF90B3
:1050B000CF90AF908F907F906F905F904F900895BA
:1050C0004F925F926F927F928F92AF92CF92DF92C8
:1050D000EF92FF920F931F93CF93DF933C012B012D
:1050E000FB01108288E795E00E940134181619062A
:1050F0001CF4C3010E94CA2181E190E00E94B725FF
:10510000BC0186E292E040E00E94DD17EC01809154
:105110008E0190918F01FFEF8F3F9F0739F5D7FDEB
:1051200025C09093950180939401C3016CE771E0D1
:1051300040E050E09E0100E010E00F2EF0E0CF2EA6
:10514000F0E0DF2EF0E0EF2EF0E0FF2EF02DAA24AD
:10515000882483940E94C61CC630D10539F410926D
:10516000F8031092FA031092F9030AC0CB30D1056C
:1051700039F48EEE93E061E070E00E94092F32C0B6
:105180008EEE93E00E94D82EC830D10569F421E05C
:10519000F201208380918E0190918F01089711F088
:1051A0002093F70311E0E3C0D7FDC4C02097D1F4EA
:1051B00081E190E00E94B725AA2797FDA095BA2F1C
:1051C000BC01CD010E9443376B017C01C3016CE738
:1051D00071E040E050E020E030E000E010E0AA2480
:1051E0008824C2C0CB30D10511F580918E019091F9
:1051F0008F010B97C1F0C3016CE771E040E050E014
:105200002BE030E005E811E00F2EF0E0CF2EF0E0CB
:10521000DF2EF0E0EF2EF0E0FF2EF02DAA24A39475
:1052200088240E94C61CC3010E94FE249FC086E2FF
:1052300092E061E0AE010E94F3162C01C630D10568
:1052400009F04DC02091F9033091FA03280F391F5E
:105250003093FA032093F9038091F8038F5F8093D2
:10526000F8038A3008F461C0C9016AE070E00E9466
:10527000F439882777FD8095982F0E94433720EFD7
:1052800036E148EC5DE30E94F73720E030E040E291
:1052900051E40E94F7370E941037882777FD8095E8
:1052A000982F0E94433720E030E040E251E40E9412
:1052B000A8366B017C01C3016CE771E040E050E06F
:1052C00026E030E000E010E0AA2488240E94C61CFA
:1052D0001092F8031092FA031092F90326C0C53019
:1052E000D10539F0C730D10521F0F3E0CA3EDF0720
:1052F00039F4809194019091950184159505A9F058
:10530000B201882777FD8095982F0E9443376B0163
:105310007C01C3016CE771E040E050E09E0100E0D9
:1053200010E0AA2488240E94C61C50929501409245
:1053300094011CC020918E0130918F0137FD16C061
:10534000C3016CE771E040E050E000E010E00F2E98
:10535000F0E0CF2EF0E0DF2EF0E0EF2EF0E0FF2EB9
:10536000F02DAA24F2E08F2E0E94C61C10E0D093EC
:105370008F01C0938E0188E795E00E9401341816D2
:1053800019061CF4C3010E94CA21812FDF91CF911D
:105390001F910F91FF90EF90DF90CF90AF908F9083
:1053A0007F906F905F904F900895AF92BF92CF9291
:1053B000DF92EF92FF921F93DF93CF930F92CDB7BF
:1053C000DEB77C0119820E947E23C701BE016F5F98
:1053D0007F4F0E946028182F0E94C9305B016C012A
:1053E0001123D1F08091F703882391F4F701808194
:1053F0009181A281B381A6019501281B390B4A0B2B
:105400005B0BDA01C90181539547A040B04020F001
:10541000C70169810E94CB22C701BE016F5F7F4F28
:105420000E9419278823D1F08091F703882391F4F3
:10543000F70180819181A281B381A6019501281B8A
:10544000390B4A0B5B0BDA01C90181539547A04028
:10545000B04020F0C70169810E94CB22C701BE0184
:105460006F5F7F4F0E94D2258823D1F08091F70390
:10547000882391F4F70180819181A281B381A601F3
:105480009501281B390B4A0B5B0BDA01C9018153CB
:105490009547A040B04020F0C70169810E94CB220F
:1054A000F70180819181A281B381A6019501281B1A
:1054B000390B4A0B5B0BDA01C90181539547A040B8
:1054C000B04058F0C7010E944F24C7010E94122427
:1054D000F701A082B182C282D3820F90CF91DF9177
:1054E0001F91FF90EF90DF90CF90BF90AF90089505
:1054F000FC018FEF9FEF91838083938382831092CF
:10550000FB031092FC031092FD031092FE03109215
:10551000FF031092000410920104109202048AE02A
:1055200090E0978386838CE390E090939B01809337
:105530009A0181E080878EE591E0958384830895C8
:10554000FC01758364830895FC0177836683089565
:1055500020E08091FB039091FC03892B9091FD0347
:10556000892B9091FE03892B9091FF03892B9091B9
:105570000004892B90910104892B90910204892BBE
:1055800009F021E0822F08951092FB031092FC0392
:105590001092FD031092FE031092FF03109200047C
:1055A000109201041092020408952091FB0330919F
:1055B000FC034091FD035091FE036091FF03709145
:1055C00000048091010490910204089580910304E5
:1055D000909104040895809107049091080408951F
:1055E0002F923F924F925F926F927F928F929F92F3
:1055F000AF92BF92CF92DF92EF92FF920F931F93E1
:10560000DF93CF93CDB7DEB762970FB6F894DEBFC6
:105610000FBECDBF3C018091090490910A046FE157
:1056200070E00E94E0394B017B0100E010E0209126
:105630009A0130919B01442737FD4095542FC801B2
:10564000B7010E94C1390E9441372AE037ED43E299
:105650005CE30E94F7370E941537A8019701220FDB
:10566000331F441F551F2E0D3F1D401F511F590151
:105670006A01A61AB70AC80AD90AAD82BE82CF82C9
:10568000D8865B016C01A20EB31EC41ED51EA98272
:10569000BA82CB82DC8221E030E03A872987AA24D3
:1056A000BB24650117012801261A370A480A590A3E
:1056B000A8019701260F371F481F591F2F87388BC6
:1056C000498B5A8B7AC0E985FA85EE0FFF1FE75F99
:1056D000FB4F808191819C0140E050E0221633060F
:1056E0004406550658F58F859889A989BA892817DF
:1056F00039074A075B0710F5E985FA85EE0FFF1FAA
:10570000E55FFB4F0190F081E02D7F0100E010E0AC
:10571000EB86FC860D871E878D819E81AF81B885C3
:105720008E159F05A007B10748F489819A81AB8146
:10573000BC81E816F9060A071B0778F1ED80FE80A8
:105740000F811885E216F3060407150758F58981BD
:105750009A81AB81BC81281739074A075B0710F58E
:10576000E985FA85EE0FFF1FE55FFB4F8081918190
:10577000A0E0B0E0281639064A065B0698F4EF84EC
:10578000F88809891A898E159F05A007B10750F47A
:105790000894A11CB11CC11CD11CAA0CBB1CCC1CA4
:1057A000DD1C05C07A866986AA24BB2465010985AB
:1057B0001A850E5F1F4F1A87098729853A85261596
:1057C000370508F480CFA601950156954795379582
:1057D000279587E06816710440F1211531054105D0
:1057E000510511F480E028C02093FB033093FC03A3
:1057F0004093FD035093FE031092FF0310920004A8
:10580000109201041092020476946794709204043A
:1058100060920304909206048092050481E090E077
:10582000909308048093070406C080E02115310599
:105830004105510509F081E062960FB6F894DEBF8C
:105840000FBECDBFCF91DF911F910F91FF90EF90D1
:10585000DF90CF90BF90AF909F908F907F906F9090
:105860005F904F903F902F9008952F923F924F92CC
:105870005F926F927F928F929F92AF92BF92CF92E0
:10588000DF92EF92FF920F931F93DF93CF93CDB7E9
:10589000DEB762970FB6F894DEBF0FBECDBF3C01F6
:1058A0008091090490910A046AE070E00E94E03956
:1058B0004B017B0100E010E020919A0130919B01A7
:1058C000442737FD4095542FC801B7010E94C139C4
:1058D0000E9441372AE037ED43E25CE30E94F7374C
:1058E0000E941537A8019701220F331F441F551F2F
:1058F00059016A01A61AB70AC80AD90AAD82BE823E
:10590000CF82D8865B016C01A20EB31EC41ED51EC9
:10591000A982BA82CB82DC82AA24BB24650121E061
:1059200030E03A87298717012801261A370A480AE2
:10593000590AA8019701260F371F481F591F2F87A3
:10594000388B498B5A8B7AC0E985FA85EE0FFF1F99
:10595000E75FFB4F808191819C0140E050E022167F
:1059600033064406550658F58F859889A989BA8962
:10597000281739074A075B0710F5E985FA85EE0F06
:10598000FF1FE55FFB4F0190F081E02D7F0100E0FC
:1059900010E0EB86FC860D871E878D819E81AF818E
:1059A000B8858E159F05A007B10748F489819A81B3
:1059B000AB81BC81E816F9060A071B0778F1ED8078
:1059C000FE800F811885E216F3060407150758F5C7
:1059D00089819A81AB81BC81281739074A075B0707
:1059E00010F5E985FA85EE0FFF1FE55FFB4F80811B
:1059F0009181A0E0B0E0281639064A065B0698F4CB
:105A0000EF84F88809891A898E159F05A007B107C8
:105A100050F40894A11CB11CC11CD11CAA0CBB1CC5
:105A2000CC1CDD1C05C07A866986AA24BB246501CE
:105A300009851A850E5F1F4F1A87098729853A85C0
:105A40002615370508F480CFA60195015695479590
:105A50003795279587E06816710440F121153105C7
:105A60004105510511F480E028C02093FB033093D9
:105A7000FC034093FD035093FE031092FF0310922A
:105A800000041092010410920204769467947092BC
:105A9000040460920304909206048092050482E05C
:105AA00090E0909308048093070406C080E02115DD
:105AB00031054105510509F081E062960FB6F89471
:105AC000DEBF0FBECDBFCF91DF911F910F91FF9031
:105AD000EF90DF90CF90BF90AF909F908F907F908E
