:100000000C94B6000C94F7300C9424310C94DE0060
:100010000C94DE000C94DE000C94DE000C94DE00E8
:100020000C94DE000C94DE000C94DE000C94DE00D8
:100030000C94DE000C94DE000C94DE000C94DE00C8
:100040000C9451310C94DE000C94BB330C940234AC
:100050000C94DE000C94DE000C94DE000C94DE00A8
:100060000C945C190C94DE0007634236B79BD8A74A
:100070001A39685618AEBAAB558C1D3CB7CC5763CD
:10008000BD6DEDFD753EF6177231BF000000803F7B
:1000900008000000BE922449123EABAAAA2ABECD97
:1000A000CCCC4C3E00000080BEABAAAAAA3E000009
:1000B0000000BF000000803F000000000008417801
:1000C000D3BB4387D1133D190E3CC3BD4282AD2B38
:1000D0003E68EC8276BED98FE1A93E4C80EFFFBE30
:1000E00001C4FF7F3F000000000074727565006668
:1000F000616C7365006E756C6C0025750025752E3E
:10010000002D0025640000000000240027002A00C4
:1001100000000000250028002B0000000000230044
:100120002600290004040404040404040202020258
:1001300002020303030303030102040810204080AA
:10014000010204081020010204081020000000072A
:10015000000201000003040600000000000000008F
:10016000C60A71167718401CC11C793511241FBEB0
:10017000CFEFD8E0DEBFCDBF11E0A0E0B1E0E6E810
:10018000F6E702C005900D92A83FB107D9F716E037
:10019000A8EFB1E001C01D92AD39B107E1F711E060
:1001A000CCE6D1E004C02297FE010E94FB3AC036A3
:1001B000D107C9F70E94C9350C94413B0C9400004B
:1001C000EF92FF920F93DF93CF93CDB7DEB7609797
:1001D0000FB6F894DEBF0FBECDBFA82F002309F4E1
:1001E00061C07E010894E11CF11C88E0F7011192C6
:1001F0008A95E9F729833A834B835C836D837E83F9
:10020000AF83988780E2801BE82FFF27E7FDF095FA
:100210004D815E816F817885181684F01D861E865B
:100220001F86188A882799278E1B9F0B04C07695F6
:100230006795579547958A95D2F728C0202F332781
:1002400027FD3095DB01CA01022E04C0B695A795A3
:10025000979587950A94D2F78D879E87AF87B88B3D
:1002600004C0440F551F661F771FEA95D2F7898196
:100270009A81AB81BC8104C0B695A7959795879567
:100280002A95D2F7482B592B6A2B7B2B49875A8703
:100290006B877C8729853A854B855C856D857E8556
:1002A000AF8598898A2F60960FB6F894DEBF0FBE8F
:1002B000CDBFCF91DF910F91FF90EF900895EF9216
:1002C000FF920F93DF93CF93CDB7DEB760970FB652
:1002D000F894DEBF0FBECDBFA82F002309F461C084
:1002E0007E010894E11CF11C88E0F70111928A95C7
:1002F000E9F729833A834B835C836D837E83AF83E5
:10030000988780E2801BE82FFF27E7FDF095498161
:100310005A816B817C81181684F019861A861B8697
:100320001C86882799278E1B9F0B04C0440F551FDE
:10033000661F771F8A95D2F728C0202F332727FD05
:100340003095DB01CA01022E04C0880F991FAA1F35
:10035000BB1F0A94D2F789879A87AB87BC8704C0F2
:100360007695679557954795EA95D2F78D819E8149
:10037000AF81B88504C0880F991FAA1FBB1F2A959B
:10038000D2F7482B592B6A2B7B2B4D875E876F87C3
:10039000788B29853A854B855C856D857E85AF8513
:1003A00098898A2F60960FB6F894DEBF0FBECDBF36
:1003B000CF91DF910F91FF90EF900895CF93DF934E
:1003C000BC018230910510F462E070E0A0919306C8
:1003D000B0919406ED01E0E0F0E040E050E021C093
:1003E000888199818617970769F48A819B81309764
:1003F00019F09383828304C09093940680939306AC
:10040000FE0134C06817790738F44115510519F019
:100410008417950708F4AC01FE018A819B819C0139
:10042000E9012097E9F641155105A9F1CA01861B9A
:10043000970B049708F4BA01E0E0F0E02AC08D9130
:100440009C91119784179507F9F46417750781F447
:1004500012968D919C911397309719F09383828314
:1004600004C09093940680939306FD0132964CC08D
:10047000CA01861B970BFD01E80FF91F6193719369
:1004800002978D939C9340C0FD01828193819C01D2
:10049000D9011097A1F68091910690919206892B2F
:1004A00041F480918501909186019093920680930A
:1004B000910640918701509188014115510541F401
:1004C0004DB75EB78091830190918401481B590B11
:1004D0002091910630919206CA01821B930B8617D8
:1004E000970780F0AB014E5F5F4F8417950750F080
:1004F000420F531F5093920640939106F901619366
:10050000719302C0E0E0F0E0CF01DF91CF91089558
:10051000CF93DF93009709F450C0EC0122971B8220
:100520001A82A0919306B0919406109709F140E0C9
:1005300050E0AC17BD0708F1BB83AA83FE012191EF
:100540003191E20FF31FAE17BF0779F48D919C91A3
:100550001197280F391F2E5F3F4F3983288312963A
:100560008D919C9113979B838A834115510571F45A
:10057000D0939406C093930620C012968D919C91BF
:100580001397AD01009711F0DC01D3CFFA01D383AB
:10059000C28321913191E20FF31FCE17DF0769F477
:1005A00088819981280F391F2E5F3F4FFA013183CF
:1005B00020838A819B8193838283DF91CF910895E9
:1005C0002F923F925F926F927F928F929F92AF9203
:1005D000BF92CF92DF92EF92FF920F931F93CF9330
:1005E000DF938C011B01EA016115710519F0FB0114
:1005F00091838083209749F0CE010297839728F05A
:1006000020E030E040E050E0F6C0F801A1908F011A
:100610008A2D90E00E94FF3A892BB9F7FDE2AF16D0
:1006200031F4F801A1908F015524539407C0FBE2E7
:10063000AF1619F4F801A1908F015524209719F0F5
:10064000C031D105C1F4F0E3AF1679F4F80180812F
:10065000883711F0883549F4F801A1800E5F1F4FEB
:10066000F2E05F2AC0E1D0E006C0209721F480E3E9
:10067000A816E9F427C0C830D10531F1C930D10539
:1006800024F4C230D10531F50CC0CA30D10589F04F
:10069000C031D105F9F4C12CD12CE12CB8E0FB2EEE
:1006A00028C0C12CD12CE12CA0E4FA2E22C0CAE033
:1006B000D0E0FCECCF2EFCECDF2EFCECEF2EFCE0CF
:1006C000FF2E17C0C8E0D0E0C12CD12CE12CE0E116
:1006D000FE2E0FC09E01442737FD4095542F60E049
:1006E00070E080E090E80E94D73AC901DA016C011D
:1006F0007D0120E030E040E050E060E03E018824F1
:1007000077FC8094982C70EDB72EBA0CE9E0EB15CD
:1007100070F48A2D81548A3118F499ECB92E06C0F0
:100720008A2D81568A3150F589EAB82EBA0C8B2D64
:1007300090E08C179D0714F56F3FE1F0C216D306C9
:10074000E406F506B0F0CA01B901A40193010E94C4
:10075000913A9B01AC012B0D311D411D511D2130E2
:10076000F0E03F07F0E04F07F0E85F0710F461E0CA
:1007700001C06FEFF801A1908F01C5CF21143104A2
:1007800081F0662331F001501040F10111830083A4
:1007900008C051FE1AC002501040F10111830083BD
:1007A00014C067FF12C050FC05C02FEF3FEF4FEFA2
:1007B0005FE704C020E030E040E050E882E290E0F3
:1007C00090939C0680939B0616C050FE08C05095DF
:1007D0004095309521953F4F4F4F5F4F0CC057FFCD
:1007E0000AC082E290E090939C0680939B062FEFD4
:1007F0003FEF4FEF5FE7B901CA01DF91CF911F9142
:100800000F91FF90EF90DF90CF90BF90AF909F90AF
:100810008F907F906F905F903F902F900895FC0194
:1008200088279927E89421912032E9F3293010F0A4
:100830002E30C8F32B3241F02D3239F4689404C0C5
:100840000E949604820F911D219120532A30C0F3FB
:100850001EF4909581959F4F08950F931F93CF930A
:10086000DF93182F092FE82FF92FDF010D900020BB
:10087000E9F7CD018E1B9F0B0E94DE01EC01009772
:1008800021F0612F702F0E947204CE01DF91CF9171
:100890001F910F910895FB01DC018D9181341CF0B3
:1008A0008B350CF4805E619161341CF06B350CF477
:1008B000605E861B611189F3990B0895FB01DC01D1
:1008C0000D900020E9F7119701900D920020E1F7BB
:1008D0000895FB01DC018D91019080190110D9F37D
:1008E000990B0895FB01DC0101900D920020E1F7C6
:1008F0000895FB01DC014150504030F08D91019092
:10090000801919F40020B9F7881B990B0895FB0191
:10091000DC014150504048F001900D920020C9F791
:1009200001C01D9241505040E0F708957AE0979F32
:10093000902D879F802D910D11240895FC018381B6
:1009400087FF24C080919506909196068E179F0789
:1009500021F4109296061092950680919706909138
:1009600098068E179F0721F410929806109297060A
:100970008091990690919A068E179F0721F4109204
:100980009A0610929906CF010E94880280E090E0BA
:1009900008950F931F93CF93DF938C01EB01009782
:1009A00031F46115710519F420E030E038C081E0C0
:1009B00090E06EE070E00E94EC07FC019C01009763
:1009C00071F180E88383209771F0D387C28781E833
:1009D00083838091950690919606892B21F4F0935C
:1009E0009606E093950601151105C9F01187008759
:1009F0008381826083838091970690919806892BEA
:100A000071F4F0939806E09397068091990690917F
:100A10009A06892B21F4F0939A06E0939906C9016E
:100A2000DF91CF911F910F910895CF93DF93EC0148
:100A30004B8140FF1AC046FF0AC04F7B4B838E811B
:100A40009F8101969F838E838A81282F2BC042FF2E
:100A500013C0E881F9818081282F332727FD309545
:100A60002115310529F440624B832FEF3FEF1BC066
:100A70003196F983E88311C0EA85FB85CE0109959B
:100A80009C0197FF0AC09B812F5F3F4F11F080E2CE
:100A900001C080E1892B8B83E8CF8E819F810196F5
:100AA0009F838E8330E0C901DF91CF910895A0E04C
:100AB000B0E0EDE5F5E00C94183B0F8118859E0140
:100AC000255F3F4FF801838188608383C801698572
:100AD0007A85A9010E940F06F8012381277F2383CD
:100AE0002096E4E00C94343B0F931F93CF93DF9355
:100AF0008C01EB018B8181FF1BC082FF0DC02E8119
:100B00003F818C819D812817390764F4E881F98140
:100B10000193F983E88306C0E885F985802F09955C
:100B2000892B31F48E819F8101969F838E8302C031
:100B30000FEF1FEFC801DF91CF911F910F91089523
:100B4000A0E0B0E0E6EAF5E00C94103BFC014B01BC
:100B50005A016901D90113968C9180FF1AC07F0157
:100B6000C0E0D0E010C0C6010E941505BFEF8F3F66
:100B70009B0789F0F70181937F010F5F1F4F0815D5
:100B8000190588F32196CA15DB0528F400E010E06A
:100B9000F6CFC0E0D0E0CE01CDB7DEB7ECE00C94EC
:100BA0002C3BAEE0B0E0E7EDF5E00C94183B0D898E
:100BB0001E8986E08C831A8309838FEF9FE79E83CB
:100BC0008D839E01275E3F4FCE0101966F89788D00
:100BD000A9010E940F062F813885020F131FF8010B
:100BE00010822E96E4E00C94343B9C01FB0183813F
:100BF00080FF11C086FD0FC09FEF2F3F390759F0CE
:100C0000228380648F7D8383868197810197978378
:100C1000868330E002C02FEF3FEFC9010895ABE0BB
:100C2000B0E0E5E1F6E00C940A3B3C012B015A01EF
:100C3000FC0117821682838181FD03C06FEF7FEF75
:100C4000C6C19AE0892E1E010894211C311CF301B3
:100C50002381F20123FD859123FF81912F018823B8
:100C600009F4B2C1853239F423FD859123FF8191C6
:100C70002F01853229F490E0B3010E947405E7CF7B
:100C8000982FFF24EE249924FFE1FF15D0F09B322A
:100C900069F09C3228F4903259F0933291F40EC0EE
:100CA0009D3249F0903369F441E024C052E0F52AC6
:100CB00084E0F82A28C098E0F92A25C0E0E1FE2A5D
:100CC00022C0F7FC29C0892F80538A3070F4F6FEC9
:100CD00005C0989C902C1124980E15C0E89CE02C1F
:100CE0001124E80EF0E2FF2A0EC09E3229F4F6FC31
:100CF0006BC140E4F42A07C09C3619F450E8F52A89
:100D000002C0983649F4F20123FD959123FF919199
:100D10002F01992309F0B8CF892F8554833018F01B
:100D20008052833038F444E050E0A40EB51E5FE3F7
:100D300059830FC0933631F0933779F0933509F02A
:100D400056C020C0F5018081898342E050E0A40EA6
:100D5000B51E610101E010E012C0F501C080D18034
:100D6000F6FC03C06FEF7FEF02C0692D70E042E038
:100D700050E0A40EB51EC6010E941A088C015FE760
:100D8000F52214C0F501C080D180F6FC03C06FEFDE
:100D90007FEF02C0692D70E042E050E0A40EB51E66
:100DA000C6010E9408088C0150E8F52AF3FE07C02E
:100DB0001AC080E290E0B3010E947405EA948E2D7F
:100DC00090E008171907A8F30EC0F601F7FC85910B
:100DD000F7FE81916F0190E0B3010E947405E1106C
:100DE000EA94015010400115110579F7EAC09436D4
:100DF00011F0993669F5F7FE08C0F50120813181BF
:100E00004281538184E090E00AC0F50180819181A4
:100E10009C01442737FD4095542F82E090E0A80EB6
:100E2000B91E9FE6F92257FF09C0509540953095AD
:100E300021953F4F4F4F5F4FE0E8FE2ACA01B901AD
:100E4000A1012AE030E00E942508D82ED21840C027
:100E5000953729F41F2D1F7E2AE030E01DC01F2D7D
:100E6000197F9F3661F0903720F4983509F0ACC0B7
:100E70000FC0903739F0983709F0A6C004C028E0B9
:100E800030E00AC0106114FD146020E130E004C0BD
:100E900014FD166020E132E017FF08C0F501608103
:100EA00071818281938144E050E008C0F501808126
:100EB0009181BC0180E090E042E050E0A40EB51EBC
:100EC000A1010E942508D82ED2188FE7F82EF12212
:100ED000F6FE0BC05EEFF522D91438F4F4FE07C01D
:100EE000F2FC05C08FEEF82202C01D2D01C0192DA5
:100EF000F4FE0DC0FE01ED0DF11D8081803319F46B
:100F000099EEF92208C01F5FF2FE05C003C08F2DC5
:100F1000867809F01F5F0F2DF3FC14C0F0FE0FC0A0
:100F20001E1510F09D2C0BC09D2C9E0C911A1E2D91
:100F300006C080E290E0B3010E9474051F5F1E1599
:100F4000C0F304C01E1510F4E11A01C0EE2404FF22
:100F50000FC080E390E0B3010E94740502FF1DC042
:100F600001FD03C088E790E00EC088E590E00BC06B
:100F7000802F867891F001FF02C08BE201C080E2F1
:100F8000F7FC8DE290E0B3010E94740506C080E397
:100F900090E0B3010E9474059A94D914C0F3DA94D6
:100FA000F101ED0DF11D808190E0B3010E94740507
:100FB000DD20A9F706C080E290E0B3010E9474052D
:100FC000EA94EE20C1F743CEF30166817781CB012D
:100FD0002B96E2E10C94263B0F931F93CF93DF9364
:100FE000689F8001699F100D789F100D1124C80122
:100FF0000E94DE01EC01009729F060E070E0A8019A
:101000000E941308CE01DF91CF911F910F91089597
:10101000FC010590615070400110D8F780959095C3
:101020008E0F9F1F0895DC0101C06D934150504009
:10103000E0F70895FC016150704001900110D8F76D
:10104000809590958E0F9F1F0895FA01AA2728304A
:1010500051F1203181F1E8946F936E7F6E5F7F4F85
:101060008F4F9F4FAF4FB1E03ED0B4E03CD0670F01
:10107000781F891F9A1FA11D680F791F8A1F911D54
:10108000A11D6A0F711D811D911DA11D20D009F4A4
:1010900068943F912AE0269F11243019305D3193E6
:1010A000DEF6CF010895462F4770405D4193B3E0CF
:1010B0000FD0C9F7F6CF462F4F70405D4A3318F076
:1010C000495D31FD4052419302D0A9F7EACFB4E027
:1010D000A6959795879577956795BA95C9F70097DF
:1010E0006105710508959B01AC010A2E0694579580
:1010F000479537952795BA95C9F7620F731F841FD7
:10110000951FA01D08950F931F9309EF12E0C801CA
:101110000E94142BC8010E94EB221F910F91089589
:101120000F931F9302E715E0C80140E855E260E025
:1011300070E00E944B34C8010E94023687E061E0F3
:101140000E94ED3288E061E00E94ED3289E061E0CA
:101150000E94ED3287E061E00E94133388E061E095
:101160000E94133389E061E00E94133389E060E05C
:101170000E9413331F910F910895DC01862F90E098
:10118000FC01E85CFE4FE491EC938C5D9E4FFC010A
:101190006491E62FF0E0EE0FFF1FE65EFE4F8591B3
:1011A000949112969C938E9311970895FC01278138
:1011B000308541855285B901CA010895FC01238516
:1011C000348545855685B901CA0108950F931F934B
:1011D0008C01862F90E0FC01E85CFE4FE491D80181
:1011E000EC938C5D9E4FFC016491E62FF0E0EE0FD6
:1011F000FF1FE65EFE4F8591949112969C938E930D
:1012000011970E949931D80113966D937D938D9318
:101210009C93169780E090E0A7ECB2ECF8018783EE
:101220009087A187B28783879487A587B6871F9108
:101230000F9108954F925F927F928F929F92AF92FB
:10124000BF92CF92DF92EF92FF920F931F93DF93A3
:10125000CF93CDB7DEB7A9970FB6F894DEBF0FBE18
:10126000CDBF5C01FC017080018112810E94993127
:101270009B01AC014E010894811C911C2401CE01FC
:101280008A96F20111922F01E817F907D1F7F501BB
:1012900083819481A581B68169017A01C81AD90A2E
:1012A000EA0AFB0AD701C601805D9740A040B04022
:1012B00018F427E030E02EC1F50123833483458301
:1012C0005683F894F8018181E72CE0948E21818384
:1012D0007894FF24C72CDD2407C0F394FEE7FF16A3
:1012E00019F421E030E016C182E090E00E9426323D
:1012F000F801808190E08C219D21892B71F3F89475
:10130000F80182818E21828381818729818378946B
:101310008CE494E00E942632F894F80181818E21B9
:1013200081837894FF2407C0F394FAE1FF1619F43F
:1013300022E030E0EFC082E090E00E942632F80127
:10134000808190E08C219D21892B71F3FF2407C0BF
:10135000F394F3E3FF1619F423E030E0DBC082E0FE
:1013600090E00E942632F801808190E08C219D213E
:10137000892B71F7FF2407C0F394F4E2FF1619F4E8
:1013800024E030E0C7C082E090E00E942632F801FD
:10139000808190E08C219D21892B71F3FF2406C070
:1013A000F3E3FF1619F425E030E0B4C0F39482E0D3
:1013B00090E00E942632F801808190E08C219D21EE
:1013C000892B71F7F401F1924F01E415F50591F6BF
:1013D000EE24FF2420E030E0DE01119660E170E0B1
:1013E00041E050E02F5F3F4FFD01E20FF31F80818E
:1013F0008C3058F0CB01821B930B6A0102C0CC0CDD
:10140000DD1C8A95E2F7EC28FD282031310551F7E3
:10141000FE01729600E010E02FE030E041E050E085
:1014200080818C3048F0CA01022E02C0880F991FBB
:101430000A94E2F7082B192B2150304031966FEFB8
:101440002F3F360769F7FE01B296DD2427E030E032
:1014500041E050E080818C3040F0CA01022E02C091
:10146000880F991F0A94E2F7D82A2150304031960C
:10147000E415F50579F7B7017F77882777FD809523
:10148000982F0E94133820E030E040E251E40E949F
:101490007837F501678370878187928717FF0DC0C2
:1014A0001F77B801882777FD8095982F0E94133801
:1014B00020E030E040E251EC0BC0B801882777FD16
:1014C0008095982F0E94133820E030E040E251E4EC
:1014D0000E947837F50163877487858796874D2D3D
:1014E00050E02F2D332727FD3A958E2D90E0820F67
:1014F000911D800F911D212F332727FD3A95820FD3
:10150000911D90704817590719F026E030E002C08D
:1015100020E030E0C901A9960FB6F894DEBF0FBEF7
:10152000CDBFCF91DF911F910F91FF90EF90DF9092
:10153000CF90BF90AF909F908F907F905F904F9093
:101540000895449A459AE9EBF0E080818E7F80838C
:1015500080818D7F808388E48093B80084E48093C9
:10156000BC000895FC018091F8019091FA01981B4C
:101570009093F901882319F41092F901089581508C
:101580008093F801E90FF11D828108950895EF928B
:10159000FF920F931F930E9499317B018C0184E984
:1015A0008093BC001BC021153105E1F00E949931E8
:1015B0006E197F09800B910B2091FB013091FC018A
:1015C00040E050E0621773078407950738F01092E7
:1015D000BC0084E48093BC0081E009C02091FB0141
:1015E0003091FC018091BC0084FDDDCF80E01F9133
:1015F0000F91FF90EF900895CF92DF92EF92FF92BC
:101600001F93162F0E9499316B017C01112311F059
:1016100084EC01C084E88093BC001BC02115310517
:10162000E1F00E9499316C197D098E099F09209182
:10163000FB013091FC0140E050E062177307840722
:10164000950738F01092BC0084E48093BC0091E0D0
:1016500019C02091FB013091FC018091BC0087FFF3
:10166000DDCF8091B900887F883349F49091B9002B
:10167000987F1092BC0084E48093BC0003C09091DA
:10168000B900987F892F1F91FF90EF90DF90CF9046
:101690000895EF92FF920F931F93CF93DF93EC0186
:1016A0006093BB000E9499317B018C0184E8809398
:1016B000BC001BC021153105E1F00E9499316E1963
:1016C0007F09800B910B2091FB013091FC0140E0E0
:1016D00050E0621773078407950738F01092BC003A
:1016E00084E48093BC0011E020C02091FB01309184
:1016F000FC018091BC0087FFDDCF8091B900887F1D
:10170000883211F410E011C01091B900187F809157
:10171000B900887F803321F4CE010E94C70A05C03A
:101720001092BC0084E48093BC00812FDF91CF91A4
:101730001F910F91FF90EF900895EF92FF920F93FA
:101740001F93CF93DF93EC016093BB000E9499310C
:101750007B018C0184E88093BC001BC021153105FE
:10176000E1F00E9499316E197F09800B910B209155
:10177000FB013091FC0140E050E0621773078407E1
:10178000950738F01092BC0084E48093BC0011E00F
:101790001DC02091FB013091FC018091BC0087FFAE
:1017A000DDCF8091B900887F883179F08091B900D0
:1017B000887F803499F409C08091B900887F88348B
:1017C000B1F4CE010E94C70A01C010E0812FDF9161
:1017D000CF911F910F91FF90EF9008951091B90054
:1017E000187F8091B900887F803231F7EACF10925C
:1017F000BC0084E48093BC00E9CFEF92FF920F938A
:101800001F930E9499317B018C0184EA8093BC0074
:101810001BC021153105E1F00E9499316E197F0935
:10182000800B910B2091FB013091FC0140E050E0D6
:10183000621773078407950738F01092BC0084E4A0
:101840008093BC0091E021C02091FB013091FC010C
:101850008091BC0087FFDDCF8091B900887F883000
:1018600099F08091B900887F8031A9F40DC09091E2
:10187000B900987F1092BC0084E48093BC0005C03E
:101880009091B900987F01C090E0892F1F910F912E
:10189000FF90EF9008958091B900887F883381F799
:1018A000E6CFEF92FF920F931F93CF93DF93EC015C
:1018B000162F042FE22E1092F8011092F901222324
:1018C00011F4EE24E394EA94E982E3941882CE01C1
:1018D0000E94FD0B8883882309F061C0110FCE019F
:1018E000612F0E949D0B8883882329F0813009F0A5
:1018F00056C082E054C0CE01602F0E94490B8883FD
:10190000882329F0813009F04AC083E048C0CE0125
:101910000E94FD0B8883882329F0813009F03FC0A5
:1019200084E03DC01F5FCE01612F0E949D0B888324
:10193000882319F48E01FF2425C0813081F585E0CC
:101940002EC08981F81651F4CE0160E00E94FC0A95
:101950008883813019F1883551F021C0CE0161E0D2
:101960000E94FC0A88838130C9F08035C1F48091DF
:10197000BB00F8018283F394F092F801F092FA012F
:101980000F5F1F4FFE14E8F2CE010E94C70A888342
:10199000882329F0813019F487E001C086E0DF91C7
:1019A000CF911F910F91FF90EF900895FF920F93A9
:1019B0001F93CF93DF93EC01162F042FF22E188282
:1019C0000E94FD0B8883882341F5110FCE01612F02
:1019D0000E949D0B8883882321F08130F1F482E0FE
:1019E0001CC0CE01602F0E94490B8883882339F4E4
:1019F000CE016F2D0E94490B8883882319F0813016
:101A000061F40AC0CE010E94C70A8883882329F0A6
:101A1000813019F487E001C083E0DF91CF911F91FD
:101A20000F91FF9008950F931F93CF93DF93EC01D5
:101A3000162F042F18820E94FD0B8883882301F53E
:101A4000110FCE01612F0E949D0B8883882321F006
:101A50008130B1F482E014C0CE01602F0E94490BA6
:101A60008883882321F0813059F483E009C0CE01B6
:101A70000E94C70A8883882319F0813009F487E01F
:101A8000DF91CF911F910F910895FB010680F7819F
:101A9000E02D80E004C08F5F0280F381E02D30975D
:101AA000D1F70895FB010680F781E02D04C0415075
:101AB0000280F381E02D309711F04423C1F7CF016C
:101AC0000895CF93DF93EB01DA01EE81FF81411599
:101AD000510591F0309719F45F834E830DC0CF010B
:101AE0000280F381E02D3097D1F7FC01B383A2830C
:101AF00015969C938E931497DF91CF9108950F9331
:101B00001F93CF93DF93FB018A01C681D78103C066
:101B10000A80DB81C02D209739F088819981B80136
:101B20000E944B04892BA1F7CE01DF91CF911F9129
:101B30000F910895EF92FF920F931F93CF93DF932E
:101B40007B018A01E9012115310511F18881998113
:101B5000009711F00E948802C8010E942D0488831A
:101B60009983D7011696ED91FC911797309729F438
:101B70001796DC93CE9316970BC0CF010280F381AA
:101B8000E02D3097D1F7FC01D383C2839D838C83F2
:101B9000DF91CF911F910F91FF90EF900895EF92F9
:101BA000FF920F931F93CF93DF938C01EB0123C020
:101BB000FA80EB80888587FD08C06E817F81611582
:101BC000710519F0C8010E94CF0D8885853031F468
:101BD00089859A85009711F00E94880288819981F1
:101BE000009711F00E948802CE010E9488028F2D7A
:101BF0009E2D9C01E9012097D9F6DF91CF911F918D
:101C00000F91FF90EF9008950F931F93CF93DF9361
:101C10008B01EA0182E290E0BA010E9474058F5FB5
:101C20009F4F09F464C00115110509F050C054C05C
:101C3000803240F0823231F08C3521F0992787FDD7
:101C4000909534C08CE590E0BE010E9474058F5FD2
:101C50009F4F09F44CC0F80180818C30C9F08D3061
:101C60003CF4893051F18A30B1F0883071F50DC003
:101C7000823241F08C3519F08D3039F515C08CE584
:101C800090E01DC082E290E008C082E690E00EC0C5
:101C900086E690E014C08EE690E0BE010E947405D6
:101CA0008F5F9F4F91F423C082E790E0BE010E94B6
:101CB00074058F5F9F4F49F41AC084E790E0BE011E
:101CC0000E9474058F5F9F4F91F00F5F1F4FF801C7
:101CD0008081882309F0ACCF82E290E0BE010E94AF
:101CE00074058F5F9F4F19F020E030E002C02FEFA6
:101CF0003FEFC901DF91CF911F910F910895CF93CD
:101D0000DF93EB016115710559F0CE010E941505B5
:101D10002FEF8F3F920721F081329105B4F306C077
:101D20002FEF3FEFC901DF91CF910895BE010E94CF
:101D3000F5058F5F9F4FA1F320E030E0F3CF6F9266
:101D40007F928F929F92AF92BF92CF92DF92EF924B
:101D5000FF920F931F93CF93DF93FB014A0161150D
:101D6000710509F4A5C0A184B284C384D484C601DA
:101D7000B50120E030E040E050E00E947437882355
:101D8000C4F400D000D0ADB7BEB712969C928E922C
:101D9000119781E091E014969C938E9313970E9483
:101DA0005705D7FAD094D7F8D0940F900F900F9092
:101DB0000F90C601B5010E94E5377B018C01EDB79C
:101DC000FEB738970FB6F894FEBF0FBEEDBF319641
:101DD000ADB7BEB712969C928E9211978DEF90E0A0
:101DE00093838283E482F582068317830E945705DA
:101DF000C801B7010E9411389B01AC01C601B501B1
:101E00000E940F372CEA35EC47EA56E30E94103760
:101E10007B018C01C5E0D0E0EDB7FEB738960FB678
:101E2000F894FEBF0FBEEDBF8AEF682E80E0782EDB
:101E3000C801B70120E030E040E251E40E94C73819
:101E40005B016C010E94E5377B0100D000D000D01F
:101E5000EDB7FEB73196ADB7BEB712969C928E9293
:101E6000119773826282758364830E94570500E034
:101E700010E0C801B7010E9411389B01AC01C601F6
:101E8000B5010E940F377B018C01EDB7FEB7369686
:101E90000FB6F894FEBF0FBEEDBF20E030E040E08B
:101EA00050E00E947437882319F0219709F0C0CFC1
:101EB00080E090E0DF91CF911F910F91FF90EF9024
:101EC000DF90CF90BF90AF909F908F907F906F905A
:101ED0000895CF93DF93DB016115710519F420E0BC
:101EE00030E01FC000D000D000D0EDB7FEB7319673
:101EF000CDB7DEB75A83498383E091E09383828331
:101F000019968D919C911A97958384830E94570509
:101F10009C018DB79EB706960FB6F8949EBF0FBE74
:101F20008DBFC901DF91CF910895FB016115710546
:101F300009F44BC020852330B1F124303CF421302A
:101F400049F1223064F4222399F03FC0253089F111
:101F5000253064F1263091F12730B9F532C000D038
:101F600000D0EDB7FEB75283418385EF90E008C003
:101F700000D000D0EDB7FEB7528341838FEE90E0E2
:101F8000948383830E9457059C010F900F900F90BC
:101F90000F901DC000D000D0EDB7FEB75283418333
:101FA0008AEE90E0EDCF0E94690F0DC00E949F0E57
:101FB0000AC0618572850E94040E05C00E94371018
:101FC00002C00E94E90F9C0102C020E030E0C9017C
:101FD0000895EF92FF920F931F93CF93DF937C01AD
:101FE000FB018A0161157105C1F1C681D7818BE7BB
:101FF00090E020C068817981C701A8010E94040E89
:102000008F5F9F4F39F18AE390E0B8010E94740519
:102010008F5F9F4FF9F0C701BE01A8010E94950F85
:102020008F5F9F4FB9F00A80DB81C02D209741F070
:102030008CE290E0B8010E9474058F5F9F4F51F0D1
:102040002097C1F68DE790E0B8010E9474058F5F7C
:102050009F4F19F42FEF3FEF02C020E030E0C9019D
:10206000DF91CF911F910F91FF90EF900895EF9224
:10207000FF920F931F93CF93DF937C01FB018A01A3
:102080006115710539F1C681D7818BE590E00FC0EC
:10209000C701BE01A8010E94950F8F5F9F4FB9F045
:1020A0000A80DB81C02D209741F08CE290E0B801DE
:1020B0000E9474058F5F9F4F51F0209749F78DE57F
:1020C00090E0B8010E9474058F5F9F4F19F42FEFC5
:1020D0003FEF02C020E030E0C901DF91CF911F91B6
:1020E0000F91FF90EF900895EF92FF920F931F933F
:1020F000CF93DF938C017B010E947B15EC0100974D
:1021000019F420E030E009C0C801B701AE010E9417
:10211000950FCE010E9464159C01C901DF91CF91FA
:102120001F910F91FF90EF900895EF92FF920F9300
:102130001F93CF93DF937B018A01CA010E9415058B
:10214000829709F04FC085E0F70180870E9436161C
:10215000EC01009709F446C0C8010E941505FFEF85
:102160008F3F9F0709F041C03AC08C35910569F552
:10217000C8010E9415052FEF8F3F920781F1863627
:102180009105E1F0873691054CF48C35910581F08D
:102190008236910589F08297D9F40CC08237910577
:1021A00089F08437910581F08E36910589F408C055
:1021B0008CE50BC082E209C088E007C08CE005C056
:1021C0008AE003C08DE001C089E0BE010E94D01505
:1021D000C8010E941505EFEF8F3F9E0731F4CE0135
:1021E0000E94EE152FEF3FEF0FC08232910521F0D4
:1021F000803291050CF0B9CFCE010E94F315F701A2
:102200009287818720E030E0C901DF91CF911F9153
:102210000F91FF90EF9008952F923F924F925F920F
:102220006F92AF92BF92CF92DF92EF92FF920F9395
:102230001F93DF93CF93CDB7DEB728970FB6F894EF
:10224000DEBF0FBECDBF7A8369831A01CA010E9427
:1022500015052C012FEF8F3F920771F08D329105FC
:1022600019F0AA24A3940DC0C1010E9415052C01E8
:102270004FEF8F3F940719F42FEF3FEF16C1AA24B9
:10228000AA94C201C0970A9718F000E010E018C0A5
:1022900000E010E0C80173E0880F991F7A95E1F71C
:1022A000000F111F800F911F820100531040080F73
:1022B000191FC1010E9415052C01C0970A9750F300
:1022C0005EE245165104D1F085E648165104B1F09E
:1022D00095E44916510491F08A2D992787FD909530
:1022E000FC010E9FC0010F9F900D1E9F900D1124A9
:1022F000E981FA819287818783E0D0C0B80188277D
:1023000077FD8095982F0E9413387B018C01FEE2A7
:102310004F16510419F0CC24DD242DC0C1010E94B8
:1023200015052C01CC24DD24C801B70120E030E0E4
:1023300040E251E40E94C7387B018C0120ED3FEF61
:10234000420E531EB201882777FD8095982F0E9478
:1023500013389B01AC01C801B7010E9410377B0103
:102360008C010894C108D108C1010E9415052C01F7
:10237000C0970A97C8F235E64316510449F045E480
:102380004416510429F018861F826624639437C0CE
:10239000C1010E9415052C018B32910529F4C10160
:1023A0000E9415052C0104C08DE24816510419F055
:1023B0006624639406C0C1010E9415052C016624A1
:1023C0006A9418861F8215C08F81988553E0880F04
:1023D000991F5A95E1F7EF81F885EE0FFF1FE80F7F
:1023E000F91FE20FF31FF887EF83C1010E94150563
:1023F0002C019201205330402A30310528F36A2DF8
:10240000772767FD7095872F972F0E941338A801B3
:1024100097010E94C7386B837C838D839E83B601AE
:10242000882777FD8095982F0E9413385B016C01F7
:102430002F813885B901882777FD8095982F0E94D4
:1024400013387B018C01662D772767FD7095872FE8
:10245000972F0E9413389B01AC01C801B7010E945D
:10246000C7389B01AC01C601B5010E9410379B0122
:10247000AC0160E070E080E291E40E942A399B01A7
:10248000AC016B817C818D819E810E94C738E9817E
:10249000FA81618772878387948784E08087C2018D
:1024A000B1010E94F50520E030E0C90128960FB681
:1024B000F894DEBF0FBECDBFCF91DF911F910F917A
:1024C000FF90EF90DF90CF90BF90AF906F905F90B4
:1024D0004F903F902F9008958DE090E00E94DE0194
:1024E000FC01009729F08DE0DF011D928A95E9F744
:1024F000CF0108950E946C12FC01009711F087E053
:102500008087CF0108950E946C12FC01009711F0A2
:1025100086E08087CF0108950F931F93CF93DF93B9
:102520008B010E946C12EC01009739F085E08887DE
:10253000C8010E942D0489879A87CE01DF91CF912F
:102540001F910F910895CF92DF92EF92FF920F9318
:102550001F938C017B016A01B9010E948C129C01BE
:10256000C801B701A6010E949A0D1F910F91FF901B
:10257000EF90DF90CF900895EF92FF920F931F930B
:102580007A018B010E946C12FC01009731F084E00B
:102590008087E186F28603871487CF011F910F9110
:1025A000FF90EF900895AF92BF92CF92DF92EF929B
:1025B000FF920F931F937C016B015A01B901A8018F
:1025C0000E94BC129C01C701B601A5010E949A0D90
:1025D0001F910F91FF90EF90DF90CF90BF90AF9041
:1025E0000895CF93DF93EB010E946C12FC010097DA
:1025F00021F083E08087D287C187CF01DF91CF911F
:102600000895CF92DF92EF92FF920F931F938C0168
:102610007B016A01B9010E94F1129C01C801B70156
:10262000A6010E949A0D1F910F91FF90EF90DF90ED
:10263000CF9008956F927F928F929F92BF92CF9288
:10264000DF92EF92FF920F931F93CF93DF937C0162
:102650004B018A013901CA010E9415058B3791058A
:1026600009F05DC087E0F4018087C701B8010E94CE
:102670007F0EC8010E9415058D37910509F452C0DF
:10268000B8010E94F505BB24BA94C7010E946C12E0
:10269000EC01009709F443C0BB2021F0F4019783BB
:1026A000868305C0F60193838283DD82CC82C701D5
:1026B000B8010E947F0EC701BE01A8010E949510BB
:1026C0008F5F9F4F61F1C701B8010E947F0E89851E
:1026D0009A85998388831A861986C8010E941505F0
:1026E000CA97E9F4C701B8010E947F0EC701BE0175
:1026F000A80193010E94A3138F5F9F4F81F0C70130
:10270000B8010E947F0EC8010E941505BB246E010E
:102710008C32910509F4B9CF8D37910519F02FEF5F
:102720003FEF02C020E030E0C901DF91CF911F915F
:102730000F91FF90EF90DF90CF90BF909F908F9080
:102740007F906F9008958F929F92AF92BF92CF9299
:10275000DF92EF92FF920F931F93DF93CF93CDB74A
:10276000DEB729970FB6F894DEBF0FBECDBF6C0160
:102770005B017A0149014115510509F4ADC0BA0167
:102780000E947F0E8F5F9F4F09F4A6C0C7010E9471
:1027900015058C018FEF0F3F180709F49DC0C80184
:1027A000B7010E94F5058F5F9F4F09F495C0023273
:1027B000110531F4C601B501A7010E94951020C092
:1027C0000D32110521F0C801C0970A9730F4C601F7
:1027D000B501A7010E940C1113C00B35110539F486
:1027E000C601B501A70194010E94821409C00B37EC
:1027F000110541F4C601B501A70194010E941A1305
:102800009C016CC00E36110501F519821A821B82DB
:102810001C828E010F5F1F4FC80161E070E044E031
:1028200050E097010E94A005049709F055C0C80127
:1028300060E071E044E050E00E947904009709F004
:102840004BC082E0F501808744C006361105F9F4DB
:102850008E010B5F1F4F85E0F80111928A95E9F711
:10286000C80161E070E045E050E097010E94A005DA
:10287000059791F5C80165E071E045E050E00E94E0
:102880007904009749F5F5011086118622C00437B6
:10289000110511F519821A821B821C828E010F5FAD
:1028A0001F4FC80161E070E044E050E097010E94D2
:1028B000A005049789F4C8016BE071E044E050E0A2
:1028C0000E947904009741F481E0F50180878FEF41
:1028D000818720E030E002C02FEF3FEFC901299649
:1028E0000FB6F894DEBF0FBECDBFCF91DF911F9121
:1028F0000F91FF90EF90DF90CF90BF90AF909F909F
:102900008F9008956F927F928F929F92BF92CF92F5
:10291000DF92EF92FF920F931F93CF93DF936C019F
:102920004B01EA013901CA010E9415058B35910559
:1029300009F03FC086E0F4018087C601BE010E9415
:102940007F0ECE010E9415058D359105A9F1BE01BE
:102950000E94F505BB24BA94C6010E946C128C013A
:10296000009739F1BB2021F0F4019783868306C0DC
:10297000F70193838283FC01F582E482C601BE01E4
:102980000E947F0EC601B801AE0193010E94A313FD
:10299000892B79F4C601BE010E947F0ECE010E94F0
:1029A0001505BB2478018C329105B1F28D35910566
:1029B00019F02FEF3FEF02C020E030E0C901DF91B6
:1029C000CF911F910F91FF90EF90DF90CF90BF902C
:1029D0009F908F907F906F900895CF92DF92EF92AB
:1029E000FF920F931F93CF93DF937C018B016A01BA
:1029F00061157105B1F00E946C12EC01009799F01D
:102A0000C701B8010E947F0EC701BE01A80196014F
:102A10000E94A3138F5F9F4F31F4C701BE010E9434
:102A2000CF0DC0E0D0E0CE01DF91CF911F910F918B
:102A3000FF90EF90DF90CF900895EF92FF920F9369
:102A40001F937C01CB010E94A9158C01C701B8011D
:102A500040E050E00E94ED14F82EE92EC8010E94DB
:102A600096158F2D9E2D1F910F91FF90EF90089539
:102A7000FC01A485B58512962D913C911397ED919B
:102A8000FC911197E20FF31F8081882319F4EFEF77
:102A9000FFEF0AC02F5F3F4F13963C932E93129780
:102AA000E82FFF27E7FDF095CF010895FB0164852E
:102AB00075850E94D015882319F420E030E002C00B
:102AC0002FEF3FEFC90108950F931F93CF93DF932B
:102AD000EC018C859D850E94F3158C01009711F007
:102AE0001D861C86CE010E949E04C801DF91CF91F5
:102AF0001F910F910895CF93DF9386E595E160E0F4
:102B000070E00E94C904EC01009761F00E94361643
:102B1000009731F4CE010E949E04C0E0D0E002C0D4
:102B20009D878C87CE01DF91CF910895CF93DF935E
:102B3000EC01009759F08C859D85009711F00E945B
:102B400088021D861C86CE010E949E04DF91CF91D3
:102B500008950F931F93CF93DF938C0180E090E053
:102B600068E375E10E94C904EC01009799F084E0E4
:102B700090E00E94DE01FC01009739F01183008390
:102B8000138212829D878C8705C0CE010E949E040D
:102B9000C0E0D0E0CE01DF91CF911F910F91089559
:102BA000482FDB0114962D913C91159712968D912B
:102BB0009C9113972817390778F4ED91FC911197A0
:102BC000E20FF31F408314968D919C911597019607
:102BD00015969C938E93149780E00895009711F0BA
:102BE0000E94880208950F931F93CF93DF938C0167
:102BF000DC0114962D913C9115972115310541F07A
:102C0000ED91FC91E20FF31F319780818823B1F0A1
:102C1000F801828193812817390780F40190F081AF
:102C2000E02DE20FF31F1082D80114968D919C9134
:102C30001597019615969C938E931497F8018481AD
:102C400095810E94DE01EC01009751F061E975E089
:102C50000E947204D8011D921C92C8010E94880231
:102C6000CE01DF91CF911F910F910895CF93DF9304
:102C700086E090E00E94DE01DC010097A9F0E1E926
:102C8000F5E01196FC93EE9380E091E0EF019C015A
:102C9000199221503040E1F713969C938E9312972E
:102CA00015961C921E921497CD01DF91CF91089535
:102CB0000F931F938C010E949931605A75418F4F79
:102CC0009F4FF801608371838283938380E090E05B
:102CD000A0E0B0E084839583A683B7831F910F9112
:102CE000089580E292E00E94581688E292E06EE039
:102CF0000E94E6080895EF92FF920F931F93CF93DF
:102D0000DF93EC010E9499319B01AC01888199818C
:102D1000AA81BB8179018A01E81AF90A0A0B1B0B07
:102D2000D801C70181539547A040B04008F450C076
:102D3000288339834A835B8380E892E00E94FF18EE
:102D400080E892E068E470E042E050E00E94FC1805
:102D500080E892E00E945018182F80E892E00E94CC
:102D60005018312F20E090E0282B392B84E0359546
:102D700027958A95E1F7442737FD4095542FCA01DE
:102D8000B9010E94133820E030E040E85DE30E9482
:102D9000C73820E030E040E251E40E94C7380E948A
:102DA000E037882777FD8095982F0E94133820E020
:102DB00030E040E251E40E9478378B01F82FE92F90
:102DC000AC01CB01DA018C839D83AE83BF8304C049
:102DD0000C811D81FE81EF814F2F5E2FB801CA014A
:102DE000DF91CF911F910F91FF90EF900895EF9297
:102DF000FF920F931F93DF93CF930F92CDB7DEB760
:102E0000962F613031F40EE010E07EE0E72EF12CD9
:102E100014C0623031F40FE010E06FE0E62EF12CC8
:102E20000CC0633031F400E110E030E1E32EF12C0E
:102E300004C000E010E0EE24FF244830510509F4FE
:102E400047C04930510594F44530510511F14630E1
:102E5000510524F4452B09F46FC018C046305105C4
:102E600009F46AC04730510589F422C04A3051053F
:102E700009F462C04A3051050CF459C04C30510578
:102E800009F463C04A5E534009F470C00FEF1FEFAE
:102E90008FC0802F60E00E94ED32802F0E94673348
:102EA0008C01009709F084C089EF92E069E05BC073
:102EB000802F60E00E94ED32802F0E9467338C01EA
:102EC000181619060CF074C089EF92E068E04BC048
:102ED00088E292E0602F0E94BD0888E292E00E94A2
:102EE0001A0990933802809337020197069708F4E5
:102EF0005DC088E292E00E94D60820E030E040E227
:102F000051E40E94C7380E94E0378B0188E292E0CA
:102F10000E94DE0820E030E040E251E40E94C73821
:102F20000E94E03770933A026093390241C00091E9
:102F3000390210913A023CC08E2D60E00E94ED32C1
:102F40008E2D0E946B328C0133C08E2D60E00E946A
:102F5000ED328E2D0E946B328C011816190644F545
:102F600089EF92E067E00E94EB2522C0802F61E0AC
:102F700099830E94ED329981913021F488B1082F14
:102F800010E011C0923031F488B1082F10E015958F
:102F9000079509C0933051F488B1082F10E01595BA
:102FA0000795159507950170107002C000E010E0BC
:102FB000C8010F90CF91DF911F910F91FF90EF907B
:102FC0000895CF93DF93EB01442369F082E795E006
:102FD00060E171E00E94F93682E795E0BE014AE0C7
:102FE00050E00E94DA36CE01835B9040439718F49C
:102FF0002AE030E048C0CE018B5F9040439718F440
:1030000027E030E040C0CE0188549140439718F447
:1030100029EE33E038C0CE018E569140439718F424
:1030200026E030E030C0CE01805A9140439718F43A
:103030002BE030E028C0CE0180509240439718F436
:1030400028E030E020C0CE0180539240439718F42E
:103050002CE030E018C0CE018F589240439718F40E
:103060002AEE33E010C0CE018F509340439718F4FE
:1030700025E030E008C0C35FD3401CF420E030E01E
:1030800002C02FEF3FEFC901DF91CF91089520914A
:103090005C0230E080915B02281B3109C901089570
:1030A00040915B0280915C02481718F02FEF3FEFD0
:1030B0000AC0E42FF0E0E55CFD4F8081282F30E06E
:1030C0004F5F40935B02C9010895E0915B028091DC
:1030D0005C02E81718F0EFEFFFEF06C0F0E0E55CE8
:1030E000FD4F8081E82FF0E0CF0108950895109200
:1030F00083021092820288EE93E0A0E0B0E0809319
:10310000840290938502A0938602B09387028CE993
:1031100091E090938102809380020895CF92DF9294
:10312000EF92FF920F931F93CF93DF937C016B017C
:103130008A0180917F028823A1F0C0E0D0E00DC019
:10314000D701ED91FC91D601AC0FBD1F0190F0812C
:10315000E02DC7016C9109952196C017D10780F326
:1031600004C0CB01642F0E944119C801DF91CF91A7
:103170001F910F91FF90EF90DF90CF900895DF9314
:10318000CF930F92CDB7DEB7FC01698380917F02A8
:103190008823C9F080917E02803238F081E090E08F
:1031A0009383828320E030E015C080917D02E82F78
:1031B000F0E0E35AFD4F998190838F5F80937D0209
:1031C00080937E0205C0CE01019661E00E94411904
:1031D00021E030E0C9010F90CF91DF910895413295
:1031E00008F040E2862F6BE372E00E940A19109209
:1031F0005B0280935C0208950E94EF18089510927C
:103200005B0210925C0210927D0210927E020E947C
:10321000D71A0895982F413210F040E030C08091C5
:103220008C028823E1F781E080938C028FEF8093FA
:10323000F7021092B20241504093B3024F5F990FD0
:10324000916090938D0285EE8093BC0080918C02FA
:103250008130E1F38091B202841710F44091B20200
:1032600020E030E00AC0FB01E20FF31FD901AE56A7
:10327000BD4F8C9180832F5F3F4F2417A0F3842F85
:103280000895482F613210F081E0089580918C02FA
:10329000843011F082E008956093D502A4EBB2E08F
:1032A000842F9C01F90102C081918D938E2F841B84
:1032B0008617D0F380E008951F920F920FB60F92F9
:1032C00011242F933F934F935F936F937F938F932B
:1032D0009F93AF93BF93EF93FF938091B90090E0DA
:1032E000887F90708036910509F4DCC081369105A5
:1032F000CCF58832910509F47BC089329105B4F48C
:103300008031910509F46FC0813191053CF400973B
:1033100009F431C1089709F039C165C088319105B8
:1033200009F466C0809709F031C17DC080349105F1
:1033300009F49FC08134910544F48033910509F468
:103340007DC0C89709F022C184C08035910509F479
:1033500084C08835910509F491C08834910509F03D
:1033600015C198C08839910509F4FDC089399105C6
:10337000ECF48837910509F495C0893791054CF430
:103380008836910509F48EC08037910509F0FEC09A
:1033900089C08838910509F4E6C08039910509F49F
:1033A00087C08038910509F0F1C082C0803B91054B
:1033B00009F4B0C0813B91054CF4803A910509F4C1
:1033C00089C0883A910509F0E1C0A4C0803C91050C
:1033D00009F4CDC0883C910509F4C9C0883B91052A
:1033E00009F0D4C0ACC080918D028093BB00B9C0FD
:1033F0009091B2028091B302981768F49091B20252
:10340000E92FF0E0EE56FD4F80818093BB009F5F77
:103410009093B202A6C085ED8093BC008091BC0061
:1034200084FDFCCFB1C080E28093F70285ED8093EC
:10343000BC008091BC0084FDFCCFA6C080E38093DB
:10344000F70285ED8093BC008091BC0084FDFCCF29
:103450009BC088E38093F7028AC08091B20290916A
:10346000BB00E82FF0E0EE56FD4F90838F5F809316
:10347000B2029091B2028091B30271C08091B20207
:103480009091BB00E82FF0E0EE56FD4F90838F5FE8
:103490008093B20285ED8093BC008091BC0084FDD6
:1034A000FCCF72C083E080938C021092F60259C068
:1034B0008091F602803208F056C08091F602909119
:1034C000BB00E82FF0E0EA52FD4F90838F5F8093BE
:1034D000F60247C08091F602803230F4E091F602A5
:1034E000F0E0EA52FD4F108285ED8093BC008091A0
:1034F000BC0084FDFCCF10928C026091F602E0913A
:103500009002F091910286ED92E070E009951092A0
:10351000F6022DC084E080938C021092D4021092A7
:10352000D502E0918E02F0918F0209958091D5022B
:10353000882329F481E08093D5021092B4029091FF
:10354000D402E92FF0E0EC54FD4F80818093BB0062
:103550009F5F9093D4029091D4028091D5029817E6
:1035600010F485EC01C085E88093BC000FC085ECA9
:103570008093BC0009C01092F70285ED8093BC00D7
:103580008091BC0084FDFCCF10928C02FF91EF91E2
:10359000BF91AF919F918F917F916F915F914F916B
:1035A0003F912F910F900FBE0F901F901895109282
:1035B0008C0282E161E00E94133383E161E00E94AA
:1035C0001333E9EBF0E080818E7F808380818D7FF3
:1035D000808388E48093B80085E48093BC000895DC
:1035E000362F242F8DEF91E06DE1432F0E94D60CF2
:1035F0000895EF92FF920F931F93CF93DF93162FAF
:103600007A01022F8DEF91E06DE1412F0E94130DA1
:103610008DEF91E06DE1412F202F0E94510CC0E011
:10362000D0E010E009C08DEF91E00E94B20AF701EE
:10363000EC0FFD1F80832196C017D107A4F3DF9103
:10364000CF911F910F91FF90EF900895AF92BF928D
:10365000CF92DF92EF92FF920F93DF93CF9300D040
:1036600000D000D0CDB7DEB77B016A015901AE01B1
:103670004F5F5F4F0023C1F161E026E00E94F91A1D
:103680002A81229526952695237030E0898190E045
:10369000880F991F880F991F282B392BF701318329
:1036A00020832C81229526952695237030E08B81EE
:1036B00090E0880F991F880F991F282B392BF6014E
:1036C000318320832E81229526952695237030E024
:1036D0008D8190E0880F991F880F991F282B392B17
:1036E000F501318320831FC061E023E00E94F91AB5
:1036F000898190E0880F991F880F991FF7019183A6
:1037000080838A8190E0880F991F880F991FF601A6
:10371000918380838B8190E0880F991F880F991F78
:10372000F50191838083F70180819181F2E08030FF
:103730009F072CF080509440F70191838083F6011D
:1037400080819181F2E080309F072CF0805094407E
:10375000F60191838083F50180819181F2E08030D0
:103760009F072CF080509440F5019183808326962A
:103770000FB6F894DEBF0FBECDBFCF91DF910F9192
:10378000FF90EF90DF90CF90BF90AF9008950F9390
:103790001F93DF93CF930F92CDB7DEB78C016AE210
:1037A000AE014F5F5F4F21E00E94F91A49814D7FC2
:1037B000C8016AE20E94F01A0F90CF91DF911F9129
:1037C0000F9108950F931F93DF93CF930F92CDB76F
:1037D000DEB78C016AE2AE014F5F5F4F21E00E94CD
:1037E000F91A49814160C8016AE20E94F01A0F90FB
:1037F000CF91DF911F910F9108950F931F93DF9346
:10380000CF930F92CDB7DEB78C016AE2AE014F5F66
:103810005F4F21E00E94F91A49814E7FC8016AE298
:103820000E94F01A0F90CF91DF911F910F91089590
:103830000F931F93DF93CF930F92CDB7DEB78C0119
:103840008DEF91E00E94A10AC8010E94FD1BC801F2
:103850006EE040E00E94F01AC8010E94C71BC80138
:103860000E94E21BC8016DE0AE014F5F5F4F21E097
:103870000E94F91A0F90CF91DF911F910F91089537
:1038800088EF92E00E94181C08957F928F929F9279
:10389000AF92BF92CF92DF92EF92FF920F931F935E
:1038A000CF93DF935C01712E122FB32FA42FF52F2E
:1038B000E62F972F47016501E501EE24FF241BC089
:1038C00000FD02C080E301C081E388A30894E11CED
:1038D000F11C202F372D412F5B2F6A2F7F2F8E2F2A
:1038E00001E00E94E000022F732E142FB52FA62FA7
:1038F000F72FE82F2196802F8729812B8B2B8A2B5E
:103900008F2B8E2B892BE1F6A4014E195F09D5016F
:10391000A80DB91DFD0120E030E090E30FC0241791
:10392000350720F0878DE601888302C0E601988381
:103930002F5F3F4F31970894C11CD11C28153905C2
:1039400070F31C92DF91CF911F910F91FF90EF9038
:10395000DF90CF90BF90AF909F908F907F90089511
:103960000F931F938C010E949931605A75418F4FBC
:103970009F4FF80160837183828393831F910F911E
:10398000089589EF92E00E94B01C88EE93E00E94B7
:10399000B72B08952F923F924F925F926F927F9232
:1039A0008F92AF92BF92CF92DF92EF92FF920F93DE
:1039B0001F93DF93CF9300D000D000D0CDB7DEB7F8
:1039C0001B015A8349833C832B831E830D8326016D
:1039D0003701DA2C182D133008F092C08FE192E0F5
:1039E0000E947A125C01009709F48AC08FE192E08C
:1039F0000E9483127C01882031F48FE192E0B501AE
:103A00004FE151E00DC0113031F48FE192E0B5018A
:103A100046E251E005C08FE192E0B5014DE251E090
:103A200097010E949A0D8FE192E00E947A128C0118
:103A30008FE192E0B701A8010E94610D8FE192E051
:103A4000B80144E351E091010E94A3128FE192E09A
:103A5000B80146E351E029813A810E9401138FE1C8
:103A600092E0B80148E351E02B813C810E940113B0
:103A7000DD2051F08FE192E0B8014AE351E02D8161
:103A80003E810E94A31227C0C301B2010E94E03709
:103A90006B017C01B601882777FD8095982F0E94E5
:103AA00013389B01AC01C301B2010E94C338181640
:103AB00054F48FE192E0B8014AE351E093018201AE
:103AC0000E94D31208C08FE192E0B8014AE351E0AE
:103AD00096010E9401138FE192E0B5010E947410DB
:103AE0008C01009729F082E795E0B8010E94FC362E
:103AF0008FE192E0B5010E94CF0DC8010E948802BB
:103B000026960FB6F894DEBF0FBECDBFCF91DF91E2
:103B10001F910F91FF90EF90DF90CF90BF90AF90EB
:103B20008F907F906F905F904F903F902F9008956F
:103B30002F923F924F925F926F927F928F92AF92AD
:103B4000CF92DF92EF92FF920F931F93DF93CF9369
:103B5000CDB7DEB72F970FB6F894DEBF0FBECDBF3F
:103B60001C01822EA32EB42FA52FCB01CC24DD2443
:103B70005BE0E52EF12C44E0642E712C6C0E7D1E72
:103B8000202F2F70F301EE0DFF1D20833BE0E31685
:103B9000F10411F0C20ED11C0894E108F1082FEFD6
:103BA000E2162FEFF20671F09801482D5A2D6B2F77
:103BB0007A2F04E00E94E0008901842EA52EB62F02
:103BC000A72FDECF8C81893009F051C18F8590E01D
:103BD0003FE0C322DD248C159D0509F048C100D0CB
:103BE00000D000D0EDB7FEB7319621E030E02C0FC9
:103BF0003D1FADB7BEB712963C932E9311978DE340
:103C000091E0938382838E818295807F9F81890F4B
:103C1000848315820E94D1058DB79EB706960FB694
:103C2000F8949EBF0FBE8DBF8D818370813009F4E3
:103C30004EC0813038F0823009F462C0833009F020
:103C400016C1A6C06A8524E6629FB00111248827A8
:103C500077FD8095982F0E9413387B018C016B852E
:103C60002AE0629FB0011124882777FD8095982F64
:103C70000E9413389B01AC01C801B7010E941037A4
:103C80007B018C016C8570E0882777FD8095982FEB
:103C90000E9413389B01AC01C801B7010E94103784
:103CA00020E030E046E953E40E940F3720E030E0A6
:103CB00040E251E40E9478376B017C01C101BE01F2
:103CC0006F5F7F4F40E050E024E130E05CC06A85E8
:103CD0002AE0629FB00111242B85620F711D882795
:103CE00077FD8095982F0E9413386B017C01C101EC
:103CF000BE016F5F7F4F40E050E025E130E043C000
:103D00007A8560E0882777FD8095982F0E94133888
:103D10007B018C016B8570E034E0660F771F3A956C
:103D2000E1F7882777FD8095982F0E9413389B0133
:103D3000AC01C801B7010E9410377B018C016C8572
:103D400070E0882777FD8095982F0E9413389B019B
:103D5000AC01C801B7010E94103720E030E841E013
:103D600054E40E94C73820E030E04AE754E40E945F
:103D700078376B017C01C101BE016F5F7F4F40E06E
:103D800050E026E130E000E010E0AA2488246DC075
:103D9000698570E061707070762F6627882777FDDF
:103DA0008095982F0E9413387B018C016A8570E002
:103DB00094E0660F771F9A95E1F7882777FD809545
:103DC000982F0E9413389B01AC01C801B7010E94D3
:103DD00010377B018C016B8570E0882777FD80951B
:103DE000982F0E9413389B01AC01C801B7010E94B3
:103DF000103720E030E040E251E40E9478372B0198
:103E00003C010C8510E0000F111F000F111F085519
:103E10001E4FC101BE016F5F7F4F40E050E027E1C0
:103E200030E00F2EF0E0CF2EF0E0DF2EF0E0EF2EAE
:103E3000F0E0FF2EF02DAA24A39488240E94CA1C2F
:103E4000C301B20126E636E646E650E40E94C738D2
:103E50006B017C01C101BE016F5F7F4F40E050E00C
:103E600028E130E000E010E0AA240E94CA1C2F964E
:103E70000FB6F894DEBF0FBECDBFCF91DF911F917B
:103E80000F91FF90EF90DF90CF90AF908F907F9049
:103E90006F905F904F903F902F9008954F925F9258
:103EA0006F927F928F92AF92BF92CF92DF92EF92FA
:103EB000FF920F931F93DF93CF93CDB7DEB72D976C
:103EC0000FB6F894DEBF0FBECDBF2C01822EA32EFD
:103ED000B42FA52FCB01CC24DD24E9E0EE2EF12C6C
:103EE00074E0672E712C6C0E7D1E202F2F70F30155
:103EF000EE0DFF1D208339E0E316F10411F0C20E30
:103F0000D11C0894E108F1086FEFE6166FEFF60692
:103F100071F09801482D5A2D6B2F7A2F04E00E94E2
:103F2000E0008901842EA52EB62FA72FDECF1C819D
:103F30001A3009F063C08D8590E07FE0C722DD2450
:103F40008C159D0509F05AC000D000D000D0EDB707
:103F5000FEB731965E010894A11CB11CADB7BEB787
:103F60001296BC92AE9211978DE391E09383828377
:103F70008F8190E08E709070959587952E81229517
:103F8000207F280F248315820E94D1052B859C85D4
:103F90004A856DB77EB76A5F7F4F0FB6F8947EBFD4
:103FA0000FBE6DBF8D81882349F564E6269FB00161
:103FB0001124919F90011124620F731F640F711DD2
:103FC00080E090E00E94113820E030E040E251E4CF
:103FD0000E94783720E030E048E452E40E940F3736
:103FE0006B017C01C201B50140E050E02DE030E002
:103FF00000E010E0AA2488240E94CA1C2D960FB667
:10400000F894DEBF0FBECDBFCF91DF911F910F910E
:10401000FF90EF90DF90CF90BF90AF908F907F9008
:104020006F905F904F9008952F923F924F925F92C2
:104030006F927F928F929F92AF92BF92CF92DF92B8
:10404000EF92FF920F931F93DF93CF93CDB7DEB71D
:104050002B970FB6F894DEBF0FBECDBF9F838E8324
:10406000680179016D2D70E080E090E0625370404E
:10407000804090400E941138688779878A879B87A3
:10408000D701C60134E0B695A795979587953A95DF
:10409000D1F78F70882E9924B40123E07695679527
:1040A0002A95E1F7882777FD8095982F0E9413388D
:1040B00020E030E040E05FE30E94C7382B013C0184
:1040C000B4017595679575956795617070708827CF
:1040D00077FD8095982F0E94133820E030E040E86B
:1040E0005EE30E94C7389B01AC01C301B2010E948C
:1040F00010372B013C01B4017595679561707070A4
:10410000882777FD8095982F0E94133820E030E0B3
:1041100040E05EE30E94C7389B01AC01C301B201DD
:104120000E9410372B013C0181E088229924AA24A7
:1041300097FCA094BA2CC501B4010E94133820E06A
:1041400030E040E85DE30E94C7389B01AC01C30149
:10415000B2010E9410379B01AC01688579858A8580
:104160009B850E94103720E030E040E251E40E943D
:10417000C7380E94E037882777FD8095982F0E94E6
:1041800013381B012C01ADB7BEB718970FB6F894C2
:10419000BEBF0FBEADBFEDB7FEB731963E0108946E
:1041A000611C711C12967C926E92119780E491E0D2
:1041B00093838283D701C6010CE1B695A7959795A5
:1041C00087950A95D1F795838483D701C6011AE1B3
:1041D000B695A795979587951A95D1F783708F5FB8
:1041E000868317820E94D1058DB79EB708960FB6B9
:1041F000F8949EBF0FBE8DBF6701EE24FF249FEF92
:10420000C922DD24B601882777FD8095982F0E946A
:1042100013386B017C018E819F81B30140E050E037
:104220002EE130E000E010E0AA2488240E94CA1C9D
:10423000C201B10120E030E040E251E40E94783751
:104240006B017C018E819F81B30140E050E02FE142
:1042500030E00E94CA1C2B960FB6F894DEBF0FBE4A
:10426000CDBFCF91DF911F910F91FF90EF90DF9025
:10427000CF90BF90AF909F908F907F906F905F9006
:104280004F903F902F900895EF92FF920F931F93BE
:10429000CF93DF938FE192E00E947A127C01009726
:1042A00009F465C08FE192E00E9483128C018FE1D6
:1042B00092E0B70149E451E098010E949A0D8FE124
:1042C00092E00E947A12EC018FE192E0B801AE0117
:1042D0000E94610D8FE192E0BE0144E351E02DE7C1
:1042E00033E00E94A3122091A1033091A2038FE139
:1042F00092E0BE0146E351E00E9401132091A30326
:104300003091A4038FE192E0BE0148E351E00E94A6
:1043100001138091E703882351F08FE192E0BE0101
:104320004AE351E025EA33E00E94A3120BC020913A
:10433000E5033091E6038FE192E0BE014AE351E0EC
:104340000E9401138FE192E0B7010E947410EC010A
:10435000009729F082E795E0BE010E94FC368FE1CC
:1043600092E0B7010E94CF0DCE010E948802DF913A
:10437000CF911F910F91FF90EF900895CF92DF9210
:10438000EF92FF920F931F93CF93DF93EB018FE197
:1043900092E00E947A126C010097A9F18FE192E0FD
:1043A0000E9483127C018FE192E0B6014DE451E05E
:1043B00097010E949A0D8FE192E00E947A128C017F
:1043C0008FE192E0B701A8010E94610D8FE192E0B8
:1043D000B80143E551E09E010E9401138FE192E094
:1043E000B6010E947410EC01009729F082E795E075
:1043F000BE010E94FC368FE192E0B6010E94CF0D13
:10440000CE010E948802DF91CF911F910F91FF9002
:10441000EF90DF90CF900895AF92BF92CF92DF924E
:10442000EF92FF920F931F93CF93DF930DEF12E064
:104430008FE192E0B8010E941D155C0180E8F8014F
:1044400011928A95E9F7A114B10411F480E08DC0AE
:104450008FE192E0B5010E94450D882309F47CC0EC
:104460008FE192E0B5014FE151E00E947F0DBC0168
:10447000009709F471C08FE192E040E00E94520D74
:10448000EC01009709F468C08FE192E0BE0144E3BB
:1044900051E00E947F0D8C018FE192E0BE0146E366
:1044A00051E00E947F0D7C018FE192E0BE0148E364
:1044B00051E00E947F0D6C018FE192E0BE014AE362
:1044C00051E00E947F0DEC010115110509F444C073
:1044D000F8018085853009F03FC0618572858DE7E0
:1044E00093E044E250E00E948704E114F104A1F15A
:1044F000F7018085833081F5818592859093A203B1
:104500008093A103C114D10439F1F6018085833071
:1045100019F5818592859093A4038093A303209736
:10452000D9F08885853061F469857A8585EA93E0DC
:1045300040E450E00E94870481E08093E7030AC0D2
:10454000833051F489859A859093E6038093E5033F
:104550001092E70301E001C000E08FE192E0B501B5
:104560000E94CF0D802F011181E0DF91CF911F912B
:104570000F91FF90EF90DF90CF90BF90AF90089594
:10458000CF93DF9382E795E00E94D134892B19F411
:10459000CFEFDFEF1CC0C0E0D0E012C0C038D105C3
:1045A000B1F082E795E00E940235FE01E350FD4F35
:1045B0008083219662E070E080E090E00E94CD313F
:1045C00082E795E00E94D134181619063CF3CE011B
:1045D000DF91CF910895CF92DF92EF92FF920F93E8
:1045E0001F93CF93DF93EC010E94C0221816190687
:1045F0000CF0E9C0CE010E940C22882309F4DEC031
:104600008091A1039091A203892B09F0D3C08091DE
:10461000A3039091A40323E0883E9207B1F123E025
:10462000893E92074CF48B30910509F451C0875EA6
:10463000934009F0BBC00AC023E08A3E920709F408
:1046400078C08B5E934009F0B1C094C085EA93E0D6
:1046500060E070E040E150E00E94E0027B018C01EC
:104660005FEFC52ED12CB601601B710987E00E9457
:104670008D32CF18D10888E0B6010E948D32E094C7
:10468000F0948FEFE822FF241EC085EA93E060E0FB
:1046900070E040E150E00E94E0027B018C014FEFAE
:1046A000C42ED12CB601601B710987E00E948D32A7
:1046B000CF18D10888E0B6010E948D32E094F094C2
:1046C0002FEFE222FF2489E0B7010E948D3266C0FD
:1046D0008DE793E00E940F04823049F0833061F04F
:1046E000813081F488EE93E06EE070E009C088EEDE
:1046F00093E06FE070E004C088EE93E060E170E06A
:104700000E94B93088EE93E06EE571E00E94DF2BE5
:1047100088EE93E068E070E00E94E32B88EE93E07F
:1047200065EA73E00E94753088EE93E00E94A9303C
:1047300035C08DE793E00E940F04823041F0833052
:1047400041F0813011F41EE005C01FEF03C01FE0EF
:1047500001C010E18091E703882331F085EA93E0FE
:104760000E940F04682F02C06091E503812F0E9410
:10477000133314C085EA93E068E571E00E94690490
:10478000009781F485EA93E06CE571E00E94720481
:1047900085EA93E061E671E00E945E04CE010E942A
:1047A000442111C0CE0164E070E00BC0CE0163E093
:1047B00070E007C0CE0162E070E003C0CE0161E0AE
:1047C00070E00E94BE21DF91CF911F910F91FF9069
:1047D000EF90DF90CF9008952F923F924F925F928B
:1047E0006F927F928F92AF92CF92DF92EF92FF9271
:1047F0000F931F93DF93CF93CDB7DEB72F970FB6ED
:10480000F894DEBF0FBECDBF3C01F62E82E795E0E7
:104810000E94D134181619061CF4C3010E94EB2221
:1048200000D000D000D0EDB7FEB731961E0108943D
:10483000211C311CADB7BEB712963C922E92119737
:1048400086E691E093838283F48215820E94D105EB
:104850008DB79EB706960FB6F8949EBF0FBE8DBF5C
:1048600080E292E06F2D48E050E00E94F7168C0144
:1048700080E292E06F2D49E050E00E94F7162C0193
:10488000C80101978F5C9740C8F5B801882777FD6C
:104890008095982F0E94133820E030E040E251E4E8
:1048A0000E9478376B017C01C301B10140E050E008
:1048B00028E030E000E010E0AA2488240E94CA1C0E
:1048C0001092F103C20101978F5C9740B8F4B201D6
:1048D000882777FD8095982F0E94133820E030E0DC
:1048E00040E251E40E9478376B017C01C301B101C1
:1048F00040E050E029E030E00E94CA1C82E795E0E9
:104900000E94D134181619061CF4C3010E94EB2230
:104910002F960FB6F894DEBF0FBECDBFCF91DF91BB
:104920001F910F91FF90EF90DF90CF90AF908F90FD
:104930007F906F905F904F903F902F9008956F926F
:104940007F928F92AF92CF92DF92EF92FF920F936E
:104950001F93DF93CF93CDB7DEB765970FB6F8946B
:10496000DEBF0FBECDBF3C011A8219821C821B82A2
:104970001E821D8282E795E00E94D1341816190626
:104980001CF4C3010E94EB2288EF92E0BE016F5F2E
:104990007F4FAE014D5F5F4F9E012B5F3F4F01E0A8
:1049A0000E94261B8DB79EB70A970FB6F8949EBF3C
:1049B0000FBE8DBFEDB7FEB731968E01095F1F4F59
:1049C000ADB7BEB712961C930E93119789E691E08E
:1049D0009383828389819A81958384838B819C814F
:1049E000978386838D819E81918780870E94D105E0
:1049F0008DB79EB70A960FB6F8949EBF0FBE8DBFB7
:104A0000C30162E771E040E050E022E030E00F2EA9
:104A1000F0E0CF2EF0E0DF2EF0E0EF2EF0E0FF2E02
:104A2000F02DAA24A39488240E94CA1C82E795E052
:104A30000E94D134181619061CF4C3010E94EB22FF
:104A400065960FB6F894DEBF0FBECDBFCF91DF9154
:104A50001F910F91FF90EF90DF90CF90AF908F90CC
:104A60007F906F9008958F92AF92CF92DF92EF92E6
:104A7000FF920F931F93CF93DF93EC0182E795E0B2
:104A80000E94D134181619061CF4CE010E94EB22A4
:104A900080E292E00E947B166B017C01CE0162E70E
:104AA00071E040E050E021E030E000E010E0AA24B6
:104AB00088240E94CA1C82E795E00E94D13418160F
:104AC00019061CF4CE010E94EB22DF91CF911F91B9
:104AD0000F91FF90EF90DF90CF90AF908F9008955F
:104AE0006F927F928F92AF92CF92DF92EF92FF926E
:104AF0000F931F93DF93CF93CDB7DEB727970FB6F2
:104B0000F894DEBF0FBECDBF3C0182E795E00E9466
:104B1000D134181619061CF4C3010E94EB2285B18A
:104B2000082F10E003701070CE0101965F9B03C048
:104B300064E771E002C067E771E00E947204CE0191
:104B4000019600FF03C064E771E002C067E771E00F
:104B50000E945E04CE01019601FF03C064E771E08C
:104B600002C067E771E00E945E04C30162E771E082
:104B700040E050E028EE33E08E010F5F1F4F0F2E14
:104B8000F0E0CF2EF0E0DF2EF0E0EF2EF0E0FF2E91
:104B9000F02DAA24A39488240E94CA1C82E795E0E1
:104BA0000E94D134181619061CF4C3010E94EB228E
:104BB00027960FB6F894DEBF0FBECDBFCF91DF9121
:104BC0001F910F91FF90EF90DF90CF90AF908F905B
:104BD0007F906F900895FF920F931F93162F05B14A
:104BE000FBB087E061E00E94133388E061E00E943F
:104BF000133389E061E00E941333812F60E00E944B
:104C000013336CE370E080E090E00E94CD3187E0E8
:104C100061E00E94133388E061E00E94133389E071
:104C200061E00E94133364E170E080E090E00E9454
:104C3000CD3105B9FBB81F910F91FF9008958F9268
:104C40009F92AF92BF92CF92DF92EF92FF920F931B
:104C50001F93CF93DF93EC0182E795E00E94D1345C
:104C6000181619061CF4CE010E94EB2288EE93E080
:104C700061E070E00E94D92F88EE93E00E94E72B5C
:104C8000882309F49CC088EE93E00E942A2C892B8B
:104C900009F495C088EE93E00E942A2C069708F04C
:104CA0008EC088EE93E00E94142C8901F42EE52E2C
:104CB000D62EC72EB82EA92E822F812B8F298E2972
:104CC0008D298C298B298A29D1F1CE0168E00E9497
:104CD000EB2588EE93E00E942A2C039751F4CE0135
:104CE0002F2D3E2D4D2D5C2D6B2D7A2D0E944E1FAC
:104CF00062C088EE93E00E942A2C049751F4CE0102
:104D00002F2D3E2D4D2D5C2D6B2D7A2D0E94981D43
:104D100052C088EE93E00E942A2C059751F4CE01F0
:104D20002F2D3E2D4D2D5C2D6B2D7A2D0E941420A4
:104D300042C088EE93E00E94252C819750F0CE016E
:104D40006AE771E040E050E02BE030E002E711E07C
:104D500023C088EE93E00E94142C8901D42EC52E26
:104D6000B62EA72E982E892E88EE93E00E94252C31
:104D70007C0185EA93E02D2D3C2D4B2D5A2D692D7C
:104D8000782D0E94451CCE016AE771E040E050E0BA
:104D90002BE030E005EA13E00F2EF0E0CF2EF0E03C
:104DA000DF2EF0E0EF2EF0E0FF2EF02DAA24A394EA
:104DB00088240E94CA1C88EE93E00E94032C82E79C
:104DC00095E00E94D134181619061CF4CE010E94F9
:104DD000EB22DF91CF911F910F91FF90EF90DF9029
:104DE000CF90BF90AF909F908F9008950F931F9397
:104DF000182F0E946B326AE070E080E090E00E9421
:104E0000CD31812F0E946B32182F092F64E170E0A1
:104E100080E090E00E94CD31812F902F1F910F9163
:104E200008954F925F926F927F928F92AF92CF923E
:104E3000DF92EF92FF920F931F93CF93DF933C018A
:104E40002B01FB01108282E795E00E94D1341816F5
:104E500019061CF4C3010E94EB2285E190E00E9438
:104E6000F626BC0180E292E040E00E94E117EC01EE
:104E700080918D0190918E01FFEF8F3F9F0739F553
:104E8000D7FD25C09093940180939301C3016CE7F3
:104E900071E040E050E09E0100E010E00F2EF0E0F5
:104EA000CF2EF0E0DF2EF0E0EF2EF0E0FF2EF02D21
:104EB000AA24882483940E94CA1CC630D10539F4E0
:104EC0001092F2031092F4031092F30333C0C8302F
:104ED000D10571F483E0F201808380918D0190917E
:104EE0008E01089719F081E08093F10311E0C2C0B0
:104EF000CB30D10509F4BDC0D7FD9FC02097D1F4B8
:104F000085E190E00E94F626AA2797FDA095BA2F8A
:104F1000BC01CD010E9413386B017C01C3016CE719
:104F200071E040E050E020E030E000E010E0AA2432
:104F300088249DC080E292E063E0AE010E94F716F3
:104F40002C01C630D10509F04DC02091F3033091FA
:104F5000F403280F391F3093F4032093F303809157
:104F6000F2038F5F8093F2038A3008F461C0C901B5
:104F70006AE070E00E94C43A882777FD8095982FF8
:104F80000E94133820EF36E148EC5DE30E94C738F9
:104F900020E030E040E251E40E94C7380E94E03750
:104FA000882777FD8095982F0E94133820E030E005
:104FB00040E251E40E9478376B017C01C3016CE749
:104FC00071E040E050E026E030E000E010E0AA248C
:104FD00088240E94CA1C1092F2031092F4031092CB
:104FE000F30326C0C530D10539F0C730D10521F013
:104FF000F3E0CA3EDF0739F4809193019091940168
:1050000084159505A9F0B201882777FD8095982F22
:105010000E9413386B017C01C3016CE771E040E032
:1050200050E09E0100E010E0AA2488240E94CA1CDF
:1050300050929401409293011CC020918D013091B7
:105040008E0137FD16C0C3016CE771E040E050E00F
:1050500000E010E00F2EF0E0CF2EF0E0DF2EF0E0C9
:10506000EF2EF0E0FF2EF02DAA24E2E08E2E0E941B
:10507000CA1C10E0D0938E01C0938D0182E795E0A9
:105080000E94D134181619061CF4C3010E94EB22A9
:10509000812FDF91CF911F910F91FF90EF90DF90C3
:1050A000CF90AF908F907F906F905F904F900895CA
:1050B0004F925F926F927F928F92AF92CF92DF92D8
:1050C000EF92FF920F931F93CF93DF933C012B013D
:1050D000FB01108282E795E00E94D1341816190670
:1050E0001CF4C3010E94EB2284E190E00E94F626AA
:1050F000BC0180E292E040E00E94E117EC01809167
:105100008B0190918C01FFEF8F3F9F0739F5D7FD01
:1051100025C09093920180939101C3016EE771E0E5
:1051200040E050E09E0100E010E00F2EF0E0CF2EB6
:10513000F0E0DF2EF0E0EF2EF0E0FF2EF02DAA24BD
:10514000882483940E94CA1CC630D10539F4109279
:10515000F2031092F4031092F30333C0C830D10568
:1051600071F482E0F201808380918B0190918C0137
:10517000089719F081E08093F10311E0C2C0CB30B1
:10518000D10509F4BDC0D7FD9FC02097D1F484E1BB
:1051900090E00E94F626AA2797FDA095BA2FBC01A1
:1051A000CD010E9413386B017C01C3016EE771E0F1
:1051B00040E050E020E030E000E010E0AA24882445
:1051C0009DC080E292E062E0AE010E94F7162C01E1
:1051D000C630D10509F04DC02091F3033091F4039E
:1051E000280F391F3093F4032093F3038091F203C7
:1051F0008F5F8093F2038A3008F461C0C9016AE0CE
:1052000070E00E94C43A882777FD8095982F0E940D
:10521000133820EF36E148EC5DE30E94C73820E008
:1052200030E040E251E40E94C7380E94E03788270E
:1052300077FD8095982F0E94133820E030E040E2FF
:1052400051E40E9478376B017C01C3016EE771E085
:1052500040E050E026E030E000E010E0AA2488249E
:105260000E94CA1C1092F2031092F4031092F303EE
:1052700026C0C530D10539F0C730D10521F0F3E0A3
:10528000CA3EDF0739F48091910190919201841513
:105290009505A9F0B201882777FD8095982F0E9487
:1052A00013386B017C01C3016EE771E040E050E010
:1052B0009E0100E010E0AA2488240E94CA1C50929B
:1052C0009201409291011CC020918B0130918C0180
:1052D00037FD16C0C3016EE771E040E050E000E02A
:1052E00010E00F2EF0E0CF2EF0E0DF2EF0E0EF2EFA
:1052F000F0E0FF2EF02DAA24F2E08F2E0E94CA1CAF
:1053000010E082E795E00E94D134181619061CF4CB
:10531000C3010E94EB22D0938C01C0938B01812F9B
:10532000DF91CF911F910F91FF90EF90DF90CF9081
:10533000AF908F907F906F905F904F9008954F92B5
:105340005F926F927F928F92AF92CF92DF92EF92A5
:10535000FF920F931F93CF93DF933C012B01FB012F
:10536000108282E795E00E94D134181619061CF4C9
:10537000C3010E94EB2281E190E00E94F626BC016D
:1053800080E292E040E00E94E117EC018091890107
:1053900090918A01FFEF8F3F9F0739F5D7FD25C018
:1053A0009093900180938F01C3016AE771E040E020
:1053B00050E09E0100E010E00F2EF0E0CF2EF0E074
:1053C000DF2EF0E0EF2EF0E0FF2EF02DAA2488244F
:1053D00083940E94CA1CC630D10539F41092F2039E
:1053E0001092F4031092F3030AC0CB30D10539F4C4
:1053F00088EE93E061E070E00E94D92F32C088EE21
:1054000093E00E94A82FC830D10569F421E0F20191
:1054100020838091890190918A01089711F020934F
:10542000F10311E0E3C0D7FDC4C02097D1F481E1BE
:1054300090E00E94F626AA2797FDA095BA2FBC01FE
:10544000CD010E9413386B017C01C3016AE771E052
:1054500040E050E020E030E000E010E0AA248824A2
:10546000C2C0CB30D10511F58091890190918A019C
:105470000B97C1F0C3016AE771E040E050E02BE018
:1054800030E000E811E00F2EF0E0CF2EF0E0DF2E4C
:10549000F0E0EF2EF0E0FF2EF02DAA24A394882454
:1054A0000E94CA1CC3010E941F269FC080E292E096
:1054B00061E0AE010E94F7162C01C630D10509F05B
:1054C0004DC02091F3033091F403280F391F30931E
:1054D000F4032093F3038091F2038F5F8093F20330
:1054E0008A3008F461C0C9016AE070E00E94C43AE1
:1054F000882777FD8095982F0E94133820EF36E19A
:1055000048EC5DE30E94C73820E030E040E251E41F
:105510000E94C7380E94E037882777FD8095982F32
:105520000E94133820E030E040E251E40E947837D6
:105530006B017C01C3016AE771E040E050E026E0C6
:1055400030E000E010E0AA2488240E94CA1C1092D7
:10555000F2031092F4031092F30326C0C530D10574
:1055600039F0C730D10521F0F3E0CA3EDF0739F446
:1055700080918F019091900184159505A9F0B20159
:10558000882777FD8095982F0E9413386B017C0146
:10559000C3016AE771E040E050E09E0100E010E0E6
:1055A000AA2488240E94CA1C5092900140928F0124
:1055B0001CC02091890130918A0137FD16C0C301BA
:1055C0006AE771E040E050E000E010E00F2EF0E00C
:1055D000CF2EF0E0DF2EF0E0EF2EF0E0FF2EF02DEA
:1055E000AA24A2E08A2E0E94CA1C10E0D0938A014D
:1055F000C093890182E795E00E94D13418161906FC
:105600001CF4C3010E94EB22812FDF91CF911F91E7
:105610000F91FF90EF90DF90CF90AF908F907F90A1
:105620006F905F904F900895AF92BF92CF92DF92AC
:10563000EF92FF921F93DF93CF930F92CDB7DEB718
:105640007C0119820E949F24C701BE016F5F7F4FBA
:105650000E949F29182F0E9499315B016C01112330
:10566000D1F08091F103882391F4F7018081918139
:10567000A281B381A6019501281B390B4A0B5B0B54
:10568000DA01C90181539547A040B04020F0C7011D
:1056900069810E94EC23C701BE016F5F7F4F0E94AA
:1056A00058288823D1F08091F103882391F4F701E1
:1056B00080819181A281B381A6019501281B390BBC
:1056C0004A0B5B0BDA01C90181539547A040B040FA
:1056D00020F0C70169810E94EC23C701BE016F5F02
:1056E0007F4F0E9411278823D1F08091F1038823F6
:1056F00091F4F70180819181A281B381A601950186
:10570000281B390B4A0B5B0BDA01C9018153954702
:10571000A040B04020F0C70169810E94EC23F7014E
:1057200080819181A281B381A6019501281B390B4B
:105730004A0B5B0BDA01C90181539547A040B04089
:1057400058F0C7010E947025C7010E943325F70158
:10575000A082B182C282D3820F90CF91DF911F913C
:10576000FF90EF90DF90CF90BF90AF900895FC0135
:105770008FEF9FEF91838083938382831092F50351
:105780001092F6031092F7031092F8031092F903A7
:105790001092FA031092FB031092FC038AE090E04F
:1057A000978386838CE390E0909396018093950194
:1057B00081E080878EE591E0958384830895FC01E4
:1057C000758364830895FC0177836683089520E0E0
:1057D0008091F5039091F603892B9091F703892B23
:1057E0009091F803892B9091F903892B9091FA03FA
:1057F000892B9091FB03892B9091FC03892B09F055
:1058000021E0822F08951092F5031092F603109272
:10581000F7031092F8031092F9031092FA03109212
:10582000FB031092FC0308952091F5033091F603D9
:105830004091F7035091F8036091F9037091FA03D6
:105840008091FB039091FC0308958091FD0390915A
:10585000FE030895809101049091020408952F920F
:105860003F924F925F926F927F928F929F92AF92F0
:10587000BF92CF92DF92EF92FF920F931F93DF932D
:10588000CF93CDB7DEB762970FB6F894DEBF0FBEE9
:10589000CDBF3C0180910304909104046FE170E05E
:1058A0000E94B03A4B017B0100E010E0209195018D
:1058B00030919601442737FD4095542FC801B70118
:1058C0000E94913A0E9411382AE037ED43E25CE3EE
:1058D0000E94C7380E94E537A8019701220F331FA5
:1058E000441F551F2E0D3F1D401F511F59016A01B6
:1058F000A61AB70AC80AD90AAD82BE82CF82D88654
:105900005B016C01A20EB31EC41ED51EA982BA8211
:10591000CB82DC82AA24BB24650121E030E03A87F7
:10592000298717012801261A370A480A590AA801A7
:105930009701260F371F481F591F2F87388B498B18
:105940005A8B7AC0E985FA85EE0FFF1FED5FFB4F9A
:10595000808191819C0140E050E02216330644068C
:10596000550658F58F859889A989BA892817390766
:105970004A075B0710F5E985FA85EE0FFF1FEB5F1D
:10598000FB4F0190F081E02D7F0100E010E0EB86FD
:10599000FC860D871E878D819E81AF81B8858E150F
:1059A0009F05A007B10748F489819A81AB81BC812A
:1059B000E816F9060A071B0778F1ED80FE800F81D3
:1059C0001885E216F3060407150758F589819A81B0
:1059D000AB81BC81281739074A075B0710F5E985B9
:1059E000FA85EE0FFF1FEB5FFB4F80819181A0E0F6
:1059F000B0E0281639064A065B0698F4EF84F8886A
:105A000009891A898E159F05A007B10750F40894DB
:105A1000A11CB11CC11CD11CAA0CBB1CCC1CDD1CC4
:105A200005C07A866986AA24BB24650109851A8582
:105A30000E5F1F4F1A87098729853A852615370576
:105A400008F480CFA601950156954795379527957F
:105A500080E36816710440F12115310541055105B7
:105A600011F480E028C02093F5033093F6034093AF
:105A7000F7035093F8031092F9031092FA0310926F
:105A8000FB031092FC03769467947092FE0360927D
:105A9000FD03909200048092FF0381E090E09093D8
:105AA00002048093010406C080E021153105410500
:105AB000510509F081E062960FB6F894DEBF0FBE83
:105AC000CDBFCF91DF911F910F91FF90EF90DF90AD
:105AD000CF90BF90AF909F908F907F906F905F908E
