:100000000C94B6000C94522C0C947F2C0C94DE00B3
:100010000C94DE000C94DE000C94DE000C94DE00E8
:100020000C94DE000C94DE000C94DE000C94DE00D8
:100030000C94DE000C94DE000C94DE000C94DE00C8
:100040000C94AC2C0C94DE000C94162F0C945D2FA9
:100050000C94DE000C94DE000C94DE000C94DE00A8
:100060000C9461190C94DE0007634236B79BD8A745
:100070001A39685618AEBAAB558C1D3CB7CC5763CD
:10008000BD6DEDFD753EF6177231BF000000803F7B
:1000900008000000BE922449123EABAAAA2ABECD97
:1000A000CCCC4C3E00000080BEABAAAAAA3E000009
:1000B0000000BF000000803F000000000008417801
:1000C000D3BB4387D1133D190E3CC3BD4282AD2B38
:1000D0003E68EC8276BED98FE1A93E4C80EFFFBE30
:1000E00001C4FF7F3F000000000074727565006668
:1000F000616C7365006E756C6C0025750025752E3E
:10010000002D0025640000000000240027002A00C4
:1001100000000000250028002B0000000000230044
:100120002600290004040404040404040202020258
:1001300002020303030303030102040810204080AA
:10014000010204081020010204081020000000072A
:10015000000201000003040600000000000000008F
:10016000BA0A65167C18A41B251CD43011241FBEA6
:10017000CFEFD8E0DEBFCDBF11E0A0E0B1E0ECE30F
:10018000FDE602C005900D92A03EB107D9F716E03A
:10019000A0EEB1E001C01D92A838B107E1F711E06F
:1001A000CCE6D1E004C02297FE010E945636C0364C
:1001B000D107C9F70E9424310C949C360C9400009E
:1001C000EF92FF920F93DF93CF93CDB7DEB7609797
:1001D0000FB6F894DEBF0FBECDBFA82F002309F4E1
:1001E00061C07E010894E11CF11C88E0F7011192C6
:1001F0008A95E9F729833A834B835C836D837E83F9
:10020000AF83988780E2801BE82FFF27E7FDF095FA
:100210004D815E816F817885181684F01D861E865B
:100220001F86188A882799278E1B9F0B04C07695F6
:100230006795579547958A95D2F728C0202F332781
:1002400027FD3095DB01CA01022E04C0B695A795A3
:10025000979587950A94D2F78D879E87AF87B88B3D
:1002600004C0440F551F661F771FEA95D2F7898196
:100270009A81AB81BC8104C0B695A7959795879567
:100280002A95D2F7482B592B6A2B7B2B49875A8703
:100290006B877C8729853A854B855C856D857E8556
:1002A000AF8598898A2F60960FB6F894DEBF0FBE8F
:1002B000CDBFCF91DF910F91FF90EF900895EF9216
:1002C000FF920F93DF93CF93CDB7DEB760970FB652
:1002D000F894DEBF0FBECDBFA82F002309F461C084
:1002E0007E010894E11CF11C88E0F70111928A95C7
:1002F000E9F729833A834B835C836D837E83AF83E5
:10030000988780E2801BE82FFF27E7FDF095498161
:100310005A816B817C81181684F019861A861B8697
:100320001C86882799278E1B9F0B04C0440F551FDE
:10033000661F771F8A95D2F728C0202F332727FD05
:100340003095DB01CA01022E04C0880F991FAA1F35
:10035000BB1F0A94D2F789879A87AB87BC8704C0F2
:100360007695679557954795EA95D2F78D819E8149
:10037000AF81B88504C0880F991FAA1FBB1F2A959B
:10038000D2F7482B592B6A2B7B2B4D875E876F87C3
:10039000788B29853A854B855C856D857E85AF8513
:1003A00098898A2F60960FB6F894DEBF0FBECDBF36
:1003B000CF91DF910F91FF90EF900895CF93DF934E
:1003C000BC018230910510F462E070E0A0917E06DD
:1003D000B0917F06ED01E0E0F0E040E050E021C0A8
:1003E000888199818617970769F48A819B81309764
:1003F00019F09383828304C090937F0680937E06D6
:10040000FE0134C06817790738F44115510519F019
:100410008417950708F4AC01FE018A819B819C0139
:10042000E9012097E9F641155105A9F1CA01861B9A
:10043000970B049708F4BA01E0E0F0E02AC08D9130
:100440009C91119784179507F9F46417750781F447
:1004500012968D919C911397309719F09383828314
:1004600004C090937F0680937E06FD0132964CC0B7
:10047000CA01861B970BFD01E80FF91F6193719369
:1004800002978D939C9340C0FD01828193819C01D2
:10049000D9011097A1F680917C0690917D06892B59
:1004A00041F4809178019091790190937D06809339
:1004B0007C0640917A0150917B014115510541F430
:1004C0004DB75EB78091760190917701481B590B2B
:1004D00020917C0630917D06CA01821B930B861702
:1004E000970780F0AB014E5F5F4F8417950750F080
:1004F000420F531F50937D0640937C06F901619390
:10050000719302C0E0E0F0E0CF01DF91CF91089558
:10051000CF93DF93009709F450C0EC0122971B8220
:100520001A82A0917E06B0917F06109709F140E0F3
:1005300050E0AC17BD0708F1BB83AA83FE012191EF
:100540003191E20FF31FAE17BF0779F48D919C91A3
:100550001197280F391F2E5F3F4F3983288312963A
:100560008D919C9113979B838A834115510571F45A
:10057000D0937F06C0937E0620C012968D919C91E9
:100580001397AD01009711F0DC01D3CFFA01D383AB
:10059000C28321913191E20FF31FCE17DF0769F477
:1005A00088819981280F391F2E5F3F4FFA013183CF
:1005B00020838A819B8193838283DF91CF910895E9
:1005C0002F923F925F926F927F928F929F92AF9203
:1005D000BF92CF92DF92EF92FF920F931F93CF9330
:1005E000DF938C011B01EA016115710519F0FB0114
:1005F00091838083209749F0CE010297839728F05A
:1006000020E030E040E050E0F6C0F801A1908F011A
:100610008A2D90E00E945A36892BB9F7FDE2AF1679
:1006200031F4F801A1908F015524539407C0FBE2E7
:10063000AF1619F4F801A1908F015524209719F0F5
:10064000C031D105C1F4F0E3AF1679F4F80180812F
:10065000883711F0883549F4F801A1800E5F1F4FEB
:10066000F2E05F2AC0E1D0E006C0209721F480E3E9
:10067000A816E9F427C0C830D10531F1C930D10539
:1006800024F4C230D10531F50CC0CA30D10589F04F
:10069000C031D105F9F4C12CD12CE12CB8E0FB2EEE
:1006A00028C0C12CD12CE12CA0E4FA2E22C0CAE033
:1006B000D0E0FCECCF2EFCECDF2EFCECEF2EFCE0CF
:1006C000FF2E17C0C8E0D0E0C12CD12CE12CE0E116
:1006D000FE2E0FC09E01442737FD4095542F60E049
:1006E00070E080E090E80E943236C901DA016C01C6
:1006F0007D0120E030E040E050E060E03E018824F1
:1007000077FC8094982C70EDB72EBA0CE9E0EB15CD
:1007100070F48A2D81548A3118F499ECB92E06C0F0
:100720008A2D81568A3150F589EAB82EBA0C8B2D64
:1007300090E08C179D0714F56F3FE1F0C216D306C9
:10074000E406F506B0F0CA01B901A40193010E94C4
:10075000EC359B01AC012B0D311D411D511D21308C
:10076000F0E03F07F0E04F07F0E85F0710F461E0CA
:1007700001C06FEFF801A1908F01C5CF21143104A2
:1007800081F0662331F001501040F10111830083A4
:1007900008C051FE1AC002501040F10111830083BD
:1007A00014C067FF12C050FC05C02FEF3FEF4FEFA2
:1007B0005FE704C020E030E040E050E882E290E0F3
:1007C000909387068093860616C050FE08C0509509
:1007D0004095309521953F4F4F4F5F4F0CC057FFCD
:1007E0000AC082E290E090938706809386062FEFFE
:1007F0003FEF4FEF5FE7B901CA01DF91CF911F9142
:100800000F91FF90EF90DF90CF90BF90AF909F90AF
:100810008F907F906F905F903F902F900895FC0194
:1008200088279927E89421912032E9F3293010F0A4
:100830002E30C8F32B3241F02D3239F4689404C0C5
:100840000E949604820F911D219120532A30C0F3FB
:100850001EF4909581959F4F08950F931F93CF930A
:10086000DF93182F092FE82FF92FDF010D900020BB
:10087000E9F7CD018E1B9F0B0E94DE01EC01009772
:1008800021F0612F702F0E947204CE01DF91CF9171
:100890001F910F910895FB01DC018D9181341CF0B3
:1008A0008B350CF4805E619161341CF06B350CF477
:1008B000605E861B611189F3990B0895FB01DC01D1
:1008C0000D900020E9F7119701900D920020E1F7BB
:1008D0000895FB01DC018D91019080190110D9F37D
:1008E000990B0895FB01DC0101900D920020E1F7C6
:1008F0000895FB01DC014150504030F08D91019092
:10090000801919F40020B9F7881B990B0895FB0191
:10091000DC014150504048F001900D920020C9F791
:1009200001C01D9241505040E0F708957AE0979F32
:10093000902D879F802D910D11240895FC018381B6
:1009400087FF24C080918006909181068E179F07B3
:1009500021F4109281061092800680918206909177
:1009600083068E179F0721F4109283061092820649
:1009700080918406909185068E179F0721F410922E
:10098000850610928406CF010E94880280E090E0E4
:1009900008950F931F93CF93DF938C01EB01009782
:1009A00031F46115710519F420E030E038C081E0C0
:1009B00090E06EE070E00E94EC07FC019C01009763
:1009C00071F180E88383209771F0D387C28781E833
:1009D00083838091800690918106892B21F4F09386
:1009E0008106E093800601151105C9F01187008783
:1009F0008381826083838091820690918306892B14
:100A000071F4F0938306E0938206809184069091BE
:100A10008506892B21F4F0938506E0938406C901AD
:100A2000DF91CF911F910F910895CF93DF93EC0148
:100A30004B8140FF1AC046FF0AC04F7B4B838E811B
:100A40009F8101969F838E838A81282F2BC042FF2E
:100A500013C0E881F9818081282F332727FD309545
:100A60002115310529F440624B832FEF3FEF1BC066
:100A70003196F983E88311C0EA85FB85CE0109959B
:100A80009C0197FF0AC09B812F5F3F4F11F080E2CE
:100A900001C080E1892B8B83E8CF8E819F810196F5
:100AA0009F838E8330E0C901DF91CF910895A0E04C
:100AB000B0E0EDE5F5E00C9473360F8118859E01EA
:100AC000255F3F4FF801838188608383C801698572
:100AD0007A85A9010E940F06F8012381277F2383CD
:100AE0002096E4E00C948F360F931F93CF93DF93FF
:100AF0008C01EB018B8181FF1BC082FF0DC02E8119
:100B00003F818C819D812817390764F4E881F98140
:100B10000193F983E88306C0E885F985802F09955C
:100B2000892B31F48E819F8101969F838E8302C031
:100B30000FEF1FEFC801DF91CF911F910F91089523
:100B4000A0E0B0E0E6EAF5E00C946B36FC014B0166
:100B50005A016901D90113968C9180FF1AC07F0157
:100B6000C0E0D0E010C0C6010E941505BFEF8F3F66
:100B70009B0789F0F70181937F010F5F1F4F0815D5
:100B8000190588F32196CA15DB0528F400E010E06A
:100B9000F6CFC0E0D0E0CE01CDB7DEB7ECE00C94EC
:100BA0008736AEE0B0E0E7EDF5E00C9473360D89E2
:100BB0001E8986E08C831A8309838FEF9FE79E83CB
:100BC0008D839E01275E3F4FCE0101966F89788D00
:100BD000A9010E940F062F813885020F131FF8010B
:100BE00010822E96E4E00C948F369C01FB018381E9
:100BF00080FF11C086FD0FC09FEF2F3F390759F0CE
:100C0000228380648F7D8383868197810197978378
:100C1000868330E002C02FEF3FEFC9010895ABE0BB
:100C2000B0E0E5E1F6E00C9465363C012B015A0199
:100C3000FC0117821682838181FD03C06FEF7FEF75
:100C4000C6C19AE0892E1E010894211C311CF301B3
:100C50002381F20123FD859123FF81912F018823B8
:100C600009F4B2C1853239F423FD859123FF8191C6
:100C70002F01853229F490E0B3010E947405E7CF7B
:100C8000982FFF24EE249924FFE1FF15D0F09B322A
:100C900069F09C3228F4903259F0933291F40EC0EE
:100CA0009D3249F0903369F441E024C052E0F52AC6
:100CB00084E0F82A28C098E0F92A25C0E0E1FE2A5D
:100CC00022C0F7FC29C0892F80538A3070F4F6FEC9
:100CD00005C0989C902C1124980E15C0E89CE02C1F
:100CE0001124E80EF0E2FF2A0EC09E3229F4F6FC31
:100CF0006BC140E4F42A07C09C3619F450E8F52A89
:100D000002C0983649F4F20123FD959123FF919199
:100D10002F01992309F0B8CF892F8554833018F01B
:100D20008052833038F444E050E0A40EB51E5FE3F7
:100D300059830FC0933631F0933779F0933509F02A
:100D400056C020C0F5018081898342E050E0A40EA6
:100D5000B51E610101E010E012C0F501C080D18034
:100D6000F6FC03C06FEF7FEF02C0692D70E042E038
:100D700050E0A40EB51EC6010E941A088C015FE760
:100D8000F52214C0F501C080D180F6FC03C06FEFDE
:100D90007FEF02C0692D70E042E050E0A40EB51E66
:100DA000C6010E9408088C0150E8F52AF3FE07C02E
:100DB0001AC080E290E0B3010E947405EA948E2D7F
:100DC00090E008171907A8F30EC0F601F7FC85910B
:100DD000F7FE81916F0190E0B3010E947405E1106C
:100DE000EA94015010400115110579F7EAC09436D4
:100DF00011F0993669F5F7FE08C0F50120813181BF
:100E00004281538184E090E00AC0F50180819181A4
:100E10009C01442737FD4095542F82E090E0A80EB6
:100E2000B91E9FE6F92257FF09C0509540953095AD
:100E300021953F4F4F4F5F4FE0E8FE2ACA01B901AD
:100E4000A1012AE030E00E942508D82ED21840C027
:100E5000953729F41F2D1F7E2AE030E01DC01F2D7D
:100E6000197F9F3661F0903720F4983509F0ACC0B7
:100E70000FC0903739F0983709F0A6C004C028E0B9
:100E800030E00AC0106114FD146020E130E004C0BD
:100E900014FD166020E132E017FF08C0F501608103
:100EA00071818281938144E050E008C0F501808126
:100EB0009181BC0180E090E042E050E0A40EB51EBC
:100EC000A1010E942508D82ED2188FE7F82EF12212
:100ED000F6FE0BC05EEFF522D91438F4F4FE07C01D
:100EE000F2FC05C08FEEF82202C01D2D01C0192DA5
:100EF000F4FE0DC0FE01ED0DF11D8081803319F46B
:100F000099EEF92208C01F5FF2FE05C003C08F2DC5
:100F1000867809F01F5F0F2DF3FC14C0F0FE0FC0A0
:100F20001E1510F09D2C0BC09D2C9E0C911A1E2D91
:100F300006C080E290E0B3010E9474051F5F1E1599
:100F4000C0F304C01E1510F4E11A01C0EE2404FF22
:100F50000FC080E390E0B3010E94740502FF1DC042
:100F600001FD03C088E790E00EC088E590E00BC06B
:100F7000802F867891F001FF02C08BE201C080E2F1
:100F8000F7FC8DE290E0B3010E94740506C080E397
:100F900090E0B3010E9474059A94D914C0F3DA94D6
:100FA000F101ED0DF11D808190E0B3010E94740507
:100FB000DD20A9F706C080E290E0B3010E9474052D
:100FC000EA94EE20C1F743CEF30166817781CB012D
:100FD0002B96E2E10C9481360F931F93CF93DF930E
:100FE000689F8001699F100D789F100D1124C80122
:100FF0000E94DE01EC01009729F060E070E0A8019A
:101000000E941308CE01DF91CF911F910F91089597
:10101000FC010590615070400110D8F780959095C3
:101020008E0F9F1F0895DC0101C06D934150504009
:10103000E0F70895FC016150704001900110D8F76D
:10104000809590958E0F9F1F0895FA01AA2728304A
:1010500051F1203181F1E8946F936E7F6E5F7F4F85
:101060008F4F9F4FAF4FB1E03ED0B4E03CD0670F01
:10107000781F891F9A1FA11D680F791F8A1F911D54
:10108000A11D6A0F711D811D911DA11D20D009F4A4
:1010900068943F912AE0269F11243019305D3193E6
:1010A000DEF6CF010895462F4770405D4193B3E0CF
:1010B0000FD0C9F7F6CF462F4F70405D4A3318F076
:1010C000495D31FD4052419302D0A9F7EACFB4E027
:1010D000A6959795879577956795BA95C9F70097DF
:1010E0006105710508959B01AC010A2E0694579580
:1010F000479537952795BA95C9F7620F731F841FD7
:10110000951FA01D08950F931F9301EE12E0C801D3
:101110000E940326C8010E9417211F910F91089574
:101120008DE595E040E855E260E070E00E94A62F72
:1011300087E061E00E94482E88E061E00E94482E2E
:1011400089E061E00E94482E87E061E00E946E2EF7
:1011500088E061E00E946E2E89E061E00E946E2EC0
:101160000895DC01862F90E0FC01E85CFE4FE491DD
:10117000EC938C5D9E4FFC016491E62FF0E0EE0F46
:10118000FF1FE65EFE4F8591949112969C938E937D
:1011900011970895FC012781308541855285B90159
:1011A000CA010895FC012385348545855685B9011A
:1011B000CA0108950F931F938C01862F90E0FC01C4
:1011C000E85CFE4FE491D801EC938C5D9E4FFC01EE
:1011D0006491E62FF0E0EE0FFF1FE65EFE4F859173
:1011E000949112969C938E9311970E94F42CD8019F
:1011F00013966D937D938D939C93169780E090E06A
:10120000A7ECB2ECF80187839087A187B287838728
:101210009487A587B6871F910F9108954F925F928B
:101220007F928F929F92AF92BF92CF92DF92EF9276
:10123000FF920F931F93DF93CF93CDB7DEB7A9979C
:101240000FB6F894DEBF0FBECDBF5C01FC0170800D
:10125000018112810E94F42C9B01AC014E01089483
:10126000811C911C2401CE018A96F20111922F015A
:10127000E817F907D1F7F50183819481A581B6813B
:1012800069017A01C81AD90AEA0AFB0AD701C6011C
:10129000805D9740A040B04018F427E030E02EC1B8
:1012A000F5012383348345835683F894F8018181C3
:1012B000E72CE0948E2181837894FF24C72CDD24D1
:1012C00007C0F394FEE7FF1619F421E030E016C1E1
:1012D00082E090E00E94812DF801808190E08C21D5
:1012E0009D21892B71F3F894F80182818E218283EC
:1012F00081818729818378948CE494E00E94812DF8
:10130000F894F80181818E2181837894FF2407C0AD
:10131000F394FAE1FF1619F422E030E0EFC082E026
:1013200090E00E94812DF801808190E08C219D2128
:10133000892B71F3FF2407C0F394F3E3FF1619F42C
:1013400023E030E0DBC082E090E00E94812DF801D4
:10135000808190E08C219D21892B71F7FF2407C0AB
:10136000F394F4E2FF1619F424E030E0C7C082E001
:1013700090E00E94812DF801808190E08C219D21D8
:10138000892B71F3FF2406C0F3E3FF1619F425E05F
:1013900030E0B4C0F39482E090E00E94812DF80127
:1013A000808190E08C219D21892B71F7F401F192CD
:1013B0004F01E415F50591F6EE24FF2420E030E01E
:1013C000DE01119660E170E041E050E02F5F3F4F99
:1013D000FD01E20FF31F80818C3058F0CB01821B9E
:1013E000930B6A0102C0CC0CDD1C8A95E2F7EC2855
:1013F000FD282031310551F7FE01729600E010E022
:101400002FE030E041E050E080818C3048F0CA01AC
:10141000022E02C0880F991F0A94E2F7082B192B9D
:101420002150304031966FEF2F3F360769F7FE01AC
:10143000B296DD2427E030E041E050E080818C303E
:1014400040F0CA01022E02C0880F991F0A94E2F7E9
:10145000D82A215030403196E415F50579F7B701C7
:101460007F77882777FD8095982F0E946E3320E044
:1014700030E040E251E40E94D332F5016783708787
:101480008187928717FF0DC01F77B801882777FDE6
:101490008095982F0E946E3320E030E040E251ECBE
:1014A0000BC0B801882777FD8095982F0E946E3376
:1014B00020E030E040E251E40E94D332F50163873E
:1014C0007487858796874D2D50E02F2D332727FD74
:1014D0003A958E2D90E0820F911D800F911D212F46
:1014E000332727FD3A95820F911D907048175907B1
:1014F00019F026E030E002C020E030E0C901A996F2
:101500000FB6F894DEBF0FBECDBFCF91DF911F9114
:101510000F91FF90EF90DF90CF90BF90AF909F9092
:101520008F907F905F904F900895449A459AE9EB91
:10153000F0E080818E7F808380818D7F808388E44E
:101540008093B80084E48093BC000895FC018091EE
:10155000E0019091E201981B9093E101882319F436
:101560001092E101089581508093E001E90FF11D8F
:10157000828108950895EF92FF920F931F930E9426
:10158000F42C7B018C0184E98093BC001BC02115E5
:101590003105E1F00E94F42C6E197F09800B910B4C
:1015A0002091E3013091E40140E050E062177307BD
:1015B0008407950738F01092BC0084E48093BC0047
:1015C00081E009C02091E3013091E4018091BC00E9
:1015D00084FDDDCF80E01F910F91FF90EF90089583
:1015E000CF92DF92EF92FF921F93162F0E94F42C5E
:1015F0006B017C01112311F084EC01C084E880931D
:10160000BC001BC021153105E1F00E94F42C6C19BF
:101610007D098E099F092091E3013091E40140E0AA
:1016200050E0621773078407950738F01092BC00EA
:1016300084E48093BC0091E019C02091E3013091D3
:10164000E4018091BC0087FFDDCF8091B900887FE5
:10165000883349F49091B900987F1092BC0084E4DB
:101660008093BC0003C09091B900987F892F1F918F
:10167000FF90EF90DF90CF900895EF92FF920F933D
:101680001F93CF93DF93EC016093BB000E94F42C77
:101690007B018C0184E88093BC001BC021153105BF
:1016A000E1F00E94F42C6E197F09800B910B2091C0
:1016B000E3013091E40140E050E0621773078407D2
:1016C000950738F01092BC0084E48093BC0011E0D0
:1016D00020C02091E3013091E4018091BC0087FF9C
:1016E000DDCF8091B900887F883211F410E011C0FD
:1016F0001091B900187F8091B900887F803321F460
:10170000CE010E94BB0A05C01092BC0084E4809305
:10171000BC00812FDF91CF911F910F91FF90EF902F
:101720000895EF92FF920F931F93CF93DF93EC01F5
:101730006093BB000E94F42C7B018C0184E88093B1
:10174000BC001BC021153105E1F00E94F42C6E197C
:101750007F09800B910B2091E3013091E40140E07F
:1017600050E0621773078407950738F01092BC00A9
:1017700084E48093BC0011E01DC02091E30130910E
:10178000E4018091BC0087FFDDCF8091B900887FA4
:10179000883179F08091B900887F803499F409C04C
:1017A0008091B900887F8834B1F4CE010E94BB0AD1
:1017B00001C010E0812FDF91CF911F910F91FF9019
:1017C000EF9008951091B900187F8091B900887F3B
:1017D000803231F7EACF1092BC0084E48093BC00E1
:1017E000E9CFEF92FF920F931F930E94F42C7B019D
:1017F0008C0184EA8093BC001BC021153105E1F007
:101800000E94F42C6E197F09800B910B2091E3014B
:101810003091E40140E050E06217730784079507B8
:1018200038F01092BC0084E48093BC0091E021C0A9
:101830002091E3013091E4018091BC0087FFDDCF6E
:101840008091B900887F883099F08091B900887FB5
:101850008031A9F40DC09091B900987F1092BC001E
:1018600084E48093BC0005C09091B900987F01C0CA
:1018700090E0892F1F910F91FF90EF900895809134
:10188000B900887F883381F7E6CFEF92FF920F93FC
:101890001F93CF93DF93EC01162F042FE22E1092AB
:1018A000E0011092E101222311F4EE24E394EA9482
:1018B000E982E3941882CE010E94F10B8883882389
:1018C00009F061C0110FCE01612F0E94910B888336
:1018D000882329F0813009F056C082E054C0CE013F
:1018E000602F0E943D0B8883882329F0813009F006
:1018F0004AC083E048C0CE010E94F10B8883882350
:1019000029F0813009F03FC084E03DC01F5FCE0167
:10191000612F0E94910B8883882319F48E01FF2484
:1019200025C0813081F585E02EC08981F81651F4FB
:10193000CE0160E00E94F00A8883813019F1883579
:1019400051F021C0CE0161E00E94F00A888381300D
:10195000C9F08035C1F48091BB00F8018283F39413
:10196000F092E001F092E2010F5F1F4FFE14E8F2E7
:10197000CE010E94BB0A8883882329F0813019F4A4
:1019800087E001C086E0DF91CF911F910F91FF901A
:10199000EF900895FF920F931F93CF93DF93EC0185
:1019A000162F042FF22E18820E94F10B88838823B1
:1019B00041F5110FCE01612F0E94910B888388237E
:1019C00021F08130F1F482E01CC0CE01602F0E9432
:1019D0003D0B8883882339F4CE016F2D0E943D0B87
:1019E0008883882319F0813061F40AC0CE010E94F7
:1019F000BB0A8883882329F0813019F487E001C06D
:101A000083E0DF91CF911F910F91FF9008950F9385
:101A10001F93CF93DF93EC01162F042F18820E949F
:101A2000F10B8883882301F5110FCE01612F0E94ED
:101A3000910B8883882321F08130B1F482E014C0B7
:101A4000CE01602F0E943D0B8883882321F08130D6
:101A500059F483E009C0CE010E94BB0A8883882321
:101A600019F0813009F487E0DF91CF911F910F9138
:101A70000895FB010680F781E02D80E004C08F5FB0
:101A80000280F381E02D3097D1F70895FB010680A5
:101A9000F781E02D04C041500280F381E02D3097A2
:101AA00011F04423C1F7CF010895CF93DF93EB01E9
:101AB000DA01EE81FF814115510591F0309719F45B
:101AC0005F834E830DC0CF010280F381E02D3097FC
:101AD000D1F7FC01B383A28315969C938E93149740
:101AE000DF91CF9108950F931F93CF93DF93FB0165
:101AF0008A01C681D78103C00A80DB81C02D20976F
:101B000039F088819981B8010E944B04892BA1F793
:101B1000CE01DF91CF911F910F910895EF92FF9227
:101B20000F931F93CF93DF937B018A01E901211566
:101B3000310511F188819981009711F00E94880286
:101B4000C8010E942D0488839983D7011696ED91D0
:101B5000FC911797309729F41796DC93CE9316973C
:101B60000BC0CF010280F381E02D3097D1F7FC014B
:101B7000D383C2839D838C83DF91CF911F910F917B
:101B8000FF90EF900895EF92FF920F931F93CF93E2
:101B9000DF938C01EB0123C0FA80EB80888587FD01
:101BA00008C06E817F816115710519F0C8010E941E
:101BB000C30D8885853031F489859A85009711F0A9
:101BC0000E94880288819981009711F00E94880202
:101BD000CE010E9488028F2D9E2D9C01E901209745
:101BE000D9F6DF91CF911F910F91FF90EF9008955B
:101BF0000F931F93CF93DF938B01EA0182E290E072
:101C0000BA010E9474058F5F9F4F09F464C00115EB
:101C1000110509F050C054C0803240F0823231F0DA
:101C20008C3521F0992787FD909534C08CE590E0A4
:101C3000BE010E9474058F5F9F4F09F44CC0F801EC
:101C400080818C30C9F08D303CF4893051F18A307C
:101C5000B1F0883071F50DC0823241F08C3519F049
:101C60008D3039F515C08CE590E01DC082E290E022
:101C700008C082E690E00EC086E690E014C08EE6D2
:101C800090E0BE010E9474058F5F9F4F91F423C0C6
:101C900082E790E0BE010E9474058F5F9F4F49F478
:101CA0001AC084E790E0BE010E9474058F5F9F4FC9
:101CB00091F00F5F1F4FF8018081882309F0ACCFAE
:101CC00082E290E0BE010E9474058F5F9F4F19F081
:101CD00020E030E002C02FEF3FEFC901DF91CF914C
:101CE0001F910F910895CF93DF93EB01611571055B
:101CF00059F0CE010E9415052FEF8F3F920721F07A
:101D000081329105B4F306C02FEF3FEFC901DF9197
:101D1000CF910895BE010E94F5058F5F9F4FA1F3FB
:101D200020E030E0F3CF6F927F928F929F92AF923C
:101D3000BF92CF92DF92EF92FF920F931F93CF93B8
:101D4000DF93FB014A016115710509F4A5C0A18467
:101D5000B284C384D484C601B50120E030E040E001
:101D600050E00E94CF328823C4F400D000D0ADB739
:101D7000BEB712969C928E92119781E091E01496D4
:101D80009C938E9313970E945705D7FAD094D7F857
:101D9000D0940F900F900F900F90C601B5010E9444
:101DA00040337B018C01EDB7FEB738970FB6F8943E
:101DB000FEBF0FBEEDBF3196ADB7BEB712969C9277
:101DC0008E9211978DEF90E093838283E482F58267
:101DD000068317830E945705C801B7010E946C3320
:101DE0009B01AC01C601B5010E946A322CEA35ECB8
:101DF00047EA56E30E946B327B018C01C5E0D0E0DC
:101E0000EDB7FEB738960FB6F894FEBF0FBEEDBF24
:101E10008AEF682E80E0782EC801B70120E030E01C
:101E200040E251E40E9422345B016C010E94403385
:101E30007B0100D000D000D0EDB7FEB73196ADB732
:101E4000BEB712969C928E921197738262827583AE
:101E500064830E94570500E010E0C801B7010E94AA
:101E60006C339B01AC01C601B5010E946A327B0153
:101E70008C01EDB7FEB736960FB6F894FEBF0FBED5
:101E8000EDBF20E030E040E050E00E94CF328823F8
:101E900019F0219709F0C0CF80E090E0DF91CF9159
:101EA0001F910F91FF90EF90DF90CF90BF90AF9078
:101EB0009F908F907F906F900895CF93DF93DB0179
:101EC0006115710519F420E030E01FC000D000D08A
:101ED00000D0EDB7FEB73196CDB7DEB75A83498350
:101EE00083E091E09383828319968D919C911A9758
:101EF000958384830E9457059C018DB79EB70696F3
:101F00000FB6F8949EBF0FBE8DBFC901DF91CF9170
:101F10000895FB016115710509F44BC0208523303C
:101F2000B1F124303CF4213049F1223064F4222311
:101F300099F03FC0253089F1253064F1263091F1C8
:101F40002730B9F532C000D000D0EDB7FEB75283CC
:101F5000418385EF90E008C000D000D0EDB7FEB718
:101F6000528341838FEE90E0948383830E945705D0
:101F70009C010F900F900F900F901DC000D000D0CB
:101F8000EDB7FEB7528341838AEE90E0EDCF0E9419
:101F90005D0F0DC00E94930E0AC0618572850E947C
:101FA000F80D05C00E942B1002C00E94DD0F9C019D
:101FB00002C020E030E0C9010895EF92FF920F9334
:101FC0001F93CF93DF937C01FB018A01611571059B
:101FD000C1F1C681D7818BE790E020C0688179810B
:101FE000C701A8010E94F80D8F5F9F4F39F18AE366
:101FF00090E0B8010E9474058F5F9F4FF9F0C70110
:10200000BE01A8010E94890F8F5F9F4FB9F00A801F
:10201000DB81C02D209741F08CE290E0B8010E9456
:1020200074058F5F9F4F51F02097C1F68DE790E0C8
:10203000B8010E9474058F5F9F4F19F42FEF3FEF97
:1020400002C020E030E0C901DF91CF911F910F91D4
:10205000FF90EF900895EF92FF920F931F93CF930D
:10206000DF937C01FB018A016115710539F1C6819D
:10207000D7818BE590E00FC0C701BE01A8010E9487
:10208000890F8F5F9F4FB9F00A80DB81C02D2097A9
:1020900041F08CE290E0B8010E9474058F5F9F4F81
:1020A00051F0209749F78DE590E0B8010E94740542
:1020B0008F5F9F4F19F42FEF3FEF02C020E030E019
:1020C000C901DF91CF911F910F91FF90EF9008957B
:1020D000EF92FF920F931F93CF93DF938C017B01BD
:1020E0000E946F15EC01009719F420E030E009C060
:1020F000C801B701AE010E94890FCE010E94581598
:102100009C01C901DF91CF911F910F91FF90EF903A
:102110000895EF92FF920F931F93CF93DF937B016C
:102120008A01CA010E941505829709F04FC085E017
:10213000F70180870E942A16EC01009709F446C037
:10214000C8010E941505FFEF8F3F9F0709F041C0AE
:102150003AC08C35910569F5C8010E9415052FEF2D
:102160008F3F920781F186369105E1F08736910520
:102170004CF48C35910581F08236910589F0829777
:10218000D9F40CC08237910589F08437910581F02C
:102190008E36910589F408C08CE50BC082E209C037
:1021A00088E007C08CE005C08AE003C08DE001C074
:1021B00089E0BE010E94C415C8010E941505EFEF19
:1021C0008F3F9E0731F4CE010E94E2152FEF3FEFC3
:1021D0000FC08232910521F0803291050CF0B9CF09
:1021E000CE010E94E715F7019287818720E030E059
:1021F000C901DF91CF911F910F91FF90EF9008954A
:102200002F923F924F925F926F92AF92BF92CF9276
:10221000DF92EF92FF920F931F93DF93CF93CDB78F
:10222000DEB728970FB6F894DEBF0FBECDBF7A8316
:1022300069831A01CA010E9415052C012FEF8F3FF7
:10224000920771F08D32910519F0AA24A3940DC064
:10225000C1010E9415052C014FEF8F3F940719F41F
:102260002FEF3FEF16C1AA24AA94C201C0970A9784
:1022700018F000E010E018C000E010E0C80173E0C2
:10228000880F991F7A95E1F7000F111F800F911F9A
:10229000820100531040080F191FC1010E9415054B
:1022A0002C01C0970A9750F35EE245165104D1F015
:1022B00085E648165104B1F095E44916510491F0B1
:1022C0008A2D992787FD9095FC010E9FC0010F9FD5
:1022D000900D1E9F900D1124E981FA8192878187CC
:1022E00083E0D0C0B801882777FD8095982F0E94A1
:1022F0006E337B018C01FEE24F16510419F0CC24A1
:10230000DD242DC0C1010E9415052C01CC24DD2443
:10231000C801B70120E030E040E251E40E942234DD
:102320007B018C0120ED3FEF420E531EB201882746
:1023300077FD8095982F0E946E339B01AC01C801F8
:10234000B7010E946B327B018C010894C108D1084F
:10235000C1010E9415052C01C0970A97C8F235E605
:102360004316510449F045E44416510429F01886F7
:102370001F826624639437C0C1010E9415052C0199
:102380008B32910529F4C1010E9415052C0104C06E
:102390008DE24816510419F06624639406C0C10109
:1023A0000E9415052C0166246A9418861F8215C0A8
:1023B0008F81988553E0880F991F5A95E1F7EF8137
:1023C000F885EE0FFF1FE80FF91FE20FF31FF887E4
:1023D000EF83C1010E9415052C019201205330406A
:1023E0002A30310528F36A2D772767FD7095872FEE
:1023F000972F0E946E33A80197010E9422346B83AD
:102400007C838D839E83B601882777FD8095982FE6
:102410000E946E335B016C012F813885B9018827DA
:1024200077FD8095982F0E946E337B018C01662D7D
:10243000772767FD7095872F972F0E946E339B013A
:10244000AC01C801B7010E9422349B01AC01C60156
:10245000B5010E946B329B01AC0160E070E080E24C
:1024600091E40E9485349B01AC016B817C818D815C
:102470009E810E942234E981FA8161877287838775
:10248000948784E08087C201B1010E94F50520E0B5
:1024900030E0C90128960FB6F894DEBF0FBECDBF5D
:1024A000CF91DF911F910F91FF90EF90DF90CF9030
:1024B000BF90AF906F905F904F903F902F90089596
:1024C0008DE090E00E94DE01FC01009729F08DE094
:1024D000DF011D928A95E9F7CF0108950E946012ED
:1024E000FC01009711F087E08087CF0108950E94DA
:1024F0006012FC01009711F086E08087CF010895FB
:102500000F931F93CF93DF938B010E946012EC0116
:10251000009739F085E08887C8010E942D048987DB
:102520009A87CE01DF91CF911F910F910895CF929D
:10253000DF92EF92FF920F931F938C017B016A0150
:10254000B9010E9480129C01C801B701A6010E9436
:102550008E0D1F910F91FF90EF90DF90CF90089517
:10256000EF92FF920F931F937A018B010E946012EA
:10257000FC01009731F084E08087E186F2860387D2
:102580001487CF011F910F91FF90EF900895AF92A4
:10259000BF92CF92DF92EF92FF920F931F937C0135
:1025A0006B015A01B901A8010E94B0129C01C70138
:1025B000B601A5010E948E0D1F910F91FF90EF9023
:1025C000DF90CF90BF90AF900895CF93DF93EB0152
:1025D0000E946012FC01009721F083E08087D2877F
:1025E000C187CF01DF91CF910895CF92DF92EF9213
:1025F000FF920F931F938C017B016A01B9010E9426
:10260000E5129C01C801B701A6010E948E0D1F9121
:102610000F91FF90EF90DF90CF9008956F927F928F
:102620008F929F92BF92CF92DF92EF92FF920F9381
:102630001F93CF93DF937C014B018A013901CA01BB
:102640000E9415058B37910509F05DC087E0F40104
:102650008087C701B8010E94730EC8010E9415054A
:102660008D37910509F452C0B8010E94F505BB24CD
:10267000BA94C7010E946012EC01009709F443C0AC
:10268000BB2021F0F4019783868305C0F601938374
:102690008283DD82CC82C701B8010E94730EC7011C
:1026A000BE01A8010E9489108F5F9F4F61F1C70191
:1026B000B8010E94730E89859A85998388831A864A
:1026C0001986C8010E941505CA97E9F4C701B80127
:1026D0000E94730EC701BE01A80193010E949713C7
:1026E0008F5F9F4F81F0C701B8010E94730EC80130
:1026F0000E941505BB246E018C32910509F4B9CFF7
:102700008D37910519F02FEF3FEF02C020E030E048
:10271000C901DF91CF911F910F91FF90EF90DF9052
:10272000CF90BF909F908F907F906F9008958F92E1
:102730009F92AF92BF92CF92DF92EF92FF920F9350
:102740001F93DF93CF93CDB7DEB729970FB6F894D9
:10275000DEBF0FBECDBF6C015B017A01490141159F
:10276000510509F4ADC0BA010E94730E8F5F9F4FEF
:1027700009F4A6C0C7010E9415058C018FEF0F3F19
:10278000180709F49DC0C801B7010E94F5058F5FC5
:102790009F4F09F495C00232110531F4C601B5010D
:1027A000A7010E94891020C00D32110521F0C80137
:1027B000C0970A9730F4C601B501A7010E94001125
:1027C00013C00B35110539F4C601B501A7019401F9
:1027D0000E94761409C00B37110541F4C601B501FA
:1027E000A70194010E940E139C016CC00E361105C6
:1027F00001F519821A821B821C828E010F5F1F4F06
:10280000C80161E070E044E050E097010E94A0053B
:10281000049709F055C0C80160E071E044E050E061
:102820000E947904009709F04BC082E0F50180878F
:1028300044C006361105F9F48E010B5F1F4F85E089
:10284000F80111928A95E9F7C80161E070E045E06E
:1028500050E097010E94A005059791F5C80165E039
:1028600071E045E050E00E947904009749F5F501D8
:102870001086118622C00437110511F519821A82BB
:102880001B821C828E010F5F1F4FC80161E070E048
:1028900044E050E097010E94A005049789F4C80124
:1028A0006BE071E044E050E00E947904009741F44D
:1028B00081E0F50180878FEF818720E030E002C062
:1028C0002FEF3FEFC90129960FB6F894DEBF0FBE78
:1028D000CDBFCF91DF911F910F91FF90EF90DF90CF
:1028E000CF90BF90AF909F908F9008956F927F92FE
:1028F0008F929F92BF92CF92DF92EF92FF920F93AF
:102900001F93CF93DF936C014B01EA013901CA0198
:102910000E9415058B35910509F03FC086E0F40152
:102920008087C601BE010E94730ECE010E9415056C
:102930008D359105A9F1BE010E94F505BB24BA941D
:10294000C6010E9460128C01009739F1BB2021F072
:10295000F4019783868306C0F70193838283FC0189
:10296000F582E482C601BE010E94730EC601B80161
:10297000AE0193010E949713892B79F4C601BE0121
:102980000E94730ECE010E941505BB2478018C3283
:102990009105B1F28D35910519F02FEF3FEF02C08F
:1029A00020E030E0C901DF91CF911F910F91FF909E
:1029B000EF90DF90CF90BF909F908F907F906F901F
:1029C0000895CF92DF92EF92FF920F931F93CF93D0
:1029D000DF937C018B016A0161157105B1F00E94E2
:1029E0006012EC01009799F0C701B8010E94730EC4
:1029F000C701BE01A80196010E9497138F5F9F4FE8
:102A000031F4C701BE010E94C30DC0E0D0E0CE0189
:102A1000DF91CF911F910F91FF90EF90DF90CF90BA
:102A20000895EF92FF920F931F937C01CB010E94B8
:102A30009D158C01C701B80140E050E00E94E114EF
:102A4000F82EE92EC8010E948A158F2D9E2D1F9108
:102A50000F91FF90EF900895FC01A485B585129623
:102A60002D913C911397ED91FC911197E20FF31F7B
:102A70008081882319F4EFEFFFEF0AC02F5F3F4FEB
:102A800013963C932E931297E82FFF27E7FDF095BE
:102A9000CF010895FB01648575850E94C4158823C4
:102AA00019F420E030E002C02FEF3FEFC901089594
:102AB0000F931F93CF93DF93EC018C859D850E942C
:102AC000E7158C01009711F01D861C86CE010E942F
:102AD0009E04C801DF91CF911F910F910895CF936C
:102AE000DF938AE495E160E070E00E94C904EC01A4
:102AF000009761F00E942A16009731F4CE010E94DF
:102B00009E04C0E0D0E002C09D878C87CE01DF919B
:102B1000CF910895CF93DF93EC01009759F08C8506
:102B20009D85009711F00E9488021D861C86CE01AB
:102B30000E949E04DF91CF9108950F931F93CF932E
:102B4000DF938C0180E090E06CE275E10E94C904A3
:102B5000EC01009799F084E090E00E94DE01FC0116
:102B6000009739F011830083138212829D878C872E
:102B700005C0CE010E949E04C0E0D0E0CE01DF91EE
:102B8000CF911F910F910895482FDB0114962D913D
:102B90003C91159712968D919C91139728173907A0
:102BA00078F4ED91FC911197E20FF31F4083149696
:102BB0008D919C911597019615969C938E931497E1
:102BC00080E00895009711F00E94880208950F9305
:102BD0001F93CF93DF938C01DC0114962D913C91D0
:102BE00015972115310541F0ED91FC91E20FF31F8E
:102BF000319780818823B1F0F80182819381281771
:102C0000390780F40190F081E02DE20FF31F10826C
:102C1000D80114968D919C911597019615969C93C9
:102C20008E931497F801848195810E94DE01EC0156
:102C3000009751F06CE775E00E947204D8011D9274
:102C40001C92C8010E948802CE01DF91CF911F9192
:102C50000F910895CF93DF9386E090E00E94DE010C
:102C6000DC010097A9F0ECE7F5E01196FC93EE93F8
:102C700080E091E0EF019C01199221503040E1F792
:102C800013969C938E93129715961C921E921497EE
:102C9000CD01DF91CF9108950F931F938C010E9476
:102CA000F42C605A75418F4F9F4FF80160837183F8
:102CB0008283938380E090E0A0E0B0E084839583FA
:102CC000A683B7831F910F91089588E092E00E9438
:102CD0004C1680E192E06EE00E94DA080895EF92CF
:102CE000FF920F931F93CF93DF93EC010E94F42C7C
:102CF0009B01AC0188819981AA81BB8179018A01FC
:102D0000E81AF90A0A0B1B0BD801C7018153954732
:102D1000A040B04008F450C0288339834A835B83C5
:102D200088E692E00E94041988E692E068E470E088
:102D300042E050E00E94011988E692E00E94551896
:102D4000182F88E692E00E945518312F20E090E07D
:102D5000282B392B84E0359527958A95E1F7442770
:102D600037FD4095542FCA01B9010E946E3320E00F
:102D700030E040E85DE30E94223420E030E040E2B1
:102D800051E40E9422340E943B33882777FD8095CE
:102D9000982F0E946E3320E030E040E251E40E9420
:102DA000D3328B01F82FE92FAC01CB01DA018C83F0
:102DB0009D83AE83BF8304C00C811D81FE81EF81A2
:102DC0004F2F5E2FB801CA01DF91CF911F910F9154
:102DD000FF90EF900895EF92FF920F931F93DF9370
:102DE000CF930F92CDB7DEB7962F613031F47EE0EE
:102DF000E72EF12C0EE010E014C0623031F46FE0E9
:102E0000E62EF12C0FE010E00CC0633031F430E11D
:102E1000E32EF12C00E110E004C0EE24FF2400E0DA
:102E200010E04830510509F458C04930510594F478
:102E30004530510511F14630510524F4452B09F474
:102E400080C018C04630510509F47BC04730510599
:102E500089F42BC04A30510509F473C04A3051053A
:102E60000CF46AC04C30510509F474C04A5E5340FA
:102E700009F481C00FEF1FEFA0C0802F60E00E9417
:102E8000482E802F0E94C22E2FEF33E0829F8001B8
:102E9000839F100D929F100D11240115110509F04B
:102EA0008CC081EE92E069E063C0802F60E00E94F8
:102EB000482E802F0E94C22E2FEF33E0829F800188
:102EC000839F100D929F100D1124101611060CF007
:102ED00074C081EE92E068E04BC080E192E0602F28
:102EE0000E94B10880E192E00E940E0990932002B6
:102EF00080931F020197069708F45DC080E192E07D
:102F00000E94CA0820E030E040E251E40E942234EE
:102F10000E943B338B0180E192E00E94D20820E0C6
:102F200030E040E251E40E9422340E943B3370932F
:102F300022026093210241C00091210210912202DD
:102F40003CC08E2D60E00E94482E8E2D0E94C62D22
:102F50008C0133C08E2D60E00E94482E8E2D0E9481
:102F6000C62D8C011816190644F581EE92E067E033
:102F70000E94562322C0802F61E099830E94482E30
:102F80009981913021F488B1082F10E011C092305E
:102F900031F488B1082F10E01595079509C09330DA
:102FA00051F488B1082F10E01595079515950795F0
:102FB0000170107002C000E010E0C8010F90CF91C6
:102FC000DF911F910F91FF90EF900895CF93DF93C2
:102FD000EB01442369F08DE595E060E171E00E942A
:102FE00054328DE595E0BE014AE050E00E94353252
:102FF000CE01835B9040439718F42AE030E048C04C
:10300000CE018B5F9040439718F427E030E040C03A
:10301000CE0188549140439718F429EE33E038C02C
:10302000CE018E569140439718F426E030E030C030
:10303000CE01805A9140439718F42BE030E028C02D
:10304000CE0180509240439718F428E030E020C031
:10305000CE0180539240439718F42CE030E018C022
:10306000CE018F589240439718F42AEE33E010C0F7
:10307000CE018F509340439718F425E030E008C00C
:10308000C35FD3401CF420E030E002C02FEF3FEFDD
:10309000C901DF91CF9108952091440230E08091E1
:1030A0004302281B3109C9010895409143028091D0
:1030B0004402481718F02FEF3FEF0AC0E42FF0E06A
:1030C000ED5DFD4F8081282F30E04F5F409343023C
:1030D000C9010895E091430280914402E81718F075
:1030E000EFEFFFEF06C0F0E0ED5DFD4F8081E82FD0
:1030F000F0E0CF010895089510926B0210926A02D9
:1031000088EE93E0A0E0B0E080936C0290936D02B3
:10311000A0936E02B0936F0283E891E090936902EE
:10312000809368020895CF92DF92EF92FF920F93FF
:103130001F93CF93DF937C016B018A01809167021B
:103140008823A1F0C0E0D0E00DC0D701ED91FC9143
:10315000D601AC0FBD1F0190F081E02DC7016C912D
:1031600009952196C017D10780F304C0CB01642FC5
:103170000E944619C801DF91CF911F910F91FF90D6
:10318000EF90DF90CF900895DF93CF930F92CDB75C
:10319000DEB7FC016983809167028823C9F08091C2
:1031A0006602803238F081E090E09383828320E0F1
:1031B00030E015C080916502E82FF0E0EB5BFD4F39
:1031C000998190838F5F809365028093660205C02A
:1031D000CE01019661E00E94461921E030E0C9016C
:1031E0000F90CF91DF910895413208F040E2862F91
:1031F00063E272E00E940F1910924302809344022E
:1032000008950E94F4180895109243021092440207
:1032100010926502109266020E94DC1A0895982F9F
:10322000413210F040E030C0809174028823E1F711
:1032300081E0809374028FEF8093DF0210929A02F4
:10324000415040939B024F5F990F9160909375029C
:1032500085EE8093BC00809174028130E1F380910F
:103260009A02841710F440919A0220E030E00AC0DC
:10327000FB01E20FF31FD901A658BD4F8C9180834B
:103280002F5F3F4F2417A0F3842F0895482F6132FA
:1032900010F081E0089580917402843011F082E092
:1032A00008956093BD02ACE9B2E0842F9C01F9015E
:1032B00002C081918D938E2F841B8617D0F380E0FE
:1032C00008951F920F920FB60F9211242F933F93E0
:1032D0004F935F936F937F938F939F93AF93BF931E
:1032E000EF93FF938091B90090E0887F90708036D3
:1032F000910509F4DCC081369105CCF58832910541
:1033000009F47BC089329105B4F48031910509F448
:103310006FC0813191053CF4009709F431C10897E1
:1033200009F039C165C08831910509F466C08097FC
:1033300009F031C17DC08034910509F49FC081340A
:10334000910544F48033910509F47DC0C89709F0D4
:1033500022C184C08035910509F484C08835910567
:1033600009F491C08834910509F015C198C08839D5
:10337000910509F4FDC089399105ECF48837910570
:1033800009F495C0893791054CF48836910509F404
:103390008EC08037910509F0FEC089C0883891053C
:1033A00009F4E6C08039910509F487C08038910599
:1033B00009F0F1C082C0803B910509F4B0C0813BA7
:1033C00091054CF4803A910509F489C0883A910539
:1033D00009F0E1C0A4C0803C910509F4CDC0883C4F
:1033E000910509F4C9C0883B910509F0D4C0ACC06F
:1033F000809175028093BB00B9C090919A02809130
:103400009B02981768F490919A02E92FF0E0E65831
:10341000FD4F80818093BB009F5F90939A02A6C06E
:1034200085ED8093BC008091BC0084FDFCCFB1C0D1
:1034300080E28093DF0285ED8093BC008091BC0028
:1034400084FDFCCFA6C080E38093DF0285ED8093EE
:10345000BC008091BC0084FDFCCF9BC088E38093BE
:10346000DF028AC080919A029091BB00E82FF0E0C1
:10347000E658FD4F90838F5F80939A0290919A0255
:1034800080919B0271C080919A029091BB00E82FBD
:10349000F0E0E658FD4F90838F5F80939A0285EDB0
:1034A0008093BC008091BC0084FDFCCF72C083E09F
:1034B000809374021092DE0259C08091DE02803245
:1034C00008F056C08091DE029091BB00E82FF0E03A
:1034D000E254FD4F90838F5F8093DE0247C080915E
:1034E000DE02803230F4E091DE02F0E0E254FD4F83
:1034F000108285ED8093BC008091BC0084FDFCCFE0
:10350000109274026091DE02E0917802F0917902EB
:103510008EEB92E070E009951092DE022DC084E0FF
:10352000809374021092BC021092BD02E091760268
:10353000F091770209958091BD02882329F481E0FA
:103540008093BD0210929C029091BC02E92FF0E0A2
:10355000E456FD4F80818093BB009F5F9093BC0237
:103560009091BC028091BD02981710F485EC01C0C7
:1035700085E88093BC000FC085EC8093BC0009C037
:103580001092DF0285ED8093BC008091BC0084FD29
:10359000FCCF10927402FF91EF91BF91AF919F9178
:1035A0008F917F916F915F914F913F912F910F90EC
:1035B0000FBE0F901F9018951092740282E161E087
:1035C0000E946E2E83E161E00E946E2EE9EBF0E036
:1035D00080818E7F808380818D7F808388E480934B
:1035E000B80085E48093BC000895362F242F85EE23
:1035F00091E06DE1432F0E94CA0C0895EF92FF9273
:103600000F931F93CF93DF93162F7A01022F85EE2E
:1036100091E06DE1412F0E94070D85EE91E06DE193
:10362000412F202F0E94450CC0E0D0E010E009C0DF
:1036300085EE91E00E94A60AF701EC0FFD1F808342
:103640002196C017D107A4F3DF91CF911F910F915D
:10365000FF90EF9008950F931F93DF93CF930F92F6
:10366000CDB7DEB78C016AE2AE014F5F5F4F21E05C
:103670000E94FE1A49814D7FC8016AE20E94F51A34
:103680000F90CF91DF911F910F9108950F931F938A
:10369000DF93CF930F92CDB7DEB78C016AE2AE0114
:1036A0004F5F5F4F21E00E94FE1A49814160C801CF
:1036B0006AE20E94F51A0F90CF91DF911F910F914E
:1036C00008950F931F93DF93CF930F92CDB7DEB77B
:1036D0008C016AE2AE014F5F5F4F21E00E94FE1A4B
:1036E00049814E7FC8016AE20E94F51A0F90CF917E
:1036F000DF911F910F9108950F931F93DF93CF9345
:103700000F92CDB7DEB78C0185EE91E00E94950A4D
:10371000C8010E94611BC8016EE040E00E94F51ADA
:10372000C8010E942B1BC8010E94461BC8016DE006
:10373000AE014F5F5F4F21E00E94FE1A0F90CF91C4
:10374000DF911F910F91089580EE92E00E947C1B03
:1037500008957F928F929F92AF92BF92CF92DF9205
:10376000EF92FF920F931F93CF93DF935C01712E23
:10377000122FB32FA42FF52FE62F972F47016501A6
:10378000E501EE24FF241BC000FD02C080E301C060
:1037900081E388A30894E11CF11C202F372D412FD1
:1037A0005B2F6A2F7F2F8E2F01E00E94E000022FF7
:1037B000732E142FB52FA62FF72FE82F2196802FC9
:1037C0008729812B8B2B8A2B8F2B8E2B892BE1F634
:1037D000A4014E195F09D501A80DB91DFD0120E016
:1037E00030E090E30FC02417350720F0878DE60105
:1037F000888302C0E60198832F5F3F4F319708947A
:10380000C11CD11C2815390570F31C92DF91CF9192
:103810001F910F91FF90EF90DF90CF90BF90AF90EE
:103820009F908F907F9008950F931F938C010E941B
:10383000F42C605A75418F4F9F4FF801608371835C
:10384000828393831F910F91089581EE92E00E94ED
:10385000141C80ED93E00E94A32608952F923F92BE
:103860004F925F926F927F928F929F92AF92CF9280
:10387000DF92EF92FF920F931F93DF93CF9300D0CD
:1038800000D000D0CDB7DEB72B011A013A832983CF
:103890001C830B833601470187E092E00E946E1281
:1038A0006C01009739F48DE595E06FE171E00E94BD
:1038B000573281C087E092E00E9477128C0187E046
:1038C00092E0B6014AE251E098010E948E0D87E035
:1038D00092E00E946E129E838D8387E092E0B80191
:1038E0004D815E810E94550D87E092E06D817E8161
:1038F00041E351E092010E94971287E092E06D81CE
:103900007E8143E351E091010E94F51287E092E04D
:103910006D817E8145E351E029813A810E94F51253
:10392000AA2059F087E092E06D817E8147E351E063
:103930002B813C810E94971229C0C401B3010E94CF
:103940003B337B018C01B701882777FD8095982F49
:103950000E946E339B01AC01C401B3010E941E346E
:1039600018165CF487E092E06D817E8147E351E0B8
:10397000940183010E94C71209C087E092E06D8123
:103980007E8147E351E097010E94F51287E092E0C3
:10399000B6010E9468108C01009729F08DE595E032
:1039A000B8010E94573287E092E0B6010E94C30D31
:1039B000C8010E94880226960FB6F894DEBF0FBE9B
:1039C000CDBFCF91DF911F910F91FF90EF90DF90CE
:1039D000CF90AF909F908F907F906F905F904F901F
:1039E0003F902F9008952F923F924F925F926F9247
:1039F0007F928F929F92AF92CF92DF92EF92FF923F
:103A00000F931F93DF93CF93CDB7DEB72F970FB6EA
:103A1000F894DEBF0FBECDBF2C01622EA32EB42FB3
:103A2000A52FCB01CC24DD245BE0E52EF12C44E076
:103A3000242E312C2C0E3D1E202F2F70F101EE0D67
:103A4000FF1D20833BE0E316F10411F0C20ED11CF0
:103A50000894E108F1082FEFE2162FEFF20671F05B
:103A60009801462D5A2D6B2F7A2F04E00E94E0001A
:103A70008901642EA52EB62FA72FDECF8C81893029
:103A800009F043C18F8590E03FE0C322DD248C150F
:103A90009D0509F03AC100D000D000D0EDB7FEB7C7
:103AA00031961E010894211C311CADB7BEB7129689
:103AB0003C922E9211978AE391E0938382838E81C8
:103AC0008295807F9F81890F848315820E94D10512
:103AD0002DB73EB72A5F3F4F0FB6F8943EBF0FBEDB
:103AE0002DBF8D818370813009F44CC0813038F056
:103AF000823009F45EC0833009F007C19CC06A853A
:103B000024E6629FB0011124882777FD8095982FC5
:103B10000E946E337B018C016B852AE0629FB001AD
:103B20001124882777FD8095982F0E946E339B0182
:103B3000AC01C801B7010E946B327B018C016C851E
:103B400070E0882777FD8095982F0E946E339B0147
:103B5000AC01C801B7010E946B3220E030E046E9B9
:103B600053E40E946A3220E030E040E251E40E94D7
:103B7000D3326B017C01C201B10140E050E024E18D
:103B800030E0BEC06A852AE0629FB00111242B8517
:103B9000620F711D882777FD8095982F0E946E33E4
:103BA0006B017C01C201B10140E050E025E130E051
:103BB000A7C07A8560E0882777FD8095982F0E94BE
:103BC0006E337B018C016B8570E034E0660F771FEC
:103BD0003A95E1F7882777FD8095982F0E946E33FC
:103BE0009B01AC01C801B7010E946B327B018C01C3
:103BF0006C8570E0882777FD8095982F0E946E3342
:103C00009B01AC01C801B7010E946B3220E030E893
:103C100041E054E40E94223420E030E04AE754E4DA
:103C20000E94D3326B017C01C201B10140E050E03F
:103C300026E130E065C0698570E061707070762FB4
:103C40006627882777FD8095982F0E946E337B0129
:103C50008C016A8570E094E0660F771F9A95E1F712
:103C6000882777FD8095982F0E946E339B01AC01C9
:103C7000C801B7010E946B327B018C016B8570E03B
:103C8000882777FD8095982F0E946E339B01AC01A9
:103C9000C801B7010E946B3220E030E040E251E4FD
:103CA0000E94D3323B014C010C8510E0000F111F24
:103CB000000F111F01571E4FC201B10140E050E03B
:103CC00027E130E00F2EF0E0CF2EF0E0DF2EF0E025
:103CD000EF2EF0E0FF2EF02DAA24A3940E942E1CBC
:103CE000C401B30126E636E646E650E40E942234DB
:103CF0006B017C01C201B10140E050E028E130E0FD
:103D000000E010E0AA240E942E1C2F960FB6F89413
:103D1000DEBF0FBECDBFCF91DF911F910F91FF90FE
:103D2000EF90DF90CF90AF909F908F907F906F90AB
:103D30005F904F903F902F9008956F927F928F9257
:103D40009F92AF92BF92CF92DF92EF92FF920F932A
:103D50001F93DF93CF93CDB7DEB72D970FB6F894AF
:103D6000DEBF0FBECDBF3C01B12E122FA32EB42F4C
:103D7000A52FCB01CC24DD24E9E0EE2EF12C74E05C
:103D8000872E912C8C0E9D1E202F2F70F401EE0D8E
:103D9000FF1D208339E0E316F10411F0C20ED11C9F
:103DA0000894E108F1086FEFE6166FEFF60681F070
:103DB000202F3B2D412F5A2D6B2F7A2F04E00E948C
:103DC000E000022FB32E142FA52EB62FA72FDCCF85
:103DD0001C811A3009F062C08D8590E07FE0C72217
:103DE000DD248C159D0509F059C000D000D000D00D
:103DF000EDB7FEB731965E010894A11CB11CADB7BA
:103E0000BEB71296BC92AE9211978AE391E093836B
:103E100082838F8190E08E709070959587952E812A
:103E20002295207F280F248315820E94D1052B859F
:103E30009C854A856DB77EB76A5F7F4F0FB6F89451
:103E40007EBF0FBE6DBF8D81882341F564E6269F3E
:103E5000B0011124919F90011124620F731F640F10
:103E6000711D80E090E00E946C3320E030E040E281
:103E700051E40E94D33220E030E048E452E40E9452
:103E80006A326B017C01C301B50140E050E02DE0D6
:103E900030E000E010E0AA240E942E1C2D960FB600
:103EA000F894DEBF0FBECDBFCF91DF911F910F9170
:103EB000FF90EF90DF90CF90BF90AF909F908F904A
:103EC0007F906F900895EF92FF920F931F93CF937F
:103ED000DF9387E092E00E946E127C01009739F434
:103EE0008DE595E06FE171E00E94573265C087E093
:103EF00092E00E9477128C0187E092E0B7014DE3D7
:103F000051E098010E948E0D87E092E00E946E12AF
:103F1000EC0187E092E0B801AE010E94550D87E008
:103F200092E0BE0141E351E025E633E00E949712A2
:103F30002091890330918A0387E092E0BE0143E338
:103F400051E00E94F51220918B0330918C0387E0A1
:103F500092E0BE0145E351E00E94F5128091CF034B
:103F6000882351F087E092E0BE0147E351E02DE85D
:103F700033E00E9497120BC02091CD033091CE0305
:103F800087E092E0BE0147E351E00E94F51287E02E
:103F900092E0B7010E946810EC01009729F08DE5CE
:103FA00095E0BE010E94573287E092E0B7010E947F
:103FB000C30DCE010E948802DF91CF911F910F9116
:103FC000FF90EF900895CF92DF92EF92FF920F93C0
:103FD0001F93CF93DF93EB0187E092E00E946E1274
:103FE0006C01009739F48DE595E06FE171E00E9476
:103FF000573235C087E092E00E9477127C0187E05B
:1040000092E0B60141E451E097010E948E0D87E0F5
:1040100092E00E946E128C0187E092E0B701A80145
:104020000E94550D87E092E0B80147E451E09E01FF
:104030000E94F51287E092E0B6010E946810EC0140
:10404000009729F08DE595E0BE010E94573287E088
:1040500092E0B6010E94C30DCE010E948802DF915A
:10406000CF911F910F91FF90EF90DF90CF90089527
:10407000AF92BF92CF92DF92EF92FF920F931F9376
:10408000CF93DF9305EE12E087E092E0B8010E9443
:1040900011155C0180E8F80111928A95E9F7A114E5
:1040A000B10411F480E08DC087E092E0B5010E9478
:1040B000390D882309F47CC087E092E0B5014AE21B
:1040C00051E00E94730DBC01009709F471C087E0B4
:1040D00092E040E00E94460DEC01009709F468C0B0
:1040E00087E092E0BE0141E351E00E94730D8C0134
:1040F00087E092E0BE0143E351E00E94730D7C0132
:1041000087E092E0BE0145E351E00E94730D6C012F
:1041100087E092E0BE0147E351E00E94730DEC019D
:104120000115110509F444C0F8018085853009F0B6
:104130003FC06185728585E693E044E250E00E94CD
:104140008704E114F104A1F1F7018085833081F542
:104150008185928590938A0380938903C114D10449
:1041600039F1F6018085833019F581859285909328
:104170008C0380938B032097D9F08885853061F478
:1041800069857A858DE893E040E450E00E948704D9
:1041900081E08093CF030AC0833051F489859A85EA
:1041A0009093CE038093CD031092CF0301E001C022
:1041B00000E087E092E0B5010E94C30D802F01115D
:1041C00081E0DF91CF911F910F91FF90EF90DF90F1
:1041D000CF90BF90AF900895CF93DF938DE595E09A
:1041E0000E942C30892B19F4CFEFDFEF1CC0C0E008
:1041F000D0E012C0C038D105B1F08DE595E00E9445
:104200005D30FE01EB51FD4F8083219662E070E04E
:1042100080E090E00E94282D8DE595E00E942C30F2
:10422000181619063CF3CE01DF91CF910895CF9275
:10423000DF92EF92FF920F931F93CF93DF93EC01E6
:104240000E94EC20181619060CF0C5C0CE010E9481
:104250003820882309F4BAC08091890390918A0399
:10426000892B09F0AFC080918B0390918C0323E0E0
:10427000883E920791F023E0893E920724F40B9741
:1042800009F09CC02DC023E08A3E920709F459C072
:104290008B5E934009F092C075C08DE893E060E0BA
:1042A00070E040E150E00E94E0027B018C01FFEFF2
:1042B000CF2ED12CB601601B710987E00E94E82D3A
:1042C000CF18D10888E0B6010E94E82DE094F09460
:1042D0008FEFE822FF2489E0B7010E94E82D66C035
:1042E00085E693E00E940F04823049F0833061F04C
:1042F000813081F480ED93E06EE070E009C080EDE4
:1043000093E06FE070E004C080ED93E060E170E066
:104310000E94142C80ED93E06EE571E00E94CB26A4
:1043200080ED93E068E070E00E94CF2680ED93E09E
:104330006DE873E00E94D02B80ED93E00E94042C86
:1043400035C085E693E00E940F04823041F083304F
:1043500041F0813011F41EE005C01FEF03C01FE0E3
:1043600001C010E18091CF03882331F08DE893E004
:104370000E940F04682F02C06091CD03812F0E941C
:104380006E2E14C08DE893E06CE471E00E94690425
:10439000009781F48DE893E060E571E00E9472047B
:1043A0008DE893E065E571E00E945E04CE010E9415
:1043B000631F11C0CE0164E070E00BC0CE0163E06A
:1043C00070E007C0CE0162E070E003C0CE0161E0A2
:1043D00070E00E94E31FDF91CF911F910F91FF903A
:1043E000EF90DF90CF9008954F925F926F927F92FF
:1043F0008F929F92AF92CF92DF92EF92FF920F93A4
:104400001F93DF93CF93CDB7DEB72F970FB6F894F6
:10441000DEBF0FBECDBF4C01F62E8DE595E00E94AC
:104420002C30181619061CF4C4010E94172100D064
:1044300000D000D0EDB7FEB731962E010894411C94
:10444000511CADB7BEB712965C924E92119789E59A
:1044500091E093838283F48215820E94D1058DB707
:104460009EB706960FB6F8949EBF0FBE8DBF88E02C
:1044700092E06F2D48E050E00E94EB168C0188E03E
:1044800092E06F2D49E050E00E94EB163C01C8011C
:1044900001978F5C9740C0F5B801882777FD80951C
:1044A000982F0E946E3320E030E040E251E40E94F9
:1044B000D3326B017C01C401B20140E050E028E03E
:1044C00030E000E010E0AA240E942E1C1092D903D4
:1044D000C30101978F5C9740B8F4B301882777FD3B
:1044E0008095982F0E946E3320E030E040E251E446
:1044F0000E94D3326B017C01C401B20140E050E064
:1045000029E030E00E942E1C8DE595E00E942C30C1
:10451000181619061CF4C4010E9417212F960FB615
:10452000F894DEBF0FBECDBFCF91DF911F910F91E9
:10453000FF90EF90DF90CF90AF909F908F907F9003
:104540006F905F904F900895AF92CF92DF92EF926D
:10455000FF920F931F93CF93DF93EC018DE595E0CE
:104560000E942C30181619061CF4CE010E94172147
:1045700088E092E00E946F166B017C01CE0165E637
:1045800071E040E050E021E030E000E010E0AA24DB
:104590000E942E1C8DE595E00E942C3018161906FD
:1045A0001CF4CE010E941721DF91CF911F910F9132
:1045B000FF90EF90DF90CF90AF9008958F929F92F1
:1045C000AF92CF92DF92EF92FF920F931F93DF9300
:1045D000CF93CDB7DEB727970FB6F894DEBF0FBEE7
:1045E000CDBF4C018DE595E00E942C3018161906C0
:1045F0001CF4C4010E94172185B1082F10E003703C
:104600001070CE0101965F9B03C067E671E002C0A7
:104610006AE671E00E947204CE01019600FF03C0B9
:1046200067E671E002C06AE671E00E945E04CE01B6
:10463000019601FF03C067E671E002C06AE671E01F
:104640000E945E04C40165E671E040E050E028EE9F
:1046500033E08E010F5F1F4F0F2EF0E0CF2EF0E002
:10466000DF2EF0E0EF2EF0E0FF2EF02DAA24A39431
:104670000E942E1C8DE595E00E942C30181619061C
:104680001CF4C4010E94172127960FB6F894DEBFD0
:104690000FBECDBFCF91DF911F910F91FF90EF9093
:1046A000DF90CF90AF909F908F900895FF920F93DF
:1046B0001F93162F05B1FBB087E061E00E946E2EBC
:1046C00088E061E00E946E2E89E061E00E946E2E1B
:1046D000812F60E00E946E2E6CE370E080E090E03D
:1046E0000E94282D87E061E00E946E2E88E061E044
:1046F0000E946E2E89E061E00E946E2E64E170E0FF
:1047000080E090E00E94282D05B9FBB81F910F9121
:10471000FF9008958F929F92AF92BF92CF92DF92B7
:10472000EF92FF920F931F93CF93DF93EC018DE5F0
:1047300095E00E942C30181619061CF4CE010E9438
:10474000172180ED93E061E070E00E94342B80ED52
:1047500093E00E94D326882309F47DC080ED93E086
:104760000E9400278901F42EE52ED62EC72EB82EE2
:10477000A92E822F812B8F298E298D298C298B2977
:104780008A2951F1CE0168E00E94562380ED93E022
:104790000E941627039751F4CE012F2D3E2D4D2D4B
:1047A0005C2D6B2D7A2D0E949D1E50C080ED93E0F4
:1047B0000E941627049751F4CE012F2D3E2D4D2D2A
:1047C0005C2D6B2D7A2D0E94F31C40C080ED93E090
:1047D0000E941127819748F0CE0165E671E040E024
:1047E00050E02BE030E08B0123C080ED93E00E948D
:1047F00000278901D42EC52EB62EA72E982E892EDD
:1048000080ED93E00E9411277C018DE893E02D2D2F
:104810003C2D4B2D5A2D692D782D0E94A91BCE01C0
:1048200065E671E040E050E02BE030E00DE813E099
:104830000F2EF0E0CF2EF0E0DF2EF0E0EF2EF0E0D4
:10484000FF2EF02DAA24A3940E942E1C80ED93E04D
:104850000E94EF260AC08DE595E00E942C301816C4
:1048600019061CF4CE010E941721DF91CF911F91F0
:104870000F91FF90EF90DF90CF90BF90AF909F90FF
:104880008F9008950F931F93182F0E94C62D6AE0F2
:1048900070E080E090E00E94282D812F0E94C62DBC
:1048A000182F092F64E170E080E090E00E94282D2D
:1048B000812F902F1F910F9108958F929F92AF9209
:1048C000CF92DF92EF92FF920F931F93CF93DF93DC
:1048D0004C018B01FB0110828DE595E00E942C308C
:1048E000181619061CF4C4010E94172185E190E0F6
:1048F0000E944224BC0188E092E040E00E94E6175A
:10490000EC018830910571F483E0F8018083809197
:10491000DE039091DF03089719F081E08093D903BB
:1049200011E036C097FD33C00097B1F485E190E007
:104930000E944224AA2797FDA095BA2FBC01CD0161
:104940000E946E336B017C01C40160E771E040E0BE
:1049500050E020E030E016C088E092E063E0AE0175
:104960000E94EB16AA2797FDA095BA2FBC01CD0196
:104970000E946E336B017C01C40160E771E040E08E
:1049800050E09E0100E010E0AA240E942E1C10E0DE
:10499000D093DF03C093DE038DE595E00E942C30B9
:1049A000181619061CF4C4010E941721812FDF91EB
:1049B000CF911F910F91FF90EF90DF90CF90AF902C
:1049C0009F908F9008958F929F92AF92CF92DF9297
:1049D000EF92FF920F931F93CF93DF934C018B01C4
:1049E000FB0110828DE595E00E942C301816190607
:1049F0001CF4C4010E94172184E190E00E9442242B
:104A0000BC0188E092E040E00E94E617EC018830AB
:104A1000910571F482E0F80180838091DC0390912C
:104A2000DD03089719F081E08093D90311E036C0C7
:104A300097FD33C00097B1F484E190E00E944224D6
:104A4000AA2797FDA095BA2FBC01CD010E946E3315
:104A50006B017C01C40162E771E040E050E020E0BE
:104A600030E016C088E092E062E0AE010E94EB16F2
:104A7000AA2797FDA095BA2FBC01CD010E946E33E5
:104A80006B017C01C40162E771E040E050E09E01EF
:104A900000E010E0AA240E942E1C10E08DE595E0B5
:104AA0000E942C30181619061CF4C4010E9417210C
:104AB000D093DD03C093DC03812FDF91CF911F9151
:104AC0000F91FF90EF90DF90CF90AF909F908F90DD
:104AD00008958F929F92AF92CF92DF92EF92FF92C2
:104AE0000F931F93CF93DF934C018B01FB01108237
:104AF0008DE595E00E942C30181619061CF4C401AF
:104B00000E94172181E190E00E944224BC0188E0CC
:104B100092E040E00E94E617EC018B30910539F4F9
:104B200080ED93E061E070E00E94342B2EC080EDB8
:104B300093E00E94032BC830D10569F421E0F8010D
:104B400020838091DA039091DB03089711F0209382
:104B5000D90311E03DC0D7FD3AC02097B1F481E1FF
:104B600090E00E944224AA2797FDA095BA2FBC018D
:104B7000CD010E946E336B017C01C40164E771E0DA
:104B800040E050E020E030E01DC0CB30D10521F402
:104B9000C4010E948A231BC088E092E061E0AE015C
:104BA0000E94EB16AA2797FDA095BA2FBC01CD0154
:104BB0000E946E336B017C01C40164E771E040E048
:104BC00050E09E0100E010E0AA240E942E1C10E09C
:104BD000D093DB03C093DA038DE595E00E942C307F
:104BE000181619061CF4C4010E941721812FDF91A9
:104BF000CF911F910F91FF90EF90DF90CF90AF90EA
:104C00009F908F900895AF92BF92CF92DF92EF92D4
:104C1000FF921F93DF93CF930F92CDB7DEB77C0146
:104C20001982BE016F5F7F4F0E946925182F0E9475
:104C3000F42C5B016C011123D1F08091D9038823FE
:104C400091F4F70180819181A281B381A601950140
:104C5000281B390B4A0B5B0BDA01C90181539547BD
:104C6000A040B04020F0C70169810E94F421C70133
:104C7000BE016F5F7F4F0E94E3248823D1F08091B3
:104C8000D903882391F4F70180819181A281B381B6
:104C9000A6019501281B390B4A0B5B0BDA01C901F0
:104CA00081539547A040B04020F0C70169810E9420
:104CB000F421C701BE016F5F7F4F0E945D248823EE
:104CC000D1F08091D903882391F4F70180819181FB
:104CD000A281B381A6019501281B390B4A0B5B0BFE
:104CE000DA01C90181539547A040B04020F0C701C7
:104CF00069810E94F421F70180819181A281B381B1
:104D0000A6019501281B390B4A0B5B0BDA01C9017F
:104D100081539547A040B04058F0C7010E94DE2261
:104D2000C7010E94A422F701A082B182C282D3826D
:104D30000F90CF91DF911F91FF90EF90DF90CF9078
:104D4000BF90AF900895FC018FEF9FEF9183808318
:104D5000938382831092E0031092E1031092E203A6
:104D60001092E3031092E4031092E5031092E6031D
:104D70001092E7038AE090E0978386838CE390E0CB
:104D800090937D0180937C0181E080878EE591E0A6
:104D9000958384830895FC01758364830895FC01E1
:104DA00077836683089520E08091E0039091E1038A
:104DB000892B9091E203892B9091E303892B9091A9
:104DC000E403892B9091E503892B9091E603892BCD
:104DD0009091E703892B09F021E0822F089510922A
:104DE000E0031092E1031092E2031092E3031092A9
:104DF000E4031092E5031092E6031092E70308958E
:104E00002091E0033091E1034091E2035091E303EC
:104E10006091E4037091E5038091E6039091E703CC
:104E200008958091E8039091E90308958091EC033F
:104E30009091ED0308952F923F924F925F926F925F
:104E40007F928F929F92AF92BF92CF92DF92EF921A
:104E5000FF920F931F93DF93CF93CDB7DEB7629787
:104E60000FB6F894DEBF0FBECDBF3C018091EE03BC
:104E70009091EF036FE170E00E940B364B017B01D4
:104E800000E010E020917C0130917D01442737FD46
:104E90004095542FC801B7010E94EC350E946C3335
:104EA0002AE037ED43E25CE30E9422340E94403363
:104EB000A8019701220F331F441F551F2E0D3F1DC0
:104EC000401F511F59016A01A61AB70AC80AD90A18
:104ED000AD82BE82CF82D8865B016C01A20EB31E6A
:104EE000C41ED51EA982BA82CB82DC8221E030E0CA
:104EF0003A872987AA24BB24650117012801261AAD
:104F0000370A480A590AA8019701260F371F481F78
:104F1000591F2F87388B498B5A8B7AC0E985FA85C0
:104F2000EE0FFF1FE251FC4F808191819C0140E018
:104F300050E0221633064406550658F58F859889A9
:104F4000A989BA89281739074A075B0710F5E98547
:104F5000FA85EE0FFF1FE051FC4F0190F081E02D2C
:104F60007F0100E010E0EB86FC860D871E878D81B7
:104F70009E81AF81B8858E159F05A007B10748F4C3
:104F800089819A81AB81BC81E816F9060A071B0763
:104F900078F1ED80FE800F811885E216F306040794
:104FA000150758F589819A81AB81BC81281739078B
:104FB0004A075B0710F5E985FA85EE0FFF1FE05100
:104FC000FC4F80819181A0E0B0E0281639064A06A6
:104FD0005B0698F4EF84F88809891A898E159F0575
:104FE000A007B10750F40894A11CB11CC11CD11C2E
:104FF000AA0CBB1CCC1CDD1C05C07A866986AA24C1
:10500000BB24650109851A850E5F1F4F1A87098722
:1050100029853A852615370508F480CFA601950124
:10502000569547953795279587E06816710440F1A6
:10503000211531054105510511F480E028C0209368
:10504000E0033093E1034093E2035093E3031092B3
:10505000E4031092E5031092E6031092E7037694BE
:1050600067947092E9036092E8039092EB03809258
:10507000EA0381E090E09093ED038093EC0306C097
:1050800080E0211531054105510509F081E0629666
:105090000FB6F894DEBF0FBECDBFCF91DF911F9149
:1050A0000F91FF90EF90DF90CF90BF90AF909F90C7
:1050B0008F907F906F905F904F903F902F900895CA
:1050C0002F923F924F925F926F927F928F929F9218
:1050D000AF92BF92CF92DF92EF92FF920F931F9306
:1050E000DF93CF93CDB7DEB762970FB6F894DEBFEC
:1050F0000FBECDBF3C018091EE039091EF036AE0BB
:1051000070E00E940B364B017B0100E010E0209123
:105110007C0130917D01442737FD4095542FC80113
:10512000B7010E94EC350E946C332AE037ED43E270
:105130005CE30E9422340E944033A8019701220FB1
:10514000331F441F551F59016A01A61AB70AC80A1E
:10515000D90AAD82BE82CF82D8865B016C01A20ED5
:10516000B31EC41ED51EA982BA82CB82DC82AA24B9
:10517000BB24650121E030E03A8729871701280127
:10518000261A370A480A590AA8019701260F371F1D
:10519000481F591F2F87388B498B5A8B7AC0E98556
:1051A000FA85EE0FFF1FE251FC4F808191819C0137
:1051B00040E050E0221633064406550658F58F8528
:1051C0009889A989BA89281739074A075B0710F512
:1051D000E985FA85EE0FFF1FE051FC4F0190F08149
:1051E000E02D7F0100E010E0EB86FC860D871E8736
:1051F0008D819E81AF81B8858E159F05A007B1076F
:1052000048F489819A81AB81BC81E816F9060A07C6
:105210001B0778F1ED80FE800F811885E216F306FA
:105220000407150758F589819A81AB81BC8128173D
:1052300039074A075B0710F5E985FA85EE0FFF1F6E
:10524000E051FC4F80819181A0E0B0E02816390642
:105250004A065B0698F4EF84F88809891A898E1546
:105260009F05A007B10750F40894A11CB11CC11CF4
:10527000D11CAA0CBB1CCC1CDD1C05C07A8669861F
:10528000AA24BB24650109851A850E5F1F4F1A8762
:10529000098729853A852615370508F480CFA601A8
:1052A0009501569547953795279587E068167104BF
:1052B00040F1211531054105510511F480E028C068
:1052C0002093E0033093E1034093E2035093E30320
:1052D0001092E4031092E5031092E6031092E703A4
:1052E000769467947092E9036092E8039092EB03DE
:1052F0008092EA0382E090E09093ED038093EC03C8
:1053000006C080E0211531054105510509F081E015
:1053100062960FB6F894DEBF0FBECDBFCF91DF917E
:105320001F910F91FF90EF90DF90CF90BF90AF90C3
:105330009F908F907F906F905F904F903F902F90B5
:105340000895AF92BF92DF92EF92FF920F931F9357
:10535000CF93DF935C0120E0A0E0B0E000E010E03C
:10536000FF24EE24DD24C1E0D0E05AC0FE01EE0FA0
:10537000FF1FE251FC4F0190F081E02D85E0E53107
:10538000F80760F086E0E43AF80760F43A2F4B2F14
:10539000502F612F7F2D8E2D9D2D2DC081E0ED3260
:1053A000F807A0F1EC5BF24088F5E22FEF5F31E007
:1053B000E21708F030E03A0F41E03A1708F040E019
:1053C0004B0F51E04B1708F050E0500F61E05017C1
:1053D00008F060E0610F71E0611708F070E07F0D88
:1053E00081E07F1508F080E08E0D91E08E1508F0C9
:1053F00090E02E2F9D0D01E00E945F01A32FB42F9E
:10540000052F162FF72EE82ED92E09C0E50120E032
:10541000A0E0B0E000E010E0FF24EE24DD242296BE
:10542000CA15DB0508F4A2CF3A2F4B2F502F612F5E
:105430007F2D8E2D9D2D01E00E94E000E82F822F10
:10544000832BF1E5AF16B104E8F1842B852B862B75
:10545000872B8E2B892B11F420E03DC02093E00395
:105460003093E1034093E2035093E3036093E4033A
:105470007093E503E093E6039093E703C5019695E7
:1054800087959093E9038093E80384EF91E09093EC
:10549000EB038093EA0384E6A816B10418F483E0D2
:1054A00090E006C0F8E6AF16B10439F484E090E06D
:1054B0009093ED038093EC030DC01092ED031092D6
:1054C000EC0308C020E0842B852B862B872B8E2BAA
:1054D000892B09F021E0822FDF91CF911F910F914D
:1054E000FF90EF90DF90BF90AF900895CF92DF9242
:1054F000EF92FF920F931F93CF93DF930E94022DA1
:105500006B017C018091C0049091C1048601081B4D
:10551000190B1093C7040093C60423E1093812073E
:10552000B0F18091EE039091EF038958934178F1A7
:105530008091BE049091BF0401969093BF04809324
:10554000BE040197F9F48091C4049091C50485319B
:105550009105A0F08135910518F00E94A1290EC097
:10556000EC012197D093C504C093C404CE010E94DE
:105570001B27882319F4CE010E9460281092BF04D3
:105580001092BE041092C5041092C4040CC08BE0AB
:10559000093B180740F01092C5041092C404109201
:1055A000BF041092BE048091C4049091C504883653
:1055B000910540F01092C5041092C4041092BF04EB
:1055C0001092BE048091C4049091C504FC01EE0FBA
:1055D000FF1FE251FC4F1183008301969093C50495
:1055E0008093C404C092C004D092C104E092C2046B
:1055F000F092C304DF91CF911F910F91FF90EF9034
:10560000DF90CF9008950F931F938C01FC01808150
:105610000E943F2C8FEF9FEFF801918380831F91B1
:105620000F910895FC01808191812FEF8F3F9207A8
:10563000D1F01092E0031092E1031092E203109275
:10564000E3031092E4031092E5031092E603109234
:10565000E7031092E9031092E80366E77AE241E07B
:1056600050E00E941C2C0895FC01808191818617D6
:10567000970729F071836083CF010E94122B089550
:10568000AF92BF92DF92EF92FF920F931F93CF934F
:10569000DF93EC017B015A01088119818A819B818A
:1056A0008F5F9F4F89F13FEF0F3F130711F4DD2408
:1056B00005C0CE010E94032BDD24D3948A8161E0D2
:1056C0000E946E2E8C819D819C01E29EC001E39E12
:1056D000900DF29E900D11240E94812D8A8160E030
:1056E0000E946E2E8C819D819C01A29EC001A39E72
:1056F000900DB29E900D11240E94812DDD2021F08D
:10570000CE01B8010E94342BDF91CF911F910F91F0
:10571000FF90EF90DF90BF90AF900895FC018085DF
:10572000813041F4CF0161E070E04FE150E00E9430
:10573000402B0895823039F4CF0161E070E04AE0F7
:1057400050E00E94402B0895FC018085813041F497
:10575000CF0163E070E041E050E00E94402B0895EB
:10576000823039F4CF0162E070E041E050E00E9405
:10577000402B0895FC018085813041F4CF0161E028
:1057800070E043E050E00E94402B0895823039F4ED
:10579000CF0161E070E042E050E00E94402B0895AC
:1057A000CF92DF92EF92FF920F931F93CF93DF93ED
:1057B0008C016B01EE24FF2416C0803319F0813375
:1057C00041F404C0C8010E94BA2B03C0C8010E9462
:1057D000A42B21968881882381F7C8010E948E2BF3
:1057E0000894E11CF11CF80186819781E816F906FE
:1057F00014F4E601EFCFDF91CF911F910F91FF904D
:10580000EF90DF90CF9008950F931F938C01FC01D0
:10581000828160E00E94482E8FEF9FEFF801938312
:1058200082831F910F910895FC01862F62837383F9
:1058300061E00E94482E0895823000F5E82FF0E0E4
:10584000EE0FFF1FE853FB4F71836083882319F02D
:105850008130A1F408C0809169008C7F842B8093F3
:105860006900E89A089580916900440F551F440F1C
:10587000551F837F842B80936900E99A08958230B5
:1058800080F4882319F0813021F402C0E89801C027
:10589000E998E82FF0E0EE0FFF1FE853FB4F11826D
:1058A000108208951F920F920FB60F9211242F931A
:1058B0003F934F935F936F937F938F939F93AF9398
:1058C000BF93EF93FF938091C8049091C904892BF3
:1058D00029F0E091C804F091C9040995FF91EF9176
:1058E000BF91AF919F918F917F916F915F914F91F8
:1058F0003F912F910F900FBE0F901F9018951F9200
:105900000F920FB60F9211242F933F934F935F93F3
:105910006F937F938F939F93AF93BF93EF93FF9377
:105920008091CA049091CB04892B29F0E091CA049C
:10593000F091CB040995FF91EF91BF91AF919F91A9
:105940008F917F916F915F914F913F912F910F9028
:105950000FBE0F901F9018951F920F920FB60F92C7
:1059600011242F933F938F939F93AF93BF93809175
:10597000D0049091D104A091D204B091D30430917D
:10598000D4040196A11DB11D232F2D5F2D3720F0CA
:105990002D570196A11DB11D2093D4048093D004EE
:1059A0009093D104A093D204B093D3048091CC04FB
:1059B0009091CD04A091CE04B091CF040196A11D89
:1059C000B11D8093CC049093CD04A093CE04B093EA
:1059D000CF04BF91AF919F918F913F912F910F90E5
:1059E0000FBE0F901F9018958FB7F8942091D00498
:1059F0003091D1044091D2045091D3048FBFB901AA
:105A0000CA0108959FB7F8942091CC043091CD0439
:105A10004091CE045091CF0486B5A89B06C08F3F1D
:105A200021F02F5F3F4F4F4F5F4F9FBF542F432FAA
:105A3000322F2227280F311D411D511D82E0220FD8
:105A4000331F441F551F8A95D1F7B901CA01089524
:105A50009B01AC017FB7F8948091CC049091CD0468
:105A6000A091CE04B091CF0466B5A89B05C06F3F4E
:105A700019F00196A11DB11D7FBFBA2FA92F982F34
:105A80008827860F911DA11DB11D62E0880F991F07
:105A9000AA1FBB1F6A95D1F7BC012DC0FFB7F894B0
:105AA0008091CC049091CD04A091CE04B091CF040C
:105AB000E6B5A89B05C0EF3F19F00196A11DB11DE9
:105AC000FFBFBA2FA92F982F88278E0F911DA11DD8
:105AD000B11DE2E0880F991FAA1FBB1FEA95D1F7FD
