:100000000C94B6000C94262F0C94532F0C94DE0005
:100010000C94DE000C94DE000C94DE000C94DE00E8
:100020000C94DE000C94DE000C94DE000C94DE00D8
:100030000C94DE000C94DE000C94DE000C94DE00C8
:100040000C94802F0C94DE000C9403320C945132EB
:100050000C94DE000C94DE000C94DE000C94DE00A8
:100060000C94A2180C94DE0007634236B79BD8A705
:100070001A39685618AEBAAB558C1D3CB7CC5763CD
:10008000BD6DEDFD753EF6177231BF000000803F7B
:1000900008000000BE922449123EABAAAA2ABECD97
:1000A000CCCC4C3E00000080BEABAAAAAA3E000009
:1000B0000000BF000000803F000000000008417801
:1000C000D3BB4387D1133D190E3CC3BD4282AD2B38
:1000D0003E68EC8276BED98FE1A93E4C80EFFFBE30
:1000E00001C4FF7F3F000000000074727565006668
:1000F000616C7365006E756C6C0025750025752E3E
:10010000002D0025640000000000240027002A00C4
:1001100000000000250028002B0000000000230044
:100120002600290004040404040404040202020258
:1001300002020303030303030102040810204080AA
:10014000010204081020010204081020000000072A
:10015000000201000003040600000000000000008F
:10016000DA0AD5170F18E21A631BBD3311241FBE1C
:10017000CFEFD8E0DEBFCDBF11E0A0E0B1E0EAE212
:10018000F3E702C005900D92A23FB107D9F716E040
:10019000A2EFB1E001C01D92AF39B107E1F711E064
:1001A000CCE6D1E004C02297FE010E944D39C03652
:1001B000D107C9F70E9413340C9493390C940000B2
:1001C000EF92FF920F93DF93CF93CDB7DEB7609797
:1001D0000FB6F894DEBF0FBECDBFA82F002309F4E1
:1001E00061C07E010894E11CF11C88E0F7011192C6
:1001F0008A95E9F729833A834B835C836D837E83F9
:10020000AF83988780E2801BE82FFF27E7FDF095FA
:100210004D815E816F817885181684F01D861E865B
:100220001F86188A882799278E1B9F0B04C07695F6
:100230006795579547958A95D2F728C0202F332781
:1002400027FD3095DB01CA01022E04C0B695A795A3
:10025000979587950A94D2F78D879E87AF87B88B3D
:1002600004C0440F551F661F771FEA95D2F7898196
:100270009A81AB81BC8104C0B695A7959795879567
:100280002A95D2F7482B592B6A2B7B2B49875A8703
:100290006B877C8729853A854B855C856D857E8556
:1002A000AF8598898A2F60960FB6F894DEBF0FBE8F
:1002B000CDBFCF91DF910F91FF90EF900895EF9216
:1002C000FF920F93DF93CF93CDB7DEB760970FB652
:1002D000F894DEBF0FBECDBFA82F002309F461C084
:1002E0007E010894E11CF11C88E0F70111928A95C7
:1002F000E9F729833A834B835C836D837E83AF83E5
:10030000988780E2801BE82FFF27E7FDF095498161
:100310005A816B817C81181684F019861A861B8697
:100320001C86882799278E1B9F0B04C0440F551FDE
:10033000661F771F8A95D2F728C0202F332727FD05
:100340003095DB01CA01022E04C0880F991FAA1F35
:10035000BB1F0A94D2F789879A87AB87BC8704C0F2
:100360007695679557954795EA95D2F78D819E8149
:10037000AF81B88504C0880F991FAA1FBB1F2A959B
:10038000D2F7482B592B6A2B7B2B4D875E876F87C3
:10039000788B29853A854B855C856D857E85AF8513
:1003A00098898A2F60960FB6F894DEBF0FBECDBF36
:1003B000CF91DF910F91FF90EF900895CF93DF934E
:1003C000BC018230910510F462E070E0A0919506C6
:1003D000B0919606ED01E0E0F0E040E050E021C091
:1003E000888199818617970769F48A819B81309764
:1003F00019F09383828304C09093960680939506A8
:10040000FE0134C06817790738F44115510519F019
:100410008417950708F4AC01FE018A819B819C0139
:10042000E9012097E9F641155105A9F1CA01861B9A
:10043000970B049708F4BA01E0E0F0E02AC08D9130
:100440009C91119784179507F9F46417750781F447
:1004500012968D919C911397309719F09383828314
:1004600004C09093960680939506FD0132964CC089
:10047000CA01861B970BFD01E80FF91F6193719369
:1004800002978D939C9340C0FD01828193819C01D2
:10049000D9011097A1F68091930690919406892B2B
:1004A00041F480917E0190917F0190939406809316
:1004B000930640918001509181014115510541F40D
:1004C0004DB75EB780917C0190917D01481B590B1F
:1004D0002091930630919406CA01821B930B8617D4
:1004E000970780F0AB014E5F5F4F8417950750F080
:1004F000420F531F5093940640939306F901619362
:10050000719302C0E0E0F0E0CF01DF91CF91089558
:10051000CF93DF93009709F450C0EC0122971B8220
:100520001A82A0919506B0919606109709F140E0C5
:1005300050E0AC17BD0708F1BB83AA83FE012191EF
:100540003191E20FF31FAE17BF0779F48D919C91A3
:100550001197280F391F2E5F3F4F3983288312963A
:100560008D919C9113979B838A834115510571F45A
:10057000D0939606C093950620C012968D919C91BB
:100580001397AD01009711F0DC01D3CFFA01D383AB
:10059000C28321913191E20FF31FCE17DF0769F477
:1005A00088819981280F391F2E5F3F4FFA013183CF
:1005B00020838A819B8193838283DF91CF910895E9
:1005C0002F923F925F926F927F928F929F92AF9203
:1005D000BF92CF92DF92EF92FF920F931F93CF9330
:1005E000DF938C011B01EA016115710519F0FB0114
:1005F00091838083209749F0CE010297839728F05A
:1006000020E030E040E050E0F6C0F801A1908F011A
:100610008A2D90E00E945139892BB9F7FDE2AF167F
:1006200031F4F801A1908F015524539407C0FBE2E7
:10063000AF1619F4F801A1908F015524209719F0F5
:10064000C031D105C1F4F0E3AF1679F4F80180812F
:10065000883711F0883549F4F801A1800E5F1F4FEB
:10066000F2E05F2AC0E1D0E006C0209721F480E3E9
:10067000A816E9F427C0C830D10531F1C930D10539
:1006800024F4C230D10531F50CC0CA30D10589F04F
:10069000C031D105F9F4C12CD12CE12CB8E0FB2EEE
:1006A00028C0C12CD12CE12CA0E4FA2E22C0CAE033
:1006B000D0E0FCECCF2EFCECDF2EFCECEF2EFCE0CF
:1006C000FF2E17C0C8E0D0E0C12CD12CE12CE0E116
:1006D000FE2E0FC09E01442737FD4095542F60E049
:1006E00070E080E090E80E942939C901DA016C01CC
:1006F0007D0120E030E040E050E060E03E018824F1
:1007000077FC8094982C70EDB72EBA0CE9E0EB15CD
:1007100070F48A2D81548A3118F499ECB92E06C0F0
:100720008A2D81568A3150F589EAB82EBA0C8B2D64
:1007300090E08C179D0714F56F3FE1F0C216D306C9
:10074000E406F506B0F0CA01B901A40193010E94C4
:10075000E3389B01AC012B0D311D411D511D213092
:10076000F0E03F07F0E04F07F0E85F0710F461E0CA
:1007700001C06FEFF801A1908F01C5CF21143104A2
:1007800081F0662331F001501040F10111830083A4
:1007900008C051FE1AC002501040F10111830083BD
:1007A00014C067FF12C050FC05C02FEF3FEF4FEFA2
:1007B0005FE704C020E030E040E050E882E290E0F3
:1007C00090939E0680939D0616C050FE08C05095DB
:1007D0004095309521953F4F4F4F5F4F0CC057FFCD
:1007E0000AC082E290E090939E0680939D062FEFD0
:1007F0003FEF4FEF5FE7B901CA01DF91CF911F9142
:100800000F91FF90EF90DF90CF90BF90AF909F90AF
:100810008F907F906F905F903F902F900895FC0194
:1008200088279927E89421912032E9F3293010F0A4
:100830002E30C8F32B3241F02D3239F4689404C0C5
:100840000E949604820F911D219120532A30C0F3FB
:100850001EF4909581959F4F08950F931F93CF930A
:10086000DF93182F092FE82FF92FDF010D900020BB
:10087000E9F7CD018E1B9F0B0E94DE01EC01009772
:1008800021F0612F702F0E947204CE01DF91CF9171
:100890001F910F910895FB01DC018D9181341CF0B3
:1008A0008B350CF4805E619161341CF06B350CF477
:1008B000605E861B611189F3990B0895FB01DC01D1
:1008C0000D900020E9F7119701900D920020E1F7BB
:1008D0000895FB01DC018D91019080190110D9F37D
:1008E000990B0895FB01DC0101900D920020E1F7C6
:1008F0000895FB01DC014150504030F08D91019092
:10090000801919F40020B9F7881B990B0895FB0191
:10091000DC014150504048F001900D920020C9F791
:1009200001C01D9241505040E0F708957AE0979F32
:10093000902D879F802D910D11240895FC018381B6
:1009400087FF24C080919706909198068E179F0785
:1009500021F4109298061092970680919906909132
:100960009A068E179F0721F410929A061092990604
:1009700080919B0690919C068E179F0721F4109200
:100980009C0610929B06CF010E94880280E090E0B6
:1009900008950F931F93CF93DF938C01EB01009782
:1009A00031F46115710519F420E030E038C081E0C0
:1009B00090E06EE070E00E94EC07FC019C01009763
:1009C00071F180E88383209771F0D387C28781E833
:1009D00083838091970690919806892B21F4F09358
:1009E0009806E093970601151105C9F01187008755
:1009F0008381826083838091990690919A06892BE6
:100A000071F4F0939A06E093990680919B06909179
:100A10009C06892B21F4F0939C06E0939B06C90168
:100A2000DF91CF911F910F910895CF93DF93EC0148
:100A30004B8140FF1AC046FF0AC04F7B4B838E811B
:100A40009F8101969F838E838A81282F2BC042FF2E
:100A500013C0E881F9818081282F332727FD309545
:100A60002115310529F440624B832FEF3FEF1BC066
:100A70003196F983E88311C0EA85FB85CE0109959B
:100A80009C0197FF0AC09B812F5F3F4F11F080E2CE
:100A900001C080E1892B8B83E8CF8E819F810196F5
:100AA0009F838E8330E0C901DF91CF910895A0E04C
:100AB000B0E0EDE5F5E00C946A390F8118859E01F0
:100AC000255F3F4FF801838188608383C801698572
:100AD0007A85A9010E940F06F8012381277F2383CD
:100AE0002096E4E00C9486390F931F93CF93DF9305
:100AF0008C01EB018B8181FF1BC082FF0DC02E8119
:100B00003F818C819D812817390764F4E881F98140
:100B10000193F983E88306C0E885F985802F09955C
:100B2000892B31F48E819F8101969F838E8302C031
:100B30000FEF1FEFC801DF91CF911F910F91089523
:100B4000A0E0B0E0E6EAF5E00C946239FC014B016C
:100B50005A016901D90113968C9180FF1AC07F0157
:100B6000C0E0D0E010C0C6010E941505BFEF8F3F66
:100B70009B0789F0F70181937F010F5F1F4F0815D5
:100B8000190588F32196CA15DB0528F400E010E06A
:100B9000F6CFC0E0D0E0CE01CDB7DEB7ECE00C94EC
:100BA0007E39AEE0B0E0E7EDF5E00C946A390D89EE
:100BB0001E8986E08C831A8309838FEF9FE79E83CB
:100BC0008D839E01275E3F4FCE0101966F89788D00
:100BD000A9010E940F062F813885020F131FF8010B
:100BE00010822E96E4E00C9486399C01FB018381EF
:100BF00080FF11C086FD0FC09FEF2F3F390759F0CE
:100C0000228380648F7D8383868197810197978378
:100C1000868330E002C02FEF3FEFC9010895ABE0BB
:100C2000B0E0E5E1F6E00C945C393C012B015A019F
:100C3000FC0117821682838181FD03C06FEF7FEF75
:100C4000C6C19AE0892E1E010894211C311CF301B3
:100C50002381F20123FD859123FF81912F018823B8
:100C600009F4B2C1853239F423FD859123FF8191C6
:100C70002F01853229F490E0B3010E947405E7CF7B
:100C8000982FFF24EE249924FFE1FF15D0F09B322A
:100C900069F09C3228F4903259F0933291F40EC0EE
:100CA0009D3249F0903369F441E024C052E0F52AC6
:100CB00084E0F82A28C098E0F92A25C0E0E1FE2A5D
:100CC00022C0F7FC29C0892F80538A3070F4F6FEC9
:100CD00005C0989C902C1124980E15C0E89CE02C1F
:100CE0001124E80EF0E2FF2A0EC09E3229F4F6FC31
:100CF0006BC140E4F42A07C09C3619F450E8F52A89
:100D000002C0983649F4F20123FD959123FF919199
:100D10002F01992309F0B8CF892F8554833018F01B
:100D20008052833038F444E050E0A40EB51E5FE3F7
:100D300059830FC0933631F0933779F0933509F02A
:100D400056C020C0F5018081898342E050E0A40EA6
:100D5000B51E610101E010E012C0F501C080D18034
:100D6000F6FC03C06FEF7FEF02C0692D70E042E038
:100D700050E0A40EB51EC6010E941A088C015FE760
:100D8000F52214C0F501C080D180F6FC03C06FEFDE
:100D90007FEF02C0692D70E042E050E0A40EB51E66
:100DA000C6010E9408088C0150E8F52AF3FE07C02E
:100DB0001AC080E290E0B3010E947405EA948E2D7F
:100DC00090E008171907A8F30EC0F601F7FC85910B
:100DD000F7FE81916F0190E0B3010E947405E1106C
:100DE000EA94015010400115110579F7EAC09436D4
:100DF00011F0993669F5F7FE08C0F50120813181BF
:100E00004281538184E090E00AC0F50180819181A4
:100E10009C01442737FD4095542F82E090E0A80EB6
:100E2000B91E9FE6F92257FF09C0509540953095AD
:100E300021953F4F4F4F5F4FE0E8FE2ACA01B901AD
:100E4000A1012AE030E00E942508D82ED21840C027
:100E5000953729F41F2D1F7E2AE030E01DC01F2D7D
:100E6000197F9F3661F0903720F4983509F0ACC0B7
:100E70000FC0903739F0983709F0A6C004C028E0B9
:100E800030E00AC0106114FD146020E130E004C0BD
:100E900014FD166020E132E017FF08C0F501608103
:100EA00071818281938144E050E008C0F501808126
:100EB0009181BC0180E090E042E050E0A40EB51EBC
:100EC000A1010E942508D82ED2188FE7F82EF12212
:100ED000F6FE0BC05EEFF522D91438F4F4FE07C01D
:100EE000F2FC05C08FEEF82202C01D2D01C0192DA5
:100EF000F4FE0DC0FE01ED0DF11D8081803319F46B
:100F000099EEF92208C01F5FF2FE05C003C08F2DC5
:100F1000867809F01F5F0F2DF3FC14C0F0FE0FC0A0
:100F20001E1510F09D2C0BC09D2C9E0C911A1E2D91
:100F300006C080E290E0B3010E9474051F5F1E1599
:100F4000C0F304C01E1510F4E11A01C0EE2404FF22
:100F50000FC080E390E0B3010E94740502FF1DC042
:100F600001FD03C088E790E00EC088E590E00BC06B
:100F7000802F867891F001FF02C08BE201C080E2F1
:100F8000F7FC8DE290E0B3010E94740506C080E397
:100F900090E0B3010E9474059A94D914C0F3DA94D6
:100FA000F101ED0DF11D808190E0B3010E94740507
:100FB000DD20A9F706C080E290E0B3010E9474052D
:100FC000EA94EE20C1F743CEF30166817781CB012D
:100FD0002B96E2E10C9478390F931F93CF93DF9314
:100FE000689F8001699F100D789F100D1124C80122
:100FF0000E94DE01EC01009729F060E070E0A8019A
:101000000E941308CE01DF91CF911F910F91089597
:10101000FC010590615070400110D8F780959095C3
:101020008E0F9F1F0895DC0101C06D934150504009
:10103000E0F70895FC016150704001900110D8F76D
:10104000809590958E0F9F1F0895FA01AA2728304A
:1010500051F1203181F1E8946F936E7F6E5F7F4F85
:101060008F4F9F4FAF4FB1E03ED0B4E03CD0670F01
:10107000781F891F9A1FA11D680F791F8A1F911D54
:10108000A11D6A0F711D811D911DA11D20D009F4A4
:1010900068943F912AE0269F11243019305D3193E6
:1010A000DEF6CF010895462F4770405D4193B3E0CF
:1010B0000FD0C9F7F6CF462F4F70405D4A3318F076
:1010C000495D31FD4052419302D0A9F7EACFB4E027
:1010D000A6959795879577956795BA95C9F70097DF
:1010E0006105710508959B01AC010A2E0694579580
:1010F000479537952795BA95C9F7620F731F841FD7
:10110000951FA01D08950F931F9305EF12E0C801CE
:101110000E944629C8010E948D211F910F910895B8
:101120000F931F9301E715E0C80140E855E260E026
:1011300070E00E948C32C8010E944C348AE061E069
:101140000E941C318BE061E00E941C3189E061E06B
:101150000E941C318AE061E00E945B318BE061E01B
:101160000E945B3189E061E00E945B318CE061E0CC
:101170000E941C3188E061E00E941C3187E061E040
:101180000E941C318CE061E00E945B3188E061E0EC
:101190000E945B3187E060E00E945B311F910F91FC
:1011A0000895DC01862F90E0FC01E85CFE4FE4919D
:1011B000EC938C5D9E4FFC016491E62FF0E0EE0F06
:1011C000FF1FE65EFE4F8591949112969C938E933D
:1011D00011970895FC012781308541855285B90119
:1011E000CA010895FC012385348545855685B901DA
:1011F000CA0108950F931F938C01862F90E0FC0184
:10120000E85CFE4FE491D801EC938C5D9E4FFC01AD
:101210006491E62FF0E0EE0FFF1FE65EFE4F859132
:10122000949112969C938E9311970E94C82FD80187
:1012300013966D937D938D939C93169780E090E029
:10124000A7ECB2ECF80187839087A187B2878387E8
:101250009487A587B6871F910F9108954F925F924B
:101260007F928F929F92AF92BF92CF92DF92EF9236
:10127000FF920F931F93DF93CF93CDB7DEB7A9975C
:101280000FB6F894DEBF0FBECDBF5C01FC017080CD
:10129000018112810E94C82F9B01AC014E0108946C
:1012A000811C911C2401CE018A96F20111922F011A
:1012B000E817F907D1F7F50183819481A581B681FB
:1012C00069017A01C81AD90AEA0AFB0AD701C601DC
:1012D000805D9740A040B04018F427E030E02EC178
:1012E000F5012383348345835683F894F801818183
:1012F000E72CE0948E2181837894FF24C72CDD2491
:1013000007C0F394FEE7FF1619F421E030E016C1A0
:1013100082E090E00E945530F801808190E08C21BD
:101320009D21892B71F3F894F80182818E218283AB
:1013300081818729818378948CE494E00E945530E0
:10134000F894F80181818E2181837894FF2407C06D
:10135000F394FAE1FF1619F422E030E0EFC082E0E6
:1013600090E00E945530F801808190E08C219D2111
:10137000892B71F3FF2407C0F394F3E3FF1619F4EC
:1013800023E030E0DBC082E090E00E945530F801BD
:10139000808190E08C219D21892B71F7FF2407C06B
:1013A000F394F4E2FF1619F424E030E0C7C082E0C1
:1013B00090E00E945530F801808190E08C219D21C1
:1013C000892B71F3FF2406C0F3E3FF1619F425E01F
:1013D00030E0B4C0F39482E090E00E945530F80110
:1013E000808190E08C219D21892B71F7F401F1928D
:1013F0004F01E415F50591F6EE24FF2420E030E0DE
:10140000DE01119660E170E041E050E02F5F3F4F58
:10141000FD01E20FF31F80818C3058F0CB01821B5D
:10142000930B6A0102C0CC0CDD1C8A95E2F7EC2814
:10143000FD282031310551F7FE01729600E010E0E1
:101440002FE030E041E050E080818C3048F0CA016C
:10145000022E02C0880F991F0A94E2F7082B192B5D
:101460002150304031966FEF2F3F360769F7FE016C
:10147000B296DD2427E030E041E050E080818C30FE
:1014800040F0CA01022E02C0880F991F0A94E2F7A9
:10149000D82A215030403196E415F50579F7B70187
:1014A0007F77882777FD8095982F0E94653620E00A
:1014B00030E040E251E40E94CA35F501678370874D
:1014C0008187928717FF0DC01F77B801882777FDA6
:1014D0008095982F0E94653620E030E040E251EC84
:1014E0000BC0B801882777FD8095982F0E9465363C
:1014F00020E030E040E251E40E94CA35F501638704
:101500007487858796874D2D50E02F2D332727FD33
:101510003A958E2D90E0820F911D800F911D212F05
:10152000332727FD3A95820F911D90704817590770
:1015300019F026E030E002C020E030E0C901A996B1
:101540000FB6F894DEBF0FBECDBFCF91DF911F91D4
:101550000F91FF90EF90DF90CF90BF90AF909F9052
:101560008F907F905F904F900895449A459AE9EB51
:10157000F0E080818E7F808380818D7F808388E40E
:101580008093B80084E48093BC000895FC018091AE
:10159000F2019091F401981B9093F301882319F4C0
:1015A0001092F301089581508093F201E90FF11D2B
:1015B000828108950895EF92FF920F931F930E94E6
:1015C000C82F7B018C0184E98093BC001BC02115CE
:1015D0003105E1F00E94C82F6E197F09800B910B35
:1015E0002091F5013091F60140E050E06217730759
:1015F0008407950738F01092BC0084E48093BC0007
:1016000081E009C02091F5013091F6018091BC0084
:1016100084FDDDCF80E01F910F91FF90EF90089542
:10162000CF92DF92EF92FF921F93162F0E94C82F46
:101630006B017C01112311F084EC01C084E88093DC
:10164000BC001BC021153105E1F00E94C82F6C19A8
:101650007D098E099F092091F5013091F60140E046
:1016600050E0621773078407950738F01092BC00AA
:1016700084E48093BC0091E019C02091F501309181
:10168000F6018091BC0087FFDDCF8091B900887F93
:10169000883349F49091B900987F1092BC0084E49B
:1016A0008093BC0003C09091B900987F892F1F914F
:1016B000FF90EF90DF90CF900895EF92FF920F93FD
:1016C0001F93CF93DF93EC016093BB000E94C82F60
:1016D0007B018C0184E88093BC001BC0211531057F
:1016E000E1F00E94C82F6E197F09800B910B2091A9
:1016F000F5013091F60140E050E06217730784076E
:10170000950738F01092BC0084E48093BC0011E08F
:1017100020C02091F5013091F6018091BC0087FF37
:10172000DDCF8091B900887F883211F410E011C0BC
:101730001091B900187F8091B900887F803321F41F
:10174000CE010E94DB0A05C01092BC0084E48093A5
:10175000BC00812FDF91CF911F910F91FF90EF90EF
:101760000895EF92FF920F931F93CF93DF93EC01B5
:101770006093BB000E94C82F7B018C0184E880939A
:10178000BC001BC021153105E1F00E94C82F6E1965
:101790007F09800B910B2091F5013091F60140E01B
:1017A00050E0621773078407950738F01092BC0069
:1017B00084E48093BC0011E01DC02091F5013091BC
:1017C000F6018091BC0087FFDDCF8091B900887F52
:1017D000883179F08091B900887F803499F409C00C
:1017E0008091B900887F8834B1F4CE010E94DB0A71
:1017F00001C010E0812FDF91CF911F910F91FF90D9
:10180000EF9008951091B900187F8091B900887FFA
:10181000803231F7EACF1092BC0084E48093BC00A0
:10182000E9CFEF92FF920F931F930E94C82F7B0185
:101830008C0184EA8093BC001BC021153105E1F0C6
:101840000E94C82F6E197F09800B910B2091F50122
:101850003091F60140E050E0621773078407950766
:1018600038F01092BC0084E48093BC0091E021C069
:101870002091F5013091F6018091BC0087FFDDCF0A
:101880008091B900887F883099F08091B900887F75
:101890008031A9F40DC09091B900987F1092BC00DE
:1018A00084E48093BC0005C09091B900987F01C08A
:1018B00090E0892F1F910F91FF90EF9008958091F4
:1018C000B900887F883381F7E6CFEF92FF920F93BC
:1018D0001F93CF93DF93EC01162F042FE22E10926B
:1018E000F2011092F301222311F4EE24E394EA941E
:1018F000E982E3941882CE010E94110C8883882328
:1019000009F061C0110FCE01612F0E94B10B8883D5
:10191000882329F0813009F056C082E054C0CE01FE
:10192000602F0E945D0B8883882329F0813009F0A5
:101930004AC083E048C0CE010E94110C88838823EE
:1019400029F0813009F03FC084E03DC01F5FCE0127
:10195000612F0E94B10B8883882319F48E01FF2424
:1019600025C0813081F585E02EC08981F81651F4BB
:10197000CE0160E00E94100B8883813019F1883518
:1019800051F021C0CE0161E00E94100B88838130AC
:10199000C9F08035C1F48091BB00F8018283F394D3
:1019A000F092F201F092F4010F5F1F4FFE14E8F283
:1019B000CE010E94DB0A8883882329F0813019F444
:1019C00087E001C086E0DF91CF911F910F91FF90DA
:1019D000EF900895FF920F931F93CF93DF93EC0145
:1019E000162F042FF22E18820E94110C8883882350
:1019F00041F5110FCE01612F0E94B10B888388231E
:101A000021F08130F1F482E01CC0CE01602F0E94F1
:101A10005D0B8883882339F4CE016F2D0E945D0B06
:101A20008883882319F0813061F40AC0CE010E94B6
:101A3000DB0A8883882329F0813019F487E001C00C
:101A400083E0DF91CF911F910F91FF9008950F9345
:101A50001F93CF93DF93EC01162F042F18820E945F
:101A6000110C8883882301F5110FCE01612F0E948C
:101A7000B10B8883882321F08130B1F482E014C057
:101A8000CE01602F0E945D0B8883882321F0813076
:101A900059F483E009C0CE010E94DB0A88838823C1
:101AA00019F0813009F487E0DF91CF911F910F91F8
:101AB0000895FB010680F781E02D80E004C08F5F70
:101AC0000280F381E02D3097D1F70895FB01068065
:101AD000F781E02D04C041500280F381E02D309762
:101AE00011F04423C1F7CF010895CF93DF93EB01A9
:101AF000DA01EE81FF814115510591F0309719F41B
:101B00005F834E830DC0CF010280F381E02D3097BB
:101B1000D1F7FC01B383A28315969C938E931497FF
:101B2000DF91CF9108950F931F93CF93DF93FB0124
:101B30008A01C681D78103C00A80DB81C02D20972E
:101B400039F088819981B8010E944B04892BA1F753
:101B5000CE01DF91CF911F910F910895EF92FF92E7
:101B60000F931F93CF93DF937B018A01E901211526
:101B7000310511F188819981009711F00E94880246
:101B8000C8010E942D0488839983D7011696ED9190
:101B9000FC911797309729F41796DC93CE931697FC
:101BA0000BC0CF010280F381E02D3097D1F7FC010B
:101BB000D383C2839D838C83DF91CF911F910F913B
:101BC000FF90EF900895EF92FF920F931F93CF93A2
:101BD000DF938C01EB0123C0FA80EB80888587FDC1
:101BE00008C06E817F816115710519F0C8010E94DE
:101BF000E30D8885853031F489859A85009711F049
:101C00000E94880288819981009711F00E948802C1
:101C1000CE010E9488028F2D9E2D9C01E901209704
:101C2000D9F6DF91CF911F910F91FF90EF9008951A
:101C30000F931F93CF93DF938B01EA0182E290E031
:101C4000BA010E9474058F5F9F4F09F464C00115AB
:101C5000110509F050C054C0803240F0823231F09A
:101C60008C3521F0992787FD909534C08CE590E064
:101C7000BE010E9474058F5F9F4F09F44CC0F801AC
:101C800080818C30C9F08D303CF4893051F18A303C
:101C9000B1F0883071F50DC0823241F08C3519F009
:101CA0008D3039F515C08CE590E01DC082E290E0E2
:101CB00008C082E690E00EC086E690E014C08EE692
:101CC00090E0BE010E9474058F5F9F4F91F423C086
:101CD00082E790E0BE010E9474058F5F9F4F49F438
:101CE0001AC084E790E0BE010E9474058F5F9F4F89
:101CF00091F00F5F1F4FF8018081882309F0ACCF6E
:101D000082E290E0BE010E9474058F5F9F4F19F040
:101D100020E030E002C02FEF3FEFC901DF91CF910B
:101D20001F910F910895CF93DF93EB01611571051A
:101D300059F0CE010E9415052FEF8F3F920721F039
:101D400081329105B4F306C02FEF3FEFC901DF9157
:101D5000CF910895BE010E94F5058F5F9F4FA1F3BB
:101D600020E030E0F3CF6F927F928F929F92AF92FC
:101D7000BF92CF92DF92EF92FF920F931F93CF9378
:101D8000DF93FB014A016115710509F4A5C0A18427
:101D9000B284C384D484C601B50120E030E040E0C1
:101DA00050E00E94C6358823C4F400D000D0ADB7FF
:101DB000BEB712969C928E92119781E091E0149694
:101DC0009C938E9313970E945705D7FAD094D7F817
:101DD000D0940F900F900F900F90C601B5010E9404
:101DE00037367B018C01EDB7FEB738970FB6F89404
:101DF000FEBF0FBEEDBF3196ADB7BEB712969C9237
:101E00008E9211978DEF90E093838283E482F58226
:101E1000068317830E945705C801B7010E946336E5
:101E20009B01AC01C601B5010E9461352CEA35EC7D
:101E300047EA56E30E9462357B018C01C5E0D0E0A1
:101E4000EDB7FEB738960FB6F894FEBF0FBEEDBFE4
:101E50008AEF682E80E0782EC801B70120E030E0DC
:101E600040E251E40E9419375B016C010E94373651
:101E70007B0100D000D000D0EDB7FEB73196ADB7F2
:101E8000BEB712969C928E9211977382628275836E
:101E900064830E94570500E010E0C801B7010E946A
:101EA00063369B01AC01C601B5010E9461357B011F
:101EB0008C01EDB7FEB736960FB6F894FEBF0FBE95
:101EC000EDBF20E030E040E050E00E94C6358823BE
:101ED00019F0219709F0C0CF80E090E0DF91CF9119
:101EE0001F910F91FF90EF90DF90CF90BF90AF9038
:101EF0009F908F907F906F900895CF93DF93DB0139
:101F00006115710519F420E030E01FC000D000D049
:101F100000D0EDB7FEB73196CDB7DEB75A8349830F
:101F200083E091E09383828319968D919C911A9717
:101F3000958384830E9457059C018DB79EB70696B2
:101F40000FB6F8949EBF0FBE8DBFC901DF91CF9130
:101F50000895FB016115710509F44BC020852330FC
:101F6000B1F124303CF4213049F1223064F42223D1
:101F700099F03FC0253089F1253064F1263091F188
:101F80002730B9F532C000D000D0EDB7FEB752838C
:101F9000418385EF90E008C000D000D0EDB7FEB7D8
:101FA000528341838FEE90E0948383830E94570590
:101FB0009C010F900F900F900F901DC000D000D08B
:101FC000EDB7FEB7528341838AEE90E0EDCF0E94D9
:101FD0007D0F0DC00E94B30E0AC0618572850E94FC
:101FE000180E05C00E944B1002C00E94FD0F9C01FC
:101FF00002C020E030E0C9010895EF92FF920F93F4
:102000001F93CF93DF937C01FB018A01611571055A
:10201000C1F1C681D7818BE790E020C068817981CA
:10202000C701A8010E94180E8F5F9F4F39F18AE304
:1020300090E0B8010E9474058F5F9F4FF9F0C701CF
:10204000BE01A8010E94A90F8F5F9F4FB9F00A80BF
:10205000DB81C02D209741F08CE290E0B8010E9416
:1020600074058F5F9F4F51F02097C1F68DE790E088
:10207000B8010E9474058F5F9F4F19F42FEF3FEF57
:1020800002C020E030E0C901DF91CF911F910F9194
:10209000FF90EF900895EF92FF920F931F93CF93CD
:1020A000DF937C01FB018A016115710539F1C6815D
:1020B000D7818BE590E00FC0C701BE01A8010E9447
:1020C000A90F8F5F9F4FB9F00A80DB81C02D209749
:1020D00041F08CE290E0B8010E9474058F5F9F4F41
:1020E00051F0209749F78DE590E0B8010E94740502
:1020F0008F5F9F4F19F42FEF3FEF02C020E030E0D9
:10210000C901DF91CF911F910F91FF90EF9008953A
:10211000EF92FF920F931F93CF93DF938C017B017C
:102120000E948F15EC01009719F420E030E009C0FF
:10213000C801B701AE010E94A90FCE010E94781517
:102140009C01C901DF91CF911F910F91FF90EF90FA
:102150000895EF92FF920F931F93CF93DF937B012C
:102160008A01CA010E941505829709F04FC085E0D7
:10217000F70180870E944A16EC01009709F446C0D7
:10218000C8010E941505FFEF8F3F9F0709F041C06E
:102190003AC08C35910569F5C8010E9415052FEFED
:1021A0008F3F920781F186369105E1F087369105E0
:1021B0004CF48C35910581F08236910589F0829737
:1021C000D9F40CC08237910589F08437910581F0EC
:1021D0008E36910589F408C08CE50BC082E209C0F7
:1021E00088E007C08CE005C08AE003C08DE001C034
:1021F00089E0BE010E94E415C8010E941505EFEFB9
:102200008F3F9E0731F4CE010E9402162FEF3FEF61
:102210000FC08232910521F0803291050CF0B9CFC8
:10222000CE010E940716F7019287818720E030E0F7
:10223000C901DF91CF911F910F91FF90EF90089509
:102240002F923F924F925F926F92AF92BF92CF9236
:10225000DF92EF92FF920F931F93DF93CF93CDB74F
:10226000DEB728970FB6F894DEBF0FBECDBF7A83D6
:1022700069831A01CA010E9415052C012FEF8F3FB7
:10228000920771F08D32910519F0AA24A3940DC024
:10229000C1010E9415052C014FEF8F3F940719F4DF
:1022A0002FEF3FEF16C1AA24AA94C201C0970A9744
:1022B00018F000E010E018C000E010E0C80173E082
:1022C000880F991F7A95E1F7000F111F800F911F5A
:1022D000820100531040080F191FC1010E9415050B
:1022E0002C01C0970A9750F35EE245165104D1F0D5
:1022F00085E648165104B1F095E44916510491F071
:102300008A2D992787FD9095FC010E9FC0010F9F94
:10231000900D1E9F900D1124E981FA81928781878B
:1023200083E0D0C0B801882777FD8095982F0E9460
:1023300065367B018C01FEE24F16510419F0CC2466
:10234000DD242DC0C1010E9415052C01CC24DD2403
:10235000C801B70120E030E040E251E40E941937A3
:102360007B018C0120ED3FEF420E531EB201882706
:1023700077FD8095982F0E9465369B01AC01C801BE
:10238000B7010E9462357B018C010894C108D10815
:10239000C1010E9415052C01C0970A97C8F235E6C5
:1023A0004316510449F045E44416510429F01886B7
:1023B0001F826624639437C0C1010E9415052C0159
:1023C0008B32910529F4C1010E9415052C0104C02E
:1023D0008DE24816510419F06624639406C0C101C9
:1023E0000E9415052C0166246A9418861F8215C068
:1023F0008F81988553E0880F991F5A95E1F7EF81F7
:10240000F885EE0FFF1FE80FF91FE20FF31FF887A3
:10241000EF83C1010E9415052C0192012053304029
:102420002A30310528F36A2D772767FD7095872FAD
:10243000972F0E946536A80197010E9419376B8378
:102440007C838D839E83B601882777FD8095982FA6
:102450000E9465365B016C012F813885B9018827A0
:1024600077FD8095982F0E9465367B018C01662D43
:10247000772767FD7095872F972F0E9465369B0100
:10248000AC01C801B7010E9419379B01AC01C6011C
:10249000B5010E9462359B01AC0160E070E080E212
:1024A00091E40E947C379B01AC016B817C818D8122
:1024B0009E810E941937E981FA816187728783873B
:1024C000948784E08087C201B1010E94F50520E075
:1024D00030E0C90128960FB6F894DEBF0FBECDBF1D
:1024E000CF91DF911F910F91FF90EF90DF90CF90F0
:1024F000BF90AF906F905F904F903F902F90089556
:102500008DE090E00E94DE01FC01009729F08DE053
:10251000DF011D928A95E9F7CF0108950E9480128C
:10252000FC01009711F087E08087CF0108950E9499
:102530008012FC01009711F086E08087CF0108959A
:102540000F931F93CF93DF938B010E948012EC01B6
:10255000009739F085E08887C8010E942D0489879B
:102560009A87CE01DF91CF911F910F910895CF925D
:10257000DF92EF92FF920F931F938C017B016A0110
:10258000B9010E94A0129C01C801B701A6010E94D6
:10259000AE0D1F910F91FF90EF90DF90CF900895B7
:1025A000EF92FF920F931F937A018B010E9480128A
:1025B000FC01009731F084E08087E186F286038792
:1025C0001487CF011F910F91FF90EF900895AF9264
:1025D000BF92CF92DF92EF92FF920F931F937C01F5
:1025E0006B015A01B901A8010E94D0129C01C701D8
:1025F000B601A5010E94AE0D1F910F91FF90EF90C3
:10260000DF90CF90BF90AF900895CF93DF93EB0111
:102610000E948012FC01009721F083E08087D2871E
:10262000C187CF01DF91CF910895CF92DF92EF92D2
:10263000FF920F931F938C017B016A01B9010E94E5
:1026400005139C01C801B701A6010E94AE0D1F91A0
:102650000F91FF90EF90DF90CF9008956F927F924F
:102660008F929F92BF92CF92DF92EF92FF920F9341
:102670001F93CF93DF937C014B018A013901CA017B
:102680000E9415058B37910509F05DC087E0F401C4
:102690008087C701B8010E94930EC8010E941505EA
:1026A0008D37910509F452C0B8010E94F505BB248D
:1026B000BA94C7010E948012EC01009709F443C04C
:1026C000BB2021F0F4019783868305C0F601938334
:1026D0008283DD82CC82C701B8010E94930EC701BC
:1026E000BE01A8010E94A9108F5F9F4F61F1C70131
:1026F000B8010E94930E89859A85998388831A86EA
:102700001986C8010E941505CA97E9F4C701B801E6
:102710000E94930EC701BE01A80193010E94B71346
:102720008F5F9F4F81F0C701B8010E94930EC801CF
:102730000E941505BB246E018C32910509F4B9CFB6
:102740008D37910519F02FEF3FEF02C020E030E008
:10275000C901DF91CF911F910F91FF90EF90DF9012
:10276000CF90BF909F908F907F906F9008958F92A1
:102770009F92AF92BF92CF92DF92EF92FF920F9310
:102780001F93DF93CF93CDB7DEB729970FB6F89499
:10279000DEBF0FBECDBF6C015B017A01490141155F
:1027A000510509F4ADC0BA010E94930E8F5F9F4F8F
:1027B00009F4A6C0C7010E9415058C018FEF0F3FD9
:1027C000180709F49DC0C801B7010E94F5058F5F85
:1027D0009F4F09F495C00232110531F4C601B501CD
:1027E000A7010E94A91020C00D32110521F0C801D7
:1027F000C0970A9730F4C601B501A7010E942011C5
:1028000013C00B35110539F4C601B501A7019401B8
:102810000E94961409C00B37110541F4C601B50199
:10282000A70194010E942E139C016CC00E36110565
:1028300001F519821A821B821C828E010F5F1F4FC5
:10284000C80161E070E044E050E097010E94A005FB
:10285000049709F055C0C80160E071E044E050E021
:102860000E947904009709F04BC082E0F50180874F
:1028700044C006361105F9F48E010B5F1F4F85E049
:10288000F80111928A95E9F7C80161E070E045E02E
:1028900050E097010E94A005059791F5C80165E0F9
:1028A00071E045E050E00E947904009749F5F50198
:1028B0001086118622C00437110511F519821A827B
:1028C0001B821C828E010F5F1F4FC80161E070E008
:1028D00044E050E097010E94A005049789F4C801E4
:1028E0006BE071E044E050E00E947904009741F40D
:1028F00081E0F50180878FEF818720E030E002C022
:102900002FEF3FEFC90129960FB6F894DEBF0FBE37
:10291000CDBFCF91DF911F910F91FF90EF90DF908E
:10292000CF90BF90AF909F908F9008956F927F92BD
:102930008F929F92BF92CF92DF92EF92FF920F936E
:102940001F93CF93DF936C014B01EA013901CA0158
:102950000E9415058B35910509F03FC086E0F40112
:102960008087C601BE010E94930ECE010E9415050C
:102970008D359105A9F1BE010E94F505BB24BA94DD
:10298000C6010E9480128C01009739F1BB2021F012
:10299000F4019783868306C0F70193838283FC0149
:1029A000F582E482C601BE010E94930EC601B80101
:1029B000AE0193010E94B713892B79F4C601BE01C1
:1029C0000E94930ECE010E941505BB2478018C3223
:1029D0009105B1F28D35910519F02FEF3FEF02C04F
:1029E00020E030E0C901DF91CF911F910F91FF905E
:1029F000EF90DF90CF90BF909F908F907F906F90DF
:102A00000895CF92DF92EF92FF920F931F93CF938F
:102A1000DF937C018B016A0161157105B1F00E94A1
:102A20008012EC01009799F0C701B8010E94930E43
:102A3000C701BE01A80196010E94B7138F5F9F4F87
:102A400031F4C701BE010E94E30DC0E0D0E0CE0129
:102A5000DF91CF911F910F91FF90EF90DF90CF907A
:102A60000895EF92FF920F931F937C01CB010E9478
:102A7000BD158C01C701B80140E050E00E9401156E
:102A8000F82EE92EC8010E94AA158F2D9E2D1F91A8
:102A90000F91FF90EF900895FC01A485B5851296E3
:102AA0002D913C911397ED91FC911197E20FF31F3B
:102AB0008081882319F4EFEFFFEF0AC02F5F3F4FAB
:102AC00013963C932E931297E82FFF27E7FDF0957E
:102AD000CF010895FB01648575850E94E415882364
:102AE00019F420E030E002C02FEF3FEFC901089554
:102AF0000F931F93CF93DF93EC018C859D850E94EC
:102B000007168C01009711F01D861C86CE010E94CD
:102B10009E04C801DF91CF911F910F910895CF932B
:102B2000DF938AE695E160E070E00E94C904EC0161
:102B3000009761F00E944A16009731F4CE010E947E
:102B40009E04C0E0D0E002C09D878C87CE01DF915B
:102B5000CF910895CF93DF93EC01009759F08C85C6
:102B60009D85009711F00E9488021D861C86CE016B
:102B70000E949E04DF91CF9108950F931F93CF93EE
:102B8000DF938C0180E090E06CE475E10E94C90461
:102B9000EC01009799F084E090E00E94DE01FC01D6
:102BA000009739F011830083138212829D878C87EE
:102BB00005C0CE010E949E04C0E0D0E0CE01DF91AE
:102BC000CF911F910F910895482FDB0114962D91FD
:102BD0003C91159712968D919C9113972817390760
:102BE00078F4ED91FC911197E20FF31F4083149656
:102BF0008D919C911597019615969C938E931497A1
:102C000080E00895009711F00E94880208950F93C4
:102C10001F93CF93DF938C01DC0114962D913C918F
:102C200015972115310541F0ED91FC91E20FF31F4D
:102C3000319780818823B1F0F80182819381281730
:102C4000390780F40190F081E02DE20FF31F10822C
:102C5000D80114968D919C911597019615969C9389
:102C60008E931497F801848195810E94DE01EC0116
:102C7000009751F063E975E00E947204D8011D923B
:102C80001C92C8010E948802CE01DF91CF911F9152
:102C90000F910895CF93DF9386E090E00E94DE01CC
:102CA000DC010097A9F0E3E9F5E01196FC93EE93BF
:102CB00080E091E0EF019C01199221503040E1F752
:102CC00013969C938E93129715961C921E921497AE
:102CD000CD01DF91CF910895EF92FF920F931F9353
:102CE000DF93CF930F92CDB7DEB7962F613031F4DB
:102CF0006EE0E62EF12C0EE010E014C0623031F4EC
:102D00003FE0E32EF12C0FE010E00CC0633031F413
:102D100020E1E22EF12C00E110E004C0EE24FF24BB
:102D200000E010E04830510509F447C04930510532
:102D300094F44530510511F14630510524F4452BEA
:102D400009F46FC018C04630510509F46AC0473015
:102D5000510589F422C04A30510509F462C04A3055
:102D600051050CF459C04C30510509F463C04A5E5A
:102D7000534009F470C00FEF1FEF8FC0802F60E049
:102D80000E941C31802F0E94AF318C01009709F006
:102D900084C085EF92E067E05BC0802F60E00E9416
:102DA0001C31802F0E94AF318C01181619060CF0CF
:102DB00074C085EF92E068E04BC082E292E0602F41
:102DC0000E94D10882E292E00E942E099093320282
:102DD000809331020197069708F45DC082E292E089
:102DE0000E94EA0820E030E040E251E40E941937F6
:102DF0000E9432368B0182E292E00E94F20820E0CB
:102E000030E040E251E40E9419370E94323670935C
:102E100034026093330241C00091330210913402B6
:102E20003CC08E2D60E00E941C318E2D0E949A3095
:102E30008C0133C08E2D60E00E941C318E2D0E94CB
:102E40009A308C011816190644F585EF92E06CE073
:102E50000E94512422C0802F61E099830E941C317E
:102E60009981913021F488B1082F10E011C092307F
:102E700031F488B1082F10E01595079509C09330FB
:102E800051F488B1082F10E0159507951595079511
:102E90000170107002C000E010E0C8010F90CF91E7
:102EA000DF911F910F91FF90EF900895CF93DF93E3
:102EB000EB01442369F081E795E060E171E00E9455
:102EC0004B3581E795E0BE014AE050E00E942C3589
:102ED000CE01835B9040439718F42AE030E048C06D
:102EE000CE018B5F9040439718F427E030E040C05C
:102EF000CE0188549140439718F429EE33E038C04E
:102F0000CE018E569140439718F426E030E030C051
:102F1000CE01805A9140439718F42BE030E028C04E
:102F2000CE0180509240439718F428E030E020C052
:102F3000CE0180539240439718F42CE030E018C043
:102F4000CE018F589240439718F42AEE33E010C018
:102F5000CE018F509340439718F425E030E008C02D
:102F6000C35FD3401CF420E030E002C02FEF3FEFFE
:102F7000C901DF91CF9108950F931F938C010E9497
:102F8000C82F605A75418F4F9F4FF801608371833E
:102F90008283938380E090E0A0E0B0E08483958317
:102FA000A683B7831F910F9108958AE192E00E9452
:102FB000BC1782E292E06EE00E94FA080895209128
:102FC000560230E080915502281B3109C90108954D
:102FD0004091550280915602481718F02FEF3FEFAD
:102FE0000AC0E42FF0E0EB5CFD4F8081282F30E039
:102FF0004F5F40935502C9010895E09155028091B9
:103000005602E81718F0EFEFFFEF06C0F0E0EB5CB8
:10301000FD4F8081E82FF0E0CF01089508951092D0
:103020007D0210927C0288EE93E0A0E0B0E08093F5
:103030007E0290937F02A0938002B093810285E983
:1030400091E090937B0280937A020895CF92DF9271
:10305000EF92FF920F931F93CF93DF937C016B014D
:103060008A01809179028823A1F0C0E0D0E00DC0F0
:10307000D701ED91FC91D601AC0FBD1F0190F081FD
:10308000E02DC7016C9109952196C017D10780F3F7
:1030900004C0CB01642F0E948718C801DF91CF9133
:1030A0001F910F91FF90EF90DF90CF900895DF93E5
:1030B000CF930F92CDB7DEB7FC016983809179027F
:1030C0008823C9F080917802803238F081E090E066
:1030D0009383828320E030E015C080917702E82F4F
:1030E000F0E0E95AFD4F998190838F5F80937702DA
:1030F0008093780205C0CE01019661E00E94871896
:1031000021E030E0C9010F90CF91DF910895482F61
:10311000613210F081E0089580918602843011F0D0
:1031200082E008956093D102A0EBB2E0842F9C016D
:10313000F90102C081918D938E2F841B8617D0F3E5
:1031400080E008951F920F920FB60F9211242F93D3
:103150003F934F935F936F937F938F939F93AF931F
:10316000BF93EF93FF938091B90090E0887F9070B8
:103170008036910509F4F2C081369105CCF588328C
:10318000910509F47BC089329105B4F48031910531
:1031900009F46FC0813191053CF4009709F447C1EF
:1031A000089709F04FC165C08831910509F466C0E0
:1031B000809709F047C182C08034910509F4A4C00A
:1031C0008134910544F48033910509F482C0C89795
:1031D00009F038C189C08035910509F489C0883566
:1031E000910509F496C08834910509F02BC1AEC051
:1031F0008839910509F413C189399105ECF48837B0
:10320000910509F4ABC0893791054CF488369105D6
:1032100009F4A4C08037910509F014C19FC0883813
:10322000910509F4FCC08039910509F49DC08038EE
:10323000910509F007C198C0803B910509F4C6C00B
:10324000813B91054CF4803A910509F49FC0883A7E
:10325000910509F0F7C0BAC0803C910509F4E3C0BC
:10326000883C910509F4DFC0883B910509F0EAC06C
:10327000C2C0809187028093BB00CFC09091AE0204
:103280008091AF02981768F49091AE02E92FF0E0B8
:10329000E257FD4F80818093BB009F5F9093AE0209
:1032A000BCC080918802882309F44BC085ED8093CF
:1032B000BC008091BC0084FDFCCFC2C080E2809342
:1032C000F30285ED8093BC008091BC0084FDFCCFAF
:1032D000B7C080E38093F30285ED8093BC008091BA
:1032E000BC0084FDFCCFACC088E38093F3029BC09C
:1032F0008091AE029091BB00E82FF0E0E257FD4FC5
:1033000090838F5F8093AE029091AE028091AF0266
:1033100082C08091AE029091BB00E82FF0E0E257AE
:10332000FD4F90838F5F8093AE0280918802882347
:1033300041F085ED8093BC008091BC0084FDFCCF02
:103340007FC081E08093890284EA6EC085ED80931E
:10335000BC008091BC0084FDFCCF72C083E08093F0
:1033600086021092F20259C08091F202803208F077
:1033700056C08091F2029091BB00E82FF0E0EE522F
:10338000FD4F90838F5F8093F20247C08091F202DD
:10339000803230F4E091F202F0E0EE52FD4F108204
:1033A00085ED8093BC008091BC0084FDFCCF109221
:1033B00086026091F202E0918C02F0918D0282ED22
:1033C00092E070E009951092F2022DC084E08093A3
:1033D00086021092D0021092D102E0918A02F091FE
:1033E0008B0209958091D102882329F481E0809392
:1033F000D1021092B0029091D002E92FF0E0E05596
:10340000FD4F80818093BB009F5F9093D00290918D
:10341000D0028091D102981710F485EC01C085E8A4
:103420008093BC000FC085EC8093BC0009C0109253
:10343000F30285ED8093BC008091BC0084FDFCCF3D
:1034400010928602FF91EF91BF91AF919F918F9162
:103450007F916F915F914F913F912F910F900FBE90
:103460000F901F901895362F242F87EF91E06DE174
:10347000432F0E94EA0C0895EF92FF920F931F933F
:10348000CF93DF93162F7A01022F87EF91E06DE142
:10349000412F0E94270D87EF91E06DE1412F202FF2
:1034A0000E94650CC0E0D0E010E009C087EF91E019
:1034B0000E94C60AF701EC0FFD1F80832196C017FA
:1034C000D107A4F3DF91CF911F910F91FF90EF905F
:1034D00008950F931F93DF93CF930F92CDB7DEB76D
:1034E0008C016AE2AE014F5F5F4F21E00E943C1AFF
:1034F00049814D7FC8016AE20E94331A0F90CF9133
:10350000DF911F910F9108950F931F93DF93CF9336
:103510000F92CDB7DEB78C016AE2AE014F5F5F4F0D
:1035200021E00E943C1A49814160C8016AE20E9480
:10353000331A0F90CF91DF911F910F9108950F9340
:103540001F93DF93CF930F92CDB7DEB78C016AE262
:10355000AE014F5F5F4F21E00E943C1A49814E7FD0
:10356000C8016AE20E94331A0F90CF91DF911F9138
:103570000F9108950F931F93DF93CF930F92CDB7C1
:10358000DEB78C0187EF91E00E94B50AC8010E9466
:103590009F1AC8016EE040E00E94331AC8010E94E1
:1035A000691AC8010E94841AC8016DE0AE014F5F1C
:1035B0005F4F21E00E943C1A0F90CF91DF911F9145
:1035C0000F91089584EF92E00E94BA1A08957F92B5
:1035D0008F929F92AF92BF92CF92DF92EF92FF9223
:1035E0000F931F93CF93DF935C01712E122FB32F94
:1035F000A42FF52FE62F972F47016501E501EE2453
:10360000FF241BC000FD02C080E301C081E388A34A
:103610000894E11CF11C202F372D412F5B2F6A2FBE
:103620007F2F8E2F01E00E94E000022F732E142FB7
:10363000B52FA62FF72FE82F2196802F8729812BD2
:103640008B2B8A2B8F2B8E2B892BE1F6A4014E1905
:103650005F09D501A80DB91DFD0120E030E090E320
:103660000FC02417350720F0878DE601888302C03C
:10367000E60198832F5F3F4F31970894C11CD11CFE
:103680002815390570F31C92DF91CF911F910F918E
:10369000FF90EF90DF90CF90BF90AF909F908F9072
:1036A0007F9008950F931F938C010E94C82F605A3A
:1036B00075418F4F9F4FF80160837183828393839D
:1036C0001F910F91089585EF92E00E94521B84EEA6
:1036D00093E00E94E62908952F923F924F925F92C5
:1036E0006F927F928F92AF92BF92CF92DF92EF92C2
:1036F000FF920F931F93DF93CF9300D000D000D0A1
:10370000CDB7DEB71B015A8349833C832B831E83CD
:103710000D8326013701DA2C182D133008F092C0E2
:1037200089E192E00E948E125C01009709F48AC040
:1037300089E192E00E9497127C01882031F489E1AE
:1037400092E0B5014FE151E00DC0113031F489E153
:1037500092E0B50146E251E005C089E192E0B50191
:103760004DE251E097010E94AE0D89E192E00E9486
:103770008E128C0189E192E0B701A8010E94750DBB
:1037800089E192E0B80144E351E091010E94B7124F
:1037900089E192E0B80146E351E029813A810E9433
:1037A000151389E192E0B80148E351E02B813C8197
:1037B0000E941513DD2051F089E192E0B8014AE33F
:1037C00051E02D813E810E94B71227C0C301B20192
:1037D0000E9432366B017C01B601882777FD809507
:1037E000982F0E9465369B01AC01C301B2010E9473
:1037F0001537181654F489E192E0B8014AE351E014
:10380000930182010E94E71208C089E192E0B801A9
:103810004AE351E096010E94151389E192E0B50157
:103820000E9488108C01009729F081E795E0B8018B
:103830000E944E3589E192E0B5010E94E30DC80176
:103840000E94880226960FB6F894DEBF0FBECDBF49
:10385000CF91DF911F910F91FF90EF90DF90CF906C
:10386000BF90AF908F907F906F905F904F903F9000
:103870002F9008952F923F924F925F926F927F9276
:103880008F92AF92CF92DF92EF92FF920F931F939E
:10389000DF93CF93CDB7DEB72F970FB6F894DEBF87
:1038A0000FBECDBF1C01822EA32EB42FA52FCB019E
:1038B000CC24DD245BE0E52EF12C44E0642E712C59
:1038C0006C0E7D1E202F2F70F301EE0DFF1D208347
:1038D0003BE0E316F10411F0C20ED11C0894E1089C
:1038E000F1082FEFE2162FEFF20671F09801482D44
:1038F0005A2D6B2F7A2F04E00E94E0008901842E5C
:10390000A52EB62FA72FDECF8C81893009F051C1AB
:103910008F8590E03FE0C322DD248C159D0509F0E2
:1039200048C100D000D000D0EDB7FEB7319621E0FD
:1039300030E02C0F3D1FADB7BEB712963C932E93CF
:1039400011978DE391E0938382838E818295807FAE
:103950009F81890F848315820E94D1058DB79EB700
:1039600006960FB6F8949EBF0FBE8DBF8D818370F3
:10397000813009F44EC0813038F0823009F462C0E1
:10398000833009F016C1A6C06A8524E6629FB001A3
:103990001124882777FD8095982F0E9465367B013A
:1039A0008C016B852AE0629FB0011124882777FD86
:1039B0008095982F0E9465369B01AC01C801B70124
:1039C0000E9462357B018C016C8570E0882777FD51
:1039D0008095982F0E9465369B01AC01C801B70104
:1039E0000E94623520E030E046E953E40E946135F0
:1039F00020E030E040E251E40E94CA356B017C01D6
:103A0000C101BE016F5F7F4F40E050E024E130E034
:103A10005CC06A852AE0629FB00111242B85620F89
:103A2000711D882777FD8095982F0E9465366B0160
:103A30007C01C101BE016F5F7F4F40E050E025E196
:103A400030E043C07A8560E0882777FD8095982F25
:103A50000E9465367B018C016B8570E034E0660F57
:103A6000771F3A95E1F7882777FD8095982F0E9478
:103A700065369B01AC01C801B7010E9462357B012C
:103A80008C016C8570E0882777FD8095982F0E94C7
:103A900065369B01AC01C801B7010E94623520E088
:103AA00030E841E054E40E94193720E030E04AE772
:103AB00054E40E94CA356B017C01C101BE016F5FF5
:103AC0007F4F40E050E026E130E000E010E0AA2423
:103AD00088246DC0698570E061707070762F6627EC
:103AE000882777FD8095982F0E9465367B018C0191
:103AF0006A8570E094E0660F771F9A95E1F7882752
:103B000077FD8095982F0E9465369B01AC01C80116
:103B1000B7010E9462357B018C016B8570E08827BC
:103B200077FD8095982F0E9465369B01AC01C801F6
:103B3000B7010E94623520E030E040E251E40E948B
:103B4000CA352B013C010C8510E0000F111F000F3E
:103B5000111F0F551E4FC101BE016F5F7F4F40E027
:103B600050E027E130E00F2EF0E0CF2EF0E0DF2E26
:103B7000F0E0EF2EF0E0FF2EF02DAA24A39488248D
:103B80000E946C1BC301B20126E636E646E650E40D
:103B90000E9419376B017C01C101BE016F5F7F4F2D
:103BA00040E050E028E130E000E010E0AA240E946C
:103BB0006C1B2F960FB6F894DEBF0FBECDBFCF9112
:103BC000DF911F910F91FF90EF90DF90CF90AF901A
:103BD0008F907F906F905F904F903F902F900895BF
:103BE0004F925F926F927F928F92AF92BF92CF92DD
:103BF000DF92EF92FF920F931F93DF93CF93CDB796
:103C0000DEB72D970FB6F894DEBF0FBECDBF2C01E7
:103C1000822EA32EB42FA52FCB01CC24DD24E9E0E6
:103C2000EE2EF12C74E0672E712C6C0E7D1E202F71
:103C30002F70F301EE0DFF1D208339E0E316F10430
:103C400011F0C20ED11C0894E108F1086FEFE616DE
:103C50006FEFF60671F09801482D5A2D6B2F7A2FD1
:103C600004E00E94E0008901842EA52EB62FA72F24
:103C7000DECF1C811A3009F063C08D8590E07FE0B3
:103C8000C722DD248C159D0509F05AC000D000D054
:103C900000D0EDB7FEB731965E010894A11CB11CAF
:103CA000ADB7BEB71296BC92AE9211978DE391E07C
:103CB000938382838F8190E08E7090709595879525
:103CC0002E812295207F280F248315820E94D10502
:103CD0002B859C854A856DB77EB76A5F7F4F0FB68F
:103CE000F8947EBF0FBE6DBF8D81882349F564E6D1
:103CF000269FB0011124919F90011124620F731F20
:103D0000640F711D80E090E00E94633620E030E097
:103D100040E251E40E94CA3520E030E048E452E439
:103D20000E9461356B017C01C201B50140E050E0A9
:103D30002DE030E000E010E0AA2488240E946C1BF3
:103D40002D960FB6F894DEBF0FBECDBFCF91DF9199
:103D50001F910F91FF90EF90DF90CF90BF90AF90A9
:103D60008F907F906F905F904F9008952F923F9229
:103D70004F925F926F927F928F929F92AF92BF927B
:103D8000CF92DF92EF92FF920F931F93DF93CF9327
:103D9000CDB7DEB72B970FB6F894DEBF0FBECDBF01
:103DA0009F838E83680179016D2D70E080E090E043
:103DB00062537040804090400E94633668877987E4
:103DC0008A879B87D701C60134E0B695A79597955A
:103DD00087953A95D1F78F70882E9924B40123E006
:103DE000769567952A95E1F7882777FD8095982F36
:103DF0000E94653620E030E040E05FE30E94193722
:103E00002B013C01B40175956795759567956170B7
:103E10007070882777FD8095982F0E94653620E086
:103E200030E040E85EE30E9419379B01AC01C3011A
:103E3000B2010E9462352B013C01B4017595679572
:103E400061707070882777FD8095982F0E94653685
:103E500020E030E040E05EE30E9419379B01AC01B6
:103E6000C301B2010E9462352B013C0181E088222E
:103E70009924AA2497FCA094BA2CC501B4010E94ED
:103E8000653620E030E040E85DE30E9419379B0191
:103E9000AC01C301B2010E9462359B01AC0168858F
:103EA00079858A859B850E94623520E030E040E27A
:103EB00051E40E9419370E943236882777FD809599
:103EC000982F0E9465361B012C01ADB7BEB718971D
:103ED0000FB6F894BEBF0FBEADBFEDB7FEB73196BB
:103EE0003E010894611C711C12967C926E9211978F
:103EF00080E491E093838283D701C6010CE1B695FB
:103F0000A795979587950A95D1F795838483D701CF
:103F1000C6011AE1B695A795979587951A95D1F799
:103F200083708F5F868317820E94D1058DB79EB7FD
:103F300008960FB6F8949EBF0FBE8DBF6701EE24A2
:103F4000FF249FEFC922DD24B601882777FD8095E5
:103F5000982F0E9465366B017C018E819F81B30191
:103F600040E050E02EE130E000E010E0AA24882498
:103F70000E946C1BC201B10120E030E040E251E43C
:103F80000E94CA356B017C018E819F81B30140E0A4
:103F900050E02FE130E00E946C1B2B960FB6F89496
:103FA000DEBF0FBECDBFCF91DF911F910F91FF906C
:103FB000EF90DF90CF90BF90AF909F908F907F90C9
:103FC0006F905F904F903F902F900895EF92FF92E7
:103FD0000F931F93CF93DF9389E192E00E948E129B
:103FE0007C01009709F465C089E192E00E94971274
:103FF0008C0189E192E0B70149E451E098010E9407
:10400000AE0D89E192E00E948E12EC0189E192E00E
:10401000B801AE010E94750D89E192E0BE0144E352
:1040200051E029E733E00E94B71220919D033091BF
:104030009E0389E192E0BE0146E351E00E94151320
:1040400020919F033091A00389E192E0BE0148E3F3
:1040500051E00E9415138091E303882351F089E118
:1040600092E0BE014AE351E021EA33E00E94B71238
:104070000BC02091E1033091E20389E192E0BE019F
:104080004AE351E00E94151389E192E0B7010E94D2
:104090008810EC01009729F081E795E0BE010E94AD
:1040A0004E3589E192E0B7010E94E30DCE010E94F6
:1040B0008802DF91CF911F910F91FF90EF900895AB
:1040C000CF92DF92EF92FF920F931F93CF93DF93E4
:1040D000EB0189E192E00E948E126C010097A9F138
:1040E00089E192E00E9497127C0189E192E0B60199
:1040F0004DE451E097010E94AE0D89E192E00E94EB
:104100008E128C0189E192E0B701A8010E94750D21
:1041100089E192E0B80143E551E09E010E94151348
:1041200089E192E0B6010E948810EC01009729F025
:1041300081E795E0BE010E944E3589E192E0B6012B
:104140000E94E30DCE010E948802DF91CF911F9162
:104150000F91FF90EF90DF90CF900895AF92BF92B4
:10416000CF92DF92EF92FF920F931F93CF93DF9343
:1041700009EF12E089E192E0B8010E9431155C017B
:1041800080E8F80111928A95E9F7A114B10411F4BD
:1041900080E08DC089E192E0B5010E94590D88232D
:1041A00009F47CC089E192E0B5014FE151E00E9441
:1041B000930DBC01009709F471C089E192E040E0E1
:1041C0000E94660DEC01009709F468C089E192E055
:1041D000BE0144E351E00E94930D8C0189E192E01D
:1041E000BE0146E351E00E94930D7C0189E192E01B
:1041F000BE0148E351E00E94930D6C0189E192E019
:10420000BE014AE351E00E94930DEC010115110536
:1042100009F444C0F8018085853009F03FC061850C
:10422000728589E793E044E250E00E948704E1143C
:10423000F104A1F1F7018085833081F581859285B4
:1042400090939E0380939D03C114D10439F1F6012C
:104250008085833019F5818592859093A0038093A2
:104260009F032097D9F08885853061F469857A8528
:1042700081EA93E040E450E00E94870481E080936B
:10428000E3030AC0833051F489859A859093E20351
:104290008093E1031092E30301E001C000E089E1B3
:1042A00092E0B5010E94E30D802F011181E0DF91C2
:1042B000CF911F910F91FF90EF90DF90CF90BF9023
:1042C000AF900895CF93DF9381E795E00E94133379
:1042D000892B19F4CFEFDFEF1CC0C0E0D0E012C093
:1042E000C038D105B1F081E795E00E944433FE016A
:1042F000E750FD4F8083219662E070E080E090E01F
:104300000E94FC2F81E795E00E94133318161906CE
:104310003CF3CE01DF91CF910895BF92CF92DF920F
:10432000EF92FF920F931F93CF93DF93EC010E94C4
:104330006221181619060CF0F4C0CE010E94AE20BE
:10434000882309F4E9C080919D0390919E03892BF5
:1043500009F0DEC080919F039091A00323E08A3E84
:10436000920709F494C023E08B3E92074CF48B3003
:10437000910509F456C0875E934009F0C5C00AC094
:1043800023E08B3E920709F4A3C08F5E934009F0AF
:10439000BBC021C081EA93E060E070E040E150E002
:1043A0000E94E0027B018C015FEFC52ED12CB6018B
:1043B000601B71098CE00E94BC30CF18D10888E0E6
:1043C000B6010E94BC30E094F0948FEFE822FF2405
:1043D00087E0B70123C081EA93E060E070E040E14C
:1043E00050E00E94E002B62EE72E8093F1034FEFDB
:1043F000C42ED12CB601681B71098AE00E94BC3022
:10440000E092F203B6016E1971098BE00E94BC3094
:10441000B092F303CB18D10889E0B6010E94BC30FA
:104420006BC089E793E00E940F04823049F083302B
:1044300061F0813079F484EE93E06EE070E00EC0BC
:1044400084EE93E06FE070E009C084EE93E060E1F9
:1044500070E004C084EE93E064E070E00E94E82E17
:1044600084EE93E06EE571E00E940E2A84EE93E004
:1044700068E070E00E94122A84EE93E061EA73E043
:104480000E94A42E84EE93E00E94D82E35C089E7C6
:1044900093E00E940F04823041F0833041F081307C
:1044A00011F41EE005C01FEF03C01FE001C010E1C2
:1044B0008091E303882331F081EA93E00E940F04A6
:1044C000682F02C06091E103812F0E945B3114C00C
:1044D00081EA93E068E571E00E946904009781F445
:1044E00081EA93E06CE571E00E94720481EA93E056
:1044F00061E671E00E945E04CE010E94E61F11C0D9
:10450000CE0164E070E00BC0CE0163E070E007C054
:10451000CE0162E070E003C0CE0161E070E00E9475
:104520006020DF91CF911F910F91FF90EF90DF906E
:10453000CF90BF9008952F923F924F925F926F92CB
:104540007F928F92AF92CF92DF92EF92FF920F9372
:104550001F93DF93CF93CDB7DEB72F970FB6F894A5
:10456000DEBF0FBECDBF3C01F62E81E795E00E9475
:104570001333181619061CF4C3010E948D2100D0B4
:1045800000D000D0EDB7FEB731961E010894211C73
:10459000311CADB7BEB712963C922E92119786E6AB
:1045A00091E093838283F48215820E94D1058DB7B6
:1045B0009EB706960FB6F8949EBF0FBE8DBF8AE1D8
:1045C00092E06F2D48E050E00E946C168C018AE169
:1045D00092E06F2D49E050E00E946C162C01C8015A
:1045E00001978F5C9740C8F5B801882777FD8095C3
:1045F000982F0E94653620E030E040E251E40E94AE
:10460000CA356B017C01C301B10140E050E028E0F4
:1046100030E000E010E0AA2488240E946C1B109275
:10462000ED03C20101978F5C9740B8F4B20188276F
:1046300077FD8095982F0E94653620E030E040E2BB
:1046400051E40E94CA356B017C01C301B10140E015
:1046500050E029E030E00E946C1B81E795E00E9469
:104660001333181619061CF4C3010E948D212F96CE
:104670000FB6F894DEBF0FBECDBFCF91DF911F9173
:104680000F91FF90EF90DF90CF90AF908F907F9041
:104690006F905F904F903F902F9008954F925F9250
:1046A0006F927F928F92AF92CF92DF92EF92FF92B2
:1046B0000F931F93DF93CF93CDB7DEB72A970FB633
:1046C000F894DEBF0FBECDBF2C0181E795E00E94BC
:1046D0001333181619061CF4C2010E948D2100D054
:1046E00000D000D0EDB7FEB731968E010F5F1F4F9F
:1046F000ADB7BEB712961C930E93119779E6E72ECD
:1047000071E0F72EF382E2828091F10384831582B7
:104710000E94D1058DB79EB706960FB6F8949EBF3E
:104720000FBE8DBF64E0662E712C6C0E7D1EC30122
:10473000B8010E94720400D000D000D0EDB7FEB7DF
:104740003196ADB7BEB712961C930E931197F382B4
:10475000E2828091F203848315820E94D1058DB795
:104760009EB706960FB6F8949EBF0FBE8DBFC301CD
:10477000B8010E945E0400D000D000D0EDB7FEB7B3
:104780003196ADB7BEB712961C930E931197F38274
:10479000E2828091F303848315820E94D1058DB754
:1047A0009EB706960FB6F8949EBF0FBE8DBFC3018D
:1047B000B8010E945E04C2016EE671E040E050E084
:1047C0002FEE33E083010F2EF0E0CF2EF0E0DF2E4E
:1047D000F0E0EF2EF0E0FF2EF02DAA24A394882421
:1047E0000E946C1B85B190E08C0101711070FBB0D0
:1047F00084FF04C0C30160E771E003C0C30163E745
:1048000071E00E947204CE01049600FF03C060E7CD
:1048100071E002C063E771E00E945E04CE0104967D
:10482000F7FE03C060E771E002C063E771E00E9439
:104830005E04C2016EE671E040E050E027EE33E036
:104840008E010C5F1F4F0F2EF0E0CF2EF0E0DF2E19
:10485000F0E0EF2EF0E0FF2EF02DAA24A3948824A0
:104860000E946C1B81E795E00E941333181619060D
:104870001CF4C2010E948D212A960FB6F894DEBF67
:104880000FBECDBFCF91DF911F910F91FF90EF90A1
:10489000DF90CF90AF908F907F906F905F904F9010
:1048A0000895FF920F931F93162F05B1FBB08CE074
:1048B00061E00E945B3188E061E00E945B3187E04B
:1048C00061E00E945B31812F60E00E945B316CE30C
:1048D00070E080E090E00E94FC2F8CE061E00E949C
:1048E0005B3188E061E00E945B3187E061E00E941B
:1048F0005B3164E170E080E090E00E94FC2F05B93C
:10490000FBB81F910F91FF9008958F929F92AF92E5
:10491000BF92CF92DF92EF92FF920F931F93CF93AC
:10492000DF93EC0181E795E00E9413331816190616
:104930001CF4CE010E948D2184EE93E060E070E0D3
:104940000E94082E84EE93E00E94162A882309F420
:104950009BC084EE93E00E94592A892B09F494C0ED
:1049600084EE93E00E94592A069708F08DC084EEE9
:1049700093E00E94432A8901F42EE52ED62EC72EFD
:10498000B82EA92E822F812B8F298E298D298C2933
:104990008B298A29D1F1CE0168E00E94512484EE4E
:1049A00093E00E94592A039751F4CE012F2D3E2DFA
:1049B0004D2D5C2D6B2D7A2D0E94F01D61C084EE73
:1049C00093E00E94592A049751F4CE012F2D3E2DD9
:1049D0004D2D5C2D6B2D7A2D0E943A1C51C084EE1A
:1049E00093E00E94592A059751F4CE012F2D3E2DB8
:1049F0004D2D5C2D6B2D7A2D0E94B61E41C084EE8C
:104A000093E00E94542A819748F0CE016EE671E04F
:104A100040E050E02BE030E08B0123C084EE93E0D7
:104A20000E94432A8901D42EC52EB62EA72E982E79
:104A3000892E84EE93E00E94542A7C0181EA93E05F
:104A40002D2D3C2D4B2D5A2D692D782D0E94E71AC6
:104A5000CE016EE671E040E050E02BE030E001EA8C
:104A600013E00F2EF0E0CF2EF0E0DF2EF0E0EF2E7F
:104A7000F0E0FF2EF02DAA24A39488240E946C1B42
:104A800084EE93E00E94322A81E795E00E9413337E
:104A9000181619061CF4CE010E948D21DF91CF91CA
:104AA0001F910F91FF90EF90DF90CF90BF90AF904C
:104AB0009F908F9008950F931F93182F0E949A3004
:104AC0006AE070E080E090E00E94FC2F812F0E945D
:104AD0009A30182F092F64E170E080E090E00E9486
:104AE000FC2F812F902F1F910F9108954F925F926D
:104AF0006F927F928F92AF92CF92DF92EF92FF925E
:104B00000F931F93CF93DF933C012B01FB01108286
:104B100081E795E00E941333181619061CF4C301AF
:104B20000E948D2185E190E00E945B25BC018AE115
:104B300092E040E00E945617EC018091860190912E
:104B40008701FFEF8F3F9F0739F5D7FD25C0909371
:104B50008D0180938C01C30166E771E040E050E075
:104B60009E0100E010E00F2EF0E0CF2EF0E0DF2EEF
:104B7000F0E0EF2EF0E0FF2EF02DAA24882483949D
:104B80000E946C1BC630D10539F41092EE031092CE
:104B9000F0031092EF0333C0C830D10571F483E005
:104BA000F20180838091860190918701089719F026
:104BB00081E08093ED0311E0C2C0CB30D10509F450
:104BC000BDC0D7FD9FC02097D1F485E190E00E9441
:104BD0005B25AA2797FDA095BA2FBC01CD010E94A5
:104BE00065366B017C01C30166E771E040E050E08F
:104BF00020E030E000E010E0AA2488249DC08AE193
:104C000092E063E0AE010E946C162C01C630D10523
:104C100009F04DC02091EF033091F003280F391FA8
:104C20003093F0032093EF038091EE038F5F809326
:104C3000EE038A3008F461C0C9016AE070E00E94A6
:104C40001639882777FD8095982F0E94653620EFCA
:104C500036E148EC5DE30E94193720E030E040E2A5
:104C600051E40E9419370E943236882777FD8095DB
:104C7000982F0E94653620E030E040E251E40E9427
:104C8000CA356B017C01C30166E771E040E050E08A
:104C900026E030E000E010E0AA2488240E946C1B8B
:104CA0001092EE031092F0031092EF0326C0C5306D
:104CB000D10539F0C730D10521F0F3E0CA3EDF0756
:104CC00039F480918C0190918D0184159505A9F09E
:104CD000B201882777FD8095982F0E9465366B0179
:104CE0007C01C30166E771E040E050E09E0100E016
:104CF00010E0AA2488240E946C1B50928D014092DF
:104D00008C011CC0209186013091870137FD16C0AF
:104D1000C30166E771E040E050E000E010E00F2ED4
:104D2000F0E0CF2EF0E0DF2EF0E0EF2EF0E0FF2EEF
:104D3000F02DAA24E2E08E2E0E946C1B10E0D0938E
:104D40008701C093860181E795E00E94133318160E
:104D500019061CF4C3010E948D21812FDF91CF9190
:104D60001F910F91FF90EF90DF90CF90AF908F90B9
:104D70007F906F905F904F9008954F925F926F92E7
:104D80007F928F92AF92CF92DF92EF92FF920F932A
:104D90001F93CF93DF933C012B01FB01108281E72E
:104DA00095E00E941333181619061CF4C3010E94E3
:104DB0008D2184E190E00E945B25BC018AE192E0B4
:104DC00040E00E945617EC0180918401909185018A
:104DD000FFEF8F3F9F0739F5D7FD25C090938B01DB
:104DE00080938A01C30168E771E040E050E09E01D2
:104DF00000E010E00F2EF0E0CF2EF0E0DF2EF0E02C
:104E0000EF2EF0E0FF2EF02DAA24882483940E9438
:104E10006C1BC630D10539F41092EE031092F003EA
:104E20001092EF0333C0C830D10571F482E0F20173
:104E300080838091840190918501089719F081E029
:104E40008093ED0311E0C2C0CB30D10509F4BDC0A1
:104E5000D7FD9FC02097D1F484E190E00E945B25AC
:104E6000AA2797FDA095BA2FBC01CD010E946536F7
:104E70006B017C01C30168E771E040E050E020E095
:104E800030E000E010E0AA2488249DC08AE192E08E
:104E900062E0AE010E946C162C01C630D10509F00B
:104EA0004DC02091EF033091F003280F391F30934C
:104EB000F0032093EF038091EE038F5F8093EE0366
:104EC0008A3008F461C0C9016AE070E00E941639B6
:104ED000882777FD8095982F0E94653620EF36E170
:104EE00048EC5DE30E94193720E030E040E251E4F5
:104EF0000E9419370E943236882777FD8095982FB7
:104F00000E94653620E030E040E251E40E94CA355C
:104F10006B017C01C30168E771E040E050E026E0EE
:104F200030E000E010E0AA2488240E946C1B10925C
:104F3000EE031092F0031092EF0326C0C530D105A6
:104F400039F0C730D10521F0F3E0CA3EDF0739F46C
:104F500080918A0190918B0184159505A9F0B20189
:104F6000882777FD8095982F0E9465366B017C011C
:104F7000C30168E771E040E050E09E0100E010E00E
:104F8000AA2488240E946C1B50928B0140928A01B3
:104F90001CC0209184013091850137FD16C0C301EA
:104FA00068E771E040E050E000E010E00F2EF0E034
:104FB000CF2EF0E0DF2EF0E0EF2EF0E0FF2EF02D10
:104FC000AA24F2E08F2E0E946C1B10E081E795E08E
:104FD0000E941333181619061CF4C3010E948D2178
:104FE000D0938501C0938401812FDF91CF911F91D0
:104FF0000F91FF90EF90DF90CF90AF908F907F90C8
:105000006F905F904F9008954F925F926F927F9252
:105010008F92AF92CF92DF92EF92FF920F931F93F6
:10502000CF93DF933C012B01FB01108281E795E0D8
:105030000E941333181619061CF4C3010E948D2117
:1050400081E190E00E945B25BC018AE192E040E0B2
:105050000E945617EC018091820190918301FFEF2D
:105060008F3F9F0739F5D7FD25C090938901809325
:105070008801C3016AE771E040E050E09E0100E072
:1050800010E00F2EF0E0CF2EF0E0DF2EF0E0EF2E5C
:10509000F0E0FF2EF02DAA24882483940E946C1B3C
:1050A000C630D10539F41092EE031092F00310923D
:1050B000EF032EC0C830D10569F421E0F20120834E
:1050C0008091820190918301089711F02093ED0364
:1050D00011E0BEC0D7FD9FC02097D1F481E190E0E0
:1050E0000E945B25AA2797FDA095BA2FBC01CD0190
:1050F0000E9465366B017C01C3016AE771E040E004
:1051000050E020E030E000E010E0AA2488249DC0B8
:105110008AE192E061E0AE010E946C162C01C6307B
:10512000D10509F04DC02091EF033091F003280F15
:10513000391F3093F0032093EF038091EE038F5FCC
:105140008093EE038A3008F461C0C9016AE070E020
:105150000E941639882777FD8095982F0E94653622
:1051600020EF36E148EC5DE30E94193720E030E0A3
:1051700040E251E40E9419370E943236882777FDB9
:105180008095982F0E94653620E030E040E251E49F
:105190000E94CA356B017C01C3016AE771E040E0FF
:1051A00050E026E030E000E010E0AA2488240E94CD
:1051B0006C1B1092EE031092F0031092EF0326C0C6
:1051C000C530D10539F0C730D10521F0F3E0CA3E32
:1051D000DF0739F480918801909189018415950544
:1051E000A9F0B201882777FD8095982F0E94653637
:1051F0006B017C01C3016AE771E040E050E09E0171
:1052000000E010E0AA2488240E946C1B50928901BF
:10521000409288011CC0209182013091830137FDAA
:1052200016C0C3016AE771E040E050E000E010E022
:105230000F2EF0E0CF2EF0E0DF2EF0E0EF2EF0E0CA
:10524000FF2EF02DAA24A2E08A2E0E946C1B10E0F3
:10525000D0938301C093820181E795E00E941333CC
:10526000181619061CF4C3010E948D21812FDF91AD
:10527000CF911F910F91FF90EF90DF90CF90AF9063
:105280008F907F906F905F904F900895AF92BF92F4
:10529000CF92DF92EF92FF921F93DF93CF930F9203
:1052A000CDB7DEB77C0119820E948524C701BE01FB
:1052B0006F5F7F4F0E940428182F0E94C82F5B0148
:1052C0006C011123D1F08091ED03882391F4F70153
:1052D00080819181A281B381A6019501281B390BA0
:1052E0004A0B5B0BDA01C90181539547A040B040DE
:1052F00020F0C70169810E949B22C701BE016F5F38
:105300007F4F0E94BD268823D1F08091ED03882332
:1053100091F4F70180819181A281B381A601950169
:10532000281B390B4A0B5B0BDA01C90181539547E6
:10533000A040B04020F0C70169810E949B22C701B4
:10534000BE016F5F7F4F0E9476258823D1F0809148
:10535000ED03882391F4F70180819181A281B381CB
:10536000A6019501281B390B4A0B5B0BDA01C90119
:1053700081539547A040B04020F0C70169810E9449
:105380009B22F70180819181A281B381A6019501C1
:10539000281B390B4A0B5B0BDA01C9018153954776
:1053A000A040B04040F0C7010E944E23F701A08208
:1053B000B182C282D3820F90CF91DF911F91FF9073
:1053C000EF90DF90CF90BF90AF900895FC018FEFEA
:1053D0009FEF91838083938382831092F4031092D2
:1053E000F5031092F6031092F7031092F80310924F
:1053F000F9031092FA031092FB038AE090E097837E
:1054000086838CE390E090938F0180938E0181E0FE
:1054100080878EE591E0958384830895FC017583F0
:1054200064830895FC0177836683089520E080916A
:10543000F4039091F503892B9091F603892B9091B9
:10544000F703892B9091F803892B9091F903892B0D
:105450009091FA03892B9091FB03892B09F021E0AD
:10546000822F08951092F4031092F5031092F60320
:105470001092F7031092F8031092F9031092FA03B6
:105480001092FB0308952091F4033091F5034091AD
:10549000F6035091F7036091F8037091F90380913E
:1054A000FA039091FB0308958091FC039091FD0312
:1054B0000895809100049091010408952F923F92E5
:1054C0004F925F926F927F928F929F92AF92BF9214
:1054D000CF92DF92EF92FF920F931F93DF93CF93C0
:1054E000CDB7DEB762970FB6F894DEBF0FBECDBF63
:1054F0003C0180910204909103046FE170E00E94EE
:1055000002394B017B0100E010E020918E013091C7
:105510008F01442737FD4095542FC801B7010E94E1
:10552000E3380E9463362AE037ED43E25CE30E94F1
:1055300019370E943736A8019701220F331F441FE5
:10554000551F2E0D3F1D401F511F59016A01A61AFC
:10555000B70AC80AD90AAD82BE82CF82D8865B015B
:105560006C01A20EB31EC41ED51EA982BA82CB82C4
:10557000DC82AA24BB24650121E030E03A87298738
:1055800017012801261A370A480A590AA801970163
:10559000260F371F481F591F2F87388B498B5A8B6F
:1055A0007AC0E985FA85EE0FFF1FEE5FFB4F808121
:1055B00091819C0140E050E02216330644065506D6
:1055C00058F58F859889A989BA89281739074A0714
:1055D0005B0710F5E985FA85EE0FFF1FEC5FFB4FC7
:1055E0000190F081E02D7F0100E010E0EB86FC8669
:1055F0000D871E878D819E81AF81B8858E159F0591
:10560000A007B10748F489819A81AB81BC81E81673
:10561000F9060A071B0778F1ED80FE800F811885D7
:10562000E216F3060407150758F589819A81AB81C4
:10563000BC81281739074A075B0710F5E985FA8509
:10564000EE0FFF1FEC5FFB4F80819181A0E0B0E087
:10565000281639064A065B0698F4EF84F88809890B
:105660001A898E159F05A007B10750F40894A11C54
:10567000B11CC11CD11CAA0CBB1CCC1CDD1C05C060
:105680007A866986AA24BB24650109851A850E5F7E
:105690001F4F1A87098729853A852615370508F48B
:1056A00080CFA6019501569547953795279580E3BC
:1056B0006816710440F1211531054105510511F4B9
:1056C00080E028C02093F4033093F5034093F60361
:1056D0005093F7031092F8031092F9031092FA0313
:1056E0001092FB03769467947092FD036092FC0322
:1056F0009092FF038092FE0381E090E0909301047A
:105700008093000406C080E0211531054105510554
:1057100009F081E062960FB6F894DEBF0FBECDBFF0
:10572000CF91DF911F910F91FF90EF90DF90CF907D
:10573000BF90AF909F908F907F906F905F904F90B1
:105740003F902F9008959F92AF92BF92CF92DF9299
:10575000EF92FF920F931F93CF93DF936C0120E0A2
:10576000A0E0B0E000E010E0FF24EE249924AA2499
:10577000BB24C1E0D0E075C0FE01EE0FFF1FEE5F5D
:10578000FB4F0190F081E02D86E0E53AF80760F0EC
:1057900088E0EC3FF80768F43A2F4B2F502F612F29
:1057A0007F2D8E2D992D3FC082E0ED3BF80708F448
:1057B0004AC0E451F54008F046C02196FE01EE0FC4
:1057C000FF1FEE5FFB4F0190F081E02D82E0ED3B8B
:1057D000F807B8F1E451F540A0F5E22FEF5F31E0B2
:1057E000E21708F030E03A0F41E03A1708F040E0E5
:1057F0004B0F51E04B1708F050E0500F61E050178D
:1058000008F060E0610F71E0611708F070E07F0D53
:1058100081E07F1508F080E08E0D91E08E1508F094
:1058200090E02E2F990D01E00E945F01A32FB42F6D
:10583000052F162FF72EE82E992E0894A11CB11CC7
:105840000FC0E6010DC0E60182E3C816D10444F49E
:1058500020E0A0E0B0E000E010E0FF24EE24992476
:105860002196CC15DD0508F487CF83E3C816D10453
:10587000B8F184E2A816B10499F53A2F4B2F502FB6
:10588000612F7F2D8E2D992D01E00E94E000FC01FB
:10589000852F8370962F9C70892B11F12093F40330
:1058A0003093F5034093F6035093F7036093F803A6
:1058B0007093F903E093FA03F093FB03B092FD03B6
:1058C000A092FC0388EE93E09093FF038093FE0385
:1058D00085E090E0909301048093000481E001C092
:1058E00080E0DF91CF911F910F91FF90EF90DF90BB
:1058F000CF90BF90AF909F900895AF92BF92DF92EC
:10590000EF92FF920F931F93CF93DF935C0120E000
:10591000A0E0B0E000E010E0FF24EE24DD24C1E0D0
:10592000D0E05AC0FE01EE0FFF1FEE5FFB4F01906B
:10593000F081E02D85E0E531F80760F086E0E43A9B
:10594000F80760F43A2F4B2F502F612F7F2D8E2DAB
:105950009D2D2DC081E0ED32F807A0F1EC5BF24007
:1059600088F5E22FEF5F31E0E21708F030E03A0F00
:1059700041E03A1708F040E04B0F51E04B1708F0B8
:1059800050E0500F61E0501708F060E0610F71E0E7
:10599000611708F070E07F0D81E07F1508F080E06E
:1059A0008E0D91E08E1508F090E02E2F9D0D01E0F8
:1059B0000E945F01A32FB42F052F162FF72EE82E7C
:1059C000D92E09C0E50120E0A0E0B0E000E010E041
:1059D000FF24EE24DD242296CA15DB0508F4A2CFAD
:1059E0003A2F4B2F502F612F7F2D8E2D9D2D01E0B3
:1059F0000E94E000E82F822F832BF1E5AF16B1045F
:105A0000E8F1842B852B862B872B8E2B892B11F489
:105A100020E03DC02093F4033093F5034093F60358
:105A20005093F7036093F8037093F903E093FA033C
:105A30009093FB03C501969587959093FD03809302
:105A4000FC0384EF91E09093FF038093FE0384E6D0
:105A5000A816B10418F483E090E006C0F8E6AF168B
:105A6000B10439F484E090E0909301048093000441
:105A70000DC0109201041092000408C020E0842B95
:105A8000852B862B872B8E2B892B09F021E0822FEB
:105A9000DF91CF911F910F91FF90EF90DF90BF901A
:105AA000AF900895EF92FF920F931F93CF93DF93E0
:105AB0000E94D62F7B018C018091D4049091D50453
:105AC000E701C81BD90BD093DB04C093DA0423E1B0
:105AD000C938D20708F43DC08091020490910304B4
