:100000000C94B6000C940A270C9437270C94DE004D
:100010000C94DE000C94DE000C94DE000C94DE00E8
:100020000C94DE000C94DE000C94DE000C94DE00D8
:100030000C94DE000C94DE000C94DE000C94DE00C8
:100040000C9464270C94DE000C9472290C94C02943
:100050000C94DE000C94DE000C94DE000C94DE00A8
:100060000C94A2150C94DE0007634236B79BD8A708
:100070001A39685618AEBAAB558C1D3CB7CC5763CD
:10008000BD6DEDFD753EF6177231BF000000803F7B
:1000900008000000BE922449123EABAAAA2ABECD97
:1000A000CCCC4C3E00000080BEABAAAAAA3E000009
:1000B0000000BF000000803F000000000008417801
:1000C000D3BB4387D1133D190E3CC3BD4282AD2B38
:1000D0003E68EC8276BED98FE1A93E4C80EFFFBE30
:1000E00001C4FF7F3F000000000074727565006668
:1000F000616C7365006E756C6C0025750025752E3E
:10010000002D0025640000000000240027002A00C4
:1001100000000000250028002B0000000000230044
:100120002600290004040404040404040202020258
:1001300002020303030303030102040810204080AA
:10014000010204081020010204081020000000072A
:10015000000201000003040600000000000000008F
:100160002A09D5140F15E21763182C2B11241FBE72
:10017000CFEFD8E0DEBFCDBF11E0A0E0B1E0EEE40C
:10018000F0E602C005900D92A839B107D9F716E044
:10019000A8E9B1E001C01D92AD33B107E1F711E06C
:1001A000CCE6D1E004C02297FE010E94DF2FC036CA
:1001B000D107C9F70E94822B0C9425300C940000C3
:1001C000EF92FF920F93DF93CF93CDB7DEB7609797
:1001D0000FB6F894DEBF0FBECDBFA82F002309F4E1
:1001E00061C07E010894E11CF11C88E0F7011192C6
:1001F0008A95E9F729833A834B835C836D837E83F9
:10020000AF83988780E2801BE82FFF27E7FDF095FA
:100210004D815E816F817885181684F01D861E865B
:100220001F86188A882799278E1B9F0B04C07695F6
:100230006795579547958A95D2F728C0202F332781
:1002400027FD3095DB01CA01022E04C0B695A795A3
:10025000979587950A94D2F78D879E87AF87B88B3D
:1002600004C0440F551F661F771FEA95D2F7898196
:100270009A81AB81BC8104C0B695A7959795879567
:100280002A95D2F7482B592B6A2B7B2B49875A8703
:100290006B877C8729853A854B855C856D857E8556
:1002A000AF8598898A2F60960FB6F894DEBF0FBE8F
:1002B000CDBFCF91DF910F91FF90EF900895EF9216
:1002C000FF920F93DF93CF93CDB7DEB760970FB652
:1002D000F894DEBF0FBECDBFA82F002309F461C084
:1002E0007E010894E11CF11C88E0F70111928A95C7
:1002F000E9F729833A834B835C836D837E83AF83E5
:10030000988780E2801BE82FFF27E7FDF095498161
:100310005A816B817C81181684F019861A861B8697
:100320001C86882799278E1B9F0B04C0440F551FDE
:10033000661F771F8A95D2F728C0202F332727FD05
:100340003095DB01CA01022E04C0880F991FAA1F35
:10035000BB1F0A94D2F789879A87AB87BC8704C0F2
:100360007695679557954795EA95D2F78D819E8149
:10037000AF81B88504C0880F991FAA1FBB1F2A959B
:10038000D2F7482B592B6A2B7B2B4D875E876F87C3
:10039000788B29853A854B855C856D857E85AF8513
:1003A00098898A2F60960FB6F894DEBF0FBECDBF36
:1003B000CF91DF910F91FF90EF900895CF93DF934E
:1003C000BC018230910510F462E070E0A091330628
:1003D000B0913406ED01E0E0F0E040E050E021C0F3
:1003E000888199818617970769F48A819B81309764
:1003F00019F09383828304C090933406809333066C
:10040000FE0134C06817790738F44115510519F019
:100410008417950708F4AC01FE018A819B819C0139
:10042000E9012097E9F641155105A9F1CA01861B9A
:10043000970B049708F4BA01E0E0F0E02AC08D9130
:100440009C91119784179507F9F46417750781F447
:1004500012968D919C911397309719F09383828314
:1004600004C09093340680933306FD0132964CC04D
:10047000CA01861B970BFD01E80FF91F6193719369
:1004800002978D939C9340C0FD01828193819C01D2
:10049000D9011097A1F68091310690913206892BEF
:1004A00041F4809172019091730190933206809390
:1004B000310640917401509175014115510541F487
:1004C0004DB75EB78091700190917101481B590B37
:1004D0002091310630913206CA01821B930B861798
:1004E000970780F0AB014E5F5F4F8417950750F080
:1004F000420F531F5093320640933106F901619326
:10050000719302C0E0E0F0E0CF01DF91CF91089558
:10051000CF93DF93009709F450C0EC0122971B8220
:100520001A82A0913306B0913406109709F140E089
:1005300050E0AC17BD0708F1BB83AA83FE012191EF
:100540003191E20FF31FAE17BF0779F48D919C91A3
:100550001197280F391F2E5F3F4F3983288312963A
:100560008D919C9113979B838A834115510571F45A
:10057000D0933406C093330620C012968D919C917F
:100580001397AD01009711F0DC01D3CFFA01D383AB
:10059000C28321913191E20FF31FCE17DF0769F477
:1005A00088819981280F391F2E5F3F4FFA013183CF
:1005B00020838A819B8193838283DF91CF910895E9
:1005C0002F923F925F926F927F928F929F92AF9203
:1005D000BF92CF92DF92EF92FF920F931F93CF9330
:1005E000DF938C011B01EA016115710519F0FB0114
:1005F00091838083209749F0CE010297839728F05A
:1006000020E030E040E050E0F6C0F801A1908F011A
:100610008A2D90E00E94E32F892BB9F7FDE2AF16F7
:1006200031F4F801A1908F015524539407C0FBE2E7
:10063000AF1619F4F801A1908F015524209719F0F5
:10064000C031D105C1F4F0E3AF1679F4F80180812F
:10065000883711F0883549F4F801A1800E5F1F4FEB
:10066000F2E05F2AC0E1D0E006C0209721F480E3E9
:10067000A816E9F427C0C830D10531F1C930D10539
:1006800024F4C230D10531F50CC0CA30D10589F04F
:10069000C031D105F9F4C12CD12CE12CB8E0FB2EEE
:1006A00028C0C12CD12CE12CA0E4FA2E22C0CAE033
:1006B000D0E0FCECCF2EFCECDF2EFCECEF2EFCE0CF
:1006C000FF2E17C0C8E0D0E0C12CD12CE12CE0E116
:1006D000FE2E0FC09E01442737FD4095542F60E049
:1006E00070E080E090E80E94BB2FC901DA016C0144
:1006F0007D0120E030E040E050E060E03E018824F1
:1007000077FC8094982C70EDB72EBA0CE9E0EB15CD
:1007100070F48A2D81548A3118F499ECB92E06C0F0
:100720008A2D81568A3150F589EAB82EBA0C8B2D64
:1007300090E08C179D0714F56F3FE1F0C216D306C9
:10074000E406F506B0F0CA01B901A40193010E94C4
:10075000882F9B01AC012B0D311D411D511D2130F6
:10076000F0E03F07F0E04F07F0E85F0710F461E0CA
:1007700001C06FEFF801A1908F01C5CF21143104A2
:1007800081F0662331F001501040F10111830083A4
:1007900008C051FE1AC002501040F10111830083BD
:1007A00014C067FF12C050FC05C02FEF3FEF4FEFA2
:1007B0005FE704C020E030E040E050E882E290E0F3
:1007C00090933C0680933B0616C050FE08C050959F
:1007D0004095309521953F4F4F4F5F4F0CC057FFCD
:1007E0000AC082E290E090933C0680933B062FEF94
:1007F0003FEF4FEF5FE7B901CA01DF91CF911F9142
:100800000F91FF90EF90DF90CF90BF90AF909F90AF
:100810008F907F906F905F903F902F900895FC0194
:1008200088279927E89421912032E9F3293010F0A4
:100830002E30C8F32B3241F02D3239F4689404C0C5
:100840000E949604820F911D219120532A30C0F3FB
:100850001EF4909581959F4F08950F931F93CF930A
:10086000DF93182F092FE82FF92FDF010D900020BB
:10087000E9F7CD018E1B9F0B0E94DE01EC01009772
:1008800021F0612F702F0E947204CE01DF91CF9171
:100890001F910F910895FB01DC018D9181341CF0B3
:1008A0008B350CF4805E619161341CF06B350CF477
:1008B000605E861B611189F3990B0895FB01DC01D1
:1008C0000D900020E9F7119701900D920020E1F7BB
:1008D0000895FB01DC018D91019080190110D9F37D
:1008E000990B0895FB01DC0101900D920020E1F7C6
:1008F0000895FB01DC014150504030F08D91019092
:10090000801919F40020B9F7881B990B0895FB0191
:10091000DC014150504048F001900D920020C9F791
:1009200001C01D9241505040E0F708957AE0979F32
:10093000902D879F802D910D11240895FC018381B6
:1009400087FF24C080913506909136068E179F0749
:1009500021F4109236061092350680913706909158
:1009600038068E179F0721F410923806109237062A
:100970008091390690913A068E179F0721F41092C4
:100980003A0610923906CF010E94880280E090E07A
:1009900008950F931F93CF93DF938C01EB01009782
:1009A00031F46115710519F420E030E038C081E0C0
:1009B00090E06EE070E00E94EC07FC019C01009763
:1009C00071F180E88383209771F0D387C28781E833
:1009D00083838091350690913606892B21F4F0931C
:1009E0003606E093350601151105C9F01187008719
:1009F0008381826083838091370690913806892BAA
:100A000071F4F0933806E09337068091390690919F
:100A10003A06892B21F4F0933A06E0933906C9018E
:100A2000DF91CF911F910F910895CF93DF93EC0148
:100A30004B8140FF1AC046FF0AC04F7B4B838E811B
:100A40009F8101969F838E838A81282F2BC042FF2E
:100A500013C0E881F9818081282F332727FD309545
:100A60002115310529F440624B832FEF3FEF1BC066
:100A70003196F983E88311C0EA85FB85CE0109959B
:100A80009C0197FF0AC09B812F5F3F4F11F080E2CE
:100A900001C080E1892B8B83E8CF8E819F810196F5
:100AA0009F838E8330E0C901DF91CF910895A0E04C
:100AB000B0E0EDE5F5E00C94FC2F0F8118859E0168
:100AC000255F3F4FF801838188608383C801698572
:100AD0007A85A9010E940F06F8012381277F2383CD
:100AE0002096E4E00C9418300F931F93CF93DF937C
:100AF0008C01EB018B8181FF1BC082FF0DC02E8119
:100B00003F818C819D812817390764F4E881F98140
:100B10000193F983E88306C0E885F985802F09955C
:100B2000892B31F48E819F8101969F838E8302C031
:100B30000FEF1FEFC801DF91CF911F910F91089523
:100B4000A0E0B0E0E6EAF5E00C94F42FFC014B01E4
:100B50005A016901D90113968C9180FF1AC07F0157
:100B6000C0E0D0E010C0C6010E941505BFEF8F3F66
:100B70009B0789F0F70181937F010F5F1F4F0815D5
:100B8000190588F32196CA15DB0528F400E010E06A
:100B9000F6CFC0E0D0E0CE01CDB7DEB7ECE00C94EC
:100BA0001030AEE0B0E0E7EDF5E00C94FC2F0D89DD
:100BB0001E8986E08C831A8309838FEF9FE79E83CB
:100BC0008D839E01275E3F4FCE0101966F89788D00
:100BD000A9010E940F062F813885020F131FF8010B
:100BE00010822E96E4E00C9418309C01FB01838166
:100BF00080FF11C086FD0FC09FEF2F3F390759F0CE
:100C0000228380648F7D8383868197810197978378
:100C1000868330E002C02FEF3FEFC9010895ABE0BB
:100C2000B0E0E5E1F6E00C94EE2F3C012B015A0117
:100C3000FC0117821682838181FD03C06FEF7FEF75
:100C4000C6C19AE0892E1E010894211C311CF301B3
:100C50002381F20123FD859123FF81912F018823B8
:100C600009F4B2C1853239F423FD859123FF8191C6
:100C70002F01853229F490E0B3010E947405E7CF7B
:100C8000982FFF24EE249924FFE1FF15D0F09B322A
:100C900069F09C3228F4903259F0933291F40EC0EE
:100CA0009D3249F0903369F441E024C052E0F52AC6
:100CB00084E0F82A28C098E0F92A25C0E0E1FE2A5D
:100CC00022C0F7FC29C0892F80538A3070F4F6FEC9
:100CD00005C0989C902C1124980E15C0E89CE02C1F
:100CE0001124E80EF0E2FF2A0EC09E3229F4F6FC31
:100CF0006BC140E4F42A07C09C3619F450E8F52A89
:100D000002C0983649F4F20123FD959123FF919199
:100D10002F01992309F0B8CF892F8554833018F01B
:100D20008052833038F444E050E0A40EB51E5FE3F7
:100D300059830FC0933631F0933779F0933509F02A
:100D400056C020C0F5018081898342E050E0A40EA6
:100D5000B51E610101E010E012C0F501C080D18034
:100D6000F6FC03C06FEF7FEF02C0692D70E042E038
:100D700050E0A40EB51EC6010E941A088C015FE760
:100D8000F52214C0F501C080D180F6FC03C06FEFDE
:100D90007FEF02C0692D70E042E050E0A40EB51E66
:100DA000C6010E9408088C0150E8F52AF3FE07C02E
:100DB0001AC080E290E0B3010E947405EA948E2D7F
:100DC00090E008171907A8F30EC0F601F7FC85910B
:100DD000F7FE81916F0190E0B3010E947405E1106C
:100DE000EA94015010400115110579F7EAC09436D4
:100DF00011F0993669F5F7FE08C0F50120813181BF
:100E00004281538184E090E00AC0F50180819181A4
:100E10009C01442737FD4095542F82E090E0A80EB6
:100E2000B91E9FE6F92257FF09C0509540953095AD
:100E300021953F4F4F4F5F4FE0E8FE2ACA01B901AD
:100E4000A1012AE030E00E942508D82ED21840C027
:100E5000953729F41F2D1F7E2AE030E01DC01F2D7D
:100E6000197F9F3661F0903720F4983509F0ACC0B7
:100E70000FC0903739F0983709F0A6C004C028E0B9
:100E800030E00AC0106114FD146020E130E004C0BD
:100E900014FD166020E132E017FF08C0F501608103
:100EA00071818281938144E050E008C0F501808126
:100EB0009181BC0180E090E042E050E0A40EB51EBC
:100EC000A1010E942508D82ED2188FE7F82EF12212
:100ED000F6FE0BC05EEFF522D91438F4F4FE07C01D
:100EE000F2FC05C08FEEF82202C01D2D01C0192DA5
:100EF000F4FE0DC0FE01ED0DF11D8081803319F46B
:100F000099EEF92208C01F5FF2FE05C003C08F2DC5
:100F1000867809F01F5F0F2DF3FC14C0F0FE0FC0A0
:100F20001E1510F09D2C0BC09D2C9E0C911A1E2D91
:100F300006C080E290E0B3010E9474051F5F1E1599
:100F4000C0F304C01E1510F4E11A01C0EE2404FF22
:100F50000FC080E390E0B3010E94740502FF1DC042
:100F600001FD03C088E790E00EC088E590E00BC06B
:100F7000802F867891F001FF02C08BE201C080E2F1
:100F8000F7FC8DE290E0B3010E94740506C080E397
:100F900090E0B3010E9474059A94D914C0F3DA94D6
:100FA000F101ED0DF11D808190E0B3010E94740507
:100FB000DD20A9F706C080E290E0B3010E9474052D
:100FC000EA94EE20C1F743CEF30166817781CB012D
:100FD0002B96E2E10C940A300F931F93CF93DF938B
:100FE000689F8001699F100D789F100D1124C80122
:100FF0000E94DE01EC01009729F060E070E0A8019A
:101000000E941308CE01DF91CF911F910F91089597
:10101000FC010590615070400110D8F780959095C3
:101020008E0F9F1F0895DC0101C06D934150504009
:10103000E0F70895FC016150704001900110D8F76D
:10104000809590958E0F9F1F0895FA01AA2728304A
:1010500051F1203181F1E8946F936E7F6E5F7F4F85
:101060008F4F9F4FAF4FB1E03ED0B4E03CD0670F01
:10107000781F891F9A1FA11D680F791F8A1F911D54
:10108000A11D6A0F711D811D911DA11D20D009F4A4
:1010900068943F912AE0269F11243019305D3193E6
:1010A000DEF6CF010895462F4770405D4193B3E0CF
:1010B0000FD0C9F7F6CF462F4F70405D4A3318F076
:1010C000495D31FD4052419302D0A9F7EACFB4E027
:1010D000A6959795879577956795BA95C9F70097DF
:1010E0006105710508959B01AC010A2E0694579580
:1010F000479537952795BA95C9F7620F731F841FD7
:10110000951FA01D08950F931F9307E912E0C801D2
:101110000E949E21C8010E94831E1F910F91089575
:101120000F931F930FE015E0C80140E855E260E01F
:1011300070E00E94FB29C8010E94BB2B8AE061E09D
:101140000E94DE288BE061E00E94DE2889E061E0F9
:101150000E94DE288AE061E00E941D298BE061E0A8
:101160000E941D2989E061E00E941D298CE061E058
:101170000E94DE2888E061E00E94DE2887E061E0CE
:101180000E94DE288CE061E00E941D2988E061E079
:101190000E941D2987E060E00E941D291F910F9188
:1011A00008950F931F938C01862F90E0FC01E85C5B
:1011B000FE4FE491D801EC938C5D9E4FFC0164914D
:1011C000E62FF0E0EE0FFF1FE65EFE4F8591949153
:1011D00012969C938E9311970E94AC27D801139678
:1011E0006D937D938D939C93169780E090E0A7EC90
:1011F000B2ECF80187839087A187B28783879487B1
:10120000A587B6871F910F910895449A459AE9EBF7
:10121000F0E080818E7F808380818D7F808388E471
:101220008093B80084E48093BC000895FC01809111
:10123000980190919A01981B90939901882319F431
:10124000109299010895815080939801E90FF11D42
:10125000828108950895EF92FF920F931F930E9449
:10126000AC277B018C0184E98093BC001BC0211555
:101270003105E1F00E94AC276E197F09800B910BBC
:1012800020919B0130919C0140E050E06217730770
:101290008407950738F01092BC0084E48093BC006A
:1012A00081E009C020919B0130919C018091BC009C
:1012B00084FDDDCF80E01F910F91FF90EF900895A6
:1012C000CF92DF92EF92FF921F93162F0E94AC27CE
:1012D0006B017C01112311F084EC01C084E8809340
:1012E000BC001BC021153105E1F00E94AC276C1930
:1012F0007D098E099F0920919B0130919C0140E05E
:1013000050E0621773078407950738F01092BC000D
:1013100084E48093BC0091E019C020919B0130913E
:101320009C018091BC0087FFDDCF8091B900887F50
:10133000883349F49091B900987F1092BC0084E4FE
:101340008093BC0003C09091B900987F892F1F91B2
:10135000FF90EF90DF90CF900895EF92FF920F9360
:101360001F93CF93DF93EC016093BB000E94AC27E7
:101370007B018C0184E88093BC001BC021153105E2
:10138000E1F00E94AC276E197F09800B910B209130
:101390009B0130919C0140E050E062177307840785
:1013A000950738F01092BC0084E48093BC0011E0F3
:1013B00020C020919B0130919C018091BC0087FF4F
:1013C000DDCF8091B900887F883211F410E011C020
:1013D0001091B900187F8091B900887F803321F483
:1013E000CE010E942B0905C01092BC0084E48093BA
:1013F000BC00812FDF91CF911F910F91FF90EF9053
:101400000895EF92FF920F931F93CF93DF93EC0118
:101410006093BB000E94AC277B018C0184E8809321
:10142000BC001BC021153105E1F00E94AC276E19EC
:101430007F09800B910B20919B0130919C0140E032
:1014400050E0621773078407950738F01092BC00CC
:1014500084E48093BC0011E01DC020919B01309179
:101460009C018091BC0087FFDDCF8091B900887F0F
:10147000883179F08091B900887F803499F409C06F
:101480008091B900887F8834B1F4CE010E942B0985
:1014900001C010E0812FDF91CF911F910F91FF903C
:1014A000EF9008951091B900187F8091B900887F5E
:1014B000803231F7EACF1092BC0084E48093BC0004
:1014C000E9CFEF92FF920F931F930E94AC277B010D
:1014D0008C0184EA8093BC001BC021153105E1F02A
:1014E0000E94AC276E197F09800B910B20919B0104
:1014F00030919C0140E050E0621773078407950724
:1015000038F01092BC0084E48093BC0091E021C0CC
:1015100020919B0130919C018091BC0087FFDDCF21
:101520008091B900887F883099F08091B900887FD8
:101530008031A9F40DC09091B900987F1092BC0041
:1015400084E48093BC0005C09091B900987F01C0ED
:1015500090E0892F1F910F91FF90EF900895809157
:10156000B900887F883381F7E6CFEF92FF920F931F
:101570001F93CF93DF93EC01162F042FE22E1092CE
:10158000980110929901222311F4EE24E394EA9435
:10159000E982E3941882CE010E94610A888388233D
:1015A00009F061C0110FCE01612F0E94010A8883EA
:1015B000882329F0813009F056C082E054C0CE0162
:1015C000602F0E94AD098883882329F0813009F0BB
:1015D0004AC083E048C0CE010E94610A8883882304
:1015E00029F0813009F03FC084E03DC01F5FCE018B
:1015F000612F0E94010A8883882319F48E01FF2439
:1016000025C0813081F585E02EC08981F81651F41E
:10161000CE0160E00E9460098883813019F188352D
:1016200051F021C0CE0161E00E94600988838130C1
:10163000C9F08035C1F48091BB00F8018283F39436
:10164000F0929801F0929A010F5F1F4FFE14E8F29A
:10165000CE010E942B098883882329F0813019F458
:1016600087E001C086E0DF91CF911F910F91FF903D
:10167000EF900895FF920F931F93CF93DF93EC01A8
:10168000162F042FF22E18820E94610A8883882365
:1016900041F5110FCE01612F0E94010A8883882332
:1016A00021F08130F1F482E01CC0CE01602F0E9455
:1016B000AD098883882339F4CE016F2D0E94AD09CE
:1016C0008883882319F0813061F40AC0CE010E941A
:1016D0002B098883882329F0813019F487E001C021
:1016E00083E0DF91CF911F910F91FF9008950F93A9
:1016F0001F93CF93DF93EC01162F042F18820E94C3
:10170000610A8883882301F5110FCE01612F0E94A1
:10171000010A8883882321F08130B1F482E014C06B
:10172000CE01602F0E94AD098883882321F081308B
:1017300059F483E009C0CE010E942B0988838823D5
:1017400019F0813009F487E0DF91CF911F910F915B
:101750000895FB010680F781E02D80E004C08F5FD3
:101760000280F381E02D3097D1F70895FB010680C8
:10177000F781E02D04C041500280F381E02D3097C5
:1017800011F04423C1F7CF010895CF93DF93EB010C
:10179000DA01EE81FF814115510591F0309719F47E
:1017A0005F834E830DC0CF010280F381E02D30971F
:1017B000D1F7FC01B383A28315969C938E93149763
:1017C000DF91CF9108950F931F93CF93DF93FB0188
:1017D0008A01C681D78103C00A80DB81C02D209792
:1017E00039F088819981B8010E944B04892BA1F7B7
:1017F000CE01DF91CF911F910F910895EF92FF924B
:101800000F931F93CF93DF937B018A01E901211589
:10181000310511F188819981009711F00E948802A9
:10182000C8010E942D0488839983D7011696ED91F3
:10183000FC911797309729F41796DC93CE9316975F
:101840000BC0CF010280F381E02D3097D1F7FC016E
:10185000D383C2839D838C83DF91CF911F910F919E
:10186000FF90EF900895EF92FF920F931F93CF9305
:10187000DF938C01EB0123C0FA80EB80888587FD24
:1018800008C06E817F816115710519F0C8010E9441
:10189000330C8885853031F489859A85009711F05D
:1018A0000E94880288819981009711F00E94880225
:1018B000CE010E9488028F2D9E2D9C01E901209768
:1018C000D9F6DF91CF911F910F91FF90EF9008957E
:1018D0000F931F93CF93DF938B01EA0182E290E095
:1018E000BA010E9474058F5F9F4F09F464C001150F
:1018F000110509F050C054C0803240F0823231F0FE
:101900008C3521F0992787FD909534C08CE590E0C7
:10191000BE010E9474058F5F9F4F09F44CC0F8010F
:1019200080818C30C9F08D303CF4893051F18A309F
:10193000B1F0883071F50DC0823241F08C3519F06C
:101940008D3039F515C08CE590E01DC082E290E045
:1019500008C082E690E00EC086E690E014C08EE6F5
:1019600090E0BE010E9474058F5F9F4F91F423C0E9
:1019700082E790E0BE010E9474058F5F9F4F49F49B
:101980001AC084E790E0BE010E9474058F5F9F4FEC
:1019900091F00F5F1F4FF8018081882309F0ACCFD1
:1019A00082E290E0BE010E9474058F5F9F4F19F0A4
:1019B00020E030E002C02FEF3FEFC901DF91CF916F
:1019C0001F910F910895CF93DF93EB01611571057E
:1019D00059F0CE010E9415052FEF8F3F920721F09D
:1019E00081329105B4F306C02FEF3FEFC901DF91BB
:1019F000CF910895BE010E94F5058F5F9F4FA1F31F
:101A000020E030E0F3CF6F927F928F929F92AF925F
:101A1000BF92CF92DF92EF92FF920F931F93CF93DB
:101A2000DF93FB014A016115710509F4A5C0A1848A
:101A3000B284C384D484C601B50120E030E040E024
:101A400050E00E946F2C8823C4F400D000D0ADB7C2
:101A5000BEB712969C928E92119781E091E01496F7
:101A60009C938E9313970E945705D7FAD094D7F87A
:101A7000D0940F900F900F900F90C601B5010E9467
:101A8000E02C7B018C01EDB7FEB738970FB6F894C8
:101A9000FEBF0FBEEDBF3196ADB7BEB712969C929A
:101AA0008E9211978DEF90E093838283E482F5828A
:101AB000068317830E945705C801B7010E940C2DA9
:101AC0009B01AC01C601B5010E940A2C2CEA35EC41
:101AD00047EA56E30E940B2C7B018C01C5E0D0E065
:101AE000EDB7FEB738960FB6F894FEBF0FBEEDBF48
:101AF0008AEF682E80E0782EC801B70120E030E040
:101B000040E251E40E94BE2D5B016C010E94E02C7A
:101B10007B0100D000D000D0EDB7FEB73196ADB755
:101B2000BEB712969C928E921197738262827583D1
:101B300064830E94570500E010E0C801B7010E94CD
:101B40000C2D9B01AC01C601B5010E940A2C7B0142
:101B50008C01EDB7FEB736960FB6F894FEBF0FBEF8
:101B6000EDBF20E030E040E050E00E946F2C882381
:101B700019F0219709F0C0CF80E090E0DF91CF917C
:101B80001F910F91FF90EF90DF90CF90BF90AF909B
:101B90009F908F907F906F900895CF93DF93DB019C
:101BA0006115710519F420E030E01FC000D000D0AD
:101BB00000D0EDB7FEB73196CDB7DEB75A83498373
:101BC00083E091E09383828319968D919C911A977B
:101BD000958384830E9457059C018DB79EB7069616
:101BE0000FB6F8949EBF0FBE8DBFC901DF91CF9194
:101BF0000895FB016115710509F44BC02085233060
:101C0000B1F124303CF4213049F1223064F4222334
:101C100099F03FC0253089F1253064F1263091F1EB
:101C20002730B9F532C000D000D0EDB7FEB75283EF
:101C3000418385EF90E008C000D000D0EDB7FEB73B
:101C4000528341838FEE90E0948383830E945705F3
:101C50009C010F900F900F900F901DC000D000D0EE
:101C6000EDB7FEB7528341838AEE90E0EDCF0E943C
:101C7000CD0D0DC00E94030D0AC0618572850E94C2
:101C8000680C05C00E949B0E02C00E944D0E9C0174
:101C900002C020E030E0C9010895EF92FF920F9357
:101CA0001F93CF93DF937C01FB018A0161157105BE
:101CB000C1F1C681D7818BE790E020C0688179812E
:101CC000C701A8010E94680C8F5F9F4F39F18AE31A
:101CD00090E0B8010E9474058F5F9F4FF9F0C70133
:101CE000BE01A8010E94F90D8F5F9F4FB9F00A80D5
:101CF000DB81C02D209741F08CE290E0B8010E947A
:101D000074058F5F9F4F51F02097C1F68DE790E0EB
:101D1000B8010E9474058F5F9F4F19F42FEF3FEFBA
:101D200002C020E030E0C901DF91CF911F910F91F7
:101D3000FF90EF900895EF92FF920F931F93CF9330
:101D4000DF937C01FB018A016115710539F1C681C0
:101D5000D7818BE590E00FC0C701BE01A8010E94AA
:101D6000F90D8F5F9F4FB9F00A80DB81C02D20975E
:101D700041F08CE290E0B8010E9474058F5F9F4FA4
:101D800051F0209749F78DE590E0B8010E94740565
:101D90008F5F9F4F19F42FEF3FEF02C020E030E03C
:101DA000C901DF91CF911F910F91FF90EF9008959E
:101DB000EF92FF920F931F93CF93DF938C017B01E0
:101DC0000E94DF13EC01009719F420E030E009C015
:101DD000C801B701AE010E94F90DCE010E94C813DF
:101DE0009C01C901DF91CF911F910F91FF90EF905E
:101DF0000895EF92FF920F931F93CF93DF937B0190
:101E00008A01CA010E941505829709F04FC085E03A
:101E1000F70180870E949A14EC01009709F446C0EC
:101E2000C8010E941505FFEF8F3F9F0709F041C0D1
:101E30003AC08C35910569F5C8010E9415052FEF50
:101E40008F3F920781F186369105E1F08736910543
:101E50004CF48C35910581F08236910589F082979A
:101E6000D9F40CC08237910589F08437910581F04F
:101E70008E36910589F408C08CE50BC082E209C05A
:101E800088E007C08CE005C08AE003C08DE001C097
:101E900089E0BE010E943414C8010E941505EFEFCD
:101EA0008F3F9E0731F4CE010E9452142FEF3FEF77
:101EB0000FC08232910521F0803291050CF0B9CF2C
:101EC000CE010E945714F7019287818720E030E00D
:101ED000C901DF91CF911F910F91FF90EF9008956D
:101EE0002F923F924F925F926F92AF92BF92CF929A
:101EF000DF92EF92FF920F931F93DF93CF93CDB7B3
:101F0000DEB728970FB6F894DEBF0FBECDBF7A8339
:101F100069831A01CA010E9415052C012FEF8F3F1A
:101F2000920771F08D32910519F0AA24A3940DC087
:101F3000C1010E9415052C014FEF8F3F940719F442
:101F40002FEF3FEF16C1AA24AA94C201C0970A97A7
:101F500018F000E010E018C000E010E0C80173E0E5
:101F6000880F991F7A95E1F7000F111F800F911FBD
:101F7000820100531040080F191FC1010E9415056E
:101F80002C01C0970A9750F35EE245165104D1F038
:101F900085E648165104B1F095E44916510491F0D4
:101FA0008A2D992787FD9095FC010E9FC0010F9FF8
:101FB000900D1E9F900D1124E981FA8192878187EF
:101FC00083E0D0C0B801882777FD8095982F0E94C4
:101FD0000E2D7B018C01FEE24F16510419F0CC242A
:101FE000DD242DC0C1010E9415052C01CC24DD2467
:101FF000C801B70120E030E040E251E40E94BE2D6C
:102000007B018C0120ED3FEF420E531EB201882769
:1020100077FD8095982F0E940E2D9B01AC01C80181
:10202000B7010E940B2C7B018C010894C108D108D8
:10203000C1010E9415052C01C0970A97C8F235E628
:102040004316510449F045E44416510429F018861A
:102050001F826624639437C0C1010E9415052C01BC
:102060008B32910529F4C1010E9415052C0104C091
:102070008DE24816510419F06624639406C0C1012C
:102080000E9415052C0166246A9418861F8215C0CB
:102090008F81988553E0880F991F5A95E1F7EF815A
:1020A000F885EE0FFF1FE80FF91FE20FF31FF88707
:1020B000EF83C1010E9415052C019201205330408D
:1020C0002A30310528F36A2D772767FD7095872F11
:1020D000972F0E940E2DA80197010E94BE2D6B83A1
:1020E0007C838D839E83B601882777FD8095982F0A
:1020F0000E940E2D5B016C012F813885B901882764
:1021000077FD8095982F0E940E2D7B018C01662D06
:10211000772767FD7095872F972F0E940E2D9B01C3
:10212000AC01C801B7010E94BE2D9B01AC01C601E4
:10213000B5010E940B2C9B01AC0160E070E080E2D5
:1021400091E40E94212E9B01AC016B817C818D81E9
:102150009E810E94BE2DE981FA8161877287838703
:10216000948784E08087C201B1010E94F50520E0D8
:1021700030E0C90128960FB6F894DEBF0FBECDBF80
:10218000CF91DF911F910F91FF90EF90DF90CF9053
:10219000BF90AF906F905F904F903F902F900895B9
:1021A0008DE090E00E94DE01FC01009729F08DE0B7
:1021B000DF011D928A95E9F7CF0108950E94D010A2
:1021C000FC01009711F087E08087CF0108950E94FD
:1021D000D010FC01009711F086E08087CF010895B0
:1021E0000F931F93CF93DF938B010E94D010EC01CC
:1021F000009739F085E08887C8010E942D048987FF
:102200009A87CE01DF91CF911F910F910895CF92C0
:10221000DF92EF92FF920F931F938C017B016A0173
:10222000B9010E94F0109C01C801B701A6010E94EB
:10223000FE0B1F910F91FF90EF90DF90CF900895CC
:10224000EF92FF920F931F937A018B010E94D0109F
:10225000FC01009731F084E08087E186F2860387F5
:102260001487CF011F910F91FF90EF900895AF92C7
:10227000BF92CF92DF92EF92FF920F931F937C0158
:102280006B015A01B901A8010E9420119C01C701EC
:10229000B601A5010E94FE0B1F910F91FF90EF90D8
:1022A000DF90CF90BF90AF900895CF93DF93EB0175
:1022B0000E94D010FC01009721F083E08087D28734
:1022C000C187CF01DF91CF910895CF92DF92EF9236
:1022D000FF920F931F938C017B016A01B9010E9449
:1022E00055119C01C801B701A6010E94FE0B1F9168
:1022F0000F91FF90EF90DF90CF9008956F927F92B3
:102300008F929F92BF92CF92DF92EF92FF920F93A4
:102310001F93CF93DF937C014B018A013901CA01DE
:102320000E9415058B37910509F05DC087E0F40127
:102330008087C701B8010E94E30CC8010E941505FF
:102340008D37910509F452C0B8010E94F505BB24F0
:10235000BA94C7010E94D010EC01009709F443C061
:10236000BB2021F0F4019783868305C0F601938397
:102370008283DD82CC82C701B8010E94E30CC701D1
:10238000BE01A8010E94F90E8F5F9F4F61F1C70146
:10239000B8010E94E30C89859A85998388831A86FF
:1023A0001986C8010E941505CA97E9F4C701B8014A
:1023B0000E94E30CC701BE01A80193010E9407120D
:1023C0008F5F9F4F81F0C701B8010E94E30CC801E5
:1023D0000E941505BB246E018C32910509F4B9CF1A
:1023E0008D37910519F02FEF3FEF02C020E030E06C
:1023F000C901DF91CF911F910F91FF90EF90DF9076
:10240000CF90BF909F908F907F906F9008958F9204
:102410009F92AF92BF92CF92DF92EF92FF920F9373
:102420001F93DF93CF93CDB7DEB729970FB6F894FC
:10243000DEBF0FBECDBF6C015B017A0149014115C2
:10244000510509F4ADC0BA010E94E30C8F5F9F4FA4
:1024500009F4A6C0C7010E9415058C018FEF0F3F3C
:10246000180709F49DC0C801B7010E94F5058F5FE8
:102470009F4F09F495C00232110531F4C601B50130
:10248000A7010E94F90E20C00D32110521F0C801EC
:10249000C0970A9730F4C601B501A7010E94700FDA
:1024A00013C00B35110539F4C601B501A70194011C
:1024B0000E94E61209C00B37110541F4C601B501AF
:1024C000A70194010E947E119C016CC00E3611057B
:1024D00001F519821A821B821C828E010F5F1F4F29
:1024E000C80161E070E044E050E097010E94A0055F
:1024F000049709F055C0C80160E071E044E050E085
:102500000E947904009709F04BC082E0F5018087B2
:1025100044C006361105F9F48E010B5F1F4F85E0AC
:10252000F80111928A95E9F7C80161E070E045E091
:1025300050E097010E94A005059791F5C80165E05C
:1025400071E045E050E00E947904009749F5F501FB
:102550001086118622C00437110511F519821A82DE
:102560001B821C828E010F5F1F4FC80161E070E06B
:1025700044E050E097010E94A005049789F4C80147
:102580006BE071E044E050E00E947904009741F470
:1025900081E0F50180878FEF818720E030E002C085
:1025A0002FEF3FEFC90129960FB6F894DEBF0FBE9B
:1025B000CDBFCF91DF911F910F91FF90EF90DF90F2
:1025C000CF90BF90AF909F908F9008956F927F9221
:1025D0008F929F92BF92CF92DF92EF92FF920F93D2
:1025E0001F93CF93DF936C014B01EA013901CA01BC
:1025F0000E9415058B35910509F03FC086E0F40176
:102600008087C601BE010E94E30CCE010E94150521
:102610008D359105A9F1BE010E94F505BB24BA9440
:10262000C6010E94D0108C01009739F1BB2021F027
:10263000F4019783868306C0F70193838283FC01AC
:10264000F582E482C601BE010E94E30CC601B80116
:10265000AE0193010E940712892B79F4C601BE01D5
:102660000E94E30CCE010E941505BB2478018C3238
:102670009105B1F28D35910519F02FEF3FEF02C0B2
:1026800020E030E0C901DF91CF911F910F91FF90C1
:10269000EF90DF90CF90BF909F908F907F906F9042
:1026A0000895CF92DF92EF92FF920F931F93CF93F3
:1026B000DF937C018B016A0161157105B1F00E9405
:1026C000D010EC01009799F0C701B8010E94E30C0B
:1026D000C701BE01A80196010E9407128F5F9F4F9C
:1026E00031F4C701BE010E94330CC0E0D0E0CE013E
:1026F000DF91CF911F910F91FF90EF90DF90CF90DE
:102700000895EF92FF920F931F937C01CB010E94DB
:102710000D148C01C701B80140E050E00E94511334
:10272000F82EE92EC8010E94FA138F2D9E2D1F91BD
:102730000F91FF90EF900895FC01A485B585129646
:102740002D913C911397ED91FC911197E20FF31F9E
:102750008081882319F4EFEFFFEF0AC02F5F3F4F0E
:1027600013963C932E931297E82FFF27E7FDF095E1
:10277000CF010895FB01648575850E943414882378
:1027800019F420E030E002C02FEF3FEFC9010895B7
:102790000F931F93CF93DF93EC018C859D850E944F
:1027A00057148C01009711F01D861C86CE010E94E3
:1027B0009E04C801DF91CF911F910F910895CF938F
:1027C000DF938AEB93E160E070E00E94C904EC01C2
:1027D000009761F00E949A14009731F4CE010E9494
:1027E0009E04C0E0D0E002C09D878C87CE01DF91BF
:1027F000CF910895CF93DF93EC01009759F08C852A
:102800009D85009711F00E9488021D861C86CE01CE
:102810000E949E04DF91CF9108950F931F93CF9351
:10282000DF938C0180E090E06CE973E10E94C904C1
:10283000EC01009799F084E090E00E94DE01FC0139
:10284000009739F011830083138212829D878C8751
:1028500005C0CE010E949E04C0E0D0E0CE01DF9111
:10286000CF911F910F910895482FDB0114962D9160
:102870003C91159712968D919C91139728173907C3
:1028800078F4ED91FC911197E20FF31F40831496B9
:102890008D919C911597019615969C938E93149704
:1028A00080E00895009711F00E94880208950F9328
:1028B0001F93CF93DF938C01DC0114962D913C91F3
:1028C00015972115310541F0ED91FC91E20FF31FB1
:1028D000319780818823B1F0F80182819381281794
:1028E000390780F40190F081E02DE20FF31F108290
:1028F000D80114968D919C911597019615969C93ED
:102900008E931497F801848195810E94DE01EC0179
:10291000009751F061E375E00E947204D8011D92A6
:102920001C92C8010E948802CE01DF91CF911F91B5
:102930000F910895CF93DF9386E090E00E94DE012F
:10294000DC010097A9F0E1E3F5E01196FC93EE932A
:1029500080E091E0EF019C01199221503040E1F7B5
:1029600013969C938E93129715961C921E92149711
:10297000CD01DF91CF9108950F931F938C010E9499
:10298000AC27605A75418F4F9F4FF8016083718368
:102990008283938380E090E0A0E0B0E0848395831D
:1029A000A683B7831F910F91089580EC91E00E9458
:1029B000BC1488EC91E06EE00E94D108089520914B
:1029C000F80130E08091F701281B3109C901089511
:1029D0004091F7018091F801481718F02FEF3FEF71
:1029E0000AC0E42FF0E0E952FE4F8081282F30E04A
:1029F0004F5F4093F701C9010895E091F70180917D
:102A0000F801E81718F0EFEFFFEF06C0F0E0E95229
:102A1000FE4F8081E82FF0E0CF01089508951092D5
:102A20001F0210921E0288EE93E0A0E0B0E08093B7
:102A3000200290932102A0932202B09323028CE7FC
:102A400091E090931D0280931C020895CF92DF9233
:102A5000EF92FF920F931F93CF93DF937C016B0153
:102A60008A0180911B028823A1F0C0E0D0E00DC054
:102A7000D701ED91FC91D601AC0FBD1F0190F08103
:102A8000E02DC7016C9109952196C017D10780F3FD
:102A900004C0CB01642F0E948715C801DF91CF913C
:102AA0001F910F91FF90EF90DF90CF900895DF93EB
:102AB000CF930F92CDB7DEB7FC01698380911B02E3
:102AC0008823C9F080911A02803238F081E090E0CA
:102AD0009383828320E030E015C080911902E82FB3
:102AE000F0E0E750FE4F998190838F5F8093190249
:102AF00080931A0205C0CE01019661E00E948715FD
:102B000021E030E0C9010F90CF91DF910895482F67
:102B1000613210F081E0089580912802843011F034
:102B200082E0089560937302A2E5B2E0842F9C01D5
:102B3000F90102C081918D938E2F841B8617D0F3EB
:102B400080E008951F920F920FB60F9211242F93D9
:102B50003F934F935F936F937F938F939F93AF9325
:102B6000BF93EF93FF938091B90090E0887F9070BE
:102B70008036910509F4F2C081369105CCF5883292
:102B8000910509F47BC089329105B4F48031910537
:102B900009F46FC0813191053CF4009709F447C1F5
:102BA000089709F04FC165C08831910509F466C0E6
:102BB000809709F047C182C08034910509F4A4C010
:102BC0008134910544F48033910509F482C0C8979B
:102BD00009F038C189C08035910509F489C088356C
:102BE000910509F496C08834910509F02BC1AEC057
:102BF0008839910509F413C189399105ECF48837B6
:102C0000910509F4ABC0893791054CF488369105DC
:102C100009F4A4C08037910509F014C19FC0883819
:102C2000910509F4FCC08039910509F49DC08038F4
:102C3000910509F007C198C0803B910509F4C6C011
:102C4000813B91054CF4803A910509F49FC0883A84
:102C5000910509F0F7C0BAC0803C910509F4E3C0C2
:102C6000883C910509F4DFC0883B910509F0EAC072
:102C7000C2C0809129028093BB00CFC090915002C6
:102C800080915102981768F490915002E92FF0E07A
:102C9000E05DFD4F80818093BB009F5F9093500269
:102CA000BCC080912A02882309F44BC085ED809333
:102CB000BC008091BC0084FDFCCFC2C080E2809348
:102CC000950285ED8093BC008091BC0084FDFCCF13
:102CD000B7C080E38093950285ED8093BC0080911E
:102CE000BC0084FDFCCFACC088E3809395029BC000
:102CF000809150029091BB00E82FF0E0E05DFD4F25
:102D000090838F5F80935002909150028091510286
:102D100082C0809150029091BB00E82FF0E0E05D0E
:102D2000FD4F90838F5F8093500280912A02882309
:102D300041F085ED8093BC008091BC0084FDFCCF08
:102D40007FC081E080932B0284EA6EC085ED809382
:102D5000BC008091BC0084FDFCCF72C083E08093F6
:102D600028021092940259C080919402803208F097
:102D700056C0809194029091BB00E82FF0E0EC588F
:102D8000FD4F90838F5F8093940247C0809194029F
:102D9000803230F4E0919402F0E0EC58FD4F108264
:102DA00085ED8093BC008091BC0084FDFCCF109227
:102DB000280260919402E0912E02F0912F0284E7A4
:102DC00092E070E00995109294022DC084E0809307
:102DD00028021092720210927302E0912C02F0917C
:102DE0002D02099580917302882329F481E0809354
:102DF00073021092520290917202E92FF0E0EE5AA3
:102E0000FD4F80818093BB009F5F909372029091F1
:102E1000720280917302981710F485EC01C085E866
:102E20008093BC000FC085EC8093BC0009C0109259
:102E3000950285ED8093BC008091BC0084FDFCCFA1
:102E400010922802FF91EF91BF91AF919F918F91C6
:102E50007F916F915F914F913F912F910F900FBE96
:102E60000F901F901895362F242F8DE991E06DE17A
:102E7000432F0E943A0B0895EF92FF920F931F93F6
:102E8000CF93DF93162F7A01022F8DE991E06DE148
:102E9000412F0E94770B8DE991E06DE1412F202FAA
:102EA0000E94B50AC0E0D0E010E009C08DE991E0D1
:102EB0000E941609F701EC0FFD1F80832196C017B1
:102EC000D107A4F3DF91CF911F910F91FF90EF9065
:102ED00008950F931F93DF93CF930F92CDB7DEB773
:102EE0008C016AE2AE014F5F5F4F21E00E943C1708
:102EF00049814D7FC8016AE20E9433170F90CF913C
:102F0000DF911F910F9108950F931F93DF93CF933C
:102F10000F92CDB7DEB78C016AE2AE014F5F5F4F13
:102F200021E00E943C1749814160C8016AE20E9489
:102F300033170F90CF91DF911F910F9108950F9349
:102F40001F93DF93CF930F92CDB7DEB78C016AE268
:102F5000AE014F5F5F4F21E00E943C1749814E7FD9
:102F6000C8016AE20E9433170F90CF91DF911F9141
:102F70000F9108950F931F93DF93CF930F92CDB7C7
:102F8000DEB78C018DE991E00E940509C8010E941D
:102F90009F17C8016EE040E00E943317C8010E94ED
:102FA0006917C8010E948417C8016DE0AE014F5F28
:102FB0005F4F21E00E943C170F90CF91DF911F914E
:102FC0000F91089586E992E00E94BA1708957F92C2
:102FD0008F929F92AF92BF92CF92DF92EF92FF9229
:102FE0000F931F93CF93DF935C01712E122FB32F9A
:102FF000A42FF52FE62F972F47016501E501EE2459
:10300000FF241BC000FD02C080E301C081E388A350
:103010000894E11CF11C202F372D412F5B2F6A2FC4
:103020007F2F8E2F01E00E94E000022F732E142FBD
:10303000B52FA62FF72FE82F2196802F8729812BD8
:103040008B2B8A2B8F2B8E2B892BE1F6A4014E190B
:103050005F09D501A80DB91DFD0120E030E090E326
:103060000FC02417350720F0878DE601888302C042
:10307000E60198832F5F3F4F31970894C11CD11C04
:103080002815390570F31C92DF91CF911F910F9194
:10309000FF90EF90DF90CF90BF90AF909F908F9078
:1030A0007F9008950F931F938C010E94AC27605A64
:1030B00075418F4F9F4FF8016083718382839383A3
:1030C0001F910F91089587E992E00E94521886E8B7
:1030D00093E00E94CA2108952F923F924F925F92EF
:1030E0006F927F928F92AF92BF92CF92DF92EF92C8
:1030F000FF920F931F93DF93CF9300D000D000D0A7
:10310000CDB7DEB71B015A8349833C832B831E83D3
:103110000D8326013701DA2C182D133008F092C0E8
:103120008FEB91E00E94DE105C01009709F48AC0E9
:103130008FEB91E00E94E7107C01882031F48FEB47
:1031400091E0B50140E151E00DC0113031F48FEB59
:1031500091E0B50147E151E005C08FEB91E0B50189
:103160004EE151E097010E94FE0B8FEB91E00E942F
:10317000DE108C018FEB91E0B701A8010E94C50B16
:103180008FEB91E0B80145E251E091010E940711F7
:103190008FEB91E0B80147E251E029813A810E942A
:1031A00065118FEB91E0B80149E251E02B813C8140
:1031B0000E946511DD2051F08FEB91E0B8014BE2E8
:1031C00051E02D813E810E94071127C0C301B20149
:1031D0000E94DB2C6B017C01B601882777FD80956E
:1031E000982F0E940E2D9B01AC01C301B2010E94D9
:1031F0006F2C882351F08FEB91E0B8014BE251E046
:10320000930182010E94371108C08FEB91E0B80151
:103210004BE251E096010E9465118FEB91E0B50100
:103220000E94D80E8C01009729F08FE095E0B8013C
:103230000E94F72B8FEB91E0B5010E94330CC8017F
:103240000E94880226960FB6F894DEBF0FBECDBF4F
:10325000CF91DF911F910F91FF90EF90DF90CF9072
:10326000BF90AF908F907F906F905F904F903F9006
:103270002F9008952F923F924F925F926F927F927C
:103280008F92AF92CF92DF92EF92FF920F931F93A4
:10329000DF93CF93CDB7DEB72F970FB6F894DEBF8D
:1032A0000FBECDBF1C01822EA32EB42FA52FCB01A4
:1032B000CC24DD244BE0E42EF12C34E0632E712C81
:1032C0006C0E7D1E202F2F70F301EE0DFF1D20834D
:1032D0003BE0E316F10411F0C20ED11C0894E108A2
:1032E000F1082FEFE2162FEFF20671F09801482D4A
:1032F0005A2D6B2F7A2F04E00E94E0008901842E62
:10330000A52EB62FA72FDECF8C81893009F045C1BD
:103310008F8590E03FE0C322DD248C159D0509F0E8
:103320003CC100D000D000D0EDB7FEB7319621E00F
:1033300030E02C0F3D1FADB7BEB712963C932E93D5
:1033400011978EE291E0938382838E818295807FB4
:103350009F81890F848315820E94D1058DB79EB706
:1033600006960FB6F8949EBF0FBE8DBF8D818370F9
:10337000813009F44EC0813038F0823009F462C0E7
:10338000833009F00AC1A6C06A8524E6629FB001B5
:103390001124882777FD8095982F0E940E2D7B01A0
:1033A0008C016B852AE0629FB0011124882777FD8C
:1033B0008095982F0E940E2D9B01AC01C801B7018A
:1033C0000E940B2C7B018C016C8570E0882777FDB7
:1033D0008095982F0E940E2D9B01AC01C801B7016A
:1033E0000E940B2C20E030E046E953E40E940A2CB6
:1033F00020E030E040E251E40E94732C6B017C013C
:10340000C101BE016F5F7F4F40E050E024E130E03A
:103410005CC06A852AE0629FB00111242B85620F8F
:10342000711D882777FD8095982F0E940E2D6B01C6
:103430007C01C101BE016F5F7F4F40E050E025E19C
:1034400030E043C07A8560E0882777FD8095982F2B
:103450000E940E2D7B018C016B8570E024E0660FCD
:10346000771F2A95E1F7882777FD8095982F0E948E
:103470000E2D9B01AC01C801B7010E940B2C7B01F2
:103480008C016C8570E0882777FD8095982F0E94CD
:103490000E2D9B01AC01C801B7010E940B2C20E04E
:1034A00030E841E054E40E94BE2D20E030E04AE7DD
:1034B00054E40E94732C6B017C01C101BE016F5F5B
:1034C0007F4F40E050E026E130E000E010E0AA2429
:1034D000882461C0698570E061707070762F6627FE
:1034E000882777FD8095982F0E940E2D7B018C01F7
:1034F0006A8570E084E0660F771F8A95E1F7882778
:1035000077FD8095982F0E940E2D9B01AC01C8017C
:10351000B7010E940B2C7B018C016B8570E0882722
:1035200077FD8095982F0E940E2D9B01AC01C8015C
:10353000B7010E940B2C20E030E040E251E40E94F1
:10354000732C2B013C016C8570E080E090E00E94C0
:103550000C2D6B017C01C101BE016F5F7F4F40E00C
:1035600050E027E130E000E010E0AA2488240E9427
:103570006C18C301B20126E636E646E650E40E9426
:10358000BE2D6B017C01C101BE016F5F7F4F40E02A
:1035900050E028E130E00E946C182F960FB6F894A6
:1035A000DEBF0FBECDBFCF91DF911F910F91FF9076
:1035B000EF90DF90CF90AF908F907F906F905F9063
:1035C0004F903F902F9008954F925F926F927F920D
:1035D0008F92AF92BF92CF92DF92EF92FF920F93B2
:1035E0001F93DF93CF93CDB7DEB72D970FB6F89427
:1035F000DEBF0FBECDBF2C01822EA32EB42FA52F70
:10360000CB01CC24DD2479E0E72EF12C64E0662E9A
:10361000712C6C0E7D1E202F2F70F301EE0DFF1DFF
:10362000208339E0E316F10411F0C20ED11C089496
:10363000E108F1086FEFE6166FEFF60671F09801FA
:10364000482D5A2D6B2F7A2F04E00E94E00089014B
:10365000842EA52EB62FA72FDECF1C811A3009F09D
:1036600063C08D8590E07FE0C722DD248C159D0529
:1036700009F05AC000D000D000D0EDB7FEB73196A7
:103680005E010894A11CB11CADB7BEB71296BC92E6
:10369000AE9211978EE291E0938382838F8190E0C6
:1036A0008E709070959587952E812295207F280F9A
:1036B000248315820E94D1052B859C854A856DB790
:1036C0007EB76A5F7F4F0FB6F8947EBF0FBE6DBFA7
:1036D0008D81882349F564E6269FB0011124919FCE
:1036E00090011124620F731F640F711D80E090E040
:1036F0000E940C2D20E030E040E251E40E94732C47
:1037000020E030E048E452E40E940A2C6B017C0186
:10371000C201B50140E050E02DE030E000E010E0F3
:10372000AA2488240E946C182D960FB6F894DEBF48
:103730000FBECDBFCF91DF911F910F91FF90EF9002
:10374000DF90CF90BF90AF908F907F906F905F9001
:103750004F9008952F923F924F925F926F927F9277
:103760008F929F92AF92BF92CF92DF92EF92FF9291
:103770000F931F93DF93CF93CDB7DEB72B970FB681
:10378000F894DEBF0FBECDBF9F838E8368017901A1
:103790006D2D70E080E090E00E940C2D20E030E084
:1037A00048E452E40E940A2C688779878A879B87BD
:1037B000D701C60134E0B695A795979587953A95B8
:1037C000D1F78F70882E9924B40123E07695679500
:1037D0002A95E1F7882777FD8095982F0E940E2D76
:1037E00020E030E040E05FE30E94BE2D2B013C0171
:1037F000B4017595679575956795617070708827A8
:1038000077FD8095982F0E940E2D20E030E040E853
:103810005EE30E94BE2D9B01AC01C301B2010E9478
:103820000B2C2B013C01B40175956795617070708C
:10383000882777FD8095982F0E940E2D20E030E09C
:1038400040E05EE30E94BE2D9B01AC01C301B201CA
:103850000E940B2C2B013C0181E088229924AA2490
:1038600097FCA094BA2CC501B4010E940E2D20E053
:1038700030E040E85DE30E94BE2D9B01AC01C30136
:10388000B2010E940B2C9B01AC01688579858A8569
:103890009B850E940B2C20E030E040E251E40E9426
:1038A000BE2D0E94DB2C882777FD8095982F0E94E3
:1038B0000E2D1B012C01ADB7BEB718970FB6F894AB
:1038C000BEBF0FBEADBFEDB7FEB731963E01089447
:1038D000611C711C12967C926E92119781E391E0AB
:1038E00093838283D701C6010CE1B695A79597957E
:1038F00087950A95D1F795838483D701C6011AE18C
:10390000B695A795979587951A95D1F783708F5F90
:10391000868317820E94D1058DB79EB708960FB691
:10392000F8949EBF0FBE8DBF6701EE24FF249FEF6A
:10393000C922DD24B601882777FD8095982F0E9443
:103940000E2D6B017C018E819F81B30140E050E020
:103950002EE130E000E010E0AA2488240E946C18D8
:10396000C201B10120E030E040E251E40E94732C3A
:103970006B017C018E819F81B30140E050E02FE11B
:1039800030E00E946C182B960FB6F894DEBF0FBE85
:10399000CDBFCF91DF911F910F91FF90EF90DF90FE
:1039A000CF90BF90AF909F908F907F906F905F90DF
:1039B0004F903F902F900895EF92FF920F931F9397
:1039C000CF93DF938FEB91E00E94DE107C01009794
:1039D00009F465C08FEB91E00E94E7108C018FEB3A
:1039E00091E0B7014AE351E098010E94FE0B8FEB92
:1039F00091E00E94DE10EC018FEB91E0B801AE0186
:103A00000E94C50B8FEB91E0BE0145E251E02BE136
:103A100033E00E94071120913F03309140038FEB68
:103A200091E0BE0147E251E00E94651120914103FF
:103A3000309142038FEB91E0BE0149E251E00E94D8
:103A4000651180918503882351F08FEB91E0BE01D1
:103A50004BE251E023E433E00E9407110BC02091B8
:103A60008303309184038FEB91E0BE014BE251E080
:103A70000E9465118FEB91E0B7010E94D80EEC0116
:103A8000009729F08FE095E0BE010E94F72B8FEBA5
:103A900091E0B7010E94330CCE010E948802DF91B1
:103AA000CF911F910F91FF90EF900895CF92DF92E9
:103AB000EF92FF920F931F93CF93DF93EB018FEB66
:103AC00091E00E94DE106C010097A9F18FEB91E06C
:103AD0000E94E7107C018FEB91E0B6014EE351E0CC
:103AE00097010E94FE0B8FEB91E00E94DE108C018B
:103AF0008FEB91E0B701A8010E94C50B8FEB91E01D
:103B0000B80144E451E09E010E9465118FEB91E001
:103B1000B6010E94D80EEC01009729F08FE095E0E5
:103B2000BE010E94F72B8FEB91E0B6010E94330C8F
:103B3000CE010E948802DF91CF911F910F91FF90DB
:103B4000EF90DF90CF900895AF92BF92CF92DF9227
:103B5000EF92FF920F931F93CF93DF930BE912E045
:103B60008FEB91E0B8010E9481135C0180E8F801BD
:103B700011928A95E9F7A114B10411F480E08DC087
:103B80008FEB91E0B5010E94A90B882309F47CC05A
:103B90008FEB91E0B50140E151E00E94E30BBC01E5
:103BA000009709F471C08FEB91E040E00E94B60BE2
:103BB000EC01009709F468C08FEB91E0BE0145E28B
:103BC00051E00E94E30B8C018FEB91E0BE0147E2D4
:103BD00051E00E94E30B7C018FEB91E0BE0149E2D2
:103BE00051E00E94E30B6C018FEB91E0BE014BE2D0
:103BF00051E00E94E30BEC010115110509F444C0EA
:103C0000F8018085853009F03FC0618572858BE1C0
:103C100093E044E250E00E948704E114F104A1F132
:103C2000F7018085833081F58185928590934003EB
:103C300080933F03C114D10439F1F60180858330AC
:103C400019F58185928590934203809341032097D3
:103C5000D9F08885853061F469857A8583E493E0BD
:103C600040E450E00E94870481E0809385030AC00D
:103C7000833051F489859A859093840380938303DC
:103C80001092850301E001C000E08FEB91E0B501E7
:103C90000E94330C802F011181E0DF91CF911F91A1
:103CA0000F91FF90EF90DF90CF90BF90AF9008956D
:103CB000CF93DF938FE095E00E94822A892B19F43D
:103CC000CFEFDFEF1CC0C0E0D0E012C0C038D1059C
:103CD000B1F08FE095E00E94B32AFE01E556FD4F5A
:103CE0008083219662E070E080E090E00E94E0270F
:103CF0008FE095E00E94822A181619063CF3CE0147
:103D0000DF91CF910895BF92CF92DF92EF92FF9211
:103D10000F931F93CF93DF93EC010E94581E181648
:103D200019060CF0F4C0CE010E94A41D882309F4EA
:103D3000E9C080913F0390914003892B09F0DEC0D8
:103D4000809141039091420323E08A3E920709F457
:103D500094C023E08B3E92074CF48B30910509F41C
:103D600056C0875E934009F0C5C00AC023E08B3E71
:103D7000920709F4A3C08F5E934009F0BBC021C035
:103D800083E493E060E070E040E150E00E94E002F4
:103D90007B018C015FEFC52ED12CB601601B710930
:103DA0008CE00E947E28CF18D10888E0B6010E94DE
:103DB0007E28E094F0948FEFE822FF2487E0B7019B
:103DC00023C083E493E060E070E040E150E00E94B3
:103DD000E002B62EE72E80938F034FEFC42ED12C36
:103DE000B601681B71098AE00E947E28E092900368
:103DF000B6016E1971098BE00E947E28B092910382
:103E0000CB18D10889E0B6010E947E286BC08BE1F7
:103E100093E00E940F04823049F0833061F08130DA
:103E200079F486E893E06EE070E00EC086E893E0F7
:103E30006FE070E009C086E893E060E170E004C0E4
:103E400086E893E064E070E00E94CC2686E893E088
:103E50006EE571E00E94F22186E893E068E070E090
:103E60000E94F62186E893E063E473E00E948826CE
:103E700086E893E00E94BC2635C08BE193E00E9467
:103E80000F04823041F0833041F0813011F41EE0A4
:103E900005C01FEF03C01FE001C010E18091850342
:103EA000882331F083E493E00E940F04682F02C05E
:103EB00060918303812F0E941D2914C083E493E045
:103EC00069E471E00E946904009781F483E493E05F
:103ED0006DE471E00E94720483E493E065E571E0B3
:103EE0000E945E04CE010E94DC1C11C0CE0164E081
:103EF00070E00BC0CE0163E070E007C0CE0162E06D
:103F000070E003C0CE0161E070E00E94561DDF91B9
:103F1000CF911F910F91FF90EF90DF90CF90BF90C6
:103F200008954F925F926F927F928F92AF92CF924D
:103F3000DF92EF92FF920F931F93DF93CF93CDB752
:103F4000DEB72A970FB6F894DEBF0FBECDBF2C01A7
:103F50008FE095E00E94822A181619061CF4C2010F
:103F60000E94831E00D000D000D0EDB7FEB731967E
:103F70008E010F5F1F4FADB7BEB712961C930E9305
:103F800011977DE5E72E71E0F72EF382E2828091B2
:103F90008F03848315820E94D1058DB79EB7069644
:103FA0000FB6F8949EBF0FBE8DBF64E0662E712CD5
:103FB0006C0E7D1EC301B8010E94720400D000D0B7
:103FC00000D0EDB7FEB73196ADB7BEB712961C93D1
:103FD0000E931197F382E28280919003848315827D
:103FE0000E94D1058DB79EB706960FB6F8949EBF76
:103FF0000FBE8DBFC301B8010E945E0400D000D087
:1040000000D0EDB7FEB73196ADB7BEB712961C9390
:104010000E931197F382E28280919103848315823B
:104020000E94D1058DB79EB706960FB6F8949EBF35
:104030000FBE8DBFC301B8010E945E04C20162E6DB
:1040400071E040E050E02FEE33E083010F2EF0E00E
:10405000CF2EF0E0DF2EF0E0EF2EF0E0FF2EF02D7F
:10406000AA24A39488240E946C1885B190E08C0146
:1040700001711070FBB084FF04C0C30164E671E0FD
:1040800003C0C30167E671E00E947204CE0104968A
:1040900000FF03C064E671E002C067E671E00E94C1
:1040A0005E04CE010496F7FE03C064E671E002C030
:1040B00067E671E00E945E04C20162E671E040E0E2
:1040C00050E027EE33E08E010C5F1F4F0F2EF0E023
:1040D000CF2EF0E0DF2EF0E0EF2EF0E0FF2EF02DFF
:1040E000AA24A39488240E946C188FE095E00E9473
:1040F000822A181619061CF4C2010E94831E2A96F1
:104100000FB6F894DEBF0FBECDBFCF91DF911F91E8
:104110000F91FF90EF90DF90CF90AF908F907F90B6
:104120006F905F904F900895FF920F931F93162FFB
:1041300005B1FBB08CE061E00E941D2988E061E0E0
:104140000E941D2987E061E00E941D29812F60E007
:104150000E941D296CE370E080E090E00E94E0275F
:104160008CE061E00E941D2988E061E00E941D2929
:1041700087E061E00E941D2964E170E080E090E04A
:104180000E94E02705B9FBB81F910F91FF90089599
:104190008F929F92AF92BF92CF92DF92EF92FF9257
:1041A0000F931F93CF93DF93EC018FE095E00E9474
:1041B000822A181619061CF4CE010E94831E86E876
:1041C00093E060E070E00E94EC2586E893E00E94B6
:1041D000FA21882309F49BC086E893E00E943D22DF
:1041E000892B09F494C086E893E00E943D2206974B
:1041F00008F08DC086E893E00E9427228901F42E02
:10420000E52ED62EC72EB82EA92E822F812B8F29D0
:104210008E298D298C298B298A29D1F1CE0168E03C
:104220000E94942086E893E00E943D22039751F477
:10423000CE012F2D3E2D4D2D5C2D6B2D7A2D0E9404
:10424000E41A61C086E893E00E943D22049751F48D
:10425000CE012F2D3E2D4D2D5C2D6B2D7A2D0E94E4
:104260003A1951C086E893E00E943D22059751F427
:10427000CE012F2D3E2D4D2D5C2D6B2D7A2D0E94C4
:10428000AA1B41C086E893E00E943822819748F03B
:10429000CE0162E671E040E050E02BE030E08B01BF
:1042A00023C086E893E00E9427228901D42EC52EE0
:1042B000B62EA72E982E892E86E893E00E943822EB
:1042C0007C0183E493E02D2D3C2D4B2D5A2D692D3F
:1042D000782D0E94E717CE0162E671E040E050E0E1
:1042E0002BE030E003E413E00F2EF0E0CF2EF0E0FF
:1042F000DF2EF0E0EF2EF0E0FF2EF02DAA24A394A5
:1043000088240E946C1886E893E00E9416228FE0B1
:1043100095E00E94822A181619061CF4CE010E940C
:10432000831EDF91CF911F910F91FF90EF90DF904F
:10433000CF90BF90AF909F908F900895EF92FF9293
:104340000F931F93CF93DF93EC010E94C8200E942C
:10435000AC277B018C0188819981AA81BB81A8014E
:104360009701281B390B4A0B5B0BDA01C9018153FA
:104370009547A040B04038F0CE010E94911FE882DE
:10438000F9820A831B83DF91CF911F910F91FF90D8
:10439000EF900895FC018FEF9FEF918380839383CB
:1043A00082831092920310929303109294031092BE
:1043B000950310929603109297031092980310920F
:1043C00099038AE090E0978386838CE390E0909352
:1043D00077018093760181E080878EE591E0958377
:1043E00084830895FC01758364830895FC017783B9
:1043F0006683089520E08091920390919303892B26
:1044000090919403892B90919503892B9091960319
:10441000892B90919703892B90919803892B9091E8
:104420009903892B09F021E0822F089510929203BD
:104430001092930310929403109295031092960396
:104440001092970310929803109299030895209167
:10445000920330919303409194035091950360919E
:104460009603709197038091980390919903089512
:1044700080919A0390919B03089580919E0390915F
:104480009F0308952F923F924F925F926F927F9277
:104490008F929F92AF92BF92CF92DF92EF92FF9254
:1044A0000F931F93DF93CF93CDB7DEB762970FB60D
:1044B000F894DEBF0FBECDBF3C018091A003909168
:1044C000A1036FE170E00E94A72F4B017B0100E088
:1044D00010E02091760130917701442737FD409517
:1044E000542FC801B7010E94882F0E940C2D2AE08A
:1044F00037ED43E25CE30E94BE2D0E94E02CA80150
:104500009701220F331F441F551F2E0D3F1D401FC3
:10451000511F59016A01A61AB70AC80AD90AAD8201
:10452000BE82CF82D8865B016C01A20EB31EC41E70
:10453000D51EA982BA82CB82DC82AA24BB24650163
:1045400021E030E03A87298717012801261A370A27
:10455000480A590AA8019701260F371F481F591FFB
:104560002F87388B498B5A8B7AC0E985FA85EE0FF5
:10457000FF1FE056FC4F808191819C0140E050E09C
:10458000221633064406550658F58F859889A98961
:10459000BA89281739074A075B0710F5E985FA85B4
:1045A000EE0FFF1FEE55FC4F0190F081E02D7F01D3
:1045B00000E010E0EB86FC860D871E878D819E81D2
:1045C000AF81B8858E159F05A007B10748F4898192
:1045D0009A81AB81BC81E816F9060A071B0778F1BE
:1045E000ED80FE800F811885E216F306040715079B
:1045F00058F589819A81AB81BC81281739074A0710
:104600005B0710F5E985FA85EE0FFF1FEE55FC4FAD
:1046100080819181A0E0B0E0281639064A065B0649
:1046200098F4EF84F88809891A898E159F05A007E8
:10463000B10750F40894A11CB11CC11CD11CAA0CD8
:10464000BB1CCC1CDD1C05C07A866986AA24BB2451
:10465000650109851A850E5F1F4F1A87098729850D
:104660003A852615370508F480CFA60195015695A1
:1046700047953795279580E36816710440F1211519
:1046800031054105510511F480E028C020939203C3
:1046900030939303409394035093950310929603A1
:1046A000109297031092980310929903769467944E
:1046B00070929B0360929A0390929D0380929C0358
:1046C00081E090E090939F0380939E0306C080E07A
:1046D000211531054105510509F081E062960FB6BB
:1046E000F894DEBF0FBECDBFCF91DF911F910F9128
:1046F000FF90EF90DF90CF90BF90AF909F908F9002
:104700007F906F905F904F903F902F9008959F9271
:10471000AF92BF92CF92DF92EF92FF920F931F93CF
:10472000CF93DF936C0120E0A0E0B0E000E010E068
:10473000FF24EE249924AA24BB24C1E0D0E075C054
:10474000FE01EE0FFF1FE056FC4F0190F081E02DBF
:1047500086E0E53AF80760F088E0EC3FF80768F497
:104760003A2F4B2F502F612F7F2D8E2D992D3FC02B
:1047700082E0ED3BF80708F44AC0E451F54008F048
:1047800046C02196FE01EE0FFF1FE056FC4F019040
:10479000F081E02D82E0ED3BF807B8F1E451F540FF
:1047A000A0F5E22FEF5F31E0E21708F030E03A0FBA
:1047B00041E03A1708F040E04B0F51E04B1708F08A
:1047C00050E0500F61E0501708F060E0610F71E0B9
:1047D000611708F070E07F0D81E07F1508F080E040
:1047E0008E0D91E08E1508F090E02E2F990D01E0CE
:1047F0000E945F01A32FB42F052F162FF72EE82E4E
:10480000992E0894A11CB11C0FC0E6010DC0E60151
:1048100082E3C816D10444F420E0A0E0B0E000E058
:1048200010E0FF24EE2499242196CC15DD0508F430
:1048300087CF83E3C816D104B8F184E2A816B10487
:1048400099F53A2F4B2F502F612F7F2D8E2D992DBB
:1048500001E00E94E000FC01852F8370962F9C7080
:10486000892B11F120939203309393034093940387
:10487000509395036093960370939703E093980386
:10488000F0939903B0929B03A0929A0388EE93E071
:1048900090939D0380939C0385E090E090939F0309
:1048A00080939E0381E001C080E0DF91CF911F9152
:1048B0000F91FF90EF90DF90CF90BF90AF909F90BF
:1048C0000895AF92BF92DF92EF92FF920F931F93E2
:1048D000CF93DF935C0120E0A0E0B0E000E010E0C7
:1048E000FF24EE24DD24C1E0D0E05AC0FE01EE0F2B
:1048F000FF1FE056FC4F0190F081E02D85E0E5318F
:10490000F80760F086E0E43AF80760F43A2F4B2F9E
:10491000502F612F7F2D8E2D9D2D2DC081E0ED32EA
:10492000F807A0F1EC5BF24088F5E22FEF5F31E091
:10493000E21708F030E03A0F41E03A1708F040E0A3
:104940004B0F51E04B1708F050E0500F61E050174B
:1049500008F060E0610F71E0611708F070E07F0D12
:1049600081E07F1508F080E08E0D91E08E1508F053
:1049700090E02E2F9D0D01E00E945F01A32FB42F28
:10498000052F162FF72EE82ED92E09C0E50120E0BD
:10499000A0E0B0E000E010E0FF24EE24DD24229649
:1049A000CA15DB0508F4A2CF3A2F4B2F502F612FE9
:1049B0007F2D8E2D9D2D01E00E94E000E82F822F9B
:1049C000832BF1E5AF16B104E8F1842B852B862B00
:1049D000872B8E2B892B11F420E03DC0209392036E
:1049E00030939303409394035093950360939603FD
:1049F00070939703E093980390939903C50196955C
:104A0000879590939B0380939A0384EF91E0909312
:104A10009D0380939C0384E6A816B10418F483E0F8
:104A200090E006C0F8E6AF16B10439F484E090E0F7
:104A300090939F0380939E030DC010929F0310924A
:104A40009E0308C020E0842B852B862B872B8E2B82
:104A5000892B09F021E0822FDF91CF911F910F91D7
:104A6000FF90EF90DF90BF90AF900895EF92FF928C
:104A70000F931F93CF93DF930E94BA277B018C0182
:104A80008091720490917304E701C81BD90BD093F5
:104A90007904C093780423E1C938D20708F43DC0F3
:104AA0008091A0039091A1038958934170F1809166
:104AB0007004909171040196909371048093700436
:104AC0000197F1F4809176049091770485319105F6
:104AD00098F08135910518F00E9461240DC0833350
:104AE000910518F00E94872307C0019790937704DF
:104AF000809376040E9442221092710410927004F6
:104B0000109277041092760408C0109277041092E5
:104B10007604109271041092700480917604909142
:104B200077048836910540F010927704109276044D
:104B30001092710410927004809176049091770421
:104B4000FC01EE0FFF1FE056FC4FD183C08301969E
:104B50009093770480937604E0927204F092730449
:104B60000093740410937504DF91CF911F910F91FE
:104B7000FF90EF9008950F931F938C01FC018081AB
:104B80000E94F7268FEF9FEFF801918380831F919A
:104B90000F910895FC01808191812FEF8F3F920743
:104BA000D1F01092920310929303109294031092FA
:104BB0009503109296031092970310929803109207
:104BC000990310929B0310929A0366E375E241E009
:104BD00050E00E94D4260895FC01808191818617BF
:104BE000970729F071836083CF010E94CA25089539
:104BF000AF92BF92DF92EF92FF920F931F93CF93EA
:104C0000DF93EC017B015A01088119818A819B8124
:104C10008F5F9F4F89F13FEF0F3F130711F4DD24A2
:104C200005C0CE010E94BB25DD24D3948A8161E0BA
:104C30000E941D298C819D819C01E29EC001E39E02
:104C4000900DF29E900D11240E9439288A8160E017
:104C50000E941D298C819D819C01A29EC001A39E62
:104C6000900DB29E900D11240E943928DD2021F074
:104C7000CE01B8010E94EC25DF91CF911F910F91D9
:104C8000FF90EF90DF90BF90AF900895FC0180857A
:104C9000813041F4CF0161E070E04FE150E00E94CB
:104CA000F8250895823039F4CF0161E070E04AE0E0
:104CB00050E00E94F8250895FC018085813041F480
:104CC000CF0163E070E041E050E00E94F8250895D4
:104CD000823039F4CF0162E070E041E050E00E94A0
:104CE000F8250895FC018085813041F4CF0161E011
:104CF00070E043E050E00E94F8250895823039F4D6
:104D0000CF0161E070E042E050E00E94F825089594
:104D1000CF92DF92EF92FF920F931F93CF93DF9387
:104D20008C016B01EE24FF2416C0803319F081330F
:104D300041F404C0C8010E94722603C0C8010E9449
:104D40005C2621968881882381F7C8010E94462627
:104D50000894E11CF11CF80186819781E816F90698
:104D600014F4E601EFCFDF91CF911F910F91FF90E7
:104D7000EF90DF90CF9008950F931F938C01FC016B
:104D8000828160E00E94DE288FEF9FEFF80193831D
:104D900082831F910F910895FC01862F6283738394
:104DA00061E00E94DE280895823000F5E82FF0E0EF
:104DB000EE0FFF1FE658FB4F71836083882319F0C5
:104DC0008130A1F408C0809169008C7F842B80938E
:104DD0006900E89A089580916900440F551F440FB7
:104DE000551F837F842B80936900E99A0895823050
:104DF00080F4882319F0813021F402C0E89801C0C2
:104E0000E998E82FF0E0EE0FFF1FE658FB4F118204
:104E1000108208951F920F920FB60F9211242F93B4
:104E20003F934F935F936F937F938F939F93AF9332
:104E3000BF93EF93FF9380917A0490917B04892B29
:104E400029F0E0917A04F0917B040995FF91EF91AC
:104E5000BF91AF919F918F917F916F915F914F9192
:104E60003F912F910F900FBE0F901F9018951F929A
:104E70000F920FB60F9211242F933F934F935F938E
:104E80006F937F938F939F93AF93BF93EF93FF9312
:104E900080917C0490917D04892B29F0E0917C0421
:104EA000F0917D040995FF91EF91BF91AF919F9192
:104EB0008F917F916F915F914F913F912F910F90C3
:104EC0000FBE0F901F9018951F920F920FB60F9262
:104ED00011242F933F938F939F93AF93BF93809110
:104EE000820490918304A0918404B0918504309150
:104EF00086040196A11DB11D232F2D5F2D3720F0B3
:104F00002D570196A11DB11D209386048093820424
:104F100090938304A0938404B093850480917E04CD
:104F200090917F04A0918004B09181040196A11D0D
:104F3000B11D80937E0490937F04A0938004B0936E
:104F40008104BF91AF919F918F913F912F910F90CD
:104F50000FBE0F901F9018958FB7F8942091820480
:104F60003091830440918404509185048FBFB9012E
:104F7000CA0108959FB7F89420917E0430917F0470
:104F8000409180045091810486B5A89B06C08F3F54
:104F900021F02F5F3F4F4F4F5F4F9FBF542F432F45
:104FA000322F2227280F311D411D511D82E0220F73
:104FB000331F441F551F8A95D1F7B901CA010895BF
:104FC0009B01AC017FB7F89480917E0490917F049F
:104FD000A0918004B091810466B5A89B05C06F3F85
:104FE00019F00196A11DB11D7FBFBA2FA92F982FCF
:104FF0008827860F911DA11DB11D62E0880F991FA2
:10500000AA1FBB1F6A95D1F7BC012DC0FFB7F8944A
:1050100080917E0490917F04A0918004B0918104DE
:10502000E6B5A89B05C0EF3F19F00196A11DB11D83
:10503000FFBFBA2FA92F982F88278E0F911DA11D72
:10504000B11DE2E0880F991FAA1FBB1FEA95D1F797
:10505000861B970B885E9340C8F221503040404039
:10506000504068517C4F211531054105510571F6BD
:105070000895019739F0880F991F880F991F02979B
:105080000197F1F70895789484B5826084BD84B562
:10509000816084BD85B5826085BD85B5816085BD33
:1050A000EEE6F0E0808181608083E1E8F0E010824C
:1050B000808182608083808181608083E0E8F0E08D
:1050C000808181608083E1EBF0E080818460808377
:1050D000E0EBF0E0808181608083EAE7F0E08081AE
:1050E000846080838081826080838081816080830E
:1050F0008081806880831092C10008951F93CF93B0
:10510000DF93182FEB0161E00E94DE28209709F45D
:105110004AC0CF3FD10509F449C0E12FF0E0E45B7C
:10512000FE4F84918330C1F0843028F4813051F0F7
:105130008230B1F50CC0863019F1873049F18430E6
:1051400079F514C084B5806884BDC7BD33C084B50B
:10515000806284BDC8BD2EC080918000806880932D
:105160008000D0938900C093880024C08091800083
:10517000806280938000D0938B00C0938A001AC015
:105180008091B00080688093B000C093B30012C0DB
:105190008091B00080628093B000C093B4000AC0D8
:1051A000C038D1051CF4812F60E002C0812F61E07E
:1051B0000E941D29DF91CF911F910895CF93DF9316
:1051C000482F50E0CA01885C9E4FFC0134914C5D31
:1051D0005E4FFA018491882369F190E0880F991F4E
:1051E000FC01EA5FFE4FA591B491FC01E05FFE4F28
:1051F000C591D491662351F42FB7F8948C91932FD5
:10520000909589238C93888189230BC0623061F447
:105210002FB7F8948C91932F909589238C93888144
:10522000832B88832FBF06C09FB7F8948C91832B64
:105230008C939FBFDF91CF910895482F50E0CA0112
:10524000845B9E4FFC012491CA01885C9E4FFC0147
:1052500094914C5D5E4FFA013491332309F440C0C0
:10526000222351F1233071F0243028F42130A1F0B1
:10527000223011F514C02630B1F02730C1F02430AF
:10528000D9F404C0809180008F7703C080918000A2
:105290008F7D8093800010C084B58F7702C084B565
:1052A0008F7D84BD09C08091B0008F7703C080914D
:1052B000B0008F7D8093B000E32FF0E0EE0FFF1F72
:1052C000E05FFE4FA591B4912FB7F894662321F4C7
:1052D0008C919095892302C08C91892B8C932FBF40
:1052E000089508951F920F920FB60F9211242F93D5
:1052F0003F934F938F939F93EF93FF938091C000C1
:1053000082FD1DC04091C6002091C7043091C804A1
:105310002F5F3F4F2F7330708091C9049091CA0462
:105320002817390771F0E091C704F091C804E957D4
:10533000FB4F40833093C8042093C70402C0809180
:10534000C600FF91EF919F918F914F913F912F91C7
:105350000F900FBE0F901F901895E0911B05F091D4
:105360001C05E05CFF4F8191919120813181821B6E
:10537000930B8F739070892B11F00E9471290895FF
:105380001F920F920FB60F9211242F933F938F937A
:105390009F93EF93FF9320910B0530910C05809123
:1053A0000D0590910E052817390731F48091C10041
:1053B0008F7D8093C10014C0E0910D05F0910E0522
:1053C000E553FB4F208180910D0590910E050196CC
:1053D0008F73907090930E0580930D052093C600F7
:1053E000FF91EF919F918F913F912F910F900FBE61
:1053F0000F901F901895AF92BF92DF92EF92FF929D
:105400000F931F93CF93DF93EC017A018B01DD247F
:10541000403081EE580780E0680780E0780711F09F
:10542000DD24D39491E0A92EB12CEC89FD89DD20F7
:1054300069F0C50108A002C0880F991F0A94E2F71D
:10544000808360E079E08DE390E005C0108260E841
:1054500074E88EE190E0A80197010E94BB2F2150D3
:10546000304040405040569547953795279580E10C
:105470002030380720F0DD2011F0DD24D6CFE88978
:10548000F9893083EA89FB89208319A2EE89FF8993
:10549000408121E030E0C9010C8C02C0880F991FC7
:1054A0000A94E2F7482B4083EE89FF894081C901C5
:1054B0000D8C02C0880F991F0A94E2F7482B408395
:1054C000EE89FF894081C9010E8C02C0880F991FA7
:1054D0000A94E2F7482B4083EE89FF8980810F8C84
:1054E00002C0220F331F0A94E2F72095282320835D
:1054F000DF91CF911F910F91FF90EF90DF90BF90C0
:10550000AF900895DC011C96ED91FC911D97E05C35
:10551000FF4F2191319180819181281B390B2F738D
:105520003070C9010895DC011C96ED91FC911D9726
:10553000E05CFF4F20813181E054F040DF01AE5B41
:10554000BF4F8D919C9111972817390719F42FEFB0
:105550003FEF07C08D919C91E80FF91F8081282FA4
:1055600030E0C9010895DC011C96ED91FC911D9776
:10557000E05CFF4F20813181E054F040DF01AE5B01
:10558000BF4F8D919C9111972817390719F42FEF70
:105590003FEF10C08D919C911197E80FF91F20816A
:1055A0008D919C91119701968F73907011969C9399
:1055B0008E9330E0C9010895DC0191968C9191970A
:1055C000882339F05496ED91FC915597808186FFA0
:1055D000F9CF91961C920895CF93DF93EC01EE855D
:1055E000FF85E05CFF4F20813181E054F0402F5F68
:1055F0003F4F2F733070DF01AE5BBF4F8D919C9199
:10560000119728173907D1F3E05CFF4F8081918112
:10561000E054F040E80FF91F6083EE85FF85E05C01
:10562000FF4F31832083EE89FF89208181E090E064
:105630000F8C02C0880F991F0A94E2F7282B208351
:1056400081E089A3EC89FD8980818064808381E089
:1056500090E0DF91CF9108951092120510921105FC
:1056600088EE93E0A0E0B0E08093130590931405DA
:10567000A0931505B09316058CE891E09093100562
:1056800080930F0587E894E090931C0580931B0599
:105690008BEC94E090931E0580931D0585EC90E0C3
:1056A0009093200580931F0584EC90E09093220551
:1056B0008093210580EC90E090932405809323054E
:1056C00081EC90E0909326058093250582EC90E094
:1056D000909328058093270586EC90E090932A0507
:1056E0008093290584E080932B0583E080932C052B
:1056F00087E080932D0585E080932E0581E08093DF
:105700002F050895CF93DF930E9443280E949008AD
:10571000CDEAD9E20E9483082097E1F30E94AD29E7
:10572000F9CFCF92DF92EF92FF920F931F93CF9317
:10573000DF937C016B018A01C0E0D0E00FC0D6018D
:105740006D916D01D701ED91FC910190F081E02DFB
:10575000C7010995C80FD91F015010400115110547
:1057600071F7CE01DF91CF911F910F91FF90EF90D4
:10577000DF90CF900895EF92FF920F931F938C01CB
:10578000DC01ED91FC910190F081E02D6DE0099537
:105790007C01D801ED91FC910190F081E02DC801D0
:1057A0006AE009959C012E0D3F1DC9011F910F91C3
:1057B000FF90EF900895CF93DF93EC016115710591
:1057C00019F420E030E00FC0DB010D900020E9F774
:1057D0001197A61BB70BE881F9810280F381E02DB8
:1057E000AD0109959C01C901DF91CF910895EF9218
:1057F000FF920F931F937C010E94DB2B8C01C7014A
:105800000E94BB2B080F191FC8011F910F91FF9019
:10581000EF9008955058BB27AA270ED075C166D1C6
:1058200030F06BD120F031F49F3F11F41EF45BC1D6
:105830000EF4E095E7FB51C1E92F77D180F3BA1759
:10584000620773078407950718F071F49EF58FC1FE
:105850000EF4E0950B2EBA2FA02D0B01B90190018B
:105860000C01CA01A0011124FF27591B99F0593FCF
:1058700050F4503E68F11A16F040A22F232F342F17
:105880004427585FF3CF469537952795A795F04065
:105890005395C9F77EF41F16BA0B620B730B840B7A
:1058A000BAF09150A1F0FF0FBB1F661F771F881F32
:1058B000C2F70EC0BA0F621F731F841F48F487958A
:1058C00077956795B795F7959E3F08F0B3CF939579
:1058D000880F08F09927EE0F979587950895D9D0EE
:1058E00008F481E008950CD00FC107D140F0FED03C
:1058F00030F021F45F3F19F0F0C0511139C1F3C00D
:1059000014D198F39923C9F35523B1F3951B550B83
:10591000BB27AA2762177307840738F09F5F5F4F82
:10592000220F331F441FAA1FA9F333D00E2E3AF0C3
:10593000E0E830D091505040E695001CCAF729D0DD
:10594000FE2F27D0660F771F881FBB1F261737072C
:105950004807AB07B0E809F0BB0B802DBF01FF275C
:1059600093585F4F2AF09E3F510568F0B6C000C1C2
:105970005F3FECF3983EDCF3869577956795B79596
:10598000F7959F5FC9F7880F911D9695879597F9B1
:105990000895E1E0660F771F881FBB1F621773072A
:1059A0008407BA0720F0621B730B840BBA0BEE1F3F
:1059B00088F7E095089504D06894B111D9C008958E
:1059C000BCD088F09F5790F0B92F9927B751A0F01D
:1059D000D1F0660F771F881F991F1AF0BA95C9F783
:1059E00012C0B13081F0C3D0B1E00895C0C0672FBC
:1059F000782F8827B85F39F0B93FCCF38695779533
:105A00006795B395D9F73EF490958095709561951B
:105A10007F4F8F4F9F4F0895E89409C097FB3EF446
:105A200090958095709561957F4F8F4F9F4F9923EB
:105A3000A9F0F92F96E9BB279395F6958795779569
:105A40006795B795F111F8CFFAF4BB0F11F460FF29
:105A50001BC06F5F7F4F8F4F9F4F16C0882311F081
:105A600096E911C0772321F09EE8872F762F05C095
:105A7000662371F096E8862F70E060E02AF09A9530
:105A8000660F771F881FDAF7880F9695879597F925
:105A90000895990F0008550FAA0BE0E8FEEF1616BF
:105AA0001706E807F907C0F012161306E407F50712
:105AB00098F0621B730B840B950B39F40A2661F086
:105AC000232B242B252B21F408950A2609F4A14029
:105AD000A6958FEF811D811D089597F99F6780E836
